:020000025000AC
:1000000040510220DD2E05008F240600C92E050078
:10001000C92E0500C92E0500C92E0500C92E0500F0
:10002000000000000000000000000000B92F0500E3
:10003000C92E050000000000DD310500C92E0500B5
:1000400081320500813205008132050081320500D0
:1000500081320500813205008132050081320500C0
:1000600081320500813205008132050081320500B0
:1000700081320500813205008132050081320500A0
:100080008132050081320500813205008132050090
:100090008132050081320500813205008132050080
:1000A0008132050081320500813205008132050070
:1000B0008132050081320500813205008132050060
:1000C0008132050081320500813205008132050050
:1000D0008132050081320500813205008132050040
:1000E0008132050081320500813205008132050030
:1000F0008132050081320500813205008132050020
:10010000813205008132050081320500813205000F
:1001100081320500813205008132050081320500FF
:1001200081320500813205008132050081320500EF
:1001300081320500813205008132050081320500DF
:040140008132050003
:1001440080EA0102844612F0030F4FD111F0030F2D
:1001540032D14DF8044D11F0040F51F8043B0BD08B
:10016400A3F101329A4312F0803F04BF4CF8043BE0
:1001740051F8043B16D100BF51F8044BA3F10132EE
:100184009A4312F0803FA4F101320BD14CF8043BA6
:10019400A24312F0803F04BF51F8043B4CF8044BD7
:1001A400EAD023460CF8013B13F0FF0F4FEA332348
:1001B400F8D15DF8044B704711F0010F06D011F827
:1001C400012B0CF8012B002A08BF704711F0020F15
:1001D400BFD031F8022B12F0FF0F16BF2CF8022B00
:1001E4008CF8002012F47F4FB3D1704711F8012B23
:1001F4000CF8012B002AF9D1704700BF844641EA6C
:10020400000313F0030349D1403A23D30B6803607E
:100214004B6843608B688360CB68C3600B69036180
:100224004B6943618B698361CB69C3610B6A036268
:100234004B6A43628B6A8362CB6AC3620B6B036350
:100244004B6B43638B6B8363CB6BC3634030403135
:10025400403ADBD230320BD30B6803604B68436007
:100264008B688360CB68C36010301031103AF3D2CE
:100274000C3205D351F8043B40F8043B043AF9D25C
:10028400043208D0D2071CBF11F8013B00F8013B2F
:1002940001D30B8803806046704700BF082A13D33C
:1002A4008B07B1D010F00303AED0C3F10403D21A0C
:1002B400DB071CBF11F8013B00F8013BA4D331F864
:1002C400023B20F8023B9FE7043AD9D3013A11F8E4
:1002D400013B00F8013BF9D20B7803704B78437073
:1002E4008B7883706046704753B94AB9002908BFB8
:1002F40000281CBF4FF0FF314FF0FF3000F00CB866
:10030400ADF1080C6DE904CE00F008F8DDF804E066
:10031400DDE9022304B07047704700BF2DE9F047C0
:100324008C468E46089E154604461946002B40F01E
:10033400D080724547D9B2FA82F74FB1C7F1200392
:100344000EFA07FCBD40BC4020FA03F343EA0C0C50
:100354004FEA154EA8B2230CBCFBFEF80EFB18CCDA
:1003640008FB00F943EA0C43994528D9EB1808F136
:10037400FF3204D2994502D9A8F102022B44A3EB1F
:100384000903A4B2B3FBFEFC0EFB1C330CFB00F010
:1003940044EA0344A04214D92C190CF1FF3304D2CB
:1003A400A04202D9ACF102032C44241A43EA0240CD
:1003B4001EB1FC40002334607360BDE8F087424600
:1003C400DDE76346F1E7002A79D0B2FA82F3002B25
:1003D4003FD01946C1F1200302FA01F500FA01F4F5
:1003E4002EFA03F20EFA01FE20FA03F3AFB243EA47
:1003F4000E034FEA154EB2FBFEFC0EFB1C201A0C3A
:100404000CFB07F842EA004290455AD9AA180CF1AD
:10041400FF3004D2904502D9ACF102002A44A2EB89
:1004240008029BB2B2FBFEFC0EFB1C220CFB07F77E
:1004340043EA02439F4246D9EB180CF1FF3204D23F
:100444009F4202D9ACF102022B44DB1B42EA004278
:1004540002E0AEEB020301224FEA154EAFB2200CCC
:10046400B3FBFEFC0EFB1C330CFB07F840EA034312
:1004740098452AD9EB180CF1FF3004D2984502D9DB
:10048400ACF102002B44A3EB0803A4B2B3FBFEFCC3
:100494000EFB1C330CFB07F744EA0344A74216D9AE
:1004A4002C190CF1FF3304D2A74202D9ACF1020398
:1004B4002C44E41B43EA00400F46114678E71F2111
:1004C40088E76046ABE76246BFE76046DBE7634622
:1004D400EFE7734506D916B9002108466DE7C6E96A
:1004E400000EF9E7B3FA83F787B9734501D3824263
:1004F40007D8841A6EEB030301209C461EB9002121
:100504005BE73846FAE7C6E9004CF8E7C7F1200C88
:10051400BB4000FA07F422FA0CF520FA0CF1BA40B9
:100524001D432EFA0CF30EFA07FE4FEA154941EA71
:100534000E011FFA85FEB3FBF9F809FB18300B0C0A
:1005440008FB0EFA43EA00439A4540D9EB1808F138
:10055400FF3004D29A4502D9A8F102002B44A3EB40
:100564000A0389B2B3FBF9F809FB183308FB0EFE42
:1005740041EA03418E452CD9691808F1FF3304D2AE
:100584008E4502D9A8F10203294443EA0040A1EBB5
:100594000E01A0FB02984145CE46434602D306D144
:1005A4004C4504D20138B9EB020E68EB0503002E6A
:1005B400A5D0B4EB0E0261EB030101FA0CFC22FAA4
:1005C40007F3F9404CEA0303C6E9003197E74046D4
:1005D400C5E74346D9E7000010B584B0174811F0C9
:1005E4001AFD174811F017FD164B029300200190D5
:1005F400009003460322144911F0B3FA06F088FE72
:1006040068B9124B02930020019000900346032224
:100614000D4911F0A6FA00F033F904B010BD0390AF
:100624000B4B0293002401940094234601220649B3
:10063400204611F096FA2046EFE700BF986F0600B7
:100644009C6F0600AC6F0600006F0600E06F0600AA
:10065400C86F060070B582B006460D46144601E028
:100664000544241A7CB100230193009322462946B1
:10067400304603F067FE0028F2DA02F00FFE034B67
:100684001858404200E0002002B070BD0C00000089
:100694002DE9F043FBB007468846164603AD1A49D8
:1006A400284611F085FA431C04222A54821C022194
:1006B400E954C31C310AA954041DEE5441462819B7
:1006C40011F076FA04440DF1040910238DF8043076
:1006D40021460DF1050011F053FA461C0DF1E8080E
:1006E400324649464046FFF789FD2246294608EB33
:1006F4000600FFF783FDA21941463846FFF7AAFF1B
:100704007BB0BDE8F08300BFF46F06002DE9F0472D
:1007140086B00746894690469A4604A80023049367
:10072400436004970121ADF81410109A11F08FFF63
:1007340000284FD0002836DB0023019300934FF4A8
:10074400807301220DF10F01384603F035FE0128B4
:1007540043D1002601250024019400944FF48073B2
:1007640001220DF10E01384603F026FE012837D18F
:100774009DF80E4004F07F0305FB0366ED0114F0C1
:10078400800FE8D10E9B9E422DD8A6B99DF80F305C
:100794001A0989F8002003F00F0388F800300F9B32
:1007A4001E60002004E002F079FD104B185840420E
:1007B40006B0BDE8F0870023019300934FF48073E3
:1007C40032465146384603F0F7FD8642DED06FF0DC
:1007D4006700EDE76FF07300EAE76FF06700E7E7A3
:1007E4006FF06700E4E76FF07900E1E70C000000C8
:1007F40030B597B001AC5422002120460FF014FA12
:10080400012303930493002300936B462246194962
:10081400194811F0BEFF50BBFD2201212D2003F029
:100824003FFC041E0DDB009BD9699A69204603F046
:10083400F5FC00280EDB009811F0D4FF204617B019
:1008440030BD009811F0CEFF02F028FD0B4B1C5870
:100854006442F3E702F022FD084B1D586D42204626
:1008640011F0CDFF009811F0BDFF2C46E6E76FF0C4
:100874007504E3E7FC6F0600047006000C0000003A
:100884002DE9F047ADF5127D4FF47A741FE003951E
:10089400A34B029300200190009003460222A14939
:1008A40011F04BFA610CE00340F2E733C0184FF447
:1008B4007A724FF0000341F10001FFF715FD0DF0CE
:1008C400F7FC64004EF660239C4228BF1C46FFF7E9
:1008D4008FFF051EDBDB12AE0421304611F0DDFE76
:1008E40008AC129B904A282120460FF07BFD3C2245
:1008F40021462846FFF7CCFE034688B1FBB103939B
:100904008A4B0293002001900090034601228549FE
:1009140011F013FA284611F072FF4FF47A74D6E7F7
:1009240043F69821284611F0E1F903460028E6D160
:1009340001227F49284611F04CF90346DEE77D4B3E
:1009440004937D4B03937D4B029300200190009010
:1009540003460322734911F0F0F915F0BDFF4E016F
:1009640046EAD0664401241A66EB0106B60046EA5C
:100974009476A400241846EB0106F60046EA547661
:10098400C4F3103444EA4644F60B4FF0020889E0FD
:1009940015F0A2FF4A0142EAD06243011B1A62EB3E
:1009A4000102920042EA93729B001B1842EB010180
:1009B400C90041EA5371C3F3103343EA4143C90BFD
:1009C4001B1B61EB060147F23152934271F10001A6
:1009D40068DB284611F07EF9074615F07DFF4E01CD
:1009E40046EAD0664401241A66EB0106B60046EADC
:1009F4009476A400241846EB0106F60046EA5476E1
:100A0400C4F3103444EA4644F60B002F4AD003974B
:100A14004B4B02930020019000900346022241496F
:100A240011F08BF9284611F0EAFE4FF47A744EE780
:100A34004FF0000A1E1B0396424B029300200190C4
:100A4400009003460322374911F077F908F10109B0
:100A54001FFA89F9CDF80080334612AA22443A4994
:100A6400284611F0E8F8074615F036FF4E0146EA2D
:100A7400D0664401241A66EB0106B60046EA947671
:100A8400A400241846EB0106F60046EA5476C4F3A3
:100A9400103444EA4644F60BBAF1000F3AD1002F61
:100AA400B5D1C8464FF47A73029307AB01934FF460
:100AB4000073009312AB0DF11B020DF11A012846CD
:100AC400FFF724FE074610F1740F3FF461AF0028CE
:100AD4009DDB9DF81A30032BE4D1079B012BE1D950
:100AE4009DF848109DF8492042EA0122941CA34233
:100AF4008DD39DF81B1011F0060F99D0111D8B4258
:100B040085D312A8045D033210F802A04AEA042A2D
:100B14000C468FE75146284611F0C7F8BFE700BFDF
:100B24000C700600186F060024700600487006005A
:100B340034700600FC6F0600047006006070060046
:100B4400B0700600847006009C70060000EBC103C0
:100B54005B8813F0010F06D101EB530330F8332007
:100B64009B1A994215D010B584B00F4B0293002400
:100B740001940094234601220C49204611F02EF9D9
:100B840084F31188BFF36F8F0423184602DF04B087
:100B940010BD30F83130CB1A00EBC300428803EBB0
:100BA40052039942DFD17047D8700600406F0600A7
:100BB4002DE9F04385B00446164600EBC102D58802
:100BC400A9422FD0CB0003449F884FEAC70909F1FB
:100BD400060930F80930994204D100EBC5039B881B
:100BE400994214D0154B02934FF00008CDF80480BD
:100BF400CDF80080434601221149404611F0EEF839
:100C040088F31188BFF36F8F0423184602DF04367C
:100C140044F8265024F80950ED000435675305B014
:100C2400BDE8F083C3680122B24023EA0203C36033
:100C34000436002340F82630F1E700BF00710600B7
:100C4400406F06002DE9F04784B004460D46131D9D
:100C540050F8236086B9C368012191400B43C360F7
:100C6400043240F82250EB001A1DADB2855206330F
:100C7400C55204B0BDE8F087F700043730F8079098
:100C84004FEAC90808F1060830F808309E420AD134
:100C9400EB001A1D24F802900633E652ADB224F894
:100CA4000850E553E5E70B4B02934FF0000ACDF8EB
:100CB40004A0CDF800A0534601220749504611F084
:100CC4008DF88AF31188BFF36F8F0423184602DF6F
:100CD400DEE700BF00710600406F0600002971D0F6
:100CE4002DE9F04385B00E460568284611F072F8E8
:100CF4000446C70007F1020835F8083013F0010F65
:100D04001ED035F8083004EB530335F833209B1A12
:100D14009C422CD12F4435F83430E31A05EBC3023E
:100D2400528803EB52039C4238D17B8823F00103A1
:100D34007B802146284611F078F805B0BDE8F083A1
:100D44000396214B02934FF00009CDF80490CDF89F
:100D540000904B4601221D49484611F03FF889F3A3
:100D64001188BFF36F8F0423184602DFC9E7039687
:100D7400174B02934FF00008CDF80480CDF80080A3
:100D8400434601221149404611F028F888F311889E
:100D9400BFF36F8F0423184602DFBBE703960D4BA6
:100DA40002930026019600963346012207493046F5
:100DB40011F014F886F31188BFF36F8F04231846DB
:100DC40002DFB2E7704700BF9C710600406F060067
:100DD400487106007471060070B5B2F5802F1FD2F9
:100DE4000346042A2CD9043AC81D20F007000A44FB
:100DF40022F00702121AD508172A31D91860856023
:100E04000023C360B5FA85F1C1F1200EC1F12401BC
:100E14008900CE1DF1084B1CAB4231D8002345E0BC
:100E2400354C4FF4377322463449354811F00AF9EA
:100E3400344811F007F94FF43771204611F0F9F8EE
:100E44002D4C40F2E32322462F492D4811F0FAF8A5
:100E54002E4811F0F7F840F2E321204611F0E9F8AA
:100E6400254C4FF43B7322462949254811F0EAF8F2
:100E7400264811F0E7F84FF43B71204611F0D9F8F9
:100E84001D4C40F20233224622491D4811F0DAF883
:100E94001E4811F0D7F840F20231204611F0C9F88B
:100EA40003F1040C002440F82C4001337345F7DBB4
:100EB4001FFA81FE4FEA4E04A4B244804FF0000CA6
:100EC400A0F800C044F0010444806B1A26F0070423
:100ED400A51C9BB25E00465320F804E022F00704F0
:100EE400951C20F805C002440353538843F00103C2
:100EF400538010F08EFF70BDC4710600447206006A
:100F0400047206005C720600747206009872060091
:100F1400B4720600E07206002DE9F04F91B006921B
:100F24000393134602F004020092C3F3C20210F0CA
:100F34000303019340F05C82074689460132041D95
:100F4400002849D0072940F25682039B5D1EDDF834
:100F540004B0CDF810B0CDF814B000264FF0FF3A2D
:100F64004FF00408CDF808B0C3460FB1039B2360CB
:100F7400531E0793002A40F35D81069B13F0020180
:100F840027D00120E21B930819B1B2F5007F80F04D
:100F94005E81029A0F2A00F26A81002F00F07B81A1
:100FA400DBB2029901F140026A4402F8103C02F8F3
:100FB40020AC002800F06B8163F07F0301F1400254
:100FC4006A4402F8103C049B01330493029B0133EE
:100FD4000293043400223EE001F007031C44C3F1F1
:100FE4000809B2E7002635E0002633E0002631E0A8
:100FF4004FF00808C3462DE025292BD10AF1010A38
:1010040001264FF00408C34624E04729ECD82A29D6
:1010140012D32A39C9B2012000FA01F14FF6DA706D
:10102400014217D111F0625F40F0C28011F0010F4C
:1010340040F08C8000260DE0252903D10AF1FF3A07
:10104400002607E0D2D8202904D0232902D0002684
:1010540000E000261D466B1C6978002900F04581DC
:10106400002EC9D07A29BDD84C29CED34C392E298B
:10107400EFD801A050F821F05910050057100500D1
:1010840057100500571005005710050057100500AC
:10109400571005005710050057100500571005009C
:1010A4005710050057100500491105005710050099
:1010B400571005005710050057100500571005007C
:1010C400571005005710050057100500B51105000D
:1010D400571005004911050049110500B511050017
:1010E400B5110500B5110500591005004911050099
:1010F400F50F05005710050059100500571005009D
:1011040013120500491105001312050057100500BC
:10111400571005001D120500411105004911050075
:101124005710050057100500491105005710050018
:10113400391105004FF00408C3468BE74FF004084B
:10114400C34687E729786C2924D000264444013C0F
:10115400B4FBF8F408FB04F427B1E11B59444945F6
:1011640000F24C81002A5DD1BBF1040F00F0A48091
:10117400BBF1080F40F0A8801A99073121F007014C
:1011840001F108001A90D1E900010FB1C4E900018E
:1011940008345FE713F8021C6C2904D000264FF0D2
:1011A4000408C346D2E700264FF00808C346CDE73B
:1011B40029784C291BD01A99073121F0070101F134
:1011C40008001A90D1E90001073424F0070447B15C
:1011D400E61B08364E4514D82D784C2D14D0C4E99E
:1011E4000001083400264FF00808C34632E71A9974
:1011F400073121F0070101F108001A90D1E900013B
:10120400E2E76FF01B00F0E0C4E90001E9E7002623
:101214004FF00408C34699E7324600264FF004080D
:10122400C34693E71A9A111D1A9112680392079AFA
:101234001D469AE6764B039A9A4203D3754B9A421B
:10124400FFF49BAE069B03F0020100209AE6724C69
:101254004FF41F7322467149714810F0F3FE714830
:1012640010F0F0FE4FF41F71204610F0E2FE6A4CBD
:1012740040F2812322466949694810F0E3FE6A4836
:1012840010F0E0FE40F28121204610F0D2FE059BD2
:10129400013305939AE610B109F1010996E6009B22
:1012A40013B109F1020991E603980EF015FD09EB5B
:1012B400000303F1020989E61A99081D1A900968C6
:1012C40007B121600434C5E6534C40F2C6232246DC
:1012D4005249534810F0B6FE5946544810F0B2FE35
:1012E40040F2C621204610F0A4FEDDF808B0E31B4E
:1012F400B3F5806F11D207B300223A609B083B70AC
:10130400009BF3B1059BFB70049BBB708BBB019DE1
:10131400DDF810A0DDF80C804AE03F4C40F2D22307
:1013240022463E493E4810F08DFE414810F08AFEA8
:1013340040F2D221204610F07CFE4B44A3F1080079
:1013440053E0059B7B70DFE701339B45DFD903F155
:1013540040026A4412F8101C12F9102C002AF3DA25
:1013640001F07F01E21B01324A454AD804F8011B0F
:10137400EAE7019BE9E7009B3BB305F140036B44BB
:1013840013F8203C04F8013B019EE31B3344013372
:101394004B4539D805F140036B4413F8103C04F86D
:1013A400013B324641462046FEF728FF34440135CE
:1013B400AB4519D9BAF1000FDDD005F140036B44F8
:1013C40013F9103C002BD6DAF1E705F140036B4426
:1013D40013F8103C57F82380002247F82320404696
:1013E4000EF07AFC461CD0E7E01B11B0BDE8F08F8C
:1013F4006FF00D00F9E76FF01B00F6E76FF01B00CC
:10140400F3E76FF01B00F0E76FF01B00EDE700BFA0
:10141400106B0600FCB506001473060044AE06000B
:10142400047206005C730600807306009C73060059
:10143400B4730600014B1860704700BF000002201F
:1014440010B50C4B1B7823B101F028FF0A4B185838
:1014540010BD0A4C40F2463322460949094810F0AF
:10146400F1FD094810F0EEFD40F24631204610F03F
:10147400E0FD00BFFA21022008000000E07306002E
:101484000C740600047206002074060080B504463D
:101494000D4616461F460CF0B9FF024601F0FEFE4B
:1014A400044B1A503A4631462846A047FFF7C8FF76
:1014B40001F078FE0800000010B504468C46838BCA
:1014C400002A12DB03F007035A1F012A19D9042B3F
:1014D40051D1002110F0C4FD204610F0EBFD78B18D
:1014E400A38B43F02003A3830AE0D0E900018CE836
:1014F40003000023236063600121204610F0B0FD47
:1015040010BDD0E900018CE8030000222260626073
:10151400062B0FD0052B21D10021204610F0A0FD71
:10152400204610F0C7FD0028EAD0A38B43F0200327
:10153400A383E5E7DCF8003000E013464BB1E28B0F
:101544000132E2831A68002AF7D0002BF5D11A463B
:10155400F3E70221204610F083FDE1E70C4C40F252
:10156400091322460B490C4810F06CFD40F2091196
:10157400204610F05EFD064C40F21B13224607493C
:10158400054810F05FFD40F21B11204610F051FD9C
:1015940050740600787406000472060044AE060017
:1015A4002DE9F04782B0838BE1B10446154603F080
:1015B400070603F00802084692B301291FD0022946
:1015C40021D143F02003A383143420460DF052FAB2
:1015D400002800F09B8185F31188BFF36F8F02B060
:1015E400BDE8F087B84C40F233132246B749B848F7
:1015F40010F028FD40F23311204610F01AFD43F09C
:101604001003A383E0E7B04C4FF49E732246B14924
:10161400AF4810F017FD4FF49E71204610F009FDFD
:1016240000230093019357E0204610F043FD55E05A
:10163400D4F818904A4669462046FFF73DFF002734
:10164400A38B03F00708B04500F00581A268002AC7
:1016540000F00181012643F00803A38304F1140A76
:1016640050460DF007FA002800F0FE8085F311883B
:10167400BFF36F8F002E40F00881009B2BB14B46C7
:1016840042466946204610F056FD17B1924920465D
:10169400B847EFF31185202383F31288BFF36F8FCC
:1016A40050460DF0D7F9002800F0F58050460DF0B3
:1016B400FBF9A38B23F00803A383A38B13F0100F70
:1016C40000F0F88023F01003A3830120A68B06F01A
:1016D400070600283FF478AF0228A5D0052800F2B9
:1016E400AD8001A353F820F0CD1505003516050093
:1016F40041180500051705006D170500D7170500EB
:101704005EB92368B3B123691F6807B30621204675
:1017140010F0A6FC4FF0000992E76B4C4FF4AB734A
:1017240022466E496A4810F08DFC4FF4AB71204696
:1017340010F07FFC644C40F2571322466849644819
:1017440010F080FC40F25711204610F072FC5E4C01
:101754004FF4AD73224663495D4810F073FC4FF4B7
:10176400AD71204610F065FC022E0BD1E38BB3B9AA
:1017740023695F6807B30421204610F071FC4FF021
:1017840000095DE7504C40F25D132246564950482B
:1017940010F058FC40F25D11204610F04AFC4A4C0F
:1017A4004FF4AF7322465149494810F04BFC4FF4B3
:1017B400AF71204610F03DFC434C40F261132246C9
:1017C4004849434810F03EFC40F26111204610F0B5
:1017D40030FC012E0BD12368B3B123699F6807B392
:1017E4000521204610F03CFC4FF0000928E7364C58
:1017F4004FF4B27322463E49354810F023FC4FF4AF
:10180400B271204610F015FC2F4C40F265132246AD
:1018140033492F4810F016FC40F26511204610F0B1
:1018240008FC294C4FF4B47322462E49284810F082
:1018340009FC4FF4B471204610F0FBFB224C40F23B
:101844006B1322462B49224810F0FCFB40F26B112B
:10185400204610F0EEFB009A0AB10026FBE6002FAA
:101864003FF42BAF0026F6E6234C4FF4997322463F
:101874002249174810F0E6FB5146214810F0E2FBDC
:101884004FF49971204610F0D4FB4A464146204655
:1018940010F0EEFBF1E6184C8423224619490C485B
:1018A40010F0D0FB5146184810F0CCFB84212046A0
:1018B40010F0BFFB13F0200F04D023F02003A38308
:1018C400022003E7002001E750740600A07406001C
:1018D40004720600B074060045190500C4740600BD
:1018E400D0740600F47406000C7506002475060016
:1018F4003475060044AE06004C7506007C7506007F
:1019040094750600AC750600C4750600084D4FF4C6
:1019140099732A460749084810F094FB2146074862
:1019240010F090FB4FF49971284610F082FB00BF31
:101934004C7506007C75060004720600947506005A
:10194400F8B504460D4600F11406EFF31187202381
:1019540083F31288BFF36F8F30460DF07BF848B1E4
:1019640030460DF0A1F8A5613A4601212046FFF763
:1019740017FEF8BD074C842322460749074810F098
:1019840061FB3146064810F05DFB8421204610F0CF
:1019940050FB00BF4C750600AC75060004720600CF
:1019A400C47506002DE9F04705460F4610F09BFB71
:1019B400041E4BDB05F11408EFF3118A202383F393
:1019C4001288BFF36F8F40460DF044F8814698B1FA
:1019D40040460DF069F8AE8B06F00706EB8B4FF628
:1019E400FF72934247D03446062E32D8DFE806F021
:1019F4001D4919311D131D00364C842322463649D6
:101A0400364810F01FFB4146354810F01BFB84217B
:101A1400204610F00EFB6FF085044FF000094B4692
:101A24000EE00133EB8300230AE0B6FA86F35B0988
:101A340000223A606A68CAB117606F604FF000090B
:101A44002BB3524602212846FFF7AAFD2046BDE8E3
:101A5400F087244C4FF4E473224623491F4810F0C6
:101A6400F1FA4FF4E471204610F0E3FA6F602F604E
:101A74004FF00009E4E76FF00A044FF000094B4609
:101A8400DEE76FF004044FF000094B46D8E7404608
:101A94000CF0F0FF68B18AF31188BFF36F8FB9F1CE
:101AA400000FD3D0002332463946284610F030FBCD
:101AB400CCE7084C4FF4997322460C49074810F0C0
:101AC400C1FA41460A4810F0BDFA4FF49971204614
:101AD40010F0AFFA4C750600AC75060004720600EF
:101AE400C475060050740600347506007C75060043
:101AF4009475060010B50346426802F00302816043
:101B0400022A0FD0032A0AD0012A0ED1002420462B
:101B140000225A6008B10DF00DFF204610BD046884
:101B24000020F5E700680024F2E7054C452322462F
:101B34000449054810F086FA4521204610F079FA48
:101B4400DC75060044AE06000472060010B143685A
:101B54005879704710B5064C40F2351322460549B2
:101B6400054810F06FFA40F23511204610F061FA82
:101B7400047606003C7606000472060010B1436841
:101B84001971704710B5054CE123224604490548F4
:101B940010F058FAE121204610F04BFA04760600C2
:101BA4003C7606000472060010B540B10446036892
:101BB400DB6803B19847636801229A7110BD054C34
:101BC4008C2322460449054810F03CFA8C21204617
:101BD40010F02FFA047606003C7606000472060024
:101BE40010B520B10268126962B1904710BD064C6D
:101BF400A02322460549064810F024FAA0212046D5
:101C040010F017FA0020F1E7047606003C7606008F
:101C14000472060010B518B102689268904710BDAE
:101C2400054CD22322460549054810F00BFAD2216F
:101C3400204610F0FEF900BF047606003C7606004C
:101C44000472060010B520B171B1026812689047A1
:101C540010BD0B4CB42322460A490B4810F0F2F98C
:101C6400B421204610F0E5F9054CB5232246074976
:101C7400054810F0E7F9B521204610F0DAF900BF65
:101C8400047606003C7606000472060054760600CC
:101C940038B50546144C00E01034144B9C4212D85D
:101CA400124B9C421FD22046FFF750FF0028F3D06E
:101CB4002946204610F094FA0028EDD02946204603
:101CC400FFF7C0FFE8E70A4C40F20A23224609491D
:101CD400094810F0B7F9094810F0B4F940F20A21A4
:101CE400204610F0A6F938BD686F0600786F06002C
:101CF400687606009876060004720600BC76060034
:101D04002DE9F04107460546EDB195FAA5F6B6FA78
:101D140086F60E4C04EB06140123B3406FEA030865
:101D240025EA0305237B002BEED02046FFF758FF5E
:101D34000028E9D107EA08076368042219682046E5
:101D440010F087FAE0E73846BDE8F081686F0600D6
:101D54002DE9F0412F4B304A9B1A8F2B0ED8804629
:101D64000F462E4BD3E8EF6F721CC3E8E12F002916
:101D7400F8D1002E4AD1284C002514E0284C40F21A
:101D8400531322462749284810F05CF940F25311B6
:101D9400204610F04EF9636804221968204610F0BA
:101DA40058FA013510341B4B9C4211D8194B9C42F4
:101DB4001ED2237B002BF4D02046FFF7F5FE2046ED
:101DC400FFF70EFF0028E6D00123AB401E43E8E7EF
:101DD400134C40F25F1322461449134810F032F9B1
:101DE400134810F02FF940F25F11204610F021F94A
:101DF400B8F1000F0BD056B13046FFF781FF06460D
:101E0400002FF8D00A2010F0F6F9F4E70026304647
:101E1400BDE8F081786F0600686F0600F4060220C2
:101E240068760600DC7606000472060098760600E2
:101E3400BC760600014B53F82000704798AE0600AC
:101E440048B108B5054A1060054B1960084600F012
:101E540057FB002008BD6FF01500704704000220F6
:101E6400E806022010B50023164A1370164A1360C0
:101E7400164A13604FF400411548FFF7E1FF154C73
:101E840008E01449611A09110131C9B22046FFF76B
:101E940075FE1034104B9C4203D80F4B9C42F0D378
:101EA40010BD0E4C40F22B1322460D490D4810F084
:101EB400C9F80D4810F0C6F840F22B11204610F076
:101EC400B8F800BFE1210220EC060220F00602204F
:101ED400F3210600686F0600786F06006876060036
:101EE4009876060004720600BC760600174B1B7831
:101EF40003B1704710B500210120FFF729FF144CEE
:101F040000E01034134B9C420BD8124B9C4218D265
:101F14002046FFF71BFE0028F3D02046FFF77AFE89
:101F2400EFE70D4C40F2CF1322460C490C4810F059
:101F340089F80C4810F086F840F2CF11204610F0D2
:101F440078F8024B01221A7010BD00BFE121022073
:101F5400686F0600786F06006876060098760600BB
:101F640004720600BC760600014B01221A70704709
:101F7400E0210220094BD3E8EF1F0131C3E8E21F3F
:101F8400002AF8D100B97047054BD3E8EF1F013997
:101F9400C3E8E21F002AF6D0F7E700BFEC060220F0
:101FA400F006022010B50446044B1B689847A06055
:101FB4002146034810F016F910BD00BF04000220AA
:101FC4002801022028B142681160436801225A7135
:101FD400704710B5064C4FF48D73224605490648E8
:101FE40010F030F84FF48D71204610F022F800BF45
:101FF400047606003C760600047206000248034B91
:10200400C01AC008704700BF686F0600C86E06009B
:1020140010B50C46FFF7F2FFA04203D9024B53F868
:10202400340010BD0020FCE7C86E06002DE9F04F17
:1020340087B004AF81460D4690461E46D7F830B0AF
:10204400D7F838A0BAF1000F28D0FB6B7B6000935F
:1020540053467A6B10210020FEF75EFF011E10DB51
:10206400B1F5006F1BD340F2FF7303932E4B029321
:10207400002001900090034602222C4910F008F938
:1020840040E02B4C4FF4B47322462A492A480FF0FF
:10209400D9FF4FF4B47120460FF0CBFF002101EBC0
:1020A4000B03173323F007030333002424F0010444
:1020B40024F0020424F0040469F3C50468F38814CA
:1020C40061F353246BF31F5423F00303073323F00A
:1020D4000703ADEB030D0DF110086B4613F120005F
:1020E4000AD0BAF1000F07D0FB6B009353467A6B0A
:1020F400FEF712FF002809DB3346224629464046F4
:1021040010F0AFF80C37BD46BDE8F08F084C40F234
:102114008D132246074908480FF094FF40F28D11B1
:1021240020460FF086FF00BFA0770600E06E060091
:10213400687706009477060004720600406820B1B0
:10214400034BC01A40F3CF0070474FF0FF30704785
:10215400C86E06000EB400B582B0014603AB53F856
:10216400042B0193034801F081FC02B05DF804EBF9
:1021740003B07047E122060010B584B011F0440F9B
:1021840005D01A4B1B6833B9002004B010BD1849A0
:10219400FFF7E0FFF9E717490968B2FBF1F2B2FB78
:1021A400F3FC03FB1C224FF47A7E0EFB02F2B2FB1B
:1021B400F3F403FB14210EFB01F1B1FBF3F10E4A1E
:1021C400A2FB0C32D20A4FF4616303FB12CC0B4B1B
:1021D400A3FB0CE35B0902910194C3EB0311ACEB89
:1021E400810100910649FFF7B5FFCEE7FC06022006
:1021F400D8770600F8060220C5B3A291898888889A
:10220400E477060061B108B52AB1064A52F82320E2
:1022140012B9054A00E0044A0449FFF79BFF08BDD0
:10222400704700BFA8AE06000078060008780600D4
:102234002DE9F04105461746079EDDF8208081B957
:1022440000242EB1324611492846FFF783FF044487
:10225400B8F1000F14D06FB10B9B042B13D00C49B1
:1022640009E00C4B0B9A53F822200B49FFF772FF3D
:102274000446E6E7064942462846FFF76BFF044456
:102284002046BDE8F0810549F5E700BF2078060047
:1022940010780600BCAE0600187806000C7806001C
:1022A4002DE9F04F89B0069207939DF85860042EEB
:1022B40035D805460C4601F0020B01F0010AC1F3C2
:1022C400C00801F480790FF0C2FF0246002833D021
:1022D4001E492846FFF73EFF0746BBF1000F2DD1EC
:1022E40032465146284610F017F8B9F1000F01D0D4
:1022F4000023139305969DF854300493149B039381
:10230400139B0293129B019300230093069A414668
:102314002846FFF78DFF384409B0BDE8F08F0C4C18
:102324004FF4157322460B490B480FF08BFE4FF404
:10233400157120460FF07DFE0027CEE7079A21464F
:102344002846FFF719FF0744CAE700BF6078060074
:1023540024780600547806000472060011F0100F69
:102364000BD108B511F0200F03D00449FFF7F2FE9A
:1023740008BD0349FFF7EEFEFAE77047388206000E
:10238400986F06002DE9F04105460F46164698461B
:102394000699FFF7E3FF002404E025492846FFF7E8
:1023A400D9FE01344445F8DB002409E020492846DD
:1023B400FFF7D0FE0BE01F492846FFF7CBFE0134A0
:1023C4000F2C0CDC002C02DD14F0070FEED0B4420D
:1023D400F1D23A5D18492846FFF7BCFEEFE71749EA
:1023E4002846FFF7B7FE002409E011492846FFF705
:1023F400B1FE0BE012492846FFF7ACFE01340F2C66
:1024040013DC002C02DD14F0070FEED0B44207D227
:102414003A5D0C4B9B5C13F0970FEBD12E22E9E74E
:1024240003492846FFF796FEE8E7BDE8F08100BFC0
:102434001C7806006C780600647806007078060044
:102444007478060070B406002DE9F04186B00446A5
:102454009DF838500F9F119EADB9012B24D022480E
:102464004FF0000837B13B46224620490FF09DFD4E
:1024740000281DDB4EBB002D30D120460FF017FF86
:1024840006B0BDE8F08104959DF8340003900C98E3
:102494000290019300920B46002212992046FFF706
:1024A400FFFE80461248DDE711484FF00008D9E7E7
:1024B400104C40F2B12322460F4910480FF0C2FDE0
:1024C40040F2B12120460FF0B4FD129B0093434625
:1024D4003246109920460FF037FFCCE72A4612996E
:1024E40020460FF025FFC8E7FF220600713A0500D9
:1024F400E1220600247806007878060004720600BB
:10250400074B01221A6004E04008054A13685B0087
:102514001360044B9842F7D8034B1860704700BF10
:10252400F806022040420F00FC06022070B5064661
:102534000D46002405E0315D044883685B689847D4
:102544000134AC42F7D3284670BD00BF306C06009E
:1025540010B543681C68094813F091FF18B123684B
:102564005B685C6010BD064C992322460549064809
:102574000FF068FD992120460FF05BFD306C0600DA
:10258400A4780600E478060004720600014B036098
:102594000020704704AF060008B504480FF03BFD67
:1025A40003480FF038FD002008BD00BF2079060065
:1025B4005879060008B50348034A121A00210FF09F
:1025C40047FF08BDF0020220FC21022008B506489E
:1025D400064A121A06490FF03FFF0648064A121A25
:1025E40006490FF039FF08BD00000220EC0202206A
:1025F400FCB506000000022000000220FCB5060025
:1026040070B586B005460368426881681C4E059122
:10261400049203931B4B02930024019400942346D9
:102624000122314620460FF01BFFEB682A696969D5
:10263400059104920393144B02930194009423464E
:102644000122314620460FF00BFFEB6903930F4B39
:1026540002930194009423460122314620460FF050
:10266400FFFEAB6903930A4B029301940094234643
:102674000122314620460FF0F3FE06B070BD00BFC4
:10268400386F060088790600B8790600E8790600F4
:10269400F879060030B585B004460D4611B10846F8
:1026A400FFF7AEFF012C05D02946204608F0F0FFC5
:1026B40005B030BDEFF30583103B0393054B029344
:1026C4000020019000900346012203490FF0C8FE48
:1026D400EAE700BF287A0600386F060030BFFFF72C
:1026E400FDBF00BF38B50446054D2A460549FDF730
:1026F40085FD054A002160190DF096FA38BD00BF2A
:1027040000000000786F06000800000070B506465F
:10271400064D074B1D444C1B2046FFF7E3FF083CC6
:10272400C6F8944005F1080070BD00BF0000000029
:10273400080000008169104B5A6942F480725A61A2
:10274400BFF34F8FBFF36F8F31F8021C5A6922F425
:1027540080725A61BFF34F8FBFF36F8F01F47F43D1
:10276400B3F55F4F01D000207047C9B2022901D0F0
:10277400002070470120704700ED00E070B584B080
:10278400144600221A7004F07F42B2F17F4F20D128
:1027940005460E4614F0010F1ED114F0400F05D16A
:1027A40014F0080F13D101221A7013E00B4B02939B
:1027B4000020019000900346012209490FF06DFEAC
:1027C40014F0040F01D0304604E0284602E0084625
:1027D40000E0002004B070BD0020FBE73C7A060056
:1027E400386F0600F0B585B005460F461446584BC1
:1027F40002930020019000900346012255490FF0F6
:102804004CFE554B9B6A13F0100F3AD11026524BD5
:102814009B6A13F0080F40D14F4B9B6A13F0020FD1
:1028240047D14D4B9B6A13F0010F69D14A4B9B6A08
:1028340013F0200F70D1484B9B6A13F0100F04D192
:10284400454B9B6A13F0020F04D0434B9B6A13F071
:10285400100F6DD1404B9B6A13F0200F04D03E4AF9
:10286400536A23F4005353623B4A936A43F0FF03D1
:102874009362012128460FF00EFE2070304605B009
:10288400F0BD364B029300200190009003460122D4
:1028940030490FF002FE1126B9E7314B02930020B4
:1028A40001900090034601222A490FF0F6FD1226FA
:1028B400B2E72C4B029300200190009003460122C2
:1028C40024490FF0EAFD244B5A6B9B6A13F0800FE6
:1028D40001D11326A5E70392234B02930020019014
:1028E4000090034601221B490FF0D7FD37B11A4A65
:1028F400936A23F080039362132692E7132690E7EA
:102904001A4B0293002001900090034601221149C2
:102914000FF0C3FD142689E7154B029300200190A4
:102924000090034601220B490FF0B7FD152682E7FC
:10293400104C40F22D1322460F4910480FF082FB31
:102944000F480FF07FFB40F22D1120460FF071FB72
:10295400607A0600386F060000ED00E0787A060021
:10296400AC7A0600C07A0600D87A0600F07A06002F
:10297400107B0600407B0600747B06000472060090
:10298400C07B0600F0B585B005460F4614464C4B97
:1029940002930020019000900346012249490FF060
:1029A4007CFD494B9B6A13F4805F26D11626464B67
:1029B4009B6A13F4006F2CD1434B9B6A13F4007F82
:1029C40033D1414B9B6A13F4806F55D13E4B9B6AC4
:1029D40013F4807F5CD13C4B9B6A13F4005F63D19A
:1029E400394A936A43F47F439362012128460FF0E6
:1029F40052FD2070304605B0F0BD344B02930020E8
:102A040001900090034601222E490FF046FD17263F
:102A1400CDE72F4B02930020019000900346012242
:102A240028490FF03AFD1826C6E72A4B02930020E6
:102A3400019000900346012222490FF02EFD224B03
:102A44009A6B9B6A13F4004F01D11926B9E70392DC
:102A5400214B029300200190009003460122194962
:102A64000FF01BFD37B1184A936A23F400439362B5
:102A74001926A6E71926A4E7184B02930020019013
:102A84000090034601220F490FF007FD1A269DE727
:102A9400134B029300200190009003460122094940
:102AA4000FF0FBFC1B269BE70E4B029300200190CA
:102AB40000900346012203490FF0EFFC1C268FE728
:102AC400247C0600386F060000ED00E03C7C060024
:102AD400AC7A0600507C06006C7C0600847C060000
:102AE400A07C0600107B060000B585B0454B029320
:102AF4000020019000900346012243490FF0CDFCD1
:102B0400424B9B6A13F0007F28D11D203F4B9B6AE8
:102B140013F0807F2ED13D4B9B6A13F4801F35D177
:102B24003A4B9B6A13F4002F3CD1384B9B6A13F445
:102B3400802F43D1354B9B6A13F4003F4AD1334B6A
:102B44009B6A13F4803F51D1304A936A6FEA03437E
:102B54006FEA1343936205B05DF804FB2C4B0293B8
:102B64000020019000900346012227490FF095FCB4
:102B74001E20CBE7274B02930020019000900346D0
:102B8400012221490FF089FC1F20C4E7224B029344
:102B9400002001900090034601221B490FF07DFCA8
:102BA4000220BDE71D4B02930020019000900346D4
:102BB400012215490FF071FC2120B6E7184B02934E
:102BC400002001900090034601220F490FF065FC9C
:102BD4002220AFE7134B029300200190009003469C
:102BE400012209490FF059FC2320A8E70E4B029358
:102BF4000020019000900346012203490FF04DFC90
:102C04002420A1E7B87C0600386F060000ED00E040
:102C1400D07C0600E47C0600007D06002C7D0600C6
:102C24004C7D0600747D0600907D060070B584B06E
:102C340006460D46484B0293002401940094234613
:102C44000122464920460FF028FC2C70444BDC6AD4
:102C540014F002042AD1424BDB6A002B34DB404BD4
:102C6400DB6A13F0804F66D03E4B02930020019044
:102C740000900346012239490FF00FFC3046FFF75C
:102C840059FD60BB364B9B6A13F0FF0F35D1344BB3
:102C94009B6A13F47F4F37D1314B9B6AB3F5803F66
:102CA40039D33046FFF720FF04460AE02E4B029347
:102CB40000240194009423460122284920460FF061
:102CC400ECFB204604B070BD284B02930020019019
:102CD40000900346012221490FF0DFFBF1E733683E
:102CE4000393234B0293002001900090034601229A
:102CF4001A490FF0D2FB3468E3E72A460121304633
:102D0400FFF770FD0446DCE72A4601213046FFF751
:102D140039FE0446D5E7174C40F2ED232246164906
:102D240016480FF08FF916480FF08CF940F2ED2198
:102D340020460FF07EF90F4C4FF43C7322460E49A7
:102D44000E480FF07FF90F480FF07CF94FF43C71F7
:102D540020460FF06EF900BFBC7D0600386F0600F8
:102D640000ED00E0087E0600D47D0600F87D060034
:102D7400287E0600407B060044AE0600047206006E
:102D8400447E0600687E060000B585B00020087009
:102D9400054B0293019000900346012203490FF072
:102DA4007CFB05B05DF804FB987E0600386F0600D6
:102DB40000B587B00F2910DC094B10390491039337
:102DC400084B02930020019000900346012206491B
:102DD4000FF063FB07B05DF804FB044BEDE700BFA5
:102DE400BC7E0600F07E0600386F0600D47E060026
:102DF40030B58BB0264B5D68C5F30805002383F31B
:102E04001188BFF36F8F0DF12603FFF7B7FC58B19C
:102E140004460DF1270229460FF04EFB05469DF8A6
:102E240027308BB10BB030BD1A4C40F21B43224605
:102E340019491A480FF006F919480FF003F940F23E
:102E44001B4120460FF0F5F80DF1040C2068616871
:102E5400A268E368ACE80F0020696169A269E369CC
:102E6400ACE80F009DF826304BB1089BC3F3080271
:102E74004AB96FEA53236FEA4323089303E0089B9C
:102E84006FF30803089301A92846FFF703FCC9E779
:102E940000ED00E0407B0600047F0600047206009B
:102EA400187F0600064B5A6942F010025A615A69AB
:102EB40042F480625A615A6922F008025A617047EA
:102EC40000ED00E0EFF30880EFF3098101B57246ED
:102ED400FFF78EFF01BD00BF002080F31488BFF30D
:102EE4006F8F002080F30A8880F30B880F4880F3EB
:102EF400088811F041FB00200D490860BFF34F8F93
:102F040000F02EF8202080F311880A484FF4006165
:102F1400401880F30988EFF314800221084380F3FA
:102F24001488BFF36F8F00F0CBF8000040510220EB
:102F340094ED00E000280220084BD3F89000C0F381
:102F44000720002306E0054AC2F898300021C2F8A1
:102F5400A01001338342F6DB704700BF00ED00E0B0
:102F640010B572B6002484F31388FFF7E5FF2346F7
:102F740008E003F120010E4A4FF0FF3042F821002F
:102F84000133DBB20F2BF4D9002308E003F1600115
:102F9400074A4FF0FF3042F821000133DBB20F2B18
:102FA400F4D962B6BFF34F8FBFF36F8F10BD00BF6C
:102FB40000E100E01EF0040F0CBFEFF30880EFF314
:102FC4000980816911F8021C0229FFD001B57246FB
:102FD4000FF055FA01BD00BF002807DB00F01F0207
:102FE400400901239340024A42F82030704700BF51
:102FF40000E100E000280CDB00F01F02400901237F
:1030040093402030034A42F82030BFF34F8FBFF380
:103014006F8F704700E100E0002808DB4901C9B266
:1030240000F1604000F5614080F80013704700F043
:103034000F004901C9B2014B1954704714ED00E067
:103044004209054B53F8222000F01F00012303FA24
:1030540000F01040704700BF00E100E070B5054685
:103064000C460131072903D840B2FFF7D5FF70BDE4
:10307400084E6B233246084908480EF0E3FF072345
:103084002A46214606480EF0DDFF6B2130460EF03D
:10309400D0FF00BF587F0600907F06000472060030
:1030A400AC7F0600044B23F07F03044A9360BFF314
:1030B4004F8FBFF36F8F70470000050000ED00E0F5
:1030C40008B5FFF7EFFF074AD2F8883023F47003FE
:1030D400C2F88830FFF76EFAFFF778FA00F0B4F818
:1030E40008F098FC00ED00E030B40024C0F8A040E3
:1030F400BC2180F8A110A2F120050D4942F8081C5A
:1031040021F0010142F8081C42F8203C029B42F8DD
:103114001C3C039B42F8183C049B42F8143C4FF0BF
:10312400807342F8043C0565C0F8984030BC704791
:103134009114050000B50E4615460D4B9860D0F865
:1031440094200C4B1A60D0F8843083F30B882C46FF
:1031540086F309880020044B98472046002100226A
:103164000023024C20470000372506009114050077
:103174008C15022030070220014B10221A6170477F
:1031840000ED00E0054B5A699B689A4204D0044A5A
:10319400536843F080535360704700BF8C1502207E
:1031A40000ED00E008B50A4B9B68834202D00BF0A7
:1031B40033F908BDEFF30583002BF8D0054B5A68AB
:1031C40042F080525A605A6A22F400425A62EEE790
:1031D4008C15022000ED00E018498A6882F8A1E00D
:1031E4004FF030001044EFF3098C80E8F01F2020EA
:1031F40080F31288BFF36F8F114F4FF000664A6956
:103204008A603E60D2F894000E4C206092F9A1E0EE
:10321400D2F898000023C2F8983080F3118802F1A4
:10322400300090E8F01F8CF3098802F1000004B527
:103234000FF077F9BDE80440704700008C150220B8
:1032440004ED00E030070220002206E003F00F0343
:103254000949194420230B760132402A0ADC53B26F
:10326400002BF3DB03F1604303F56143202183F872
:103274000013F1E7704700BFFCEC00E008B5EFF382
:103284000583103B044A02EBC301496852F833003A
:103294008847FFF777FF08BD4C6C060001480068BB
:1032A400704700003007022010B584B00A4C234652
:1032B4000A4A01210A4800F00DFB01A800230193EA
:1032C40043608360074B0193E41A0294012100F0E8
:1032D40023FB04B010BD00BF000004200000022046
:1032E40004AF0600F0020220024B034AC3F8C020D8
:1032F400704700BF00ED00E0AAFF4400034BC3F891
:103304009800C3F89C10C3F8A020704700ED00E0BB
:103314000E4BC3F89800C3F89800D3F89C000A7ABF
:1033240060F304020A72D3F8A020C2F34202087ABE
:1033340062F347100872D3F89C2022F01F020A603F
:10334400D3F8A03023F01F03CB60704700ED00E0FA
:1033540070B505460E46002400E00134A6421EDD89
:1033640004EB44039A0005EB830359680029F4D065
:10337400A8580FF01DF904EB84030B4A42F823000C
:1033840010F1160F0CD0094B1B78984209DA04EBA4
:10339400840302EB83010431FFF7BAFFDDE7002069
:1033A40070BD6FF01500FBE734070220E221022014
:1033B40030B58BB005460C46096821F01F01237A0D
:1033C40003F01F0CE26822F01F025B0942EA430289
:1033D40042F0010241EA0C01FFF790FF2268237AD0
:1033E40003F01F015B09E0680890079306910592BA
:1033F4000495074B0393074B029308230193002082
:1034040000900346042204490FF0E3F80BB030BDEA
:1034140020AF0600F07F0600106F060070B586B07E
:103424000446164BD3F89030C3F30723013B98426C
:1034340016D80D4606460490114B0393114B029384
:103444000823019300200090034604220E490FF044
:10345400C0F829462046FFF7ABFF304606B070BDE2
:1034640003900A4B0293002001900090034601222E
:1034740005490FF0AEF86FF01506EEE700ED00E039
:103484002CAF060040800600106F0600188006006E
:1034940030B58BB005460C460490154B0393154B81
:1034A400029308230193002000900346042212494A
:1034B4000FF08FF822680692636820899DF8201027
:1034C40060F304018DF820106089C9B260F34711DC
:1034D4008DF8201022F01F021344013B23F01F0338
:1034E400099306A92846FFF799FF0BB030BD00BF2A
:1034F40048AF060068800600106F06002DE9F04F03
:103504008BB08146049105931446002751E003973C
:10351400674B0293019000900346012265490FF026
:1035240058F86FF015040CE00396634B02930020E7
:1035340001900090034601225E490FF04AF86FF0B3
:10354400150420460BB0BDE8F08FC34564D129466D
:10355400C0B2FFF79DFF2BE0584AC2F89860D2F83A
:103564009C3003F01F0321F01F010B43C2F89C3071
:103574002946E0B2FFF78CFF044610F1160FE0D0A5
:10358400013415E0013B4D49C1F89860D1F8A02001
:1035940002F01F0223F01F031343C1F8A030294691
:1035A400E0B2FFF775FF044610F1160FC9D00134DD
:1035B4000137049B9F42C4DA07EB47054FEA850AAB
:1035C40009EB85056E68002EF2D0059B23B12846D1
:1035D4000EF0DCFF00289AD0314659F80A000EF0AC
:1035E400E7FF064610F1160F9ED084429CDD334B54
:1035F400C3F89800D3F89C2022F01F02C3F8980067
:10360400D3F8A03043F01F0859F80A306968194408
:1036140001F1FF3B934298D093429DD0C345B1D072
:10362400013B2649C1F89860D1F8A02002F01F029E
:1036340023F01F031343C1F8A0302946E0B2FFF77B
:1036440027FF044610F1160F3FF47BAF01301B4BEC
:10365400C3F89860D3F89C109DF8202061F304020D
:103664008DF82020D3F8A030C3F34203D2B263F321
:1036740047128DF8202059F80A206B681A440692E4
:1036840059F80A20134423F01F03A8EB0B08434402
:10369400013B23F01F03099306A9C0B2FFF7BEFE46
:1036A400044610F1160F3FF44CAF013480E700BF1D
:1036B40090800600106F0600B880060000ED00E060
:1036C40010B5034C01232278FFF718FF207010BDBA
:1036D400E2210220F0B587B0054605A8FEF756FFA3
:1036E4000646002442E0B3F1006F00F0B580B3F168
:1036F400805F3AD15768095827F01F039268134432
:10370400013B23F01F03019702919DF80C20012136
:1037140061F304028DF80C20D2B222F0E0028DF89D
:103724000C20049317E05768095827F01F03926888
:103734001344013B23F01F03019702919DF80C20D1
:10374400012161F304028DF80C20D2B261F3471217
:103754008DF80C20049301A92878FFF75FFE002858
:10376400C0F294802B7801332B700134B44280F082
:1037740090802001059901EB0412D3686FF31303C1
:10378400B3F1807F4ED0AED8B3F5001F06D0B3F5A9
:10379400800F2ED0B3F5801FC5D0E6E757680958CF
:1037A40027F01F0390680344013B23F01F03019794
:1037B40002919DF80C10012060F304018DF80C10A7
:1037C400C9B2022060F347118DF80C100493D3683A
:1037D40013F0010FBFD0304C842322462F493048C8
:1037E4000EF030FC2F480EF02DFC842120460EF004
:1037F40020FC5768095827F01F0392681344013BC3
:1038040023F01F03019702919DF80C20062161F318
:1038140004028DF80C20D2B222F0E0028DF80C20C4
:10382400049398E75768095827F01F0392681344D4
:10383400013B23F01F03019702919DF80C20012105
:1038440061F304028DF80C20D2B2032161F3471214
:103854008DF80C2004937EE75768095827F01F035E
:1038640092681344013B23F01F03019702919DF8D2
:103874000C20012161F304028DF80C20D2B2032143
:1038840061F347128DF80C20049364E76FF0150080
:1038940000E0002007B0F0BDDC8006000C810600CB
:1038A4000472060034810600044B0522C3F89420F8
:1038B400BFF34F8FBFF36F8F704700BF00ED00E081
:1038C400BFF35F8F024B0022C3F89420704700BF00
:1038D40000ED00E038B50C46FFF7F2FE10F1160FCC
:1038E40000D038BD084D40F289132A4607490848DC
:1038F4000EF0A8FB214607480EF0A4FB40F2891104
:1039040028460EF096FB00BFDC80060044AE06009D
:10391400047206006481060038B50C46FFF718FDF2
:1039240010F1160F00D038BD084D40F299132A4605
:10393400074908480EF086FB214607480EF082FB33
:1039440040F2991128460EF074FB00BFDC8006009B
:1039540044AE0600047206009081060030B587B0BC
:10396400374B1D68374BD3F89030C3F307239D4280
:1039740018D8344BD3F89030C3F307230493324B55
:103984000393324B029308230193002400942346AB
:1039940004222F4920460EF01CFEFFF791FFFFF78B
:1039A400A3FC1DE02B4C40F2022322462A492B485B
:1039B4000EF048FB234BD3F89020C2F3072229468C
:1039C40027480EF03FFB40F2022120460EF031FB67
:1039D4001B4B596801EB04112046FFF7E9FC013445
:1039E400A542F5D81F480570FFF774FE10F1160FB5
:1039F40010D01C4B1A78134BD3F89030C3F3072321
:103A04009A4217DA0F4BC3F898200021C3F8A0108C
:103A14000132F0E70F4C40F2352322460E490F489D
:103A24000EF010FB10480EF00DFB40F2352120463D
:103A34000EF0FFFAFFF738FF002007B030BD00BFDB
:103A440060AF060000ED00E010AF0600F481060050
:103A5400106F0600DC80060044AE06000472060007
:103A6400C0810600E22102201082060070B586B0F3
:103A740006460D46114668460024009401940294BB
:103A840003940494059402228DF80220044A0192BE
:103A9400049605951A460CF083FF06B070BD00BF6E
:103AA400F525060008B5024B1B689847002008BDA1
:103AB40048070220034B1860034A937843F002033B
:103AC40093707047480702201000022008B5064989
:103AD40021F00701C1F1005202F580220348FDF7ED
:103AE4007BF9002008BD00BF9FE102204C070220A3
:103AF40000B508280BD800EB4000000108300C4B3F
:103B04001844D0E8AF3F53B100205DF804FBFFF741
:103B1400C5FB084B09221A504FF0FF30F5E7FFF7B9
:103B2400BDFB044B09221A504FF0FF30EDE700BFF4
:103B3400580702200C000000002008280AD800EBD7
:103B440040031B010833094A1344D3E8AF3F5BB178
:103B54000130F2E700B5FFF7A1FB054B17221A501D
:103B64004FF0FF305DF804FB704700BF5807022098
:103B74000C00000000B5024602EB42031B010833AF
:103B840010490B44D3E8AF1FC9B1481ED3E8EFCFA7
:103B94008C4504D1C3E8EE0FBEF1000FF6D1EBD192
:103BA40001290AD1074B02EB4201090100205850B8
:103BB40002EB420203EB021358605DF804FB084673
:103BC400FBE700BF5807022000EB40000301083365
:103BD400044A1344D3E8EF0F0130C3E8E20F002A8C
:103BE400F8D170475807022070B504460E461546B2
:103BF400FFF77EFF002813DB04EB4402094B03EBC1
:103C040002135B6833602DB113010833054A134472
:103C140004332B6004EB44042401024B185970BD97
:103C24000020FCE75807022070B54FF0FF324FF038
:103C3400FF33134808F038F9FFF77EFF041E04DA57
:103C44000F4808F0C7FA204670BD2046FFF7BCFFB6
:103C54000C4E650004EB4403190106EB0313002228
:103C640072505A609A62084608303044043012F0A8
:103C740083FC281900012030304412F02AFDDFE7CC
:103C8400B40102205807022070B5044615461548B1
:103C940004EB44024FEA021C00EB021240F80C1041
:103CA4005560D362CDB1EB68BBB1FFF7F7FA0E4BA9
:103CB4001E5804EB44031B0108330A4A134404331B
:103CC40040F2051228460EF09EFC5F2E05D0FFF749
:103CD400E5FA054B1B585F2B00D070BD024B1E50FC
:103CE400FBE700BF580702200C000000F8B50446AB
:103CF400FFF7FEFE002832DB660004EB44052D01CD
:103D04000835184F3D4404354FF0FF324FF0FF3370
:103D1400284608F0C9F8264407EB06177B689E6816
:103D2400DEB104EB4402FB6A13F4404F0DD01301DF
:103D340021460C4AD058B0470646284608F04AFAAD
:103D440020460EF070FC3046F8BD04EB44031B0122
:103D5400044AD058B0470646EFE70026EDE74FF097
:103D6400FF36F0E7580702202DE9F04F9DB00746D3
:103D74000D4607919046994608A812F0B1FDDDE979
:103D84000834CDE902340DAB0C933C4600239B462A
:103D940005939A46069713E04FF00008C146424641
:103DA400434608A812F09CFDDDE90823CDE902236F
:103DB40045460A9808F00EFA002D35DB08343546DE
:103DC4006E1E002D38D020680028F7DB0AAA0BA944
:103DD400FFF70AFF07460028F0D00A984FF0FF3299
:103DE4004FF0FF3308F060F81CAB01930CAB009369
:103DF40023464FF4817239460B980EF018FC0546A1
:103E040010F1780FC8D010F1120FD2D1BAF1000F0F
:103E140003D000254FF0010BCBE7DDF82CA005976C
:103E240000254FF0010BC4E76D42FFF737FA5F4BF3
:103E34001D504FF0FF362DE0069FBBF1000F30D030
:103E44004146B9F1FF3F08BFB8F1FF3F26D04FEA22
:103E5400491242EAD8624FEA4813B3EB080362EB13
:103E64000902920042EA93729B005B1842EB09023A
:103E7400D20042EA5372C3F3103343EA424301933C
:103E8400079B00933B464FF48272059950460EF00F
:103E9400CEFB064630461DB0BDE8F08F4FF0FF3331
:103EA400EDE7DDE9022308A812F050FDDDF82080DB
:103EB400DDF82490BB460DA80C9B191A89103C4BC5
:103EC40003FB01F142464B460BF0BAFB00F10B0336
:103ED4000B2B94BF002701272FB940F68102DA404B
:103EE40012F0010207D14342FFF7D8F92F4A1350C9
:103EF4004FF0FF36CEE70DAB0C935C46079B06955F
:103F04000592AA4605E02023E3800AF1010A083459
:103F14002B465D1E002B34D00023E380206898429A
:103F2400F5DB0AAA0BA9FFF75FFE06460028EAD0D4
:103F34000A984FF0FF324FF0FF3307F0B5FF0CAB98
:103F44000093234640F2031231460B980EF06FFBA8
:103F540006460A9808F03EF916F10B0F0FD036B951
:103F6400B4F90630002BD2D00AF1010ACFE773422C
:103F7400FFF794F90D4A13504FF0FF368AE7059F77
:103F8400C5E7069D564677B1002E83DCDDE90223A2
:103F940008A812F0DBFCDDF82080DDF8249059EA53
:103FA40008033FF477AF002F85D173E70C000000BE
:103FB400CDCCCCCC68B108B5064A074B1B68074981
:103FC400A1FB03139B0C00FB03F042F00103984791
:103FD40008BD7047906F0600B800022083DE1B43C3
:103FE400024B0122C3F84025002070470090034093
:103FF40008B505484FF6FF7303603F23436004F0A0
:1040040093FB002008BD00BF0809022010B5836897
:104014001B680BB1984710BD064C6623224606491F
:1040240006480EF00FF806480EF00CF866212046FC
:104034000DF0FFFF688206009C82060004720600F1
:10404400BC820600F0B583B005460C4616461348FC
:1040540012F015FAF0B1A2B229461048FFF7D6FFC4
:104064000346C00F01D103B0F0BD56B11846FAE7BC
:104074000FF05CFA01903A4601A9A819FCF7BEF8C2
:104084003E44A64204D2A71B042FF1D90427EFE72C
:104094000020E8E76FF01200E5E700BF146C0600AB
:1040A400F8B505460E461746214C224B9C4228D8AB
:1040B400204B9C4233D22368AB4200D0FBB9A368A7
:1040C4007BB13A46314628469847C0B1FFF7E6F837
:1040D400194B0022C250E3683A46314628469847B5
:1040E400F8BD164C76232246154916480DF0AAFF52
:1040F40015480DF0A7FF762120460DF09AFF1034E5
:10410400D3E70E4C6E23224610490E480DF09AFF59
:104114000F480DF097FF6E2120460DF08AFFFFF740
:10412400BDF8054B6A221A504FF0FF30D8E700BFA4
:10413400A86E0600C86E06000C000000E4820600AB
:1041440018830600047206003483060038830600D0
:10415400BC76060030B583B00C466A4601A9FFF769
:1041640043FDB0B10546019B1B69D3B100984FF0E4
:10417400FF324FF0FF3307F097FE019B1B69214686
:10418400284698470446009808F024F8204603B0CF
:1041940030BDFFF783F8074B09221A504FF0FF3464
:1041A400F4E7FFF77BF8034B86221A504FF0FF34F5
:1041B400ECE700BF0C00000070B582B00D46144659
:1041C40001AA6946FFF710FDB8B10646009B5B697A
:1041D400CBB101984FF0FF324FF0FF3307F064FE8C
:1041E400009B5B692246294630469847044601985D
:1041F40007F0F0FF204602B070BDFFF74FF8064B02
:1042040009221A5004E0FFF749F8034B5F221A50C1
:104214004FF0FF34EEE700BF0C00000070B582B031
:104224000D46144601AA6946FFF7DEFCB8B10646FE
:10423400009B9B69CBB101984FF0FF324FF0FF33E5
:1042440007F032FE009B9B69224629463046984778
:104254000446019807F0BEFF204602B070BDFFF788
:104264001DF8064B09221A5004E0FFF717F8034B18
:104274005F221A504FF0FF34EEE700BF0C0000003D
:1042840030B583B00C4601AA6946FFF7ADFCB0B166
:104294000546009BDB69C3B101984FF0FF324FF034
:1042A400FF3307F001FE009BDB692146284698474F
:1042B4000446019807F08EFF204603B030BDFEF798
:1042C400EDFF064B09221A5004E0FEF7E7FF034B0B
:1042D4005F221A504FF0FF34EEE700BF0C000000DD
:1042E40070B582B00D46144601AA6946FFF77CFCFE
:1042F400B8B10646009B1B6ACBB101984FF0FF3260
:104304004FF0FF3307F0D0FD009B1B6A224629467D
:10431400304698470446019807F05CFF204602B0F7
:1043240070BDFEF7BBFF064B09221A5004E0FEF7EE
:10433400B5FF034B5F221A504FF0FF34EEE700BF86
:104344000C0000002DE9F04184B00E4615461C46D1
:1043540003AA02A9FFF748FCF0B10746029B5B6A77
:1043640003B303984FF0FF324FF0FF3307F09CFD87
:10437400029BD3F824800B9B01930A9B0093234652
:104384002A4631463846C0470446039807F022FFC0
:10439400204604B0BDE8F081FEF780FF054B0922FA
:1043A4001A5004E0FEF77AFF024B5F221A504FF0D6
:1043B400FF34EDE70C0000002DE9F04184B00E4617
:1043C40015461C4603AA02A9FFF70EFCF0B10746E6
:1043D400029B9B6A03B303984FF0FF324FF0FF3305
:1043E40007F062FD029BD3F828800B9B01930A9B84
:1043F400009323462A4631463846C047044603986C
:1044040007F0E8FE204604B0BDE8F081FEF746FF61
:10441400054B09221A5004E0FEF740FF024B5F22CD
:104424001A504FF0FF34EDE70C0000002DE9F04185
:1044340084B00E4615461C4603AA02A9FFF7D4FB16
:10444400E0B10746029BDB6AF3B103984FF0FF32F9
:104454004FF0FF3307F028FD029BD3F82C800A9B12
:10446400009323462A4631463846C04704460398FB
:1044740007F0B0FE204604B0BDE8F081FEF70EFF61
:10448400054B09221A5004E0FEF708FF024B5F2295
:104494001A504FF0FF34EDE70C0000002DE9F04115
:1044A40084B00E4615461C4603AA02A9FFF79CFBDE
:1044B400E0B10746029B1B6BF3B103984FF0FF3248
:1044C4004FF0FF3307F0F0FC029BD3F830800A9BD7
:1044D400009323462A4631463846C047044603988B
:1044E40007F078FE204604B0BDE8F081FEF7D6FE62
:1044F400054B09221A5004E0FEF7D0FE024B5F225E
:104504001A504FF0FF34EDE70C00000070B582B094
:104514000D46144601AA6946FFF766FBB8B1064684
:10452400009BDB6BCBB101984FF0FF324FF0FF33B0
:1045340007F0BAFC009BDB6B2246294630469847BD
:104544000446019807F046FE204602B070BDFEF70F
:10455400A5FE064B09221A5004E0FEF79FFE034B0A
:104564005F221A504FF0FF34EEE700BF0C0000004A
:1045740070B582B00D46144601AA6946FFF734FBB4
:10458400B8B10646009B1B6CCBB101984FF0FF32CB
:104594004FF0FF3307F088FC009B1B6C2246294632
:1045A400304698470446019807F014FE204602B0AE
:1045B40070BDFEF773FE064B09221A5004E0FEF7A5
:1045C4006DFE034B5F221A504FF0FF34EEE700BF3D
:1045D4000C000000014B1870704700BFE32102205B
:1045E40010B540B10F4A126882B90E4A106001201A
:1045F400FFF7F0FF10BD0C4C142322460B490C4866
:104604000DF020FD142120460DF013FD064C15235A
:104614002246084906480DF015FD152120460DF0E7
:1046240008FD00BF1009022068830600B89E06003A
:1046340004720600A4830600054B1B6823B1054BD6
:104644001B781BB900207047002070470120704779
:1046540010090220E321022010B50E4C24681CB17D
:10466400246864B1A04710BD0B4C392322460B4982
:104674000B480DF0E7FC392120460DF0DAFC064C1E
:104684003A232246074906480DF0DCFC3A2120462D
:104694000DF0CFFC1009022068830600C0830600D9
:1046A40004720600CC83060010B50E4B1B681BB1C8
:1046B4005B6863B1984710BD0B4C412322460B49FC
:1046C4000B480DF0BFFC412120460DF0B2FC064C16
:1046D40042232246074906480DF0B4FC42212046F5
:1046E4000DF0A7FC1009022068830600C0830600B1
:1046F40004720600E883060010B538B118304FF094
:10470400FF324FF0FF3307F0CFFB10BD074C4FF4DF
:1047140043732246064907480DF094FC06480DF001
:1047240091FC4FF4437120460DF083FC0484060091
:1047340034840600047206003483060010B518B1F0
:10474400183007F047FD10BD074C40F213332246E2
:10475400064907480DF076FC06480DF073FC40F25C
:10476400133120460DF065FC0484060034840600F1
:10477400047206003483060010B504460EF022F9D4
:1047840028B96CB1236803B110335B7853B10821A5
:1047940020460EF0A0F820460EF014F990B110BD9A
:1047A4002346F2E7094C41F2CD6322460849094801
:1047B4000DF048FC08480DF045FC41F2CD6120465F
:1047C4000DF037FC20460EF04EF8E8E73C84060076
:1047D40084840600047206003483060038B5044657
:1047E400FFF78AFF002120460EF05AF8002838D13E
:1047F4007CB323687BB35A687AB392687AB3186837
:10480400B8B111F03CFE78B3236803B15B689B68D0
:10481400012120469847051E06DB002120460EF0A4
:104824005AF820460EF0E8F82046FFF787FF28469E
:1048340038BD0F4C41F2787322460E490E480DF0F4
:1048440001FC0E480DF0FEFB41F2787120460DF09C
:10485400F0FB0025E1E70025DFE70025DDE7002583
:10486400DBE76FF07705DFE76FF00505DCE700BFF6
:104874003C840600AC8406000472060034830600FF
:10488400002838D0F8B50D460746002936D008462A
:104894000BF022FA0646082833D81D4C07E02046C0
:1048A400721C294608300BF04FFA68B34434194B94
:1048B4009C4208D8174B9C4215D2BC42F6D0002C1F
:1048C400EDD0201DECE7144C41F629132246134980
:1048D40013480DF0B7FB13480DF0B4FB41F6291152
:1048E40020460DF0A6FB721C294607F10C00FBF7CD
:1048F40085FC0020F8BD6FF0150070476FF01500BF
:10490400F8E76FF05A00F5E76FF07700F2E700BFC1
:1049140060020220A40202203C840600B084060047
:1049240004720600BC76060010B584B004460EF08E
:10493400A0F870B10C4A1368591C11600B4A092184
:1049440001A80BF04FFD01A92046FFF799FF04B021
:1049540010BD074A1368591C1160064A092101A8B1
:104964000BF040FDEFE700BF18090220D0840600D9
:1049740014090220D884060070B54FF0FF324FF0BE
:10498400FF33274807F090FA264C002603E025461B
:104994000AE001364434244B9C4213D8224B9C42F7
:1049A40020D2002CF3D0251D0023AB60EB602B74C8
:1049B40020460DF0E4FF2B7A002BEAD12046FFF7C6
:1049C400B3FFE6E7194C41F69713224618491948F4
:1049D4000DF038FB18480DF035FB41F697112046D1
:1049E4000DF027FB3EB10F4A9B1A144AA2FB032386
:1049F400B6EB931F03D10A4807F0ECFB70BD0B4CD8
:104A040041F6B91322460E490A480DF01BFB0D4826
:104A14000DF018FB41F6B91120460DF00AFB00BF5A
:104A2400DC01022060020220A40202203C84060071
:104A34006884060004720600BC760600F1F0F0F00B
:104A4400E08406003483060010B5124C00E04434C0
:104A5400114B9C420CD8104B9C4219D20321204686
:104A64000DF01EFF0028F2D12046FFF7B7FEEEE757
:104A74000A4C41F6D113224609490A480DF0E2FADC
:104A840009480DF0DFFA41F6D11120460DF0D1FAB4
:104A940010BD00BF60020220A40202203C84060074
:104AA4006884060004720600BC7606002DE9F04115
:104AB4000C461546012811D0022840F0FD802E2115
:104AC40020460BF06FF900284BD0062623783A2BAA
:104AD40049D020460BF000F900224CE0002111607F
:104AE4000F460B46084619E02E2A32D0012807D972
:104AF400092B40F2CC80022802D9632B40F2CA80F1
:104B0400002800F0CA80FF2B00F2CA806B5423787F
:104B140013B30131C9B200231846013403291BD849
:104B24002278002AE0D02E2ADED0A2F13006F6B296
:104B3400092E00F2B8800130C0B2032800F2B6801A
:104B440003EB83035B009BB21A4492B2303A93B2F4
:104B5400E3E70137BFB2C9E7032F40F0AA80002082
:104B6400BEE00826B2E70134B3E7613BDBB2052BB4
:104B740000F2A8800132824210DAA35C462BF4D8FA
:104B84002E2BC0F09C802E3BDBB2594921FA03F353
:104B940013F0010FEED16FF01500A1E0002704E03F
:104BA400731EBB4200F397800137B7423BDA002CF7
:104BB40000F08B802378002B00F08A803A2B18D0E9
:104BC4001022002120460BF041FCC0F307281022DC
:104BD400002120460BF03AFC48EA002825F817800B
:104BE4003A2120460BF0DEF804460028D8D00134E0
:104BF400DAE7B74207DA05EB4702002305F8173076
:104C040053700137F5E73A2120460BF0C3F984428B
:104C140003D0062E0BD0771E11E0062E02D0637847
:104C2400002BF6D10134062E15D0002058E00138AF
:104C3400F1E7002F52DB431E844205D01846037867
:104C44003A2BF6D1013FF4E70134ADE7022E1ADC2A
:104C54006FF0150044E00026032E16DC002C41D032
:104C64002378002B41D00A22002120460BF0EEFBD2
:104C740006F10C03E8542E2120460BF093F8044669
:104C84000028E3D001340136E6E7002028E06FF085
:104C9400150025E06FF0150022E06FF015001FE00D
:104CA4006FF015001CE06FF0150019E06FF01500AF
:104CB40016E06FF0150013E06FF0150010E06FF0D0
:104CC40015000DE06FF015000AE06FF0150007E025
:104CD4006FF0150004E06FF0150001E06FF01500AF
:104CE400BDE8F0816FF01500FAE76FF01500F7E703
:104CF400FD1FF8010B4BD3F80C3403F48033014649
:104D040028B1084AD2F80C2402F00102027023B13F
:104D14000B78012B03D0002070470020704701203E
:104D2400704700BF005000400048704778090220D7
:104D3400014BC01A401170473009022030B583B0CE
:104D440005460C46FFF7F4FF014640230093234633
:104D5400054A06480EF033F8011E01DB03B030BDEE
:104D64002846A047FAE700BF0B2E0600DC6B0600BE
:104D740010B5EFF31184202383F31288BFF36F8FF0
:104D8400074A136823F00201116013F0010F04D0E5
:104D940084F31188BFF36F8F10BD0EF041F8F7E76D
:104DA4008809022030B10022026042608260012240
:104DB4004260704710B5064C4FF48573224605498E
:104DC40005480DF03FF94FF4857120460DF031F997
:104DD400F8840600288506000472060030B110B578
:104DE40001280FD10846FFF785FF10BD0C4BD3F8FF
:104DF4001804C0F3004091B1D3F8183403F003034E
:104E04000B707047074C4FF49F73224606490748BE
:104E14000DF018F94FF49F7120460DF00AF9704710
:104E2400005000404085060044AE060004720600AF
:104E340010B5C9B2012905D80DF069FF806800F0EA
:104E4400070010BD054C7E232246054905480DF098
:104E5400F9F87E2120460DF0ECF800BF84850600A9
:104E6400C48506000472060070B505461646CCB229
:104E740021460DF04CFF012C0DD8314608300DF0C1
:104E840057FF002806DB214628460DF047FF4368FC
:104E94009847002070BD064C4FF4E873224605493C
:104EA40005480DF0CFF84FF4E87120460DF0C1F835
:104EB40084850600C48506000472060038B50546DC
:104EC4000C46FFF735FF014640220348FFF7CCFFAD
:104ED40001462846A04738BDDC6B060070B582B099
:104EE4000546012806D12C4BD3F81C3403F00303E8
:104EF400022B31D011F000FC044610B9274B1B786B
:104F040043B9EFF31186202383F31288BFF36F8F25
:104F140001240FE0204B0222C3F80823002609E0F5
:104F2400E4B130460DF019FB1B4BD3F81835DBB256
:104F3400012B17D00DF107010020FFF74FFF0028C8
:104F4400EED09DF80730022B01D0012DE8D1F4B149
:104F540086F31188BFF36F8F02B070BD01200DF08E
:104F640069FFE1E70C4BD3F80431002BE2D00A4B84
:104F74000022C3F80421D3F804210222C3F818251F
:104F8400074A2021C2F8801101229A60D2E7024B1D
:104F94000222C3F80423DFE700500040FA21022074
:104FA40000E100E000B587B06B46CDF800D0CDF845
:104FB40004D0002202920122039204AA04920592D0
:104FC400064A0DF018FF002805DB4FF48042002349
:104FD400684607F009FC07B05DF804FB652E06007F
:104FE400F8B50646002201210520FEF737F81148DE
:104FF40003F0DAFBD8B9074603F0F4FB002403E01E
:105004000123AB601C44E4B2012C0ED82146304687
:105014000DF07DFE0546214630460DF085FE06491D
:105024000DF0A0F8031EEBDA1F463846F8BD6FF00A
:105034000407FAE7A15005009CAF06002DE9F041F2
:1050440086B005460E460DF062FE0768D0F804806F
:10505400002440F8084B0DF0A0FE314628460DF020
:105064005DFE836804930A4B03930A4B029308235F
:105074000193009423460422074920460DF0F5FECF
:105084001FB1424631462846B84706B0BDE8F08114
:1050940088AF0600E8850600D86E060010B530B16A
:1050A400012808D101210A48FFF7C8FF02E0084897
:1050B4000DF0EAFE10BD074C4FF441732246064939
:1050C40006480CF0BFFF4FF4417120460CF0B1FFCD
:1050D400DC6B06008485060044AE060004720600FC
:1050E40010B582B0EFF31184202383F31288BFF349
:1050F4006F8F134A136843F00201116013F0010F1C
:1051040009D1002384F31188BFF36F8F9BB90DF08D
:1051140082FE02B010BD0DF10700FFF7EBFD9DF814
:105124000730012B01D00023ECE7FFF7FDFD0DF064
:1051340034FE0123E6E700210248FFF77FFFE8E79A
:1051440088090220DC6B060070B504461C4B012163
:10515400D3E8EF2FC3E8E01F0028F9D142B134B1FE
:10516400631EDBB2012B1ED82046FFF7B7FE70BDCD
:1051740014480DF0D9FD0546134E3046FFF712FED4
:10518400311F2846FCF70EFC0028E8DA0F4C40F2E9
:10519400A32322460E490F480CF054FF40F2A321EA
:1051A40020460CF046FF094C40F2B52322460A493A
:1051B40008480CF047FF40F2B52120460CF039FFB7
:1051C4002C090220DC6B06002009022084850600DD
:1051D400787806000472060044AE060010B5044652
:1051E4000A2806D0E1B2064883685B6898472046DF
:1051F40010BD034883685B680D219847F2E700BF40
:10520400306C060010B5044C2046FEF753FC2046D3
:10521400FCF710F910BD00BFE151050008B50548C1
:1052240011F02DF918B1FFF7EDFF002008BD6FF064
:105234001200FBE7306C060008B9024870470020F2
:10524400704700BFF86B060070B569B10446164696
:105254000D464B68B3B1036813B30DF051FE50BB58
:10526400FEB96FF0150022E0164C6423224616495D
:1052740016480CF0E7FE16480CF0E4FE64212046C4
:105284000CF0D7FE0F4C6523224612490F480CF050
:10529400D9FE11480CF0D6FE652120460CF0C9FE5B
:1052A40032B123682B602560636843B1002070BD70
:1052B4006FF01500FBE7002EF3D10020F7E76560DF
:1052C4000020F4E7348606007086060004720600A7
:1052D4007C8606008C860600A086060003685A09B0
:1052E4000AD103F01F034FF0FF32DA4012F0010F2E
:1052F40002D003600748704710B5074C4FF482632F
:105304002246064906480CF09DFE4FF48261204671
:105314000CF08FFE00258440B8860600EC8606005B
:105324000472060070B50E461546016891B10C680A
:10533400ACB1A1B90C4612E0124C892322461249A1
:1053440012480CF07FFE12480CF07CFE89212046A6
:105354000CF06FFE0C4602E0234621461C4681B148
:105364008A682A4004D04B68002BE5D03046984721
:10537400002CF1D02368002BEFD0002CEDD1234674
:10538400EBE770BD34860600108706000472060041
:10539400A08606002DE9F04786B088461646994651
:1053A400446801F01F05237C45EA431520460DF0AF
:1053B400C9FD00286FD0B6F5001F35D06368627C44
:1053C400002A37D001225A620DF10C0A00270397F4
:1053D4000497494630460DF0EAFD8DF80C0000971D
:1053E40001970297CDF804A0E36823FA08F313F0B9
:1053F400010F02D1B6F1A07F1ED00DF1170229468C
:10540400A06803F0ADFD90B36A462946A06803F096
:105414005FFD002805DB01222946A06803F036FE63
:10542400002006B0BDE8F0872946A06803F046FED8
:105434000020F6E70022C6E728460DF0DAFD002832
:10544400DBD10DF117022946A06803F089FD10F1A4
:10545400160F03D00DF117030493D5E70DF11702CE
:10546400414620460DF03EFE0028F3DAD9E79DF8C8
:105474001710A06803F0D4FD0028C5D0074C40F2F3
:10548400ED132246064907480CF0DCFD40F2ED110D
:1054940020460CF0CEFD6FF08500C2E71C870600A5
:1054A4004887060004720600F0B589B00E4614461B
:1054B400456801F01F072B7C47EA431710460DF09F
:1054C40046FD8DF81E0040F206332340B3F5837F7A
:1054D40051D016D8062B4AD009D81BB3022B03D1BE
:1054E40004238DF81D3020E06FF0150039E0B3F58A
:1054F400807F03D101238DF81D3016E06FF0150075
:105504002FE040F20222934239D0B3F5407F2AD0F3
:10551400B3F5007F03D102238DF81D3005E06FF051
:1055240015001EE000238DF81D300123B34014F450
:10553400002F28D06A68936028460DF003FD40B31D
:105544000DF11F023946A86803F00AFD064614F45B
:10555400403F37D13946A86803F04AFD002E6BD08E
:10556400002009B0F0BD03238DF81D30DDE70623CC
:105574008DF81D30D9E707238DF81D30D5E70523B5
:105584008DF81D30D1E714F4802FD5D06A68D3602C
:10559400D2E7C4F340438DF8083004F48034B4FAFD
:1055A40084F464098DF81040002401940DF11D0366
:1055B40000930DF11E0304AA02A938460DF028FD3C
:1055C4002046CEE702A900230293039304AA04937E
:1055D4005360936005913946A86803F079FC00286C
:1055E4001BDB14F4003F1AD09DF81D308DF81030E9
:1055F40004F48034B4FA84F464098DF811409DF8FD
:105604001E308DF81230002304AA3946A86803F02E
:1056140077FC0028A2DA0020A3E70020A1E704AA6F
:1056240000230493536093600DF11E0304933946E1
:10563400A86803F04DFCECE79DF81F10A86803F080
:10564400EFFC00288DD0054CF82322460449054878
:105654000CF0F8FCF82120460CF0EBFC1C8706004B
:10566400488706000472060038B504464568284693
:105674000DF068FC20B90E4920460DF051FC38BDF0
:10568400A86803F09DFC0028F5D10021A86803F068
:105694007FFC50B900220749A86803F049FC0022A6
:1056A40005213120FDF7DAFCE5E76FF00400E6E7B9
:1056B400DF2F0600CB30060003685A090AD103F035
:1056C4001F034FF0FF32DA4012F0010F02D00360E3
:1056D4000748704710B5074C4FF4826322460649C9
:1056E40006480CF0AFFC4FF4826120460CF0A1FC9C
:1056F40000258440B8860600EC8606000472060085
:10570400F0B583B001900C4617461E4601A8FFF77A
:10571400D3FF0199803150F82130094D1D4044EAEE
:10572400470444EA86039DF8202043EA02239DF8B7
:10573400242043EA02432B4340F8213003B0F0BD58
:10574400F0F8FCFF2DE9F04F85B0074688469146F6
:105754000024444580F0C9804FEA840A57F8243075
:10576400C3F3C725C3F3C322C3F3080615F0080522
:1057740040F0BD80624911F802B040F2FF12964237
:1057840012D01B0E192B00F2B580DFE803F01023B2
:105794002A30373E45B3B3B3B34C56B3B3B3B3B304
:1057A400B3B3B3B3606A747E4FF0FF36E9E7C9F868
:1057B4000C65012102910391B6F1FF3F00F0928044
:1057C400B1F1FF3F7DD157F80A3013F4004F7CD17B
:1057D400039D7CE0C9F81465029503954FF0FF31F1
:1057E400EAE7C9F80865012102910391E4E7C9F8E1
:1057F4001065029503954FF0FF31DDE7C9F80865A0
:105804000295012303930021D6E7C9F80C6501230F
:10581400029303930021CFE7C9F81065029503951D
:105824004FF0FF31C8E7C9F80865BBF1000F36D067
:10583400029503954FF0FF31BEE7C9F80C65BBF143
:10584400000F35D0029503954FF0FF31B4E7C9F846
:10585400606557F80A10C1F30041012302930393D2
:10586400AAE7C9F8646557F80A10C1F30041012397
:1058740002930393A0E7C9F8686557F80A10C1F3C7
:10588400004101230293039396E7C9F86C6557F826
:105894000A10C1F300410123029303938CE7CDF86E
:1058A40008B0CDF80CB04FF0FF314FF0060B83E792
:1058B400CDF808B0CDF80CB04FF0FF314FF0060B27
:1058C4007AE730460DF047FC7DE701220292002280
:1058D4000192CDF800B0C3F34123029A2946304621
:1058E400FFF70EFF0134E4B233E7002004E06FF069
:1058F400150001E06FF0850005B0BDE8F08F00BF32
:10590400D4AF0600F8B505460E46476810F0F4FE1D
:1059140010B9114B1B787BB9EFF31184202383F367
:105924001288BFF36F8F28460DF05FFC40B984F3F3
:105934001188BFF36F8FEFE728460DF0A5FC0446EE
:10594400BB691E700122B96928460DF062FC84F31C
:105954001188BFF36F8FF8BDFA21022030B585B0EE
:105964000D460023C0F8A031C0F88C3001F10802C4
:1059740000F10C0100F590700EF057FE041E06DBDA
:10598400287A02F0F9FE0024204605B030BD054B0C
:1059940002930020019000900346012202490DF079
:1059A400CFFCF1E760870600606F060038B5044657
:1059B40045680121E8680DF08CFC636819682B695F
:1059C400C1F824356A7DA87D2B7D02431343C1F8B9
:1059D4006C3520460DF0C3FC00B138BD02492046A9
:1059E4000DF0C1FBF9E700BF3133060021F07F4120
:1059F40000F5A870014B43F8201070470050014097
:105A04004FF480338340024AC2F84433704700BFE6
:105A1400005001404FF480338340024AC2F84833B7
:105A2400704700BF00500140014BD3F80405704794
:105A3400005001402DE9F843054689469046FFF79A
:105A4400E9FF28460DF031FD4E46032710E0FFF72D
:105A5400EBFF044649460DF017FDB0F5000F26D9BB
:105A640028460DF022FDB8F1000F22D13E1901376E
:105A740031462846FFF7BAFF2846FFF7C1FFFFF774
:105A8400D3FF0446C11C30460DF0FEFC0A4B98427D
:105A94000AD928460DF0FCFC0028D8D1B8F1000F33
:105AA400E4D06FF0150000E00020BDE8F88300208A
:105AB400FBE76FF01500F8E7FDFF7F00034B044A96
:105AC400C3F80823C3F84823704700BF00500140BF
