:020000040000FA
:10000000F80B0020516E0000DB6E0000D3AD010044
:10001000FDAD010027AE01007BAE010051AE010035
:1000200000000000000000000000000005D50000F6
:10003000E36E000000000000E9FB0000EB6E000032
:10004000000000000000000000000000F3FF0000BE
:1000500000000000F36E000000000000000000003F
:10006000FB6E0000036F00000B6F0000136F0000B9
:10007000000000001B6F0000236F00002B6F0000CA
:10008000336F00003B6F0000000000000000000024
:10009000436F00004B6F00000000000000000000F4
:1000A000536F000000000000000000005B6F0000C4
:1000B000636F00006B6F0000736F00007B6F0000C8
:1000C000836F00008B6F0000936F00009B6F000038
:1000D000A36F000000000000AB6F000000000000F4
:1000E000B36F000000000000BB6F000000000000C4
:1000F000C36F0000000000000000000000000000CE
:1001000000000000CB6F00000000000000000000B5
:1001100000000000000000000000000000000000DF
:1001200000000000D36F000000000000000000008D
:1001300000000000000000000000000000000000BF
:10014000DB6F000000015F5F02000000FE0B00009B
:10015000D9D50000000400000000000000000000ED
:100160000000000000000000000000000100FFC3CC
:10017000000000C4E0B100200000000001015F5F4A
:10018000030100001F010000F7280000002000000C
:10019000000000000100000001000000000000005D
:1001A0000000000000000000000000005845002092
:1001B000000000007000000004B301008000000097
:1001C000000F0000010000002729000001000000CE
:1001D00001015F5F000100001F000000B567000023
:1001E0000007000000000000030000000100000004
:1001F00000000000000000000000000000000000FF
:1002000000260020000000008000000070000000B8
:100210004000000010B30100600000000107000072
:1002200001000000FD5500000100000001015F5FBA
:10023000010100001F010000B32B00002007000097
:1002400000000000000000000100000000000000AD
:1002500000000000000000000000000058650020C1
:100260000000000030B3010070000000020F000029
:1002700001000000651900000100000001015F5F3E
:10028000040100001F0100006B4C0000000500008D
:10029000000000000000000001000000000000005D
:1002A000000000000000000000000000786C00204A
:1002B0000000000058B301004000000005070000E6
:0C02C00001000000E1200000010000002F
:1002E00080B483B000AF7860064B03F580531A46A4
:1002F0007B68C2F80434002318460C37BD4680BC26
:10030000704700BF7871002080B483B000AF786080
:10031000064B03F58053D3F804247B681A6000234E
:1003200018460C37BD4680BC704700BF787100206E
:1003300080B483B000AF786039607B6813F1040F3C
:1003400002D96FF08C0327E07B68033323F00303AB
:100350007B60144B03F58053D3F80034C3F5A053EE
:100360007A689A4202D96FF08C0315E00D4B03F5C1
:100370008053D3F800340B4A1A443B681A60094B87
:1003800003F58053D3F800247B681344054A02F533
:100390008052C2F80034002318460C37BD4680BC9A
:1003A000704700BF7871002080B500AF0C4B03F59B
:1003B00080531A460023C2F80434094B03F58053D6
:1003C000D3F800341A46002105481AF01BFE044BEE
:1003D00003F580531A460023C2F8003400BF80BDE5
:1003E0007871002080B58AB000AFF860B9607A609B
:1003F0003B606FF096037B62FB681B683B620023E7
:10040000BB6100233B6100237B610023FB77FB681A
:100410005B68402B02D06FF08003A5E03B6A1B8D28
:100420001B0A9BB2BB77BB7F032B04D0BB7F012B86
:1004300001D0012300E00023FB77FB7F03F00103E1
:10044000FB77FB7F002B0FD007F11803184602F053
:1004500000F978627B6A002B01D07B6A84E03B6AFA
:100460001B683B61BB697B61BB7F013B0A2B76D874
:1004700001A252F823F000BF2F050000A5040000E0
:10048000B7040000C3040000D5040000E704000026
:10049000F90400000B0500001D0500003B050000ED
:1004A0004D05000007F110031A467968F86801F05D
:1004B0004BF8034658E07968F86800F0B3F9034652
:1004C00052E007F110031A467968F86800F016FB4D
:1004D000034649E007F110031A467968F86802F00C
:1004E00035FA034640E007F110031A467968F868C8
:1004F00000F05CFC034637E007F110031A46796808
:10050000F86802F030FA03462EE007F110031A46AD
:100510007968F86802F034FA034625E007F1100321
:100520001A467968F86800F09DFE03461CE0796879
:10053000F86802F040FA034616E007F110031A4685
:100540007968F86802F0BDFA03460DE007F1100380
:100550001A467968F86802F0C1FA034604E00448D4
:100560001AF00BFE6FF0850318462837BD4680BD94
:100570000450000080B582B000AF78607A681346FE
:100580005B0013441B021033054A13444FF43C72C2
:10059000002118461AF036FD00BF0837BD4680BD61
:1005A000582D002080B500AF4FF4C0520021034801
:1005B0001AF028FD0023184680BD00BF582D0020EA
:1005C00080B588B000AFF860B9607A600023FB6145
:1005D00000237B61BB681B68002B02D06FF088038F
:1005E00055E07B68002B02D16FF086034FE07B68FB
:1005F00000221A6007F11403184602F02AF8B861C5
:10060000BB69002B01D0BB6941E00023FB6139E0ED
:100610002149FA6913465B0013441B020B441B6813
:10062000002B2CD11C49FA6913465B0013441B02B2
:100630000B4401221A6079691748FA6913465B0076
:1006400013441B020344043319601349FA69134627
:100650005B0013441B020B440833FA681A60FB6901
:100660005A1CBB681A60FA6913465B0013441B02EC
:100670001033094A1A447B681A60002307E0FB69BB
:100680000133FB61FB69072BC2D96FF08403184665
:100690002037BD4680BD00BF582D002080B586B0F4
:1006A00000AF78607B681B687B610023FB607B6820
:1006B00000221A607B69002B02D07B69082B02D9CB
:1006C0006FF086034BE007F10C03184601F0C1FF01
:1006D00038613B69002B01D03B6940E07B695A1EC1
:1006E000214913465B0013441B020B441B68012B7A
:1006F00033D17B695A1E1C4913465B0013441B020D
:100700000B4404331A68FB689A4226D17B69013B8B
:100710001846FFF72FFF7B695A1E134913465B00EB
:1007200013441B020B4400221A607B695A1E0E49B7
:1007300013465B0013441B020B44083300221A606B
:100740007B695A1E084913465B0013441B020B4485
:10075000043300221A60002301E06FF0860318467C
:100760001837BD4680BD00BF582D002080B586B02B
:1007700000AFF860B9607A6000233B61BB68002B72
:1007800002D0BB68082B02D96FF0880344E07B6875
:10079000002B02D16FF086033EE007F110031846EC
:1007A00001F057FF78617B69002B01D07B6933E052
:1007B000BB685A1E1A4913465B0013441B020B44C4
:1007C0001B68012B26D1BB685A1E154913465B00D6
:1007D00013441B020B4408331B68FA689A4219D170
:1007E000BB685A1E0E4913465B0013441B020B44A0
:1007F00004331A683B699A420CD1BB685A1E1346EF
:100800005B0013441B021033054A1A447B681A60CC
:10081000002301E06FF0880318461837BD4680BDFD
:10082000582D002080B598B002AF786039607B68A1
:100830001B68FB646FF085037B650023FB6000236E
:100840003B65FB6C1B8DA7F84A30B7F84A30B3F50F
:10085000407F22D17B6808331B68FB617B680833CB
:100860005B68BB613B681B687B613B685B683B61A5
:10087000FB6C58683B68043301933B6900937B69C8
:10088000BA69F96912F08AFE78657B6D002B02D097
:100890003B6800225A607B6D2BE1B7F84A3040F28A
:1008A000013293421AD17B6808331B68FB627B6874
:1008B00008335B68BB627B6810331B687B627B68B4
:1008C00010335B683B62FB6C58683B6A00937B6A41
:1008D000BA6AF96A12F072FE03460AE1B7F84A30C2
:1008E00040F2023293421BD13B681B683B653B6878
:1008F0001B68002B03D03B685B68032B02D86FF0AA
:100900008003F6E0FB6C9A683B6D1A603B681B68DD
:1009100007F10C0219460320FFF752FE78652CE020
:10092000FB6C9B6807F10C0219460320FFF71EFFC2
:100930007865B7F84A3040F2053293420BD0B7F8E9
:100940004A3040F20632934205D0B7F84A3040F2BE
:100950000732934211D13B681B683B653B681B68BB
:10096000002B03D03B685B68032B02D86FF0800339
:10097000BFE0FB6C9A683B6D1A607B6D002B09D061
:10098000B7F84A3040F20732934201D10023B0E079
:100990007B6DAEE0B7F84A30A3F20233052B00F2CC
:1009A000998001A252F823F0C1090000DB09000080
:1009B0005F0A0000FB0900002D0A0000530A000036
:1009C000FA68FB6C5B681946104612F047FD7865C3
:1009D0007B6D002B00F0818087E07B6808331B680B
:1009E0007B637B6808335B683B63FB683A6B796BBE
:1009F000184612F059FD03467BE03B6808331B683C
:100A0000FB633B6808335B68BB63F8683B6808338B
:100A10000433BA6BF96B12F063FD78657B6D002BC4
:100A200062D03B68083300225A605BE07B68083381
:100A30001B687B647B6808335B683B64FB683A6CCB
:100A4000796C184612F060FD78657B6D002B46D1FD
:100A50004BE0FB68184612F0F5FC786545E0002392
:100A6000BB603B681B683B653B681B68002B0DD077
:100A70003B685B68032B09D97B6808331B68002B34
:100A800004D07B6808335B68032B02D86FF08003C7
:100A90002FE07B6808331B681A683B6D1A6007F10A
:100AA00008031A46396D0320FFF78AFD78657B6DD0
:100AB000002B01D07B6D1CE0FB68BA68114618461C
:100AC00012F0A6FD78657B6D002B0AD0386DFFF71C
:100AD000E5FD06E06FF085030BE000BF02E000BF1C
:100AE00000E000BF7B6D04E000BF386DFFF7D6FD6E
:100AF0007B6D18465837BD4680BD00BF80B59EB09F
:100B000004AFF860B9607A60FB681B68FB656FF042
:100B100085037B660023FB6100233B66FB6D1B8D19
:100B2000A7F85A307B6859687B681A6807F1140384
:100B3000184601F06EFFB7F85A30B3F5806F27D131
:100B4000FB6808331B68FB62FB6808335B68BB62A9
:100B5000BB681B687B62BB685B683B62FB6D5A6865
:100B6000BB68043303933B6A02937B6A0193BB6ABD
:100B70000093FB6A07F1140103C912F06FFE786657
:100B80007B6E002B02D0BB6800225A607B6E08E1AE
:100B9000B7F85A3040F2014293421FD1FB68083344
:100BA0001B68FB63FB6808335B68BB63FB6810333F
:100BB0001B687B63FB6810335B683B63FB6D5A68A3
:100BC0003B6B02937B6B0193BB6B0093FB6B07F159
:100BD000140103C912F058FE0346E2E0B7F85A3098
:100BE00040F20242934205D0B7F85A3040F2034235
:100BF00093421BD1BB681B683B66BB681B68002B1C
:100C000003D0BB685B68032B02D86FF08003C8E099
:100C1000FB6D9A683B6E1A60BB681B6807F11C028B
:100C200019460220FFF7CCFC78662CE0FB6D9B6830
:100C300007F11C0219460220FFF798FD7866B7F805
:100C40005A3040F2054293420BD0B7F85A3040F286
:100C50000642934205D0B7F85A3040F20742934219
:100C600011D1BB681B683B66BB681B68002B03D0B7
:100C7000BB685B68032B02D86FF0800391E0FB6DCB
:100C80009A683B6E1A607B6E002B09D0B7F85A3019
:100C900040F20742934201D1002382E07B6E80E064
:100CA000B7F85A30A3F20243052B6BD801A252F8D1
:100CB00023F000BFCD0C0000E70C0000010D000088
:100CC000210D0000530D0000790D0000F869FB6D47
:100CD0005B6807F1140206CA12F0CEFC78667B6EE0
:100CE000002B52D059E0F869FB6D5B6807F11402E4
:100CF00006CA12F0CFFC78667B6E002B47D04CE022
:100D0000FB6808331B687B64FB6808335B683B64E3
:100D1000FB693A6C796C184612F0CAFC034640E055
:100D2000BB6808331B68FB64BB6808335B68BB6443
:100D3000F869BB6808330433BA6CF96C12F0D8FC5C
:100D400078667B6E002B27D0BB68083300225A6080
:100D500020E0FB6808331B687B65FB6808335B6831
:100D60003B65FB693A6D796D184612F039FD78667E
:100D70007B6E002B0DD110E0FB69184612F06AFC67
:100D800078660AE06FF085030BE000BF02E000BF69
:100D900000E000BF7B6E04E000BF386EFFF77EFC12
:100DA0007B6E18466837BD4680BD00BF80B5B8B0C1
:100DB00008AFF860B9607A60FB681B68C7F8B430A8
:100DC0006FF08503C7F8BC300023FB610023C7F830
:100DD000B830D7F8B4301B8DA7F8B2307B685968AB
:100DE0007B681A6807F11403184601F012FEB7F881
:100DF000B230B3F5C06F44D1D7F8B43014333B648C
:100E00003B6CFB633B6C1B69BB63FB6808331B6873
:100E10007B63FB6808335B683B63BB681B68FB62F2
:100E2000BB685B68BB62FB6810331B687B62FB6856
:100E300010335B683B62D7F8B4305A68BB68043340
:100E40000793BB6A0693FB6A05933B6B04937B6B2A
:100E500003933B6A02937B6A0193BB6B0093FB6B2A
:100E600007F1140103C912F039FDC7F8BC00D7F827
:100E7000BC30002B02D0BB6800225A60D7F8BC30CF
:100E8000ECE1B7F8B23040F20162934244D1D7F8B6
:100E9000B43014337B667B6E3B667B6E1B69FB65EF
:100EA000FB6808331B68BB65FB6808335B687B65C0
:100EB000BB681B683B65BB685B68FB64FB68103301
:100EC0001B68BB64FB6810335B687B64D7F8B43085
:100ED0005A68BB6804330793FB6C06933B6D05931C
:100EE0007B6D0493BB6D03937B6C0293BB6C01938E
:100EF000FB6D00933B6E07F1140103C912F04AFD2C
:100F0000C7F8BC00D7F8BC30002B02D0BB68002269
:100F10005A60D7F8BC30A1E1B7F8B23040F20262B3
:100F2000934205D0B7F8B23040F2036293421FD12A
:100F3000BB681B68C7F8B830BB681B68002B03D0C0
:100F4000BB685B68032B02D86FF0800386E1D7F89B
:100F5000B4309A68D7F8B8301A60BB681B6807F1DC
:100F60001C0219460520FFF72BFBC7F8BC0031E037
:100F7000D7F8B4309B6807F11C0219460520FFF72B
:100F8000F5FBC7F8BC00B7F8B23040F209629342F3
:100F90000BD0B7F8B23040F20A62934205D0B7F8EE
:100FA000B23040F20B62934214D1BB681B68C7F8A1
:100FB000B830BB681B68002B03D0BB685B68032B91
:100FC00002D86FF0800349E1D7F8B4309A68D7F8B7
:100FD000B8301A60D7F8BC30002B0AD0B7F8B2305E
:100FE00040F20B62934201D1002337E1D7F8BC30C5
:100FF00034E1B7F8B230A3F20263092B00F21C818E
:1010000001A252F823F000BF31100000531000007D
:10101000F51000002711000047110000B911000071
:101020005F11000075100000D9110000E7100000EA
:10103000F869D7F8B4305B6807F1140206CA12F0F9
:1010400005FDC7F8BC00D7F8BC30002B00F0F780D6
:10105000FEE0F869D7F8B4305B6807F1140206CAFD
:1010600012F002FDC7F8BC00D7F8BC30002B00F02E
:10107000E880EDE0BB6810331B68C7F89C30BB68A4
:1010800010335B68C7F89830BB6808331B68C7F833
:101090009430BB6808335B68C7F89030F869BB6868
:1010A00010331A1DBB68083304330293D7F890300D
:1010B0000193D7F8943000931346D7F89820D7F8C7
:1010C0009C1012F061FEC7F8BC00D7F8BC30002BB2
:1010D00000F0BB80BB68083300225A60BB68103345
:1010E00000225A60AEE0FB69184612F0D1FEC7F844
:1010F000BC00ADE0BB681B68FB66BB685B68BB6699
:10110000F869BB680433BA6EF96E12F0F1FCC7F8E7
:10111000BC00D7F8BC30002B02D0BB6800225A605C
:10112000D7F8BC309AE0FB6808331B687B67FB6824
:1011300008335B683B67FB693A6F796F184612F0BA
:10114000A1FC03468AE0F869D7F8B430D968D7F82B
:10115000B4301B691A4612F059FD03467EE0FB6865
:1011600008331B68C7F88C30FB6808335B68C7F826
:101170008830BB681B68C7F88430BB685B68C7F8F9
:101180008030F869BB6804330193D7F8803000934E
:10119000D7F88430D7F88820D7F88C1012F0ACFD3F
:1011A000C7F8BC00D7F8BC30002B02D0BB680022C7
:1011B0005A60D7F8BC3051E0FB6808331B68FB6706
:1011C000FB6808335B68BB67FB69BA6FF96F184649
:1011D00012F056FD034641E0FB6808331B68C7F870
:1011E000AC30FB6808335B68C7F8A830BB680833CD
:1011F0001B68C7F8A430BB6808335B68C7F8A03029
:10120000F869BB6808331A1DD7F8A8300193D7F8DE
:10121000AC3000931346D7F8A020D7F8A41012F0F2
:1012200003FEC7F8BC00D7F8BC30002B0FD0BB685A
:10123000083300225A6005E06FF085030EE000BF1E
:1012400000E000BFD7F8BC3008E000BF00E000BFFE
:10125000D7F8B800FFF722FAD7F8BC301846C037E5
:10126000BD4680BD80B5A2B004AFF860B9607A60B9
:10127000FB681B68FB666FF085037B6700237B635D
:1012800000233B67FB6E1B8DA7F86A307B685968AB
:101290007B681A6807F12C03184601F0BAFBB7F80F
:1012A0006A30B3F5106F20D1BB681B687B64BB68E4
:1012B0005B683B64FB6808331B68FB63FB680833AF
:1012C0005B68BB63FB6E5868BB68043303933B6C7D
:1012D00002937B6C0193BB6B0093FB6B07F12C02B9
:1012E00006CA13F077F803462AE1B7F86A3040F6E9
:1012F000011293421BD1BB681B683B67BB681B682C
:10130000002B03D0BB685B68032B02D86FF080030F
:1013100016E1FB6E9A683B6F1A60BB681B6807F1A9
:10132000340219460420FFF74BF9786708E0FB6E9A
:101330009B6807F1340219460420FFF717FA786713
:101340007B6F002B07D0B7F86A3040F60A12934241
:1013500001D07B6FF4E0B7F86A30A3F60113092BD4
:1013600000F2E48001A252F823F000BF95130000C0
:10137000AF130000D9130000EB1300003D14000070
:101380000D1400000115000021140000511400008C
:10139000C71400007A6BFB6E5B681946104612F0AA
:1013A000C1FE78677B6F002B00F0C380C4E0BB6890
:1013B0001B68BB64BB681B68002B03D0BB685B6801
:1013C000042B02D06FF08003BAE07B6BB96C184637
:1013D00012F088FD0346B3E07A6BFB6E1B6B194677
:1013E000104612F089FD0346AAE0FB6808331B682B
:1013F0003B65FB6808335B68FB64786BFB6E598D5B
:10140000FB6C3A6D12F0E2FE034699E0786BFB6EDE
:10141000598DFB6ED3E90C2312F0E4FE03468FE0F6
:10142000BB681B683B66BB685B68FB657B6BFA6DE2
:10143000396E184612F072FD034681E0786BFB6E40
:10144000598D07F12C030CCB12F008FF034677E00F
:10145000BB681B687B66BB681B68002B03D0BB683E
:101460005B68032B02D86FF0800369E0FB680833E8
:101470001B68002B04D0FB6808335B681C2B02D070
:101480006FF080035CE0FB6808331968FB68083381
:101490005A6807F11003184619F06EFD7B685B6807
:1014A00007F110021146184601F0C3FA796B07F1F3
:1014B0002C0207F11003184612F062FD7867FA6AF1
:1014C0007B6E1A6036E0BB681B683B67BB681B68B5
:1014D000002B03D0BB685B68032B02D86FF080033E
:1014E0002EE0FB6E9A683B6F1A607B6F002B01D079
:1014F000002325E07B6B184612F0DEFC78671BE0CA
:10150000FB6808331B68BB65FB6808335B687B6559
:10151000786BFB6E598D7B6D0193BB6D009307F16A
:101520002C030CCB12F0EAFE034609E06FF08503B2
:1015300006E000BF7B6F03E0386FFFF7AFF87B6F0B
:1015400018467837BD4680BD80B59EB002AFF860C2
:10155000B9607A60FB681B68BB666FF09603FB6638
:101560007B6859687B681A6807F13403184601F0F4
:1015700050FABB6E1B8D40F20322934207D040F21B
:101580000322934224DBA3F50273012B20D8FB68CE
:1015900008331B68002B04D0FB6808335B681C2BE6
:1015A00002D06FF0800328E1FB6808331968FB68FC
:1015B00008335A6807F11803184619F0DDFC7B68F8
:1015C0005B6807F118021146184601F032FA00E094
:1015D00000BFBB6E1B8DA3F50073092B00F20681C3
:1015E00001A252F823F000BFAF160000571600000A
:1015F0008F160000111600009F160000F116000063
:10160000211700005117000061170000AD170000FE
:10161000FB6810331B68FB64FB6810335B68BB64BA
:10162000BB681B687B64BB681B68002B03D0BB686E
:101630005B68032B02D86FF08003DEE007F1340310
:1016400007F11800BA6CF96C11F048FDF8667A6B76
:101650007B6C1A60D0E0BB681B683B64BB681B688E
:10166000002B03D0BB685B68032B02D86FF08003AC
:10167000C3E007F134031A4607F1340393E803008B
:1016800013F030FAF8667A6B3B6C1A60B4E007F13D
:10169000340393E8030013F05DFAF866ACE007F159
:1016A000340393E8030011F0E9FBF866A4E0BB689B
:1016B0001B68FB6307F118031A4607F1340393E82C
:1016C000030011F02DFCF866BB681B68002B03D0EB
:1016D000BB685B681C2B02D96FF080038DE0BB6890
:1016E0005A6807F118031946F86B19F045FC83E0B6
:1016F000BB681B687B65BB685B683B65BB68043384
:1017000000933B6D7A6D07F1340103C911F040FC81
:10171000F866FB6E002B6CD0BB6800225A6068E054
:10172000BB681B68FB65BB685B68BB65BB68043353
:101730000093BB6DFA6D07F1340103C911F09AFCF7
:10174000F866FB6E002B56D0BB6800225A6052E050
:1017500007F1340393E8030013F028FAF8664BE02E
:10176000BB681B683B6607F11003184601F015F9CA
:10177000BB681B68002B03D0BB685B68032B02D8D7
:101780006FF0800339E007F1100307F1180207F149
:10179000340103C911F082FDF866FB6E002B01D005
:1017A000FB6E2AE03A693B6E1A6025E0BB681B6855
:1017B0007B66BB681B68002B03D0BB685B68032B90
:1017C00002D86FF0800318E007F1340207F1180324
:1017D0001146184612F07AFEF866FB6E002B01D017
:1017E000FB6E0AE07A6B7B6E1A6005E06FF0850392
:1017F00003E000BF00E000BFFB6E18467037BD4637
:1018000080BD00BF80B500AF0F220349034819F027
:10181000B3FB024B184680BD2C5000008085002091
:1018200080B500AF4FF40251044803F08FFD044827
:1018300010F03CFA0023184680BD00BF94850020BC
:10184000012A000080B58AB002AF78607B681B690E
:10185000082B03D17B689B69042B02D06FF08003B7
:101860002FE07B68586807F11002082300210FF071
:101870008BFFF861FB69082B02D06FF0800320E03A
:101880007B68586807F10C02042302210FF07CFFEB
:10189000F861FB69042B02D06FF0800311E07B68D4
:1018A0005B69BB617B685B68084A13607B6898680A
:1018B000D7E90423F9680191B969009100F000FAB1
:1018C000034618462037BD4680BD00BF14A6002041
:1018D00090B58FB004AF78607B681B69082B03D18B
:1018E0007B685B69042B02D06FF0800334E07B6877
:1018F000586807F11002082300210FF045FF7862B5
:101900007B6A082B02D06FF0800325E07B68586863
:1019100007F10802042301210FF036FF78627B6A89
:10192000042B02D06FF0800316E07B681B6A3B62D9
:101930007B685B680A4A13607B689C68D7E904236C
:10194000B96807F10C000290386A019000912046B6
:1019500000F05CFAF861FB6918462C37BD4690BD73
:1019600014A6002080B582B000AF78607B681B6849
:10197000A3F2E933032B1FD801A252F823F000BFD2
:10198000911900009B190000A5190000AF19000073
:101990007868FFF757FF034610E07868FFF798FF75
:1019A00003460BE0786801F0A6F8034606E0786885
:1019B00001F0D9F8034601E06FF0850318460837B7
:1019C000BD4680BD80B582B000AF78603960064BFF
:1019D00018683B687A6801210FF0D6FE0346184666
:1019E0000837BD4680BD00BF14A6002080B582B078
:1019F00000AF78603960054B18683B687A68002151
:101A00000FF0DAFE00BF0837BD4680BD14A60020E7
:101A100080B483B000AF78607B68B3F5807F01D17C
:101A2000034B00E0034B18460C37BD4680BC7047A3
:101A300048AE002030AE002080B584B000AF1C4B13
:101A40009B6A984703461B69042B02D06FF0800302
:101A50002AE0174B9B6A984703469B68154A936098
:101A6000134B9B6A984703461A7D124B1A763B1D0F
:101A700018460BF0EAF90346002B02D06FF0800302
:101A800012E07B680B4A53600A4B9B683A7B02FB6F
:101A900003F3084AD360BA68064BDB68B2FBF3F382
:101AA0009AB2044B1A82002318461037BD4680BDF7
:101AB000940E0100202D002080B584B000AF1C4B97
:101AC0009B6A984703461B69042B02D06FF0800382
:101AD0002AE0174B9B6A984703469B68154A936018
:101AE000134B9B6A984703461A7D124B1A763B1D8F
:101AF00018460BF08FF90346002B02D06FF08003DD
:101B000012E07B680B4A53600A4B9B683A7B02FBEE
:101B100003F3084AD360BA68064BDB68B2FBF3F301
:101B20009AB2044B1A82002318461037BD4680BD76
:101B3000940E01003C2D002080B582B000AF002340
:101B40007B60FFF779FF78607B68002B01D07B68B2
:101B500051E02B4A2B492C4801F057F978607B68FB
:101B6000002B01D07B6846E0274801F079F97860C6
:101B70007B68002B0FD0254819F0FFFA224801F0AE
:101B80009AF978607B68002B01D07B6833E01E48AF
:101B900001F066F978607B68002B01D07B682AE051
:101BA000FFF78AFF78607B68002B01D07B6822E01A
:101BB000134A1749174801F028F978607B68002B11
:101BC00001D07B6817E0134801F04AF978607B6820
:101BD000002B0FD0104819F0D0FA0E4801F06BF925
:101BE00078607B68002B01D07B6804E0094801F035
:101BF00037F978607B6818460837BD4680BD00BF5E
:101C000098500000202D002030AE00203C500000F5
:101C10003C2D002048AE00206450000080B584B008
:101C200000AFC7E902017A60D7E90223134302D16A
:101C30006FF0860317E03B1D042219460C4819F08B
:101C40009BF90C4807F108030822194619F094F98A
:101C50007B681846FFF7DCFE0346074A044918462E
:101C600001F035F9034618461037BD4680BD00BF68
:101C700018A600201CA6002024A6002080B588B04D
:101C800002AFF860B9607A603B607B6A7B61F8689C
:101C9000FFF7BEFE7B6901933B6A00933B68074AEE
:101CA000B96801F038F938613B69002B01D03B6914
:101CB00000E0002318461837BD4680BD24A600204A
:101CC00080B58AB002AFF860C7E90023D7E90023E6
:101CD000134302D16FF0860354E0FB6A072B02D94D
:101CE0006FF085034EE0FA68D7E90001FFF796FF31
:101CF000B861BB69002B08D1244B9B6803F001033A
:101D0000002B08D06FF084033CE0BB6913F18C0F0B
:101D100001D0BB6936E01D4ABB6A5360FB6A43F4DD
:101D200040331A4A93600023FB61BB6AB3F5006F2E
:101D300028BF4FF400637B6179691548FFF742FEC5
:101D4000134B0193FB6900937B69104A1149F868B2
:101D5000FFF794FFB861BB69002B01D0BB6911E0AC
:101D60000A4B9B6823F44033084A9360FA697B6905
:101D70001344FB61BA6A7B69D31ABB62BB6A002B4E
:101D8000D3D1BB6918462037BD4680BD24A60020AC
:101D900030A6002018A6002080B588B002AFF860F9
:101DA000B9607A603B607B68B3F5006F28BF4FF481
:101DB00000637B61F868FFF72BFE124B0093BB6852
:101DC0007A69114901F001FB38613B69002B04D0AD
:101DD0003B6800221A603B690FE079690948FFF708
:101DE00005FEBA687B691344BB607A687B69D31AC5
:101DF0007B607B68002BD6D1002318461837BD4680
:101E000080BD00BF30A6002018A6002080B586B097
:101E100000AFF860C7E90023D7E90023134302D1DC
:101E20006FF0860325E0FA68D7E90001FFF7F6FEB8
:101E300078617B69002B01D07B691AE00F4B1B682E
:101E40003A6A9A4202D96FF0860312E00B4B1A6885
:101E50003B6AD31A7A6A934228BF13467B62BB6AF5
:101E60007A6A1A60BB6A7A6A396AF868FFF794FF7F
:101E7000034618461837BD4680BD00BF24A6002083
:101E800080B586B000AFF860C7E90023FA68D7E9EB
:101E90000001FFF7C3FE78617B69002B01D07B69ED
:101EA0000CE0084B1A683B6A1A60064B1A683B6ADA
:101EB0005A60044B9A683B6A9A60002318461837A8
:101EC000BD4680BD24A6002080B586B000AFF86076
:101ED000C7E90023FA68D7E90001FFF79FFE7861A0
:101EE0007B69002B01D07B6911E00B4B9B6803F0F1
:101EF0000103002B02D06FF0840308E0F868FFF7BD
:101F000087FD03460549184601F042FA0346184684
:101F10001837BD4680BD00BF24A6002018A60020AB
:101F200080B58CB000AFF860B9607A603B60002388
:101F3000BB62FB681B685B68984703463B613B7C60
:101F4000C3F34103DBB21A464A4B53F8223087F8F9
:101F5000273097F82730BA68B2FBF3F397F82720B9
:101F600002FB03F33B623B68FB623A6ABB689A423E
:101F70002FD0FB681B685B6907F114010122386AE6
:101F80009847F861FB69002B02DA6FF091036CE06F
:101F9000BA683B6AD21A3B681A4497F827309A42CB
:101FA00006D397F82720396ABB68CB1A134400E0A0
:101FB0003B68BB62BA683B6AD31A07F11402134448
:101FC000BA6A1946786818F0D7FFFA6ABB6AD31A5A
:101FD000FB62FB6A002B2AD097F82730FA6AB2FB23
:101FE000F3F3BB61BB69002B21D0FB681B685B6905
:101FF000B968BA6A88187968BA6A1144BA699847A0
:10200000F861FB69002B02DA6FF091032DE097F87D
:102010002730BA6902FB03F3BA6A1344BB6297F82C
:102020002730BA6902FB03F3FA6AD31AFB62FB6A30
:10203000002B19D0FB681B685B69B968BA6A8818FD
:1020400007F1140101229847F861FB69002B02DABD
:102050006FF0910309E07A68BB6A134407F1140139
:10206000FA6A184618F088FF002318463037BD4634
:1020700080BD00BF8C50000080B588B000AFF86014
:10208000B9607A603B60FB681B685B6898470346F1
:102090003B613B7CC3F34103DBB21A460F4B53F861
:1020A0002230FB773A68B968F86800F089FDB861BA
:1020B000FB681B689B69FA7FB96AB1FBF2F2796829
:1020C000B869984778617B69002B02DA6FF0910359
:1020D00000E0002318462037BD4680BD8C5000002C
:1020E00080B582B000AF78607B681B68A3F2F233E2
:1020F000032B1FD801A252F823F000BF0D210000CE
:1021000017210000212100002B210000786802F037
:10211000D5FB034610E0786802F056FC03460BE05E
:10212000786802F0C0FB034606E0786802F0BFFC66
:10213000034601E06FF0850318460837BD4680BDB1
:1021400090B5ADF55D7D02AF07F55A74A4F55774EF
:10215000206007F55A70A0F55870016007F55A71B4
:10216000A1F559710A6007F55A72A2F55A72136007
:1021700007F55773184602F06BFE07F55A73A3F57F
:1021800057731B6803F1240207F55573114618466F
:1021900002F0CAFDD7F8542307F5537340F2031138
:1021A000184600F036FC07F55A73A3F54473184639
:1021B00002F06CFD07F55A73A3F54B731A46002322
:1021C000136053609360D36013615361936107F5AB
:1021D0005A73A3F554731A46002313605360936037
:1021E000D36013615361936107F13C0341F2010134
:1021F000184602F007FE07F55A73A3F55A731B68D9
:10220000DA0007F13C031146184602F009FE07F117
:102210003C030121184602F0CDFD07F118034FF4ED
:102220008041184602F0C6FD07F1180349491846D7
:1022300002F0DBFD07F118034FF49051184602F04D
:10224000E1FD07F55A73A3F55773196807F55A733B
:10225000A3F557731B681A6A07F5537307F1180043
:1022600010F03CFFC7F86403D7F86433002B50D15B
:1022700007F158033749184611F054FFC7F86403B3
:10228000D7F86433002B46D107F1580007F5537394
:102290000CCB40F2011111F0E1FFC7F86403D7F84D
:1022A0006433002B39D107F1080207F158000423E9
:1022B00040F2032111F08AFFC7F86403D7F86433B2
:1022C000002B2CD107F5577207F1580107F13C0399
:1022D000184611F055FEC7F86403D7F86433002B95
:1022E0001FD107F55A73A3F55A7307F55A72A2F571
:1022F0005972D7F8781300911B68126807F5577167
:1023000003C910F045FEC7F86403D7F86433002B07
:1023100008E000BF06E000BF04E000BF02E000BF2D
:1023200000E000BF07F15803184611F0C5FD07F59E
:10233000537393E8030010F0A1FD07F5577393E87A
:10234000030010F09BFDD7F86433184607F55B7760
:10235000BD4690BD0901000890B5A5B004AF6FF06F
:102360009603FB6700233B6607F1600318460FF0F6
:10237000A5FA78670023BB67A5E03A6EBB6F5B01E7
:1023800013441B69564A934240F099803A6EBB6FE2
:102390005B011344D3E90223C7E91A233A6EBB6FEA
:1023A0005B0113441A6807F128030021184600F066
:1023B00030FB07F10C0300221A605A609A60DA6061
:1023C0001A615A619A613A6EBB6F5B0113445C6992
:1023D0003A6EBB6F5B011344986907F13C0207F149
:1023E000400107F13203029307F13403019307F12F
:1023F0003A03009313462022A04778667B6E002B99
:1024000003D06FF09203FB6764E007F10C0007F163
:10241000280393E8060002F066FC7B8F1A4607F15A
:102420000C031146184602F0FBFC7A6B07F10C0313
:102430001146184602F0D9FC7A8E07F10C031146BA
:10244000184602F0DFFC3A6EBB6F5B0113441A6959
:1024500007F10C031146184602F077FCBA6E1346DA
:102460001B0113449B0020331E4A1344043307F11D
:102470000C011C22184618F07FFDBA6E13461B0192
:1024800013449B00174A1344FA6B07F140011846A6
:1024900018F072FDF96B1348BA6E13461B01134412
:1024A0009B000344203319600E49BA6E13461B018A
:1024B00013449B000B44403301221A6000E000BF2C
:1024C000BB6F0133BB67BA6F7B6F9A42FFF455AFA6
:1024D0000023FB67FB6F18468437BD4690BD00BFE5
:1024E0000101008060AE002080B588B000AF07F128
:1024F000080383E803007A607B68002B03D16FF048
:102500008603FB611DE07B6800221A60BB6807F14F
:1025100010021146184602F0A9FCF861FB69002B75
:102520000ED1D7E90423094913461B0113449B002C
:102530000B4420331A687B681A600023FB6100E0BB
:1025400000BFFB6918462037BD4680BD60AE002045
:1025500080B58CB002AFC7E902017A603B60BB680E
:10256000012B03D96FF086037B625FE0BA681346E4
:102570001B0113449B00304A13443B623B6A1B6CB3
:10258000002B03D16FF08B037B624FE07B68002B45
:1025900003D16FF086037B6248E007F1140379688A
:1025A000184602F0C1FBB9697A697B68386A02F0A3
:1025B000A4FC78627B6A002B37D13B6A1B6A3A6BBA
:1025C0009A4203D26FF089037B622FE03B68002BB5
:1025D00002D07B6B002B03D16FF086037B6225E07A
:1025E000BB69FB61786802F0F5FB034603F48043A6
:1025F000002B0ED0FB6940F20312934209D07B6B93
:1026000000933B6B3A68F969386AFFF799FD786285
:102610000CE0396A3B6A1B6A1A46386818F0ACFC51
:102620003B6A1A6A7B6B1A6000E000BF7B6A18463F
:102630002837BD4680BD00BF60AE002080B582B0A7
:1026400000AF78607868FDF74BFE00BF0837BD46E5
:1026500080BD80B582B000AF78607868FDF754FE29
:10266000034618460837BD4680BDB0B588B000AFF8
:10267000F860B9607A603B6000237B610123FB61F5
:102680002EE0FB68FA69043253F8223007F1140295
:1026900011461846FDF74CFEB861BB69002B03D00C
:1026A000FDF782FEBB694DE0FB6858687969FB68FD
:1026B000FA69043253F82250FB69DB00BA68D41877
:1026C0002B460A46F9690FF05FF803466360FB6921
:1026D000DB00BA6813447A691A60FB690133FB6155
:1026E000FA697B689A42CCD30023FB6125E0FB6842
:1026F000FA69083253F8223007F1140211461846DD
:10270000FDF716FEB861BB69002B03D0FDF74CFE48
:10271000BB6917E0FB69DB003A6813447A691A6009
:10272000FB69DB003A681344FA68F969083152F82A
:1027300021205A60FB690133FB61FA693B6B9A42C5
:10274000D5D3002318462037BD46B0BD80B5A8B00C
:1027500002AF78600023C7F888300423C7F89430AC
:102760000423C7F8903007F168032022002118469F
:1027700018F048FC07F1480320220021184618F001
:1027800041FC07F1080340220021184618F03AFCEA
:1027900004E0D7F89430013BC7F89430D7F8943070
:1027A000002B0ED0D7F894305A1E7B68043253F8B1
:1027B0002230002BEDD004E0D7F89030013BC7F871
:1027C0009030D7F89030002B08D0D7F890305A1EB0
:1027D0007B68083253F82230002BEDD0D7F89430C4
:1027E000002B02D16FF0830360E07B68586807F12B
:1027F0000802402300210EF0C7FF0346402B02D001
:102800006FF0830352E007F10803BB664023FB66C9
:1028100007F1480207F16801D7F89030009313469A
:10282000D7F894207868FFF720FFC7F88800D7F81A
:102830008830002B02D0D7F8883037E07B689B685F
:102840001846FFF7FBFE07F1480207F16800D7F8CA
:102850009030D7F89410FDF7C5FDC7F88800002325
:10286000C7F88C3018E07B685868D7F88C30DB00EC
:1028700098333B4453F8502CD7F88C30DB00983316
:102880003B4453F84C3CD7F88C100EF095FFD7F82A
:102890008C300133C7F88C30D7F88C20D7F89030C3
:1028A0009A42E0D3FDF780FDD7F888301846983774
:1028B000BD4680BD80B582B000AF6FF083037B6002
:1028C00000233B60FEF79EFF3860FEF7A9FF7860AB
:1028D0007B68002B01D07B6802E011F0B7FE034655
:1028E00018460837BD4680BD80B500AFFDF75AFEDB
:1028F0000346184680BD80B582B000AFFFF7F4FFF5
:1029000078607B68002B01D07B6808E0FFF7D2FF7E
:1029100078607B68002B01D07B6800E000231846BC
:102920000837BD4680BD80B582B000AF78607B6857
:102930001B68002B04D17868FFF708FF034601E00D
:102940006FF0850318460837BD4680BD80B485B05A
:1029500000AFF860B9607A606FF0850318461437ED
:10296000BD4680BC704780B485B000AFF860B960E8
:102970007A606FF0850318461437BD4680BC7047F7
:1029800080B485B000AFF860B9607A606FF08503FD
:1029900018461437BD4680BC704780B582B000AF82
:1029A00078607B6800220021184600F032F87868D1
:1029B0000837BD4680BD80B584B000AF786039600F
:1029C0003B681B68FB603B685B68BB60B968F86884
:1029D00011F04EFD034618461037BD4680BD80B449
:1029E00087B000AFF860B9607A60FB687A681A60F7
:1029F000FB68BA685A60F8681C37BD4680BC7047EF
:102A00000FB480B400AF00231846BD4680BC04B0AC
:102A1000704780B584B000AFF860B9607A60FB6839
:102A20007A68B9681846FFF7DAFFF8681037BD46CC
:102A300080BD80B483B000AF786039603B687A684D
:102A40009A6100BF0C37BD4680BC704790B589B015
:102A500000AF07F1080484E803007A603B600023BC
:102A60007B6107F1140318460EF028FFB8610023BC
:102A7000FB611CE07A69FB695B0113441A68BB685F
:102A80009A4211D17A69FB695B0113441A697B6828
:102A90001A607A69FB695B011344D3E90223396840
:102AA000C1E90023002308E0FB690133FB61FA69F7
:102AB000BB699A42DED36FF08B0318462437BD46BC
:102AC00090BD80B485B000AFF860B9607A606FF0F7
:102AD000850318461437BD4680BC704780B485B066
:102AE00000AFF860B9607A606FF08503184614375C
:102AF000BD4680BC704780B58CB002AF78607B6803
:102B00001B69082B03D17B681B6A0C2B02D06FF06A
:102B1000800324E07B68586807F11802082300212D
:102B20000EF032FE78627B6A082B02D06FF08003D1
:102B300015E07B689868D7E9062307F10C0100913E
:102B4000FFF79EF938623B6A002B07D17B68586813
:102B500007F10C020C2300210EF02EFE3B6A1846F2
:102B60002837BD4680BD80B586B000AF78607B68F1
:102B70001B69082B02D06FF0800316E07B68586851
:102B800007F10802082300210EF0FEFD78617B6941
:102B9000082B02D06FF0800307E07B689968D7E9C3
:102BA00002230846FFF790F9034618461837BD463A
:102BB00080BD80B500AFFEF7BFFF0346184680BD5D
:102BC00080B485B000AFF860B9607A60FB685A687D
:102BD000FB68DB68B96801FB03F31A447B681344A4
:102BE00018461437BD4680BC704780B584B000AF2E
:102BF00078607B681B689B6800209847F860FB68DA
:102C0000002B02D06FF0910300E00023184610372C
:102C1000BD4680BD80B586B000AFF860B9607A600F
:102C20003B603B6A002B01D100230CE03A68B96895
:102C3000F868FFF7C5FF78613B6A7A687969F868D8
:102C4000FFF76EF9034618461837BD4680BD80B4BD
:102C500083B000AF78603960002318460C37BD465A
:102C600080BC704780B586B000AF786039600023C3
:102C70007B6116E07A6939687868FFF7A1FF3861EF
:102C80007B681B68DB6938699847F860FB68002B34
:102C900002D06FF091030AE07B689B687A69134465
:102CA0007B617B68DB687A699A42E3D3002318462C
:102CB0001837BD4680BD80B586B002AFF860B960F8
:102CC0007A603B60FB681B685B8A013B1A463B6885
:102CD0001340002B02D06FF086032CE0FB681B68CA
:102CE0005B8A1A46BB691344013BFA681268528A30
:102CF00052421340BB617B689B683A689A4202D992
:102D00006FF0860317E07B68DB68BA69396818469C
:102D100001F08BFD0346002B02D06FF086030AE022
:102D2000FB690193BB6900933B687A68B968F868EE
:102D300000F049FC034618461037BD4680BD80B4FC
:102D400083B000AF78607B681B8A022B01D101231E
:102D500002E07B681B8A023B18460C37BD4680BCEC
:102D6000704780B582B000AF78607868FFF7E7FF02
:102D7000024613465B0013449B001A467B68DB8ABD
:102D80005B011344083318460837BD4680BDB0B513
:102D900084B000AF78600023FB607B681B8A012B46
:102DA00003D97B681B8A032B02D16FF08603FB607B
:102DB0007B681B8A022B0ED17B689B8A1D467B6831
:102DC000DC687868FFF7CDFF0346E31A9D4202D91D
:102DD0006FF08603FB607B689B8A1A467B68DB6822
:102DE0009A4202D96FF08603FB607868FFF7B9FF5B
:102DF00002467B68DB689A4202D96FF08603FB606B
:102E0000FB6818461037BD46B0BD80B586B000AF30
:102E1000F860B9607A60FB68002B05D0BB68002BB6
:102E200002D07B68002B02D16FF0860314E0B868F3
:102E3000FFF7ADFF78617B69002B01D07B690BE068
:102E400018220021F86818F0DDF8FB68BA681A60EB
:102E5000FB687A685A60002318461837BD4680BD63
:102E600080B584B000AF7860786801F0CFF9F86081
:102E7000FB68002B01D0FB6819E007F108031A4634
:102E80004FF08071786801F090F9F860FB68002BD2
:102E900006D1BB681946786800F0ADF9034606E034
:102EA000FB6813F18C0F01D0FB6800E0002318468B
:102EB0001037BD4680BD80B582B000AF78607868BD
:102EC00001F0CAFA034618460837BD4680BD80B5F2
:102ED0008EB000AFF860B9607A6007F1100307F1B7
:102EE0003002B968F86801F01BF978637B6B002B3E
:102EF00002D06FF08B030AE0FA697B685A60BA6906
:102F00007B681A603B6A9AB27B689A600023184615
:102F10003837BD4680BD80B59AB004AFF860B9605F
:102F20007A603B6007F11C0320220021184618F04C
:102F300069F84FF6FF73BB614FF6FF737B617B68E7
:102F4000002B02D16FF0860351E17B689B68B3F1DF
:102F5000807F02D36FF0860349E17B685B68FA6883
:102F60001268528A1344013BFA681268528A52422C
:102F70001A407B685A6007F11C0307F11802B96810
:102F8000F86801F0CDF878657B6D002B27D17B6860
:102F90009B6803F40033002B1ED0BA6A7B685B6821
:102FA0009A4207D100237B627B689B68FB62BB6906
:102FB0007B6123E0FB6A43F08073FB62BB6907F12E
:102FC0001C021946F86801F084FB78657B6D002BC4
:102FD00014D06FF083030AE1BB697B610EE07B6D67
:102FE00013F18C0F08D17B689B6803F48033002BAE
:102FF00004D16FF08B03FAE07B6DF8E07B694FF64C
:10300000FF7293422ED17B685B68FA681268928ADD
:10301000934202D96FF08603E9E0BB694FF6FF7275
:10302000934214BF0123002387F84F307B68586810
:103030007B689B6897F84F1007F13C02039207F1F9
:103040001C02029207F114020192009303460A4601
:10305000B968F86801F0D4F978657B6D002B0FD062
:103060007B6DC4E0FB6907F13C021946F86801F08A
:103070007CF978657B6D002B02D06FF08303B6E09E
:103080003B68002B2BD007F11C0207F13C017B6E43
:1030900001933B6800933B6EF868FFF70CFE786580
:1030A0007B6D002B02D06FF08303A0E03A6E3B688B
:1030B0001A447B6A9A4203D93A6E3B6813447B6296
:1030C000FB6BBB64FB691946F86801F017F803460F
:1030D000FB63FB691A46B96CF86801F0C7FAFB6933
:1030E00007F13C021946F86801F0D1FA78657B6D6A
:1030F000002B02D06FF0830379E07B6907F11C029B
:103100001946F86801F0E5FA78657B6D002B02D06E
:103110006FF083036BE0BA697B69934228BF134663
:103120003B653A6D0021F86800F0C4FF78657B6D5F
:10313000002B02D06FF0830359E0BB694FF6FF729A
:1031400093421BD0BA697B699A4217D03B6D591CD8
:10315000BA697B69934238BF13461A46F86800F093
:10316000A9FF78657B6D002B02D06FF083033EE0F2
:10317000BA697B69934238BF13463B653B6D591C66
:10318000FB681B68DB8A1A46F86800F093FF7865D5
:103190007B6D002B02D06FF0830328E0FB69002BCE
:1031A00002D13B68002B09D1F86801F08DF87865F1
:1031B0007B6D002B02D06FF0830318E0F86801F0FC
:1031C0005CF878657B6D002B01D07B6D0FE0BB69EF
:1031D0004FF6FF72934209D0BA697B699A4205D0D3
:1031E000BB691946F86800F006F878657B6D1846EB
:1031F0005837BD4680BD80B59EB002AF786039605B
:103200007B681B68DB68BB6600237B6607F13403C1
:103210001A463968786801F083F8F866FB6E002B6F
:1032200001D0FB6EB0E007F134031433184601F00F
:1032300018FB0346002B02D06FF08B03A4E07B6BDE
:10324000FB65BB6BBB653B6C7B6507F134032022E0
:103250000021184617F0D6FE07F134031A463968E4
:10326000786801F036FAF866FB6E002B01D0FB6E31
:103270008AE000233B6640E03A6E3B689A4238D0D1
:1032800007F134031A46396E786801F049F8F86698
:10329000FB6E002B01D0FB6E76E07B6BFA6D9A42E1
:1032A0001AD107F134031433184601F0DAFA034651
:1032B000002B11D1BB6BBA6D9A420DD2BB6BBA6EAB
:1032C0009A4201D9BB6BBB66BA6B7B6DD31ABB63E9
:1032D0003B6C7A6E13447B6607F134031A46396EF1
:1032E000786801F0F6F9F866FB6E002B02D0FB6EF1
:1032F0004AE000BF3B6E01333B667B681B68DB8A9C
:103300001A463B6E9342B7D37B6D002B15D107F164
:1033100028031A460021786801F027F8F866FB6E4A
:10332000002B01D0FB6E2FE007F128031A46002185
:10333000786801F0ACF9F8660AE07B6E0193BB6D2A
:103340000093BB6E7A6DF96D786800F08DF8F866C1
:10335000FB6E002B01D0FB6E16E07B6D002B02D0C4
:10336000FB6D002B02D17B6D002B09D1786800F03A
:10337000ABFFF866FB6E002B02D06FF0830303E017
:10338000786800F07AFF034618467037BD4680BD66
:1033900080B584B000AF7860396007F1080200237F
:1033A0003968786800F0BCFEF860FB68002B02D03A
:1033B0006FF08B0305E0BB6819467868FFF71BFFC9
:1033C000034618461037BD4680BD80B590B002AFA9
:1033D000F860B9607A603B6007F1100307F13002D2
:1033E000B968F86800F09CFE78637B6B002B02D014
:1033F0006FF08B031CE0BB697A683968184601F0EE
:1034000014FA78637B6B002B01D07B6B10E007F123
:1034100010013B6C00937B683A68F86800F0A9F8EB
:1034200078637B6B002B02D06FF0830300E00023F6
:1034300018463837BD4680BD80B586B000AF78608D
:10344000396007F108031A463968786800F08DFF83
:1034500078617B69002B02D04FF0FF3300E0BB683E
:1034600018461837BD4680BD90B58DB002AFF860E4
:10347000B9607A603B600023FB61002387F823304A
:1034800007F110031A46B968F86800F06EFF786219
:103490007B6A002B01D07B6A67E0BA697B681344C2
:1034A000BB61B968F86800F029FEF861FB6B002B7E
:1034B00014D03A69FB6B01933B6800931346BA6BD7
:1034C000F969F86801F021F978627B6A002B02D073
:1034D0006FF0830349E0012387F823307B69BA6BDF
:1034E0009A4217D978693C697B697A69B96B8A1AFB
:1034F0000192009323460246F969F86801F005F944
:1035000078627B6A002B02D06FF083032DE00123E9
:1035100087F823303B69BA681946F86801F0A6F8C5
:10352000FB693B6107F110031A46B968F86801F0BE
:10353000AEF878627B6A002B06D0BA68F969F86841
:1035400001F094F87B6A10E0BB68002B0CD097F96F
:103550002330002B08D0FB685B68DB68FA681268D0
:10356000F9691046984778627B6A18462C37BD4641
:1035700090BD90B589B002AFF860B9607A603B60E9
:10358000BB681B681946F868FFF756FF78617B69CE
:10359000B3F1FF3F02D16FF0830310E0BB685B68BB
:1035A0007A6813443B61FB685B685C68FB68186879
:1035B0003B6800933B69BA6A7969A047034618469D
:1035C0001C37BD4690BD90B58BB002AFF860B960B6
:1035D0007A603B607B681B681946F86800F08EFDD6
:1035E000B8617B685B683A6813447B61BB68586864
:1035F000BB681C68BB685B68BA68526879698A1ADC
:103600000192009323460246B969F86801F07DF8FB
:10361000F861FB69002B01D0FB693FE0FB685B6848
:103620009C68FB6818683B6B00937B697A6BB9698F
:10363000A047F861FB69002B01D0FB692EE07B6895
:103640005A687B68DB6813447B61FB681B68DA6837
:10365000BB689B68D21A7B69D31A3B61BB681A6846
:103660003B6901937B69009313467A69B969F868ED
:1036700001F04BF8F861FB69002B01D0FB690DE00C
:103680007B681B68002B08D0FB685B68DB68FA6806
:103690001268B96910469847F861FB6918462437E3
:1036A000BD4690BD80B485B000AF78607B681B6874
:1036B0001B8A022B0FD07B681B681B8A1A467B680B
:1036C000FB60FB681B681B8A022B01D1002300E012
:1036D0000323D31A00E0002318461437BD4680BCEC
:1036E000704780B483B000AF78607A6813465B009F
:1036F00013449B00083318460C37BD4680BC704706
:1037000080B584B000AF786039607B68FB60F86892
:10371000FFF7C8FF03465A1C13465B0013449B0087
:103720001A463B685B011344083318461037BD4600
:1037300080BD80B485B000AF78607B685B69FB605A
:103740007B681A697B685A617B68FA681A6100BFF6
:103750001437BD4680BC704780B487B000AFF860B6
:10376000B9607A60BB689B797B757B689B793B7598
:10377000FB681B681B7E002B02D10123FB7501E057
:103780000023FB753A7DFB7D9A4207D17A7DFB7D54
:1037900001339A4202D00123BB7514E07A7DFB7D90
:1037A0009A4207D13A7DFB7D01339A4202D0002331
:1037B000BB7508E03A7D7B7D9A4202D90123BB7537
:1037C00001E00023BB75BB7D18461C37BD4680BC9D
:1037D000704790B585B000AF786039603B681C6871
:1037E0007B68BB60B868FFF75DFF034601339C420E
:1037F00002D36FF097033FE03B681433184601F0A3
:1038000030F80346002B36D13B68DB687A681268D3
:10381000928A934202D96FF097032DE03B689A6831
:103820003B68DB689A4202D96FF0970324E03B685B
:103830001B68002B0ED13B685C687B681B68DB8AC9
:1038400019467868FFF75CFF03469C4202D26FF08E
:10385000970311E07B681B68D8683B6859683B6830
:10386000DB681A4600F0E1FFF860FB68002B02D02D
:103870006FF0970300E0002318461437BD4690BD53
:1038800080B584B000AF786039600023FB603B688E
:103890001B687A681268128A934202D36FF097030A
:1038A00029E07B681B68D8683B6859683B689B685F
:1038B0001A4600F0BAFFB860BB68002B02D06FF068
:1038C000970318E03B681B68002B03D03B681B681C
:1038D000012B07D17B681B68DB8A19467868FFF7E4
:1038E0000FFFF8603B685B68FA689A4202D06FF09D
:1038F000970300E0002318461037BD4680BD80B511
:1039000086B000AF7860396000237B613B681B683C
:103910007A681268128A934202D36FF0970334E0F8
:103920007B681B68D8683B6859683B689B681A4687
:1039300000F07BFF38613B69002B02D06FF09703EA
:1039400023E03B681B68002B03D03B681B68012BFE
:1039500012D17B68FB60F868FFF7A4FE03465A1C8F
:1039600013465B0013449B001A467B681B68DB8A86
:103970005B01134408337B613B685B687A699A4258
:1039800002D06FF0970300E0002318461837BD46B9
:1039900080BDB0B594B002AFF860B9607A60002322
:1039A00087F83F30BB68002B02D0BB68012B02D1E7
:1039B0007B68002B02D16FF0860374E000237B64E8
:1039C0002BE0FB685B685C68FB681D68786CFFF740
:1039D00088FE034607F114020C210091B9682846BD
:1039E000A047B863BB6B002B01D0BB6B5BE000232F
:1039F0003B640CE007F114023B6C13441A7897F80F
:103A00003F30534087F83F303B6C01333B643B6CA5
:103A10000B2BEFD97B6C01337B64FB687B63786B8A
:103A2000FFF740FE034601337A6C9A42C9D3002364
:103A30007B642CE0FB685B685C68FB681D68796CE4
:103A4000F868FFF75DFE034607F11402202100919C
:103A5000B9682846A047B863BB6B002B01D0BB6B8D
:103A600021E000233B640CE007F114023B6C13449B
:103A70001A7897F83F30534087F83F303B6C01335A
:103A80003B643B6C1F2BEFD97B6C01337B64FB6881
:103A90001B68DB8A1A467B6C9342CBD37B6897F812
:103AA0003F201A70002318464837BD46B0BD80B588
:103AB00086B000AFF860B9607A6007F113031A4668
:103AC0007968F868FFF765FF78617B69002B01D0A2
:103AD0007B6908E0BB685A79FB7C9A4202D06FF0A0
:103AE000910300E0002318461837BD4680BD80B51D
:103AF0008CB000AF78600B46FB700023FB6224E0C3
:103B000007F108031A46F96A786800F009FCB86200
:103B1000BB6A002B02D04FF6FF731FE007F10803CA
:103B20001433184600F09DFE0346002B0AD0FB78A4
:103B300083F00103DBB2002B02D00123FB7001E014
:103B4000FB6A0BE0FB6A0133FB627B681B68DB8A64
:103B50001A46FB6A9342D3D34FF6FF7318463037A9
:103B6000BD4680BD80B584B000AF78607B685B687F
:103B70001B697A6810687A68526911469847F8603C
:103B8000FB68002B01D0FB6813E07B681B681B8A75
:103B9000022B0DD90121786800F0B0FAB8607B687B
:103BA0005B681B697A681268B96810469847F860C4
:103BB000FB6818461037BD4680BD90B589B002AF8E
:103BC000F860B9607A60B868FFF78BFD7861FB68D0
:103BD0005B689C68FB681868FB6859690C23009354
:103BE0007B697A68A047034618461C37BD4690BDDE
:103BF00080B58CB002AF786039607B685B697B62AE
:103C00007B681B693B623B68002B3BD007F10803D4
:103C10001A460021786800F0A8FBF861FB69002BC8
:103C200002D06FF0830346E07B6ABB6007F10803B4
:103C30001A4600217868FFF7C0FFF861FB69002B86
:103C400002D06FF0830336E03B68012B1AD90120C4
:103C5000FFF747FDB8613868FFF743FD0246BB69CF
:103C6000D31A7B617B690193BB6900933B6ABA6994
:103C7000796A786800F049FDF861FB69002B01D092
:103C8000FB6918E03B6801331846FFF72AFDB8616D
:103C900000217868FFF734FD0246BB69D31A7B61C7
:103CA0007B690193BB6900933B6ABA69796A78685A
:103CB00000F02BFD034618462837BD4680BD80B571
:103CC0008CB000AFF860B9607A600023BB75BB6848
:103CD0001B7987F82B3007F116037B6297F82B309E
:103CE000012B04D17B6A01221A7000230AE097F8A5
:103CF0002B30022B04D17B6A00221A70002301E0D2
:103D00006FF08303FB62FB6A002B01D0FB6A31E09A
:103D1000BB7D002B11D0BB685A79FB683B62134610
:103D2000FB773B6A1B681B7EFA7F9A4202D16FF0D9
:103D3000830300E00023FB621BE0BB689A79FB6809
:103D4000BB611346FB75BB691B681B7EFA7D9A42FB
:103D500002D16FF0830300E00023FB62FB6A002BBB
:103D600001D0FB6A06E07A68B968F868FFF79FFE41
:103D7000F862FB6A18463037BD4680BD90B589B001
:103D800002AF78607B689B7B0133DAB27B689A7301
:103D90007B689A7B7B683B611346FB733B691B68BE
:103DA0001B7EFA7B9A4202D16FF0830300E000236E
:103DB0007B617B69002B05D07B689B7B0133DAB28A
:103DC0007B689A737B6859697B680D331A467868FB
:103DD000FFF7DFFD78617B69002B01D07B690EE086
:103DE0007B685B689C687B6818687B6859697B683E
:103DF00003F10802082300930023A0470346184656
:103E00001C37BD4690BD90B58FB002AF78600023DF
:103E1000FB767B681B7B87F8233007F11B03FB6174
:103E200097F82330012B04D1FB6901221A7000237B
:103E30000AE097F82330022B04D1FB6900221A70A4
:103E4000002301E06FF08303FB62FB6A002B01D0CB
:103E5000FB6A41E0FB7E83F00103DBB2002B01D063
:103E6000002339E007F10C031A460021786800F0BE
:103E7000A0FAF862FB6A002B01D0FB6A2CE07B6899
:103E80001B68DA687B69D31A083BBB627B685C6994
:103E90000020FFF726FC01467B681A69BB6A019384
:103EA0000823009313460A462146786800F02DFC4B
:103EB000F862FB6A002B01D0FB6A0DE07B680833D7
:103EC0007B627B6A5A797B689A737B6802221A73D9
:103ED000786800F0D2F9034618463437BD4690BDE5
:103EE00090B587B002AF78607B685B685C687B6880
:103EF00018687B6819697B6803F10802082300933E
:103F00000023A047F860FB68002B01D0FB6809E0A4
:103F10007B6803F108017B681B691A467868FFF724
:103F2000CEFE034618461437BD4690BD80B588B016
:103F300000AFF860B9607A603B600023FB6136E057
:103F4000FA6AF969F86800F010FAB861BB69002BE9
:103F500002D06FF0830336E0FB6A9B687A689A426E
:103F600022D8BB6AFA691A60FB681B68DA68FB6AC8
:103F70009B68D21ABB6A5A60BB6A7A68DA60BB6A0D
:103F800014330C22B968184616F0F6FFBB6A0022FB
:103F90009A60BB6A3A681A61FB6A9A687B68D21AAF
:103FA000FB6A9A6000230EE0FB690133FB61FB684A
:103FB0007B617869FFF776FB03460133FA699A4221
:103FC000BED36FF08D0318462037BD4680BD90B537
:103FD0008DB002AF78604FF0FF337B62002387F82B
:103FE00023307B685B685C687B68186807F11402A3
:103FF0000823009300230021A047F861FB69002BF0
:1040000010D107F11403002219467868FFF757FE14
:104010000346002B06D197F82330013387F823306D
:1040200000237B627B685B685C687B68186807F1CB
:104030000C020823009300230121A047F861FB69CB
:10404000002B10D107F10C03012219467868FFF705
:1040500036FE0346002B06D197F82330013387F84C
:10406000233001237B6297F82330012B0AD907F113
:104070000C0207F1140319467868FFF76DFB03463D
:104080007B6206E097F82330002B02D16FF08303A8
:104090000CE07B687A6A1A617B6A002B0CBF0123F3
:1040A0000023DBB21A467B685A61002318462C377E
:1040B000BD4690BD80B588B002AFF860B9607A6047
:1040C000B968F868FFF71CFB78617968F868FFF752
:1040D00017FB3861FB685969FB6818693A697B69A5
:1040E000D31A01937B69009303467A69F86800F05C
:1040F0000CFB034618461837BD4680BD80B483B01C
:1041000000AF786039603B68002B02D17B685B6947
:1041100001E07B689B6818460C37BD4680BC704741
:10412000B0B58EB000AFF860B9607A603B60002334
:104130007B632DE007F110031A46796BF86800F0F5
:10414000EFF838633B6B002B02D06FF0830328E05D
:1041500007F1100314330C22B968184617F035F82C
:104160000346002B11D17B687A6B1A603B68002BE9
:1041700009D03B681D4607F110040FCC0FC594E829
:104180000F0085E80F0000230BE07B6B01337B639E
:10419000FB681B68DB8A1A467B6B9342CAD36FF0BD
:1041A0008B0318463837BD46B0BD80B58EB000AF22
:1041B000F860B9607A6000237B631AE007F11003AE
:1041C0001A46796BF86800F0ABF838633B6B002B4C
:1041D00002D06FF0830315E03A6ABB681340002BEE
:1041E00004D07B687A6B1A6000230BE07B6B013391
:1041F0007B63FB681B68DB8A1A467B6B9342DDD3CB
:104200006FF08B0318463837BD4680BD80B584B04B
:1042100000AF78607B685B681B687A68126810463C
:104220009847F860FB68002B01D0FB6821E07868B4
:10423000FFF7CDFEF860FB68002B02D06FF0830320
:1042400017E07868FFF74CFEF860FB68002B02D09F
:104250006FF083030DE07868FFF784FCF860FB687B
:10426000002B02D06FF0830303E07868FFF7CBFDEB
:10427000034618461037BD4680BD80B584B000AFF8
:1042800078607868FFF77AFDF860FB68002B01D052
:10429000FB6815E07B685B68DB687A6810687A68A1
:1042A000526911469847F860FB68002B01D0FB6803
:1042B00006E07868FFF73DFA7868FFF753FC03469D
:1042C00018461037BD4680BD90B58BB002AF786000
:1042D00007F10C031A460021786800F046F8F861EF
:1042E000FB69002B01D0FB6916E07B681B68DA686C
:1042F0003B69D21A7B69D31ABB617B6859693869FB
:104300007B681C693B69BA690192009323460246A7
:10431000786800F0FAF9034618462437BD4690BD88
:1043200090B589B002AFF860B9607A60B968F86892
:10433000FFF7E6F93861FB685B685C68FB68186842
:10434000FB681969202300933B697A68A04778616C
:104350007B69002B04D17968F868FFF73AFA786135
:104360007B6918461C37BD4690BD90B589B002AF39
:10437000F860B9607A60B868FFF7B3F93861FB6834
:104380005B685C68FB681868FB6819690C2300931C
:104390003B697A68A04778617B69002B04D1796812
:1043A000F868FFF76DFA78617B6918461C37BD46DF
:1043B00090BD90B589B002AFF860B9607A60BA6814
:1043C00013465B0013449B0008333B61FB685B684A
:1043D0005C68FB681868FB6819690C2300933B69EB
:1043E0007A68A04778617B69002B04D17968F86806
:1043F000FFF785FA78617B6918461C37BD4690BD8A
:1044000080B588B002AFF860B9603B601346FB71BD
:10441000FB6A0193BB6A00933B6A3A68B968F86823
:10442000FFF784FD7861FB791946F868FFF75FFBB9
:1044300002467B6A1A607B69002B05D17B6A1B6888
:104440004FF6FF72934202D16FF08D0300E000231C
:1044500018461837BD4680BD80B594B000AF78606F
:1044600000237B647868FFF7B2FD0346002B02D17E
:104470007B685B697B647B685B681B697A68126830
:10448000796C10469847F864FB6C002B01D0FB6CEC
:10449000E8E07B685B681B697A6810687A6C002AC0
:1044A0000CBF01220022D2B211469847F864FB6C7F
:1044B000002B01D0FB6CD5E07B681B681B7E002BBA
:1044C00001D1012200E000227B689A737B683B6483
:1044D0003B6C1B681B8A022B01D1012200E00222E7
:1044E0007B689A607B6802221A737B6801225A619A
:1044F0007B6800221A617B681B68DB8A1946786832
:10450000FFF7FEF803463B637B681B68DA683B6B8A
:10451000D31A7B637B685B69FB6207F12C031A4645
:1045200000217868FFF749FBF864FB6C002B01D091
:10453000FB6C97E000233B637B681B68DB687B6355
:104540000023BB6419E07B685B681B697A681068AC
:104550007A68FA63FA6B1268128A022A01D1002182
:1045600000E00321BA6C0A44114698470246FB6CEE
:104570001343FB64BB6C0133BB647868FFF792F8AC
:104580000246BB6C9342DED3FB6C002B02D06FF073
:10459000910367E00023BB641EE07B68BB63BB6BD9
:1045A0001B681B8A022B01D1002200E00322BB6C96
:1045B0001344FB62BB6C013307F12C021946786887
:1045C000FFF7FBFAF864FB6C002B02D06FF083035B
:1045D00048E0BB6C0133BB647868FFF763F80246C0
:1045E000BB6C9342D9D307F10C032022002118465B
:1045F00016F008FD0023BB6410E007F10C031A4617
:10460000B96C786800F065F8F864FB6C002B02D098
:104610006FF0830326E0BB6C0133BB647B681B68CF
:10462000DB8A1A46BB6C9342E7D37868FFF7A6FB98
:10463000F864FB6C002B02D06FF0830312E07B6800
:104640005B68DB687A6810687A6852691146984737
:10465000F864FB6C002B01D0FB6C03E07868FFF77B
:1046600068F8002318465037BD4680BD80B485B039
:1046700000AFF860B9607A607B68002B02D0FB68FD
:10468000BA689A6000BF1437BD4680BC704780B5D9
:1046900086B000AFF860B9607A60BB68002B03D1C8
:1046A000FB685A697B681A607A68B968F868FFF72E
:1046B00084FA78617B69002B02D06FF0830304E0F9
:1046C000B968F868FFF794FA034618461837BD46EC
:1046D00080BD90B589B002AFF860B9607A60B96802
:1046E000F868FFF70DF87861FB685B689C68FB6809
:1046F0001868FB685969202300937B697A68A04792
:10470000034618461C37BD4690BDB0B5C8B002AFD1
:1047100007F58C74A4F58674206007F58C70A0F5FD
:104720008870016007F58C71A1F58A710A6007F540
:104730008C72A2F58C7213606DE0D7F82C31B3F552
:10474000807F28BF4FF48073C7F8143107F58C734E
:10475000A3F586731B685B685C6807F58C73A3F52B
:1047600086731B68186807F1100207F58C73A3F5B0
:104770008C71D7F814310093D7F828310968A04715
:10478000C7F81001D7F81031002B02D0D7F810313C
:1047900046E007F58C73A3F586731B685B689C681D
:1047A00007F58C73A3F586731B68186807F58C737F
:1047B000A3F58A7307F1100507F58C72A2F58871CD
:1047C000D7F8142100921B682A460968A047C7F849
:1047D0001001D7F81031002B02D0D7F810311FE0AC
:1047E00007F58C73A3F58A7307F58C72A2F58A72AC
:1047F0001168D7F814210A441A60D7F82821D7F88D
:1048000014311344C7F82831D7F82C21D7F81431C4
:10481000D31AC7F82C31D7F82C31002B8DD10023B7
:10482000184607F58C77BD46B0BD80B485B000AFA3
:10483000F860B9607A60BA68FB689A4202D96FF092
:10484000860309E0FA68BB68D31A7A689A4202D9EB
:104850006FF0860300E0002318461437BD4680BC85
:10486000704780B485B000AF78600C23FB6007E030
:104870007B685A1C7A601B78002B01D0002306E06D
:10488000FB685A1EFA60002BF2D16FF08B031846BA
:104890001437BD4680BC704780B500AF08F036FACB
:1048A0000023184680BD80B582B000AF7860FFF766
:1048B000F3FF034618460837BD4680BD80B588B073
:1048C00000AF786043F65C237B610423FB61042323
:1048D000BB6100233B610023BB6002E0FB69013B3D
:1048E000FB61FB69002B0BD0FB695A1E7B6804320D
:1048F00053F82230002BF1D002E0BB69013BBB61D1
:10490000BB69002B07D0BB695A1E7B68083253F87D
:104910002230002BF1D07B681B69042B09D17B6806
:104920001B6A042B05D8FB69012B02D1BB69012B43
:1049300001D0012344E07B6858687B681B6907F15C
:104940000C0200210CF020FF38613B69042B01D0E0
:10495000012335E07B689B68002B0CDAFB6807F1CC
:104960000C021146184608F0B2FB78617B69002BF7
:1049700001D0022324E07B689B68F9680022184676
:1049800008F07EFB78617B69002B01D0012317E0E2
:10499000F8687B681B6A07F10802194608F099FA63
:1049A00078617B69002B01D0012309E07B6858689E
:1049B0007B681B6A07F1080200210CF0FDFE002352
:1049C00018462037BD4680BD80B588B000AF7860FE
:1049D00043F65C237B610423FB610423BB6100235A
:1049E0003B6102E0FB69013BFB61FB69002B0BD0E3
:1049F000FB695A1E7B68043253F82230002BF1D039
:104A000002E0BB69013BBB61BB69002B07D0BB69FE
:104A10005A1E7B68083253F82230002BF1D07B6895
:104A20001B69042B05D1FB69012B02D1BB69002B4B
:104A300001D0012337E07B6858687B681B6907F168
:104A40000C0200210CF0A0FE38613B69042B01D060
:104A5000012328E07B689B68002B0CDAFB6807F1D8
:104A60000C021146184608F032FB78617B69002B76
:104A700001D0022317E07B689B68F9680022184682
:104A800008F0FEFA78617B69002B01D001230AE06F
:104A9000FB68184608F0D1FA78617B69002B01D0D9
:104AA000012300E0002318462037BD4680BD80B5B5
:104AB000AEB000AF78600023C7F8B4300023C7F869
:104AC000B03007F1940300221A605A6007F18C039A
:104AD00000221A605A600023FB6407F150033C2255
:104AE0000021184616F08EFA0023FB6007F1100330
:104AF0003C220021184616F085FA0023BB600123F2
:104B0000C7F8A4300023C7F8A0300423C7F8AC309E
:104B10000423C7F8A83004E0D7F8AC30013BC7F84D
:104B2000AC30D7F8AC30002B0ED0D7F8AC305A1ED2
:104B30007B68043253F82230002BEDD004E0D7F824
:104B4000A830013BC7F8A830D7F8A830002B08D010
:104B5000D7F8A8305A1E7B68083253F82230002B51
:104B6000EDD0D7F8AC30002B07D0D7F8AC30022B03
:104B700003D8D7F8A830012B01D9012371E07B6855
:104B8000586807F10802042300210CF0FDFD0346DC
:104B9000C7F8A030D7F8A030042B02D06FF0800304
:104BA0005FE0D7F8AC30012B2BD97B685B69C7F885
:104BB0009C30D7F89C30402B02D96FF0890350E02D
:104BC0007B6858687B685B6907F14C0201210CF037
:104BD000DBFD0346C7F8A030D7F8A030D7F89C20FB
:104BE0009A4202D06FF080033BE007F14C03C7F814
:104BF0009430D7F89C30C7F8983007F19403C7F881
:104C0000B430D7F8A830002B12D07B681B6A402B39
:104C100002D96FF0800324E007F10C03C7F88C3051
:104C20007B681B6AC7F8903007F18C03C7F8B03077
:104C3000BB68D7F8B020D7F8B410184608F0C0F811
:104C4000C7F8A400D7F8B030002B08D07B685868AC
:104C5000D7F88C20D7F8903000210CF0ADFDD7F8B4
:104C6000A4301846B837BD4680BD80B582B000AFCD
:104C700008F006F978607B68002B02D06FF0920391
:104C800000E0002318460837BD4680BD80B5ADF56D
:104C90003E7D00AF07F53E73A3F53D73186007F541
:104CA0003E73A3F53C7318464FF43C731A4600213B
:104CB00016F0A8F907F53E73A3F53D731A6807F5DA
:104CC0003E73A3F53C73104619464FF43C731A46E5
:104CD00016F052F907F53E73A3F53D73186807F512
:104CE0003E77BD4680BD80B487B000AFF8603B1D05
:104CF00083E80600FB685B687B61FB6814333A1D40
:104D000092E8030083E803007B69DBB2002B06D145
:104D10007B6923F0FF0343F00102FB685A6000BF88
:104D20001C37BD4680BC704780B483B000AF78604C
:104D300039607A683B68143393E8030082E8030023
:104D400078680C37BD4680BC704780B483B000AF34
:104D5000786039607B683A685A603B68DBB2002B48
:104D600002D17B6800225A6100BF0C37BD4680BC6F
:104D7000704780B483B000AF78607B681B6803F431
:104D80008053002B05D07B681B6843F480627B68EE
:104D90001A607B681B6803F40053002B05D07B6806
:104DA0001B6843F400627B681A6000BF0C37BD4685
:104DB00080BC704780B582B000AF786039603B46F8
:104DC0001846FFF7D6FF3A687B689A6000BF08373D
:104DD000BD4680BD80B483B000AF78607B689B68BF
:104DE00018460C37BD4680BC704780B483B000AF16
:104DF000786039607B683A68DA6000BF0C37BD467E
:104E000080BC704780B483B000AF78600B467B8075
:104E10007B687A881A8000BF0C37BD4680BC70471B
:104E200080B483B000AF786039603B684FF6F872A9
:104E3000934204D97B684FF6FF725A8003E03B68C7
:104E40009AB27B685A8000BF0C37BD4680BC704761
:104E500080B582B000AF78607B68002200211846E0
:104E6000FDF7D7FD78680837BD4680BD80B588B0AE
:104E700000AF786039600023FB6007F10C0318462F
:104E80000CF01CFD38614FF002024FF00003C7E93F
:104E9000062300237B6113E0FA687B695B011344FE
:104EA0001B687A689A4208D1FA687B695B011344EF
:104EB000D3E90223C7E9062306E07B6901337B615E
:104EC0007A693B699A42E7D3D7E90623911E0B43DF
:104ED00009D139684FF002024FF00003C1E9002305
:104EE0006FF08B0305E03968D7E90623C1E9002399
:104EF000002318462037BD4680BD80B58EB000AF78
:104F0000F860B9607A603B6000237B6300237B61BB
:104F100007F1140318460CF0C1FCB86200233B6390
:104F20004EE079693A6B13465B0013449B000B44D7
:104F30001B687A689A4240D179693A6B13465B00E4
:104F400013449B000B445B68002B09D179693A6BD1
:104F500013465B0013449B000B449B687B6333E068
:104F600079693A6B13465B0013449B000B445B6802
:104F70007B6279693A6B13465B0013449B000B44D8
:104F80009B683B620023FB6212E0FB6ADB003A6A2B
:104F900013441B68BA689A4207D1FB6ADB003A6A7D
:104FA00013445B687B6300BF0EE0FB6A0133FB6266
:104FB000FA6A7B6A9A42E8D306E03B6B01333B63B3
:104FC0003A6BBB6A9A42ACD3FB6824331C22194665
:104FD000386815F0D1FF07F118037A68B9681846E8
:104FE000FDF717FD07F1180393E806003868FFF78F
:104FF0007AFE796B3868FFF7DDFE002318463837F4
:10500000BD4680BD5B4552525D5B43727970746FE3
:105010005D20556E737570706F7274656420726573
:105020007175657374210D0A000000004D6265649E
:1050300020544C5320332E362E35000043726561C8
:1050400074696E6720616E20656D707479204954B3
:105050005320666C617368206C61796F75742E0DD6
:105060000A0000004372656174696E6720616E20FA
:10507000656D70747920505320666C617368206C84
:1050800061796F75742E0D0A0000000001000000A8
:105090000200000004000000EB2B0000152C0000B3
:1050A000792000004F2C0000652C00000F4B026897
:1050B0009A4206D1C269A3F11023A3F1EF139A42D9
:1050C00001D0012070478368012BFAD8C36813B15F
:1050D00002699342F5D043692BB18069C01AB0FAD6
:1050E00080F0400970471846704700BF55AA00FF7E
:1050F000F8B5164B996829B10846FFF7D7FF08B9EC
:10510000CB680BB10120F8BD0B69002BFBD0104D13
:10511000104E1A68AA42F5D1DA69B242F2D19A6801
:10512000012AEFD8DC68002CECD01A699442E9D04F
:105130005F691FB1D3F818C06745E3D08C42E1D155
:105140001946002ADFD01346E3E700BFE8AE00208F
:1051500055AA00FF669911EE002865D070B5374D4D
:105160002B68002B54D0AA68002A51D083420146F4
:1051700061D86A68134498425DD2A0F12006304697
:10518000FFF794FF002856D151F8183C012B52D15B
:1051900051F8144C41F8180C51F8100C002C38D070
:1051A000A368002B35D151F81C2C636820321344BE
:1051B0002061636000B1C46020220021304615F0F8
:1051C00021FF2069F0B18368E3B92646426873681D
:1051D00013440269203373603261D6E9051331B399
:1051E0008B6103B15961416983697161B361E1B157
:1051F0008E61B36903B15E6102B1D66020220021E5
:1052000015F000FF2B699B0702D5FFF771FF90B9DE
:1052100070BD10B18368002BD8D0EB6841F8083C12
:1052200003B15E61EE60EDE77047EE60E2E7002BF0
:10523000D9D0EB60D6E7012015F09CFDE8AE002048
:105240002DE9F84F3E4D2B68EC68002B40D0AB6841
:10525000002B3DD000283BD0002939D001FB00F6BF
:10526000B6FBF0F0884233D1301D31D8B10733D0CE
:1052700026F00301043114B92BE0A4694CB3636830
:105280008B42FAD3D4F808C0BCF1000F55D1A06905
:105290005B1A232B8146676920D80123A360002F66
:1052A00047D0B861A06900B1476100232A696361F2
:1052B000D207A36103D5FFF71BFF00283DD120349F
:1052C00032460021204615F09DFE2046BDE8F88FAD
:1052D00000242046BDE8F88F3146CCE7D4F8108092
:1052E00001F1200EDFF85CB0DFF85CA004EB0E02E9
:1052F000203BC2E9013CC2E9034844F80EB0C2F8C1
:105300001CA0B8F1000F01D0C8F80C20C2F818900A
:10531000576187B1BA61906900B142610023616051
:10532000296922610122C4E90533CB07A260C6D5F1
:10533000C1E7E860B7E7EA60EEE7012015F01AFD83
:10534000E8AE002055AA00FF669911EE38B50D466B
:10535000142200210446114815F054FE104911484A
:105360000CF096FC232D18D914F0030304D0043D4F
:10537000C3F104021D4414442A460021204615F0BE
:1053800041FE064B084A0948A5F12001C3E9015432
:105390001C60E061C4E90021DC6038BDE8AE00209B
:1053A000595100004152000055AA00FF669911EEC4
:1053B00000000000000000000000000000000000ED
:1053C00080B582B000AF164B7B604FF4CC720021E9
:1053D000134815F017FE7B684FF480729A61796864
:1053E0000DA3D3E90023C1E904230D4B012283F867
:1053F00090210B4B002283F891217B68012283F8D6
:105400002820786800F0D2FB034618460837BD46CE
:1054100080BD00BFAFF3008000BD40DFE143E14E3F
:105420006824002000000000B0B592B002AF7860A0
:10543000714B3B6100237B6100233B7600237B762D
:105440000023FB6100233B627B687B6107F1100353
:105450007B637B6B1B6807F10802019200934FF49A
:10546000C87300224FF001004FF0000111F0D4F892
:1054700038633B6B002B02D07B6B01221A727B6B73
:105480005B6807F10802019200934FF4C873002291
:105490004FF002004FF0000111F0BEF838633B6B93
:1054A000002B02D07B6B01225A7200BF0023FB63EA
:1054B00016E0FB6B9B0040333B4453F8303C4FF409
:1054C00080729A61FB6B9B0040333B4453F8301C65
:1054D00047A3D3E90023C1E90423FB6B0133FB633A
:1054E000FB6B012BE5D907F11003FB62FB6A0C3360
:1054F0001946002001F02CFCB862BB6A002B01D0D9
:10550000BB6A30E007F10C031946012001F020FCD2
:10551000B862BB6A002B01D0BB6A24E0FB6A10337F
:105520001946022001F014FCB862BB6A002B01D0BE
:10553000BB6A18E0FB6A1A69FB689A4202D0FB6AF0
:1055400000221A61FB6A1B7A012B03D0F96A002042
:1055500001F009FAFB6A5B7A012B03D0F96A01209A
:1055600001F001FA0023BB63BB6B002B01D0BB6BC6
:1055700039E007F110037B627B6A1B6893F82830DF
:10558000012B02D07B6A01221A727B6A5B6893F856
:105590002830012B02D07B6A01225A7200BF07F12A
:1055A0001003184600F0BAFBB863BB6B002B01D0A8
:1055B000BB6B18E0104B93F891310133DA171C469E
:1055C00015462046294611F097F8B863BB6B002BAF
:1055D00005D0BB6B13F18C0F01D0BB6B03E0064809
:1055E00000F024FE002318464037BD46B0BD00BF82
:1055F00000BD40DFE143E14E6824002080B582B069
:1056000000AF78601A4A7B6813607B681B68A3F25E
:10561000E933042B25D801A252F823F031560000BB
:105620003B560000455600004F56000059560000FA
:10563000786800F0BBFF034615E0786800F0F7FFDC
:10564000034610E0786801F035F803460BE078680F
:1056500001F06AF8034606E0786801F08DF8034629
:1056600001E06FF0800318460837BD4680BD00BFDB
:10567000002D002080B584B000AF78603960002331
:10568000FB600A4B1B6858683B687A6801210CF084
:105690007BF8F860FA683B689A4202D06FF08003AA
:1056A00000E0002318461037BD4680BD002D0020C5
:1056B00080B582B000AF78603960064B1B685868CF
:1056C0003B687A6800210CF077F800BF0837BD46C8
:1056D00080BD00BF002D002080B582B000AF0D4B13
:1056E00019460D4815F049FD00F054F878607B68C4
:1056F000002B0AD001F0EBF878607B68002B01D01A
:105700007B6803E000F046F878607B68184608374D
:10571000BD4680BD00015005C86D0000B0B586B023
:1057200000AFC7E902017A600D4B7A68D7E9020140
:1057300000F0F8FB78617B69002B03D100F0D0FC0E
:10574000786108E0064B1B6800221C46154620467F
:10575000294610F0D1FF7B6918461837BD46B0BD09
:10576000042D002080B586B000AFC7E902017A6041
:105770003B60064B1B680649184601F0C0FA786189
:105780007B6918461837BD4680BD00BF042D002038
:10579000201C002080B582B000AF0648FFF744FE11
:1057A0007860054B054A5A607B6818460837BD4645
:1057B00080BD00BF581C0020042D0020201C0020AC
:1057C00080B586B000AFC7E902017A603B602B4B21
:1057D0007A68D7E9020100F017FC78617B69002B39
:1057E00001D07B6945E02649D7E90223C1E90423BA
:1057F000234A7B689361214B1B6807F11002204903
:10580000184601F04BFA78617B69002B29D11C4BBB
:105810009B6A3A689A4203D96FF086037B6112E073
:10582000174B9A6A3B68D31A3A6A934228BF1346C9
:105830003B623B68134A1344396A1846FFF738FF46
:105840007B6A3A6A1A607B69002B05D13B6918466E
:1058500001F031F8786105E03B69184601F02BF85A
:1058600000E000BF40F648020021054815F0CAFBE1
:105870007B6918461837BD4680BD00BF042D002047
:10588000201C0020581C0020B0B590B000AFC7E924
:1058900002017A603B600023BB6301237B6300232A
:1058A00087F833303B6DB3F5006F02D96FF0860394
:1058B000C0E0624B7A68D7E9020100F0A5FBF8630B
:1058C000FB6B002B2AD1012387F833305C49D7E9E1
:1058D0000223C1E904235A4A7B689361574B1B6832
:1058E00007F114025649184601F0D8F9F863FB6B2A
:1058F000002B73D1524B1B6B03F00103002B03D021
:105900006FF08403FB635EE04D4A3B6813634C4ACF
:105910003B6DD362494B1B68BB6328E0FB6B13F103
:105920008C0F22D102237B63D7E90223C7E90A2324
:105930007B687B623B683B623B6DFB61404BBB61BC
:1059400040F648020021B86915F05CFBB969D7E957
:105950000A23C1E90423BB697A6A9A61BB69FA69BF
:10596000DA62BB693A6A1A6301E0FB6B62E0396D87
:105970003448FFF77FFEF863FB6B002B1CD12F49E7
:10598000786B00F071FAF863FB6B002B16D12C4A90
:105990003B6D936207F114037A68D7E90201FFF7C0
:1059A000E1FEF863FB6B002B0AD0BB6B002B09D028
:1059B000224ABB6B136005E000BF04E000BF02E0B9
:1059C00000BF00E000BFBB6B002B09D0FB6B002BBE
:1059D00006D07B69184600F06EFF02E000BF00E0D1
:1059E00000BFFB6B002B06D17A68D7E90201FFF7F5
:1059F00095FEF86308E097F83330002B04D07A68FE
:105A0000D7E90201FFF78AFEFB6B002B0BD1BB6BC2
:105A1000002B08D0BB6B00221C46154620462946A9
:105A200010F06AFEF86340F648020021044815F0C1
:105A3000E9FAFB6B18464037BD46B0BD042D002087
:105A4000201C0020581C002080B586B000AFC7E99C
:105A500002017A603B601F4B7A68D7E9020100F0CF
:105A6000D3FA78617B69002B01D07B692DE01A495C
:105A7000D7E90223C1E90423174A7B689361154BD8
:105A80001B6807F110021449184601F007F9786104
:105A90007B69002B11D1104B9A6A3B685A600E4B00
:105AA000DA6A3B681A600C4B1A6B3B689A603B6978
:105AB000184600F000FF786100E000BF40F64802A1
:105AC0000021054815F09EFA7B6918461837BD4637
:105AD00080BD00BF042D0020201C0020B0B586B082
:105AE00000AFC7E902017A602E4B7A68D7E902015C
