:020000025000AC
:1000000098F70120D92B0500C7100600C52B050065
:10001000C52B0500C52B0500C52B0500C52B05000C
:10002000000000000000000000000000592D050045
:10003000C52B050000000000E92C0500C52B0500BC
:100040005D2F05005D2F05005D2F05005D2F05006C
:100050005D2F05005D2F05005D2F05005D2F05005C
:100060005D2F05005D2F05005D2F05005D2F05004C
:100070005D2F05005D2F05005D2F05005D2F05003C
:100080005D2F05005D2F05005D2F05005D2F05002C
:100090005D2F05005D2F05005D2F05005D2F05001C
:1000A0005D2F05005D2F05005D2F05005D2F05000C
:1000B0005D2F05005D2F05005D2F05005D2F0500FC
:1000C0005D2F05005D2F05005D2F05005D2F0500EC
:1000D0005D2F05005D2F05005D2F05005D2F0500DC
:1000E0005D2F05005D2F05005D2F05005D2F0500CC
:1000F0005D2F05005D2F05005D2F05005D2F0500BC
:100100005D2F05005D2F05005D2F05005D2F0500AB
:100110005D2F05005D2F05005D2F05005D2F05009B
:100120005D2F05005D2F05005D2F05005D2F05008B
:100130005D2F05005D2F05005D2F05005D2F05007B
:040140005D2F05002A
:1001440053B94AB9002908BF00281CBF4FF0FF313A
:100154004FF0FF3000F00CB8ADF1080C6DE904CE9F
:1001640000F018F8DDF804E0DDE9022304B070477C
:10017400704700BF034611F8012B03F8012B002A36
:10018400F9D17047034613F8012B002AFBD1181A42
:10019400013870472DE9F04786468C460846089E8C
:1001A400154674461946002B40F0C1808542B2FAC8
:1001B40082F245D94AB1C2F1200300FA02FC95400B
:1001C40094402EFA03F343EA0C0C4FEA154EA8B2FE
:1001D400230CBCFBFEF80EFB18CC08FB00F943EA29
:1001E4000C43994528D9EB1808F1FF3704D29945F7
:1001F40002D9A8F102072B44A3EB0903A4B2B3FB71
:10020400FEFC0EFB1C330CFB00F044EA0344A0424A
:1002140014D92C190CF1FF3304D2A04202D9ACF149
:1002240002032C44241A43EA07401EB1D44000239D
:1002340034607360BDE8F0874746DDE76346F1E765
:1002440092BB431B01214FEA154EAFB2200CB3FB06
:10025400FEFC0EFB1C330CFB07F840EA03439845F5
:1002640061D9EB180CF1FF3004D2984502D9ACF1F6
:1002740002002B44A3EB0803A4B2B3FBFEFC0EFB69
:100284001C330CFB07F744EA0344A7424DD92C194D
:100294000CF1FF3304D2A74202D9ACF102032C447F
:1002A400E41B43EA0040C0E7C2F1200395409440B8
:1002B40020FA03F12EFA03F34FEA154E9040AFB241
:1002C4000343B1FBFEFC0EFB1C10190C0CFB07F8DE
:1002D40041EA0041884522D969180CF1FF3004D263
:1002E400884502D9ACF102002944A1EB08019BB274
:1002F400B1FBFEFC0EFB1C110CFB07F743EA0143A8
:100304009F420ED9EB180CF1FF3104D29F4202D95F
:10031400ACF102012B44DB1B41EA004193E7604648
:10032400E3E76146F7E76046A4E76346B8E783423C
:1003340006D916B9002108467CE7C6E900E0F9E7CA
:10034400B3FA83F78FB9834201D3724508D8BEEB61
:10035400020460EB030301209C461EB9002169E7F7
:100364003846FAE7C6E9004CF8E7C7F1200CBB4071
:100374000EFA07F522FA0CF42EFA0CF1BA401C43DB
:1003840020FA0CF3B8404FEA144901431FFA84FEE3
:10039400B3FBF9F809FB18300B0C08FB0EFA43EA1F
:1003A40000439A4540D9E31808F1FF3004D29A4536
:1003B40002D9A8F102002344A3EB0A0389B2B3FBD8
:1003C400F9F809FB183308FB0EFE41EA03418E4598
:1003D4002CD9611808F1FF3304D28E4502D9A8F153
:1003E4000203214443EA0040A1EB0E01A0FB029862
:1003F4004145CE46434602D306D14D4504D2013889
:10040400B9EB020E68EB0403002EA7D0B5EB0E0285
:1004140061EB030101FA0CFC22FA07F3F9404CEA00
:100424000303C6E9003199E74046C5E74346D9E7E7
:1004340010B584B0174810F00BFC174810F008FCF6
:10044400164B0293002001900090034603221449A6
:1004540010F059F806F08EFD68B9124B0293002093
:1004640001900090034603220D4910F04CF800F06F
:100474002FF904B010BD03900B4B02930024019498
:100484000094234601220649204610F03CF82046F9
:10049400EFE700BF785E06007C5E06008C5E060017
:1004A400EC5D0600C05E0600A85E060070B582B072
:1004B40006460D46144601E00544241A7CB1002387
:1004C4000193009322462946304603F071FD00282B
:1004D400F2DA15F087FA034B1858404200E0002086
:1004E40002B070BD0C0000002DE9F041FAB00746DF
:1004F4008846164603AD1849284610F02CF8431CCC
:1005040004222A54821C0221E954C31C310AA9542E
:10051400041DEE544146281910F01DF8044410231C
:100524008DF8043021460DF105000FF0FBFF461C49
:10053400324601A93AA815F0F4F9224629463AAB05
:10054400981915F0EEF9A2193AA93846FFF7AEFF4B
:100554007AB0BDE8F08100BFD45E06002DE9F04713
:1005640086B00746894690469A460023049305932D
:1005740004900121ADF81410109A04A810F083FE21
:1005840000284FD0002836DB0023019300934FF45A
:10059400807301220DF10F01384603F043FD012859
:1005A40043D1002601250024019400944FF4807364
:1005B40001220DF10E01384603F034FD012837D134
:1005C4009DF80E4004F07F0305FB0366ED0114F073
:1005D400800FE8D10E9B9E422DD8A6B99DF80F300E
:1005E4001A0989F8002003F00F0388F800300F9BE4
:1005F4001E60002004E015F0F5F9104B1858404235
:1006040006B0BDE8F0870023019300934FF4807394
:1006140032465146384603F005FD8642DED06FF07F
:100624006700EDE76FF07300EAE76FF06700E7E754
:100634006FF06700E4E76FF07900E1E70C00000079
:1006440030B597B05422002101A815F077F90123A1
:1006540003930493002300936B4601AA19491A4893
:1006640010F0B3FE50BBFD2201212D2003F04EFB00
:10067400041E0DDB009BD9699A69204603F004FC33
:1006840000280EDB009810F0C9FE204617B030BDDC
:10069400009810F0C3FE15F0A5F90C4B1C586442E9
:1006A400F3E715F09FF9094B1D586D42204610F0F1
:1006B400C2FE009810F0B2FE2C46E6E76FF0750417
:1006C400E3E700BFDC5E0600E45E06000C00000009
:1006D4002DE9F047ADF5127D4FF47A741FE00395D0
:1006E400A24B029300200190009003460222A049ED
:1006F4000FF0EFFF610CE00340F2E733C0184FF452
:100704007A724FF0000341F10001FFF719FD0DF07B
:100714000DFC64004EF660239C4228BF1C46FFF784
:100724008FFF051EDBDB042112A810F0D2FD129B03
:10073400904A282108A80FF04FF83C2208A928461F
:10074400FFF7D2FE034688B1FBB103938A4B0293B1
:100754000020019000900346012285490FF0B9FF63
:10076400284610F068FE4FF47A74D8E743F69821CF
:1007740028460FF087FF03460028E6D101227F496F
:1007840028460FF0F9FE0346DEE77D4B04937D4BCC
:1007940003937D4B029300200190009003460322B3
:1007A40073490FF096FF14F06FFE4E0146EAD066CF
:1007B4004401241A66EB0106B60046EA9476A400C6
:1007C400241846EB0106F60046EA5476C4F31034C6
:1007D40044EA4644F60B4FF0020889E014F054FE54
:1007E4004A0142EAD06243011B1A62EB0102920001
:1007F40042EA93729B001B1842EB0101C90041EAD3
:100804005371C3F3103343EA4143C90B1B1B61EB20
:10081400060147F23152934271F1000168DB284628
:100824000FF024FF074614F02FFE4E0146EAD0666F
:100834004401241A66EB0106B60046EA9476A40045
:10084400241846EB0106F60046EA5476C4F3103445
:1008540044EA4644F60B002F4AD003974B4B0293CD
:100864000020019000900346022241490FF031FF1D
:10087400284610F0E0FD4FF47A7450E74FF0000A78
:100884001E1B0396424B02930020019000900346E6
:10089400032237490FF01DFF08F101091FFA89F9F6
:1008A400CDF80080334612AA22443A4928460FF074
:1008B4008FFE074614F0E8FD4E0146EAD066440177
:1008C400241A66EB0106B60046EA9476A4002418BE
:1008D40046EB0106F60046EA5476C4F3103444EAC3
:1008E4004644F60BBAF1000F3AD1002FB5D1C846F1
:1008F4004FF47A73029307AB01934FF400730093A0
:1009040012AB0DF11B020DF11A012846FFF726FE6A
:10091400074610F1740F3FF461AF00289DDB9DF88A
:100924001A30032BE4D1079B012BE1D99DF8481021
:100934009DF8492042EA0122941CA3428DD39DF8DC
:100944001B1011F0060F99D0111D8B4285D312A8EC
:10095400045D033210F802A04AEA042A0C468FE729
:10096400514628460FF06DFEBFE700BFEC5E06005F
:10097400045E0600045F0600285F0600145F06009C
:10098400DC5E0600E45E0600405F0600905F060041
:10099400645F06007C5F0600002947D070B50D46F1
:1009A400066830460FF0CAFF044606EBC003B2687F
:1009B400B2F5004F17D35B6813F0010F15D004EBA9
:1009C4005303B2F5004F1FD356F833209B1A9C42B1
:1009D4001DD10022214630460FF08AFE21463046C2
:1009E40010F009F870BD5B88E6E7114CAF2322468E
:1009F4001049114810F043F92946104810F03FF906
:100A0400AF21204610F032F936F83320DEE7084CE7
:100A1400B72322460A49084810F031F92946094803
:100A240010F02DF9B721204610F020F9704700BFCF
:100A3400B85F0600DC5F0600F05F06001060060089
:100A44004860060070600600F8B5B2F5802F01D248
:100A5400042A2BD9B2F5802F38D30823D21ACC1DFF
:100A640024F007040A4422F00702121BD108172AB3
:100A74002ED90460A1600023E360B2F5802F37D340
:100A840008200830A1EBD0030133B3FA83F3C3F198
:100A9400200CC3F124039B0003F1070E4FEADE068A
:100AA40006EBD000884225D8002338E0414C40F2C0
:100AB4001A2322464049414810F0E1F8404810F01A
:100AC400DEF840F21A21204610F0D0F80423C5E7DE
:100AD400384C40F2232322463A49384810F0CFF8E4
:100AE400374810F0CCF840F22321204610F0BEF82D
:100AF4000420C6E72F4C4FF40E73224632492F4888
:100B040010F0BDF82E4810F0BAF84FF40E712046DC
:100B140010F0ACF8181D002544F82050013363454B
:100B2400F8DB7300B2F5802F31D36360B2F5802F08
:100B34002FD300232360B2F5802F2DD3636843F0B5
:100B440001036360881B47002EF00703E518B2F524
:100B5400802F26D36F60A568B5F5004F23D3E650E8
:100B640022F007032244A568B5F5004F1DD30025E4
:100B74005560A268B2F5004F1AD3E0500122204616
:100B84000FF0B6FD314620460FF00CFFF8BD638030
:100B9400CCE700232380CEE7638843F0010363801E
:100BA400D0E76F80D7E7E652DAE700255580E0E723
:100BB400E052E3E7B85F0600AC600600F05F0600B1
:100BC400D0600600EC600600186106002DE9F04FC5
:100BD40091B005920393134602F004020092C3F30A
:100BE400C20210F00303019340F06E8280468A46ED
:100BF4000132041D002850D0B8F1000F05D0A4EB39
:100C040008030433534500F26282039B5D1E019B7B
:100C140004930693029300264FF0FF3B0427B94642
:100C2400B8F1000F01D0039B2360531E0793002AE1
:100C340040F35F81059B13F0020229D00120A4EB4D
:100C440008018B081AB1B1F5007F80F06681029A21
:100C54000F2A00F27281B8F1000F00F08281DBB23A
:100C6400029901F140026A4402F8103C02F820BCE7
:100C7400002800F0728163F07F0301F140026A44AE
:100C840002F8103C049B01330493029B013302934A
:100C940004340022CC4640463DE001F0070A5444A7
:100CA400CAF1080AA8E7002634E0002632E000264C
:100CB40030E00827BC462DE025292BD10BF1010B90
:100CC40001260427BC4625E04729EED82A2914D357
:100CD4002A39C9B24FF0010E0EFA01F14FF6DA7E4D
:100CE40011EA0E0F16D111F0625F40F0C18011F0CD
:100CF400010F40F08D8000260CE0252903D10BF173
:100D0400FF3B002606E001D9002603E0202901D09C
:100D14002329CCD11D466B1C6978002900F04C8135
:100D2400002EC9D07A29BED84C29CDD34C392E29CE
:100D340062D80FF2080E5EF821F000BF190D05000D
:100D4400FD0D0500FD0D0500FD0D0500FD0D050063
:100D5400FD0D0500FD0D0500FD0D0500FD0D050053
:100D6400FD0D0500FD0D0500FD0D05000D0E050032
:100D7400FD0D0500FD0D0500FD0D0500FD0D050033
:100D8400FD0D0500FD0D0500FD0D0500FD0D050023
:100D9400750E0500FD0D05000D0E05000D0E050078
:100DA400750E0500750E0500750E0500190D05007C
:100DB4000D0E0500B70C0500FD0D0500190D05000D
:100DC400FD0D0500D10E05000D0E0500D10E050028
:100DD400FD0D0500FD0D0500D90E0500070E0500EB
:100DE4000D0E0500FD0D0500FD0D05000D0E0500A1
:100DF400FD0D0500010E050000268BE70427BC4607
:100E040088E70427BC4685E729786C2924D0002686
:100E14003C44013CB4FBF7F407FB04F420B1211A71
:100E24006144514500F25681002A58D1BCF1040FA7
:100E340000F0A880BCF1080F40F0AC801A9907318B
:100E440021F0070101F108051A95D1E9008908B1DB
:100E5400C4E9008908345DE713F8021C6C2903D047
:100E640000260427BC46D3E700260827BC46CFE764
:100E740029784C291AD01A99073121F0070101F178
:100E840008061A96D1E90067073424F0070440B134
:100E9400211A0831514513D829784C2913D0C4E9B3
:100EA4000067083400260827BC4633E71A9907313F
:100EB40021F0070101F108061A96D1E90067E3E77A
:100EC4006FF01B00FDE0C4E90067EAE70026042791
:100ED400BC469DE7324600260427BC4698E7E14617
:100EE40080461A9A111D1A9112680392079A1D4698
:100EF40096E67D4B039A9A4204D37C4B9A420AD3DA
:100F0400002300E00023002B7FF494AE059B03F044
:100F14000202002093E60123F5E7754C4FF41F739A
:100F24002246744974480FF0AAFE74480FF0A7FED5
:100F34004FF41F7120460FF099FE6D4C40F281234F
:100F440022466C496C480FF09AFE6D480FF097FEEC
:100F540040F2812120460FF089FE069B013306935F
:100F640093E610B10AF1010A8FE6009B13B10AF16E
:100F7400020A8AE60398FFF705F90AEB000303F176
:100F8400020A82E61A990D1D1A95096800B12160BA
:100F94000434BFE6E146564C40F2C6232246554986
:100FA40055480FF06CFE494656480FF068FE40F273
:100FB400C62120460FF05AFE8046231AB3F5806FEF
:100FC40013D210B3002202609B080370009B03B38A
:100FD400069BC370049B88F802309BBB019DDDF81F
:100FE4000890DDF810B0039F4DE0414C40F2D2234D
:100FF4002246404940480FF042FE43480FF03FFE6E
:1010040040F2D22120460FF031FE5344A3F10800F0
:1010140057E0069B4370DDE701339842DED903F1C4
:1010240040026A4412F8101C12F9102C002AF3DA58
:1010340001F07F01A4EB0802013252454DD804F8B7
:10104400011BE9E7019B0298E7E7009B43B305F125
:1010540040036B4413F8203C04F8013B019EA4EBCD
:1010640008033344013353453AD805F140036B4434
:1010740013F8103C04F8013B32463946204614F07C
:1010840050FC34440135A94519D9BBF1000FDCD01B
:1010940005F140036B4413F9103C002BD5DAF1E75A
:1010A40005F140036B4413F8103C58F823700022F8
:1010B40048F823203846FFF765F8461CCFE7A4EB31
:1010C400080011B0BDE8F08F6FF00D00F9E76FF084
:1010D4001B00F6E76FF01B00F3E76FF01B00F0E76F
:1010E4006FF01B00EDE700BFFC590600E4A3060007
:1010F40044610600F8A10600F05F06008C6106005A
:10110400B0610600CC610600E4610600014B186082
:10111400704700BF80A5012010B50C4B1B7823B18C
:1011240014F060FC0A4B185810BD0A4C40F24633C8
:101134002246094909480FF0A2FD09480FF09FFD16
:1011440040F2463120460FF091FD00BF52C8012005
:1011540008000000106206003C620600F05F060012
:101164005062060080B504460D4616461F460CF034
:101174008BFF024614F036FC044B1A503A463146B3
:101184002846A047FFF7C8FF01F092FD08000000C1
:1011940010B504468C46838B002A12DB03F0070348
:1011A4005A1F012A19D9042B50D100210FF075FDC3
:1011B40020460FF09CFD78B1A38B43F02003A3835A
:1011C4000AE0D0E900018CE8030000232360636097
:1011D400012120460FF061FD10BDD0E900018CE82B
:1011E4000300002222606260062B0FD0052B20D161
:1011F400002120460FF051FD20460FF078FD002815
:10120400EAD0A38B43F02003A383E5E7DCF80030A6
:1012140053B1E28B0132E2831A461B68002BF7D0EC
:10122400002AF5D11346F3E7022120460FF035FDDD
:10123400E2E70D4C40F2091322460C490C480FF02A
:101244001EFD40F2091120460FF010FD064C40F23D
:101254001B132246074906480FF011FD40F21B11EB
:1012640020460FF003FD00BF80620600A86206005E
:10127400F05F0600F8A106002DE9F04782B0838BE9
:10128400E1B10446154603F0070603F008020846D8
:1012940092B301291FD0022921D143F02003A38353
:1012A400143420460DF01EFA002800F09D8185F3C9
:1012B4001188BFF36F8F02B0BDE8F087B94C40F2DC
:1012C40033132246B849B9480FF0D9FC40F2331120
:1012D40020460FF0CBFC43F01003A383E0E7B14CAE
:1012E4004FF49E732246B249B0480FF0C8FC4FF445
:1012F4009E7120460FF0BAFC00230093019357E03F
:1013040020460FF0F4FC55E0D4F818904A4669469C
:101314002046FFF73DFF0027A38B03F00708B045E5
:1013240000F00781A268002A00F00381012643F03F
:101334000803A38304F1140A50460DF0D3F90028DE
:1013440000F0008185F31188BFF36F8F002E40F009
:101354000A81009B2BB14B464246694620460FF05A
:1013640007FD17B193492046B847EFF311852023B1
:1013740083F31288BFF36F8F50460DF0A3F9002852
:1013840000F0F78050460DF0C7F9A38B23F0080353
:10139400A383A38B13F0100F00F0FA8023F0100343
:1013A400A3830120A68B06F0070600283FF478AF3C
:1013B4000228A5D000283FF473AF0138042800F2B6
:1013C400AB8001A353F820F00D1305001D15050093
:1013D400E113050049140500B31405005EB9236840
:1013E400B3B123691F6807B3062120460FF055FCEB
:1013F4004FF0000990E76B4C4FF4AB7322466E49F3
:101404006A480FF03CFC4FF4AB7120460FF02EFC01
:10141400644C40F257132246684964480FF02FFC8D
:1014240040F2571120460FF021FC5E4C4FF4AD738F
:10143400224663495D480FF022FC4FF4AD7120460B
:101444000FF014FC022E0BD1E38BB3B923695F6850
:1014540007B3042120460FF020FC4FF000095BE79E
:10146400504C40F25D132246564950480FF007FC99
:1014740040F25D1120460FF0F9FB4A4C4FF4AF7374
:101484002246514949480FF0FAFB4FF4AF71204608
:101494000FF0ECFB434C40F26113224648494348A9
:1014A4000FF0EDFB40F2611120460FF0DFFB012E3F
:1014B4000BD12368B3B123699F6807B30521204684
:1014C4000FF0EBFB4FF0000926E7364C4FF4B273F4
:1014D40022463E4935480FF0D2FB4FF4B271204604
:1014E4000FF0C4FB2F4C40F26513224633492F48BA
:1014F4000FF0C5FB40F2651120460FF0B7FB294CF5
:101504004FF4B47322462E4928480FF0B8FB4FF429
:10151400B47120460FF0AAFB224C40F26B13224612
:101524002B4922480FF0ABFB40F26B1120460FF021
:101534009DFB009A0AB10026F9E6002F3FF429AF7B
:101544000026F4E6234C4FF49A73224622491748A6
:101554000FF095FB514621480FF091FB4FF49A711F
:1015640020460FF083FB4A46414620460FF09DFB80
:10157400EFE6184C8823224619490C480FF07FFBEC
:10158400514618480FF07BFB882120460FF06EFB74
:1015940013F0200F04D023F02003A383022001E7DB
:1015A4000020FFE680620600D0620600F05F0600BD
:1015B400E062060021160500F462060000630600DE
:1015C400246306003C63060054630600646306005B
:1015D400F8A106007C630600AC630600C463060041
:1015E400DC630600F4630600084D4FF49A732A4640
:1015F400074908480FF043FB214607480FF03FFB1B
:101604004FF49A7128460FF031FB00BF7C6306004B
:10161400AC630600F05F0600C4630600F8B5044638
:101624000D4600F11406EFF31187202383F312888B
:10163400BFF36F8F30460DF045F848B130460DF0DA
:101644006BF8A5613A4601212046FFF715FEF8BD67
:10165400074C88232246074907480FF010FB314600
:1016640006480FF00CFB882120460FF0FFFA00BF5C
:101674007C630600DC630600F05F0600F46306008A
:101684002DE9F047044688460FF04AFB061E46DB68
:1016940004F11407EFF3118A202383F31288BFF3B4
:1016A4006F8F38460DF00EF88146A8B138460DF01C
:1016B40033F8A58B05F00705E38B4FF6FF729342D1
:1016C4004BD02E46022D16D0062D39D8DFE805F072
:1016D400314C3838312A31003B4C882322463B496F
:1016E4003B480FF0CCFA39463A480FF0C8FA882143
:1016F40020460FF0BBFA0133E38300231A4642B1BC
:101704000022C8F800206268AAB3C2F80080C4F8B6
:101714000480ABB3524602212046FFF7ADFD3046AC
:10172400BDE8F0876FF085064FF000094B464A4646
:10173400E5E7B5FA85F35B094A464FF00009DEE7B1
:10174400254C4FF4E4732246244921480FF097FABC
:101754004FF4E47120460FF089FA6FF00A064FF057
:1017640000094B464A46CAE76FF004064FF00009E9
:101774004B464A46C3E7C4F80480C4F80080C8E76F
:1017840038460CF0AFFF68B18AF31188BFF36F8F4E
:10179400B9F1000FC3D000232A46414620460FF07A
:1017A400D4FABCE7084C4FF49A7322460C49084813
:1017B4000FF065FA39460B480FF061FA4FF49A714D
:1017C40020460FF053FA00BF7C630600DC6306007A
:1017D400F05F0600F463060080620600646306009E
:1017E400AC630600C463060010B50346426802F009
:1017F40003028160022A11D0032A0CD0012A10D0DE
:101804000C4C452322460C490C480FF038FA45216C
:1018140020460FF02BFA0468002004E0006800243E
:1018240001E00024204600225A6008B10DF09AFE1F
:10183400204610BD0C640600F8A10600F05F060007
:1018440010B143685879704710B5064C40F235130F
:101854002246054905480FF012FA40F23511204698
:101864000FF004FA346406006C640600F05F0600AE
:1018740010B143681971704710B5054CE123224635
:10188400044905480FF0FBF9E12120460FF0EEF979
:10189400346406006C640600F05F060010B540B1C5
:1018A40004460368DB6803B19847636801229A71B0
:1018B40010BD054C8C232246044905480FF0DFF97E
:1018C4008C2120460FF0D2F9346406006C640600C3
:1018D400F05F060010B520B10268126962B190474A
:1018E40010BD064CA0232246054906480FF0C7F94F
:1018F400A02120460FF0BAF90020F1E73464060075
:101904006C640600F05F060010B518B102689268B6
:10191400904710BD054CD2232246054905480FF0D7
:10192400AEF9D22120460FF0A1F900BF34640600BD
:101934006C640600F05F060010B520B171B1026856
:101944001268904710BD0B4CB42322460A490B4839
:101954000FF095F9B42120460FF088F9054CB52312
:101964002246074905480FF08AF9B52120460FF0B1
:101974007DF900BF346406006C640600F05F060065
:101984008464060038B50546144C00E01034144B4A
:101994009C4212D8124B9C421FD22046FFF750FFA4
:1019A4000028F3D0294620460FF037FA0028EDD05E
:1019B40029462046FFF7C0FFE8E70A4C4FF40073BE
:1019C4002246094909480FF05AF909480FF057F916
:1019D4004FF4007120460FF049F938BD4C5E060003
:1019E4005C5E060098640600C8640600F05F0600AA
:1019F400EC6406002DE9F04107460546EDB195FA81
:101A0400A5F6B6FA86F60E4C04EB06140123B34091
:101A14006FEA030825EA0305237B002BEED020465A
:101A2400FFF758FF0028E9D107EA08076368042292
:101A3400196820460FF02AFAE0E73846BDE8F0813D
:101A44004C5E06002DE9F0412F4B304A9B1A8F2B38
:101A54000ED880460F462E4BD3E8EF6F721CC3E8B6
:101A6400E12F0029F8D1002E4AD1284C002514E09A
:101A7400284C4FF4A6732246274928480FF0FFF854
:101A84004FF4A67120460FF0F1F863680422196838
:101A940020460FF0FBF9013510341B4B9C4211D842
:101AA400194B9C421ED2237B002BF4D02046FFF717
:101AB400F5FE2046FFF70EFF0028E6D00123AB40D9
:101AC4001E43E8E7134C4FF4AC7322461449134801
:101AD4000FF0D5F813480FF0D2F84FF4AC7120464C
:101AE4000FF0C4F8B8F1000F0BD056B13046FFF731
:101AF40081FF0646002FF8D00A200FF099F9F4E789
:101B040000263046BDE8F0815C5E06004C5E0600AF
:101B14006CAC0120986406000C650600F05F0600BA
:101B2400C8640600EC640600014B53F820007047BB
:101B34003C65060048B108B5054A1060054B1960BC
:101B4400084600F047FB002008BD6FF01500704701
:101B540084A5012060AC012010B50023164A13703F
:101B6400164A1360164A13604FF400411548FFF7F4
:101B7400E1FF154C08E01449611A09110131C9B299
:101B84002046FFF775FE1034104B9C4203D80F4BD0
:101B94009C42F0D310BD0E4C40F2271322460D494F
:101BA4000D480FF06CF80D480FF069F840F227115A
:101BB40020460FF05BF800BF39C8012064AC012057
:101BC40068AC01202D0E06004C5E06005C5E06002B
:101BD40098640600C8640600F05F0600EC64060022
:101BE400174B1B7803B1704710B500210120FFF794
:101BF40029FF144C00E01034134B9C420BD8124BB9
:101C04009C4218D22046FFF71BFE0028F3D0204642
:101C1400FFF77AFEEFE70D4C40F2C51322460C495C
:101C24000C480FF02CF80C480FF029F840F2C511BD
:101C340020460FF01BF8024B01221A7010BD00BFA2
:101C440039C801204C5E06005C5E060098640600FC
:101C5400C8640600F05F0600EC640600014B012234
:101C64001A70704738C80120094BD3E8EF1F0131BF
:101C7400C3E8E21F002AF8D100B97047054BD3E846
:101C8400EF1F0139C3E8E21F002AF6D0F7E700BFCF
:101C940064AC012068AC012010B50446044B1B68F9
:101CA4009847A060214603480FF0B9F810BD00BF63
:101CB40084A50120A0A6012028B1426811604368D0
:101CC40001225A71704710B5064C4FF48D732246A9
:101CD400054906480EF0D3FF4FF48D7120460EF0EF
:101CE400C5FF00BF346406006C640600F05F0600A4
:101CF4000248034BC01AC008704700BF4C5E060080
:101D0400B45D060010B50C46FFF7F2FFA04203D9FC
:101D1400024B53F8340010BD0020FCE7B45D06000C
:101D24002DE9F04F87B004AF81460D4690461E461C
:101D3400D7F830B0D7F838A0BAF1000F28D0FB6B31
:101D44007B60009353467A6B10210020FEF73EFF20
:101D5400002810DBB0F5006F1BD340F2FF73039330
:101D64002B4B029300200190009003460222294944
:101D74000FF0ABF83BE0284C40F2651322462749AC
:101D840027480EF07CFF40F2651120460EF06EFFEE
:101D94000020014600EB0B03173300246FF300040B
:101DA4006FF341046FF3820469F3C50468F3881484
:101DB40060F353246BF31F5423F00703ADEB030DBF
:101DC4000DF110086B4613F120000AD0BAF1000F90
:101DD40007D0FB6B009353467A6BFEF7F7FE00289F
:101DE40009DB33462246294640460FF057F80C37A4
:101DF400BD46BDE8F08F084C4FF4C4732246074932
:101E040007480EF03CFF4FF4C47120460EF02EFF3D
:101E1400E0650600CC5D0600A8650600D4650600F2
:101E2400F05F0600406820B1034BC01A40F3CF00B6
:101E340070474FF0FF307047B45D06000EB400B534
:101E440082B0014603AB53F8042B0193034801F01D
:101E540051FC02B05DF804EB03B070471B0F0600A1
:101E640010B584B011F0440F05D01A4B1B6833B978
:101E7400002004B010BD1849FFF7E0FFF9E7174947
:101E84000968B2FBF1F2B2FBF3FC03FB1C224FF432
:101E94007A7E0EFB02F2B2FBF3F403FB14210EFB79
:101EA40001F1B1FBF3F10E4AA2FB0C32D20A4FF45A
:101EB400616303FB12CC0B4BA3FB0CE35B090291A4
:101EC4000194C3EB0311ACEB810100910649FFF7C8
:101ED400B5FFCEE774AC01201866060070AC012093
:101EE400C5B3A291898888882466060061B108B5C3
:101EF4002AB1064A52F8232012B9054A00E0044ADE
:101F04000449FFF79BFF08BD704700BFE466060065
:101F140040660600486606002DE9F041054617466E
:101F2400069EDDF81C8081B900242EB13246114989
:101F34002846FFF783FF0444B8F1000F14D06FB1B3
:101F4400099B042B13D00C4909E00C4B099A53F854
:101F540022200B49FFF772FF0446E6E70649424692
:101F64002846FFF76BFF04442046BDE8F08105498D
:101F7400F5E700BF6066060050660600F8660600D6
:101F8400586606004C6606002DE9F04F87B00492AF
:101F940005939DF84C60042E30D805460C4601F09C
:101FA400020B01F0010AC1F3C00801F480790EF0BC
:101FB4006BFF024678B31C492846FFF73FFF0746EC
:101FC400BBF1000F29D13246514628460EF0C1FF1D
:101FD400B9F1000F01D0002311930396129B0293D1
:101FE400119B0193109B00930023049A41462846B9
:101FF400FFF792FF384407B0BDE8F08F0B4C40F276
:102004004D2322460A490B480EF039FE40F24D2179
:1020140020460EF02BFE0027D2E7059A21462846DB
:10202400FFF71EFF0744CEE7A066060064660600BD
:1020340094660600F05F060011F0100F0BD108B58E
:1020440011F0200F03D00449FFF7F8FE08BD03493F
:10205400FFF7F4FEFAE77047DC700600785E0600CE
:102064002DE9F04105460F46164698460699FFF7B6
:10207400E3FF0024444505DA24492846FFF7DEFE41
:102084000134F7E7002409E020492846FFF7D6FE8B
:102094000BE01F492846FFF7D1FE01340F2C0CDC5E
:1020A400002C02DD14F0070FEED0B442F1D23A5DF9
:1020B40018492846FFF7C2FEEFE717492846FFF7FD
:1020C400BDFE002409E011492846FFF7B7FE0BE0E6
:1020D40012492846FFF7B2FE01340F2C13DC002C02
:1020E40002DD14F0070FEED0B44207D23A5D0C4B78
:1020F4009B5C13F0970FEBD12E22E9E703492846A6
:10210400FFF79CFEE8E7BDE8F08100BF5C660600CF
:10211400AC660600A4660600B0660600B466060057
:10212400A6A206002DE9F04184B004469DF82C5087
:102134000C9F0E9EA5B9012B20D020484FF000081B
:1021440037B13B4622461E490EF04CFD002819DBF0
:102154002EBB6DBB20460EF0C7FE04B0BDE8F08177
:1021640003950A980290019300920B4600220F995E
:102174002046FFF709FF80461248E1E711484FF077
:102184000008DDE7104C40F2A72322460F4910480F
:102194000EF075FD40F2A72120460EF067FD0F9B5F
:1021A4000093434632460D9920460EF0EAFED0E7EE
:1021B4002A460F9920460EF0D8FECBE7390F0600C9
:1021C400F93605001B0F060064660600B8660600B3
:1021D400F05F0600074B01221A6004E04008054A3C
:1021E40013685B001360044B9842F7D8034B1860E4
:1021F400704700BF70AC012040420F0074AC012056
:1022040070B506460D46002405E0315D0448836838
:102214005B6898470134AC42F7D3284670BD00BFD1
:102224001C5B060010B543681C68094812F019FFCE
:1022340018B123685B685C6010BD064C9923224684
:10224400054906480EF01BFD992120460EF00EFDAF
:102254001C5B06000C6706004C670600F05F060076
:10226400014B036000207047BC67060008B50448B2
:102274000EF0EEFC03480EF0EBFC002008BD00BF9E
:10228400BC670600F467060008B50348034A121A3F
:1022940000210EF0F9FE08BD68A8012054C80120F1
:1022A40008B50648064A121A06490EF0F1FE064819
:1022B400064A121A06490EF0EBFE08BD80A501205D
:1022C40064A80120FCA3060068A5012080A50120C4
:1022D400E4A3060070B586B00546036842688168C9
:1022E4001C4E0591049203931B4B0293002401940A
:1022F400009423460122314620460EF0CDFEEB68C1
:102304002A696969059104920393144B0293019419
:10231400009423460122314620460EF0BDFEEB69AF
:1023240003930F4B029301940094234601223146F8
:1023340020460EF0B1FEAB6903930A4B029301945D
:10234400009423460122314620460EF0A5FE06B035
:1023540070BD00BF245E06002468060054680600B1
:10236400846806009468060030B585B004460D46BE
:1023740011B10846FFF7AEFF012C05D029462046CF
:1023840008F0C6FF05B030BDEFF30583103B03939F
:10239400054B02930020019000900346012203495B
:1023A4000EF07AFEEAE700BFC4680600245E060069
:1023B40030BFFFF7FDBF00BF38B50446054D2A46C0
:1023C400054913F0AEFA054A0021601913F0B6FA74
:1023D40038BD00BF000000005C5E0600080000007D
:1023E40070B50646064D074B1D444C1B2046FFF7AF
:1023F400E3FF083CC6F8944005F1080070BD00BF37
:102404000000000008000000054B5A699B689A42CE
:1024140004D0044A536843F080535360704700BFAC
:10242400E4BB012000ED00E081690D4B5A6942F4E0
:1024340080725A61BFF34F8FBFF36F8F31F8021C64
:102444005A6922F480725A61BFF34F8FBFF36F8FC2
:102454004DF60273994201D0002070470120704765
:1024640000ED00E0F0B585B01D4600232B7002F0AE
:102474007F43B3F17F4F27D106460F46144612F02F
:10248400010F24D112F0400F07D100200346E3B915
:1024940014F0080F14D0384617E00E4B02930020B6
:1024A40001900090034601220B490EF012FE14F035
:1024B400040F02D038460123E9E730460123E6E75A
:1024C400304601232B7000E0002005B0F0BD002051
:1024D400FBE700BFD8680600245E0600F0B585B0AF
:1024E40005460F461446584B029300200190009075
:1024F4000346012255490EF0ECFD554B9B6A13F03F
:10250400100F3AD11026524B9B6A13F0080F40D19A
:102514004F4B9B6A13F0020F47D14D4B9B6A13F04C
:10252400010F69D14A4B9B6A13F0200F70D1484BBD
:102534009B6A13F0100F04D1454B9B6A13F0020FF2
:1025440004D0434B9B6A13F0100F6DD1404B9B6A30
:1025540013F0200F04D03E4A536A23F4005353620D
:102564003B4A936A43F0FF039362012128460EF02D
:10257400AEFD2070304605B0F0BD364B029300200E
:10258400019000900346012230490EF0A2FD11266D
:10259400B9E7314B029300200190009003460122D9
:1025A4002A490EF096FD1226B2E72C4B0293002026
:1025B400019000900346012224490EF08AFD244B29
:1025C4005A6B9B6A13F0800F01D11326A5E703927F
:1025D400234B0293002001900090034601221B49E3
:1025E4000EF077FD37B11A4A936A23F080039362A1
:1025F400132692E7132690E71A4B029300200190CA
:1026040000900346012211490EF063FD142689E768
:10261400154B0293002001900090034601220B49C0
:102624000EF057FD152682E7104C40F22D1322467A
:102634000F4910480EF023FB0F480EF020FB40F228
:102644002D1120460EF012FBFC680600245E0600E5
:1026540000ED00E014690600486906005C690600A4
:10266400746906008C690600AC690600DC69060022
:10267400106A0600F05F06005C6A0600F0B585B0DB
:1026840005460F4614464C4B0293002001900090DF
:102694000346012249490EF01CFD494B9B6A13F481
:1026A400805F26D11626464B9B6A13F4006F2CD10B
:1026B400434B9B6A13F4007F33D1414B9B6A13F461
:1026C400806F55D13E4B9B6A13F4807F5CD13C4BA9
:1026D4009B6A13F4005F63D1394A936A43F47F43DE
:1026E4009362012128460EF0F2FC2070304605B0BA
:1026F400F0BD344B02930020019000900346012268
:102704002E490EF0E6FC1726CDE72F4B029300204E
:10271400019000900346012228490EF0DAFC1826A5
:10272400C6E72A4B02930020019000900346012241
:1027340022490EF0CEFC224B9A6B9B6A13F4004F95
:1027440001D11926B9E70392214B0293002001908D
:1027540000900346012219490EF0BBFC37B1184A18
:10276400936A23F4004393621926A6E71926A4E783
:10277400184B0293002001900090034601220F4958
:102784000EF0A7FC1A269DE7134B0293002001903C
:1027940000900346012209490EF09BFC1B269BE78F
:1027A4000E4B02930020019000900346012203493E
:1027B4000EF08FFC1C268FE7C06A0600245E06001C
:1027C40000ED00E0D86A060048690600EC6A0600DD
:1027D400086B0600206B06003C6B0600AC69060023
:1027E40000B585B0454B029300200190009003464C
:1027F400012243490EF06DFC424B9B6A13F0007FAB
:1028040028D11D203F4B9B6A13F0807F2ED13D4B76
:102814009B6A13F4801F35D13A4B9B6A13F4002F43
:102824003CD1384B9B6A13F4802F43D1354B9B6AC0
:1028340013F4003F4AD1334B9B6A13F4803F51D1C8
:10284400304A936A6FEA03436FEA1343936205B015
:102854005DF804FB2C4B029300200190009003468A
:10286400012227490EF035FC1E20CBE7274B0293AB
:102874000020019000900346012221490EF029FC1A
:102884001F20C4E7224B02930020019000900346CE
:1028940001221B490EF01DFC0220BDE71D4B0293D3
:1028A4000020019000900346012215490EF011FC0E
:1028B4002120B6E7184B02930020019000900346B4
:1028C40001220F490EF005FC2220AFE7134B0293BF
:1028D4000020019000900346012209490EF0F9FB03
:1028E4002320A8E70E4B029300200190009003469A
:1028F400012203490EF0EDFB2420A1E7546B0600EE
:10290400245E060000ED00E06C6B0600806B0600A0
:102914009C6B0600C86B0600E86B0600106C060092
:102924002C6C060070B584B006460D46484B0293E5
:1029340000240194009423460122464920460EF0C7
:10294400C8FB2C70444BDC6A14F002042AD1424BBD
:10295400DB6A002B34DB404BDB6A13F0804F66D01C
:102964003E4B029300200190009003460122394916
:102974000EF0AFFB3046FFF757FD60BB364B9B6A4A
:1029840013F0FF0F35D1344B9B6A13F47F4F37D1CB
:10299400314B9B6AB3F5803F39D33046FFF720FFB4
:1029A40004460AE02E4B029300240194009423462B
:1029B4000122284920460EF08CFB204604B070BD4D
:1029C400284B0293002001900090034601222149E4
:1029D4000EF07FFBF1E733680393234B029300204F
:1029E40001900090034601221A490EF072FB3468EC
:1029F400E3E72A4601213046FFF770FD0446DCE791
:102A04002A4601213046FFF739FE0446D5E7174C24
:102A140040F2ED232246164916480EF030F91648C6
:102A24000EF02DF940F2ED2120460EF01FF90F4C67
:102A34004FF43C7322460E490E480EF020F90F481D
:102A44000EF01DF94FF43C7120460EF00FF900BF53
:102A5400586C0600245E060000ED00E0A46C06003D
:102A6400706C0600946C0600C46C0600DC690600F9
:102A7400F8A10600F05F0600E06C0600046D060095
:102A840000B585B000200870054B029301900090BA
:102A94000346012203490EF01CFB05B05DF804FB5C
:102AA400346D0600245E060000B587B00F2910DCE3
:102AB400094B103904910393084B029300200190B1
:102AC40000900346012206490EF003FB07B05DF8AF
:102AD40004FB044BEDE700BF586D06008C6D060047
:102AE400245E0600706D060030B58BB0274B5D6820
:102AF400C5F30805002383F31188BFF36F8F0DF12D
:102B04002603FFF7AFFC58B104460DF1270229460E
:102B14000EF0EEFA05469DF827308BB10BB030BDB0
:102B24001B4C40F2144322461A491B480EF0A7F8E6
:102B34001A480EF0A4F840F2144120460EF096F81C
:102B44000DF1040C20686168A268E368ACE80F002A
:102B540020696169A269E369ACE80F009DF8263039
:102B64004BB1089BC3F308025AB96FEA53236FEAC7
:102B74004323089305E0089B23F4FF7323F0010328
:102B8400089301A92846FFF7EFFBC7E700ED00E033
:102B9400DC690600A06D0600F05F0600B46D060057
:102BA400064B5A6942F010025A615A6942F4806233
:102BB4005A615A6922F008025A61704700ED00E038
:102BC400EFF30880EFF3098101B57246FFF78CFF3C
:102BD40001BD00BF002080F31488BFF36F8F002075
:102BE40080F30A8880F30B880F4880F3088810F07C
:102BF400B1FA00200D490860BFF34F8F00F02EF8A2
:102C0400202080F311880A484FF40061401880F3B3
:102C14000988EFF314800221084380F31488BFF37A
:102C24006F8F00F01DF9000098F7012094ED00E08B
:102C340058CE0120084BD3F89000C0F3072000239E
:102C440006E0054AC2F898300021C2F8A01001330A
:102C54008342F6DB704700BF00ED00E010B572B6AA
:102C6400002484F31388FFF7E5FF234608E003F10B
:102C740020010E4A4FF0FF3042F821000133DBB24D
:102C84000F2BF4D9002308E003F16001074A4FF049
:102C9400FF3042F821000133DBB20F2BF4D962B6C6
:102CA400BFF34F8FBFF36F8F10BD00BF00E100E093
:102CB40008B50A4B9B68834202D00BF0EBF908BDC0
:102CC400EFF30583002BF8D0054B5A6842F080528D
:102CD4005A605A6A22F400425A62EEE7E4BB0120C9
:102CE40000ED00E018498A6882F8A1E04FF0300056
:102CF4001044EFF3098C80E8F01F202080F3128841
:102D0400BFF36F8F114F4FF000664A698A603E60CF
:102D1400D2F894000E4C206092F9A1E0D2F8980009
:102D24000023C2F8983080F3118802F1300090E853
:102D3400F01F8CF3098802F1000004B50EF00DFABF
:102D4400BDE8044070470000E4BB012004ED00E04E
:102D5400A8AC01201EF0040F0CBFEFF30880EFF3C2
:102D64000980816911F8021C0229FFD001B572465D
:102D74000EF0A1F901BD00BF002807DB00F01F021F
:102D8400400901239340024A42F82030704700BFB3
:102D940000E100E000280CDB00F01F0240090123E1
:102DA40093402030034A42F82030BFF34F8FBFF3E3
:102DB4006F8F704700E100E0002808DB4901C9B2C9
:102DC40000F1604000F5614080F80013704700F0A6
:102DD4000F004901C9B2014B1954704714ED00E0CA
:102DE4004209054B53F8222000F01F00012303FA87
:102DF40000F01040704700BF00E100E070B50546E8
:102E04000C460131072903D840B2FFF7D5FF70BD46
:102E1400084E6B233246084908480DF030FF07235B
:102E24002A46214606480DF02AFF6B2130460DF054
:102E34001DFF00BFF46D06002C6E0600F05F060057
:102E4400486E0600044B23F07F03044A9360BFF3EB
:102E54004F8FBFF36F8F70470000050000ED00E057
:102E640008B5FFF7EFFF074AD2F8883023F4700360
:102E7400C2F88830FFF708FAFFF712FA00F052F8A8
:102E840008F008FC00ED00E030B40024C0F8A040D5
:102E9400BC2180F8A110A2F120050D4942F8081CBC
:102EA40021F0010142F8081C42F8203C029B42F840
:102EB4001C3C039B42F8183C049B42F8143C4FF022
:102EC400807342F8043C0565C0F8984030BC7047F4
:102ED4006911050000B50E4615460D4B9860D0F8F3
:102EE40094200C4B1A60D0F8843083F30B882C4662
:102EF40086F309880020044B9847204600210022CD
:102F04000023024C204700006F11060069110500E0
:102F1400E4BB0120A8AC0120014B10221A617047C8
:102F240000ED00E0002206E003F00F030949194414
:102F340020230B760132402A0ADC53B2002BF3DB48
:102F440003F1604303F56143202183F80013F1E7A3
:102F5400704700BFFCEC00E008B5EFF30583103BBD
:102F6400044A02EBC301496852F833008847FFF76B
:102F74004BFA08BD385B060010B584B00A4C2346F2
:102F84000A4A01210A4800F0E9FA00230193029356
:102F94000393084B0193E41A0294012101A800F061
:102FA400FFFA04B010BD00BF0000042080A501207A
:102FB400886E060068A80120024B034AC3F8C020AB
:102FC400704700BF00ED00E0AAFF4400034BC3F8C4
:102FD4009800C3F89C10C3F8A020704700ED00E0EF
:102FE4000E4BC3F89800C3F89800D3F89C000A7AF3
:102FF40060F304020A72D3F8A020C2F34202087AF2
:1030040062F347100872D3F89C2022F01F020A6072
:10301400D3F8A03023F01F03CB60704700ED00E02D
:1030240070B505460E46002400E00134A6421EDDBC
:1030340004EB44039A0005EB830359680029F4D098
:10304400A8580EF0D1F804EB84030B4A42F823008D
:1030540010F1160F0CD0094B1B78984209DA04EBD7
:10306400840302EB83010431FFF7BAFFDDE700209C
:1030740070BD6FF01500FBE7ACAC01203AC801202D
:1030840030B58BB005460C46096821F01F01237A40
:1030940003F01F0CE26822F01F025B0942EA4302BC
:1030A40042F0010241EA0C01FFF790FF2268237A03
:1030B40003F01F015B09E0680890079306910592ED
:1030C4000495074B0393074B0293082301930020B5
:1030D40000900346042204490EF097F80BB030BD6B
:1030E400F0700600986E0600FC5D060070B586B0B0
:1030F4000446164BD3F89030C3F30723013B9842A0
:1031040016D80D4606460490114B0393114B0293B7
:103114000823019300200090034604220E490EF078
:1031240074F829462046FFF7ABFF304606B070BD61
:1031340003900A4B02930020019000900346012261
:1031440005490EF062F86FF01506EEE700ED00E0B9
:10315400FC700600E86E0600FC5D0600C06E06000A
:1031640030B58BB005460C460490154B0393154BB4
:10317400029308230193002000900346042212497D
:103184000EF043F822680692636820899DF82010A7
:1031940060F304018DF820106089C9B260F347110F
:1031A4008DF8201022F01F021344013B23F01F036B
:1031B400099306A92846FFF799FF0BB030BD00BF5D
:1031C40018710600106F0600FC5D06002DE9F04F33
:1031D4008BB08146049105931446002751E0039770
:1031E400654B0293019000900346012263490EF05F
:1031F4000CF86FF015040CE00396614B0293002069
:1032040001900090034601225C490DF0FEFF6FF02F
:10321400150420460BB0BDE8F08FC34564D12946A0
:10322400C0B2FFF79DFF2BE0564AC2F89860D2F86F
:103234009C3003F01F0321F01F010B43C2F89C30A4
:103244002946E0B2FFF78CFF044610F1160FE0D0D8
:10325400013415E0013B4B49C1F89860D1F8A02036
:1032640002F01F0223F01F031343C1F8A0302946C4
:10327400E0B2FFF775FF044610F1160FC9D0013410
:103284000137049B9F42C4DA07EB47054FEA850ADE
:1032940009EB85056E68002EF2D0059B23B1284604
:1032A4000DF090FF00289AD0314659F80A000DF02D
:1032B4009BFF064610F1160F9ED084429CDD314BD5
:1032C400C3F89800D3F89C2022F01F02C3F898009A
:1032D400D3F8A03043F01F0859F80A30696819443C
:1032E40001F1FF3B934298D093429DD0C345B1D0A6
:1032F400013B2449C1F89860D1F8A02002F01F02D4
:1033040023F01F031343C1F8A0302946E0B2FFF7AE
:1033140027FF044610F1160F3FF47BAF0130194B21
:10332400C3F89860D3F89C109DF8202061F3040240
:103334008DF82020D3F8A030C3F34203D2B263F354
:1033440047128DF8202059F80A306A68134406930E
:1033540023F01F03A8EB0B084344013B23F01F0396
:10336400099306A9C0B2FFF7C1FE044610F1160F77
:103374003FF44FAF013483E7386F0600FC5D06006D
:103384005C6F060000ED00E010B5034C01232278C9
:10339400FFF71CFF207010BD3AC80120F0B587B0BC
:1033A400054605A8FEF75CFF0646002452E0B3F587
:1033B400801F2DD0B3F5001F4BD15768095827F053
:1033C4001F0390680344013B23F01F0301970291FC
:1033D4009DF80C10012060F304018DF80C10C9B2A3
:1033E400022060F347118DF80C100493D36813F096
:1033F400010F25D04A4C832322464A494A480DF0FE
:103404003EFC4A480DF03BFC832120460DF02EFC87
:103414005768095827F01F0392681344013B23F0AF
:103424001F03019702919DF80C20012161F304020E
:103434008DF80C20D2B261F347128DF80C2004935E
:1034440001A92878FFF752FE002862DB2B780133AC
:103454002B700134B4425FD22001059901EB0412B0
:10346400D3681B0D1B05B3F5800F1FD09FD9B3F193
:10347400006F34D0B3F1805FEBD15768095827F05F
:103484001F0392681344013B23F01F030197029129
:103494009DF80C20012161F304028DF80C20D2B2B6
:1034A4006FF347128DF80C200493C9E75768095845
:1034B40027F01F0392681344013B23F01F03019775
:1034C40002919DF80C20062161F304028DF80C2072
:1034D400D2B26FF347128DF80C200493B0E757680B
:1034E400095827F01F0392681344013B23F01F037C
:1034F400019702919DF80C20012161F304028DF8DB
:103504000C20D2B2032161F347128DF80C200493EE
:1035140096E76FF0150000E0002007B0F0BD00BF93
:10352400806F0600B06F0600F05F0600D86F0600DB
:10353400044B0522C3F89420BFF34F8FBFF36F8F62
:10354400704700BF00ED00E0BFF35F8F024B002225
:10355400C3F89420704700BF00ED00E038B50C4676
:10356400FFF712FF10F1160F00D038BD084D4FF4CD
:10357400C4732A46074908480DF081FB21460748D1
:103584000DF07DFB4FF4C47128460DF06FFB00BFB6
:10359400806F0600F8A10600F05F060008700600C0
:1035A40038B50C46FFF73CFD10F1160F00D038BDBE
:1035B400084D4FF4CC732A46074908480DF05FFBC9
:1035C400214607480DF05BFB4FF4CC7128460DF003
:1035D4004DFB00BF806F0600F8A10600F05F0600F7
:1035E4003470060030B587B0374B1D68374BD3F8BD
:1035F4009030C3F307239D4218D8344BD3F890304E
:10360400C3F307230493324B0393324B02930823EF
:10361400019300240094234604222F4920460DF0F0
:10362400F4FDFFF791FFFFF7C7FC1DE02B4C40F2C0
:10363400012322462A492B480DF021FB234BD3F8C2
:103644009020C2F30722294627480DF018FB40F2C8
:10365400012120460DF00AFB1B4B596801EB0411B4
:103664002046FFF70DFD0134A542F5D81F4805702B
:10367400FFF794FE10F1160F02D01C4B1A7816E0D7
:10368400164C40F22B232246154916480DF0F7FA42
:1036940017480DF0F4FA40F22B2120460DF0E6FA1B
:1036A4000A4BC3F898200021C3F8A0100132074B3D
:1036B400D3F89030C3F307239A42F1DBFFF738FFC6
:1036C400002007B030BD00BF3071060000ED00E0FF
:1036D400E070060098700600FC5D0600806F06002E
:1036E400F8A10600F05F0600647006003AC80120E5
:1036F400B470060030B587B00D461146002400941E
:103704000194029403940494059402228DF80220F7
:10371400044A0192049005951A4668460CF07AFA18
:1037240007B030BD2D12060008B5024B1B68984740
:10373400002008BDC0AC0120034B1860034A9378F5
:1037440043F0020393707047C0AC012090A50120A0
:1037540008B5064921F00701C1F1005202F58022A3
:103764000348FDF771F9002008BD00BF9F870220C0
:10377400C4AC012000B50E280BD800EB40000001BA
:1037840008300C4B1844D0E8AF3F53B100205DF82B
:1037940004FB12F027F9084B09221A504FF0FF30AE
:1037A400F5E712F01FF9044B09221A504FF0FF30CD
:1037B400EDE700BFD0AC01200C00000000200E2873
:1037C4000AD800EB40031B010833094A1344D3E829
:1037D400AF3F5BB10130F2E700B512F003F9054BDE
:1037E40017221A504FF0FF305DF804FB704700BFFA
:1037F400D0AC01200C00000000B5024602EB4203ED
:103804001B01083310490B44D3E8AF1FC9B1481E4C
:10381400D3E8EFCF8C4504D1C3E8EE0FBEF1000F1F
:10382400F6D1EBD101290AD1074B02EB4201090180
:103834000020585002EB420203EB021358605DF87B
:1038440004FB0846FBE700BFD0AC012000EB4000BE
:1038540003010833044A1344D3E8EF0F0130C3E8EB
:10386400E20F002AF8D17047D0AC012070B50446AD
:103874000E461546FFF77EFF002813DB04EB4402D7
:10388400094B03EB02135B6833602DB1130108335A
:10389400054A134404332B6004EB44042401024B13
:1038A400185970BD0020FCE7D0AC012070B54FF072
:1038B400FF324FF0FF33134808F036F9FFF77EFF6D
:1038C400041E04DA0F4808F0C5FA204670BD2046ED
:1038D400FFF7BCFF0C4E650004EB4403190106EB33
:1038E4000313002272505A609A620846083030442A
:1038F400043011F01CFC281900012030304411F070
:10390400C3FCDFE72CA70120D0AC012070B504462E
:103914001546154804EB44024FEA021C00EB021260
:1039240040F80C105560D362CDB1EB68BBB112F016
:1039340059F80E4B1E5804EB44031B0108330A4A82
:103944001344043340F2051228460DF078FC5F2E30
:1039540005D012F047F8054B1B585F2B00D070BD03
:10396400024B1E50FBE700BFD0AC01200C0000004E
:10397400F8B50446FFF7FEFE002832DB660004EBD0
:1039840044052D010835184F3D4404354FF0FF32EE
:103994004FF0FF33284608F0C7F8264407EB061714
:1039A4007B689E68DEB104EB4402FB6A13F4404F6B
:1039B4000DD0130121460C4AD058B047064628467C
:1039C40008F048FA20460DF04AFC3046F8BD04EBF6
:1039D40044031B01044AD058B0470646EFE70026CB
:1039E400EDE74FF0FF36F0E7D0AC01202DE9F04FC2
:1039F4009DB0064606900D4607911746984608A8BE
:103A040011F046FDDDE90834CDE904340DAB0C9327
:103A140034464FF00009CA46CDF80C9012E0002756
:103A2400B8463A463B4608A811F032FDDDE90823C2
:103A3400CDE904233D460A9808F00CFA002D35DB45
:103A4400083435466E1E002D38D020680028F7DB78
:103A54000AAA0BA9FFF70AFF83460028F0D00A98A8
:103A64004FF0FF324FF0FF3308F05EF81CAB0193C8
:103A74000CAB009323464FF4817259460B980DF01A
:103A8400F2FB054610F1780FC9D010F1120FD2D114
:103A9400BAF1000F03D0002501230393CBE7DDF82F
:103AA4002CA0D946002501230393C4E76D4211F0ED
:103AB40099FF594B1D504FF0FF3A28E0039B6BB31D
:103AC400B8F1FF3F08BFB7F1FF3F24D04FEA4812D7
:103AD40042EAD7627B01DB1B62EB0802920042EAF6
:103AE40093729B00DB1942EB0802D20042EA537244
:103AF400C3F3103343EA42430193079B0093069BAD
:103B04004FF48272494650460DF0ADFB8246504652
:103B14001DB0BDE8F08F4FF0FF33EDE7DDE904237E
:103B240008A811F0EBFC089FDDF82480AB4658E0B0
:103B34000DAB0C93069C079BDA46039D05E02023FE
:103B4400E3800AF1010A083433465E1E002B37D0A5
:103B54000023E38020689842F5DB0AAA0BA9FFF74B
:103B640085FE81460028EAD00A984FF0FF324FF0D4
:103B7400FF3307F0D9FF0CAB0093234640F2031246
:103B840049460B980DF06FFB81460A9808F062F9DC
:103B940019F10B0F12D0B9F1000F06D1B4F90630A8
:103BA400002BD0D00AF1010ACDE7C9F1000311F0CE
:103BB40019FF194A13504FF0FF3AA8E70125C2E74D
:103BC4006DB1BAF1000FA2DCDDE9042308A811F0FD
:103BD40095FC089FDDF8248058EA070397D0002D50
:103BE40095D00DA80C9B191A89100C4B03FB01F1FD
:103BF4003A4643460BF03CFB002899D010F10B0FDA
:103C040096D010F1040F93D0434211F0EBFE024A18
:103C140013504FF0FF3A7AE70C000000CDCCCCCC27
:103C240068B108B5064A074B1B680749A1FB031393
:103C34009B0C00FB03F042F00103984708BD70475A
:103C4400705E060030A6012083DE1B43024B012276
:103C5400C3F84025002070470090034008B505488C
:103C64004FF6FF7303603F23436004F097FB00208B
:103C740008BD00BFA0AF012010B583681B680BB15D
:103C8400984710BD064C5D232246064906480CF0B1
:103C9400F6FF06480CF0F3FF5D2120460CF0E6FF2A
:103CA40084710600B8710600F05F0600D871060042
:103CB400F0B583B005460C461646134811F0D1F909
:103CC400F0B1A2B229461048FFF7D6FF0346C00F51
:103CD40001D103B0F0BD56B11846FAE70EF036FA3A
:103CE40001903A4601A9A81911F01BFE3E44A642D0
:103CF40004D2A71B042FF1D90427EFE70020E8E73B
:103D04006FF01200E5E700BF005B0600F8B505465A
:103D14000E461746214C224B9C4228D8204B9C42ED
:103D240033D22368AB4200D0FBB9A3687BB13A46D7
:103D3400314628469847C0B111F054FE194B002271
:103D4400C250E3683A46314628469847F8BD164CB7
:103D540075232246154916480CF091FF15480CF0BE
:103D64008EFF752120460CF081FF1034D3E70E4CF2
:103D74006D23224610490E480CF081FF0F480CF0C9
:103D84007EFF6D2120460CF071FF11F02BFE054BD8
:103D94006A221A504FF0FF30D8E700BF945D060046
:103DA400B45D06000C0000000072060034720600C8
:103DB400F05F06005072060054720600EC640600C0
:103DC40030B583B00C466A4601A9FFF74FFDB0B188
:103DD4000546019B1B69D3B100984FF0FF324FF0A9
:103DE400FF3307F0A1FE019B1B6921462846984733
:103DF4000446009808F02EF8204603B030BD11F0B8
:103E0400F1FD074B09221A504FF0FF34F4E711F08B
:103E1400E9FD034B86221A504FF0FF34ECE700BF54
:103E24000C00000070B582B00D46144601AA694624
:103E3400FFF71CFDB8B10646009B5B69CBB1019846
:103E44004FF0FF324FF0FF3307F06EFE009B5B69CB
:103E540022462946304698470446019807F0FAFF5F
:103E6400204602B070BD11F0BDFD064B09221A5068
:103E740004E011F0B7FD034B5F221A504FF0FF34FA
:103E8400EEE700BF0C00000070B582B00D4614468A
:103E940001AA6946FFF7EAFCB8B10646009B9B6994
:103EA400CBB101984FF0FF324FF0FF3307F03CFEE7
:103EB400009B9B6922462946304698470446019850
:103EC40007F0C8FF204602B070BD11F08BFD064B11
:103ED40009221A5004E011F085FD034B5F221A50A9
:103EE4004FF0FF34EEE700BF0C00000030B583B0A4
:103EF4000C4601AA6946FFF7B9FCB0B10546009B20
:103F0400DB69C3B101984FF0FF324FF0FF3307F084
:103F14000BFE009BDB69214628469847044601981E
:103F240007F098FF204603B030BD11F05BFD064B4F
:103F340009221A5004E011F055FD034B5F221A5078
:103F44004FF0FF34EEE700BF0C00000070B582B004
:103F54000D46144601AA6946FFF788FCB8B1064627
:103F6400009B1B6ACBB101984FF0FF324FF0FF3337
:103F740007F0DAFD009B1B6A224629463046984723
:103F84000446019807F066FF204602B070BD11F0A8
:103F940029FD064B09221A5004E011F023FD034BBE
:103FA4005F221A504FF0FF34EEE700BF0C00000010
:103FB4002DE9F04184B00E4615461C4603AA02A919
:103FC400FFF754FCF0B10746029B5B6A03B3039806
:103FD4004FF0FF324FF0FF3307F0A6FD029BD3F8FA
:103FE40024800B9B01930A9B009323462A46314667
:103FF4003846C0470446039807F02CFF204604B017
:10400400BDE8F08111F0EEFC054B09221A5004E0E2
:1040140011F0E8FC024B5F221A504FF0FF34EDE739
:104024000C0000002DE9F04184B00E4615461C46F4
:1040340003AA02A9FFF71AFCF0B10746029B9B6A88
:1040440003B303984FF0FF324FF0FF3307F06CFDDA
:10405400029BD3F828800B9B01930A9B0093234671
:104064002A4631463846C0470446039807F0F2FE14
:10407400204604B0BDE8F08111F0B4FC054B0922E0
:104084001A5004E011F0AEFC024B5F221A504FF0BC
:10409400FF34EDE70C0000002DE9F04184B00E463A
:1040A40015461C4603AA02A9FFF7E0FBE0B1074648
:1040B400029BDB6AF3B103984FF0FF324FF0FF33FA
:1040C40007F032FD029BD3F82C800A9B0093234611
:1040D4002A4631463846C0470446039807F0BAFEDC
:1040E400204604B0BDE8F08111F07CFC054B0922A8
:1040F4001A5004E011F076FC024B5F221A504FF084
:10410400FF34EDE70C0000002DE9F04184B00E46C9
:1041140015461C4603AA02A9FFF7A8FBE0B107460F
:10412400029B1B6BF3B103984FF0FF324FF0FF3348
:1041340007F0FAFC029BD3F830800A9B00932346D5
:104144002A4631463846C0470446039807F082FEA3
:10415400204604B0BDE8F08111F044FC054B09226F
:104164001A5004E011F03EFC024B5F221A504FF04B
:10417400FF34EDE70C00000070B582B00D46144624
:1041840001AA6946FFF772FBB8B10646009BDB6BD8
:10419400CBB101984FF0FF324FF0FF3307F0C4FC6E
:1041A400009BDB6B2246294630469847044601981B
:1041B40007F050FE204602B070BD11F013FC064B10
:1041C40009221A5004E011F00DFC034B5F221A502F
:1041D4004FF0FF34EEE700BF0C00000070B582B072
:1041E4000D46144601AA6946FFF740FBB8B10646DE
:1041F400009B1B6CCBB101984FF0FF324FF0FF33A3
:1042040007F092FC009B1B6C2246294630469847D7
:104214000446019807F01EFE204602B070BD11F05E
:10422400E1FB064B09221A5004E011F0DBFB034BBF
:104234005F221A504FF0FF34EEE700BF0C0000007D
:10424400014B1870704700BF3BC8012010B540B146
:104254000F4A126882B90E4A10600120FFF7F0FF7E
:1042640010BD0C4C142322460B490C480CF007FDDE
:10427400142120460CF0FAFC064C1523224608496A
:1042840006480CF0FCFC152120460CF0EFFC00BFA6
:10429400A8AF01208472060094910600F05F060026
:1042A400C0720600054B1B6823B1054B1B781BB974
:1042B400002070470020704701207047A8AF0120FC
:1042C4003BC8012010B50E4C24681CB1246864B1AD
:1042D400A04710BD0B4C392322460B490B480CF068
:1042E400CEFC392120460CF0C1FC064C3A23224670
:1042F400074906480CF0C3FC3A2120460CF0B6FCF2
:10430400A8AF012084720600DC720600F05F06008C
:10431400E872060010B50E4B1B681BB15B6863B1F5
:10432400984710BD0B4C412322460B490B480CF017
:10433400A6FC412120460CF099FC064C422322465F
:10434400074906480CF09BFC422120460CF08EFCE9
:10435400A8AF012084720600DC720600F05F06003C
:104364000473060010B538B118304FF0FF324FF027
:10437400FF3307F0D9FB10BD074C40F20733224648
:10438400064907480CF07BFC06480CF078FC40F228
:10439400073120460CF06AFC2073060050730600B7
:1043A400F05F06005072060010B518B1183007F01F
:1043B40051FD10BD074C40F20E3322460649074812
:1043C4000CF05DFC06480CF05AFC40F20E3120461D
:1043D4000CF04CFC2073060050730600F05F0600DE
:1043E4005072060010B504460DF008F928B96CB1F6
:1043F400236803B110335B7853B1082120460DF0D4
:1044040086F820460DF0FAF890B110BD2346F2E785
:10441400094C41F269632246084909480CF02FFC13
:1044240008480CF02CFC41F2696120460CF01EFC9B
:1044340020460DF034F8E8E758730600A073060030
:10444400F05F06005072060038B50446FFF78AFF95
:10445400002120460DF040F8002838D17CB32368B1
:104464007BB35A687AB392687AB31868B8B110F01B
:10447400F8FD78B3236803B15B689B68012120468B
:104484009847051E06DB002120460DF040F8204623
:104494000DF0CEF82046FFF787FF284638BD0F4CB5
:1044A40041F2147322460E490E480CF0E8FB0E4804
:1044B4000CF0E5FB41F2147120460CF0D7FB00250B
:1044C400E1E70025DFE70025DDE70025DBE76FF006
:1044D4007705DFE76FF00505DCE700BF58730600DA
:1044E400C8730600F05F060050720600002838D03A
:1044F400F8B50D460746002936D00846FBF742FEBC
:104504000646082833D81D4C07E02046721C29466D
:10451400083011F0CEF868B34434194B9C4208D8E3
:10452400174B9C4215D2BC42F6D0002CEDD0201D76
:10453400ECE7144C41F6C5032246134913480CF02A
:104544009EFB13480CF09BFB41F6C50120460CF082
:104554008DFB721C294607F10C0011F0E2F90020D2
:10456400F8BD6FF0150070476FF01500F8E76FF0B5
:104574005A00F5E76FF07700F2E700BFD8A70120F3
:104584001CA8012058730600CC730600F05F0600D7
:10459400EC64060010B584B004460DF086F870B1E2
:1045A4000C4A1368591C11600B4A092101A80BF02D
:1045B40013F901A92046FFF799FF04B010BD074A7B
:1045C4001368591C1160064A092101A80BF004F96B
:1045D400EFE700BFB0AF0120EC730600ACAF0120E1
:1045E400F473060070B54FF0FF324FF0FF332748E5
:1045F40007F09AFA264C002603E025460AE0013625
:104604004434244B9C4213D8224B9C4220D2002C8D
:10461400F3D0251D0023AB60EB602B7420460CF017
:10462400CAFF2B7A002BEAD12046FFF7B3FFE6E757
:10463400194C41F633132246184919480CF01FFB54
:1046440018480CF01CFB41F6331120460CF00EFB0D
:104654003EB10F4A9B1A144AA2FB0323B6EB931FE5
:1046640003D10A4807F0F6FB70BD0B4C41F6551315
:1046740022460E490A480CF002FB0D480CF0FFFAE2
:1046840041F6551120460CF0F1FA00BF54A7012061
:10469400D8A701201CA801205873060084730600C3
:1046A400F05F0600EC640600F1F0F0F0FC73060025
:1046B4005072060010B5124C00E04434114B9C4279
:1046C4000CD8104B9C4219D2032120460CF004FF55
:1046D4000028F2D12046FFF7B7FEEEE70A4C41F678
:1046E4006D13224609490A480CF0C9FA09480CF02E
:1046F400C6FA41F66D1120460CF0B8FA10BD00BFA1
:10470400D8A701201CA80120587306008473060052
:10471400F05F0600EC6406002DE9F0410C461546F6
:10472400012811D0022840F002812E21204610F0E9
:10473400D0FF00284BD0062623783A2B49D02046B8
:10474400FBF720FD00224CE0002111600F460B46D0
:10475400084619E02E2A32D0012807D9092B40F245
:10476400D180022802D9632B40F2CF80002800F0C8
:10477400CF80FF2B00F2CF806B54237813B3013129
:10478400C9B200231846013403291BD82278002A11
:10479400E0D02E2ADED0A2F13006F6B2092E00F2C5
:1047A400BD800130C0B2032800F2BB8003EB830359
:1047B4005B009BB21A4492B2303A93B2E3E70137FA
:1047C400BFB2C9E7032F40F0AF80002020E00826E5
:1047D400B2E70134B3E7613BDBB2052B00F2AD80F5
:1047E4000132824216DAA35CA3F13001C9B209296D
:1047F400F6D9462BEFD82E2BC0F09C802E3BDBB293
:10480400584921FA03F313F0010FE9D16FF01500B1
:10481400BDE8F081002704E0731EBB4200F39680DC
:104824000137B7423ADA002C00F08A802378002B53
:1048340000F089803A2B1FD01022002120460AF074
:10484400F7FFC0F307281022002120460AF0F0FFEA
:1048540048EA002825F817803A21204610F039FF4D
:1048640004460028D8D00134DAE705EB47020023D8
:1048740005F8173053700137B742F6DB3A2120466A
:1048840010F07FFF844203D0062E0BD0771E11E078
:10489400062E02D06378002BF6D10134062E15D0F3
:1048A4000020B5E70138F1E7002F52DB431E8442B4
:1048B40005D0184603783A2BF6D1013FF4E70134CA
:1048C400AEE7022E1ADC6FF01500A1E70026032ED6
:1048D40016DC002C40D02378002B40D00A22002183
:1048E40020460AF0A5FF06F10C03E8542E212046C9
:1048F40010F0EFFE04460028E3D001340136E6E769
:10490400002085E76FF0150082E76FF015007FE760
:104914006FF015007CE76FF0150079E76FF0150074
:1049240076E76FF0150073E76FF0150070E76FF02E
:1049340015006DE76FF015006AE76FF0150067E783
:104944006FF0150064E76FF0150061E76FF0150074
:104954005EE76FF015005BE76FF0150058E76FF046
:10496400150055E70110F8010B4BD3F80C3403F490
:104974008033014628B1084AD2F80C2402F001021F
:10498400027023B10B78012B03D000207047002064
:1049940070470120704700BF005000400048704736
:1049A40010B00120014BC01A40117047C8AF01205C
:1049B40030B583B005460C46FFF7F4FF01464023AB
:1049C40000932346054A06480DF012F8011E01DB48
:1049D40003B030BD2846A047FAE700BF3D1A0600E1
:1049E400C85A060010B5EFF31184202383F312880C
:1049F400BFF36F8F074A136823F00201116013F0AD
:104A0400010F04D084F31188BFF36F8F10BD0DF034
:104A140020F8F7E720B0012030B1002202604260A4
:104A2400826001224260704710B5064C4FF48573D2
:104A34002246054905480CF022F94FF485712046B9
:104A44000CF014F91474060044740600F05F0600B8
:104A540030B110B501280FD10846FFF785FF10BD0E
:104A64000C4BD3F81804C0F3004091B1D3F81834B8
:104A740003F003030B707047074C4FF49F732246F7
:104A8400064907480CF0FBF84FF49F7120460CF0E0
:104A9400EDF87047005000405C740600F8A1060071
:104AA400F05F060010B5C9B2012905D80CF048FF23
:104AB400806800F0070010BD054C7E23224605499E
:104AC40005480CF0DCF87E2120460CF0CFF800BF3E
:104AD400A0740600E0740600F05F060070B5054699
:104AE4001646CCB221460CF02BFF012C0DD83146D2
:104AF40008300CF036FF002806DB214628460CF06F
:104B040026FF43689847002070BD064C4FF4E873B5
:104B14002246054905480CF0B2F84FF4E8712046E6
:104B24000CF0A4F8A0740600E0740600F05F060020
:104B340038B505460C46FFF735FF014640220348C9
:104B4400FFF7CCFF01462846A04738BDC85A0600E7
:104B540070B582B00546012806D12D4BD3F81C341C
:104B640003F00303022B32D010F0A1FB044610B96A
:104B7400284B1B786BB9EFF31186202383F312883B
:104B8400BFF36F8F012484B9214B0222C3F8082399
:104B94000BE00026F7E7E4B130460CF0FAFA1C4BC0
:104BA400D3F81835DBB2012B17D00DF10701002023
:104BB400FFF74EFF0028EED09DF80730022B01D0FE
:104BC400012DE8D1F4B186F31188BFF36F8F02B0E1
:104BD40070BD01200CF047FFE1E70D4BD3F8043121
:104BE400002BE2D00A4B0022C3F80421D3F804219D
:104BF4000222C3F81825084A2021C2F88011012294
:104C04009A60D2E7024B0222C3F80423DFE700BF15
:104C14000050004052C8012000E100E000B587B018
:104C2400CDF800D0CDF804D00023029301230393E0
:104C340004AB049305936B46064A0CF0F5FE00287A
:104C440005DB4FF480420023684607F02FFC07B0D1
:104C54005DF804FB971A0600F8B506460022012108
:104C64000520FEF7CBF8114803F0D8FBD8B9074666
:104C740003F0F2FB002403E00123AB601C44E4B224
:104C8400012C0ED8214630460CF05AFE054621462A
:104C940030460CF062FE06490CF081F8031EEBDA94
:104CA4001F463846F8BD6FF00407FAE7194D0500B2
:104CB400307506002DE9F04186B005460E460CF02D
:104CC4003FFE0768D0F80480002440F8084B0CF03D
:104CD4007DFE314628460CF03AFE836804930A4B65
:104CE40003930A4B0293082301930094234604225E
:104CF400074920460CF0D2FE1FB1424631462846F1
:104D0400B84706B0BDE8F0811C75060004750600BE
:104D1400C45D060010B530B1012808D101210A484C
:104D2400FFF7C8FF02E008480CF0C7FE10BD074CAF
:104D34004FF441732246064906480BF0A0FF4FF496
:104D4400417120460BF092FFC85A0600A074060079
:104D5400F8A10600F05F060010B582B0EFF31184ED
:104D6400202383F31288BFF36F8F134A136843F031
:104D74000201116013F0010F09D1002384F311889B
:104D8400BFF36F8F9BB90CF05FFE02B010BD0DF145
:104D94000700FFF7E9FD9DF80730012B01D0002340
:104DA400ECE7FFF7FBFD0CF011FE0123E6E7002121
:104DB4000248FFF77FFFE8E720B00120C85A060049
:104DC40070B504461C4B0121D3E8EF2FC3E8E01F64
:104DD4000028F9D142B134B1631EDBB2012B1ED8D5
:104DE4002046FFF7B5FE70BD14480CF0B6FD05462D
:104DF400134E3046FFF710FE311F2846FCF740FCE7
:104E04000028E8DA0F4C40F2A32322460E490F484B
:104E14000BF035FF40F2A32120460BF027FF094C8D
:104E240040F2B52322460A4908480BF028FF40F215
:104E3400B52120460BF01AFFC4AF0120C85A060062
:104E4400B8AF0120A0740600B8660600F05F060043
:104E5400F8A1060010B504460A2806D0E1B20648B7
:104E640083685B689847204610BD034883685B6885
:104E74000D219847F2E700BF1C5B060010B5044CF7
:104E84002046FEF759FC2046FCF740F910BD00BF50
:104E9400594E050008B5054810F0E3F818B1FFF7BE
:104EA400EDFF002008BD6FF01200FBE71C5B06005D
:104EB40008B9024870470020704700BFE45A060052
:104EC40070B569B1044616460D464B68B3B1036824
:104ED40013B30CF02EFE50BBFEB96FF0150022E0A8
:104EE400164C4F232246164916480BF0C8FE1648A6
:104EF4000BF0C5FE4F2120460BF0B8FE0F4C50239B
:104F0400224612490F480BF0BAFE11480BF0B7FEC7
:104F1400502120460BF0AAFE32B123682B60256095
:104F2400636843B1002070BD6FF01500FBE7002EED
:104F3400F3D10020F7E765600020F4E788750600E8
:104F4400C4750600F05F0600D0750600E075060023
:104F5400F475060003685A090AD103F01F034FF0E1
:104F6400FF32DA4012F0010F02D0036007487047A5
:104F740010B5074C4FF474732246064906480BF0EB
:104F84007EFE4FF4747120460BF070FE00258440C1
:104F94000C76060040760600F05F060070B50E46FB
:104FA4001546016821B10C68ACB1A1B90C4612E0F8
:104FB4000C4610E0114C74232246114911480BF0A1
:104FC4005EFE11480BF05BFE742120460BF04EFE92
:104FD400234621461C4681B18A682A4004D04B6886
:104FE400002BE7D030469847002CF1D02368002BE3
:104FF400EFD0002CEDD12346EBE770BD8875060099
:1050040064760600F05F0600F47506002DE9F047AB
:1050140086B0884616469946446801F01F05237CED
:1050240045EA431520460CF0A6FD002867D0B6F5E6
:10503400001F2FD00DF10C0A00270397049749464F
:1050440030460CF0CDFD8DF80C00009701970297C7
:10505400CDF804A0E36823FA08F313F0010F02D19A
:10506400B6F1A07F1CD00DF117022946A06803F009
:10507400C5FD80B36A462946A06803F077FD002881
:1050840005DB01222946A06803F04EFE002006B08D
:10509400BDE8F0872946A06803F05EFE0020F6E72D
:1050A40028460CF0BFFD0028DDD10DF1170229467A
:1050B400A06803F0A3FD10F1160F03D00DF1170340
:1050C4000493D7E70DF11702414620460CF023FE66
:1050D4000028F3DADBE79DF81710A06803F0EEFD73
:1050E4000028C7D0074C40F2F1132246064907486E
:1050F4000BF0C5FD40F2F11120460BF0B7FD6FF047
:105104008500C4E7707606009C760600F05F060012
:10511400F0B589B00E461446456801F01F072B7C94
:1051240047EA431710460CF02BFD8DF81E0040F2A1
:1051340006332340B3F5837F51D016D8062B4AD0CB
:1051440006D9B3F5807F0DD101238DF81D3024E0FD
:1051540003B3022B03D104238DF81D301DE06FF03F
:10516400150036E06FF0150033E040F2022293425E
:1051740039D0B3F5407F03D103238DF81D300CE003
:10518400B3F5007F03D102238DF81D3005E06FF0E5
:1051940015001EE000238DF81D300123B34014F4E4
:1051A400002F24D06A68936028460CF0E4FC20B3F6
:1051B4000DF11F023946A86803F020FD064614F4D9
:1051C400403F33D13946A86803F060FD002E67D014
:1051D400002009B0F0BD06238DF81D30DDE707235C
:1051E4008DF81D30D9E705238DF81D30D5E714F46B
:1051F400802FD9D06A68D360D6E7C4F340438DF8D2
:10520400083014F4803F0CBF012300238DF81030C4
:10521400002401940DF11D0300930DF11E0304AA53
:1052240002A938460CF00DFD2046D2E702AA00235D
:1052340002930393049305930693059204AA3946B3
:10524400A86803F093FC00281BDB14F4003F1AD079
:105254009DF81D308DF8103014F4803F0CBF0123ED
:1052640000238DF811309DF81E308DF81230002384
:1052740004AA3946A86803F091FC0028A6DA0020A5
:10528400A7E70020A5E700230493059306930DF1F7
:105294001E03049304AA3946A86803F067FCECE7EC
:1052A4009DF81F10A86803F009FD002891D0054C53
:1052B400FC232246044905480BF0E1FCFC2120466E
:1052C4000BF0D4FC707606009C760600F05F0600B6
:1052D40038B50446456828460CF04DFC20B90E4903
:1052E40020460CF036FC38BDA86803F0B7FC002853
:1052F400F5D10021A86803F099FC50B900220749B0
:10530400A86803F063FC002205213120FDF776FD37
:10531400E5E76FF00400E6E7111C0600FD1C06003B
:1053240003685A090AD103F01F034FF0FF32DA4031
:1053340012F0010F02D003600748704710B5074C04
:105344004FF474732246064906480BF098FC4FF458
:10535400747120460BF08AFC002584400C7606000C
:1053640040760600F05F0600F0B583B001900C466D
:1053740017461E4601A8FFF7D3FF0199803150F864
:105384002130094D1D4044EA470444EA86039DF850
:10539400202043EA02239DF8242043EA02432B43BE
:1053A40040F8213003B0F0BDF0F8FCFF2DE9F04FD8
:1053B40085B080468B460392002423E04FF0FF36ED
:1053C40038E0039BC3F80C65012702973946B6F110
:1053D400FF3F15D0B1F1FF3F40F0E48058F80A30A8
:1053E40013F4004F40F0E280029D00220192CDF8B8
:1053F4000090C3F341233A4629463046FFF7B4FFF1
:105404000134E4B25C4580F0D3804FEA840A58F852
:105414002430C3F3C725C3F3C322C3F3080615F02E
:10542400080540F0C780674911F8029040F2FF1266
:105434009642C3D01B0E192B00F2BF8001A252F872
:1054440023F000BFC7530500B1540500C154050043
:10545400CF540500DF540500EF540500FD5405004A
:10546400BF550500BF550500BF550500BF550500D4
:105474000D55050023550500BF550500BF55050012
:10548400BF550500BF550500BF550500BF550500B4
:10549400BF550500BF550500BF550500395505002A
:1054A4004D5505006155050075550500039BC3F86E
:1054B40014652F4602954FF0FF3188E7039BC3F82C
:1054C400086501270297394681E7039BC3F81065F5
:1054D4002F4602954FF0FF3179E7039BC3F8086527
:1054E4002F4601230293002171E7039BC3F80C6547
:1054F4000127029700216AE7039BC3F810652F4632
:1055040002954FF0FF3162E7039BC3F80865B9F1D8
:10551400000F37D02F4602954FF0FF3157E7039B1A
:10552400C3F80C65B9F1000F34D02F4602954FF043
:10553400FF314CE7039BC3F8606558F80A10C1F3C8
:1055440000410127029742E7039BC3F8646558F8BA
:105554000A10C1F300410127029738E7039BC3F8FF
:10556400686558F80A10C1F30041012702972EE735
:10557400039BC3F86C6558F80A10C1F30041012776
:10558400029724E74F46CDF808904FF0FF314FF0D3
:1055940006091CE74F46CDF808904FF0FF314FF055
:1055A400060914E730460CF0EFFB17E701271CE768
:1055B400002004E06FF0150001E06FF0850005B0F5
:1055C400BDE8F08FC8760600F8B505460E46476874
:1055D4000FF06DFE20B9154B1B7843B1002300E09A
:1055E400012353B928460CF068FC044611E001235A
:1055F400F7E784F31188BFF36F8FEFF3118420234F
:1056040083F31288BFF36F8F28460CF007FC002841
:10561400EFD0BB691E700122B96928460CF012FC58
:1056240084F31188BFF36F8FF8BD00BF52C8012007
:1056340030B585B00D460023C0F8A031C0F88C30D9
:1056440001F1080200F10C0100F590700DF0DBFD92
:10565400041E06DB287A02F0C9FE0024204605B0A9
:1056640030BD054B029300200190009003460122B7
:1056740002490CF07EFCF1E7D0760600445E060099
:1056840038B5044645680121E8680CF03BFC6368C2
:1056940019682B69C1F824356A7DA87D2B7D0243E6
:1056A4001343C1F86C3520460CF072FC00B138BDD0
:1056B400024920460CF070FBF9E700BF631F0600A7
:1056C40021F07F4100F5A870014B43F8201070478A
:1056D400005001404FF480338340024AC2F84433FF
:1056E400704700BF005001404FF480338340024AAA
:1056F400C2F84833704700BF00500140014BD3F853
:1057040004057047005001402DE9F84305468946D9
:105714009046FFF7E9FF28460CF0E0FC4E460327CD
:1057240010E0FFF7EBFF044649460CF0C6FCB0F569
:10573400000F26D928460CF0D1FCB8F1000F22D175
:105744003E19013731462846FFF7BAFF2846FFF7CE
:10575400C1FFFFF7D3FF0446C11C30460CF0ADFC7B
:105764000A4B98420AD928460CF0ABFC0028D8D141
:10577400B8F1000FE4D06FF0150000E00020BDE8A0
:10578400F8830020FBE76FF01500F8E7FDFF7F00CA
:10579400034B044AC3F80823C3F84823704700BFE7
:1057A4000050014003000F00B1F5805F02D2C0F841
:1057B4000815704710B5064C4FF4EA7322460549A4
:1057C40005480BF05CFA4FF4EA7120460BF04EFAF0
:1057D4005077060084770600F05F06004FF48033AC
:1057E4008340124AD2F80423134201D100207047A7
:1057F40010B5044601238340DB430D49D1E8EF2F64
:1058040002EA0300C1E8EC0FBCF1000FF6D122FA62
:1058140004F313F0010F03D120460CF052FC18B12D
:1058240020460CF05BFC012010BD00BF005001407D
:105834003CB0012010B5012383406FEA030C0C4AED
:10584400D2E8EF1F01EA0C0EC2E8E4EF002CF7D116
:105854004FF4803282400748C0F80823BFF35F8FBB
:10586400BFF36F8F0B4214BF0120002010BD00BF97
:1058740040B001200050014038B514461046194686
:105884000CF038FC02460D490B68E01A1B184C68F2
:1058940044F100040B604C60A2F50013B3F5400F13
:1058A40009D2074B1B68190A1B06D41841F10005DD
:1058B400044BC3E9004509F0B9F838BD78A80120C4
:1058C40044B0012080A8012001B97047012383401E
:1058D4000D4AD2E8EFCF4CEA030CC2E8E1CF00292D
:1058E400F7D14FF480338340084AC2F80433084B9D
:1058F400D3E8AF3FC34013F0010FE6D0054B4FF49C
:105904000012C3F80021E0E740B00120005001403C
:105914003CB0012000E100E038B50D4B1C68250ABD
:105924002406BFF35F8FFFF7E9FE0346001945F134
:105934000001B3F5801F0AD2064BD3E9002390423D
:1059440071EB030303D210F1807041F1000138BD03
:1059540044B0012080A801202DE9F04782B004461C
:10596400FFF73CFF10B902B0BDE8F087FFF7D4FFA2
:1059740082460D460CF0C1FB0646154B03EB04139F
:10598400D3E90289C24575EB09050BD200253046DF
:105994000CF0BBFB002DE6D0009742464B46204658
:1059A400A847E0E70A4A230102EB0411D5584F68DF
:1059B4000020D0504FF0FF324FF0FF33C1E90223F3
:1059C4002046FFF791FE20460CF088FBDFE700BF7E
:1059D40068A8012010B50D4BD3F8043313F0020F5F
:1059E40003D10024002C0BDD10BD022107480CF06C
:1059F4002EFB0028F5D0064A136801331360F0E744
:105A04002046FFF7A9FF0134ECE700BF0050014036
:105A140044B001202DE9F041064614461D469DF888
:105A24002080104619460CF065FB0746FFF774FF0B
:105A3400A04271EB050319D2201A65EB01011B4B3F
:105A4400984271F100012BD2194B03EB0613D3E9F1
:105A54000223AB4208BFA24201D1002014E0424617
:105A640039463046FFF750FE70B117E0B8F1000F29
:105A740019D10123B3400F4AD2E8EF0F1843C2E80B
:105A8400E10F0029F8D10020094B320103EB06167F
:105A9400C6E9024506999950079B7360BDE8F081F9
:105AA4006FF01500FAE76FF01500F7E701008000CA
:105AB40068A801203CB0012030B585B0FFF768FE2E
:105AC40000211E48FFF770FE0023002B25DD1B4C30
