:020000040000FA
:10000000F80B0020A940000011410000718C000095
:10001000918C0000B18C0000F18C0000D18C0000AC
:10002000000000000000000000000000616D000002
:1000300021410000000000000D6D0000294100007A
:10004000000000000000000000000000C971000076
:10005000000000003141000000000000000000002E
:100060003941000041410000494100005141000078
:10007000000000005941000061410000694100009A
:100080007141000079410000000000000000000004
:1000900081410000894100000000000000000000D4
:1000A00091410000000000000000000099410000A4
:1000B000A1410000A9410000B1410000B941000088
:1000C000C1410000C9410000D1410000D9410000F8
:1000D000E141000000000000E941000000000000D4
:1000E000F141000000000000F941000000000000A4
:1000F00001420000000000000000000000000000BD
:1001000000000000094200000000000000000000A4
:1001100000000000000000000000000000000000DF
:10012000000000001142000000000000000000007C
:1001300000000000000000000000000000000000BF
:100140001941000000015F5F02000000FE0B00008B
:10015000F56D000000040000000000000000000039
:100160000000000000000000000000000100FFC3CC
:10017000000000C4C0B100200000000001015F5F6A
:10018000030100001F010000F50200000020000034
:10019000000000000100000001000000000000005D
:1001A0000000000000000000000000005845002092
:1001B0000000000070000000BC230100800000006F
:1001C000000F000001000000150300000100000006
:1001D00001015F5F000100001F0000007534000096
:1001E0000007000000000000030000000100000004
:1001F00000000000000000000000000000000000FF
:1002000000260020000000008000000070000000B8
:1002100040000000C823010060000000010700004A
:1002200001000000353300000100000001015F5FA4
:10023000010100001F01000025110000200700003F
:1002400000000000000000000100000000000000AD
:1002500000000000000000000000000058650020C1
:1002600000000000E823010070000000020F000001
:1002700001000000291100000100000001015F5F82
:10028000040100001F0100009D290000000500007E
:10029000000000000000000001000000000000005D
:1002A000000000000000000000000000786C00204A
:1002B00000000000102401004000000005070000BD
:0C02C00001000000092700000100000000
:1002E0000346034A0020D2F804241A60704700BF76
:1002F0007881002008B500F083F900B108BD00F056
:10030000C3FE00F0CFFE0028F8D1BDE808400BF096
:1003100039BD00BF2DE9F04F0468A5B0002C40F0B6
:10032000508107462022214604A808F0AFFD202274
:1003300021460CA808F0AAFD4022214614A808F086
:10034000A5FDFA6907F11C034FF00409009372B987
:10035000032153F8040D4A1E30B93AB1114653F83F
:10036000040D4A1E0028F8D0894600E09146FA6A3A
:100370004FF0040B07F12C0372B9032153F8040D5D
:100380004A1E40B9002A00F08E80114653F8040D31
:100390004A1E0028F6D08B46B9F1000F00F0A48069
:1003A00040230021786814AA08F0CEFD402840F0D0
:1003B0009B8014ABB9F1010FCDE9043000F0FF8050
:1003C0000124DFF830A204AD07F110080AF58056C9
:1003D000CDF804B058F8043FD6F80004D91C21F039
:1003E00003011A1D0AEB000B00EB010CC0F5A05E27
:1003F0005BD8714559D8214678685A46C6F800C47A
:1004000008F0A2FD0134A145E86045F808BFE1D13C
:10041000DDF804B0BBF1000F00F0D680D6F8004440
:100420000CA821464FF0000EA2468446009D714A5A
:1004300005EB8B0855F8040FC1F5A059C31C10F14A
:10044000040F23F0030301EB02043ED84B453CD8D4
:100450004545CCE900404FF0010E19440CF1080C61
:10046000E8D10023BA68C6F80014DDE9041040287A
:10047000CDE90233C6F8042440F0B3800B8D180A8E
:10048000032800F09680012831D00968831ECDE949
:100490000212092B00F2A880DFE803F0538B5A61A7
:1004A000686F767D844C934676E70021024651487A
:1004B000C6F8041408F0EAFC00236FF08C08C6F8B4
:1004C0000034404625B0BDE8F08F5446BEF1000F21
:1004D00002D00C46C6F80014002122464548C6F852
:1004E000041408F0D3FCE7E76FF08308E9E704A8F9
:1004F0000CA900F0BDFD8046BBF1000F0BD000241D
:100500000CAD21466B68786855F8082B013408F06B
:1005100025FDA345F5D10024D6F800242146354811
:10052000C6F8044408F0B2FC4046C6F8004425B0C2
:10053000BDE8F08F04A80CA902AA00F0EFFD8046E8
:10054000DAE704A80CA902AA00F0CEFC8046D3E7A3
:1005500004A80CA902AA00F0DFF98046CCE704A8A1
:100560000CA902AA00F0EEF88046C5E704A80CA981
:1005700002AA00F0A5FA8046BEE704A80CA902AAC8
:1005800000F0C4FB8046B7E704A80CA902AA00F05B
:10059000C1FB8046B0E704A80CA902AA00F0BEFB8C
:1005A0008046A9E704A80CA902AA00F0B3FD804682
:1005B000A2E704A80CA900F0C9F880469CE70E4EFB
:1005C00028E76FF085087CE7BA68DDE90413402B63
:1005D000CDE902BBC6F804243FF450AF6FF08008A9
:1005E00099E76FF080088AE7044808F0CBFE6FF0C7
:1005F000850881E77871002078810020CC2D0000EB
:1006000008B54FF4C0520021024808F03FFC00201A
:1006100008BD00BF582D002000232DE9F0430C68D1
:1006200083B0019354BB17465AB38046146001A8A7
:100630008946FFF755FE58B90346134E56F8235026
:100640002246C033013435B1082CF7D16FF0840055
:1006500003B0BDE8F083012102EB42021302F15026
:10066000103306EB02221E44019BC2F8088053603F
:10067000C9F800403E6003B0BDE8F0836FF0880029
:10068000E6E76FF08600E3E7582D00200023F0B581
:10069000046883B0013C072C019303601FD801A8B4
:1006A000FFF71EFE0546B8B90F4E04EB44042702BF
:1006B000F35906EB0424012B11D16268019B9A4285
:1006C0000DD107F110004FF43C722946304408F078
:1006D000DDFBC4E90155F551284603B0F0BD6FF0CC
:1006E0008605284603B0F0BD582D0020002370B5C4
:1006F0004C1E82B0072C01931BD81546EAB1064662
:1007000001A8FFF7EDFD90B90D4A04EB4404230264
:10071000D15802EB042401290BD1A168B14208D1C0
:10072000646801998C4204D1103313442B6002B0E9
:1007300070BD6FF0880002B070BD6FF08600F6E704
:10074000582D00206FF08500704700BF2DE9F04361
:100750004FF00009D0F8008085B0B8F82860054651
:10076000B6F5407F0F46CDF8089061D040F20133D6
:100770009E426FD040F202339E4218D1D1F80090D1
:10078000B9F1000F00F08D804B68032B40F2898097
:10079000D8F8083049460320C9F8003002AAFFF70C
:1007A0003BFF044618B3204605B0BDE8F0830320A4
:1007B000D8F8081002AAFFF799FF6FF44173F318F5
:1007C000022B044622D8D7F80090B9F1000F68D068
:1007D0007B68032B65D9D8F80830C9F800300028A9
:1007E00046D040F207339E42DDD10024DBE7D8F843
:1007F000041002980AF0CEF904460028F5D04846C5
:10080000FFF744FF204605B0BDE8F0830028CAD1B9
:10081000A6F20336042E7BD8DFE806F003554631F6
:100820003C000298D5E902120AF0DAF90446BAE768
:100830000C464B68D8F80400009354F8043BD5E903
:10084000021201940AF046FA04460028CDD0C7F8F7
:100850000490A8E7D5E90434D8F80400D5E90212D9
:1008600000940AF047FA0446204605B0BDE8F0833C
:10087000A6F20636012E19D8DFE806F0030E4FF077
:100880000009D5E9021202980AF0DAF904460028B4
:1008900089D1B4E74FF0000902980AF06FF90446D5
:1008A000ADE76FF080047EE74FF00009D7E9021250
:1008B000029807F10C030AF0AFF9044600289ED015
:1008C0000023FB606FE700233E680393002EE8D00F
:1008D0007B68032BE5D9AB68002BE2D0EA68032ADA
:1008E000DFD91B6831460320336003AAFFF794FE6B
:1008F000044600287FF457AFDDE902010AF024FA2C
:10090000044600283FF44FAF3046FFF7BFFE4AE7EA
:100910006FF0850447E700BF2DE9F04F0546134609
:100920004FF00009D5F800A089B0BAF828700DF191
:10093000180840460E4612685968CDF8149000F029
:100940009FFBB7F5806F00F08E8040F201439F421D
:1009500000F09E80A7F2024B1FFA8BF3012B1DD8EB
:10096000D6F80090B9F1000F00F0A4807368032B53
:1009700040F2A080DAF8083049460220C9F8003079
:1009800005AAFFF749FE044630BBBBF1050F00F294
:100990009480DFE80BF05D524B3E34290220DAF8F8
:1009A000081005AAFFF7A2FEA7F20543022B044692
:1009B00016D8D6F80090B9F1000F7BD07368032BDE
:1009C00078D9DAF80830C9F800300028DDD040F2D4
:1009D00007439F4200D10024204609B0BDE8F08FB4
:1009E0000028F9D18146D0E705980AF0CFF90446EE
:1009F0004846FFF74BFE204609B0BDE8F08F05984A
:100A0000D5E902120AF088FA04460028E4D100244D
:100A1000EEE7059806F10C03D6E902120AF004FA93
:100A200004460028F3D00023F360D5E70598D5E904
:100A300002120AF0D9F90446CEE7DAF80430059834
:100A400098E806000AF0C2F904460028C3D0CFE7B0
:100A5000DAF80430059898E806000AF0A9F9044687
:100A60000028B8D0C4E77368DAF80420029333682A
:100A7000311D0193EB680093AB68039198E8030084
:100A80000AF088FA04460028A5D0C6F80490A3E727
:100A9000D5E90431DAF80420CDE90131D5E9023194
:100AA000009198E803000AF08BFA0446204609B04A
:100AB000BDE8F08F6FF080048EE76FF085048BE760
:100AC0002DE9F04F064614464FF00009D6F800A075
:100AD0008DB0BAF828700DF1280840460D4612680E
:100AE0006168CDF8249000F0CBFAB7F5C06F52D012
:100AF00040F201639F4270D0A7F2026B1FFA8BF3A2
:100B0000012B1FD8D5F80090B9F1000F00F0F78045
:100B10006B68032B40F2F380DAF808304946052071
:100B2000C9F8003009AAFFF777FD044658BBBBF1AE
:100B3000090F00F2E780DFE80BF075808B979EA528
:100B4000ACBCD06D0520DAF8081009AAFFF7CEFD7D
:100B50006FF4C163FB18022B044618D8D5F8009037
:100B6000B9F1000F00F0CB806B68032B40F2C78017
:100B7000DAF80830C9F800300028D8D040F20B630A
:100B80009F4200D1002420460DB0BDE8F08F002820
:100B9000F9D18146CBE72B1DD6E90247D6E90410EF
:100BA000DAF80420D5E900CECDE90204CDE906E368
:100BB000CDE9047C0191DAF82430009398E8030031
:100BC0000AF114030AF026FA04460028DAD0204677
:100BD000C5F804900DB0BDE8F08F2B1DD6E9024793
:100BE000D6E90410DAF80420D5E900CECDE90204F4
:100BF000CDE906E3CDE9047C0191DAF824300093D5
:100C000098E803000AF114030AF060FA0446002889
:100C1000B8D0DCE709980AF0D7FC04464846FFF74D
:100C200035FDB0E7DAF80430099898E806000AF0D4
:100C3000A9FA04460028A5D0F0E7DAF804300998AC
:100C400098E806000AF0ACFA044600289AD0E5E7D6
:100C500009982B1DD5E900120AF0E6FA044600288F
:100C600090D000236B608EE70998D6E902120AF053
:100C7000A5FA044687E70998DAE903120AF062FB4D
:100C8000044680E70998D6E902120AF095FB04466B
:100C900079E72C46D6E902126B680998009354F85C
:100CA000043B01940AF0C4FB044600283FF46AAFF9
:100CB000D7E705F10C02D5E9023102926A69CDE964
:100CC00000310998296905F114030AF0F9FB04467B
:100CD00098B10023EB606B6155E7D6E90231EA6811
:100CE000CDE900310998A96805F10C030AF038FC38
:100CF000044610B10023EB6045E700248EE76FF057
:100D0000800440E76FF085043DE700BF6FF0850089
:100D1000704700BF6FF08500704700BF2DE9F047B6
:100D20000746154600233E688EB0B6F828A00DF1A0
:100D300014084046894612686968049300F0A0F9D7
:100D4000BAF5106F5CD040F6011292451DD1D9F86A
:100D50000050002D00F0C180D9F80430032B40F280
:100D6000BC80B368294604202B6004AAFFF754FC1A
:100D7000044630B9716804980AF070FD044608BB57
:100D8000002420460EB0BDE8F0870420B16804AA14
:100D9000FFF7ACFC0446C8B140F60A139A45F0D1FF
:100DA000D9F80050002D00F09880D9F80430032BBA
:100DB00040F29380B3682B60002CE1D104980AF0D4
:100DC00017FC04462846FFF761FCDAE7AAF602138F
:100DD000082B00F2858001A252F823F0C30E000018
:100DE000290E0000350E0000450E0000550E0000D3
:100DF000650E00007D0E00008B0E0000A10D0000AE
:100E000009F1040370680393D9E900130293D7E949
:100E10000232CDE9002198E806000AF077FE044688
:100E200020460EB0BDE8F087316B04980AF000FC54
:100E30000446A6E7718D0498D7E902230AF062FD03
:100E400004469EE7718D049898E80C000AF0A2FD14
:100E5000044696E7718D0498D6E90C230AF05EFDEE
:100E600004468EE7D7E90232718DCDE9003204984D
:100E700098E80C000AF0DEFD044682E70498D9E900
:100E800000120AF0E7FB04467BE7D9F8006026B3BE
:100E9000D9F80430032B20D9B968F1B1FA681C2ABB
:100EA0001BD107A807F0B6FF686807A900F00AF988
:100EB0004246049907A80AF0FFFB059B04463360ED
:100EC0005FE7D9F8001041B1D9F80430042B04D100
:100ED00004980AF0A3FB044653E76FF0800450E740
:100EE0006FF085044DE700BF2DE9F041144605463B
:100EF0008EB003AF126838460E466168D5F80080A0
:100F000000F0BEF840F20322B8F82830934203D034
:100F1000A3F50272012A10D8A968002900F0968072
:100F2000EA681C2A40F0928007A807F073FF606807
:100F300007A900F0C7F8B8F82830A3F50073092B0B
:100F400000F29380DFE803F0152A393F4F556471B2
:100F500077053568002D79D07368032B76D939462B
:100F600007A80AF04FFE0446A0B9039B2B6000249B
:100F700010E007AA97E80300356809F06DFB3368B5
:100F80000446002B62D072681C2A5FD8284607A945
:100F900007F040FF20460EB0BDE8F0813468002C19
:100FA00054D07368032B51D9D7E900013A460BF0AE
:100FB00035F9039B23600446ECE797E803000BF048
:100FC00065F90446E6E73468D5E90412002C3DD003
:100FD0007368032B3AD93B4607A809F01BFC039B17
:100FE00023600446D6E797E8030009F0E3FA0446D5
:100FF000D0E7344697E8030054F8042B7368009454
:1010000009F062FB04460028B1D000237360C1E7F9
:10101000344697E8030054F8042B7368009409F0F1
:10102000C5FB04460028F0D1A1E797E803000BF0C8
:1010300059F90446AEE7002205A81146356800F0CC
:101040001FF8336813B17368032B02D86FF0800464
:10105000A0E705AB07AA97E8030009F0BBFC04462C
:10106000002897D1059B2B6081E76FF0850491E7FD
:10107000D1E900010AF098BD0FB4002004B0704718
:10108000C0E90021704700BF10B5044C0F22204674
:10109000034907F0BFFE204610BD00BF00A6002098
:1010A000F42D000008B54FF40251044802F032F864
:1010B000034808F097F9002008BD00BF8085002094
:1010C000791000008861704770B584B06C4684E880
:1010D0000300002403A816461D46039407F08EFF64
:1010E000A0B12146009B039C03E0884204F1200448
:1010F0000CD0226801319A42F7D10020D4E90223B2
:1011000021693160C5E9002304B070BD6FF08B0028
:1011100004B070BD6FF08500704700BF6FF08500B0
:10112000704700BF00F0A8B86FF47A72F0B503689A
:10113000044613448DB0032B00F28480DFE803F0F3
:101140005A3315020369082B79D10021406808AA97
:1011500007F0FAFE082872D1DDE90823A06800F044
:1011600023FA054628460DB0F0BD0369082B66D169
:10117000066A0C2E63D10021406806AA07F0E4FE3F
:1011800008285CD1DDE9062308AF0097A06800F0CD
:10119000D5F9054600284FD1014633463A466068E6
:1011A00007F0DCFE48E00369082B48D14569042DAF
:1011B00045D10021406808AA07F0C6FE08283ED1A4
:1011C0002B460121606806AA07F0BEFE042836D12E
:1011D0006568226A069B1D49A068CDE90032DDE9F9
:1011E00008230D6005A9029100F040F90546284644
:1011F0000DB0F0BD0369082B21D18569042D1ED1E6
:101200000021406808AA07F09FFE082817D12B4646
:101210000221606806AA07F097FE04280FD16568CE
:101220006369069A0949A068CDE90032DDE908231F
:101230000D6000F0A7F8054628460DB0F0BD6FF030
:101240008005F9E76FF08505F6E700BF14A60020DA
:10125000024603480B460068012107F075BE00BF37
:1012600014A60020024603480B460068002107F040
:1012700075BE00BF14A6002030B53A4B85B09D6AFC
:10128000A8470369042B6AD1A847374C8368A36039
:10129000A84703461B7D01A8237605F05FF80028C8
:1012A0005DD1A1689DF80C30019A01FB03F36260E7
:1012B000029AE360B2FBF3F321462C4A2C482382C6
:1012C00000F0E8FA08B105B030BD294800F018FB7D
:1012D000002836D1A8470369042B40D1A847254CE4
:1012E0008368A360A84703461B7D01A8237605F009
:1012F00025F8002833D1A1689DF80C30029A01FB33
:1013000003F3B2FBF3F50199184A61601A482146CC
:10131000E360258200F0BEFA0028D4D1164800F020
:10132000EFFA0028CFD0154808F02CF8124800F04A
:1013300005FB0028C7D1104805B0BDE8304000F0DB
:10134000DFBA0F4808F01EF8094800F0F7FA002845
:10135000B9D1074800F0D4FA0028BBD0B3E76FF04A
:101360008000B0E7C88700003C2D0020542E00000C
:1013700030A60020202D002018A600202C2E0000D2
:10138000042E00002DE9F04F52EA030187B0DDE999
:1013900010545BD0072C56D804920390042203A962
:1013A00006462C48059307F035FD082204A92A4873
:1013B00007F030FD294F2A4A03982A4B2549B0F5FA
:1013C000807F14BF104618463A4600F0B9FAA0B321
:1013D00010F18C0F2ED1234A214B44F44034B6F542
:1013E000807F0CBF91469946C7E901540026DFF87B
:1013F0007880DFF868B0DFF85CA005E0BB682D1BE3
:1014000023F44033BB6015D0B5F5006F2C4628BFE0
:101410004FF4006440462146FFF71AFF009623462A
:101420005A4651464846CDF8048000F09DFA2644BD
:101430000028E3D007B0BDE8F08FBB68DB07CAD552
:101440006FF08400F6E76FF08500F3E76FF0860039
:10145000F0E700BF54AE002058AE002048AE002098
:1014600030A6002018A6002048A6002011462DE92D
:10147000F04751EA030286B0DDF838804FD00446C9
:10148000CDE90413042203A92648039407F0C2FC03
:10149000082204A9244807F0BDFCDFF890A00398B7
:1014A000DFF88C90234EB0F5807F14BF504648463D
:1014B00032461C4900F044FA054660BB3768474590
:1014C0002DD30F9BA7EB08079F4228BF1F46109BF9
:1014D000B4F5807F18BFD146174EDFF848A01F60D3
:1014E00005E021463046FFF7BDFE3F1B13D0B7F5A0
:1014F000006F3C4628BF4FF40064434651464846BF
:101500002246009600F04AFBA04405460028E8D099
:101510000023109A1360284606B0BDE8F0876FF0EC
:101520008605F8E754AE002058AE002030A6002013
:1015300018A6002048AE002048A6002030B585B08F
:10154000CDE901021A4308BF6FF08600089C03939F
:101550001ED004220F480DEB020107F05BFC0822AD
:101560000D480DEB020107F055FC0C4D0C4A01989B
:101570000C4B0849B0F5807F14BF104618462A4628
:1015800000F0DEF920B92B68AA68C4E90033A26034
:1015900005B030BD54AE002058AE002048AE00204B
:1015A00030A6002018A60020F0B585B0CDE90102D4
:1015B0001A4308BF6FF0860003932AD00422044622
:1015C0000DEB0201144807F025FC082213480DEB2F
:1015D000020107F01FFC124F0198124E124DB0F598
:1015E000807F14BF384630462A460B4900F0A8F9E0
:1015F00078B9AB68DB070AD4B4F5807F14BF3846EE
:101600003046054905B0BDE8F04000F0B5BA6FF0CE
:10161000840005B0F0BD00BF54AE002058AE0020DD
:1016200030A6002018A6002048AE002008B50346CA
:101630001B6800209B689847002818BF6FF0910036
:1016400008BD00BFF8B51D46036804465B680E463A
:101650001746984703460B4A6068C3F3410312F8E4
:1016600023200544069BE06824683946B3FBF2F268
:1016700000FB0650A469A0470028B4BF6FF091009A
:101680000020F8BD682E00000020704770B50446A9
:10169000C06898B10E46002504E0D4E902301D442C
:1016A000A8420BD9D4E900232B4400FB0630D369B0
:1016B00098470028F1D06FF0910070BD002070BDF8
:1016C0002DE9F04782B00A9D1DB9002002B0BDE8A7
:1016D000F08717464268064613440268C06852689D
:1016E00000FB013490472A4BC0F3410013F82090CF
:1016F000B4FBF9F809FB08F8444542D033680122ED
:1017000040465B6901A9984700283DDBA4EB08032C
:1017100001AAD1182B4499452ED8A9EB040AC2443A
:101720005246384607F076FBB5EB0A05CDD004EB00
:101730000A083268A945536910D84046B5FBF9F844
:1017400007EB0A014246984700281DDB09FB08F217
:10175000AD1ABAD09244326804EB0A085369404685
:10176000012201A9984700280EDB2A4601A907EBB0
:101770000A0007F04FFBA8E72A46384607F04AFB65
:10178000A3E74FF0000AD4E76FF091009EE700BF97
:10179000682E00002DE9F04F03688FB006AA0446BA
:1017A0000D46DF6800F022FC10B10FB0BDE8F08FED
:1017B0000BA800F09BFF0146002865D1DDE9066A11
:1017C000202206A8DDF8249007F060FB2946204679
:1017D00006AA00F091FD0028E7D12268D38A63B3FE
:1017E000834680460CE05946204606AA00F084FD58
:1017F0000028DAD12268D38A0BF1010B5B451DD991
:101800005D45F8D05946204606AA00F0EFFB0028B7
:10181000CBD1069BB342E6D10BA800F067FF0028AE
:10182000E1D1079B5345DED99F4228BF1F46A3EB5A
:1018300009030793099B9844D5E79846B9F1000F2F
:101840000DD14946204603AA00F082FC0028ACD105
:101850004946204603AA00F0DDFE68B1A5E73B46F5
:101860004A4631462046CDF80480CDF800A000F06D
:10187000B7F9002899D11EB1204600F0B3FE30B967
:10188000204600F09DFB90E76FF08B008DE76FF036
:1018900083008AE780B370B50C4651B3154642B356
:1018A0000B8A012B25D9032B23D0CA8A022B06468B
:1018B000C968A08A4FEA421212D1A1F114039B1AFF
:1018C000834216D3884214D81432914211D318227D
:1018D0000021304607F0DAFA0020C6E9004570BD65
:1018E000884206D80C20023B083200FB03238B42BF
:1018F000EDD96FF0860070BD6FF08600704700BFB5
:1019000030B583B0054600F013FE044610B1204602
:1019100003B030BD4FF08071284601AA00F0F0FB03
:1019200030B110F18C0F18BF0446204603B030BD13
:1019300028460199FFF72EFF0446E8E700F0FABCBD
:1019400010B58AB0144602AB01AA00F09FFB40B963
:10195000DDE90412BDF81830C4E90012A3600AB032
:1019600010BD6FF08B00FAE72DE9F04192B004460C
:101970000F461546002120220AA81E46DDF8608089
:1019800007F084FA4FF6FF73CDE90533002D00F020
:10199000EF80AB68B3F1807F80F0EA8023686A68EB
:1019A0005B8A013A1A445B421A406A603946204613
:1019B0000AAB05AA00F06AFB002800F0A38010F132
:1019C0008C0F40F09C80AB68DB0340F198804FF6B1
:1019D000FF73069A9A4240F0A6802368998A6B6842
:1019E0008B4200F2C5800AA8A9680290059807AD4D
:1019F000821A06A818BF012200910190394620469C
:101A0000039500F00DFC002879D1002E31D0236819
:101A10005B8A5A1E12EA080F40F08E80771E1F4420
:101A20005B421F400C9B984500F286803A46414637
:101A30000D9800F04FFE00287ED1199B2946019396
:101A40002046434600970AAA00F044F9002873D1C3
:101A50000C9A06EB080393420A992046079F88BF19
:101A60000C9300F0A7FA394607900A9A204600F036
:101A70003FFC2A4620460A9900F0CCFD00285BD1A5
:101A8000069920460AAA00F037FC0146002853D1E7
:101A9000DDE905539D4228BF1D4620462A4600F039
:101AA0002DFD002848D14FF6FF72059B934210D0C0
:101AB000069A93420DD09A4238BF1A462046691CB6
:101AC00000F01CFD002837D1DDE905539D4238BFE9
:101AD0001D4623682046DA8A691C00F00FFD58BBBA
:101AE0000A9B63BB5EB3204600F06AFA38B94FF632
:101AF000FF730599994202D0069B994232D112B0E8
:101B0000BDE8F081AB68059A990306D56968DDF8F0
:101B100034C08C4519D10C900E934FF6FF739A4246
:101B200006923FF45AAF07AD2A4620460A9900F0C4
:101B30000FFB00283FF469AF6FF08300DFE720461A
:101B400000F050FD0028CED0F6E70E9B114643F082
:101B5000807320460AAA0E9300F0CEFB00283FF4C3
:101B600036AFE9E72046FFF715FE12B0BDE8F08179
:101B70006FF08600C3E700BF10B582B0002301AA52
:101B8000044600F083FA28B920460199FFF702FEC7
:101B900002B010BD6FF08B00FAE700BF70B58CB0DB
:101BA00015461C4603AA04AB064600F06FFA98B926
:101BB0002A462146069800F08DFD58B92246109C11
:101BC0002B46304604A9009400F062F8002818BFA4
:101BD0006FF083000CB070BD6FF08B00FAE700BFB0
:101BE0002DE9F04186B0904603AA05461F460E46F1
:101BF00000F0AEFA044618B1204606B0BDE8F08108
:101C0000059B314643442846059300F0D3F90D9BCC
:101C100080464BBB0D9F0C9BDDE903129A420BD211
:101C20000B460C992846891A01910092414600F012
:101C300033FC20BB012703993246284600F058FBAD
:101C40003146284603AACDF80C8000F0E3FC044698
:101C5000C0B9002ED0D0002FCED06B684146DB68D3
:101C6000286898470446C7E7CDE900730146039BFF
:101C700028460C9A00F010FC01270028CBD06FF00A
:101C80008304B9E732464146284600F031FBB3E70A
:101C90002DE9F04184B016460C4601AA09680546B4
:101CA0001F46DDF8288000F053FA70B901994B1CEB
:101CB0000BD00A976368D5E9000464684246A446DD
:101CC000334404B0BDE8F04160476FF0830004B0D6
:101CD000BDE8F0812DE9F0470F4682B01168164645
:101CE000DDE90AA91C46054600F064F980467368E0
:101CF0007A681C44A31A00920193284641463B6827
:101D000000F0CAFB48B9CDF800A0696823464A46EE
:101D10008C6828684146A04710B102B0BDE8F08742
:101D2000F16872682B680A44DB680092B96828463B
:101D30005B1A9B1A019341463B6800F0ADFB0028FB
:101D4000EBD13368002BE8D041466B682868DB682C
:101D500002B0BDE8F04718472DE9F04F00240C27EA
:101D600006468846914625468BB03068038A022B8A
:101D70000CBF01229A1E954216D2D6F804C005EB7C
:101D800045039B0000974146DCF804A002AA0833F3
:101D9000D04770B902AB05A913F8012B8B4284EA36
:101DA0000204F9D10135E0E7C28A2AB9002089F896
:101DB00000400BB0BDE8F08F00274FF0200A0DF176
:101DC0002705022B0EBF0C23023B03EB4303726873
:101DD00018BF9B0003EB4713D2F804B0414602AA98
:101DE000CDF800A00833D8470028E2D10DF1070351
:101DF00013F8012F9D4284EA0204F9D130680137BB
:101E0000C38A9F42D2D2038ADBE700BF10B50C46DB
:101E100009790346012982B017D0022922D11B6813
:101E2000A1791B7E99421DD0012A18D811460DF1C7
:101E30000702FFF791FF30B962799DF807309A42A7
:101E400018BF6FF0910002B010BD036862791B7E6D
:101E50009A4214BF00206FF0830002B010BD6FF0F3
:101E60008600F0E76FF08300EDE700BF70B5827B7E
:101E70000168531CDBB28373097E044699424169B1
:101E800004BF02328273012982B000F10D020DD825
:101E9000FFF762FF40B9082665686169034620685C
:101EA0000096A219AC68A04702B070BD6FF0860022
:101EB000FAE700BF436810B5416904461B69006832
:101EC000984750B923681A8A022A06D962681846C8
:101ED000A1681369BDE81040184710BD70B508250A
:101EE0000446002386B000954068194646680DEB0D
:101EF00005022068B047B0B10826656820680096E2
:101F0000002301216D6804AAA84700BB01222046D6
:101F100004A9FFF77BFF01220346C0B90020C4E9F2
:101F2000042306B070BD02460DEB05012046FFF705
:101F30006DFF03460028DFD1616800954D68206879
:101F4000012104AAA84728B101230022E6E76FF087
:101F50008300E6E70122204604A9FFF757FF024667
:101F60000028F1D123689DF816101B7E9DF80E0005
:101F7000B3FA83F35B09994208D0984211D08842A2
:101F800033BF0122002201230023C7E7002914BF29
:101F900002230123984213BF0122002201230023C0
:101FA000BCE7002814BF022301239942E7D0012394
:101FB000B4E700BF09B1806870474069704700BF4F
:101FC00010B50446FFF752FF28B963686169DB6802
:101FD0002068984700B110BDD4E904322046C4E916
:101FE0000423BDE81040FFF765BF00BF70B504468D
:101FF00000681546B0F810C06268BCF1020F0FBF50
:102000000C23ACF1020303EB43039B0003EB4113EE
:10201000202182B00091566821692A460833B047D2
:10202000064610B1304602B070BD23682A681B8A8C
:10203000022B0CBF0123023B9A4223D205F114006C
:1020400000F054FB0028EDD12068EA68838A9A42A8
:1020500018D8AB689A4215D3D5E900316BB9038A19
:10206000C48A022B0FBF0C23023B03EB43039B00EC
:1020700003EB441308338B4204D8C06800F02AFBFA
:102080000028CFD06FF09706CCE700BF2DE9F041D4
:102090001F46036888B0DB8AEBB105460E469046C2
:1020A00000240BE00C22314605A80BF031FB8446DE
:1020B000B8B12B680134DB8AA3420CD921466A46A9
:1020C0002846FFF793FF0028ECD06FF0830C6046A2
:1020D00008B0BDE8F0816FF08B0C604608B0BDE839
:1020E000F081C8F80040002FF1D06C460FCC0FC72C
:1020F00094E80F0087E80F00604608B0BDE8F08163
:102100000368DB8A03B3F0B505460E461746002484
:1021100089B007E0049B1E4213D12B680134DB8A8F
:10212000A3420AD921466A462846FFF75FFF0028E6
:10213000F0D06FF0830009B0F0BD6FF08B0009B0F4
:10214000F0BD3C6009B0F0BD6FF08B00704700BF80
:10215000F0B50C2583B0009501EB41018B0041687F
:1021600004464F680833016900681646B84708B14D
:1021700003B0F0BD236831681A8A91420CD2B2686C
:10218000D868716800F0A6FA30B93368012B06D917
:1021900005467368AB42EBD06FF09700E8E7236821
:1021A000DA8A1B8A022B03D0023B03EB43039D0018
:1021B00005EB42150835ECE7F0B50C2583B000952A
:1021C00001EB41018B00416804464F680833016907
:1021D00000681646B84708B103B0F0BD23683168FF
:1021E0001A8A91420CD2B268D868716800F072FA0B
:1021F00030B93368012B06D905467368AB42EBD082
:102200006FF09700E8E72268138A022B03D0023BA5
:1022100003EB43039D00D38A05EB43150835ECE738
:102220002DE9F04F89B04FF0000ADDE9149504461E
:10223000884617461E460CE051462A462046FFF7C0
:1022400087FF8346002836D1AB689E4237D90AF112
:10225000010A2368B3F810C0BCF1020F0CBF4FF0A5
:10226000010CACF1020CD445E6D86FF08D0BDB8A83
:102270000025DBB129466A462046FFF7B7FEA8B91C
:1022800005A800F033FA60B157B1BBF1000F18BFD9
:102290006FF08D0B5846139B1D6009B0BDE8F08FA1
:1022A000012723680135DB8A9D42E3D34FF6FF7592
:1022B0006FF08D0BEEE76FF0830B2368D7E7226892
:1022C0004146D268C9F800A0D31AC9F804300C22DC
:1022D000C9F80C6009F1140006F09CFD129BC9F8C6
:1022E00008B0C9F81030AB689B1BAB602368BEE731
:1022F00002B18160704700BF30B586460068202576
:10230000B0F810C083B0BCF1020F0EBF0C23ACF1CB
:10231000020303EB4303DEF8044018BF9B0003EB0A
:102320004113DEF814100095A4680833A04703B0E9
:1023300030BD00BF2DE9F0418EB00446FFF7CEFD61
:10234000002840F08B806669636831461B6920680D
:102350009847054600287DD1D4E90003B6FA86F1F6
:102360001B69490998470546002873D12068037EF8
:10237000B3FA83F35B09A373038AC18A022B6FD17B
:1023800001220C23A26002220C2503EB411300263C
:1023900001212273C26808332661616100950493AC
:1023A000D31A626803919568059303AA0823A84786
:1023B000054600284ED120680495C3680593038A1A
:1023C000022B2FD02E46033B9E4206F1030106F15D
:1023D000010608D263681B699847024620681543C6
:1023E000038A022BEFD1002D52D1038A1426022B2F
:1023F0004FF00C07A3F1030214D0954212D20097BC
:1024000063686169D3F80880EB1C039303AA334621
:1024100001350C36C047D8B92068038A022BA3F1D6
:102420000302EAD12022002106A806F02FFD23682E
:102430000025DB8A23B919E02368DB8AAB4215D972
:102440002946204606AAFFF757FF01350028F3D09A
:102450006FF0830528460EB0BDE8F081002673E7D3
:102460000222023B03EB430393408BE72046FFF736
:10247000FDFC0028ECD163686169DB68206898473F
:1024800005460028E6D1D4E90423C4E90432E1E793
:102490006FF09105DEE700BF2DE9F04FC3B0DDE935
:1024A0004C863EB305468A46174699460CE0686856
:1024B00000943B46D0F808B05146286802AAD84795
:1024C0002744A0B9361B15D0B6F5807F344628BF07
:1024D0004FF48074D5F804C02868009443464946F8
:1024E000DCF804B002AAD847A0440028DFD043B0EB
:1024F000BDE8F08F002043B0BDE8F08F036800B561
:102500001B8A83B0022B0FBF0C23023B03EB430358
:102510009B0003EB4113511A490103F108020369BF
:10252000019141690092FFF7B7FF03B05DF804FB2A
:10253000F0B50546D0E9000387B01B68984704460C
:1025400010B1204607B0F0BD2846FFF7C7FC08BB16
:102550000827D5F804C029692868EE190097234692
:102560003246DCF80440A047A0B9314628462A6923
:10257000FFF74CFC70B92846FFF79CFC044648B9AD
:102580002B7B012B0BD0022B18BF6FF0830420464E
:1025900007B0F0BD6FF08304204607B0F0BD0146E0
:1025A00003AA2846FFF708FE04460028C9D16FF0A9
:1025B00007042B683A46DE680097059FD5E9043189
:1025C000E41B344401942846FFF766FF04460028C4
:1025D000B7D102236A7B2846AA732B73FFF7F0FC5E
:1025E0000446AEE710B586B0002103AA0446FFF703
:1025F000AFFD60B9DDE9042321681344C9682046B2
:10260000C91A2369019161690092FFF745FF06B07D
:1026100010BD00BF2DE9F04304468846436801EB36
:102620004105AD009F680068616987B005F1080346
:10263000B8F1000F1FD10C2611600096B847002892
:1026400043D1D4E90476236805F10C011B8A05F116
:102650001402022B0FBF0C259D1E05EB4505AD0096
:102660006D1A3B4631462046CDE90025FFF714FFA1
:1026700007B0BDE8F0834FF00C09CDF80090B847E3
:10268000014610BBD4E90476204603AAFFF760FD9B
:10269000D8B9CDF8009063686169D3F808902068D4
:1026A000082303AA0396C84778B9B8F1010FCAD026
:1026B0001422A5F10C03019331463B4620460092BB
:1026C000FFF7EAFE0028BED0D2E76FF0830007B024
:1026D000BDE8F083814206D8401A90422CBF00200A
:1026E0006FF0860070476FF08600704700F10C02B3
:1026F00002E010F8013B23B99042FAD16FF08B0051
:1027000070470020704700BF70B503680446A3F20D
:10271000F233A6B0032B00F23D81DFE803F03084F2
:102720002B0200253C22294607A802950495069510
:102730000395059506F0AAFB3C22294617A8169595
:1027400006F0A4FBE2690321019504F11C03002AB1
:1027500040F0EC8053F8042D4E1E42B9002E00F0DC
:102760009080314653F8042D4E1E002AF6D0304694
:102770000E4688E003F098FD002026B070BD0021D1
:10278000C26900F11C0316910320002A40F0D18099
:1027900053F8041D421E31B932B1104653F8041DDE
:1027A000421E0029F8D00246E16A032504F12C03F9
:1027B000002940F0B98053F8040D691E30B931B1D9
:1027C0000D4653F8040D691E0028F8D029462369E8
:1027D000042B53D1206A042850D8012A4ED1012954
:1027E0004CD10021606806AA06F0AEFB042845D152
:1027F000A068069B0028C0F2BD800022194603F0A5
:1028000075FE00283AD1216A069816AA03F0B8FD91
:102810000546002832D10146236A606816AA06F0F0
:102820009DFB2846A9E7C26900F11C030320002A8A
:1028300076D153F8041D421E31B932B1104653F817
:10284000041D421E0029F8D00246E16A032504F166
:102850002C03002966D153F8040D691E30B931B13B
:102860000D4653F8040D691E0028F8D02946236947
:10287000042B03D1012A01D100293AD0012026B02E
:1028800070BD4FF0FF30E26A042504F12C0362B9F9
:10289000032153F8042D4D1E32B935B1294653F8A2
:1028A000042D4D1E002AF8D00D4628430128E5D8F6
:1028B0000423002160680DEB030206F045FB0428A9
:1028C00062D1022E37D00021002D44D0236A402B44
:1028D0005AD816A804AA04900198059303F0F6FCB0
:1028E000DDE9042305460021606806F037FB284631
:1028F00043E7606816AA06F027FB0428BED1A0684B
:10290000169B00282EDB0022194603F0EFFD00285D
:10291000B4D1169803F0B8FD003818BF01202CE799
:10292000042292E70421A2E7042150E703200426B1
:10293000A9E7042238E76669402E28D833460121EA
:10294000606806AA06F000FB86421DD106AB029322
:1029500002A90396B8E72A46019803F0B7FC05469A
:1029600028460AE7184616A903F0D8FD50B9A06812
:10297000169BC8E7184606A903F0D0FD10B9A06859
:10298000069B3AE70220F8E66FF08000F5E66FF06C
:102990008900F2E66FF08500EFE600BF08B503F0AE
:1029A000EDFC002814BF6FF09200002008BD00BFAE
:1029B0002DE9F047924600228046ADF5527D04AFE6
:1029C0003846039106AD11461E46FEF759FBD8F86E
:1029D000382040F203112846FEF752FB4FF43C72B8
:1029E000002116A806F052FA4FF6F8734FF6FF7260
:1029F000B3EBC60F4FEAC60338BF1346ADF83E30FF
:102A000041F20103ADF83C30012311934FF4905390
:102A100000244146D8F820204FF48048DFF8B090D9
:102A2000ADF8203008A82B46CDF82640CDF82E4032
:102A3000CDE91244CDE91444CDF82240CDF832401E
:102A4000CDF83640ADF83A401094CDE90A8907F048
:102A5000E1FE044678B116A808F0CAFD95E8030027
:102A600007F0A8FD97E8030007F0A4FD20460DF548
:102A7000527DBDE8F087164916A808F0EFFE04461F
:102A80000028E8D195E80C0040F2011116A808F0E2
:102A900081FF04460028DED1042340F2032103AA6B
:102AA00016A808F02FFF04460028D4D13A460FA8F4
:102AB00016A908F001FE04460028CCD1DA99334665
:102AC0000091524697E8030007F0FEFD0446C2E776
:102AD000090100082DE9F04700249AB006A80694E1
:102AE00006F08CFA002868D00746DFF8E080DFF8AF
:102AF000E09001E0A74260D0069A660102EB441321
:102B0000196901344145F5D10021925909A89D6800
:102B1000FEF7B6FA0021069B0DF1160E03EB060C2C
:102B200008AADCF81800CDE9012E05AB0093DCF80B
:102B300014A007ABCDE90B11CDE90D11CDE90F11B3
:102B40001191202212A9D047034605EB0515AD00CF
:102B500005F1240048444D44002B32D14FF6F87162
:102B60004FF6FF72069BBDF814C03344D3F810E053
:102B70008C4588BF94465FFA8EF3002B099E08BFF0
:102B80000026089B1C220E930A9B0BA91193BDF8EB
:102B90001630CDF830E0ADF82C30ADF82EC01096E0
:102BA00006F038F9079A284612A906F033F90123EE
:102BB000079AA7422A622B649ED100201AB0BDE872
:102BC000F0876FF092001AB0BDE8F0870101008035
:102BD00060AE002070B584B06B4683E8030012B38A
:102BE000002403A814601646009D039406F006FA1C
:102BF000E0B12346039903E0984201F1200115D08A
:102C00000C680133A542F7D1D1E902319A1E0A437B
:102C10000CD00020074A03EB031302EB83031B6A6B
:102C2000336004B070BD6FF08600FAE76FF08B0080
:102C3000F7E700BF60AE00202DE9F04F89B0129990
:102C4000012803911399CDE9013100F2B380DFF837
:102C500078B100EB001915460BEB8902126C0301E9
:102C600007464FEA89090093002A00F0A680002D4C
:102C700000F0A080D5E9056A4FF0000805A8CDF85E
:102C8000148006F0B3F909F12401044659440028E0
:102C900079D0059B00EB400E4246184603E096456E
:102CA00000F10C000DD053F822400332A642F6D1B9
:102CB000D0E901C3BCF1000F54D1984603F480540D
:102CC00001E00024A0461C22284606F0A3F8324664
:102CD000514606A8FEF7D4F907996A68A9610699D2
:102CE0006961D1B221B922F0FF0242F001026A60AB
:102CF0002CB348F4806408F400520AB144F4006430
:102D0000009BAC60DA190BEB8202126A039B9A42B9
:102D100056D8019D002D4DD0029E002E4AD0610450
:102D20000BEB09000FD540F203118A450BD02A4660
:102D30005146129609B0BDE8F04FFFF739BE444640
:102D400008F40052D9E70146019806F063F8002024
:102D5000009B029A3B440BEB83073B6A136009B06C
:102D6000BDE8F08F1846002203E0944500F108000A
:102D7000A7D053F832400132A245F6D1D0F80480F2
:102D800008F480549FE71C22284606F043F8324698
:102D9000514606A8FEF774F907996A68A961069971
:102DA0006961D1B20029ABD122F0FF0242F00102E9
:102DB0006A60A5E76FF08600D1E76FF08B00CEE781
:102DC0006FF08900CBE700BF60AE00205B45525238
:102DD0005D5B43727970746F5D20556E73757070B2
:102DE0006F727465642072657175657374210D0A64
:102DF000000000004D62656420544C5320332E3691
:102E00002E3500004372656174696E6720616E2023
:102E1000656D7074792049545320666C6173682025
:102E20006C61796F75742E0D0A0000004372656144
:102E300074696E6720616E20656D707479205053DF
:102E400020666C617368206C61796F75742E0D0A51
:102E5000000000002D160000C116000045160000FD
:102E6000891600008D16000001000000020000001D
:102E7000040000000F4B02689A4206D1C269A3F118
:102E80001023A3F1EF139A4201D001207047836809
:102E9000012BFAD8C36813B102699342F5D0436994
:102EA0002BB18069C01AB0FA80F04009704718460B
:102EB000704700BF55AA00FFF8B5164B996829B1B5
:102EC0000846FFF7D7FF08B9CB680BB10120F8BD62
:102ED0000B69002BFBD0104D104E1A68AA42F5D199
:102EE000DA69B242F2D19A68012AEFD8DC68002C84
:102EF000ECD01A699442E9D05F691FB1D3F818C0C9
:102F00006745E3D08C42E1D11946002ADFD0134651
:102F1000E3E700BFE8AE002055AA00FF669911EE76
:102F2000002865D070B5374D2B68002B54D0AA68A7
:102F3000002A51D08342014661D86A6813449842FE
:102F40005DD2A0F120063046FFF794FF002856D14D
:102F500051F8183C012B52D151F8144C41F8180C7F
:102F600051F8100C002C38D0A368002B35D151F843
:102F70001C2C6368203213442061636000B1C4607C
:102F800020220021304605F081FF2069F0B18368DE
:102F9000E3B92646426873681344026920337360BC
:102FA0003261D6E9051331B38B6103B159614169CF
:102FB00083697161B361E1B18E61B36903B15E612F
:102FC00002B1D6602022002105F060FF2B699B072B
:102FD00002D5FFF771FF90B970BD10B18368002B67
:102FE000D8D0EB6841F8083C03B15E61EE60EDE7D4
:102FF0007047EE60E2E7002BD9D0EB60D6E7012006
:103000000FF07AF9E8AE00202DE9F84F3E4D2B681D
:10301000EC68002B40D0AB68002B3DD000283BD0A3
:10302000002939D001FB00F6B6FBF0F0884233D11D
:10303000301D31D8B10733D026F00301043114B963
:103040002BE0A4694CB363688B42FAD3D4F808C070
:10305000BCF1000F55D1A0695B1A232B814667692B
:1030600020D80123A360002F47D0B861A06900B128
:10307000476100232A696361D207A36103D5FFF783
:103080001BFF00283DD1203432460021204605F0A8
:10309000FDFE2046BDE8F88F00242046BDE8F88FED
:1030A0003146CCE7D4F8108001F1200EDFF85CB097
:1030B000DFF85CA004EB0E02203BC2E9013CC2E950
:1030C000034844F80EB0C2F81CA0B8F1000F01D0BC
:1030D000C8F80C20C2F81890576187B1BA6190699E
:1030E00000B1426100236160296922610122C4E9C3
:1030F0000533CB07A260C6D5C1E7E860B7E7EA6051
:10310000EEE701200FF0F8F8E8AE002055AA00FF26
:10311000669911EE38B50D46142200210446114877
:1031200005F0B4FE1049114806F04EF9232D18D9C8
:1031300014F0030304D0043DC3F104021D441444FD
:103140002A460021204605F0A1FE064B084A094800
:10315000A5F12001C3E901541C60E061C4E900212C
:10316000DC6038BDE8AE0020212F000009300000EF
:1031700055AA00FF669911EE000000000000000053
:1031800010B50F4C4FF4CC720021204605F07EFEA6
:1031900009A1D1E9000101234FF48072A4F8903114
:1031A00084F82830C4E90401A261BDE8104000F0B1
:1031B00093BB00BFAFF3008000BD40DFE143E14EB1
:1031C000682400200000000000222DE97043584EC2
:1031D00088B002AD04904FF4C87301200021CDE9FE
:1031E0000065CDE906220396ADF814200AF0F4FC40
:1031F00010B101238DF8143004994FF4C873CDE950
:1032000000150022022000210AF0E6FC10B1012383
:103210008DF815304FF48072DDE903430FF2081981
:10322000D9E90089A261C4E904890020C3E90489BD
:1032300006A99A6100F0D8FE044618B1204608B0ED
:10324000BDE870832946012000F0CEFE0446002828
:10325000F4D1022007A900F0C7FE04460028EDD1F2
:10326000079A029B9A429DF8143018BF0790012BD1
:1032700003D0002003A900F0FDFA9DF81530012BC2
:1032800003D0012003A900F0F5FA039B049993F8F9
:103290002830012B1CBF01238DF8143091F8283001
:1032A000012B1CBF01238DF8153040F20113BDF82E
:1032B00014209A4234D09DF81430012B24D09DF86C
:1032C0001530012B01D0022B11D04FF48073022056
:1032D0000021A6F890310AF0D1FC20B110F18C0F3A
:1032E00001D00446AAE7124800F0B6FCA6E7012385
:1032F0004FF4C8720E48A6F8903105F08BFD96F891
:10330000910100210130E6E74FF4C8720848A6F8A1
:10331000903105F07FFD96F8910100210130DAE748
:103320006FF083048AE700BF00BD40DFE143E14E58
:10333000682400204E4AF0B510606FF47A7203687A
:10334000044613448DB0042B00F28F80DFE803F0B5
:1033500015385C7A0300056A042D40F0868000F081
:1033600009F9002106462B46606808AA0D46089612
:1033700005F0F4FD28460DB0F0BD03698668082B02
:1033800073D18569042D70D10021406808AA05F029
:10339000DBFD082869D12B460221606806AA05F0EA
:1033A000D3FD042861D1069A63693046CDE9003225
:1033B000DDE9082300F092F8054628460DB0F0BD7F
:1033C0000369082B51D14569042D4ED10021406875
:1033D00008AA05F0B9FD082847D12B4601216068ED
:1033E00005AA05F0B1FD04283FD1226A059B06A974
:1033F000A068CDE901210093DDE9082300F084F8FD
:10340000054628460DB0F0BD0369082B2DD1066A8C
:103410000C2E2AD10021406806AA05F095FD082847
:1034200023D1DDE9062308AF0097A06800F080F8FB
:10343000054600289ED1014633463A46606805F0AD
:103440008DFD97E70369082B0FD10021406808AA7A
:1034500005F07AFD082808D1DDE90823A06800F00E
:1034600075F8054628460DB0F0BD6FF0800581E780
:10347000002D002000F01CB810B50C46064B02468B
:103480001B6801215868234605F05EFD844214BF85
:103490006FF08000002010BD002D00200246034880
:1034A0000B4600680021406805F058BD002D002043
:1034B00008B50849084805F065FF00F05DF800B957
:1034C00008BD00F0D5F90028FAD1BDE8084000F0A9
:1034D00053B800BF0001500538400000194694461B
:1034E00010B4DDE9014302465CEA010009D0072B74
:1034F00003D8604610BC00F091B86FF0850010BC96
:1035000070476FF08600FAE71946944630B40246D9
:10351000DDE902345CEA0100049D05D003950294C4
:10352000604630BC00F036B86FF0860030BC7047A3
:103530001946944602465CEA0100009B02D06046B0
:1035400000F022B96FF08600704700BF194608B539
:1035500052EA0103944609D00246604600F044F95D
:1035600010F1950F08BF6FF0830008BD6FF0860063
:1035700008BD00BF0020704710B5044C2046FFF77F
:1035800023FE034B383C5C6010BD00BF581C00207C
:10359000042D00202DE9F0431E4E1F4683B0334614
:1035A00081468846154600F0A5FA20B1044620461B
:1035B00003B0BDE8F0833068174E01AA3146C6E972
:1035C0000498B56100F0A6FC044620B9B56ABD4276
:1035D0000BD26FF0860440F6480200210E4805F039
:1035E00055FC204603B0BDE8F0830A9BED1B9D42CD
:1035F00028BF1D4606F1380029463844FFF74EFF24
:103600000B9B40F6480200211D60034805F03EFC7C
:10361000E7E700BF042D0020201C00202DE9F04F1B
:1036200085B0DDF83890B9F5006F00F2A580DFF8BD
:1036300050819A46434606460F46154600F05AFA10
:10364000044640B310F18C0F03D0204605B0BDE80E
:10365000F08FDFF830B140F648020021584605F0FF
:1036600015FC49460BF13800CBE90467CBF830A0D4
:10367000CBF81850CBF82C90FFF7FEFE044600283C
:1036800067D040F6480200213E4805F0FFFB204687
:1036900005B0BDE8F08FDFF8ECB0D8F8000059466F
:1036A00003AACBE90467CBF8185000F033FC0446BA
:1036B000002838D1DBF83020D30732D449460BF14B
:1036C0003800CBE90B9AD8F800A0FFF7D5FE0446E6
:1036D00048BB4146012000F06BF9044618BB0123AA
:1036E00001932849D8F80000CBF8289000F046FC58
:1036F0000446002837D12A4630463946204B00F090
:1037000091F90446C8B900F055FA04460028B8D12A
:10371000BAF1000FB5D0014650460AF0AFFA0446A0
:10372000AFE76FF084042A4630463946144B00F068
:1037300079F910B900F03EFAA3E70021D8F80000AB
:103740000AF09CFA40F6480200210E4805F09EFB64
:103750009DE74146022000F02BF90446002890D155
:1037600082460190BDE7BAF1000F01D0C8F800A071
:10377000019B002B85D0D6E76FF0860465E700BF7C
:10378000042D0020201C00202DE9F043144E1F467C
:1037900083B0334681468846154600F0ABF920B128
:1037A0000446204603B0BDE8F08330680D4E01AA00
:1037B0003146C6E90498B56100F0ACFB044628B96F
:1037C000D6E90A21336BC7E90012BB6040F6480214
:1037D0000021044805F05AFB204603B0BDE8F08301
:1037E000042D0020201C00202DE9F0431E4F83B043
:1037F0003B4606460D46914600F07CF920B1044652
:10380000204603B0BDE8F083DFF8608038684146A9
:1038100001AAC8E90465C8F8189000F07BFB0446CB
:1038200028B9D8F83030DB070BD56FF0840440F6A8
:10383000480200210D4805F029FB204603B0BDE8F1
:10384000F0834A463046294600F07CF904460028B9
:10385000EDD100F0AFF904460028E8D10146386800
:103860000AF00CFA0446E2E7042D0020201C002098
:10387000FFF786BC70B5054651F82560DCB0CB6813
:103880004FF4B4720C4601A806F128015B9305F0D1
:10389000C1FA4FF4B672304601A900F0F9FAA8B1A6
:1038A000236923B901232C4423725CB070BD3046D8
:1038B0004FF4B67201A95B9300F0EAFA00280CBF3E
:1038C000032301232C4423725CB070BD02232C44DB
:1038D00023725CB070BD00BF002070B5DEB00290F6
:1038E00000F08EFB034610B118465EB070BD02A911
:1038F00000F07AFB03460028F6D12C4C029D2046AE
:1039000000F0B2F903460028EED14FF4B47204F18E
:10391000280103A85D9505F07DFA4FF4B6722046A4
:1039200003A900F075FA03460028DDD194F89161EF
:10393000234600904FF4C8720021701C0AF02CF945
:1039400003460028D0D194F89031039003A90120B8
:10395000029D84F8906184F8913100F045FB10BB22
:10396000039B9D420AD9012000F04AFB0346002830
:10397000BAD1039B01339D420393F4D8022003A9DB
:1039800000F032FB78B9039B9D420AD9022000F077
:1039900037FB03460028A7D1039B01339D420393C5
:1039A000F4D80023A0E76FF083039DE7682400208C
:1039B00090B34FF0000C70B563460D46184A146C76
:1039C000566C591C344309D00B290B461ED0146E7B
:1039D000566E2032344303F10101F5D10A2B00F178
:1039E000FF3004D0203220B19C460B46E7E70A2383
:1039F00078B9DC1C204600210AF040F918B110F11A
:103A00008C0F00D070BD00202C6070BD6346002874
:103A1000EFD06FF08D0070BD6FF08600704700BF73
:103A2000682400202DE9F04788B0EE46DFF8BCA0FE
:103A300005460E4617469946BAE80F00AEE80F0055
:103A40009AE80F00DFF8A8800024C4468EE80F0033
:103A500004E001340B2C0CF1200C18D0DCE91032FE
:103A6000964208BF9D42F4D1DCF848309F42F0D125
:103A700008EB441A0AF1300A51462022684605F044
:103A8000C9F950462022002105F000FA00E0002488
:103A9000D9E90031DA1E08EB4219013B580108EB65
:103AA000421209F1300948F8005008EB43139764BB
:103AB000484610225E6005F0ADF9FFF70DFF0546A0
:103AC00040B1DDE90432134308D1202200214846E9
:103AD00005F0DCF9284608B0BDE8F08708EB441093
:103AE00020226946303005F095F9EEE718400000D5
:103AF0006824002070B5124C4FF0000EA44606E07A
:103B00000EF1010EBEF10B0F0CF1200C15D0DCE90B
:103B10001056B14208BFA842F2D1DCF84850AA4280
:103B2000EED10EF1030504EB4E11102258681D6012
:103B3000303105F06FF9002070BD6FF08B0070BD63
:103B40006824002070B51A4C4FF0000C234688B052
:103B500006E00CF1010CBCF10B0F03F1200321D0A6
:103B6000D3E91056B14208BFA842F2D19D6CAA42D7
:103B7000EFD104EB4C14303420222146684605F086
:103B800049F920220021204605F080F9FFF7A4FE24
:103B9000054648B120226946204605F03BF92846F3
:103BA00008B070BD6FF08B05284608B070BD00BF2F
:103BB00068240020034B002193F8910101300AF0A2
:103BC0005DB800BF6824002000234FF4407230B578
:103BD0001B4C89B0CDE90533029300930793194B31
:103BE0000546CDE9032468460C461749019309F0C0
:103BF0005DFF08B109B030BD40F201116846134ABB
:103C000009F00EFFA8B90C23224640F203216846B2
:103C100009F070FF68B92A46694601A809F094FFC7
:103C200038B9684609F020FF0028E3D0286809F079
:103C30003DFE684609F018FF6FF08300DAE700BF29
:103C40000001500500248000090100085C81FF7F0D
:103C50000F3000090130704701460C2201481C3129
:103C600005F0D8B80C2D0020082210B584B01849F2
:103C700004460DEB020005F0CDF8042215490DEBCA
:103C8000020005F0C7F8DDE90232013342F100021B
:103C9000CDE90232134303D1019B01330193A3B158
:103CA00008220B480DEB020105F0B4F80422094884
:103CB0000DEB020105F0AEF80C22054904F11C00E1
:103CC00005F0A8F8002004B010BD6FF08300FAE7FB
:103CD0000C2D0020142D00202DE9F049044691B050
:103CE0001F46D4E904BCA3690D46164609A904225F
:103CF0000DA8CDE90ABC0993DDF86C8005F08AF8BF
:103D00000AA908220EA805F085F80DA90AA8FFF750
:103D10005BFF10B111B0BDE8F0891A9BCDE90056E8
:103D20000593199B12490493189B0A98CDE90273D5
:103D3000CDF818800C2304F11C0209F0D5FD90B9D0
:103D4000D8F800301999103B102220461944C8F8C1
:103D5000003005F05FF80A9809F0A8FD0028D9D0D6
:103D60006FF08300D6E70A9809F0A0FDF8E700BFDE
:103D7000000150052DE9F04904461D46D4E904BC74
:103D800091B0A369DDF860800E46174609A90422A8
:103D90000DA8CDE90ABC099305F03CF808220AA950
:103DA0000EA805F037F82146102205EB080005F0B3
:103DB00031F80DA90AA8FFF707FF10B111B0BDE84F
:103DC000F0891B9A08F1100306921A9ACDE9017541
:103DD0000592199A0D49CDE903320A980C230096F1
:103DE00004F11C0209F0CEFD48B90A9809F05EFD05
:103DF000002818BF6FF0830011B0BDE8F0890A9861
:103E000009F054FD6FF09400D8E700BF00015005A1
:103E10002DE9F041044690B0A3690D46D4E9047839
:103E200009A916460DA804220993CDE90A7804F0E1
:103E3000F1FF0AA908220EA804F0ECFF0DA90AA8B8
:103E4000FFF7C2FE10B110B0BDE8F081102709AB3A
:103E5000CDE90304069302900C23CDE900560B49EB
:103E60000A9804F11C02059709F03EFD50B9DDE9FE
:103E70000930102B07D109F019FD0028E3D06FF0AD
:103E80008300E0E70A9809F011FDF8E7000150050A
:103E90002DE9F041044690B0A3690D46D4E90478B9
:103EA00009A916460DA804220993CDE90A7804F061
:103EB000B1FF0AA908220EA804F0ACFF0DA90AA8B8
:103EC000FFF782FE10B110B0BDE8F081102709ABFA
:103ED000CDE904000693CDE901640C230C490A984E
:103EE000009504F11C02039709F04CFD099B18434F
:103EF0000A9808D109F0DAFC002818BF6FF0830097
:103F000010B0BDE8F08109F0D1FC6FF09400DAE761
:103F100000015005F0B50C461746002289B005ABEC
:103F200004F11C060193114640F61C030096054659
:103F300009F052FE08B109B0F0BD059B0695A3F14A
:103F40000C052846FFF784FE4FF4026207A904F12E
:103F500028033860CDE90221204604220193009510
:103F600006A9FFF707FF30B9079B9D4218BF6FF006
:103F7000830009B0F0BD6FF08300DCE72DE9F0416C
:103F8000064686B008460D468F6A0496FFF76CFE1B
:103F9000044618B1204606B0BDE8F0814FF4026334
:103FA00005AA07F11008029305F128030392284699
:103FB0000422CDF80080019304A9FFF78DFE80B99B
:103FC000059B98450DD121460094304605F11C0310
:103FD00007F11C0209F0E0FD0446204606B0BDE8EA
:103FE000F0816FF08304D5E70A4608B5042109F093
:103FF00075FE002814BF6FF08300002008BD00BFCD
:1040000008B509F053FE002814BF6FF083000020AC
:1040100008BD00BF0000000000000000000000001C
:104020000000000000000000000000000000000090
:1040300000000000000000005B494E465D5B5053ED
:104040005D20456E6372797074696F6E20616C6774
:104050003A20307825780D0A0000000000000000AA
:10406000787C010000AF002051000000407C01007E
:10407000202D00200E000000407C0100201C0020AC
:104080000000000044B0002015070000582D00205B
:104090006A200000201C002040040000001C0020BA
:1040A0000800000002F09CBD08B572B60C490D4A2C
:1040B0000D4B916083F309880C4B83F30A8883F3DB
:1040C0000B880B4B04A1D1E90001C3E9000100F00A
:1040D0001FF904F01BFE00BFA5EDF5FEA5EDF5FEF2
:1040E0000000000000ED00E0F80B002000040020BC
:1040F000F80B0020EFF30880EFF309812DE9F00FB2
:104100006B46724600F05CFA08B0FFF7CBFFFEE7A3
:1041100008B5FFF7EFFF00BF08B5FFF7EBFF00BFE3
:1041200008B5FFF7E7FF00BF08B5FFF7E3FF00BFE3
:1041300008B5FFF7DFFF00BF08B5FFF7DBFF00BFE3
:1041400008B5FFF7D7FF00BF08B5FFF7D3FF00BFE3
:1041500008B5FFF7CFFF00BF08B5FFF7CBFF00BFE3
:1041600008B5FFF7C7FF00BF08B5FFF7C3FF00BFE3
:1041700008B5FFF7BFFF00BF08B5FFF7BBFF00BFE3
:1041800008B5FFF7B7FF00BF08B5FFF7B3FF00BFE3
:1041900008B5FFF7AFFF00BF08B5FFF7ABFF00BFE3
:1041A00008B5FFF7A7FF00BF08B5FFF7A3FF00BFE3
:1041B00008B5FFF79FFF00BF08B5FFF79BFF00BFE3
:1041C00008B5FFF797FF00BF08B5FFF793FF00BFE3
:1041D00008B5FFF78FFF00BF08B5FFF78BFF00BFE3
:1041E00008B5FFF787FF00BF08B5FFF783FF00BFE3
:1041F00008B5FFF77FFF00BF08B5FFF77BFF00BFE3
:1042000008B5FFF777FF00BF08B5FFF773FF00BFE2
:1042100008B5FFF76FFF00BFEFF31083012B29D024
:104220004FF47F02D2F83031BFF34F8FD2F83421F0
:10423000BFF34F8FBFF34F8FC3F30B03092B25D071
:10424000134B186ABFF34F8FA0F1FF304FF47F027A
:10425000B0FA80F0D2F830314009BFF34F8FD2F876
:104260003421BFF34F8FBFF34F8FC3F30B03092BE1
:104270000AD07047064B186ABFF34F8FA0F1FF308A
:10428000B0FA80F04009704762B6704772B6D7E75F
:104290000080FF00EFF31083012B26D04FF47F0244
:1042A000D2F83031BFF34F8FD2F83421BFF34F8FA4
:1042B000BFF34F8FC3F30B03092B1FD0134BD869E8
:1042C000BFF34F8F00F001004FF47F02D2F830317E
:1042D000BFF34F8FD2F83421BFF34F8FBFF34F8F0F
:1042E000C3F30B03092B07D07047084BD869BFF302
:1042F0004F8F00F00100704762B6704772B6034BF3
:10430000D869BFF34F8F00F00100DDE70080FF00A8
:104310004FF47F029E4908B5D1F8D03043F0020334
:10432000C1F8D030D2F83031BFF34F8FD2F83421FA
:10433000BFF34F8FBFF34F8FC3F30B03092B00F075
:10434000A6804FF47F02D2F83031BFF34F8FD2F8FE
:104350003421BFF34F8FBFF34F8FC3F30B03092BF0
:1043600000F08C804FF47F02D2F83031BFF34F8FD2
:10437000D2F83421BFF34F8FBFF34F8FC3F30B033A
:10438000092B74D04FF47F02D2F83031BFF34F8F36
:10439000D2F83421BFF34F8FBFF34F8FC3F30B031A
:1043A000092B5DD04FF47F02D2F83031BFF34F8F2D
:1043B000D2F83421BFF34F8FBFF34F8FC3F30B03FA
:1043C000092B6CD00022734907E0D3F80003D3F81F
:1043D0000433B2F5807F03600BD00868BFF34F8FC2
:1043E000D300013003F57F0302F1010201F108015E
:1043F000EBD1EFF31081FFF74DFF00285CD1FFF701
:104400000BFF002858D14FF47F026149D1F88C305E
:1044100043F44063C1F88C30D2F83031BFF34F8F92
:10442000D2F83421BFF34F8FBFF34F8FC3F30B0389
:10443000092B00D008BD013A022A38D956485749FD
:104440000368574A8B420CBF5A230023C2F8103E20
:10445000C36A8B420CBF5A230023C2F8003E08BD3A
:10446000012A9FD10E224F4BC3F8E42E9AE7012A6E
:1044700088D001224C4BC3F8782583E7012A7FF4CA
:1044800071AF494BC3F8382AC3F878256AE74FF073
:1044900050230022C3F81421C3F8182151E700214A
:1044A0000122414BC3F80C17C3F810278AE73F4B92
:1044B0009B5C002BC2D1BDE7BFF34F8F384BD3F8C5
:1044C0000024012AFBD13648C3F80425D0F8003473
:1044D000012BFBD101290FD04FF47F02D2F83031EC
:1044E000BFF34F8FD2F83421BFF34F8FBFF34F8FFD
:1044F000C3F30B03092B46D0FFF7CCFE58B1264A75
:10450000D36923F00103D361BFF34F8F244BD3F85A
:104510000024012AFBD1FFF77FFE68B11E4A136A0F
:1045200023F0FF0343F020031362BFF34F8F1C4BB4
:10453000D3F80024012AFBD101290FD04FF47F02C8
:10454000D2F83031BFF34F8FD2F83421BFF34F8F01
:10455000BFF34F8FC3F30B03092B16D00022104B70
:10456000C3F80425D3F80024012AFBD1BFF34F8FF1
:1045700007490F4BCA6802F4E0621343CB60BFF3F4
:104580004F8F00BFFDE772B6B6E762B6E6E700BF41
:1045900000ED00E00003FF000080FF00FA50FA5039
:1045A0000090035000A0035000400050D48600004B
:1045B0000400FA057C22014904F02CBCC0B500209F
:1045C00038B5474C6568474CC5F3080525601D465E
:1045D000EFF3038363655306C4E90120E16039D535
:1045E00002F00C020C2A08BF084601462061202276
:1045F0003D4804F00FFC25B1202229463B4804F039
:1046000009FC374B9A6AD96A986BC4E9162120666F
:1046100002F4004060665D6B9A62D96202F080022B
:10462000D3F8E400C4E91A52D3F8E85000F040028D
:10463000C3F8E4000E21C4E91C052D48A26700F070
:1046400067F82268D31E042B3DD8DFE803F0182159
:104650002A330F00EFF39483990704D5130702D58B
:10466000EFF38980C1E7EFF38880BEE70E21214890
:1046700000F04EF8EFF38883EFF3898338BD0C2107
:104680001D4800F045F8EFF38883EFF3898338BDC8
:1046900012211A4800F03CF8EFF38883EFF3898386
:1046A00038BD0B21164800F033F8EFF38883EFF3A1
:1046B000898338BD0D21134800F02AF8EFF3888371
:1046C000EFF3898338BD0F2A04D814210E4802F075
:1046D00089FACFE72521103A0C4802F083FAC9E79E
:1046E00000ED00E0C0B50020D4B50020F4B50020F6
:1046F000D886000024870000E8860000F4860000C9
:1047000008870000148700003487000048870000F5
:1047100000F000B830B5094D83B06B69984748B9CF
:10472000EC6AA047C307FCD42B6A019303B0BDE831
:1047300030401847002003B030BD00BF7087000034
:1047400010B50B4C0020A368984780B9022023695C
:10475000984760B94FF4E1310120A46AA04730B90D
:1047600001211520A04710B90122024B1A7010BD7B
:104770007087000094CC00200020054B82B01B689D
:104780009AB262F30F001B0C63F31F4002B0704734
:10479000B8870000012070476FF00300704700BF2A
:1047A000002070476FF00300704700BF0020704783
:1047B000022814BF6FF0030000207047014BD86D32
:1047C000704700BF00AF0020014B186E704700BF5C
:1047D00000AF002008B5024800F0EAFE002008BD46
:1047E00000AF002008B5C3B2012B09D0A3F1150218
:1047F000012A00F28B80002900F09680002008BD7D
:104800004DF6C023994200F0C3803CD8B1F5615FFA
:1048100000F0BC8057D947F61223994200F0A080DF
:1048200064D9B1F5164F08BF4FF41D0248D110F4FA
:10483000E06F40F0B08010F4404300F08480B3F5A6
:10484000804F6ED14FF0100C10F4405300F08E806A
:10485000B3F5805F79D14FF00E0E10F4403000F0C8
:104860009080B0F5403F7ED101234E4800F16401B5
:10487000C0F88C2080F8903080F891E080F892C0E9
:1048800000F050FDBAE7484B99427CD00ED9B1F503
:10489000612F5DD0454B994208BF4FF08052C6D082
:1048A000B1F5E12F0CD14FF0E862C0E7B1F5E13F7F
:1048B00051D023D9B1F5613F08BF4FF06C72B6D02B
:1048C0006FF0070008BDB1F5965F47D004D9B1F588
:1048D000165FF5D1364AAAE7B1F5966F1ED0B1F54D
:1048E000166F08BF4FF41D22A1D0E9E7B1F5964F2E
:1048F00012D0B1F5E14FE3D12E4A98E7B1F5614FFF
:1049000007D0B1F5963FDBD12B4A90E76FF003005B
:1049100008BD4FF46B028AE7284A88E74FF49E22CD
:1049200085E76FF00A0008BD162B21D04FF0FF334A
:104930001C49084641F8643F00F0F4FC10F1100FE8
:104940002CD0C01708BD9C467EE76FF0090008BD5B
:104950004FF070626BE74FF0EB7268E7184A66E75A
:104960004FF4000263E76FF00B0008BD9E4674E74A
:104970004FF0FF330B4800F16401836600F0D2FC76
:10498000DCE7034671E74FF0806250E70D4A4EE7DF
:104990004FF465024BE76FF0080008BD6FF00100AF
:1049A00008BD00BF00AF002090D0030040420F00C0
:1049B0000050270000C0750000903A0100A04E0092
:1049C00000B0130000F03A0070B51D4C064682B0EE
:1049D00020460D4600F0F4FC58B32A4631462046E6
:1049E00000F01EFF10F1100F26D0002821DB03215C
:1049F000204600F07DFE10F1100F1DD0002818DBBE
:104A000000230193204601A900F0C6FF10F1100F0A
:104A1000F8D078300DD0019B9D420AD80122084879
:104A2000114600F0B7FF002803DB0020256602B026
:104A300070BD4FF0FF30FAE76FF00100F7E700BFFD
:104A400000AF0020F0B51B4D064691B028460C463D
:104A500000F0B6FC58B306F06043B3F1005F15D028
:104A60008CB10025671B402F28BF4027711968466D
:104A70003A4604F0CFF9394668464035FFF7E2FF81
:104A800010B9AC42EED8002011B0F0BD0023224690
:104A90003146284600F09AFC10F1100F04D000288F
:104AA00005DB0020EC65EFE76FF00100ECE74FF06D
:104AB000FF30E9E700AF0020FFF7C4BFF2B110B547
:104AC00040F2FF1E043901EB820C51F8043FC3F39E
:104AD00008021B0E724508BF4FF0FF32032B04D8AB
:104AE000DFE803F0080A0602C2606145EDD110BD9F
:104AF0008260FAE70260F8E74260F6E7704700BFBD
:104B000010B50B4C04F16400D4E91512FFF7D6FF81
:104B100001460022204600F033FB002804DB00237E
:104B20001846E365236610BD6FF0010010BD00BF9D
:104B300000AF00202DE9F04F8468814685B0002C3D
:104B400000F0D28013F0020833D1CDF80480D9F8F8
:104B5000503013F0100502957BD132B30F46012679
:104B60008B180393D9F83C40B846D9F800B007F049
:104B7000604AA4B1012400F02DFFDBF85811D9F8E8
:104B80005030E1B9D80702D4DBF82011B9B900F0F0
:104B900029FFD9F83C40D9F800B0002CEAD1BAF18D
:104BA000005FE8D06FF015030293029805B0BDE8EE
:104BB000F08FC36B002B4CD001230193C7E7D9F8CA
:104BC00048100029BCBFDBF84C15C9F848103CB1AF
:104BD000D9E90F123C788C54D9E90F2102EB010876
:104BE000B8F1000F03D0CBF84485CBF84865082313
:104BF000CBF82051DBF82011CBF85851DBF85811D5
:104C0000CBF85051DBF85011CBF80035019B002B4D
:104C10004CD1CBF8086000F0E5FED9F8504004F024
:104C20000104DBF85811002937D1B4B9DBF82011A1
:104C300099B1DBF84C45DBF84415884551D1002C7F
:104C40004FD100F0C7FEDBF85821002A4ED100F00A
:104C5000C9FE4FF0FF330293A7E7DBF84C15DBF8F2
:104C600044158845DDD0002C3BD000F0B3FEDBF8C6
:104C700058213AB1D9F85020C2F30031D20458BFBC
:104C8000CBF8001500F0AEFED9F80830D3B1039B85
:104C900001379F427FF466AF87E7DBF84C35DBF8DE
:104CA00044158845DFD1002BDDD1CAE74FF48002DF
:104CB000CBF80423CBF8086000F094FED9F8083054
:104CC000002BE4D1D9F850301907E0D509F1500094
:104CD000D0E8EF3F23F00803C0E8E23F002AB8D055
:104CE000F6E7CBF80C60C0E7019430E7D9F8502024
:104CF000D304C2F30031AAD4CBF80015A7E700BF54
:104D000070B50D46D0F858110446EB6C21B9D9079F
:104D100024D4D0F8201109B3D5E90A3632BB4FF0BC
:104D2000FF326A641BB1C4F84435C4F848650023F7
:104D300008204FF480010122C4F82031D4F820511A
:104D4000C4F85831D4F85851C4F85031D4F850311F
:104D5000C4F80005C4F80413A26070BD4FF48002CB
:104D600043F00403EB64C4F8042370BD296C761A85
:104D70001944D5E90E039E4228BF1E46324604F070
:104D800049F84FF0FF32AB6B6A64002BCBD1CEE712
:104D9000F8B505462B6D046803F48223B3F5805FF4
:104DA000D4F8000240F08680D4F80463C4F80863A5
:104DB000002975D0D4F8003223F02003C4F8003263
:104DC0004FF4A11305F15007D7E8EF1F1943C7E8C7
:104DD000E01F0028F8D13AB9AB682BB1012363601A
:104DE0000020C4F80463F8BD354BC4F80833012330
:104DF0006360D4F84431002BFBD00023C4F84C315D
:104E0000D4F84C21C4F81031D4F81021C4F844313E
:104E1000D4F844212A6D12F4004246D0C4F84C3133
:104E20000521D4F84C210122E869C4F83405C4F8FE
:104E30003815C4F81031D4F81031E262D4F81031CA
:104E4000002BFBD00023C4F81031D4F81031D4F873
:104E50004C3163BB2B620023C4F84C31D4F84C3185
:104E600000F0B8FDD4F8583133B1D4F8043313F45A
:104E7000800308BFC4F8003500F0B4FD0023EB60E8
:104E80006B61D7E8EF3F23F47F0323F47043C7E857
:104E9000E23F002AF5D126F4202626F404769FE787
:104EA000830687D54FF480338CE72A62D8E7D4F89D
:104EB0003C35CFE709B100232B626FF07600F8BDD7
:104EC00010020A000023F0B50446C0F80831D0F8FB
:104ED0000831D0F800321A4F23F02003C0F8003216
:104EE00085B0C0F808730D46164600F073FDD4F87F
:104EF000583133B1D4F8043313F4800308BFC4F835
:104F0000003500F06FFD002305F14C02AB602B6112
:104F1000D2E8EF0F20F47F0020F47040C2E8E10FE8
:104F20000029F5D1D5E90012042400936846CDE9A3
:104F3000023301968DF80040904705B0F0BD00BFE8
:104F400010020A002DE9F84391F8303005460C466E
:104F50000868002B69D0D1E902EC4E6891F82C303A
:104F600094F82F2094F82D10002A53D194F82E2075
:104F7000A76A0A43296D012B41F0807129652968D0
:104F800042EA0302C1F82475C1F86C25C1F80C058A
:104F9000C1F8146504BFC1F808E5C1F810C54FF4A5
:104FA0007F02D2F83031BFF34F8FD2F83421BFF3F4
:104FB0004F8FBFF34F8FC3F30B03092B2B686BD0BD
:104FC000002194F83200C3F81011D3F81041C3F84F
:104FD0002011D3F82041C3F82411D3F8244143F31E
:104FE0000732C3F84411D3F844414001C3F85811C3
:104FF0008A42D3F85831C0B247DB5A498B1883F83C
:105000000003012302F01F008340520941F82230BF
:10501000BDE8F88394F82E200A431343A16A2A6856
:10502000C2F82415C2F86C35B9E72A6D42F0007158
:105030002965411C10D0410940F08C8001214A4F64
:10504000814007EB8006B960D6F80012474B0B4051
:1050500043F00303C6F800326668731C0CD0730972
:1050600006F01F0178D1404B03EB8103D3F80072A7
:105070003E493940C3F8001294F82C30D4F80CC0E3
:10508000012B33D0D4F808E06AE7394B02F00F0265
:1050900013441876BDE8F883D3F8682503F2645703
:1050A000012A08BFDA603A68012A89D10821C3F8C9
:1050B00000155A602F4B49F64046DFF8BC9043F08C
:1050C000010807E02D4B1868A9FB0030800CC04791
:1050D000013E02D03B68002BF4D100222B68D3F8AC
:1050E0008014C3F88014C3F8002569E742F02062F9
:1050F000BCF1FF3F2A650DD05FEA5C130CF01F0284
:1051000022D1194B03EB8203D3F80012174A0A404D
:10511000C3F80022D4F808E0BEF1FF3F11D05FEAE7
:105120005E1316D10122104F02FA0EF207EB8E0128
:10513000BA60D1F800220D4B134043F00303C1F8CD
:10514000003294F82C300BE70023803253F82230E1
:10515000FFDE00239B60FFDE0023803153F8213007
:10516000FFDE00BF00E100E000258450F0F8FCFF06
:10517000FCEC00E0C087000083DE1B4398AF0020FA
:105180002DE9F04F0C4690F84C1083B0002940F008
:10519000BF80814615460430502203F077FED4E9E3
:1051A0000423C9F83C30A369C9F80420002B69D155
:1051B000226AC9F84030042A58D894F83130002DBA
:1051C0005CD083F001063602002B48D10123D9F8C8
:1051D00000A089F84C30DAF84C21C9F80850002AB0
:1051E00057D121464846FFF7ADFE0823D9F80040C5
:1051F0000022C4F8003501230A270DF10701C4F885
:1052000044158DF80720C4F84825A360E36042499F
:10521000D4F858214148424B41F001015AB9006885
:10522000A3FB0030800C8847013FF0D16FF08B006A
:1052300003B0BDE8F08F0023C4F82031D4F820215A
:10524000C4F800351DB146F4202646F4047600204B
:10525000D9F80030C3F8046303B0BDE8F08FD9F883
:10526000503043F00103C9F85030AFE70023E26942
:10527000C9E9072394F83130002DA2D12E46002B26
:10528000A4D0ECE7226A013B042AC9F8403094D943
:10529000ECE70822204FCAF800254FF0640BDFF836
:1052A0008080CAF8043047F001070DE0DAF82431B5
:1052B0007BB91368A8FB03239B0C03EB8303580003
:1052C000B847BBF1010B14D0DAF84431134A002B74
:1052D000ECD00023CAF84C31DAF84C21CAF810316E
:1052E000DAF81021CAF84431DAF84421CAF8003556
:1052F00077E7CAF84CB1DAF84C31CAF810B1DAF8ED
:105300001031CAF844B1DAF84431CAF800B58DE773
:105310006FF07700A0E700BFC087000098AF0020C3
:1053200083DE1B4390F84C30002B40D030B5036B2C
:10533000044683B0002B37D10068A268C0F800355E
:105340000AB10B6963602046FFF7FCFD00220123D0
:1053500008200A2524680DF10701C4F800058DF81E
:105360000720C4F84415C4F84825A360E360114B36
:10537000D4F858111048114A43F0010349B10023F1
:105380001846C4F82031D4F82021C4F8003503B001
:1053900030BD0068A2FB0020800C9847013DE6D19B
:1053A0006FF08B0003B030BD6FF00F00EFE76FF0D0
:1053B00076007047C087000098AF002083DE1B4353
:1053C00090F84C00003818BF012070472DE9F047D5
:1053D000D0F80080002A00F08380876804468A465F
:1053E0001D461646002F36D0AF0750D10AF0604355
:1053F000B3F1005F1BD0E36B002B39D0680737D4C3
:1054000000F0E8FA236B002B49D10122236D2663BB
:1054100043F00203C4F82CA023654046211DFFF78A
:105420006FFC002400F0DEFA2046BDE8F087236D13
:10543000D90722D400F0CEFA236B23B3A36B73BB3E
:105440006B072CD5E36A03F06043B3F1005F29D00A
:105450004FF0FF34E6E7002BC6D1056B002D4CD191
:105460000263FFF767FB256304462046BDE8F0872B
:105470006FF00C042046BDE8F0876A072DD400F0D9
:10548000A9FA236B5BB90022C4E90BA6C5E72B463A
:10549000324651462046BDE8F047FFF74BBB6FF060
:1054A0000F04BFE70A25236DC4F834A043F01003AE
:1054B0002365A663124CDFF84C9044F00104D8F841
:1054C0005031114A7BB91068A9FB0030800CA0470D
:1054D000013DF4D16FF08B04A4E74FF0FF34C9E72E
:1054E0006FF00604C6E70023C8F85031D8F85031F1
:1054F000C8F844A5C8F8486593E76FF00F04B9E70A
:10550000C087000083DE1B4398AF0020F8B5046815
:10551000036BD4F80463C4F80863002B42D005463B
:1055200000F15003D3E8EF0F40F00800C3E8E20FAA
:10553000002AF7D10123E36019B90020C4F80463FD
:10554000F8BD2F6D1F40D4F85831C3B100F042FAB6
:10555000EFB1D4F858314BB1D4F8583133B12B6D89
:10556000C3F30032DB0458BFC4F8002500F03AFA58
:105570000023C4F82031D4F820212B63DDE7002F6D
:10558000E1D1D4F82031002BDDD000F023FAD4F89B
:105590002031002BEAD00123E360D4F85831002BEE
:1055A000FBD0D9E76FF07600C4F80463F8BD00BF04
:1055B0000268F8B54A4942F30733002B0446C2F8A3
:1055C00008130DDB012147485A0903F01F0320325D
:1055D00001FA03F340F82230BFF34F8FBFF36F8F10
:1055E000012220461146FFF7D3FB01212046FFF799
:1055F0008DFF226D2368D101D3F80C55D3F8140523
:10560000D3F80865D3F8107509D54FF0FF31C3F80A
:105610000C15C3F81415C3F80815C3F8101591013B
:1056200009D56B1C1FD1451C0BD1110103D57A1C68
:105630003BD1731C29D1002384F84C302365A3602F
:10564000F8BD00F01F03400944D1274901EB830155
:10565000D1F80002254B034043F00203C1F80032A9
:105660001101E8D5E3E705F01F036D0932D11E49AA
:1056700001EB8301D1F800521C4B2B4043F0020395
:10568000451CC1F80032D0D0DBE706F01F017609D7
:105690001BD1154A154B02EB8102D2F800120B40C8
:1056A00043F00203C2F80032C5E707F01F017F098B
:1056B0000BD10D4A0D4B02EB8102D2F800120B40C8
:1056C00043F00203C2F80032B3E70023803153F8FD
:1056D0002130FFDE0022803352F82330FFDE00BF8E
:1056E00010034A0000E100E000258450F0F8FCFFC0
:1056F000F0B50646054656F8504B85B0D6E8EF3F64
:1057000043F48052C6E8E02F0028F7D1DB047FD4B1
:105710004F0702D5EB69002B7DD0002208273F4BB5
:105720000803C4F808338B0303F4804300F40050EB
:105730004903C4F8007501F40041C4F81021034383
:105740000B43D4F81011C4F84C21D4F84C11C4F810
:105750004421D4F84421D6E8EF2F1A43C6E8E12FBC
:105760000029F8D1EB68002B30D0D4F804232B6D3E
:10577000510703D5AA680AB11A030FD4DB0402D477
:10578000002005B0F0BDD4F84C31002B3DD0AB6803
:10579000002BF5D0214BC4F80433F1E7D6E8EF3FF6
:1057A00023F40023C6E8E23F002AF7D100230621B4
:1057B0000093CDE901338DF8001003936846AA6881
:1057C000696890472B6DDB04DAD5DCE7AA6862B123
:1057D000CDE90033CDE90233032368468DF800306C
:1057E00069689047EB68002BBFD12B6DD804C7D5F3
:1057F000D6E8EF3F23F47F0323F47043C6E8E23F8B
:10580000002AF5D16FF00B00BBE701232360BEE750
:105810006FF00F00B5E74FF0FF30B2E710020A005B
:105820002DE9F0470568036DD5F8048313F480294A
:1058300084B0C5F8088340F0A980174601F06042A3
:10584000B2F1005F0E467ED1C26804460AB3826898
:10585000BAB16269002A40F096805B04C4E905672A
:10586000C5F83465C5F8387505D5D5F8003243F06C
:105870002003C5F800324846C5F8048304B0BDE8EB
:10588000F087D5F81021002AE3D0C5F81091D5F89B
:105890001031226AC4E90367AAB19742E16931D99C
:1058A000304603F0B7FA0022236A2262A36204F1B1
:1058B0005003D3E8EF1F41F40021C3E8E21F002AA0
:1058C000F7D1D4E90367A36AFF1A3344C5F8343526
:1058D000236DC5F83875DA04CDD55034D4E8EF3FE0
:1058E00023F48023C4E8E23F002AF7D101232B6090
:1058F000D5F84431002BBED00023C5F84431D5F88B
:105900004431B8E74FF0000A3A463046C4E903AAEA
:1059100003F080FA226AE069D21B2262C11903F007
:105920002BFAA268002AA6D0236D13F400530DD1E0
:105930000093039301236846CDE9016761688DF800
:105940000030904797E76FF00C0994E704F150039B
:10595000D3E8EF1F41F48021C3E8E21F002AF7D10A
:1059600001236846CDF800A0CDE901678DF800302D
:10597000CDF80CA0D4E90113984752462846211DC2
:10598000FFF7A0FA77E76FF00F0974E76FF0760979
:1059900071E700BFFFF7FCB983686BB90368D3F800
:1059A0000025082A0BD1D3F810217AB111B1D3F810
:1059B0003C350B60002070474FF0FF30704711B14D
:1059C000D3F83C350B606FF0770070476FF00F0035
:1059D000704700BF72B6024A136801331360704704
:1059E0003CB60020034A1368013B136003B962B65A
:1059F000704700BF3CB6002004207047002070476D
:105A00000020704700487047F487000008B500F098
:105A100035F8002818BF6FF0040008BD830710D1C7
:105A2000B0F5801F0DD8C0F58013B3EB820F10B511
:105A3000144603D300F03EF8204610BD6FF004007A
:105A400010BD6FF004007047B0F5801F034611D8F9
:105A500010B514460846C3F58011B1EB840F4FEA28
:105A6000820204D3194603F0D5F9204610BD6FF029
:105A7000040010BD6FF00400704700BFC0F30B03BB
:105A80009BB902234FF0FF31094AC2F88435C2F8AE
:105A900004350160D2F80034DB07FBD50023C2F8DF
:105AA00084351846C2F8043570476FF00C00704713
:105AB00000900350012310B50F4CC4F88435C4F88E
:105AC00004358AB1A1F1040CA0EB010E00215CF8B1
:105AD000040FD4F80834DB07FBD54EF80C00BFF3F5
:105AE0005F8F01318A42F2D10022034BC3F8842533
