:10000000F80B0020493A0000B13A0000A5EC0000CE
:10001000C5EC0000E5EC000025ED000005ED00005A
:10002000000000000000000000000000156100005A
:10003000BD3A00000000000013720000C33A000047
:10004000000000000000000000000000FB73000042
:1000500000000000C93A000000000000000000009D
:10006000CF3A0000D53A0000DB3A0000E13A000048
:1000700000000000E73A0000ED3A0000F33A00000B
:10008000F93A0000FF3A0000000000000000000004
:10009000053B00000B3B00000000000000000000DA
:1000A000113B00000000000000000000173B0000B2
:1000B0001D3B0000233B0000293B00002F3B0000BC
:1000C000353B00003B3B0000413B0000473B00004C
:1000D0004D3B000000000000533B0000000000000A
:1000E000593B0000000000005F3B000000000000E2
:1000F000653B000000000000000000000000000060
:10010000000000006B3B0000000000000000000049
:1001100000000000000000000000000000000000DF
:1001200000000000713B0000000000000000000023
:1001300000000000000000000000000000000000BF
:04014000B73A0000CA
:1001440000015F5F02000000FE0B0000A5610000DB
:100154000004000000000000000000000000000097
:1001640000000000000000000100FFC3000000C404
:10017400C0A100200000000001015F5F0301000036
:100184001F010000A50F0000002000000000000077
:100194000100000001000000000000000000000059
:1001A400000000000000000058350020000000009E
:1001B40070000000F80C010080000000000F000037
:1001C40001000000150300000100000001015F5F51
:1001D400000100001F00000081370000000700003C
:1001E4000000000003000000010000000000000007
:1001F40000000000000000000000000000160020C5
:1002040000000000800000007000000040000000BA
:10021400030D010060000000010700000100000060
:10022400052E00000100000001015F5F01010000D4
:100234001F01000049180000200700000000000012
:1002440000000000010000000000000000000000A9
:1002540000000000000000005855002000000000CD
:10026400210D010070000000020F000001000000D9
:10027400D10600000100000001015F5F04010000DD
:100284001F010000F128000000050000000000002C
:100294000000000001000000000000000000000059
:1002A4000000000000000000785C00200000000056
:1002B400460D010040000000050700000100000099
:0802C400992600000100000072
:1002E00038B500250648294600F58054D4F8002486
:1002F000C4F804540EF080FDC4F8005438BD00BFAB
:1003000078610020024BD3F804340360002070476A
:10031000787100202DE9F04F04680546A5B0002C47
:1003200040F014812022214604A80EF065FD14AF90
:10033000202221460CA80EF05FFD402221463846BF
:100340000EF05AFDEA6905F11C039846B2B1042487
:10035000EA6A05F12C03EAB10426ECB96FF08304D4
:10036000204625B0BDE8F08F002CF1D053F8041DD5
:100370002246013C0029F7D01446E9E70324F5E7BB
:10038000002EEAD053F8041D3246013E0029F7D072
:100390001646E2E70326F5E740233A46002168685F
:1003A00007F0A4FD4028D9D10121DFF8A8A1CDE9AB
:1003B000047005F1100904AF0AF5805B8C422ED160
:1003C0000CAF38460021644A08EB860ED2F80034A0
:1003D000A2F58059C64540D109B1C2F800340023C6
:1003E000CDE90233059BA968402BC2F80414049A96
:1003F00040F0A080138D180A03285BD0012800F07C
:1004000082801268831ECDE90221092B00F28C80C4
:10041000DFE803F04150555B61676D737E8459F8E6
:10042000043F1A1D21D8DBF800C4D81C20F00300BB
:10043000CCF5A052904218D860440CEB0A02CBF8DD
:1004400000046868CDE9001207F050FD019A009998
:10045000F860013147F8082FB0E758F804CF1CF1D5
:10046000040F07D909B1C2F80034FFF739FF6FF064
:100470008C0475E70CF1030424F00304C3F5A05ABF
:10048000544500F10800EDD803EB090140E9021CD6
:10049000234401219EE702AA0CA904A801F0E2F876
:1004A00004464FF00008464507F1080745D1FFF71D
:1004B00017FF55E70CA904A800F085FDF0E702AA94
:1004C0000CA904A800F040FEEAE702AA0CA904A8BF
:1004D00000F076FDE4E702AA0CA904A800F0F0FE03
:1004E000DEE702AA0CA904A800F0F2FFD8E702AAEE
:1004F0000CA904A800F0EFFFD2E702AA0CA904A8F7
:1005000000F0ECFFCCE70CA904A801F066F9C7E7FE
:1005100002AA0CA904A801F091F9C1E702AA0CA94A
:1005200004A801F08EF9BBE70C480EF0EFFC6FF069
:100530008504B6E76FF08004B3E7414657E902232C
:10054000686807F0DDFC08F10108ACE76FF085048E
:1005500006E700BF7861002078710020382900008C
:1005600008B54FF4C052002102480EF045FC0020AF
:1005700008BD00BF581D00200023F7B50C680746D2
:100580000E461546019314BB22B3146001A8FFF771
:10059000B9FEA8B94FF4407C104A0CFB04F3D158C3
:1005A000A646013471B94FF0010E02EB030C42F87C
:1005B00003E0019910331344CCE9011734602B6038
:1005C00003B0F0BD082CE8D16FF08400F8E76FF0BD
:1005D0008800F5E76FF08600F2E700BF581D0020A5
:1005E0000023F7B505680193013D072D036004D989
:1005F0006FF08604204603B0F0BD01A8FFF782FE2D
:1006000004460028F6D14FF440735D430A4E7359F7
:100610007719012BECD17A68019B9A42E8D105F158
:1006200010004FF43C72214630440EF0E5FBC7E960
:1006300001447451DEE700BF581D0020002373B54C
:100640004C1E072C06461546019303D96FF088000F
:1006500002B070BDC2B101A8FFF754FE0028F7D167
:100660004FF4407202FB04F1094B5C585A18012CFC
:10067000ECD19468B442E9D15468019A9442E5D12E
:10068000103119442960E3E76FF08600E0E700BF0E
:10069000581D002010B5044C0F22204603490EF0CF
:1006A00086FB204610BD00BFC89E00205D290000CB
:1006B00008B54FF40251044802F0AAFA034807F0C3
:1006C00035FD002008BD00BF487E0020E117000076
:1006D0006FF47A72F0B50368044613448DB0032BAF
:1006E0007CD8DFE803F002284C6B0369082B02D0AA
:1006F0006FF080055FE08569042DF9D10021406825
:1007000008AA07F0F3FB0828F2D12B460221606803
:1007100006AA07F0EBFB0428EAD16168314A636955
:100720001160069ACDE90032DDE90823A06800F0E7
:100730001DF905463FE00369082BD9D14569042D11
:10074000D6D10021406808AA07F0D0FB0828CFD1F5
:100750002B460121606806AA07F0C8FB0428C7D110
:100760006168204A236A116005AACDE90132069B1F
:100770000093A068DDE9082300F054F9D9E7036984
:10078000082BB5D1076A0C2FB2D10021406806AA08
:1007900007F0ACFB0828ABD1DDE9062308AE0096D4
:1007A000A06800F091F9054628B901463B4632465B
:1007B000606807F0A5FB28460DB0F0BD0369082B63
:1007C00096D10021406808AA07F090FB08288FD135
:1007D000DDE90823A06800F089F9AAE76FF0850534
:1007E000E9E700BF80750020024603480B46006819
:1007F000012107F07BBB00BF807500200246034843
:100800000B460068002107F07BBB00BF807500200D
:100810001FB5CDE902010843019218D004220D480A
:100820000DEB02010EF0C3FA08220B480DEB02019A
:100830000EF0BDFA019C0948094B0A4AB4F5807FC5
:1008400008BF1846034901F0E4F804B010BD6FF08A
:100850008600FAE7DA9E0020DE9E00209C750020CC
:1008600084750020B47D002030B5384B85B09D6A7A
:10087000A8470369042B03D06FF0800005B030BD9A
:10088000A847334C8368A360A847037D01A823765B
:1008900005F09AFA0028EFD1019BA26863609DF8E9
:1008A0000C3021465343029A2A48B2FBF3F22282CB
:1008B000294AE36001F060F80028DFD1254801F003
:1008C0008CF8002834D1A8470369042BD4D1A84759
:1008D000224C8368A360A847037D01A8237605F016
:1008E00065FA0028C8D1019BA26863609DF80C30AE
:1008F00021465343029A1A48B2FBF3F22282164A67
:10090000E36001F039F80028B8D1154801F065F826
:100910000028B3D013480EF0F9FA114801F077F827
:100920000028ABD10E4805B0BDE8304001F055B805
:100930000D480EF0EBFA074801F069F800289DD148
:10094000044801F04AF80028BDD097E7C8790000B4
:100950003C1D00209C75002018290000201D00204F
:1009600084750020922900006C2900002DE9F347CE
:100970001946DDE90A5652EA01030446104641D001
:10098000072E42D82246FFF743FF30B9204B9B6821
:10099000DB0705D56FF0840031E010F18C0F2ED10C
:1009A000DFF86CA01B4F1C4B46F44036CAF80860B9
:1009B000B4F5807F18BF1F460026DFF86080DFF89F
:1009C0006090CAF80450B5F5006F2C4628BF4FF46C
:1009D000006412482146FFF707FF23465246494666
:1009E0003846CDE9006801F028F840B9DAF8083057
:1009F0002D1B23F44033CAF808302644E3D102B05B
:100A0000BDE8F0876FF08600F9E76FF08500F6E744
:100A1000B47D0020847500209C750020B4750020F2
:100A2000DA9E00202DE9F74F194652EA010380466D
:100A30000C9E1046DDF8389039D04246FFF7E8FEAC
:100A4000054638BB1B4B1C68B44230D30D9BA41B1E
:100A50009C4228BF1C46184F184BDFF864A0B8F51D
:100A6000807F18BF1F46DFF85C80C9F80040B4F5EE
:100A7000006FA34628BF4FF4006B33465A465146D9
:100A80003846CDF8008001F0E1F8054630B100238A
:100A9000C9F80030284603B0BDE8F08F59464046FB
:100AA000FFF7ACFEB4EB0B045E44E0D1F2E76FF06D
:100AB0008605EFE7B47D0020847500209C7500203A
:100AC000DA9E0020B475002038B505461946104658
:100AD0002A46049CFFF79CFE28B9034B1A689B68C2
:100AE000C4E90022A36038BDB47D002010B50446DF
:100AF000194610462246FFF78BFE80B9084B9B68CB
:100B0000DB070AD40748084B0849B4F5807F08BFC3
:100B10001846BDE8104001F089B86FF0840010BDA0
:100B2000B47D00209C75002084750020DA9E002092
:100B3000F8B51D46036804465B680E46174698479D
:100B40000B4BC0F3410013F8202063680699E0685E
:100B50001D442368B1FBF2F200FB065039469B6945
:100B600098470028B4BF6FF091000020F8BD00BF87
:100B70002C2900002DE9F3470A9C07469146002CDA
:100B800057D0C26840681E183B6802FB01665B686C
:100B90009847294BC0F3410013F82080B6FBF8FAC0
:100BA00008FB0AFA564524D03B68012250465B698F
:100BB00001A99847002804DA6FF0910002B0BDE85F
:100BC000F087A6EB0A03E218904501AA02EB0301A5
:100BD00004D9224648460EF0EAF808E0A8EB0605DC
:100BE00055442A4648460EF0E2F8641B02D1002024
:100BF000E4E700253B68A0455B690DD8B4FBF8FA33
:100C000009EB05015246A81998470028D4DB08FBD8
:100C10000AF2A41AEBD015443B6801225B6901A9D2
:100C2000701998470028C7DB224601A909EB050087
:100C3000D1E72046C2E700BF2C2900002DE9F04390
:100C4000904600220446ADF5537D04AD284603913D
:100C500006AE11461F4600F0C7FDA26B40F203111D
:100C6000304600F0C1FD4FF43C72002116A80EF092
:100C7000C3F81822002109A80EF0BEF81A2200219C
:100C80000DF13E000EF0B8F84FF6F87241F2010394
:100C9000B2EBC70F4FF6FF72ADF820304FEAC70333
:100CA00038BF134608A80121ADF8223001F029FE13
:100CB0000FA84FF4804101F024FE4FF49053DFF869
:100CC00088902146226A03803346C0F80C9007F0D2
:100CD000C9FF044638BB494616A808F00DFA044679
:100CE00008BB96E80C0040F2011116A80FF06EF850
:100CF0000446C0B9042340F2032103AA16A80FF04A
:100D00005CF8044678B92A4616A908A80EF0BCFF7C
:100D1000044640B9DA9B4246009395E803003B46FF
:100D20000EF000FB044616A80EF050FF96E80300F4
:100D300007F054FF95E8030007F050FF20460DF53B
:100D4000537DBDE8F08300BF090100082DE9F0479D
:100D500000249AB006A8069407F024F90646DFF8A6
:100D6000C480314FB44201D1002026E0069B4FEAF7
:100D7000441903EB44121169414551D10021956892
:100D800009A853F8092000F02FFD1C2200210BA810
:100D90000EF032F80DF116030293069808AB01939A
:100DA00005AB00934844D0F814A02022806907AB1B
:100DB00012A9D04720B16FF092001AB0BDE8F087B9
:100DC0004FF6F8714FF6FF720A9B1193BDF814307D
:100DD0008B4288BF1346ADF82E30089B099A0E93BC
:100DE000BDF816300BA9ADF82C30069B4B441B699F
:100DF0000C9313F0FF0308BF1A4644235D4305F12B
:100E0000240010923D441C2238440DF0D0FF2846A7
:100E1000079A12A90DF0CBFF079B2B6201232B64CD
:100E200001349FE701010080C07D00207FB56B4643
:100E3000154683E8030012B300240646146003A895
:100E4000039407F0AFF8039BA04209D01A4652F86A
:100E5000201B8E4208D1D3E90221931E0B4306D1F9
:100E60006FF08B0004B070BD13460134ECE74421F1
:100E7000044B002001FB02331B6A2B60F2E76FF08A
:100E80008600EFE7C07D00202DE9F04F87B098463F
:100E9000109B012807461446DDF844A0009304D9AE
:100EA0006FF0860007B0BDE8F08F442545433C4E07
:100EB00073191B6C002B6DD0002AF1D0D2E905B953
:100EC000002303A8039307F067F80023039A9842CE
:100ED0004FD0114651F80CCBE3454CD1D2E9011368
:100EE00039B1002253F8320081453FD103EBC203F0
:100EF0005B6805F124011C223144204601930DF06A
:100F000056FF5A46494604A800F06EFC04996268F0
:100F100061610599019BA161D1B221B922F0FF0263
:100F200042F0010262601946204601F0EAFC4423C7
:100F300003FB07631A6A009B9A422ED8B8F1000F90
:100F4000AED0BAF1000FABD0A36870195B0415D511
:100F500040F20313994511D042464946009BCDF813
:100F600040A007B0BDE8F04FFFF768BE01329142E4
:100F7000B8D10023BDE70A460133A8E70146404641
:100F80000DF015FF442303FB0766336A0020CAF8FF
:100F9000003087E76FF08B0084E76FF0890081E70E
:100FA000C07D002008B5FFF7DBFA40B9FFF772FB00
:100FB000FFF77EFB18B9BDE8084008F0BDB908BDD1
:100FC0006FF0850070472DE9F0430026056885B075
:100FD000B5F828900746B9F5407F8846029612D1A9
:100FE0000B1D01934B6800930B68D0E902126868EF
:100FF0000EF045FB0446002858D0C8F8046020468F
:1010000005B0BDE8F08340F20133994509D1436949
:1010100000938168D0E9032368680EF041FB044621
:10102000EDE740F20233994519D10E6816B96FF019
:101030008004E4E74B68032BF9D9AB683146032001
:10104000336002AAFFF798FA04460028D7D16968EE
:1010500002980EF0A4FA044640B330466EE0032036
:10106000A96802AAFFF7EAFA6FF441734B44022B16
:1010700004460BD90028C2D10646A9F20333042B3B
:101080005FD8DFE803F015371B283200D8F800607E
:10109000002ECCD0D8F80430032BC8D9AB6833600D
:1010A0000028EAD040F207339945A8D10024A6E7EA
:1010B0000298D7E902120EF091FAB0E7029808F10F
:1010C0000C03D8E902120EF09DFA044658B1002331
:1010D000C8F80C3093E70298D7E902120EF0A3FA91
:1010E000044600288BD10024B7E702980EF04CFA92
:1010F0000446B2E70023D8F800500393002D96D0A1
:10110000D8F80430032B92D9BB68002B8FD0FA6833
:10111000032A8CD91B68294603202B6003AAFFF7FA
:101120002BFA044600287FF46AAFDDE902010EF0D5
:10113000E0FA044600283FF462AF2846FFF750FA71
:101140005DE76FF085045AE72DE9F04F0025D0F8F0
:10115000009089B0B9F828A00DF1180807460E468E
:10116000D2E900214046059500F03EFBBAF5806FBC
:1011700016D1331D03937368029333680193FB68A0
:101180000093BB68D9F8042098E803000EF0AEFB8A
:101190000446002856D07560204609B0BDE8F08F9F
:1011A00040F201439A450ED17B6902933B6901935A
:1011B000FB680093BB68D9F8042098E803000EF0A0
:1011C000AAFB0446E8E7AAF2024B1FFA8BF3012BB5
:1011D0001AD8356815B96FF08004DDE77368032B02
:1011E000F9D9D9F80830294602202B6005AAFFF763
:1011F000C3F904460028CFD1BBF1050F5DD8DFE865
:101200000BF02331393F4D570220D9F8081005AAB9
:10121000FFF714FAAAF20543022B044603D900286B
:10122000BAD10546E8E73568002DD4D07368032BA2
:10123000D1D9D9F808302B600028DDD040F207431F
:101240009A45A9D10024A7E7D9F80430059898E871
:1012500006000EF0C8FA04460028F3D02846FFF72F
:10126000BFF999E7D9F80430059898E806000EF020
:10127000C6FAF0E70598D7E902120EF0CCFAA0E71B
:10128000059806F10C03D6E902120EF0D8FA0446CE
:1012900008B90024E2E70023F3607DE70598D7E969
:1012A00002120EF003FB044600287FF475AFF0E74E
:1012B00005980EF038FA0446D0E76FF085046BE726
:1012C0002DE9F04F4FF0000907688DB0B7F828A05E
:1012D0000DF1280806460D46D2E900214046CDF81A
:1012E000249000F081FABAF5C06F1FD12B1D07932F
:1012F0006B6806932B680593F3680493B3680393B4
:1013000073690293336901937B6A00937A6807F1EA
:10131000140398E803000EF028FB0446002868D068
:10132000C5F8049020460DB0BDE8F08F40F201638F
:101330009A4517D12B1D07936B6806932B6805936D
:10134000F3680493B3680393736902933369019359
:101350007B6A00937A6807F1140398E803000EF0A3
:101360004CFBDAE7AAF2026B1FFA8BF3012B20D8B1
:10137000D5F80090B9F1000F02D16FF08004D1E7E9
:101380006B68032BF9D9BB6849460520C9F80030C2
:1013900009AAFFF7F1F804460028C3D1BBF1090FF1
:1013A00000F29380DFE80BF027345662697A6F3BD6
:1013B00080510520B96809AAFFF740F96FF4C163AD
:1013C0005344022B044603D90028ABD18146E5E7FC
:1013D000D5F80090B9F1000FCFD06B68032BCCD9B2
:1013E000BB68C9F800300028D8D040F20B639A459A
:1013F00098D1002496E77B68099898E806000EF0DB
:1014000053FB04460028F4D04846FFF7E9F889E783
:101410007B68099898E806000EF052FBF1E705F1A9
:101420000C030293EB6809980193AB680093D5E92C
:10143000041205F114030EF073FB044608B90024EE
:10144000E2E70023EB606B616CE709980EF01DFB8F
:101450000446D9E709982B1DD5E900120EF0F8FCD7
:1014600004460028C5D000236B605BE70998D6E9E5
:1014700002120EF031FB044654E70998D7E9031233
:1014800007F01CFDF7E72B1D01936B68099800938B
:101490002B68D6E9021207F06BFDE1E70998D6E95F
:1014A000021207F037FDE6E7F36809980193B36885
:1014B0000093D5E9021205F10C030EF063FB04461C
:1014C0000028BCD00023EB602CE76FF0850429E7EF
:1014D0006FF0850070476FF08500704700232DE99D
:1014E000F04706688EB0B6F828900DF1140807464C
:1014F0000D469246D2E900214046049300F074F96B
:10150000B9F5106F0FD12B1D03936B6802932B68F5
:101510000193FB680093BB68706898E806000EF0C2
:1015200000FD044626E040F60113994517D12F68C7
:10153000002F74D06B68032B71D9B368394604202F
:101540003B6004AAFFF718F8044698B9716804983C
:1015500007F0D2FD0446002872D100240AE00420DE
:10156000B16804AAFFF76AF8044638B140F60A13D6
:10157000994557D020460EB0BDE8F087A9F602196C
:10158000B9F1080F6BD8DFE809F0050F14281B5FCD
:10159000222F4D002968002941D06B68042B3ED1D1
:1015A00004980EF041FBBCE7316B04980EF045FB4C
:1015B000B7E7718D0498D7E902230EF0FEFBB0E780
:1015C000718D0498D6E90C2307F0EAFDA9E7049889
:1015D000D5E900120EF042FBA3E7718D049898E85C
:1015E0000C000EF0F3FB9CE72E68C6B16B68032B72
:1015F00015D9B96899B1FA681C2A10D107A80DF05D
:10160000D6FBDAF8040007A900F0F1F84246049985
:1016100007A80EF039FB059B04463360AAE76FF07C
:101620008004A7E72F68002FF9D06B68032BF6D949
:10163000B3683B60002C90D104980EF0C7FA0446C2
:101640003846FEF7CDFF95E7FB68718D0193BB68C7
:101650000498009398E80C0007F0D4FD61E76FF060
:10166000850487E72DE9F0418EB003ACD0F8008007
:1016700006460D461746D2E90021204600F0B4F890
:1016800040F20322B8F82830934203D0A3F5027346
:10169000012B0ED8B16811B96FF0800426E0F26812
:1016A0001C2AF9D107A80DF082FB786807A900F081
:1016B0009EF8B8F82830A3F50073092B00F28A8051
:1016C000DFE803F02F1824052A414D595E77D6E94B
:1016D00004122E68002EDFD06B68032BDCD9234662
:1016E00007A807F0BFFA0446039B336020460EB0FC
:1016F000BDE8F0812E68002ECED06B68032BCBD9CD
:10170000D4E9000122460EF010FDECE794E8030056
:101710000EF02CFD0446E9E794E8030007F05EFABA
:10172000F8E794E8030007AA2E680DF0C8FD2B68BF
:101730000446002BB0D06A681C2AADD8304607A9F1
:101740000DF035FBD2E72B1D0093D5E9002394E87B
:1017500003000DF0E7FD044650B90024C6E72B1D39
:101760000093D5E9002394E803000DF035FEF2E77D
:1017700000236B60BAE794E803000EF018FDC9E798
:10178000002205A811462E6800F02EF82B68002BC9
:1017900082D06B68032B7FF67FAF94E8030005AB24
:1017A00007AA0DF049FE044600289FD1059B33602F
:1017B000D3E72E68002E3FF46FAF6B68032B7FF6E4
:1017C0006BAF214607A80EF0FCFB044600288DD124
:1017D000039BECE76FF0850488E76FF085007047A6
:1017E0000FB4002004B07047C0E900217047886141
:1017F0007047F0B585B06C4684E80300002403A868
:1018000016461F46039406F0CDFB2146009A039D21
:10181000814202D16FF08B000BE02B4653F8204B36
:10182000944208D100202B693360D5E90223C7E92F
:10183000002305B0F0BD1D460131E9E76FF08500DA
:1018400070476FF085007047FFF70EB808B5036862
:1018500000209B689847002818BF6FF0910008BDD2
:101860000020704770B504460E460025E368AB4281
:1018700001D8002070BD606806FB0300236828447F
:10188000DB69984710B9A3681D44EFE76FF091003A
:10189000F0E72DE9F04F03688FB006AA04460E4624
:1018A000D3F80C8000F0F7FB00285FD10BA800F004
:1018B000E6FE014600285CD1DDE9067A202206A872
:1018C000099D0DF099FA3146204606AA00F02AFD3E
:1018D00000284BD1834681462368DB8A5B4515D8B7
:1018E000002D35D12946204603AA00F05CFC0028D3
:1018F0003CD12946204603AA00F073FEB0BB204627
:1019000000F058FE78B36FF083002FE0B3451CD091
:101910005946204606AA00F0BEFB38BB069BBB42D8
:101920000DD10BA800F0ABFE48B9079B534506D973
:10193000984528BF98465B1B0793099B99445946D5
:10194000204606AA00F0EEFC80B90BF1010BC3E7BC
:1019500043462A4639462046CDE900A900F097F9CA
:1019600020B9002FCBD1204600F080FB0FB0BDE89E
:10197000F08F6FF08B00F9E770B50C461646054600
:1019800040B339B332B3098A012923D9032921D0BD
:10199000E38A0229E268A08A4FEA431307D0904203
:1019A00018D80C200239083300FB013307E0A2F1FC
:1019B0001401C91A81420DD390420BD814339342BB
:1019C00008D81822002128460DF016FA0020C5E993
:1019D000004670BD6FF08600FBE737B5054600F0A6
:1019E0008DFD044658B94FF08071284601AA00F0D9
:1019F000BCFB38B928460199FFF74BFF0446204647
:101A000003B030BD10F18C0F18BF0446F7E700F0AB
:101A100099BC10B58AB0144602AB01AA00F076FB5F
:101A200040B9059B6360049B2360BDF81830A36038
:101A30000AB010BD6FF08B00FAE72DE9F04393B0C8
:101A40000DF128080446894615460021202240460B
:101A50001F461A9E0DF0D0F94FF6FF73CDE90533FE
:101A600025B96FF0860013B0BDE8F083AB68B3F121
:101A7000807FF6D2236849465A8A6B682046013B2C
:101A80001344524213406B6005AA434600F03EFBEC
:101A9000002840F08580AB6805999A0306D50D9A19
:101AA000D5F804C062456ED10C900E9306914FF6A6
:101AB000FF73069A9A427CD121686B68898A8B42AF
:101AC000CFD807A9CDE9028106A90191A9682046CE
:101AD000009105998A1A18BF0122494600F0C1FBFE
:101AE0000028C0D1002F6CD120460A9907AA00F027
:101AF00078FD002851D106994246204600F012FC9C
:101B00000146002849D1DDE905539D4228BF1D4605
:101B100020462A4600F0DCFC00283ED14FF6FF723A
:101B2000059B93420FD0069A93420CD09A4238BF3D
:101B30001A462046691C00F0CBFC70BBDDE905535A
:101B40009D4238BF1D4623682046DA8A691C00F092
:101B5000BFFC10BB0A9B002B62D1002F60D0204637
:101B600000F084FA00287FF47EAF4FF6FF730599EA
:101B700099423FF478AF069B99423FF474AF2046F8
:101B8000FFF787FE6FE70E9B424643F080732046C7
:101B90000E9300F0C7FB002889D06FF0830062E746
:101BA00010F18C0F7FF45FAFAB68DB037FF55BAFA9
:101BB0007DE720460A9907AA00F0F5FA002891D09F
:101BC000EBE723685B8A5A1E3242E6D17D1E1D4434
:101BD0005B421D400C9B9E42DFD82A4631460D9841
:101BE00000F041FD0028D8D11B9B4246CDE90053AF
:101BF0002046334607A900F0C0F80028CDD10C9B41
:101C00003E440A999E422046079D88BF0C9600F0EC
:101C100028FA294607900A9A204600F080FB63E7DD
:101C2000204600F0C7FC002899D0B6E713B5002382
:101C300001AA044600F06AFA28B920460199FFF784
:101C400028FE02B010BD6FF08B00FAE770B58CB0C3
:101C500015461C4603AA04AB064600F057FA98B98D
:101C60002A462146069800F0FEFC58B9109B2246F1
:101C7000009330462B4604A900F05EF8002818BFF8
:101C80006FF083000CB070BD6FF08B00FAE72DE9A8
:101C9000F04786B01646DDE90E9703AA054688464A
:101CA0009A4600F080FA044698B9059B41463344B1
:101CB0002846059300F0D5F906467FB101464A460D
:101CC0002846CDE900A7039B00F0D4FB28B16FF0B4
:101CD0008304204606B0BDE8F0870127DDE9033222
:101CE0004A450AD2A9EB0201CDE900212846314636
:101CF00000F0C0FB0028EAD101274246284603999C
:101D000000F00DFB4146284603AA039600F069FC4B
:101D1000044628B142463146284600F000FBD8E789
:101D2000B8F1000FD5D0002FD3D06B683146DB68F7
:101D3000286898470446CCE72DE9FF410D46164632
:101D4000096801AA04461F46DDF8288000F02BFA36
:101D500070B901994B1C0BD062686B680A97556883
:101D60004246AC462068334404B0BDE8F0416047C9
:101D70006FF0830004B0BDE8F0812DE9F34715460C
:101D8000DDE90AA90F4698461168044600F069F992
:101D90006B687A689844A8EB0203CDE900230646F5
:101DA00001463B68204600F065FB20BB6368CDF828
:101DB00000A0D3F808A04A46434631462068D047E1
:101DC000C8B9EB686A68B9681A4423682046DB68BA
:101DD0005B1A9B1ACDE9002331463B6800F04AFBB1
:101DE00048B92B683BB1314663682068DB6802B0B4
:101DF000BDE8F047184702B0BDE8F08713B50C24E2
:101E000004FB01F3416800948C6808334169006861
:101E1000A04702B010BD436810B5416904461B6974
:101E20000068984750B923681A8A022A06D962685E
:101E3000A1681846BDE810401269104710BD008A1D
:101E4000022814BF03380020704708B5FFF7F7FFDA
:101E50000C2300FB033303EB4110083008BD2DE9D0
:101E6000F04F002405460F46904626464FF00C09D9
:101E70008BB0D5F800A05046FFF7E1FF0130864255
:101E80000ED300264FF02009D5F800A0BAF816307E
:101E90009E421DD3002088F800400BB0BDE8F08FB3
:101EA00009FB06F36A68CDF80090D2F804B0394611
:101EB0005046083302AAD8470028EED102AB13F8E7
:101EC000012B01300C2884EA0204F8D10136D0E756
:101ED0006B6831465046D3F804B0FFF7B6FF02AA4C
:101EE000034639465046CDF80090D8470028D4D153
:101EF00002AB13F8012B0130202884EA0204F8D148
:101F00000136C1E737B5837B01685A1CD2B28273B0
:101F1000097E04469142416904BF0233837301295B
:101F200000F10D020DD8FFF79AFF40B9082263684F
:101F300000929D6861690346A2182068A84703B013
:101F400030BD6FF08600FAE713B50C4611462279D2
:101F50000346012A09D1036862791B7E9A4214BFA5
:101F600000206FF0830002B010BD022A04D11B686C
:101F7000A2791B7E9A4202D16FF08300F3E7012918
:101F80000DD80DF10702FFF76AFF0028EBD1627947
:101F90009DF807309A4218BF6FF09100E3E76FF0A9
:101FA0008600E0E70822F0B5436887B000925C68DD
:101FB00000236A44054619460068A04702460028E7
:101FC00032D000264FF0FF3408226B6800925F6821
:101FD00001210023286804AAB84700283AD1012229
:101FE000284604A9FFF7B0FF0346002832D1002E8F
:101FF00035D02A689DF81610127E9DF80E00B2FAB0
:1020000082F25209914218D1002914BF0223012300
:102010001B1A18BF01231C462C61B4FA84F400205B
:1020200064096C6107B0F0BD284602A9FFF78CFF78
:1020300004460028C5D10126C6E7904205D10028F4
:1020400014BF022201229142E5D188422CBF002315
:102050000123E0E7002EDFD16FF08300E2E70124E7
:10206000DAE709B9406970478068704710B50446DF
:10207000FFF748FF70B963686169DB6820689847BB
:1020800040B9D4E904232046C4E90432BDE8104035
:10209000FFF7C1BE10BDF7B5066805463046FFF72D
:1020A000D4FE03462020696800904F6830462969B5
:1020B0001446B847064640B92868FFF7C0FE2368B3
:1020C0000130834204D36FF09706304603B0F0BD71
:1020D00004F1140000F0D3FA0028F6D12D68E2686C
:1020E000AB8A9A42EFD8A3689A42ECD3D4E900377E
:1020F0002BB92846E98AFFF7A8FEB842E3D839464B
:10210000E86800F0B0FA0028DFD0DCE72DE9F04302
:102110000746884691461C46002589B03B68DB8A05
:10212000AB4202D86FF08B0616E06A462946384665
:10213000FFF7B1FFB0B90C22414605A80EF0EBFB4A
:10214000064668B9C9F8005034B16D460FCD0FC4CA
:1021500095E80F0084E80F00304609B0BDE8F08331
:102160000135DBE76FF08306F6E7F0B505460E466E
:102170001746002489B02B68DB8AA34202D86FF08F
:102180008B0009E06A4621462846FFF784FF38B9EC
:10219000049B1E4202D03C6009B0F0BD0134EAE766
:1021A0006FF08300F8E773B506460C2000FB01F3DF
:1021B000716800904C683068316908331546A04753
:1021C000044630B9336829681A8A914204D36FF003
:1021D0009704204602B070BDD868D5E9011200F01E
:1021E00042FA04460028F2D12B68012B03D830684C
:1021F000C18AFFF72AFE6B688342EAD0E7E7F7B5AA
:102200000C2606FB01F3416800964F68083301690C
:10221000054600681446B847034630B92B68216864
:102220001A8A914204D36FF09703184603B0F0BDA9
:10223000D868D4E9011200F016FA03460028F2D15A
:102240002268012A09D82A681046FFF7F8FDD18ACA
:1022500000FB066649010831881962688242E4D0B1
:10226000E1E72DE9F04F05468B4691469846002759
:1022700089B0DDE9146A2868FFF7E1FD0130874283
:1022800002D36FF08D0420E0524639462846FFF70E
:102290008AFF044680BBDAF8082090452AD82B68CC
:1022A0005946DB6837609B1A73600C22C6F80C80B5
:1022B00006F114000CF07BFD129BB4603361DAF878
:1022C0000830A3EB0803CAF8083000262B68DB8A25
:1022D0009E4205D26A4631462846FFF7DCFE70B1C1
:1022E0004FF6FF766FF08D042046139B1E6009B0F9
:1022F000BDE8F08F0137BEE76FF08304E5E705A87E
:1023000000F0BDF948B1B9F1000F04D0002C18BF9E
:102310006FF08D04E8E74FF001090136D6E702B10E
:102320008160704773B5056804462846FFF78DFD48
:1023300003462020616800908E6828466169B04796
:1023400002B070BD70B58CB00546FFF72BFE0028BB
:1023500061D16E696B6831461B69286898470446ED
:10236000002878D1B6FA86F16B6828681B6949099C
:102370009847044600286ED12A680126137EB3FAD6
:1023800083F35B09AB73138AC5E90406022B14BF00
:1023900002230123AB6002232B73D18A1046FFF77F
:1023A00054FDD36821461B1A029001AA28460393C4
:1023B0000196FFF723FD044600284CD106462B6802
:1023C0000290DB6803932B681846FFF738FDB04294
:1023D00023D8002C4BD12B681846FFF730FDA042C4
:1023E00028D82022002104A80CF006FD00242B6828
:1023F000DB8AA34232D82846FFF784FD48BB6B68CE
:102400006969DB6828689847044620BBD5E904233E
:10241000C5E904321FE000269CE7198A6A68022990
:1024200014BF032100211846314412699047013638
:102430000443C8E71B8A2846022B14BF032300234A
:1024400023440134214601AA0193FFF7D7FC002859
:10245000C1D06FF0830420460CB070BD21462846E1
:1024600004AAFFF75FFF0028F3D10134BFE76FF044
:102470009104F0E72DE9F04F044688461646994648
:10248000C3B0DDE94CA51DB9284643B0BDE8F08FC7
:10249000B5F5807F2F4628BF4FF48077636800979B
:1024A000D3F804B049465346206802AAD84700280A
:1024B000EBD163680097D3F808B0414633462068F3
:1024C00002AAD8470028E0D13E44BA44ED1BDAE71F
:1024D00073B5066804463046FFF7B7FC154602465A
:1024E00029463046FFF7B1FC801ACDE9002020468E
:1024F000D4E90431FFF7BEFF02B070BD2DE9F04111
:10250000436805461B68006886B09847044628B9AA
:102510002846FFF747FD28B16FF08304204606B038
:10252000BDE8F08108266B6805F108070096D3F82E
:1025300004803A46234629692868C0470028EBD121
:10254000394628462A69FFF7FFFC0028E4D12846CF
:10255000FFF761FC04460028DED12B7B012B24D140
:10256000014603AA2846FFF74AFE04460028D5D1B3
:10257000059B2A68C3F1FF23D26803F57F03F83374
:102580001344CDE90063324628462B696969FFF799
:1025900071FF04460028C1D16B7B2846AB73022330
:1025A0002B73FFF763FD0446B8E7022B18BF6FF0EB
:1025B0008304B3E710B586B0002103AA0446FFF7F1
:1025C000F2FD60B92068049A059BD118C3682046C3
:1025D0005B1ACDE90023D4E90431FFF74BFF06B0C5
:1025E00010BDF0B504460D4687B009B943691360C4
:1025F00029462046FFF702FC0146D0B9D4E904760B
:102600008DB90C2200212068FFF71FFC05FB022278
:102610000832801ACDE900203B4631462046FFF7BC
:1026200029FF07B0F0BD204603AAFFF7BCFD014615
:1026300010B16FF08300F4E7204603AA0396FFF77A
:10264000DDFB0028F5D1012DDBD00C2314226B43D8
:102650000C3B019331463B4620460092FFF70AFFB0
:102660000028CED0DDE7814206D8401A90422CBF28
:1026700000206FF0860070476FF08600704700F111
:102680000C03984202D16FF08B00704710F8012BB9
:10269000002AF6D000207047F0B503680446A3F284
:1026A000F233A7B0032B00F22081DFE803F0025AD7
:1026B000A4A70023C269169300F11C03A2B1042150
:1026C000E26A04F12C03DAB104222369042B19D045
:1026D000012070E00029F3D053F8040D0A460139B7
:1026E0000028F7D01146EBE70321F5E7002AECD0EC
:1026F00053F8045D1046013A002DF7D00246E4E796
:102700000322F5E7206A0428E2D80129E0D1012A52
:10271000DED10021606806AA05F0E8FB0428D7D1C5
:10272000A3680698002B15DB00220699A06803F029
:10273000C5FB0028CCD1216A069816AA03F073FBCA
:102740000028C5D10146236A606816AA05F0D8FBA7
:10275000002030E006A903F0C6FB0028E4D00220E8
:1027600029E0C26900F11C03002A30D00422E16A8A
:1027700004F12C03002936D004212369042BA7D1AE
:10278000012AA5D10029A3D1606816AA05F0AEFBE5
:1027900004289DD1A3681698002B26DB00221699E9
:1027A000A06803F08BFB002892D1169803F073FB0E
:1027B000003818BF012027B0F0BD002AD7D053F849
:1027C000040D1146013A0028F7D00A46CFE703224C
:1027D000F5E70029D1D053F8045D08460139002DF2
:1027E000F7D00146C9E70321F5E716A903F07BFB03
:1027F0000028D3D0B3E702F077FBA9E700253C22FD
:10280000294607A8CDE90255CDE9045506950CF0F7
:10281000F3FA3C22294617A816950CF0EDFAE26966
:10282000019504F11C0312B30426E26A04F12C039F
:102830004AB30425731E012B3FF64AAF012D3FF624
:1028400047AF0423002160680DEB030205F04EFB47
:1028500004281AD06FF08000ADE7002EE5D053F8C1
:10286000041D3246013E0029F7D01646DDE7032657
:10287000F5E7002DDED053F8041D2A46013D00295E
:10288000F7D01546D6E70325F5E7022E16D166697F
:10289000402E27D806AF33463A460121606805F03E
:1028A00025FB8642D6D1CDE9027602A945B92A4652
:1028B000019803F03DFA054628467CE70021F5E73C
:1028C000236A402BC6D816AACDE90423019804AA8E
:1028D00003F02EFADDE9042305460021606805F0C7
:1028E0000FFBE9E76FF0890065E76FF0850062E7AD
:1028F00008B503F096FA002814BF6FF0920000208C
:1029000008BDCA0448BF41F480618B0448BF41F44C
:1029100000618160704700004D180000750B0000D9
:10292000310B000061180000651800000100000074
:1029300002000000040000005B4552525D5B4372E0
:102940007970746F5D20556E737570706F727465F9
:10295000642072657175657374210D0A004D62659E
:102960006420544C5320332E362E3500437265615B
:1029700074696E6720616E20656D707479204954AA
:102980005320666C617368206C61796F75742E0DCD
:102990000A004372656174696E6720616E20656D1F
:1029A00070747920505320666C617368206C617973
:1029B0006F75742E0D0A000001680E4A034691429D
:1029C00015D1C169A2F11022A2F1EF1291420ED1EC
:1029D0008268012A0BD8C26812B101698A4206D006
:1029E000586928B19B691B1A584258417047012009
:1029F000704700BF55AA00FF0D4B70B59E68A6B189
:102A00003046FFF7D9FF044678B9F3686BB93569EA
:102A10000DB9204670BD2846FFF7CEFF28B9EB68F8
:102A2000B34202D12E462D69F2E70124F1E700BF3F
:102A3000E89E00202DE9F041394E3468F368D4B1A6
:102A4000B468C4B1002861D000295FD001FB00F553
:102A5000B5FBF0F0884259D1291D57D8AA070DD0EF
:102A600025F0030204321C4603E0616891424FD214
:102A7000A469002CF9D12046BDE8F0812A46F2E78E
:102A8000891A232904F12007D4E9050C1AD8012357
:102A9000A360A0B1C0F818C0A36903B158610023B6
:102AA000C4E905333369DB0702D5FFF7A5FFA0BBF7
:102AB0002A46002138463C460CF09EF9DBE7C6F872
:102AC0000CC0E9E702F1200804EB08032039C3E950
:102AD000011E2169DFF84CE0DC60196144F808E070
:102AE000AEF1102EAEF1EF1EC3F81CE001B1CB60C9
:102AF000C3E9050C40B18361996901B14B610121C2
:102B00002361C4E90121CAE7F360F5E70024B2E7D5
:102B1000D4F808E0BEF1000FB2D001200CF098F814
:102B2000E89E002055AA00FFF8B5054600283AD0D7
:102B3000364E3368002B36D0B268002A33D0834239
:102B400003D872681344984202D301200CF080F835
:102B5000A0F120042046FFF72FFF0028F5D155F8FB
:102B6000183C012BF1D145F8180C55E90570DFB17F
:102B7000BB68CBB955F81C2C7B68203213447B60B2
:102B8000386100B1C7602022002120460CF034F9E2
:102B9000386908B183682BB333699B0703D5FFF706
:102BA0002BFF0028D1D1F8BD40B3836833BB426806
:102BB00063681344203363600369D4E9052123610A
:102BC00092B9B9B9426981696261A161A2B19461A6
:102BD000A26902B1546103B1DC60202200210CF033
:102BE0000BF9D9E73C46E2E79161A1690029E9D0F8
:102BF0004A61E7E7F160F8E7F460E9E7F36845F870
:102C0000083C03B15C61F460C6E700BFE89E0020A9
:102C100038B50D4614220021044612480CF0ECF899
:102C20001149124805F078FA232D1AD914F003033C
:102C30001FBF043DED18C3F10403E4182A46002128
:102C400020460CF0D9F8074B094AC3E900459C60BF
:102C50002260A2F11022203DA2F1EF126560E26134
:102C6000DC6038BDE89E0020292B0000352A0000DA
:102C700055AA00FF00000000000000000000000056
:102C800010B50F4C4FF4CC72204600210CF0B4F874
:102C90004FF48073A36108A3D3E90023C4E904239C
:102CA0000123A4F8903184F82830BDE8104000F0EA
:102CB000D9BA00BFAFF3008000BD40DFE143E14E71
:102CC0006814002000000000002230B54C4C89B090
:102CD00002AD04904FF4C87301200021CDE90045F6
:102CE000CDE906220394ADF8142007F0E9FC10B1F9
:102CF00001238DF81430049B0022009302204FF42E
:102D0000C8730021019507F0DBFC10B101238DF899
:102D100015304FF4807238A1D1E90001039BC3E95B
:102D200004019A61049BC3E904019A61002006A989
:102D300000F022FE002858D12946012000F01CFE98
:102D4000002852D1022007A900F016FE00284CD11D
:102D5000079A029B9A429DF8143018BF0790012BE6
:102D600003D0002003A900F05EFD9DF81530012B73
:102D700003D0012003A900F056FD039B049993F8AA
:102D80002830012B1CBF01238DF8143091F8283016
:102D9000012B1CBF01238DF8153040F20113BDF843
:102DA00014209A4225D09DF81430012B07D14FF4FE
:102DB000C8721348A4F890310BF0F9FF07E09DF8B2
:102DC0001530022B13D04FF48073A4F8903194F88F
:102DD00091010021013007F0C3FC10B110F18C0FFC
:102DE00003D1074800F0B8FB002009B030BD012333
:102DF000DDE76FF08300F8E700BD40DFE143E14E1F
:102E0000681400206FF47A72F0B5474B04461860DE
:102E100003688DB01344042B08D8DFE803F00327C0
:102E20004867770003698668082B02D06FF0800539
:102E300059E08569042DF9D10021406808AA05F000
:102E400055F80828F2D12B460221606806AA05F041
:102E50004DF80428EAD1069B30460193636900933C
:102E6000DDE9082300F08EFC05463CE00369082BF1
:102E7000DCD14569042DD9D10021406808AA05F0AC
:102E800035F80828D2D12B460121606805AA05F043
:102E90002DF80428CAD106AB0293236A0193059B3F
:102EA0000093A068DDE9082300F082FCDCE70369F9
:102EB000082BBBD1076A0C2FB8D10021406806AAA5
:102EC00005F014F80828B1D1DDE9062308AE009614
:102ED000A06800F081FC054628B901463B46324611
:102EE000606805F00DF828460DB0F0BD0369082BA9
:102EF0009CD10021406808AA04F0F8FF082895D169
:102F0000DDE90823A06800F077FCADE7056A042D31
:102F10008CD100F084FC2B4608900021606808AA40
:102F200004F0EEFF0025DEE7001D002038B5074B5A
:102F300002461D680C460B466868012104F0D6FF66
:102F4000844214BF6FF08000002038BD001D0020B7
:102F50000B46044910B40C6802460021606810BC9E
:102F600004F0CEBF001D002008B5074907480BF04C
:102F7000CDFF00F021F830B100F053FC18B9BDE8E6
:102F8000084000F019B808BD00015005C039000024
:102F900038B5084D2B4600F0FDF9044618B9BDE8D8
:102FA000384000F089BA0021286807F0D9FB204694
:102FB00038BD00BF041D002010B5044C2046FFF7AB
:102FC00083FE034B383C5C6010BD00BF580C0020F2
:102FD000041D00202DE9F347DFF864A01F46534687
:102FE00081468846164600F02BFA044608BB154D6C
:102FF000DAF80000294601AAC5E90498AE6100F09C
:1030000057FC044678B9AE6ABE4216D30A9BF61B3B
:103010009E4228BF1E4605F1380031463844FFF76E
:1030200097FF0B9B1E6040F64802002105480BF0FD
:10303000E3FE204602B0BDE8F0876FF08604F2E7B9
:10304000041D0020200C00202DE9F04F85B0DDF894
:1030500038A00746BAF5006F0E4690469B4673D8D7
:10306000DFF8EC904B4600F0EBF9044600283FD126
:10307000384DD9F80000294603AAC5E90476C5F8F9
:10308000188000F015FC044600284CD12B6BDB07A0
:103090004FD4C5E90BAB4FF0010B5B46D9F800509C
:1030A00051462D480193FFF741FF0446C0BB019BE9
:1030B0002749184600F03CF9044688BB2549D9F851
:1030C0000000C1F828A000F025FC044628BB4246B9
:1030D00038463146FFF75CFF044668B340F64802C5
:1030E00000211C480BF088FE204605B0BDE8F08F9B
:1030F00010F18C0FF8D1174C40F648020021204601
:103100000BF07AFEC4E90BAB4FF0000B02235D46D7
:10311000C4E90476C4F81880C2E70DB1C9F80050BC
:10312000BBF1000FDAD0424638463146FFF730FF98
:10313000D4E76FF08404F6E7002DCFD0214628466F
:1031400007F00EFB0446C9E76FF08604CCE700BF2A
:10315000041D0020200C0020580C00202DE9F3470E
:10316000DFF84CA01E46534681468846174600F0BD
:1031700067F90446B8B90F4DDAF80000294601AAEC
:10318000C5E90498AF6100F093FB044628B9AB6A27
:103190007360EB6A33602B6BB36040F6480200212A
:1031A00004480BF029FE204602B0BDE8F08700BFBE
:1031B000041D0020200C00202DE9F7431A4F804603
:1031C0003B460E46914600F03BF9044620BB174DA6
:1031D0003868294601AAC5E90486C5F8189000F0A8
:1031E00067FB044690B92B6BDB0719D44A4640466F
:1031F000314600F03BF9044640B900F05DF9044661
:1032000020B92146386807F0ABFA044640F6480278
:10321000002106480BF0F0FD204603B0BDE8F08326
:103220006FF08404F2E700BF041D0020200C002092
:10323000F0B500250A4CD4E910768E4208BF8742CB
:1032400005D1A66C964202D100201D60F0BD01356B
:103250000B2D04F12004EED16FF08B00F6E700BFD8
:1032600068140020002030B5DFB0029000F08FFB22
:103270000246002836D102A900F07EFB024688BB38
:103280002A4C029D204600F06FF9024650BB4FF4D5
:10329000B47204F1280103A85D950BF088FD4FF48A
:1032A000B672204603A900F00BFA0246D0B994F892
:1032B00091514FF4C872009023460021681C07F01A
:1032C000E1F9024670B994F89031039003A9012006
:1032D00084F8913184F89051029C00F04DFB68B164
:1032E0006FF0830210465FB030BD012000F04FFB4D
:1032F00002460028F6D1039B01330393039B9C42B3
:10330000F3D8022003A900F037FB0028E8D1039B83
:103310009C4201D80022E5E7022000F038FB02467B
:103320000028DFD1039B01330393F0E768140020EA
:1033300070B50D4648B300231C46154AD2E9101655
:10334000314304F1010106D00B2919D01C4620326B
:1033500023460C46F2E70B2900F1FF300FD0203254
:103360000028F5D12346DC1C2046002107F0F8F99F
:1033700010B110F18C0F01D100202C6070BD0A2318
:103380000028F0D06FF08D00F8E76FF08600F5E7C9
:10339000681400202DE9F0471E4600238146884628
:1033A00017468AB0244D02AC01930FCD0FC495E8A7
:1033B0000F0084E80F003A464846414601ABFFF74C
:1033C00037FF1E4D824668B9019C202205EB44144C
:1033D0003034214602A80BF0EAFC20225146204658
:1033E0000BF00AFD33687168DC1E05EB431343E9FB
:1033F000089805EB44131C463034102220469F6485
:103400000BF0D5FCFFF72EFF064688B1DDE906324A
:10341000134308D0019B202205EB431502A905F1B7
:1034200030000BF0C4FC2022002120460BF0E4FC0D
:1034300030460AB0BDE8F087A039000068140020CB
:1034400037B51D4601ABFFF7F3FE044648B9019BB3
:103450000549DA1C2A606868102201EB43110BF061
:10346000A6FC204603B030BD98140020002330B5E0
:103470008BB0019301ABFFF7DBFE0446B0B9019BB3
:103480000C4D202205EB4315294602A80BF08FFCBA
:103490002146202228460BF0AFFCFFF7E3FE04464E
:1034A00020B12022284602A90BF081FC20460BB057
:1034B00030BD00BF98140020034B002193F8910108
:1034C000013007F04DB900BF6814002030B589B055
:1034D00004460D461822002102A80BF08DFC0023A3
:1034E0004FF440710093194B6846CDE903134FF434
:1034F0001053ADF8043080231549ADF8063007F0BD
:103500004DF800BB40F201116846124A07F000F87E
:10351000A0B90C232A4640F20321684607F062F85E
:1035200060B92246694601A807F084F830B96846B8
:1035300007F012F838B1206806F030FF684607F04F
:103540000BF86FF0830009B030BD00BF00015005DB
:10355000090100085C81FF7F00F11C010C22014879
:103560000BF025BC0C1D00201FB50822184904468D
:103570000DEB02000BF01BFC042216490DEB0200C0
:103580000BF015FC029B039A013342F10002CDE9D6
:103590000232134314D008220D480DEB02010BF048
:1035A00006FC04220B480DEB02010BF000FC0C2280
:1035B000074904F11C000BF0FAFB002004B010BD19
:1035C000019B01330193002BE5D16FF08300F5E7F8
:1035D0000C1D0020141D00202DE9F0438DB00E4677
:1035E00009A9044690469946159F179D00F046F993
:1035F00009A908A8FFF76AFF18BB169BCDE9006868
:10360000CDE90473149B1049CDE9029308980C236B
:10361000069504F11C0206F0DFFE28B1089806F0BA
:10362000BDFE6FF083000CE029681022103929607C
:10363000204639440BF0BBFB089806F0AFFE00288B
:10364000EFD10DB0BDE8F083000150052DE9F04148
:1036500004461D468CB0129E0F4609A9904600F004
:103660000DF921461022A8190BF0A1FB09A908A801
:10367000FFF72CFFB8B9159B10360693149BCDE9C4
:1036800002560593139BCDE9007804930B490C2354
:10369000089804F11C0206F0EDFE38B1089806F017
:1036A0007DFE6FF094000CB0BDE8F081089806F044
:1036B00075FE002818BF6FF08300F4E70001500585
:1036C00070B58EB00D460BA90446164600F0D6F82C
:1036D0000BA90AA8FFF7FAFEF0B909AB069310236D
:1036E000CDE90200CDE90443CDE900560C230B4996
:1036F0000A9804F11C0206F06FFE18B9DDE90930E2
:10370000102B05D00A9806F049FE6FF0830003E005
:1037100006F044FE0028F8D10EB070BD000150053F
:1037200070B58EB00D460BA90446164600F0A6F8FB
:103730000BA90AA8FFF7CAFEB8B909ABCDE9050382
:1037400010230490CDE90243CDE900560C230B4928
:103750000A9804F11C0206F08DFE099B18430A9892
:1037600005D006F01BFE6FF094000EB070BD06F0A1
:1037700015FE002818BF6FF08300F6E70001500522
:10378000FFF7F2BB30B4194604461046DDE90223C8
:1037900050EA010505D0072B07D8224630BCFFF7B9
:1037A00053BC6FF0860030BC70476FF08500FAE7BD
:1037B00070B4194604461046DDE9033250EA0106AA
:1037C000059D05D0CDE90325224670BCFFF702BC5C
:1037D0006FF0860070BC7047194610B4044610465E
:1037E00050EA0102019B03D0224610BCFFF7B6BC91
:1037F0006FF0860010BC7047194652EA010310B5FD
:103800000446104608D02246FFF7D6FC10F1950F6B
:1038100008BF6FF0830010BD6FF08600FBE700204B
:103820007047FFF72DBA70B551F82060DCB0CB6857
:103830004FF4B47205460C4601A806F128015B93CB
:103840000BF0B5FA4FF4B672304601A9FFF768FFE6
:1038500080B1236983B14FF4B672304601A95B93FE
:10386000FFF75EFF00280CBF032301232C442372C3
:103870005CB070BD0223F9E70123F7E71FB5D0E97B
:1038800004230C46CDE90223042283690DEB0201D7
:10389000204601930BF08BFA0822201D0DEB02014C
:1038A0000BF085FA04B010BD0F30000901307047ED
:1038B000F0B51646002289B005AB019301F11C0357
:1038C0000D460093114640F61C03074606F0F8FE2D
:1038D000D8B9059C06970C3C2046FFF7E5FF07ABDF
:1038E000306003934FF4026305F12807CDE90173BB
:1038F00004223B462846009406A9FFF7A7FE30B9EC
:10390000079B9C4218BF6FF0830009B0F0BD6FF0B9
:103910008300FAE72DE9F04186B004900646084698
:103920000D468F6AFFF720FE0446B0B905AA039240
:103930004FF4026207F1100805F12803CDE90132C6
:1039400028460422CDF8008004A9FFF745FE10B9EF
:10395000059B984505D06FF08304204606B0BDE86E
:10396000F08121460094304605F11C0307F11C024A
:1039700006F088FE0446F0E70A4608B5042106F082
:103980001DFF002814BF6FF08300002008BD08B59C
:1039900006F0FCFE002814BF6FF08300002008BD75
:1039A0000000000000000000000000000000000017
:1039B0000000000000000000000000000000000007
:1039C0005B494E465D5B50535D20456E6372797076
:1039D00074696F6E20616C673A20307825780D0A23
:1039E00000000000000000000000000000000000D7
:1039F00000000000000000000000000000000000C7
:103A0000787C0100009F002051000000407C0100F4
:103A1000201D00200E000000407C0100200C002032
:103A20000000000044A000208B060000581D00206C
:103A30006A200000200C002040040000000C002040
:103A40000800000003F0BABB08B572B60C4A0D4B73
:103A50009A600D4B83F309880C4B83F30A8883F338
:103A60000B880B4B04A1D1E90001C3E9000100F070
:103A7000C1F804F0E7F900BFA5EDF5FEA5EDF5FEF0
:103A80000000000000ED00E0F80B00200004002022
:103A9000F80B0020EFF30880EFF309812DE9F00F18
:103AA0006B46724600F098F908B0FFF7CBFFFEE7CF
:103AB00008B5FFF7EFFF08B5FFF7ECFF08B5FFF714
:103AC000E9FF08B5FFF7E6FF08B5FFF7E3FF08B524
:103AD000FFF7E0FF08B5FFF7DDFF08B5FFF7DAFFF6
:103AE00008B5FFF7D7FF08B5FFF7D4FF08B5FFF714
:103AF000D1FF08B5FFF7CEFF08B5FFF7CBFF08B53C
:103B0000FFF7C8FF08B5FFF7C5FF08B5FFF7C2FF0D
:103B100008B5FFF7BFFF08B5FFF7BCFF08B5FFF713
:103B2000B9FF08B5FFF7B6FF08B5FFF7B3FF08B553
:103B3000FFF7B0FF08B5FFF7ADFF08B5FFF7AAFF25
:103B400008B5FFF7A7FF08B5FFF7A4FF08B5FFF713
:103B5000A1FF08B5FFF79EFF08B5FFF79BFF08B56B
:103B6000FFF798FF08B5FFF795FF08B5FFF792FF3D
:103B700008B5FFF78FFF000008B5EFF31083012BA6
:103B80000C4A07D1126ABFF34F8F511C4A424A4177
:103B9000104608BD01F062FC00B172B6126ABFF3B4
:103BA0004F8F531C5A425A4101F058FC0028EFD065
:103BB00062B6EDE70080FF0008B5EFF31083012B3C
:103BC0000B4A06D1D269BFF34F8F02F001021046B3
:103BD00008BD01F043FC00B172B6D269BFF34F8F4C
:103BE00002F0010201F03AFC0028F0D062B6EEE7E4
:103BF0000080FF006D4A10B5D2F8D03043F00203C8
:103C0000C2F8D03001F02AFC30B14FF0502300222E
:103C1000C3F81421C3F8182101F033FC28B10122A4
:103C2000634BC3F8382AC3F878254FF47F02D2F8E3
:103C30003031BFF34F8FD2F83421BFF34F8FBFF332
:103C40004F8FC3F30B03092B05D1012A1EBF01229D
:103C5000574BC3F8782501F014FC18B10E22554BD0
:103C6000C3F8E42E01F0FAFB30B10022504BC3F848
:103C70000C270122C3F810270022D30003F57F038D
:103C8000D3F80013BFF34F8F013108D0D3F80013DE
:103C90000132D3F80433B2F5807F0B60EDD1EFF33E
:103CA0001084FFF789FF00284DD0BFF34F8F424BA0
:103CB000D3F80024012AFBD1C3F80425D3F800244B
:103CC000012AFBD1012C03D001F0C8FB00B172B670
:103CD000FFF772FF58B1394AD36923F00103D3616A
:103CE000BFF34F8F344AD2F80034012BFBD1FFF7DA
:103CF00043FF68B1314A136A23F0FF0343F0200306
:103D00001362BFF34F8F2C4AD2F80034012BFBD142
:103D1000012C03D001F0A2FB00B162B60022264BB9
:103D2000C3F80425D3F80024012AFBD1BFF34F8F39
:103D30001E49234BCA6802F4E0621343CB60BFF311
:103D40004F8F00BFFDE7FFF717FF0028ADD1174ADF
:103D5000D2F88C3043F44063C2F88C304FF47F03C8
:103D6000D3F83021BFF34F8FD3F83431BFF34F8FE7
:103D7000BFF34F8FC2F30B02092A16D1013B022B6E
:103D800002D8104AD35C83B10C480F4903680A4A31
:103D90008B420CBF5A230023C2F8103EC36A8B42E9
:103DA0000CBF5A230023C2F8003E10BD00ED00E016
:103DB0000040005000A00350009003500080FF001E
:103DC0000400FA05DA780000FA50FA507C22014922
:103DD0000AF0EDBFC0A5002038B51D46394B3A4C5E
:103DE0005B68C3F308032360EFF303836365530643
:103DF000C4E90120E16039D502F00C020C2A08BFA9
:103E0000084601462061202230480AF0D0FF25B143
:103E1000202229462E480AF0CAFF2A4B9A6AA26538
:103E2000D96AE165986B206602F400406066586BC1
:103E3000A06602F08000E0669A62D962D3F8E420BE
:103E400024482267D3F8E810616702F04001A167B7
:103E5000C3F8E4200E2101F02AFB2268D31E042BB4
:103E600025D8DFE803F00F181B1E2100EFF3948321
:103E7000990704D5130702D5EFF38980C1E7EFF363
:103E80008880BEE70C21144801F011FBEFF3888312
:103E9000EFF3898338BD12211048F5E70B21104854
:103EA000F2E70D210F48EFE70E210F48ECE70F2A4C
:103EB00095BF142125210D480D4888BF103A02F006
:103EC000BFF8E3E700ED00E0C0A50020D4A5002086
:103ED000F4A50020DD780000EB780000F778000002
:103EE0000979000014790000217900002F79000081
:103EF0004379000037B5084C6369984748B9E56ACB
:103F0000A847C307FCD4236A019303B0BDE830403F
:103F10001847002003B030BD6879000010B50B4C85
:103F20000020A368984780B902202369984760B9A8
:103F30004FF4E1310120A46AA04730B901211520D6
:103F4000A04710B90122024B1A7010BD6879000019
:103F5000ECB90020064B82B01868002382B262F3ED
:103F60000F03000C60F31F43184602B0704700BFF8
:103F7000B0790000014BD86D704700BF049F00204E
:103F8000014B186E704700BF049F002008B502481F
:103F900000F0E0FB002008BD049F0020C3B2012B0D
:103FA00010B509D0A3F11502012A00F2AE80002954
:103FB00000F09880002010BD4DF6C023994270D0CB
:103FC00028D8B1F5615F6FD011D8B1F5965F6DD08B
:103FD00008D8B1F5966F6BD0B1F5166F6BD06FF056
:103FE0000700E8E7B1F5165FF9D1514B33E047F62A
:103FF0001223994262D007D8B1F5964F61D0B1F53E
:10400000E14FECD14B4B26E0B1F5164FE7D14FF421
:104010001D0320E0484B994255D011D8B1F5E13F3E
:1040200054D007D8B1F5614F53D0B1F5963FD6D1F2
:10403000424B10E0B1F5613FD1D14FF06C730AE013
:10404000B1F5612F48D03E4B994248D0B1F5E12FF0
:10405000C5D14FF0E86310F4E06F59D110F440413E
:1040600003D0B1F5804F56D1102110F4405403D045
:10407000B4F5805F52D10E2410F4403203D0B2F573
:10408000403F4ED101222F4880F8921000F1640188
:10409000C0F88C3080F8902080F8914001F07AFBD5
:1040A00088E74FF46503D6E7274BD4E7274BD2E7E1
:1040B0004FF49E23CFE74FF41D23CCE74FF40003CA
:1040C000C9E7234BC7E74FF08063C4E74FF0EB73BA
:1040D000C1E74FF46B03BEE74FF07063BBE74FF0EF
:1040E0008053B8E71748162B18BF01464FF0FF332F
:1040F0000ABF00F1640141F8643F836601F04AFBA6
:1041000010F1100F10D0C01755E76FF0030052E701
:104110006FF008004FE76FF00A004CE76FF00900FE
:1041200049E76FF00B0046E76FF0010043E700BF7F
:104130000050270000C0750090D0030000903A01A5
:1041400040420F00049F002000F03A0000B013002E
:1041500000A04E0073B506461B480C4601F056FB06
:10416000194D18B94FF0FF3002B070BD22463146EC
:10417000284601F01EFC10F1100F02D16FF0010073
:10418000F2E70028EEDB0321284600F03FFB10F1A8
:10419000100FF3D00028E5DB00230193284601A986
:1041A00001F0B3FC10F1100FF8D07830DAD0019B99
:1041B0009C42D7D801220448114601F0A4FC0028F3
:1041C000D0DB00202C66CFE7049F0020F0B51B4E0B
:1041D000054691B030460C4601F018FB18B94FF077
:1041E000FF3011B0F0BD05F06043B3F1005F20D1A6
:1041F000002322462946304601F00EFB10F1100F35
:1042000019D00028EBDBF46511E0A71B402F28BF75
:104210004027A9193A4668460AF0C9FD394668465A
:10422000FFF7D4FF0028DCD14036B442EDD800209F
:10423000D7E70026F9E76FF00100D2E7049F0020DE
:1042400010B50A4C04F16400D4E9151201F045F9E7
:1042500001460022204600F0EBF90028AABF00200A
:104260006FF00100C4E9170010BD00BF049F0020DB
:104270007FB500250C46C0F808511646D0F8082135
:10428000D0F8002222F02002C0F80022104AC0F824
:10429000082301F073F9A560256104F14C03D3E80C
:1042A000EF1F21F47F0121F47041C3E8E21F002ACF
:1042B000F5D11022294668460AF09EFD042368467F
:1042C0008DF800300196D4E90013984704B070BD12
:1042D00010020A00044B054A1B68B3FBF2F3584373
:1042E000034B43F001031847009F002040420F009A
:1042F000C079000000F01F03400909D1074A02EB12
:104300008303D3F80012064A0A40C3F8002270471C
:104310000022803352F82330FFDE00BF0025845096
:10432000F0F8FCFF430904D10123034A8340936062
:10433000704700239B60FFDE0025845000F01F03C0
:1043400040090BD1084A02EB8302D2F80012074B56
:104350000B4043F00303C2F8003270470022803361
:1043600052F82330FFDE00BF00258450F0F8FCFF38
:104370002DE9F84391F8303005460C460F6813BB21
:10438000066D46F000730365781C04D03846FFF7CD
:10439000C9FFFFF7D3FF6068411C01D0FFF7AAFFF8
:1043A00094F82C30012B0ED1E06846F02066421CB8
:1043B0002E6501D0FFF79EFFA068431C03D0FFF7D6
:1043C000B1FFFFF7BBFF94F82FC0BCF1000F03D182
:1043D0002B6D43F080732B6594F82C0094F82D100E
:1043E00094F82E202B68D4F828E001430A43E668AD
:1043F000D4E90198C3F824E5C3F86C25BCF1000F9B
:1044000009D10128C3F80C75C3F8149504BFC3F88B
:104410000885C3F810654FF47F02D2F83031BFF33E
:104420004F8FD2F83421BFF34F8FBFF34F8FC3F3B9
:104430000B03092B1BD12B68D3F8682503F26457B3
:10444000012A08BFDA60D3F86425012A0FD10821B8
:1044500049F64046C3F800155A603B689BBB2B6881
:10446000D3F88024C3F880240022C3F8002500215B
:104470002B6894F83220C3F81011D3F81001C3F858
:104480002011D3F82001C3F82411D3F82401C3F874
:104490004411D3F84401C3F85811D3F8581143F329
:1044A00007335201002BD2B213DB0C49C81880F835
:1044B00000230122580903F01F0302FA03F341F815
:1044C0002030BDE8F8830120FFF704FF013EC4D18E
:1044D000C5E7034903F00F03CA54F2E700E100E027
:1044E00014ED00E000F01F0340090BD1084A02EB75
:1044F0008302D2F80012074B0B4043F00203C2F8CC
:10450000003270470022803352F82330FFDE00BFB4
:1045100000258450F0F8FCFFF8B505462B6D0468C3
:1045200003F48223B3F5805FD4F8000205D009B10B
:1045300000232B626FF07600F8BDD4F80463C4F852
:10454000086309B9830647D4D4F8003223F0200366
:10455000C4F800324FF4A11305F15007D7E8EF1F5C
:104560001943C7E8E01F0028F8D112B9AB68002B47
:1045700059D12E4BC4F8083301236360D4F8443179
:10458000002BFBD00023C4F84C31D4F84C21C4F8E4
:104590001031D4F81021C4F84431D4F844212A6DE4
:1045A00012F400421BD12A62204600F0E7FF0023EC
:1045B000EB606B61D7E8EF3F23F47F0323F4704394
:1045C000C7E8E23F002AF5D126F4202626F4047637
:1045D0000020C4F80463AFE74FF48033BCE7C4F8AD
:1045E0004C31D4F84C21EA69C4F834250522C4F8CA
:1045F0003825C4F81031D4F810310123E362D4F81F
:104600001031002BFBD00022C4F81021D4F8103157
:10461000D4F84C310BB1D4F83C352B62C4F84C21A2
:10462000D4F84C31C0E701236360D1E710020A00DF
:104630002DE9F74304460E4694F84C109146043099
:10464000002970D150220AF0D7FB33696360736987
:10465000E363B36903B1013B2364336A042B81BF75
:10466000F369E3610023236296F83130B9F1000F5A
:104670002FD083F001084FEA08281BB1236D43F0C7
:10468000010323650123256884F84C30D5F84C21BB
:10469000C4F80890FAB931462046FFF769FE0822AF
:1046A000002325688DF80730C5F800250DF10702B5
:1046B000C5F84425C5F8483501230A26AB60EB60F0
:1046C000D5F8583193BB0120FFF704FE013EF7D126
:1046D00022E0C846D1E708226427C5F800256B60B0
:1046E000D5F84431EBB9D5F82431D3B90A20FFF716
:1046F000F1FD013FF4D10023C5F84C31D5F84C2130
:10470000C5F81031D5F81021C5F84431D5F8442149
:10471000C5F80035002FBED16FF08B0003B0BDE8A7
:10472000F0830127E7E76FF07700F7E70020C5F88F
:1047300020018145D5F82031054B08BF034622688A
:1047400048EA0303C5F80005C2F80433E6E700BFF2
:1047500010020A0003682B4A2DE9F041C3F8082330
:1047600043F30733002B04460DDB01215A0903F004
:104770001F03994002F12003234A42F82310BFF39C
:104780004F8FBFF36F8F012220461146FFF7C4FE03
:104790000121204601F0C8F8256D2368E901D3F80E
:1047A0000C05D3F81485D3F80865D3F8107509D52E
:1047B0004FF0FF32C3F80C25C3F81425C3F80825C1
:1047C000C3F81025AA0115D5431C01D0FFF78AFEB6
:1047D000B8F1FF3F02D04046FFF784FE290109D51A
:1047E0007A1C02D03846FFF77DFE731C02D030469B
:1047F000FFF778FE002384F84C302365A360BDE802
:10480000F08100BF10034A0000E100E0F8B5064661
:10481000044656F8505B071DD6E8EF3F43F480523C
:10482000C6E8E02F0028F7D1DA0468D44B0702D598
:10483000E369002B66D0354BC5F808330823C5F86B
:1048400000350023C5F81031D5F81021C5F84C31DA
:10485000D5F84C21C5F844310A03D5F844318B030F
:1048600003F4804302F400524903134301F400416E
:104870000B43D6E8EF2F1A43C6E8E12F0029F8D101
:10488000E368C3B9A3687BB9236DD80435D5D6E8EE
:10489000EF3F23F47F0323F47043C6E8E23F002A8E
:1048A000F5D16FF00B00F8BD0321384600F041FE52
:1048B000E368002BE8D0D5F80433590710D5A36876
:1048C00073B1236D1A030BD5D6E8EF3F23F4002311
:1048D000C6E8E23F002AF7D10621384600F029FE5B
:1048E000236DDB0409D5D5F84C310BB901232B60BE
:1048F000A36813B1054BC5F804330020D3E76FF06C
:104900000F00D0E74FF0FF30CDE700BF10020A00E4
:1049100072B6024A13680133136070473CA6002048
:10492000034A1368013B136003B962B6704700BFC6
:104930003CA6002000487047F47900000022034B99
:10494000C3F88425C3F80425704700BF00900350C6
:10495000044AD2F80834DB07FBD50160BFF35F8F50
:10496000704700BF0090035008B5C0F30B0383B934
:104970000222094BC3F88425C3F804254FF0FF3207
:104980000260D3F80024D207FBD5FFF7D7FF002041
:1049900008BD6FF00C00FBE700900350F8B515461A
:1049A000012206460F460024094BC3F88425C3F8AC
:1049B0000425A54203D1BDE8F840FFF7BFBF57F873
:1049C000241006EB8400FFF7C3FF0134F1E700BFBA
:1049D00000900350003A18BF0122003918BF01218E
:1049E00003688900074841EA4201186359605A6820
:1049F00042F001025A60BFF34F8FBFF36F8F002068
:104A0000704700BF04AAFF000722024BC3F804232B
:104A1000704700BF00300050084BD3F80801D3F8AE
:104A20000021003818BF012080000AB140F00100C9
:104A3000D3F804310BB140F0020070470030005051
:104A40000022074BC3F80021D3F80011C3F804215A
:104A5000D3F80411C3F80821D3F80831704700BF18
:104A60000030005000231720094A03F5C0710133BC
:104A7000202B42F82100F8D100231720044A03F527
:104A8000E0710133202B42F82100F8D1704700BFBC
:104A90000030005010B59DF80840C00B43EA0423D5
:104AA000064CC90B43EA0213884200D910BDC2B2BA
:104AB00002F5C07244F822300130F5E700300050B2
:104AC00010B59DF8084000F1604043EA042301F16D
:104AD0006041074C400B490B43EA0213884200D95E
:104AE00010BDC2B202F5E07244F822300130F5E7A1
:104AF00000300050C0F30E03C3F50043B3FA83F354
:104B0000C3F11B03064AC0F3C730DBB240F4807028
:104B100043F48073C2F80005C2F80435704700BF43
:104B2000003000504303014818447047FF1FF81F2E
:104B3000054BC0F30730090241F0300100F5007069
:104B400043F82010704700BF00300050044BC0F302
:104B50000730090200F5007043F82010704700BFCD
:104B60000030005008B5FFF757FF044B16211860BE
:104B70000348BDE8084000F09ABC00BF38B10020EF
:104B80000C7A00000C2201490AF011B938B100205A
:104B900010B502F058FD044628B905F02BFE044676
:104BA00018B145F22354204610BD01F07EF858B9E3
:104BB00032210D4800F07BFC00F01EF80028F0D1F7
:104BC0000A210A4800F073FC094A2E21D3680948DB
:104BD00023F008031B041B0C43F0BF6343F40033B2
:104BE000D36000F064FCDEE7227A0000547A000013
:104BF00000ED00E05E7A0000002130B5ADF5077DE4
:104C00001C220FA80E910AF0F7F8374B02AA03F105
:104C10000805144618685968083303C4AB42224695
:104C2000F7D118689B884FF4E07200212060A380C0
:104C300016A80AF0E1F801F038F820B12B480AF084
:104C400065F92B4C1FE002A90D2216A805F0EEFD18
:104C5000014618B127480AF059F913E006A92022A5
:104C600001AB16A805F028FE044616A805F00EFEB6
:104C7000014614B9019D202D09D02146019A1E48F4
:104C80000AF044F91D4C20460DF5077D30BDE8B90A
:104C9000022006A900F060F804460028F3D10420A1
:104CA0000AA900F059F804460028ECD101462A462A
:104CB00006A80AF0A1F82A460EA906A80BF02BFEBA
:104CC000044628B10E480AF021F9DBE70D48C2E797
:104CD000022000F057F820B1042000F053F800281B
:104CE000D1D10948ABE700BFB57B00008C7A00004A
:104CF000FE9AFEFFBD7A0000E87A0000FD9AFEFFF2
:104D00005C7B0000237B0000907B0000F0B585B049
:104D100004460E4617461D4600F034F898B10C9B29
:104D20002A4603930B9B8021CDE9017320460A9B01
:104D3000009605F0E5FD20B1014604480AF0E6F8CA
:104D4000034805B0F0BD0348FBE700BFC37B00008C
:104D5000FC9AFEFFFF9AFEFF10B50B466FF00302B0
:104D60000549044605F0CAFD28B10246214603481C
:104D70000AF0CCF8024810BD00148450097C0000F1
:104D8000FE9AFEFF70B5431CC6000446174D184836
:104D9000C5F80035304400F0A6FF013004D00023F0
:104DA000C5F80035012070BD06F57F0000F5044010
:104DB00000F099FF0130F2D124010E4E04F57F0579
:104DC00005F508452644284600F08DFF013004D043
:104DD0000022064BC3F80025E4E70435B542F2D1C2
:104DE0000020024BC3F80005DDE700BF0090035030
:104DF0000484FF001088FF00024B1860024B002063
:104E00001960704748B1002044B100201FB5274CFD
:104E1000426923685A6282699A62C269DA62026AE6
:104E20001A63426A5A63826A9A63C26ADA63026BDD
:104E30001A64426B5A60826B9A60C26BDA60026CD1
:104E40001A61426C5A61826C9A61C26CDA61026DBD
:104E50001A62826D5A65C26D9A65026FDA65026EDA
:104E60001A66826E5A66426F9A66EFF388825A64B7
:104E7000EFF389829A644268DA64EFF394821A65E8
:104E8000026801A81A67FFF77DFE2368019ADA66B7
:104E900001221A70064B1C686408640020462146F3
:104EA000224623460BF075FD04B010BD48B100202A
:104EB00044B1002000B5A1B001A8FEF787FF029B16
:104EC00063B15B060AD4019B23F00203052B05D1D5
:104ED000044B1B6813B101A8FFF798FF21B05DF8E0
:104EE00004FB00BF44B10020BFF34F8F0549064BC0
:104EF000CA6802F4E0621343CB60BFF34F8F00BF78
:104F0000FDE700BF00ED00E00400FA05F8B5C0F3CE
:104F10000B0686B920F47F650A4F25F00F0544186B
:104F2000AC4201D83046F8BD2846FB69984728B9FD
:104F300005F58055F4E74AF2C536F3E743F65C26FB
:104F4000F0E700BFC87900002DE9F74FDFF864A053
:104F50008346DAF804300F46154698470024164B6E
:104F6000C0F3410013F82090DFF8508004F1800373
:104F7000AB4294BF80262E1BB6FBF9F24146DAF80D
:104F8000143004EB0B000192984700280EDB4146D9
:104F9000DAF81830019AE0199847002806DB344403
:104FA000A542E3D8002003B0BDE8F08F43F65C20B3
:104FB000F9E700BFC8790000407C0000EDB900208F
:104FC0002DE9F3471B4D81466B680F461446984701
:104FD000194BC0F3410013F820A0B9FBFAF60AFB05
:104FE00016961EBB6CB1D5F81480B4FBFAF509F522
:104FF00070292A4639464846C047002805DA43F654
:105000005C26304602B0BDE8F0870AFB05F5641B5C
:10501000F7D0012201A909EB0500C0470028EEDB0B
:10502000224601A9781909F0C2FEEAE74AF2C5361C
:10503000E7E700BFC8790000407C00002DE9F04F91
:10504000861806F6FF7525F47F6525F00F0585B0F7
:10505000B5F5805F0446019104D943F65C2005B0A4
:10506000BDE8F08FDFF86C81D8F80430984704224F
:10507000594BC0F3410053F82070D8F8143057480A
:105080000093FBB2B2FBF3F203A9009B9847039A8B
:10509000531C023208BF01230393002D34D024F4A3
:1050A0007F6B2BF00F0BA5EB0B010BF57020FFF7BF
:1050B0002DFF0028D3D1B5F5BE7FAA4628BF4FF4F7
:1050C000BE7ADA4529D8B5F5BE7F5ED3FBB2042798
:1050D000B7FBF3F7424D3A4629464048009B9847B4
:1050E000B6F5BE7F5CD8042203A93D4809F05FFEF7
:1050F000384B3A463A493B489B69984708B1874242
:10510000ABD100F0FAFEAAE74FF480514FF47020C3
:10511000FFF7FCFE0028C2D0A1E70BF180039A45FF
:105120002CBF4FF08009AAEB0B095FFA87F8B9FB97
:10513000F8F82B494246009B0BF5712098475E45D5
:1051400016D909EB0B039C4212D2A3455A4638BF2D
:105150002246111BA2EB0B009E4294BFC2EB06023B
:10516000C2EB0302019B19441D4B184409F01FFEBA
:10517000184B42469B691A490BF57020984710B1AD
:1051800080457FF46AAFCB449BE74FF4BE724FF487
:1051900070214FF47120FFF7D7FE002896D05EE70C
:1051A000B4F5C07F9FD2B4F5BE7F224638BF4FF41E
:1051B000BE72019B111BA2F5BE700B44B6F5C07FF9
:1051C00094BFC2EB0602C2F5C0721946284409F02A
:1051D000EEFD88E7C8790000407C00007C110F00DC
:1051E000EDB900207C010F002DE9F041504F86B051
:1051F0000020BB689847002870D104226946FFF759
:10520000DFFE0446002840D104224FF4BE700DEBAF
:105210000201FFF7D5FE0446002836D1454D009B1C
:10522000AB4203D1019B013B033366D97B689847AE
:10523000414BC0F3410053F8206004224FF48050EA
:1052400004A9FFF7BDFE0446F8B9042241F27C1020
:1052500005A9FFF7B5FE0446B8B9049B4FF4805189
:10526000AB424FF4702014D1059B013B033310D89F
:10527000FFF74CFE044640B94FF480524FF47021C2
:105280004FF47120FFF760FE0446204606B0BDE8EB
:10529000F081FFF73BFE04460028F6D1014680224C
:1052A000264809F0A9FDF3B28026B6FBF3F6DFF835
:1052B0008C8004F5702032464146BB6980349847A3
:1052C000B4F5805FF5D300F018FE04460028DCD169
:1052D000042202A90295FFF7B1FE10B143F65C2447
:1052E000D3E7012304224FF4BE7003A90393FFF711
:1052F000A5FE04460028C8D0F0E7042241F27C1045
:1053000005A9FFF75DFE04460028BED1059B5A1E85
:10531000033206D8019A934203D30233B5D1012A4E
:10532000B3D100F0EAFD002818BF0446ADE700BF86
:10533000C87900001281DEC0407C0000EDB9002079
:105340001E2811D801230A4A8340134208D113F0C2
:10535000980F07D11D2807D1402300200B6070470C
:105360002023FAE70423F8E74CF25A30704700BFD5
:10537000650F0040F8B543680C2B01D00220F8BD42
:105380004B68042BFAD14FF0FF3304680D68216895
:105390002B600029F2D0A268002AEFD0062301205A
:1053A00001F070FF0028E9D16168274B99420AD9C2
:1053B000A26826488B1883420ED8206809F0F7FCB3
:1053C00000202860DBE7224B9942D7D9A268093335
:1053D00088189842D2D8F0E71E488142CED91E489C
:1053E0008342CBD80A43930701D00320C7E7226842
:1053F000891AA3688E18002BE2D0EFF3108700F013
:10540000F6FDB8B1012F0BD1366800F0F0FD08B100
:10541000BFF34F8FA36842F8046B043BA360E8E737
:1054200072B6366800F0E3FD0028F3D0BFF34F8F6B
:1054300062B6EFE7366800F0DAFD0028EAD0BFF385
:105440004F8F012FE6D0F3E7FF01FF002C02FF0092
:105450002F01FF000781FF000084FF004FF47F034E
:10546000D3F83001BFF34F8FD3F83431BFF34F8FF0
:10547000BFF34F8FC0F30B00A0F10903584258410E
:1054800070474FF47F02D2F83031BFF34F8FD2F81C
:105490003401BFF34F8FBFF34F8FC3F30B03092BBF
:1054A00003D1431E58425841704700207047FEF711
:1054B00021BD012070476FF0030070470020704746
:1054C0006FF00300704700207047022814BF6FF090
:1054D000030000207047FEF779BE70B540F2FF155B
:1054E00001EB8202914200D170BD51F8044BC4F32C
:1054F0000803240EAB4208BF4FF0FF33032CF1D852
:10550000DFE804F0020406080360EBE74360E9E724
:105510008360E7E7C360E5E70346D0F8580130B998
:1055200031B9D3F82001003818BF0120704701209D
:10553000704730B504460D4685B0102200216846FC
:1055400009F05AFCD4E9001368468DF800509847DA
:1055500005B030BD7FB504460E4615460021102229
:10556000684609F049FC012368468DF80030CDE912
:105570000165D4E90013984704B070BD10B5044626
:10558000FFF7C6F9D4F8583133B1D4F8043313F423
:10559000800308BFC4F80035BDE81040FFF7C0B96C
:1055A000D0F8583133B1CB6CC3F30032DB0458BFB1
:1055B000C0F8002570472DE9F74F866804460D4670
:1055C0003EB113F0020604D0C36B002B00F09580AF
:1055D0000126276D17F0100740F08F804FF001096A
:1055E000AB180193019BAB4200F0898005F060434A
:1055F0009B46E26BD4F8008082B9BBF1005F40F0BB
:1056000087809246FFF784F9216D404601F0010141
:10561000FFF782FF28B9FFF783F9EAE74FF0010AA5
:10562000F0E7A26CAB46002ABCBFD8F84C25A264B8
:10563000BAF1000F07D0D4E90F1228788854D4E9C2
:105640000F2102EB010BBBF1000F03D0C8F844B5EA
:10565000C8F848950023C8F82031D8F82011C8F8B8
:105660005831D8F85811C8F85031D8F850110821DD
:10567000C8F80015BEB14FF48002C8F80423C8F87A
:105680000890FFF74DF9A368002B3FD1236D1B074E
:105690003CD55034D4E8EF3F23F00803C4E8E23FA0
:1056A000002A2AD0F6E7C8F80890FFF739F9216DEB
:1056B00001F001014046FFF72FFF0246D8F84C05E4
:1056C000D8F844355AB99B45F4D004F1040AD1B155
:1056D000FFF71EF951464046FFF762FFD1E79B45B1
:1056E00004F1040AF3D10028F1D1FFF711F9514672
:1056F0004046FFF755FFFFF713F94FF0FF373846E5
:1057000003B0BDE8F08FC8F80C90E1E7013569E718
:105710006FF01507F3E770B5CE6C0D4606F001018A
:105720000446FFF7F9FE38B94FF4800346F004064B
:10573000EE64C4F8043370BDD5E90A365AB1296C59
:10574000EA6B761A964228BF164619443246A86B71
:1057500009F02DFBAB6B4FF0FF326A641BB1C4F84C
:105760004435C4F848650023C4F82031D4F820211A
:10577000C4F85831D4F85821C4F85031D4F8503115
:105780000823C4F800354FF48003C4F80433012320
:10579000A360D0E737B590F84C3004463BB3036BB9
:1057A0004BBB0268C2F8003583680BB10B694360DC
:1057B0002046FEF7DDFD0822002324688DF807301F
:1057C000C4F800250DF10702C4F84425C4F8483593
:1057D00001230A25A360E360D4F8583173B901208E
:1057E000FEF778FD013DF7D16FF08B0001E06FF01F
:1057F000760003B030BD6FF00F00FAE70020C4F868
:105800002001D4F82031C4F80005F2E790F84C00EC
:10581000003818BF012070472DE9F04704460D46B7
:1058200098461646D0F80090002A68D087685FB97D
:1058300053B9076B002F65D10263FFF7BCFE054625
:1058400027632846BDE8F08718F0030F07D04346CA
:10585000324629462046BDE8F047FFF7ACBE05F0CA
:105860006043B3F1005F07D0E36B13B118F0040F8E
:1058700014D06FF00C05E4E7236DDB0702D518F0B8
:10588000040F42D1FFF744F8226B9AB9C4E90B56D2
:105890004846211DFFF73FFF002527E0FFF738F8B6
:1058A000236B3BB9236D012243F00203C4E90B567D
:1058B0002365EDE7A36BE3B918F0040F19D0E36A91
:1058C00003F06043B3F1005F16D1236DC4E90D56B8
:1058D00043F0100323650A24D9F85031C3B90120DD
:1058E000FEF7F8FC013CF7D16FF08B05FFF718F8D5
:1058F000A7E76FF00F05F9E74FF0FF35F6E76FF018
:1059000006059EE76FF00F059BE74FF0FF3598E720
:105910000023C9F85031D9F85031002DBCD0C9F856
:105920004455C9F84865B7E7F8B50468036BD4F87F
:1059300004630546C4F8086323B96FF07600C4F821
:105940000463F8BD00F15003D3E8EF0F40F0080006
:10595000C3E8E20F002AF7D10123E36001B3296D08
:1059600001EA030739462046FFF7D6FD0028FAD0A2
:10597000FEF7CEFFC7B9D4F820314BB10123E36065
:10598000D4F85831002BFBD02046291DFFF708FE24
:10599000FEF7C6FF0023C4F82031D4F820212B6382
:1059A0000020C4F80463CCE7D4F85831002BEBD1C5
:1059B000EEE72DE9F84F0568036DD5F804A313F45D
:1059C000802804460F461646C5F808A340F092808A
:1059D00001F06042B2F1005F40F08F80C26852B1C6
:1059E0008268002A75D1D5F81021002A71D0C5F837
:1059F0001081D5F81031226AC4E90376002A47D015
:105A00009642E16933D84FF0000932463846C4E97E
:105A1000039909F0CCF9226AE069921B226281198C
:105A200009F08FF9A368BBB1236D04F1040B99044D
:105A300017D55034D4E8EF3F43F48023C4E8E23F65
:105A4000002AF7D1324639465846FFF783FD4A46C9
:105A500059462846FEF70CFC4046C5F804A3BDE8AD
:105A6000F88F324639465846FFF774FDF4E738465A
:105A700009F09DF9236AA3620023236204F1500315
:105A8000D3E8EF1F41F40021C3E8E21F002AF7D159
:105A9000A16A2369E2685B1A0A44C5F83425C5F88F
:105AA0003835236DDA04D7D55034D4E8EF3F23F4EA
:105AB0008023C4E8E23F002AF7D101232B60D5F808
:105AC0004431002BC8D00023C5F84431D5F8443107
:105AD000C2E76269A2B95B04C4E90576C5F834750A
:105AE000C5F83865B8D5D5F8003243F02003C5F8BD
