:020000024000BC
:10000000584A02203D960400D18E0400299604002F
:1000100029960400299604002996040029960400D4
:10002000000000000000000000000000D99704005C
:100030002996040000000000699704002996040036
:10004000F5990400F5990400F5990400F599040068
:10005000F5990400F5990400F5990400F599040058
:10006000F5990400F5990400F5990400F599040048
:10007000F5990400F5990400F5990400F599040038
:10008000F5990400F5990400F5990400F599040028
:10009000F5990400F5990400F5990400F599040018
:1000A000F5990400F5990400F5990400F599040008
:1000B000F5990400F5990400F5990400F5990400F8
:1000C000F5990400F5990400F5990400F5990400E8
:1000D000F5990400F5990400F5990400F5990400D8
:1000E000F5990400F5990400F5990400F5990400C8
:1000F000F5990400F5990400F5990400F5990400B8
:10010000F5990400F5990400F5990400F5990400A7
:10011000F5990400F5990400F5990400F599040097
:10012000F5990400F5990400F5990400F599040087
:10013000F5990400F5990400F5990400F599040077
:04014000F599040029
:1001480003685A004CBF43F0004323F000431844AF
:1001580070472DE9F0470646174641B301394FF07D
:100168000009884609EB080404EBD474641006EB14
:10017800C4054FEAC40A2846FFF7E2FFA14204D1AA
:10018800B84204D82846BDE8F087B84204D9A1454A
:100198000DD004F1FF38E5E70AF108003044FFF715
:1001A800CFFF0138B842EDD204F10109DAE70025A2
:1001B800E8E7012806D0022806D00028034818BF1F
:1001C800002070470248704702487047D50704006E
:1001D800D9070400DD0704001F4B37B504468D1E00
:1001E8004BB101A92846AFF3008048B90023092084
:1001F800236103B030BD1948194B1B1ADB1001935A
:1002080001992A46FFF7A5FF01460028EED0FFF71F
:1002180097FF4B68A064012B1AD0002B01F1040052
:1002280010DBFFF78DFF0023C4E913030368002BDD
:100238000ADAC3F30360FFF7BCFF03460028D5D0F2
:100248000020D5E70123EFE7FFF77AFF0346F7E73A
:1002580000230520CCE700BF0000000044390D0052
:100268000C3A0D000368DA0710B5044605D49B075D
:1002780000F1480018D500F0F7FB2368590703D4AC
:1002880004F1D00000F0F8FB23681A0703D404F542
:10029800A87000F0F9FB2368DB0608D404F5E870C1
:1002A800BDE8104000F034BC00F0D6FBE5E710BD17
:1002B800092070470346006800B11844704770472A
:1002C80070B505460C46216C2846FFF785FF0646A3
:1002D80008B109F0AFFE236C2246294601206B6164
:1002E8002B6998470828EED00728F2D13046216CB0
:1002F800FFF7E5FF201D00F0A3FB2DE9F0470C1DDB
:10030800ADF5727DD0F80C900746D0F818A01646C7
:1003180003AD0DF108080FCC0FC50FCC0FC50FCCDE
:100328000FC594E80F0085E80F000025C8F80050B5
:100338000936D8F840103846FFF74EFF0446F6B2A3
:1003480068BBD8F840304FF4F07241467AA87B6118
:1003580092F0DDFF3B697AAA394630469847889B78
:100368000546C8F844303A463B4631460120CDE9B7
:10037800008AC847C0B9C4B94FF4F0727AA9404698
:10038800264692F0C4FF082DD2D0072D0CD1204666
:10039800D8F84010FFF793FF03A800F051FB46F090
:1003A8001006D8F83830DCE7092420460DF5727DB0
:1003B800BDE8F087406C7047F0B5CB6BF9B00D1D08
:1003C80006460B640F4601AC0FCD0FC40FCD0FC40A
:1003D8000FCD0FC495E80F0084E80F004FF0FF33EE
:1003E800009310993046FFF7F7FE78B933696A46EB
:1003F8003146984708280446F3D06846FFF732FF8D
:10040800062C03D139463046FFF75AFF092079B048
:10041800F0BD10B48261DA6BC16019461A6400221B
:1004280010BC6AE770B543690446C6680D460B649C
:1004380026B10122FFF761FF09F0FCFD03690A46B6
:10044800014602209847072805D00828F4D12946F4
:100458002046FFF735FF3046296CFFF730FF281D8F
:1004680000F0EEFAC26802B9A6E7CA6B0A64002275
:1004780043E77047836801460BB10120184770476E
:10048800012910B50446084605D005D9C81E01281B
:100498008CBF0220012010BD43B90F2A06D804EBF7
:1004A8008204029A184661681160F4E70220F2E7B4
:1004B8001FB503AB0A46009300231946FFF7E0FF78
:1004C800039805B05DF804FB012910B504460846F9
:1004D80005D005D9C81E01288CBF0220012010BDF7
:1004E80043B90F2A06D8029904EB82041846096812
:1004F8006160F4E70220F2E71FB503AB03920A46F6
:10050800009300231946FFF7DFFF05B05DF804FBF1
:10051800F0B5D36BADF50F7D141D064613640F4679
:1005280017AD0FCC0FC50FCC0FC50FCC0FC594E876
:100538000F0085E80F004FF0FF33169326996846A1
:10054800FFF74AFE90B90C2116A86A46FFF7D4FFB8
:10055800394616A8B04748B9049B16AA6946082028
:1005680098470528044602D00928E7D1092416A887
:10057800FFF778FE20460DF50F7DF0BD2DE9F04F11
:10058800CD6C87B017460C4655F8042B00F00309CC
:100598009A4604953BBB12028DF81530032303924B
:1005A800B9F1020F8DF81430236D08BFA56B13F055
:1005B800010322D100F0080800932B6843BB03A96C
:1005C800384600F04AFB002840F0FB80009BDBB176
:1005D8000F213846FFF76CFF0E2102463846FFF719
:1005E8008BFF794A55E0130C12048DF81530DBB2F5
:1005F800039205EB83050223D2E703A9384600F0EE
:100608002CFB002840F0DD80082007B0BDE8F08F03
:10061800BAF1020FA26C4FF00F01384607BFD5F8A8
:1006280004B005F10806B5F802B02E1D18BF2B88D6
:100638002BF0010501931544FFF73AFF019B854212
:1006480029D823F001022A44824294BF00220122C1
:100658004FEA4B0003F0010300F0020040EA0305F3
:10066800012D1AD0022D5ED0002D40F0AA80351D34
:10067800B9F1000FA1D0002A9FD03046FFF760FDE6
:10068800A56306462046AFF30080002800F0998055
:1006980032460F213FE00022DAE7B9F1000F26D1F8
:1006A800002A3DD073683268991C4FEAD27200F074
:1006B800888004F158010133029109D0301DFFF7F9
:1006C800F9FD02AB01462046AFF30080054638B37A
:1006D8000D213846FFF7ECFE022D029B206202D165
:1006E800E36204F12C030620C4E909368DE7256A84
:1006F8000D213846FFF7DCFE854211D1A36A9E42E0
:100708000ED13046FFF71CFD0F2102463846FFF791
:10071800F3FE224600213846FFF7EEFE072074E775
:1007280006F1080549E7356825F00045B9F1000FDD
:100738002AD1A2B1B8F1000F19D085B9CB4617E07C
:100748000BF1010B019B002206EB8B000293FFF7D4
:10075800B1FD02AB01462046AFF3008058B13368C3
:10076800002B00DA0436013506EB850525E7C3467C
:1007780004F158030193AB45E2D10D213846FFF748
:1007880097FE029B2062AEE7D4F820B00D213846D0
:10079800FFF78EFE8345E2D1A36A9E42DFD14FF078
:1007A800000B0423A562C4E90BB3F3186363336831
:1007B8005B4503DA681C06EB8000A3E7012300937E
:1007C800D1E7092021E700BF000000000023D5E69B
:1007D8000123D3E60223D1E62DE9F0410546C2B054
:1007E80014461E46042925D8DFE811F005001C0030
:1007F8002400D6000301EEB9836B92B201210430C4
:1008080001FA06F717421CBF53F8047B40F826701C
:100818000136102EF4D1A60400D4AB63002042B0F8
:10082800BDE8F081012E4FEA124794B204D13B197A
:10083800102B41D90220F2E7052EFBD107EB040863
:10084800B8F1200FF6D80F2F4DD9002CE6D0036849
:10085800A046580708D523F00403284640F8D03BA3
:1008680000F00EF90F2F48D9684600F009F9AB6B74
:10087800102F3A4642A94FEA480838BF10221C46B2
:1008880008F1FF3801EBC2024FEA8801A2F5C472F1
:10089800101F02EB880254F804CB40F804CF8242C0
:1008A800F9D10A1D012E134417D00F2FAB636FD94E
:1008B800684600F0E1F8B1E7102FBBD00368DA070B
:1008C80005D523F0030340F8483B00F0C9F820A8F9
:1008D80000F0C6F8AB6B002C3FD1043320A8AB6303
:1008E80000F0BAF89AE7B8F1100F03682DD9DC07C1
:1008F800A8F1100842D45807ADD420A8C7F11004B5
:1009080000F0B6F8684600F0BBF820AA6400AB6BAC
:1009180002EBC702013C101FA10002EB84021C4637
:1009280054F804CB40F804CF9042F9D10A1D13447F
:10093800B8F1000F9CD1012ECFD00F2FAB633FF63B
:100948006DAF20A800F090F868E7D9070DD420A86B
:1009580000F08EF8AB6B002CF3D0640020AA4FF0A7
:10096800000802EBC702013CD5E723F0010343F07E
:10097800020340F8483B00F07BF8E8E723F0010366
:1009880043F0020340F8483B00F072F82B68B2E7E6
:1009980020A800F069F88BE7032E7FF44BAF97B2DD
:1009A800160C07EB1244102C3FF644AF03681907E6
:1009B80006D523F00803036000F5A87000F086F858
:1009C80020A800F083F820ABAA6BF90003EBC6035C
:1009D80003EBC707D41ABB4203EB040005D10A4452
:1009E80020A8AA6300F050F818E7006843F8040B41
:1009F800F1E7002E7FF41EAF102A3FF61BAF036805
:100A0800DA0606D523F01003036000F5E87000F05D
:100A180089F820AE304600F085F8AB6B0022012142
:100A280001FA02F020421CBF53F8040B46F82200DA
:100A38000132042AF4D13046AB6300F069F8EDE6E0
:100A480000F1340191E838009C46A6464CF8045D54
:100A580090E8FF0FE54600BD90EC210B704700BF02
:100A680080EC210B704700BF90EC200B704700BF53
:100A780080EC200B704700BFD0EC200B704700BF04
:100A8800C0EC200B704700BFF0EC0201F0EC021143
:100A9800F0EC0221F0EC0231F0EC0241F0EC0251F2
:100AA800F0EC0261F0EC0271F0EC0281F0EC0291E2
:100AB800F0EC02A1F0EC02B1F0EC02C1F0EC02D1D2
:100AC800F0EC02E1F0EC02F1704700BFE0EC02014B
:100AD800E0EC0211E0EC0221E0EC0231E0EC024132
:100AE800E0EC0251E0EC0261E0EC0271E0EC028122
:100AF800E0EC0291E0EC02A1E0EC02B1E0EC02C112
:100B0800E0EC02D1E0EC02E1E0EC02F1704700BF5A
:100B1800B0FC0181B0FC0191B0FC01A1B0FC01B1B5
:100B2800704700BFA0FC0181A0FC0191A0FC01A1BD
:100B3800A0FC01B1704700BFEC4600B52DE900509C
:100B48002DE9FF1F4FF000032DE90C0001A9FFF765
:100B580033FCDDF840E012B0704700BFEC4600B54A
:100B68002DE900502DE9FF1F4FF000032DE90C007F
:100B780001A9FFF757FCDDF840E012B0704700BF4D
:100B8800EC4600B52DE900502DE9FF1F4FF000039A
:100B98002DE90C0001A9FFF765FCDDF840E012B073
:100BA800704700BFEC4600B52DE900502DE9FF1F46
:100BB8004FF000032DE90C0001ABFFF72AFCDDF82C
:100BC80040E012B0704700BFEC4600B52DE9005078
:100BD8002DE9FF1F4FF000032DE90C0001AAFFF7D4
:100BE80097FCDDF840E012B0704700BF10F8012B09
:100BF80011F8013B012A28BF9A42F7D0D01A704752
:100C0800034611F8012B03F8012B002AF9D170478C
:100C1800027A03467AB9427A82B1013A427242684C
:100C2800111D12680260032241601A721A68100EC0
:100C380012021A607047013AD2B2F6E7B020704744
:100C48001FB503AB0C22009300231946FFF718FCCD
:100C5800039805B05DF804FBF2E72DE9F04305467B
:100C680085B00E464FF000083046FFF7D1FFB02898
:100C7800044615D1B8F1000F0ED103AC43460E223D
:100C8800414628460094FFF7FBFB43460F224146A6
:100C980028460094FFF718FC002005B0BDE8F08353
:100CA80002061DD44FEA8009002303AF0D225FFA24
:100CB80089F9194628460097FFF7E2FB09F104096C
:100CC800039B14F0400F14BFA3EB09034B44039399
:100CD800002300970D2219462846FFF7F5FBC3E7C6
:100CE80000F0F003802B18D104023046FFF790FF84
:100CF8000443B4F5004F01D10920CEE724010023B5
:100D08002846A2B21946FFF767FD0028F4D114F46B
:100D1800004F18BF4FF00108A6E7902B0DD100F047
:100D28000D030D2BE8D003AF002300F00F02284677
:100D380019460097FFF7A4FBCAE7A02B13D1C343BA
:100D48004FF47F6203F007031A41030702F47F623E
:100D580001D542F48042002319462846FFF73CFD9E
:100D6800002881D0C8E7B02B46D1B12808D1304639
:100D7800FFF74EFF431E0246DBB20E2BEBD9BBE753
:100D8800B22820D1002303AC0D222846194600942E
:100D98000227FFF775FB3046FFF73AFF00F07F01A7
:100DA80010F08003039A01FA07F105D102F50172E8
:100DB80000940A4403928DE70A44304607370392A9
:100DC800FFF726FFEAE7B3280BD13046FFF720FFED
:100DD8000123020300F00F0002F4702201300243E5
:100DE800BAE700F0FC03B42B86D000F00702012319
:100DF800013242F40022AFE7C02B44D1C6280AD101
:100E08003046FFF705FF0323020300F00F0002F44A
:100E180070220130E3E7C7280BD13046FFF7F8FE10
:100E2800431E0246DBB20E2B3FF666AF00230421B9
:100E380093E700F0F803C02B06D100F00F0203235C
:100E4800013242F4202287E7C8280DD13046FFF747
:100E5800DFFE00F0F00200F00F0005231032013031
:100E680040EA0232012178E7C9287FF445AF3046CD
:100E7800FFF7CEFE0523020300F00F0002F47022F4
:100E880001300243EEE700F0F803D02B7FF434AFD3
:100E980000F007020523013242F40022E2E71FB501
:100EA80003460846DA6C53680832190202921B0E90
:100EB8000322019101A98DF80C208DF80D30FFF760
:100EC800CCFE05B05DF804FB08B5FFF7C5FE806CE5
:100ED80008BD08B5FFF7C0FEC06CC379023300EB4C
:100EE800830008BD000000002DE9F04705460F46C5
:100EF800164688B029F0F2FE44014B01241A43EA51
:100F0800D06363EB0103A2009B00121843EA9473B9
:100F180041EB0303DB0043EA5273C2F31038012F9D
:100F280048EA43484FEAD33443D0766833782D2BC8
:100F380038D031462848FFF759FE002840D124A36D
:100F4800D3E90023404621462EF0BAFF06460C4658
:100F580010461946214A00232EF0B2FF80460F465C
:100F6800104619464EF6602200232EF0A9FF82464D
:100F78008946104619464FF47A7200232EF0A0FFD6
:100F8800CDE902A9CDE90401CDE906232846324678
:100F98002346CDE90087124905F042FD002008B03C
:100FA800BDE8F0877378702BC3D1B378002BC6D017
:100FB800BFE74246234628460A4905F031FDEDE7DA
:100FC80028463246084905F06DFD6FF00400E6E753
:100FD800005C260500000000746A0D0080EE3600F3
:100FE800986A0D00606A0D00806A0D00704700BFA6
:100FF800002300B587B0DDF828C00BA80390059042
:1010080003221846CDE90033CDF808C002F0E0FF0E
:1010180007B05DF804FB00BF30B500240F4D104B3E
:1010280085B029462046029303222346CDE9004491
:10103800FFF7DEFF49F69A10002128F0E7FE01F0DD
:1010480065F808482346CDE9014003222046294691
:101058000094FFF7CDFF204605B030BD183F0D00C6
:1010680010580D0038580D0013462DE900488AB075
:10107800D3E90ABCCDE908BCD3F808C00A46CDF8C4
:101088000CC0D3F804C00A49CDF808C0D3E908BC9D
:10109800CDE906BCD3E906BCCDE904BCD3E904BC60
:1010A800CDE900BC1B6805F0BBFC0AB0BDE80088B0
:1010B8006C580D002DE9F04700240E46814692F049
:1010C80037FCDFF854A084B040F80A4005461746BC
:1010D8003046224603A9039498462FF04BF804465D
:1010E80055F80A0060B9039B53B11B7843B9BC4259
:1010F80006D3444504D80C9B1C6004B0BDE8F087B7
:1011080048463B4632460549CDF8008005F0CAFC02
:101118006FF01500F1E700BF0C000000D0580D007B
:10112800F0B5374E044633780D46174689B0002B84
:1011380059D00122334BD3E8EF1F002903D1C3E86C
:10114800E02F0028F7D11DD100212F4827F054F8AF
:101158002E4826F019FD0022002300264FF0050C2A
:10116800CDE90623CDE903C64FF40052CDE9016667
:10117800274B28490096284827F034FF2749264856
:1011880027F03CFE0122264BD3E8EF1F002903D1AC
:10119800C3E8E02F0028F7D12BD1224E4FF0FF33C0
:1011A8004FF0FF32194826F0F7FC304694221E49CA
:1011B80040F8044B92F0ABF886F89850C6F89C704B
:1011C800124826F099FD194B194A0093204652F807
:1011D80025201849803B05F023FC0B4827F020F810
:1011E800002009B0F0BD104800F08EFB01233370D9
:1011F8009FE72046104905F055FC6FF00F00F0E717
:1012080006E00120B4D101206CD2012058D201207F
:101218006916040018E0012040BF0120F4580D00B1
:10122800B0D10120B8D1012084D2012004D30120FB
:1012380024600D0024590D0004590D0000220421DA
:10124800FFF76EBF00220321FFF76ABF00220221C9
:10125800FFF766BF00220121FFF762BF042330B504
:10126800012985B00446039312D9944603ADDCF8EE
:1012780004100122094B0095FFF71CFF002809DB29
:10128800039A0021204605B0BDE83040FFF748BF6B
:101298001A46F6E76FF0150005B030BDA0860100CC
:1012A8002DE9F0418EB0CDE90023149F0646386839
:1012B8000B460490C00F0590B868224A07907868DA
:1012C8004FF440710690D7E90A45CDE90C45D7E9B6
:1012D8000845CDE90A45D7E90645CDE90845D7E9E6
:1012E80004451948CDE902452EF0A2FE40F2FE233E
:1012F800421E9A4202D90EB0BDE8F0810546024668
:10130800124930462C4605F08BFB0F4FDFF8408022
:101318002F44582C2246A7EB0403A8BF5822414665
:10132800304605F07DFBC4F158032B449D42A4F1DF
:101338005804EEDC304607490EB0BDE8F04105F030
:101348006FBB00BF48590D00B0CE01203C5A0D00BC
:10135800585A0D00745A0D0038B50A4D04462B78BA
:101368002BB12046BDE83840074900F05BBC064871
:1013780000F0CAFA01232B702046BDE83840024924
:1013880000F050BC06E0012084D2012070B5114E57
:1013980004463378154682B093B10F4E69684FF40E
:1013A8007A7220460D4B0096FFF784FE00280DDB6D
:1013B800204632680A4905F033FB002002B070BDB0
:1013C800084800F0A1FA01233370E6E76FF0150032
:1013D800F4E700BF06E0012014D30120C02709006C
:1013E8008C5A0D0084D2012070B5114E0446337812
:1013F800154682B093B10F4E69684FF480330122CD
:1014080020460096FFF756FE00280DDB204632687E
:10141800094905F005FB002002B070BD074800F03F
:1014280073FA01233370E6E76FF01500F4E700BFA5
:1014380006E001200CD30120A45A0D0084D201201B
:1014480070B5114E04463378154682B093B10F4EED
:1014580069686FF00043012220460096FFF72AFED4
:1014680000280DDB20463268094905F0D9FA00202A
:1014780002B070BD074800F047FA01233370E6E771
:101488006FF01500F4E700BF06E0012010D301203B
:10149800B85A0D0084D2012070B5124D06462B783B
:1014A80014468BB16468204691F0B9FF7F2811D8A3
:1014B8002146421C0C4891F02AFF30460A4A0B4943
:1014C80005F0AEFA002070BD074800F01DFA0123B0
:1014D8002B70E7E73046064905F0E4FA6FF05A004A
:1014E80070BD00BF06E0012084D20120E05A0D0043
:1014F800C85A0D0070B5144E04463378154684B0AA
:10150800C3B103A869684FF6FF7300900122204613
:10151800FFF7D0FD002813DB0821039B0B4A0C487A
:101528002EF086FD20460A4A0A4905F079FA00207D
:1015380004B070BD084800F0E7F901233370E0E714
:101548006FF01500F4E700BF06E00120B4DC0D00E1
:1015580004D30120F45A0D0084D201202DE9F04172
:101568002F4D04462B7882B0002B53D000F084FA1C
:10157800064600F083FA0346DFF8A8802A4F002BBE
:10158800009332460CBF43463B462849204605F0A7
:1015980047FA00F089FA064600F084FA002E0CBFDC
:1015A80043463B460096224A224E2349002818BF4C
:1015B8003246204605F034FA00F072FA06461F4B10
:1015C8001F4A204D002E18BF1A4620461E4905F016
:1015D80027FA05F180032A4620461C4905F020FA1F
:1015E8002046D5F888201A4905F01AFA2046D5F879
:1015F8008C20184905F014FA2046D5F89020164991
:1016080005F00EFA2046154905F00AFA002002B046
:10161800BDE8F0810B4800F077F901232B70A5E7AE
:1016280006E00120085B0D00105B0D00785B0D00E3
:101638002C5B0D00185B0D00A85B0D00385B0D00DE
:10164800505B0D0084D20120CC5B0D00E05B0D00E7
:10165800F85B0D00105C0D00285C0D00405C0D006F
:101668002DE9F04FC5B0DFF844B2914E914D3DAF32
:1016780010AC17E0022B00F0CE80032B00F09F8007
:10168800012B00F0B6806FF015091C988A4A4B466A
:101698008A4905F007FA0023D6E8EF2FC6E8E13FAC
:1016A8000029F9D14FF0FF324FF0FF33844826F07C
:1016B80027FE4FF0FF334FF0FF32284626F06CFA32
:1016C800A02280491CA891F022FE284626F014FB8F
:1016D8009DF808311C98042B98BF5BF82320419B88
:1016E80088BF754A0393409B774902933F9B0097B5
:1016F80001931DAB05F094F900F032F9002800F0D1
:10170800CB809DF80831002B32D0042BB2D1214672
:101718001DA800F051F9814622466C491C98FFF734
:10172800A3FC409B3F9A69491C980094FFF7B8FDB9
:10173800B9F1000F13DB21461DA800F05DF98146C1
:10174800224663491C98FFF78FFC409B3F9A6049EB
:101758001C980094FFF7A4FDB9F1000F6DDA9DF80D
:101768000821042A1C9894BF5BF82220524A8EE76D
:101778004FF000094FF000080EAA00920B9343990E
:1017880001940CAB0BAA1DA8CDE90C89CDE90E89F3
:10179800CDE9108900F0E8F8814608BB0B9ADDF81E
:1017A8007080002A5BD19DF80831042B404694BF15
:1017B8005BF82320404A474905F032F96BE7214698
:1017C8001DA800F039F92246434981461C98FFF7C5
:1017D8004BFC409B3F9A40491C980094FFF760FDE2
:1017E8009DF80831B9F1000F1A46BADBDDF87080B0
:1017F800DBE721461DA800F0DFF822468146334981
:101808001C98FFF731FC409B3F9A30491C98009484
:10181800FFF746FDE4E721461DA800F0EDF8224653
:1018280081462B491C98FFF71FFC409B3F9A28498B
:101838001C980094FFF734FDD2E721461DA800F05C
:10184800FBF82246814624491C98FFF70DFCDDE988
:101858003F2321491C980094FFF722FDC0E7034667
:10186800DDE90C01DDE9109A0992CDE9069A2EF01E
:1018780031FB099A439BCDE9040100924046DDE91A
:101888000E890193CDE902893B4614491DAA05F04A
:10189800C7F8DDF8708086E711491C9805F002F951
:1018A8006FF057099DF808215BE700BF24600D0021
:1018B800B0D1012058D20120805C0D00805D0D0060
:1018C8006CD20120B8D10120885C0D00645D0D0048
:1018D8006C5D0D00945D0D00785D0D00205D0D00C0
:1018E800C45C0D006FF05700704700BF6FF05700E1
:1018F800704700BF6FF05700704700BF0020704767
:101908006FF05700704700BF7F22002310B50446D0
:1019180000EB020CC0F87F30C0F88330C0F8873085
:10192800C0F88B30C0F88F300B498CF8143091F028
:10193800C7FD0722094904F1800091F0C1FD4FF469
:1019480080514FF4801247F23053C4F88810C4F81D
:101958008C20C4F8903010BDAC610D00BC610D0046
:1019680008B5FFF7CBFF08BD2DE9F04383B0DDE9EB
:101978000A7CE8B1E2B1DBB1D7B1BCF1000F17D0F6
:10198800B1B14FF000084FF0000900264FF0FF34C6
:101998004FF0FF351660CDE9007CC3E90089C7E93F
:1019A8000045CCE90089FFF7ABFF03B0BDE8F08341
:1019B8006FF01500F9E700BFD0B138B50C46A1B1FA
:1019C800D0F88830054683B1D0F88C306BB12C2222
:1019D8000021201D91F0A7FC6FF08B0321462846BB
:1019E8002360FFF77FFF206038BD6FF0150038BD1A
:1019F8006FF01500704700BFD0B138B50C46A1B1E3
:101A0800D0F88830054683B1D0F88C306BB12C22E1
:101A18000021201D91F087FC6FF08B03214628469A
:101A28002360FFF767FF206038BD6FF0150038BDF1
:101A38006FF01500704700BFD0B138B50C46A1B1A2
:101A4800D0F88830054683B1D0F88C306BB12C22A1
:101A58000021201D91F067FC6FF08B03214628467A
:101A68002360FFF743FF206038BD6FF0150038BDD5
:101A78006FF01500704700BF36F0B7B910B5064CC7
:101A8800237813B1054B186810BD2BF097FA012283
:101A9800024B2270186010BD08E001201CD3012001
:101AA80036F0A7B936F0A9B910B5064C237813B1AA
:101AB800054B186810BD2BF021FE0122024B227045
:101AC800186010BD07E0012018D3012032B32DE9BA
:101AD800F043002406460F461546A046DFF840901E
:101AE80083B000233046CDE900882A1B391909F054
:101AF800B3FA00280ADC0ED091F01AFF59F800005A
:101B0800042804D0404203B0BDE8F0830444AC424A
:101B1800E7D30020F7E76FF06700F4E7002070478D
:101B28000C00000032B32DE9F043002406460F46AE
:101B38001546A046DFF8409083B000233046CDE933
:101B480000882A1B391909F0BBFA00280ADC0ED0D4
:101B580091F0EEFE59F80000042804D0404203B08A
:101B6800BDE8F0830444AC42E7D30020F7E76FF008
:101B78006700F4E7002070470C0000002DE9F043EF
:101B88004FF0000906460F4690464D4683B00122A5
:101B980030460DF10701FFF7C5FF041E0EDB9DF867
:101BA800072002F07F03AB4049EA0309130605F159
:101BB800070507D5462DEAD16FF04604204603B045
:101BC800BDE8F083B9F5007F4FF0000411D839461D
:101BD80030464A46FFF7A6FF002805DB2046C8F82E
:101BE800009003B0BDE8F0830446204603B0BDE88A
:101BF800F0836FF07904E1E770B5144684B00E46BF
:101C0800012201A905468DF80440FFF75FFF00286F
:101C180001DA04B070BD224631462846FFF756FF68
:101C280004B070BD2DE9F04F4FF0000A8DB00746A3
:101C38004FF400700C46CDE903AA29F019FE0646B8
:101C48004FF4805029F014FE80464FF4805029F05C
:101C58000FFE8146002E00F08381B8F1000F00F0DE
:101C68007F81002800F07C8104F180052B46224604
:101C78003846C64904F0D4FE0A22284605A9CDE90B
:101C880005AACDF81CA02EF075FA059A954200F029
:101C9800588192F800A0BAF1000F40F052814FF637
:101CA800FE72411E914200F24C8143BA0120ADF808
:101CB8001A30ADF81800214607AA09F035FA0128AC
:101CC800834640F03E81FD2201462D2009F0C6F8EA
:101CD800051EC0F2FF804FF47A71D4F89030AC4AF8
:101CE800CDF824A0A2FB0342920901FB123301FBA9
:101CF80003F308920A9310241422594608AB00945F
:101D080009F04CFA152259462846009408AB09F008
:101D180045FA0822284606A909F044F90028C0F225
:101D28000481132228469B49FFF766FF041EC0F270
:101D3800CB803146284603AAFFF720FF041EC0F2D5
:101D4800C380039A132A40F004813046914991F0E8
:101D5800A4FA002840F0FD8038468F4904F060FE60
:101D6800072228468D49FFF747FF041EC0F2AC80C2
:101D78003146284603AAFFF701FF041EC0F2A480DB
:101D8800039A072A40F0E5803046844991F085FAA5
:101D9800002840F0DE803846814904F041FE814841
:101DA80004A92BF04DFC041EC0F28E804FF4007283
:101DB800314604982BF062FB041EC0F28580B4F50E
:101DC800803FA24603947DDA64BA0222284608A915
:101DD800ADF82040FFF77AFE041E75DB5246314607
:101DE8002846FFF773FE041E6EDB524638466E49DE
:101DF80004F016FE0222284608A9FFF793FE041EE7
:101E080062DBBDF820A09AFA9AFA1FFA8AFABAF5A4
:101E1800805F57D8524641462846FFF783FE041E86
:101E280052DB524638466149CDF80CA004F0F8FD63
:101E38004FF480535246009341464B4604982BF08A
:101E48008BFB041E40DBB4F5803FA246039439DACD
:101E580064BA0222284608A9ADF82040FFF736FEEA
:101E6800041E31DB524649462846FFF72FFE041E62
:101E78002ADB384652464E4904F0D2FD049835F024
:101E8800C0FF002865D038464A4904F0C9FD3846E5
:101E9800494904F0C5FD049808B135F0BAFF00249B
:101EA800284609F023F8484629F0DAFC404629F08C
:101EB800D7FC304629F0D4FC002C47D120460DB081
:101EC800BDE8F08F6FF0790404980028E8D035F069
:101ED800A0FFE5E791F02CFDDFF8E0A05AF80050EC
:101EE8006D42002DBFF61DAF38462A46344904F02E
:101EF800D9FD049808B135F08CFF484629F0B0FCAC
:101F0800404629F0ADFC304629F0AAFC2C4691F059
:101F18000FFD0346224638462A495AF8033004F092
:101F2800C1FD20460DB0BDE8F08F91F001FDDFF84E
:101F38008CA05AF800406442284608F0D7FF25468E
:101F4800CFE76FF01505DFF874A0CDE7DFF86CA0D8
:101F5800DDE7049808B135F05CFF6FF046049FE7B1
:101F68003846194904F09EFD049808B135F051FF30
:101F7800484629F075FC404629F072FC304629F0A5
:101F88006FFC6FF00B04DFF834A0C0E7F0610D00C0
:101F9800D34D621054630D002C620D004C630D008C
:101FA80044620D0068630D005C620D007C620D00E8
:101FB8009C620D00BC620D00E0620D000C00000088
:101FC80010620D0024630D00C4610D002DE9F04F6F
:101FD8000D46904681462E4E2E4C03CEB6F800B0E4
:101FE80096F802A02860696007CC0C3CA5F808B0F8
:101FF80085F80AA083B0C8F80000C8F80410C8F82B
:10200800082007CC18605960484601219A601F468D
:1020180011F022FE98B10446102301462A460120F9
:1020280013F0E4F910B32146484611F06BFF009015
:10203800102342460120694613F0D8F968B1484692
:1020480011F0D8FF019010233A46012001A913F09E
:10205800CDF9A0B103B0BDE8F08F0E4B07CBC8F89F
:102068000000C8F80410C8F80820E8E7083E03CEC6
:10207800A5F808B085F80AA028606960D3E7054B81
:1020880007CB38607960BA6003B0BDE8F08F00BF55
:1020980088630D0094630D00002300B587B0DDF858
:1020A80028C00BA803900590CDE900331846CDF859
:1020B80008C001F08DFF07B05DF804FB8C4618B12D
:1020C80042780346052A08D80E4B07CBCCF8000007
:1020D800CCF80410CCF80820704710B5C479827980
:1020E80086B04179CDE903241A79DC7860469B787B
:1020F800CDE9012100941821034A2DF099FF06B07B
:1021080010BD00BF94630D00A0630D002DE9F041E0
:102118009AB011F075FC044600284FD0006800B151
:10212800103014AD294610AF0CAE0DF12008FFF7A2
:10213800C5FF3B46324641462046FFF747FF20464B
:1021480012F0F4FD2368002B35D00C33D3E8AF3FF1
:10215800D90708D5236873B30C33D3E8AF3FDA0542
:1021680001D51C4A00E01C4A23688BB30C33D3E822
:10217800AF3F9B052CD5174B0024CDE90535174BF0
:102188001749CDE902300492234603222046CDE9BF
:102198000044FFF781FF13492346CDE902180322C3
:1021A8002046CDE90467CDE900440D49FFF774FFE7
:1021B8001AB0BDE8F081084A1346DDE70A4903462C
:1021C800CDE90101012206490090FFF765FFEFE71D
:1021D800014BD1E7C8630D00CC630D00E8640D0026
:1021E800D03E0D0018650D00C8640D0010B483685A
:1021F80000EBC10CB3F5004F0CD3DCF80C3099425E
:102208001ED0DCF80810043200EBC10440F822307C
:10221800E3600BE0BCF80630994211D0BCF804101A
:10222800043200EBC10440F82230E380826800EBFE
:10223800C300B2F5004F2CBF8160818010BC70478D
:1022480001210024C36802F1040C01FA02F223EA16
:102258000203C36040F82C4010BC704770B4866815
:10226800541AB6F5004F00EBC1034FEA4405A1EB41
:1022780002011FD35E685D6001EB560186684D0060
:10228800B6F5004F00EBC2032CBF5D605D8085682A
:10229800B5F5004F2CBF40F8324020F83240846832
:1022A800B4F5004F0CD370BC5B6802EB530340F8E5
:1022B80033107047B3F802C05D8001EB5C01DDE7C5
:1022C8005B8870BC02EB530220F83210704700BFE5
:1022D800836810B5B3F5004F00EBC10100EBC20CE9
:1022E80019D3DCF804304C685B0803EB54035C003A
:1022F8004C608168B1F5004F06D3DCF8041002EB9E
:10230800510240F8323010BDBCF8021002EB510205
:1023180020F8323010BD4B88BCF802E05B0803EBB4
:102328005E034FEA430EA1F802E0E2E7836800EBA0
:10233800C102B3F5004F0AD201235288DA400132B4
:10234800D21AB2FA82F2C2F11F02FFF74FBF5268E7
:102358005208012A01D00223F1E7704730B484689B
:1023680000EBC102B4F5004F22D2012553885B0867
:1023780001335B1BB3FA83F3C3F11F0300EB830C38
:10238800DCF81050D5B901259D40C368B4F5004F5D
:1023980043EA0503C360CCF810102CBF916091800C
:1023A8008368B3F5004F2CBFD160D18030BC704733
:1023B80053685B08012BF9D00225D9E7B4F5004F23
:1023C80000EBC50C2BBFDCF80830BCF80430936078
:1023D8009380846800EBC303B4F5004F2CBFD5602D
:1023E800D5808268B2F5004F2CBFD960D980836848
:1023F800B3F5004F2CBFCCF80810ACF8041030BC73
:10240800704700BFF8B583680446B3F5004F0D4622
:102418004FEAC10600EBC10714D3796805EB5101F7
:1024280000EBC1035B68D80736D5A159691A04EBDC
:10243800C1035B68DB0714D529462046BDE8F84090
:10244800FFF78CBF798805EB510100EBC1035B886E
:10245800DA0721D5A15B691A04EBC1035B88DB07A6
:10246800EAD42046FFF762FFA3682046B3F5004F81
:102478002CBFA159A15B2A46691AFFF729FFA36857
:102488002046B3F5004F2CBFA359A35BED1A29468C
:10249800BDE8F840FFF762BF2046FFF747FFA36893
:1024A8002946B3F5004F2CBF7A687A88204605EB99
:1024B8005202FFF70DFFA368B3F5004FB5D2A15B39
:1024C800691A04EBC1035B88C9E700BF2DE9F04135
:1024D8008668B6F5004F34BF0B4601F1FF33B3FAF7
:1024E80083F3C3F11F0200EB82073D69A5B12C46B7
:1024F8004FF0030CB6F5004F00EBC40E17D3DEF80F
:102508000480B1EB580F21D9DEF80C40BCF1010C66
:102518003C6101D0A542EDD14FF0FF34C268C3F150
:1025280020039C4014400AD12046BDE8F081BEF843
:102538000280B1EB580F09D9BEF80640E6E794FAD5
:10254800A4F2B2FA82F2131D50F823402146FFF795
:102558004DFE2046BDE8F081B9B308B50068836830
:10256800B3F5004F18D20439091A21F007020244C2
:102578005388C90813F0010F2CD001EB530C30F825
:102588003CE0ACEB0E0C8C4520D123F001035380CA
:10259800BDE80840FFF736BF0839091A21F00702DD
:1025A80002445368C90813F0010F13D001EB530C10
:1025B80050F83CE0ACEB0E0C614507D123F0010369
:1025C8005360BDE80840FFF71DBF7047B7210348B7
:1025D80000F0E4FCAF21014800F0E0FC64650D0068
:1025E800F8B50568002933D0AB6801F00704B3F5E6
:1025F800004F2CBF0822042207341444E40804EBDB
:10260800D1049C4228BF1C4628462146FFF75EFF9E
:10261800F0B1AB68C600B3F5004F05EBC0070FD2A9
:102628007B88B4EB530F15D343F001037B80AB6871
:10263800B3F5004F34BF042308231E44A819F8BD7E
:102648007B68B4EB530F05D343F001037B60EEE7DF
:102658000020F8BD0444014622462846FFF7FEFD47
:102668002146FFF77BFEAB68B3F5004F01D37B68CB
:10267800EAE77B88D8E700BF1146FFF7B1BF00BF84
:10268800B2F5802FF8B568D2042A88BF04237FD911
:10269800D21ACC1D8D1824F0070425F007052D1B30
:1026A800172D4FEAD5076ED9B5F5802F38BF3A46B2
:1026B8004FF0000328BF07F1FF32B2FA82F204603C
:1026C800C4E902732CBF02230123C2F12406B60019
:1026D800073603EBD603BB42C2F120024FEAD60607
:1026E8004CD80021920004F1100090F01CFE7300F9
:1026F800BA1BB5F5802F04EBC6014FEA420043F040
:1027080001032CD26380002323804880A368B3F59B
:10271800004F2CBF44F8366024F83660A16863196E
:10272800B1F5004F4FF000012CBF59605980A368E4
:10273800B3F5004F2CBF62516253A26804EBC70384
:10274800B2F5004F10D35A68314642F001025A6080
:102758002046BDE8F840FFF701BE082398E763600C
:10276800002323604860D1E75A88314642F00102CD
:102778005A802046BDE8F840FFF7F0BD4FF40E71CF
:10278800064800F00BFC40F22321044800F006FC48
:1027980040F21A21014800F001FC00BF64650D00F9
:1027A8002DE9F04F8946C2F3C20191B0013104917D
:1027B800840702F004011A9D059140F0198206462B
:1027C800041D002800F0E981B9F1070F40F2568195
:1027D80002F002024FF0FF380792002201279B46C1
:1027E800019203EB080A069202920EB1C4F800B0F7
:1027F800049B002B40F3B581079B13B30122A11B57
:102808008B08B1F5007F80F0FD8102990F2900F255
:10281800FE81002E00F0E2810299DBB2403169446A
:1028280001F8203C01F8108C002A00F0B08163F018
:102838007F0301F8203C019B01330193029B013384
:1028480002939AF8012004340AF1010A002A4ED0B2
:102858004FF0040CC6F10803039300214FF6DA7019
:102868006346002900F047817A2A3BD84B2A40F278
:102878000E814C3A2E2A35D8DFE812F035003400A4
:1028880034003400340034003400340034003400A0
:10289800340034009F003400340034003400340025
:1028A800340034003400C40034009F009F00C4008A
:1028B800C400C40035009F00050134003500340011
:1028C800DE009F00DE0034003400F500F1009F00B8
:1028D800340034009F003400F100252A40F00081C4
:1028E80008F1FF3800211AF8012F002AB9D1A11BDD
:1028F800B1F5806F5B46084680F08E81002E00F0AF
:102908006781002535608D083570059D9DF8182074
:10291800002D40F001817270019AB270002A00F017
:102928000181029A002A00F0AB800DF1200A51467D
:1029380002EB0A05C6F1010711F8012B100607D5AD
:102948003819484502F07F0200F2988004F8012BFC
:102958008D42F1D1029FC6F101085744BB461F467C
:10296800CDF80880A046059C0CAD019B1BB19AF9D7
:102978000020002A16DB002C00F0E8802A7808F8EE
:10298800012B0022029B03EB08011144494575D82D
:1029980040469AF80030394600F8013B02EB00083F
:1029A80090F0B5FC0AF1010ADA4505F10105DCD120
:1029B8004446A01B11B0BDE8F08F1AF8012C6C2A10
:1029C80036D004EB0C02013AB2FBFCF20CFB02FE1F
:1029D800002E00F0E08000210EEB0302921B9145CF
:1029E8004CD3042B00F0FF80082B40F006810EF139
:1029F8000804073525F00705F5E80223CEE900238A
:102A0800082370E7073525F00705073424F0070485
:102A1800F5E8022336B1DDF80CC0A444CC452DD826
:102A2800C4E900234FF0080C0021634608345AE734
:102A38001AF8023C6C2B7BD0033424F0030E002ED2
:102A480063D00EF10404A31B994517D300214FF05E
:102A5800040C55F8043BCEF80030042343E74FF04C
:102A6800040C63463FE7033424F00304002E00F00F
:102A7800A980231D9B1B994580F0A4806FF01B0043
:102A880011B0BDE8F08F4FF0080C63462BE7472ADA
:102A98003FF628AF292A7FF620AF2A3AD2B207FAA2
:102AA80002F202427FF41FAF12F0625FAAD112F065
:102AB80001013FF418AF04EB0C02013AB2FBFCF23F
:102AC8000CFB02FE002E87D1042B21D0082B40F0EE
:102AD8009480073525F0070508350EF108048FE7BF
:102AE8003FF600AF202A3FF4FEAEA2F12301B1FA6F
:102AF80081F14909F7E6252A7FF4F5AE4FF0040C79
:102B08000121634608F10108EDE631464FF0040C57
:102B180004350EF10404A0E7F270019AB270002A9D
:102B28007FF4FFAE029A002A65D00DF1200A11E762
:102B3800073424F0070E002E40D00EF10804A31B22
:102B48004B459BD800214FF0080C52E79AF800201B
:102B580056F8227046F82240384690F060FC421C35
:102B680010E7304B9B4503D32F4B9B45FFF444AEF6
:102B7800079AA11B8B08002A38D1029A0F2A46D837
:102B88008EB140326A4402F8203C02F8108C069B51
:102B98000133069352E6314696E709F007094C449B
:102BA800C9F1080914E6059B09F10209002B7FF415
:102BB80045AE584690F033FC81443FE631464FF02D
:102BC800080C86E7049B55F804BB013B04930CE60C
:102BD800A9F10800084411B0BDE8F08F002AE2D03E
:102BE80009F101092AE60EF1040432E7002208E699
:102BF8006FF00D0044E7084642E740F2C6210B4853
:102C080000F0CCF94FF41F71084800F0C7F940F202
:102C18008121064800F0C2F940F2D221034800F0B1
:102C2800BDF900BF0C3A0D0070200E0088650D003C
:102C380053B32DE9F04799461C785D78DB78A400FA
:102C480004EB430499F8023007461C440E469046AC
:102C58004C447DB14FF0000A14F8013B0AF1010A17
:102C6800204649F8234090F0DAFB554500F1010071
:102C78000444F1D141463846B446D9F8042009F154
:102C88000803BDE8F04760476FF01500704700BFC4
:102C980038B5F8B10446EFF31185202383F3128881
:102CA800BFF36F8F144827F06FFC00B3124827F06A
:102CB80091FC124B0FCB84E80F000F4827F072FCF1
:102CC80080B185F31188BFF36F8F0D4BA2689A42CC
:102CD80004D838BD6A210B4800F060F97021094812
:102CE80000F05CF94FF49A71074800F057F9882111
:102CF800054800F053F900BF20D3012008C0012087
:102D0800FFC99A3BCC650D00F0650D00F0B50128B0
:102D180005460C4685B005D0042839D06FF015005B
:102D280005B0F0BD27F0DAFF2B4AC60BC0F30E0042
:102D3800A0FB0202C00B46EA414640EA4240C90BEA
:102D4800A060266061606846FFF7A2FFA068234B79
:102D5800984236D8029F9F4238D82268009E6368FE
:102D68009219019E4FF00001734168BF2946C4E9DA
:102D7800002309BB0744A760204600F0D9FAD8B160
:102D8800164BA2689A4214D96321154800F006F937
:102D980027F0A4FF104AC50BC0F30E00A0FB0202E7
:102DA800C00B45EA414540EA4240C90BA060256096
:102DB8006160002005B0F0BD0A4B0FCB84E80F001E
:102DC800F7E740F2B911084800F0E8F84FF4DD7170
:102DD800054800F0E3F800BF00CA9A3BFFC99A3BD8
:102DE800CC650D00B0430D0020660D00012861D1AF
:102DF800F0B50C4685B0002964D03C4F8B68BB42C7
:102E080055D8064627F06AFF03466D46DFF8E0C04E
:102E1800C3F30E02A2FB0C2CDB0B43EA4143D20B9B
:102E28005B4242EA4C424FEAD13161EB41015242E6
:102E3800284602920093019100F07AFA0298B8426B
:102E480045D8D4F808C0BC4537D8D4E90071009AF1
:102E5800019BD2194B414FF0000468BF3446CDE9BD
:102E68000023ECB1EFF31186202383F31288BFF31C
:102E78006F8F204827F088FB98B31F4C1D4827F018
:102E8800A9FB95E80F0084E80F001A4827F08AFB91
:102E980010B386F31188BFF36F8F002005B0F0BD23
:102EA80000EB0C032846029300F042FADAE76FF0D1
:102EB8001500F3E76FF0150070474FF4DD710F4808
:102EC80000F06CF840F27D110C4800F067F840F211
:102ED800B9110A4800F062F84FF49A71084800F0F6
:102EE8005DF88821064800F059F800BFFFC99A3BF1
:102EF80000CA9A3B20D3012008C0012020660D009B
:102F0800F0650D0000207047014B1B68184700BF93
:102F180000770120014B1860704700BF007701203F
:102F28000FB44FF0020C002300B50A4987B008AA75
:102F3800039152F8041B02A80293CDE904338DF8DB
:102F48000AC001922DF09CFA07B05DF804EB04B0BA
:102F5800704700BF112F040080B505460E46144681
:102F68001F4626F0D7FF034690F0E2FC21460446B0
:102F78003A46074F30463B51A847064B1B7813B1DA
:102F8800E05906F0D3FB40F24631034800F006F85A
:102F98000800000012E0012054660D00002383F3AE
:102FA8001188BFF36F8F0423184602DF704700BFF4
:102FB80038B50D4604462022002190F0B4F90022CD
:102FC800EB68E361AB68A3612B6823626B68C4E9B3
:102FD80009322A6923B1591E194208BF42F0010279
:102FE80022610122002104F12C0025F005F900B925
:102FF80038BD2F210148FFF7D1FF00BF80660D00C3
:10300800044608B5EFF31183202383F31288BFF336
:103018006F8F1EF08BFD204606F042FB0248FFF73B
:103028007FFF06F0B9FCFCE7A8660D0070B50C46FA
:1030380004F00105014605EB5400984257D866088C
:10304800002D44D1002E41D0013A01EB460E1CE080
:10305800ACF1570C5FFA8CF31B01DBB253704C7860
:10306800A4F1300C5FFA8CFCBCF1090F07D9A4F16C
:10307800610CBCF1050F1CD8573C5FFA84FC023187
:103088006344714502F8013F20D091F800C0ACF1CB
:103098003003DBB2092BDFD9ACF16103052BD7D99B
:1030A800ACF14103052B22D8ACF1370C5FFA8CF355
:1030B800D2E7A4F14105052D19D8373C5FFA84FC05
:1030C80002316344714502F8013FDED170BD0C78CE
:1030D800A4F13003DBB2092B05D9A4F16103052B58
:1030E80007D8573CE3B202F8013B0131AAE70020B8
:1030F80070BDA4F14103052BF9D8373CE3B2F2E7E0
:103108002DE9F04340F26C77D0E90412D71901F1A8
:1031180001014FEAE27242F1000202298CBF00234A
:103128000123FF1AC46862F10002002A04F1FF3487
:10313800C0F2AB803B0D43EA0233C3F31303C7F37A
:1031480013051D44D61705EB123506F0210C05EBC7
:1031580012756A4B6544A3FB05C3DB0803EB8303C5
:1031680003EB830326F01706ED1A3544644E7B1BE8
:1031780003FB06F662EBE572624D05FB0266A3FBF4
:103188000535761900F1B580D0E9018E4FF03C0C79
:1031980002298CBF6FF00202092240F26D154FEA36
:1031A800E879CEFB0C894FEA091C4FEA081EBEEBF2
:1031B800080E4CEA187C6CEB090C11444FEA8C0C95
:1031C80002684CEA9E7C50481B094FEA8E0E43EA7F
:1031D80006731EEB020E4FEA261600FB03704CEB3B
:1031E800E27CF700DA00D21847EA537746EB070784
:1031F8003F0147EA12771201D21846EB07073F0151
:1032080047EA12771201D21A67EB06073B4E01EB29
:10321800C101A6FB0036830805FB003301EB011151
:103228003A480231A0FB01012344A3EB561303EBF8
:1032380091039001B901801A41EA926161EB07029A
:1032480033491B1842F100025B1862F10002D918D9
:1032580042EB0200CB1842EB00021001190140EAD0
:103268001370CB1A60EB020001011A0141EA1371D5
:10327800D31A61EB0001C901D80110EB0E0041EA35
:1032880053614CEB0101BDE8F0836FF4C773FB1881
:1032980062F100024FEA135E4EEA023ECEF31308D3
:1032A800C3F3130EC6440EEB123E4FEAE27808F061
:1032B80021090EEB127E114DCE44A5FB0E95ED08AB
:1032C80005EB850505EB850528F01708AEEB050528
:1032D80045440B4E5B1B03FB06F6DFF828C062EB88
:1032E800E5720CFB0266A3FB0C3C16EB0C067FF5A3
:1032F8004BAF0F3346F1000646E700BF1F85EB5181
:10330800F5285C8F295C8FC270FEFFFFCDCCCCCC3A
:103318009405F5FFD0B5FFF7F3FE064690F008FBDD
:1033280000240346014A30469C50D0BD0C000000E2
:1033380038B5002849D08368264A934203DC002B1D
:1033480029DB012038BD2449446881FB0321026838
:103358004FEAE37C012ACCEB217C74F100014FEAAF
:10336800EC7E07DB6FF00041D543091B654571EB27
:103378000E0128DB12EB0C01184A4EEB040402FB89
:103388000C33144AC0E9001493428360D9D9F02160
:103398001348FFF703FE1349D21A520AA1FB02127F
:1033A800D0E90014002C4FEAD21206DB0E4D891A20
:1033B80005FB023364F10004E3E704F100459142A0
:1033C80075F10005F2DA002038BDC9210448FFF77D
:1033D800E5FD00BFFFC99A3BA12FB844003665C47C
:1033E800D4660D00834B040000CA9A3BF8B500F080
:1033F800D7F8002301220A4C0A490B4F0B4E0C4DFB
:10340800C0E90434DFF82CC0026042603B603360DE
:103418002B608360C3600A60CCF80020F8BD00BF51
:10342800A86C0D00207701202CD3012028D301207F
:1034380024D301201C7701202DE9F0470746884650
:10344800164600F0ADF8C36804461BB943691A78FC
:10345800002A38D100236268E360BA4258F8223063
:1034680072DA591C616193F800A0BAF12D0F6BD183
:103478009D1C656193F80190B9F12D0FC4F808906F
:1034880035D0B9F1000F24D1344D5146304665612D
:103498008FF0F7FF00285DD0C4F808A02D21304632
:1034A8008FF0EFFFE0B143783A2B2DD00023236152
:1034B8002B7813B9636801336360204600F050F835
:1034C800A068BDE8F0875D1C456193F80090C0F8DE
:1034D8000890494630468FF0D4FFB9F13A0FE1D150
:1034E8002B7803B3204600F03BF83F20E9E79B78B0
:1034F800002BD3D1194B013220466260636100F082
:103508002FF84FF0FF30DCE72A7863682AB90133D7
:103518009F4263600BDD58F82350104A0133C4E919
:1035280004526360C9E7636801336360DAE70B4BF1
:103538002046636135783A2D02D000F011F8D4E7BF
:1035480000F00EF82846BCE7044B2046636100F003
:1035580007F8D6E7204600F003F8D2E7A86C0D007C
:1035680070B4D0F800C0094E094DC6F800C04668CE
:10357800084C2E6008498568084A2560D0E903434D
:103588000C60136070BC07F09BB800BF2077012067
:103598001C7701202CD3012028D3012024D301201B
:1035A80000487047047701202DE9F04F1446828BBC
:1035B800834612F0080C83B040F0498102F00700FE
:1035C80002290746CDF804C080B253D0DBF8186052
:1035D800002EC0F2DD80411F012940F2008104283D
:1035E80040F04A8122F00702DBF8005092B2ABF8B3
:1035F8001C20002D00F0338142F02002ABF81C2083
:1036080057B30025DBF80870A846AA46002F50D10A
:10361800002D4FD1BAF1000F1ED02F464AE0BAF163
:10362800000F02D05846A649D047EFF31184202254
:1036380082F31288BFF36F8F484626F0A5FF002853
:1036480000F01181484626F0C5FFBBF81C2022F087
:10365800080292B2ABF81C20D1064DD5012122F008
:10366800100292B202F0070002290746ABF81C20AC
:1036780080B2ABD100285ED1DBF8001000297AD0E7
:10368800002F40F00381DBF81010D1F800A0BAF148
:10369800000F00F0F6803D464FF006083E4622F047
:1036A800070242F00602ABF81C20DBF80870002F76
:1036B800AED0012742F008020BF114094846ABF8D6
:1036C8001C2026F06FFF002800F0D18084F31188B9
:1036D800BFF36F8FBFB9002DA1D02846314650F8EF
:1036E800047B00F0D3F9044618B329463346424612
:1036F8005846A0473D46EEE793063CD522F0200207
:10370800022192B2AEE7DBF808100029E3D00C687A
:103718003346424658464F68B847002CDBD021460E
:1037280024683346424658464F68B847002CF6D1BD
:10373800D1E73D46CFE702281AD001281BD1DBF894
:103748000010C1B1012F40F0B580DBF81010D1F89E
:1037580008A0BAF1000F00F0A880002522F00702A7
:1037680042F005024FF005082E46ABF81C209CE7F6
:10377800BBF81E5005B30BF1140026F013FF002808
:1037880075D084F31188BFF36F8F03B0BDE8F08F55
:103798004FF00108019B22F0070242F00102DBF81A
:1037A8000050CBF80430ABF81C20CBF8003047456C
:1037B80027D04FF0000A78E7022F71D1DBF81010FC
:1037C800D1F804A0BAF1000F65D022F0070242F048
:1037D80004024FF004082E46ABF81C2065E7019B55
:1037E8000628DBF80050CBF80430CBF800300FD0B7
:1037F8004FF0000822F0070292B24745ABF81C20B0
:10380800D7D1002D3FF428AF4FF0000A574651E7B3
:103818004DB12846BBF81E10013189B2ABF81E1015
:1038280000680028F8D122F00701BBF81E0041F01B
:103838000202ABF81C2089B210B14FF00208B6E7BB
:1038480041F022024FF00208ABF81C20AFE7012933
:103858000CBF42F0100242F0200282838BE7002F57
:103868007FF4D0AEF8E688211648FFF797FB4FF4AF
:103878009A711448FFF792FB40F21B111248FFF7A8
:103888008DFB4FF4AD711048FFF788FB4FF4AB7117
:103898000D48FFF783FB40F261110B48FFF77EFBF1
:1038A80040F25D110848FFF779FB4FF4B471064800
:1038B800FFF774FB4FF4B2710348FFF76FFB00BFCB
:1038C800D5380400F0650D0008670D00F8B504460A
:1038D8000D4600F11406EFF31187202383F31288B5
:1038E800BFF36F8F304626F04FFE50B1304626F0BA
:1038F80071FEA5613A462046BDE8F8400121FFF770
:1039080053BE88210148FFF749FB00BFF0650D0051
:1039180088B138B50C4659B10B684BB14B683BB10F
:103928000546202200218FF0FEFC2C61002038BDC6
:103938006FF0150038BD6FF0150070472DE9F84F8E
:10394800002878D00D46002975D001F1040A0446F4
:10395800504600F085F8061E26D1AB68032B6AD8BE
:1039680004F11409EFF3118B202383F31288BFF3BA
:103978006F8F484626F008FE8046002862D04846E9
:1039880026F028FE4FF6FF72E38BA78B934207F0D1
:1039980007073ED0022F38D0062F47D8DFE807F0B8
:1039A8000841464608190800DADA3046BDE8F88FBB
:1039B80000232B6063688BB31D606560002F3DD1C9
:1039C8003E4620465A460221FFF7EEFD3046BDE846
:1039D800F88F6FF085064FF00008484626F0E2FDA4
:1039E800A0B38BF31188BFF36F8FB8F1000FDCD051
:1039F8005046002100F04AF880460028D5D03A46C3
:103A0800294620460023C047CFE701333E46E383DB
:103A1800E3E76FF00A064FF00008DEE7256065600F
:103A2800CCE76FF004064FF00008D6E74FF4E471D6
:103A38000948FFF7B3FA6FF01506B6E73E464FF0B0
:103A48000008CAE788210548FFF7A8FA4FF49A71D9
:103A58000248FFF7A3FA00BF08670D00F0650D00E4
:103A6800034640B1426802F00302022A06D0032A44
:103A780004D0012A05D06FF0150070471A68002A93
:103A8800F9D0002210469A60704700BF08B5426816
:103A9800034602F00302022A816007D0032A10D0ED
:103AA800012A0BD045210948FFF778FA006800225F
:103AB8005A6008B127F04EFD002008BD0022426080
:103AC800FAE7006800225A6008BD00BF30670D00A1
:103AD80010B50446B1F800E08888AEEB000E206906
:103AE8001FFA8EFE86451FFA80FC24BFAEEB0C0E33
:103AF8001FFA8EFEACEB0E0C1FFA8CF0984228BF12
:103B080018462368734413600B8803440B8010BD68
:103B18004B88B1F800C0ACEB030C1FFA8CFC944541
:103B280015D34FF0000C00B51A4492B262F30F0C93
:103B380062F31F4CB1F804E0C1F800C0A2EB0E0319
:103B480002699BB2934205D200205DF804FB6FF036
:103B5800150070479644A1F804E0F5E72DE9F04117
:103B6800002705468846164607E0414622468FF05C
:103B7800CEFB361B2744A04435D0AA88AB892869D8
:103B8800D31A9BB2C31AB34228BF3346298984B2D9
:103B9800511A89B288429CBF091B89B2641AA4B21F
:103BA8009C4228BF1C462868224492B20844AA8036
:103BB800002CDAD1EB88D21A92B2974219D8002198
:103BC80028893B449BB21A1A2C6992B2A24263F329
:103BD8000F0128BF001963F31F4128BF28816960BE
:103BE8003846BDE8F081AA88EB88D21A92B297428B
:103BF800E5D948210148FFF7D1F900BF58670D0002
:103C08002DE9F0414FF0000805460F461646438956
:103C18000AE037B13846224661448FF078FB6B8959
:103C28002744361BA0441AD0EA88E989D21A92B2EE
:103C3800B24228BF32462869591A89B2814284B2F1
:103C480024BF091B89B2641AA4B2944228BF14463F
:103C580023449BB2D5F800C06B81002CD9D1AA8926
:103C68009B1A9BB2984515D80021E88902EB0803F6
:103C78009BB21A1A2C6992B2A24263F30F0128BFB1
:103C8800001963F31F4128BFE881C5F80A104046B0
:103C9800BDE8F08163210148FFF780F958670D00FE
:103CA800704700BF002070471DF01EBF2DE9F04F80
:103CB8004A4FDFF82CB183B0A7EB0B048F2CCDE96A
:103CC800001000F2858047494FEA1418D1E8EF4FF9
:103CD800601CC1E8E50F002DF8D1002C3AD1BB4596
:103CE80071D837D2013FA7EB0B0726464FF0010AE0
:103CF8003F090BF1100508E0464564D0B74206F1CC
:103D0800010205F1100523D0164615F8042C002AE7
:103D1800F2D055F8102CA5F11009D2680AB148461E
:103D2800904755F80C2C82F806A055F8102C12690B
:103D380032B14846904718B10AFA06F21443DBE755
:103D480055F80C2C48461168042200F027F9D3E7EF
:103D5800019B13B903B0BDE8F08F002CFAD04FF0E7
:103D68000108274694FAA4F2B2FA82F20BEB021980
:103D780099F80C0008FA02F1CE4324EA010415016F
:103D880038B9002CEED1009BBBB9002FE2D03C46DD
:103D9800E7E75BF8052012691AB148469047002802
:103DA800EFD10BEB050251684846042209683740F9
:103DB80000F0F4F8002CD5D1E5E700214FF4A47009
:103DC80026F024F8E1E74FF4AC710748FFF7E6F86E
:103DD8004FF4A6710448FFF7E1F800BF903F0D00CB
:103DE800703F0D0038D3012084670D00002108B50D
:103DF8000846FFF75BFF002008BD00BF014B53F8E2
:103E080020007047B4670D0038B500241848194DD4
:103E1800194B1A491A4A05604FF400401C60194DA5
:103E28000C70146000F0DCFB174B9D421AD818D2B6
:103E380003F1FF3CACEB050C5B1B224629461C0931
:103E48004FEA1C1C00E01A464B1B48681B11013343
:103E58009442037101F1100104D0624502F101039B
:103E6800F1D138BD40F227110848FFF797F800BF95
:103E780024770120B13C040034D3012009E001205B
:103E880030D30120703F0D00903F0D0084670D0076
:103E98002DE9F041184F3C780CB1BDE8F081174D81
:103EA800174E21460120FFF701FFB5421FD81AD24D
:103EB80006F1FF38A8EB0508761B4FEA18183609F3
:103EC80008E0B44205F1100511D0444504F101039E
:103ED80009D01C466B685B79002BF2D02B6828460A
:103EE8009B689847EDE701233B70BDE8F08140F2FD
:103EF800C5110448FFF752F809E00120703F0D0092
:103F0800903F0D0084670D00704700BF2DE9F04118
:103F1800164B07461B689847154D164EB860B542B4
:103F28001FD81CD206F1FF38A8EB0508761B002421
:103F38004FEA1818360908E0B44205F1100510D008
:103F4800444504F101030AD01C466B685B79002BD9
:103F5800F2D02B68394628461B689847ECE7BDE83D
:103F6800F0814FF400710448FFF718F82477012016
:103F7800703F0D00903F0D0084670D0000207047D2
:103F8800044A054B9B1AB1EBD30F34BF52F83100EA
:103F980000207047B83E0D00703F0D004FF0010C37
:103FA8004368DA7143681960436883F805C0FFF70E
:103FB800ABBF00BF08B518B1002243685A7108BDED
:103FC80040F235110148FEF7E9FF00BFC8670D0050
:103FD8002DE9F04F89B004AFD7F8408004468A46EF
:103FE80016469946BD6BD7F844B0B8F1000F45D0D6
:103FF800CDF800B0102143460020FA6BC7F80CB08A
:10400800FEF7CEFB011E65DBB1F5006F4CDA05F15A
:1040180017020A4422F00702ADEB020DCDF800B0FA
:104028000DF1200B4346FA6B58467960C1F30A0834
:10403800FEF7B6FBC5F30B020028154604F007048B
:1040480006F0070604AB40DBB9F1000F06D078682C
:10405800494658443B608FF05AF93B68E40044EA0B
:10406800861444EA482444EA05541846C3E9004A39
:10407800FFF74CFF1437BD46BDE8F08F05F1170375
:1040880023F00703ADEB030D02F00706C5F30B029F
:10409800154600F0070404AB0DF1200BC7F80480A7
:1040A800B9F1000FD3D1D9E7002340F2FF740C48CF
:1040B80002220290CDE9003318460A49039400F021
:1040C80015F81437BD46BDE8F08F4FF4C4710648A3
:1040D800FEF764FF40F265110348FEF75FFF00BF7B
:1040E80038680D00D83E0D000C680D00002300B59F
:1040F80087B0DDF828C00BA8039005900222184667
:10410800CDE90033CDF808C0FFF762FF07B05DF8CE
:1041180004FB00BF406820B1034BC01A40F3CF0036
:1041280070474FF0FF307047B83E0D0002460B460F
:1041380000B583B08DF807200121D3E900320DF1D5
:10414800070052689847002003B05DF804FB00BFE1
:1041580070B50A2805460C4682B00CD00DF107064A
:1041680062688DF8075030460121236852689847E5
:10417800002002B070BD0D2163680DF107065A6872
:1041880030468DF80710236801219847E8E700BFFB
:104198000EB400B582B003AB53F8042B01460448B3
:1041A800019305F019FF02B05DF804EB03B0704706
:1041B800354104002DE9F04F89B09DF84C80044644
:1041C8001E46159FB8F1000F40F0DB80012E149BAE
:1041D80028D0002B00F0C080C346B3482246149B69
:1041E800B249FEF725FD0028C0F2B281169B13BB29
:1041F800B8F1000F40F09F80D4E900831D68A668DD
:104208005F6855B13B464746984630462946424680
:10421800B8472D1A0644F8D1636800221A6009B01D
:10422800BDE8F08F002B00F09780C346EAE0169BAC
:10423800002B00F08380DA46179BDFF8749203F0B6
:104248001003CDE905389B4E169D059B102D28BF00
:1042580010253BB9179B990640F18E802046964958
:10426800FFF796FFBAF1000FC8BF4FF0000807DD4F
:104278003146204608F10108FFF78AFFD045F7D1FB
:1042880020468E493A78FFF783FF4FF0010BDFF89D
:1042980030820AE05D4511D8414620460BF1010BFA
:1042A800FFF776FFBBF1100F13D01BF0070FF1D10A
:1042B80031462046FFF76CFF5D45EDD917F80B2016
:1042C80020467E490BF1010BFFF762FFBBF1100F8F
:1042D800EBD120467B49FFF75BFF4FF0000B3A46D6
:1042E800DFF8E4811278414619F80230204613F0CD
:1042F800970F08BF2E220BF1010BFFF749FFBBF107
:10430800100F0DD01BF0070F2DD05D4531D8314669
:1043180020460BF1010BFFF73BFFBBF1100FF1D16A
:10432800169B2F445B1B16938ED1DDF81880B8F1CD
:10433800000F3FF461AF179B03F00105002D63D117
:10434800179BDA063FF558AF9B0620464CBF5A49E3
:104358005E49FFF71DFF4FE7169B002B3FF44CAF5C
:104368004FF0000A68E731462046FFF711FF5D4528
:10437800CDD907EB0B02B5E720465449FFF708FFF4
:1043880070E7B8F1040F00F2E88092468946FFF71B
:10439800F5FD179A179B02F0010502F00802059235
:1043A800179A03F0020302F480720692024600286C
:1043B80030D0204646490793FFF7EAFE079B83461D
:1043C8005BBB55B1434B204653F82820424B434929
:1043D800002A08BF1A46FFF7DBFE069B002B00F0F9
:1043E8008D80059B002B40F0A080BAF1000F05D00E
:1043F800524620463A49FFF7CBFE8344149B002BD4
:104408003FF415AF3748E9E62046334A3349FFF70A
:10441800BFFE95E78346002BD3D0179B13F0440FBC
:1044280000F08D80304BD3F800E0BEF1000FC8D00B
:104438002E4B2F4A1B682046B9FBF3F3B3FBFEFC57
:10444800A2FB0C924FF47A790EFB1C3309FB03F3A1
:1044580007934FF461634FEAD22903FB19C9254B2F
:104468002549A3FB09C3DDF81CC05B09BCFBFEFCA6
:10447800CDF804C0C3EB031CA9EB8C0CCDF800C02D
:10448800DDF80490DDF81CC0D20A0EFB19CC4FF4FD
:104498007A7909FB0CFCBCFBFEFCCDF808C0FFF7E1
:1044A80077FE83448DE700BF59410400E19F040073
:1044B8005E1F0E00FCCD0D0034C80D00EC680D0029
:1044C800F8680D00FC680D00DC790D00F4680D003B
:1044D800A8680D0020690D0070680D00D4680D00F3
:1044E800D8680D003541040040D301203CD3012099
:1044F800C5B3A29189888888B8680D00059BABB9B7
:10450800DDF81490BAF1000F05D05246204615493F
:10451800FFF73EFE8144CEB1324620461249FFF7EE
:1045280037FE00EB09039B4468E700260F4B204643
:1045380053F828200E49FFF72BFE8146E2E74A464A
:1045480020460C49FFF724FE83443AE7CB4455E75D
:1045580040F2A7210848FEF721FD40F24D21064808
:10456800FEF71CFDD8680D00E4680D0034690D00E5
:10457800DC680D00AC680D0078680D002DE9F0438B
:104588000546087887B0C0F3C20908460E880C466D
:104598008F689046FFF7BEFD011EC6F382161ADA31
:1045A8000023002239462846678854F8105BC7F371
:1045B8000B17C5F34A2C944504EB0C0508BF1446A9
:1045C800CDE904780196039500920294FFF7F2FD75
:1045D80007B0BDE8F0834846FFF7D2FC0346E0E7A2
:1045E8000A4A904288BF012309D9400890424FEAFD
:1045F8004303FAD8064A1360064B18607047012235
:10460800034B1A60034B1860704700BF40420F000D
:104618003CD3012040D301202DE9F041884659B10F
:10462800074E4518B768441E013D14F8011F30466F
:104638007B689847AC42F8D14046BDE8F08100BF9E
:10464800343B0D0003465B6800201B685B6899617A
:10465800704700BF01212DE9F04143681B685A6883
:104668001177D3F80080D8E900731C68D8F808508F
:104678005E6844B1284621463246B847241A0544A4
:10468800F8D1D8F8043000221A60BDE8F08100BFE4
:1046980070B543680C461D686B689869FFF7AEFBF8
:1046A800214603460F222868BDE87040184700BF1E
:1046B80010B543681C68064822F0B0FC18B123689E
:1046C8005B685C6010BD99210248FEF767FC00BF7B
:1046D800343B0D0048690D000346024A00201A6069
:1046E800704700BFDC690D0010B504461DF0FCF9E9
:1046F80003490246204602F093F9002010BD00BF8E
:10470800086A0D0030B515460346002483B0686872
:104718000A2101AA01941D4602F05AFF019C9CB986
:104728004FF40045214640F2E73220EAE073C3FB2C
:104738000521002310464FF47A722BF0CBFB25F0AD
:1047480065FB204603B030BD22462846034902F0E7
:10475800A9F9019C204603B030BD00BF386A0D009E
:1047680008B5034A034902F05BF9002008BD00BF01
:10477800306B0D00386B0D00012008B5FEF740FCCA
:10478800002008B5FEF73CFC0B68834204BF0123F8
:104798000B7170470246002300B583B0694605488F
:1047A80000928DF8043025F0BDFF9DF8040003B099
:1047B8005DF804FB9147040010B504461DF06AF942
:1047C80007490246204602F02BF92046054902F027
:1047D80027F92146044825F0A9FF002010BD00BF95
:1047E800FC6B0D001C6C0D00F5470400F0B58FB094
:1047F80004460E46D0F8AC7024F012FB294B1B7807
:10480800002B49D00546284B8FF092F8002D08BFA1
:104818001D46DFF898E0DFF898C05EF80000254AEA
:104828002346844208BF624623493046009502F079
:10483800F7F8D4E90A23CDE90023304694F90E307D
:10484800227B1E4902F0ECF806A92022204624F01B
:10485800E9FA636F02461A49304602F0E1F8204649
:1048680005A924F009FC80B96425059B3046FC1A8B
:10487800CDE9004705FB04F4B4FBF7F43A461149C7
:10488800029402F0CDF80FB0F0BD02460E49304652
:1048980002F0C6F80FB0F0BD40F246310B48FEF703
:1048A8007DFB00BF12E00120286C0D00080000000D
:1048B800B0850D00FCCD0D002C6C0D00386C0D0082
:1048C800646C0D00AC6C0D007C6C0D0054660D0022
:1048D80030B505464FF02033002291B029461948DB
:1048E800CDE90E22CDE90933CDE90B330893ADF8B4
:1048F80038300D9325F01AFF4FF40061124807AACB
:1049080024F0AAFBC8B94FF400614FF0640C0446C8
:1049180008AB0093079B2846CA1A03920CFB02F2C5
:10492800D20A02930491019105922346064A074947
:1049380002F076F8204611B030BD50210448FEF749
:104948002DFB00BF5D490400183102204C6D0D009D
:10495800046D0D00F0B5054689B00E46D0F8AC7070
:1049680007A924F089FBD0B9284624F059FA642114
:10497800079C034601943C1B029401FB04F4B4FB1E
:10498800F7F40A492A46002B08BF0B463046084967
:1049980003970097049402F043F809B0F0BD02466B
:1049A8000449304602F03CF809B0F0BD286C0D000F
:1049B800986D0D007C6C0D0038B514460546102224
:1049C800606800212BF0D6FB0446FFF7E3FE90B1A8
:1049D800124B1B78E3B18EF0ABFF114B1B589C4276
:1049E80011D0204624F0A0FC284622460D4902F0AA
:1049F80017F8002038BD224628460B4902F052F825
:104A08006FF0150038BD2846084902F04BF8F7E763
:104A180040F246310648FEF7C1FA00BF12E0012015
:104A280008000000446E0D00006E0D001C6E0D00A5
:104A380054660D0038B514460546102260680021FA
:104A48002BF098FB0446FFF7A5FE90B1124B1B789C
:104A5800E3B18EF06DFF114B1B589C4211D02046DC
:104A680024F09EFF284622460D4901F0D9FF002078
:104A780038BD224628460B4902F014F86FF015009D
:104A880038BD2846084902F00DF8F7E740F24631EC
:104A98000648FEF783FA00BF12E001200800000074
:104AA800B06E0D00006E0D00886E0D0054660D008E
:104AB80038B5144605461022606800212BF05AFBD1
:104AC8000446FFF767FE90B1124B1B78E3B18EF0F6
:104AD8002FFF114B1B589C4211D0204604F026FE94
:104AE800284622460D4901F09BFF002038BD22468A
:104AF80028460B4901F0D6FF6FF0150038BD28464F
:104B0800084901F0CFFFF7E740F246310648FEF7C3
:104B180045FA00BF12E0012008000000186F0D00E0
:104B2800006E0D00F06E0D0054660D0010B50C46B9
:104B3800002102F0CBFC00B100680023024AC4E95E
:104B48000233C4E9000210BD546F0D0010B50C46C5
:104B5800002102F0BFFC00B100680023024AC4E94A
:104B68000233C4E9000210BD546F0D0070B506464B
:104B78005068144602F0B2FCF0B1054622F04EFA35
:104B8800A0B9284622F018FA054638B930466268B6
:104B98000D4901F035FF0025284670BD03466268BF
:104BA80030460A4901F07EFF284670BD30466268EB
:104BB800074901F025FFEEE730466268054901F034
:104BC80071FF6FF01205E7E7C86F0D00986F0D00D1
:104BD800746F0D005C6F0D002DE9F04F91B0054624
:104BE80003A88946019222F00DFA039B082103EBE2
:104BF80040182E4A284601F0F5FE039CA04535D9F9
:104C0800DFF8ACA026680EB1337833B923463021DB
:104C1800284A04A82BF00CFA04AEB9F1020F05D10A
:104C2800019B304659688EF07DFCE0B1334608217F
:104C38002846214A01F0D6FE204622F0EFF9064622
:104C48001E4B0821002E08BF534628461C4A01F077
:104C5800C9FEE3693BB1D3F800B0BBF1000F02D045
:104C6800DBF8002032B92034A045CBD8002011B0A1
:104C7800BDE8F08F134A0821284601F0B3FEDBF89F
:104C880000206AB15F46002657F8043F08212846ED
:104C98000D4A01F0A7FEDBF800300136B342F3D825
:104CA80008212846094A01F09DFEDCE700700D0046
:104CB800F46F0D000C700D0014700D00EC6F0D00FA
:104CC8001C700D0024700D0054B70D0034C80D0081
:104CD800F0B5137814463A2B06460D4683B015D125
:104CE800013401AF23783A2B28D101340A223946FE
:104CF80020462BF0C9F9019A0346A24228601AD02F
:104D08001078C0B93C2B2ED803B0F0BD01AF0A22F1
:104D1800394620462BF0B8F9019BA860A3420AD077
:104D28001A783A2A07D1172898BF5C1CDAD9304676
:104D38000F4901F0B7FE6FF01500E5E70A22394682
:104D480020462BF0A1F9019B6860A342F3D01A78A2
:104D58003A2AF0D13B2898BF5C1CC7D93046054990
:104D680001F0A0FEE7E73046034901F09BFEE2E7C9
:104D780018710D0028710D0038710D002DE9F041F2
:104D88000D4694B006A9044601201646FDF7BEFF5D
:104D98000BA906A82BF0A8F8032D31D0022D65D158
:104DA800204672680BA9FFF793FF00285ED10BA875
:104DB800FEF7B0FAB1F1FF3F08BFB0F1FF3FCDE910
:104DC80006015FD000230893012006A9FEF70EF81C
:104DD8000546002850D1DDE90F320B992046039192
:104DE8000C99013302910D9902F26C7201910E999E
:104DF80000912C4901F014FE284614B0BDE8F0815A
:104E080075680A22284605A92BF03EF9059B8046BD
:104E18009D422BD01A782D2A28D15D1C0A222846BB
:104E280005A92BF031F9059FBD421FD03A782D2AEC
:104E38001CD1451E0B2D2AD801370A22384605A950
:104E48002BF022F9059B9F4210D01B7873B9431EA3
:104E58001E2B21D8CDE90E05A8F26C732046B26846
:104E68000BA91093FFF734FF0028A0D0204601F0CB
:104E7800A5FF6FF01505BFE702460B49204601F074
:104E880011FEF6E72046094901F00CFEF1E720463D
:104E9800074901F007FEE9E72046064901F002FE4E
:104EA800E4E700BFAC710D0094710D0068710D004E
:104EB80048710D0058710D0010B5044692B004A950
:104EC8000120FDF723FF09A904A82BF00DF8DDE95F
:104ED8000D32DDE909010133CDE90210DDE90B01ED
:104EE80002F26C72CDE900102046034901F098FDEA
:104EF800002012B010BD00BFAC710D002DE9F041CB
:104F080015460E4610220021044668682BF032F937
:104F1800022E07460DD820222046274901F080FDA1
:104F28003A6800232046254901F07AFD0020BDE8B3
:104F3800F0810A220021A8682BF01CF980465FFA4C
:104F480088F8204642461C4901F06AFD032E24D009
:104F58001022E86800212BF073F905460B4620461D
:104F68002A46174901F05CFDB8F1100F0DD0B8F1D1
:104F7800200F10D0B8F1080F0AD02046114901F0CF
:104F88004FFD6FF01500BDE8F081ADB23D80CDE773
:104F9800EDB23D70CAE73D60C8E7B8F1100F08D020
:104FA800B8F1200FBCD0B8F1080FE6D13A78D2B2E8
:104FB800B7E73A8892B2B4E75C720D008C720D00C4
:104FC800A0720D0074720D002DE9F04F0023012529
:104FD8004FF0FF36554C87B0256082460D46144683
:104FE80001934FF02008FEF701FAB146504F3A46B8
:104FF80021462846FEF720FA421C43D073282ED0BB
:10500800772819D0612804D06FF0150007B0BDE8E3
:10501800F08FDFF820B11021DBF8000001AA02F0C0
:10502800D7FA019B0646002BE1D05046DBF800205A
:10503800414901F037FDE7E7DFF8F8B00021DBF878
:10504800000001AA02F0C4FA019B8046002BCED0D2
:105058005046DBF80020394901F024FDD4E7DFF899
:10506800D4B00021DBF8000001AA02F0B1FA019BDC
:105078008146002BBBD05046DBF80020304901F0B8
:1050880011FDC1E7731C4CD0B9F1FF3F44D05FFA62
:1050980088F4C8F3C408B9F1000F2ED0A8EB0605B0
:1050A800C84519D8B8F1100F16D8324602AB102CE3
:1050B80008D0202C26D0082C21D05046214901F0B8
:1050C800AFFCA1E7118889B21970090A59704244E6
:1050D800511910294344EAD94F46102F28BF1027E9
:1050E800314650463B4602AA01F0ECFCB9EB0709F1
:1050F800A5F1100506F11006D2D1002086E7117837
:105108001970E4E71168080C19709870C1F3072149
:10511800000A5970D870DAE750460B4901F0C2FC12
:1051280072E75046094901F0BDFC6DE71C77012084
:10513800F4720D0024D30120B8720D00E0720D0046
:10514800CC720D0074720D001C730D00FC720D0002
:105158002DE9F04700239246384F394C394A012946
:1051680006462360DAF804003B7013603AD90C460F
:1051780055464FF00108DFF8D09012E043782D2B08
:1051880015D18378002B0CBF0246421C13782D2BB7
:1051980011D15378652B0ED1013C012C87F8008082
:1051A8001DD0AA4655F8040F03782D2BE6D00246E9
:1051B80013782D2BEDD013782D2B04D153782D2B6C
:1051C80001D193787BB313782D2B0BD153784BB146
:1051D80049463046013C01F023FC012CE1D1DAF8C4
:1051E8000800AA46002211462AF0C4FF0022014600
:1051F800164BDAF80400196011462AF0BBFF144C6C
:10520800144B277818609FB901253046124925703C
:1052180001F006FC3A4630461049257001F0F6FDCB
:105228000020BDE8F087DAF808000AF1040AD9E797
:1052380030460B4901F036FCF2E700BF0CE00120D4
:1052480078D301207CD3012038730D0084D301204A
:105258000AE0012080D301208C730D006D520400F8
:1052680050730D00002A00F092800A442DE9F0479F
:1052780081464B4E4B4DDFF83081DFF830A14C1E94
:10528800571E0DE009282B68327001D9052903D86B
:1052980008F8032001332B60022B46D0BC4242D0D1
:1052A800337814F8012F182B22F02003A2F13000D4
:1052B800A3F14101E6D1112AE4D100233C4C3D4D34
:1052C800484622683C49337001F0AAFB2B7883F0EA
:1052D80001032B70002B3CD100224846114601F0F7
:1052E80095FD364B1B78F3B92168042913DD344E3C
:1052F8004D1F3368AD08681C03EB80001A6812BAAA
:1053080043F8042B8342F9D1C5EB8575043901EBC9
:1053180085013360216011F0030221D1284B1A68FE
:1053280013681BBA1360BDE8F087102200214046BD
:105338002AF020FF4FF0000C1D49DAF800300A6807
:1053480003F8010B01320A60CAF80030C5F800C042
:10535800A4E748461B4901F063FB01232B70BBE718
:105368004B4203F0030358BF5A42022A10D0032AC3
:10537800D9D1134B186802681104C2F3074301F42A
:105388007F010B4302F47F4213430360CBE770476E
:105398000B4B1A6813885BBA9BB21360C3E700BF54
:1053A8000BE0012078D3012074D3012084D301209D
:1053B8007CD301200AE00120B8730D000CE0012025
:1053C80080D301208C730D0010B540681C46243032
:1053D800FEF716FC03462360002010BD2DE9F843B4
:1053E80046689946337BB3B190465AB10D46531E71
:1053F8004C1E1D44306814F8011F87687F68B84741
:10540800AC42F7D1C9F800800120D6E901319847AC
:105418000020BDE8F88306F11000FEF79FFB01218C
:1054280006F1B803C9F80000D3E8EF2FC3E8E01F7E
:105438000028F9D1002AEBD1306883685B69002B1A
:10544800E6D098470020BDE8F88300BF10B582B0C9
:10545800094821F0E3FD58B10424084A01231268E1
:1054680005490748009401F00BFC002002B010BD6C
:105478006FF01200FAE700BF343B0D00CC750D0049
:10548800903F0D0003785B0701D500207047036843
:105498004288C3F34A2000EB1210173020F00700AF
:1054A80080087047002310B5064C86B00BA8CDE9DC
:1054B8000240059002221846CDE90033FEF788FD28
:1054C80006B010BD7C750D00F8B5402700240826ED
:1054D8004568C5E90012AB604268D319536202F10E
:1054E8003803C2E90A44C2E90434C2E9064415682B
:1054F800576314631662C2F8B840AB6823B11B6CDB
:1055080013B1284604499847AB681B6A0BB1284673
:1055180098470020F8BD00BF255504002DE9F04745
:1055280005460C4686B08368DA6B0AB19047AB68CB
:10553800DB6A1BB128469847002844D04FF0000882
:1055480004F1240604F12807218E238D626B5B1A6F
:105558009BB2D31A934228BF13463946304605AA50
:10556800FEF7B6FA8146B0B1AB6805991B69002B06
:1055780069D0024628469847824600284FD05246AE
:1055880039463046FEF7C4FA00284FD1CA454FF0D5
:105598000108D9D013E0314E03460222CDE90106B5
:1055A8002F490090FFF77EFFAB681B6923B10122EA
:1055B80028460DF113019847B8F1000F03D0D4E93C
:1055C800013100209847AB68DB6913B1284698473A
:1055D80010B3618BE38A226A5B1A9BB2934204F18F
:1055E800100604F11A0728BF1346394605AA3046A3
:1055F800FEF76EFA0246E8B1AB680599DB682BB393
:1056080028469847024639463046FEF781FA00BBDD
:10561800D4E901310120984706B0BDE8F087024679
:1056280039463046FEF774FA0028C5D06F210D4878
:10563800FDF7B4FCAB689B690BB12846984700237B
:10564800C4F8B830E4E76FF0570A98E76FF05702EC
:10565800D9E7BB210348FDF7A1FC00BF7C750D000D
:10566800283F0D0094750D0010B5406850F8804B28
:1056780025F08EFBA3689B690BB120469847A36869
:105688005B6A0BB120469847002010BD08B54368F7
:10569800197309B9002008BD186883689B69002B35
:1056A800F8D09847002008BD0EB400B582B003AA10
:1056B80052F8041B019201F0E9FB02B05DF804EB1B
:1056C80003B0704738B50446886800F5207024B9DF
:1056D800BDE83840012126F06DB80D46082126F0B6
:1056E80069F8012C0AD1AB6803F51F73D3E8EF1FE3
:1056F80041F00201C3E8E21F002AF7D138BD00BF1C
:10570800F0B583680446D3F87C220D46520783B06F
:1057180031D4E068C36803B3A26829460DF10603D3
:105728005A3203F0ABF9002838D0204602F0FCF8D2
:10573800A368D3F878329B062BD4204602F086F96A
:10574800A268BDF806302046A2F85630A268A2F832
:10575800543001F0BFFF03B0F0BD002DFBD0A668A8
:1057680006F15A0738468DF05AFE83B21BBB86F8FD
:105778005A31E068D0E703F51F73D3E8EF1F21F033
:105788000401C3E8E21F002AF7D1E06803F072F9C8
:10579800BFE70D496069FFF787FFCEE7A06800F50E
:1057A800AD715A30FBF72CFAA0685A308DF037FEED
:1057B800ADF80600B9E7421C394606F5AD708DF024
:1057C800A6FDE068A8E700BFC0430D002DE9F04F33
:1057D8000746A9B05422002113A88DF0A4FD002388
:1057E800BA683846CDE9073302F15A0802F0A4F83E
:1057F800384601F057FF002800F041814FF00009BA
:10580800BB683846C3F81890C3F81C90C3F82090BA
:10581800C3F82490C3F8289001F014FED7E90210C9
:10582800B1F854205A3103F059F9384603F0C4F955
:105838000899012900F0A481CA463B46DDF81CB04E
:1058480013AC4D464746CDF81090CDF80C90CDF8E6
:1058580014904FF0FF36A14698465C46D346132C69
:1058680000F24081002E00F042813A464946022368
:1058780008A801F0AFFB0899D9F80470002900F0D6
:10588800EF80012900F0AF80079B002B7DD1BAF192
:10589800000F00F0CB8009F10409013E002D00F053
:1058A8009580EB68BBF1000F00F0A680002B40F05C
:1058B800CC80079C6B68002B00F0B680AE460DF1DB
:1058C800380C0593BEE80F00ACE80F00DEF8003096
:1058D8000395CCF800300899002E74D1022972D0B3
:1058E8000129BCD15A464746A346DDF81490BBF1BE
:1058F800130F03D90899022900F05681049913ABB4
:1059080003EB81044AB1384603F012FABA6814234B
:1059180013A95A3207A801F05DFB039B079D23B129
:10592800039B5B7CFE2B00F00481049BED1ABB6893
:105938005A6A002A00F0E08093F82820002A00F034
:10594800A3804FF6FF7193F82900FF2818BF01467E
:10595800AA4203D80A44AA4280F096809B69964AD4
:105968000121384602F094F9B9683846183102F036
:10597800FDFDB9683846914A183102F089FD6FF08B
:105988001504204629B0BDE8F08FD9F8000002F0D0
:1059980021FE002840F0D880079B002B3FF477AF0A
:1059A80029464046D9F8002003F028F9022800F0DB
:1059B800E08003283FF46BAF079C4FF0010B0134E4
:1059C800089907948CE70134079489E7079C3CB948
:1059D800D8F80830DB6A002B45D0DB68002B42D0B2
:1059E8004FF0010A77E700283FF44EAF0346744AA8
:1059F800404602F04DF933E0D8F80820079C002B08
:105A08003FF458AFAE4602F1180CBEE80F00ACE800
:105A18000F00DEF80030CCF80030AB6873B16B686B
:105A28000494002B7FF44AAF039554E70398D9F800
:105A3800001009AA01F05CFC05462CE76B7CFE2BE4
:105A4800EDD12E7C0494013E34E7404601F074FF0A
:105A5800404601F03FFE012140465A4A02F018F93B
:105A68006FF007048DE7584B012100934046139BC4
:105A7800564A02F00DF94FF0010A079C2BE75449EA
:105A88007869FFF711FEB9E603F51F73D3E8EF1F36
:105A980041F40061C3E8E21F002AF7D1B86800F5B5
:105AA800247022F0BDFBBB682246294638465B6A53
:105AB80098470446B86800F524704FF0FF334FF05C
:105AC800FF3222F01DFCBB6803F51F73D3E8EF1FFC
