:020000040003F7
:108000003DB8F3960000000000020000C49F040089
:108010000000000000000000000000000000000060
:10802000FFFFFFFFFFFFFFFFFFFFFFFFFFFFFFFF60
:10803000FFFFFFFFFFFFFFFFFFFFFFFFFFFFFFFF50
:10804000FFFFFFFFFFFFFFFFFFFFFFFFFFFFFFFF40
:10805000FFFFFFFFFFFFFFFFFFFFFFFFFFFFFFFF30
:10806000FFFFFFFFFFFFFFFFFFFFFFFFFFFFFFFF20
:10807000FFFFFFFFFFFFFFFFFFFFFFFFFFFFFFFF10
:10808000FFFFFFFFFFFFFFFFFFFFFFFFFFFFFFFF00
:10809000FFFFFFFFFFFFFFFFFFFFFFFFFFFFFFFFF0
:1080A000FFFFFFFFFFFFFFFFFFFFFFFFFFFFFFFFE0
:1080B000FFFFFFFFFFFFFFFFFFFFFFFFFFFFFFFFD0
:1080C000FFFFFFFFFFFFFFFFFFFFFFFFFFFFFFFFC0
:1080D000FFFFFFFFFFFFFFFFFFFFFFFFFFFFFFFFB0
:1080E000FFFFFFFFFFFFFFFFFFFFFFFFFFFFFFFFA0
:1080F000FFFFFFFFFFFFFFFFFFFFFFFFFFFFFFFF90
:10810000FFFFFFFFFFFFFFFFFFFFFFFFFFFFFFFF7F
:10811000FFFFFFFFFFFFFFFFFFFFFFFFFFFFFFFF6F
:10812000FFFFFFFFFFFFFFFFFFFFFFFFFFFFFFFF5F
:10813000FFFFFFFFFFFFFFFFFFFFFFFFFFFFFFFF4F
:10814000FFFFFFFFFFFFFFFFFFFFFFFFFFFFFFFF3F
:10815000FFFFFFFFFFFFFFFFFFFFFFFFFFFFFFFF2F
:10816000FFFFFFFFFFFFFFFFFFFFFFFFFFFFFFFF1F
:10817000FFFFFFFFFFFFFFFFFFFFFFFFFFFFFFFF0F
:10818000FFFFFFFFFFFFFFFFFFFFFFFFFFFFFFFFFF
:10819000FFFFFFFFFFFFFFFFFFFFFFFFFFFFFFFFEF
:1081A000FFFFFFFFFFFFFFFFFFFFFFFFFFFFFFFFDF
:1081B000FFFFFFFFFFFFFFFFFFFFFFFFFFFFFFFFCF
:1081C000FFFFFFFFFFFFFFFFFFFFFFFFFFFFFFFFBF
:1081D000FFFFFFFFFFFFFFFFFFFFFFFFFFFFFFFFAF
:1081E000FFFFFFFFFFFFFFFFFFFFFFFFFFFFFFFF9F
:1081F000FFFFFFFFFFFFFFFFFFFFFFFFFFFFFFFF8F
:10820000F80B0020918803006589030065E00300F6
:1082100085E00300A5E00300E5E00300C5E00300FE
:1082200000000000000000000000000069AF030033
:10823000658903000000000065890300658903006B
:10824000000000000000000000000000C7B80300AC
:10825000000000006589030000000000000000002D
:10826000658903006589030065890300658903004A
:10827000000000006589030065890300658903002B
:10828000658903006589030000000000000000000C
:1082900065890300658903000000000000000000FC
:1082A00065890300000000000000000065890300EC
:1082B00065890300658903006589030065890300FA
:1082C00065890300658903006589030065890300EA
:1082D00065890300000000006589030000000000BC
:1082E00065890300000000006589030000000000AC
:1082F000658903000000000000000000000000008D
:10830000000000006589030000000000000000007C
:10831000000000000000000000000000000000005D
:10832000000000006589030000000000000000005C
:10833000000000000000000000000000000000003D
:108340006589030000015F5F02000000FE0B000072
:1083500045B003008006000000000000000000009F
:108360000000000000000000000000000100FFC34A
:10837000000000C4201200200000000001015F5F27
:10838000030100001F010000B1860300000000008F
:1083900000000000010000000100000000000000DB
:1083A00000000000000000000000000000000000CD
:1083B000000000007000000048E50300800000009D
:1083C000000F000001000000F184030001015F5F65
:1083D000040100001F0100001F88030000000000CE
:1083E000000000000000000001000000000000008C
:1083F000000000000000000000000000000000007D
:108400000000000053E503004000000005070000E5
:10841000010000000B870300FFFFFFFFFFFFFFFFCE
:1084200038B50025054C29462046D4F80024C4F868
:10843000045405F0C0FEC4F8005438BD200C0020E0
:1084400037B511460022CDE9002242680346402A92
:10845000046845D1228D150A032D17D0012D37D080
:1084600022482468D0F80404AA1ECDE90040082A56
:1084700039D8DFE802F0050B0F14191E232830004D
:108480006A46184600F037F903B030BD184600F0D0
:1084900020F9F9E76A46184600F01EF9F4E76A4643
:1084A000184600F013F9EFE76A46184600F017F98E
:1084B000EAE76A46184600F015F9E5E76A46184605
:1084C00000F013F9E0E76A46184600F011F9DBE71F
:1084D00000F014F9D8E76A46184600F013F9D3E71C
:1084E0006FF08000D0E76FF08500CDE7200C002012
:1084F0002DE9F04F05680446A3B0002D40F0B1808F
:108500002022294602A805F056FE12AF2022294655
:108510000AA805F050FE40222946384605F04BFED9
:10852000E26904F11C039846B2B10426E26A04F140
:108530002C03EAB10425EEB96FF08306304623B070
:10854000BDE8F08F002EF1D053F8041D3246013EF5
:108550000029F7D01646E9E70326F5E7002DEAD013
:1085600053F8041D2A46013D0029F7D01546E2E7DD
:108570000325F5E740233A460021606805F058FEE0
:108580004028D9D1CDE902700127DFF8DCA00DF138
:10859000080904F1100BBE421FD10AAF3846002172
:1085A000314A08EB8509D2F80034C84533D109B106
:1085B000C2F80034A3683146C2F8043402A82B463E
:1085C0000AAAFFF73DFF4FF000080646454507F1B0
:1085D00008073DD1FFF724FFB0E75BF8043F1A1D01
:1085E00021D8DAF80004D91C21F00301C0F580621B
:1085F000914218D8014400EB0A02CAF800146068DE
:108600003946019205F014FE019AC9F80C000137B1
:1086100049F8082FBFE758F804EF1EF1040F07D9F7
:1086200009B1C2F80034FFF7FBFE6FF08C0685E756
:108630000EF1030C2CF0030CC3F5806AD44500F155
:108640000800EDD8D11840E9021E63440121ACE7CF
:10865000414657E90223606805F0FFFD08F1010873
:10866000B4E76FF0850669E7200C002008B52822E2
:108670000021024805F09FFD002008BD28100020C1
:1086800010B5044C0F222046034905F06FFD20462B
:1086900010BD00BF511000202288030008B5012141
:1086A000024803F0D7FC002008BD00BF5010002096
:1086B00008B5FFF7DBFF40B9FFF7E2FFFFF7EEFF7A
:1086C00018B9BDE8084003F04FBD08BD6FF0850044
:1086D00070476FF0850070476FF0850070476FF04E
:1086E000850070476FF0850070476FF08500704718
:1086F0006FF0850070476FF085007047D1E9000189
:1087000003F0F6BC6FF085007047F0B503680546CE
:10871000B3F57D7FA7B007D040F2F532934207D082
:108720006FF0850027B0F0BD01F062FD0020F9E791
:1087300000243C22214607A8CDE90244CDE90444A7
:10874000069405F038FD3C22214617A8169405F042
:1087500032FDEA69019405F11C0302B30426EA6ABA
:1087600005F12C033AB30424731E012B52D8012CBB
:1087700050D80423002168680DEB030205F058FD72
:1087800004281AD06FF08000CCE7002EE7D053F811
:10879000041D3246013E0029F7D01646DFE70326C6
:1087A000F5E7002CE0D053F8041D2246013C0029D7
:1087B000F7D01446D8E70324F5E7022E16D16E69E8
:1087C000402E29D806AF33463A460121686805F0A5
:1087D0002FFD8642D6D1CDE9027602A944B92246C0
:1087E000019801F017FD044620469BE70021F5E7BC
:1087F0002B6A402BC6D816AACDE90423019804AAF7
:1088000001F008FDDDE9042304460021686805F055
:1088100024FDE9E7012085E76FF0890082E7002069
:1088200070474D62656420544C5320332E362E31F0
:108830000000000000000000000000000000000038
:10884000483400000100000069BC030041BC030083
:1088500040FC0300801000204700000040FC0300A3
:10886000200C00200000000040FC0300000C002051
:10887000000000009C110020C2050000200C002018
:1088800018010000000C00200800000002F00ABEE1
:1088900008B572B6002383F31488BFF36F8F83F398
:1088A0000A8883F30B88BFF35F8F254B5A6A22F443
:1088B00080325A62D3F8942022F00102C3F8942047
:1088C000BFF34F8FBFF36F8F1E4A9A6000F058F8C6
:1088D0001D4B83F309881D4B83F30A8883F30B88B0
:1088E0001B4B15A1D1E90001C3E9000100F0EEF82E
:1088F000184B19498B4212D30020184B18498B4250
:1089000018D303F0C5F9186850F82240586840F8A9
:108910002240013298688242F5D30C33EAE7002204
:10892000F8E71C6844F8220001325C68A242F8D3E0
:108930000833E4E70022F8E7A5EDF5FEA5EDF5FE26
:1089400000ED00E000820300F80B0020000400208E
:10895000F80B00205088030074880300748803001B
:108960008C880300EFF30880EFF309812DE9F00F05
:108970006B46724600F0A0F908B0FFF787FFFEE7EC
:1089800038B572B6002383F3138883F311884FF050
:10899000FF30274A03F120010133102B42F8210058
:1089A000F8D100234FF0FF34214A03F16001013375
:1089B000102B42F82140F8D1012200251D4B2946F9
:1089C0005A60C3F84843C3F8084303F580535A601C
:1089D000C3F84843C3F80843A3F55043C3F8005510
:1089E0008022C3F80843144805F0E5FB294680229D
:1089F000124805F0E0FB124B2946C3F800558022CF
:108A0000C3F808430F4805F0D6FB802229460E48DC
:108A100005F0D1FB0D4BC3F808454FF05023C3F8C8
:108A2000084362B6BFF34F8FBFF36F8F38BD00BFEF
:108A300000E100E000400150808000508081005043
:108A400000900050809000508091005000700150C4
:108A500008B5EFF31083012B0C4A07D1126ABFF35C
:108A60004F8F511C4A424A41104608BD01F0B8FCE4
:108A700000B172B6126ABFF34F8F531C5A425A416B
:108A800001F0AEFC0028EFD062B6EDE70080FF00F9
:108A900008B5EFF31083012B0B4A06D1D269BFF35F
:108AA0004F8F02F00102104608BD01F099FC00B1A1
:108AB00072B6D269BFF34F8F02F0010201F090FC51
:108AC0000028F0D062B6EEE70080FF006F4A10B5D4
:108AD000D2F8D03043F00203C2F8D03001F080FC6D
:108AE00030B14FF050230022C3F81421C3F81821ED
:108AF00001F085FC28B10122654BC3F8382AC3F880
:108B000078254FF47F02D2F83031D2F83421BFF308
:108B10004F8FC3F30B03092B05D1012A1EBF01227E
:108B20005B4BC3F8782501F06AFC18B10E22594B53
:108B3000C3F8E42E01F054FC30B10022544BC3F8CA
:108B40000C270122C3F810270022D30003F57F036E
:108B5000D3F80013BFF34F8F013108D0D3F80013BF
:108B60000132D3F80433B2F5807F0B60EDD1EFF31F
:108B70001084FFF78DFF00284DD0BFF34F8F464B79
:108B8000D3F80024012AFBD1C3F80425D3F800242C
:108B9000012AFBD1012C03D001F022FC00B172B6F6
:108BA000FFF776FF58B13D4AD36923F00103D36143
:108BB000BFF34F8F384AD2F80034012BFBD1FFF7B7
:108BC00047FF68B1354A136A23F0FF0343F02003DF
:108BD0001362BFF34F8F304AD2F80034012BFBD120
:108BE000012C03D001F0FCFB00B162B600222A4B3D
:108BF000C3F80425D3F80024012AFBD1BFF34F8F1B
:108C00002249274BCA6802F4E0621343CB60BFF3EA
:108C10004F8F00BFFDE7FFF71BFF0028ADD11B4AB8
:108C2000D2F88C3043F44063C2F88C304FF47F03A9
:108C3000D3F83021D3F83431BFF34F8FC2F30B0296
:108C4000092A16D1013B022B02D8164AD35C83B104
:108C5000124815490368104A8B420CBF5A2300235F
:108C6000C2F8103EC36A8B420CBF5A230023C2F8DD
:108C7000003E064AD2F8883043F47003C2F88830C8
:108C8000BFF34F8FBFF36F8F10BD00BF00ED00E04B
:108C90000040005000A00350009003500080FF00EF
:108CA0000400FA050AB90300FA50FA507C2201497F
:108CB00005F05CBABC18002038B51D46394B3A4C5B
:108CC0005B68C3F308032360EFF303836365530614
:108CD000C4E90120E1603BD502F00C020C2A08BF78
:108CE0000846014620612022304805F03FFA25B1B0
:108CF000202229462E4805F039FA2A4B9A6AA265A5
:108D0000D96AE165986B206602F400406066586B92
:108D1000A06602F08000E0669A62D962D3F8E4208F
:108D20002267D3F8E810616702F04001A167C3F839
:108D3000E42000F06FF80E211E4801F072FB22685B
:108D4000D31E042B22D8DFE803F00F15181B1E00DA
:108D5000EFF39483990704D5130702D5EFF38980C5
:108D6000BFE7EFF38880BCE70C211348BDE838402B
:108D700001F057BB12211148F8E70B211048F5E725
:108D80000D211048F2E70E210F48EFE70F2A98BF98
:108D90001421BDE8384089BF25210C480C48103A01
:108DA00001F0CEBC00ED00E0BC180020D01800207F
:108DB000F01800200DB903001BB9030027B9030008
:108DC00039B9030044B9030051B903005FB9030086
:108DD00073B903002DE9F34106460F460C4DD5F853
:108DE0002C80C04710F00104FBD1394630466B6936
:108DF000984740B9C047C307FCD42B6A019302B01F
:108E0000BDE8F0411847204602B0BDE8F08100BF40
:108E100098B9030010B5094C0020A368984723694E
:108E200002209847A46A06490120A0470121152085
:108E3000A0470122034B1A6010BD00BF98B9030080
:108E400040420F003819002010B5054C002023695E
:108E50009847E36898470022024B1A6010BD00BF94
:108E600098B9030038190020064B82B01868002317
:108E700082B262F30F03000C60F31F43184602B086
:108E8000704700BFE0B90300014B1869704700BF8D
:108E900080100020014B5869704700BF80100020EF
:108EA00038B50C4D0C4695F8203013B94FF0FF3013
:108EB00038BD0A460146284600F0A8FF064B9842F6
:108EC00005D00B3B9842F1D100206C61F0E76FF0C8
:108ED0000100EDE7801000200B00AD0BF0B51B4E3C
:108EE000054696F820300C4691B01BB94FF0FF3084
:108EF00011B0F0BD00F06043B3F1005F21D1002359
:108F00000A460146304600F031FC114B98421AD017
:108F10000B3B9842EAD1346111E0A71B402F28BFD8
:108F20004027A9193A46684605F020F939466846AF
:108F3000FFF7D4FF0028DBD14036B442EDD8002043
:108F4000D6E70026F9E76FF00100D1E78010002096
:108F50000B00AD0BC3B2012B10B540F096804DF65F
:108F6000C023994270D028D8B1F5615F6FD011D875
:108F7000B1F5965F6DD008D8B1F5966F6BD0B1F5AD
:108F8000166F6BD06FF007005DE0B1F5165FF9D199
:108F9000454B33E047F61223994262D007D8B1F52A
:108FA000964F61D0B1F5E14FECD1404B26E0B1F5E1
:108FB000164FE7D14FF41D0320E03D4B994255D0A9
:108FC00011D8B1F5E13F54D007D8B1F5614F53D076
:108FD000B1F5963FD6D1374B10E0B1F5613FD1D115
:108FE0004FF06C730AE0B1F5612F48D0324B9942D3
:108FF00048D0B1F5E12FC5D14FF0E86310F4E06F30
:1090000046D110F4404103D0B1F5804F43D1102137
:1090100010F4405203D0B2F5805F3FD10E2210F41D
:10902000403003D0B0F5403F3BD10120234C2076A7
:109030006276E361A1760A4324681043C4F82435BC
:10904000C4F86C05002010BD4FF46503D6E71C4B37
:10905000D4E71C4BD2E74FF49E23CFE74FF41D23F8
:10906000CCE74FF40003C9E7174BC7E74FF0806325
:10907000C4E74FF0EB73C1E74FF46B03BEE74FF06B
:109080007063BBE74FF08053B8E76FF00300DAE797
:109090006FF00800D7E76FF00A00D4E76FF009001F
:1090A000D1E76FF00B00CEE70050270000C075003D
:1090B00090D0030000903A0140420F008010002041
:1090C00000F03A0000B0130000A04E0010B5114CA3
:1090D000204600F009FE0021206884F8201000F0EE
:1090E00091FF226842F30732002A11DB0121530964
:1090F0009B0003F1604303F56143D3F8800202F063
:109100001F0201FA02F20243C3F88022D3F8803230
:10911000002010BD8010002010B5264C00212068D2
:109120008EB000F061FF226842F30732002A12DBA2
:10913000012053099B0003F1604303F56143D3F819
:10914000801202F01F0200FA02F221EA0202C3F8C2
:109150008022D3F880322422002105A805F02BF8C4
:10916000D4E902124FF0FF33CDE90133CDE90333E7
:109170004FF0EB730B93072301A88DF8363001F005
:109180006EF9014600220B4800F03AFA0A4B984269
:109190000DD10C9B002023831B0CA3760B9BC4E9F1
:1091A0000400E361012384F820300EB010BD6FF09D
:1091B0000100FAE7801000200000AD0B7FB500250C
:1091C0000C46C0F808511646D0F80821D0F8002205
:1091D00022F02002C0F80022104AC0F8082301F053
:1091E0008EF9A560256104F14C03D3E8EF1F21F44B
:1091F0007F0121F47041C3E8E21F002AF5D110225B
:109200002946684604F0D7FF042368468DF80030ED
:109210000196D4E90013984704B070BD10020A000B
:1092200000F01F03400909D1074A02EB8303D3F87A
:109230000012064A0A40C3F8002270470022803319
:1092400052F82330FFDE00BF00258450F0F8FCFF09
:109250002DE9F04F804690F804A05020664F0E464E
:1092600000FB0A70416885B049B113F0020304D0D5
:10927000836B002B00F0B2800123009300E000918B
:109280004FF0500909FB0A73DB6CD90600F1A68088
:109290004FF0010BB3180293029BB34200F0A7807A
:1092A00006F06043039398F80450D8F8004009FB97
:1092B00005739A6B9AB9039BB3F1005F40F09980F4
:1092C000019200F0E5FD09FB0572D16C204601F02A
:1092D000010101F0E2F828B900F0E2FDE3E7012323
:1092E0000193EEE7516C33460029BCBFD4F84C150E
:1092F0005164019A42B109FB05713078D1E90E231E
:10930000D054D1E90E3213441BB1C4F84435C4F82B
:1093100048B50022C4F82021D4F82011C4F85821FF
:10932000D4F85811C4F85021D4F850210822C4F8B8
:109330000025009AE2B14FF48003C4F80433C4F866
:1093400008B000F0ADFD502303FB0A7251680029FC
:109350004BD1D26C120748D503FB0A734C33D3E8C8
:10936000EF1F21F00801C3E8E21F002A36D0F6E71C
:10937000C4F808B0019300F093FD09FB0572D16CAD
:10938000019B01F001012046019301F086F884461B
:10939000019BD4F84C05D4F84425BCF1000F0DD145
:1093A0009342F0D005EB850507EB0515D1B100F030
:1093B0006FFD2946204601F0ECF8C2E705EB850574
:1093C000934207EB0515F1D10028EFD100F060FDC5
:1093D0002946204601F0DDF800F062FD074805B09F
:1093E000BDE8F08FC4F80CB0E1E7013654E704485B
:1093F000F5E70448F3E700BF3C1900200800AD0B77
:109400000000AD0B0400AD0B430904D10123034A56
:1094100083409360704700239B60FFDE00258450EB
:1094200000F01F0340090BD1084A02EB8302D2F877
:109430000012074B0B4043F00303C2F800327047A1
:109440000022803352F82330FFDE00BF0025845015
:10945000F0F8FCFF2DE9F84391F8303005460C4652
:1094600090F804800F6853BB5023DFF85091781CAC
:1094700003FB0893DE6C46F00072DA6404D03846D1
:10948000FFF7C2FFFFF7CCFF6068411C01D0FFF778
:10949000C7FE94F82C30012B11D1502303FB089305
:1094A000E06846F02066421CDE6401D0FFF7B8FE9B
:1094B000A068431C03D0FFF7A7FFFFF7B1FF94F8A4
:1094C0002F0038B950223D4B02FB0833DA6C42F0D2
:1094D0008072DA6494F82CC094F82D1094F82EE081
:1094E000A26A2B6841EA0C01E668D4E90198C3F846
:1094F00024254EEA0102C3F86C2550B9BCF1010FD6
:10950000C3F80C75C3F8149504BFC3F80885C3F8F5
:109510001065D3F8682503F26458012A08BFDA60A1
:10952000D3F86425012A13D1082149F64046244F77
:10953000C3F8001547F001075A60D8F800309BBB0C
:109540002B68D3F88024C3F880240022C3F80025B8
:1095500000212B6894F83220C3F81011D3F81001C1
:10956000C3F82011D3F82001C3F82411D3F8240143
:10957000C3F84411D3F84401C3F85811D3F8581173
:1095800043F307335201002BD2B212DB0D49C81846
:1095900080F800230122580903F01F0302FA03F3A5
:1095A00041F82030BDE8F8834020B847013EC4D1DF
:1095B000C6E7054903F00F03CA54F3E73C1900203E
:1095C000F0B9030000E100E014ED00E000F01F033B
:1095D00040090BD1084A02EB8302D2F80012074B74
:1095E0000B4043F00203C2F8003270470022803380
:1095F00052F82330FFDE00BF00258450F0F8FCFF56
:109600002DE9F3479046502290F80490514C02FB0C
:1096100009FA04EB0A070D4697F848100646002998
:1096200040F0858009EB890004EB001004F0C3FDD5
:109630002B69AA6944F80A306B69BB6302B1013A2D
:10964000502303FB0943DA632A6A042A81BFEA69CB
:109650009A610022DA6195F83130B8F1000F37D005
:1096600083F001073F0233B1502303FB0943DA6C57
:1096700042F00102DA64502303FB09440123C4F8D9
:10968000048084F848303468D4F84C2112BB294651
:109690003046FFF7DFFE0822002334688DF80730DC
:1096A000C4F800250DF10702C4F84425C4F8483574
:1096B00001230A25A360E360D4F85831002B38D188
:1096C000254B402043F001039847013DF4D128E0A9
:1096D0004746C8E708224FF06409C4F800256360D4
:1096E0001D4B43F0010AD4F84431F3B9D4F82431C6
:1096F000DBB94FF42070D047B9F10109F3D14B46E3
:109700000022C4F84C21D4F84C11C4F81021D4F82C
:109710001011C4F84421D4F84411C4F80025002BDA
:10972000B5D10E4802B0BDE8F0870123E8E70C4848
:10973000F8E70023C4F820319845D4F82021C4F874
:109740000035084B08BF00231F4333680648C3F8A1
:109750000473E7E73C190020F0B903000100AD0BEA
:109760000C00AD0B10020A000000AD0B2DE9F04714
:1097700084460F469E4616460579002A51D04FF082
:10978000500ADFF8BC80D0F800900AFB058ADAF8AE
:10979000044074B96BB9DAF82C50002D43D1CAF8E3
:1097A0002C20FFF755FD0446CAF82C502046BDE892
:1097B000F0871EF0030F07D0734632463946BDE8E6
:1097C000F0476046FFF744BD07F06043B3F1005F28
:1097D0004FF0500414D104FB058400F059FBE26AF9
:1097E0001AB1134C00F05CFBE0E7C4E90A7605EB24
:1097F0008505484608EB051100F0D6FE0D4CF1E753
:1098000004FB0584A36B83B100F042FBE36A002BE9
:10981000E7D1E36C012243F00203C4E90A76E36472
:10982000E5E7054CC2E7024CC0E7044CBEE700BFC9
:109830000B00AD0B0000AD0B0600AD0B0A00AD0B2D
:109840003C1900202DE9F84350230679284D04687F
:1098500003FB0653D4F80473DA6AC4F8087322B918
:109860002448C4F80473BDE8F88306EB860005F1CC
:109870004C024FEA001802EB0012D2E8EFCF4CF096
:10988000080CC2E8E0CF0028F7D10122E26031B332
:10989000D96C01EA02094946204600F0FEFD002885
:1098A000FAD000F0F5FAB9F1000F1CD1D4F820314C
:1098B00053B10123E360D4F85831002BFBD020468C
:1098C00005EB080100F065FE00F0EAFA0023C4F899
:1098D0002031D4F82021502202FB0655EB620648C5
:1098E000C4F80473BFE7D4F85831002BE7D1EBE795
:1098F0003C1900200500AD0B0000AD0B2DE9F8432D
:1099000090F804804A4E08EB88073F0107F14C05A8
:1099100004683544D5E8EF3F43F48052C5E8E02FB2
:109920000028F7D1DA047FD44B0705D5502303FB79
:1099300008639B69002B79D03E4B3744C4F8083349
:109940000823C4F800350023C4F81031D4F81021DE
:10995000C4F84C31D4F84C21C4F844310A03D4F88B
:1099600044318B0303F4804302F400524903134350
:1099700001F400410B43D5E8EF2F1A43C5E8E12F6E
:109980000029F8D14FF0500909FB0869D9F80830CF
:10999000EBB9D9F8043093B9502303FB0863DB6CAF
:1099A000D8043FD5D5E8EF3F23F47F0323F4704379
:1099B000C5E8E23F002AF5D11F48BDE8F88303213E
:1099C000384600F077FDD9F80830002BE4D0D4F801
:1099D0000433590713D5502303FB08635A6872B147
:1099E000DB6C1A030BD5D5E8EF3F23F40023C5E861
:1099F000E23F002AF7D10621384600F05BFD5023F4
:109A000003FB0863DB6CDB040CD5D4F84C310BB9D9
:109A100001232360502303FB0866736813B1054BD1
:109A2000C4F804330548C8E70548C6E70548C4E755
:109A30003C19002010020A000200AD0B0000AD0B23
:109A40000B00AD0B0800AD0B2DE9F84F502390F83B
:109A500004905B4E046803FB09631746DA6CD4F884
:109A600004A350038846C4F808A300F1A38001F0C2
:109A70006041B1F1005F40F09F80996859B15B6827
:109A8000002B40F08380D4F8101100297ED0C4F858
:109A90001031D4F81031502505FB0965EA6909EB4E
:109AA000890BC5E902874FEA0B1B002A49D0974270
:109AB00035D84FF000093A46A9694046C5E90299F0
:109AC00004F054FBEA69A869D21BC119EA6104F0E9
:109AD00017FB6B6823B93B48C4F804A3BDE8F88FB3
:109AE000EB6C5E44990414D5374B5B44D3E8EF1F0D
:109AF00041F48021C3E8E21F002AF7D13A464146EB
:109B0000304600F0E8FC4A4631462046FFF756FB57
:109B1000E1E73A464146304600F0DDFCDBE74046EF
:109B2000A96904F023FBEB696B620023EB61264B10
:109B30005B44D3E8EF1F41F40021C3E8E21F002A91
:109B4000F7D1502303FB0963586ADA689968DB6C24
:109B5000121A0144C4F83415C4F83825DA04BAD509
:109B6000194B5B44D3E8EF1F21F48021C3E8E21FC7
:109B7000002AF7D101232360D4F84431002BAAD066
:109B80000023C4F84431D4F84431A4E7502303FB44
:109B90000966336993B95304C4F83485C6E9048768
:109BA000C4F8387597D5D4F8003243F02003C4F8D0
:109BB000003290E705488FE705488DE705488BE7B9
:109BC0003C1900200000AD0B881900200500AD0BEA
:109BD0000A00AD0B0B00AD0B50232DE9F0413E4DBB
:109BE00090F80480046803FB0853D86CD4F8007222
:109BF00000F48220B0F5805F05D009B10022DA615F
:109C00003648BDE8F081D4F80463C4F8086309B9A4
:109C1000BB0655D4D4F8003223F02003C4F8003238
:109C20004FF4A11308EB8801090101F14C072F44FF
:109C3000D7E8EF0F1843C7E8EC0FBCF1000FF7D1DE
:109C40002AB9502303FB08535B68002B40D1244BF7
:109C5000C4F8083301236360D4F84431002BFBD0EF
:109C60000023C4F84C31D4F84C21C4F81031D4F896
:109C70001021C4F84431D4F84431502303FB085375
:109C8000DA6C12F400421ED1DA61204600F037FC93
:109C9000502303FB08550023AB602B61D7E8EF3F4F
:109CA00023F47F0323F47043C7E8E23F002AF5D191
:109CB00026F4202626F404760A48C4F80463A0E7B4
:109CC0004FF48033AEE72046294400F02AFCDCE75D
:109CD00001236360F0E700BF3C1900200500AD0BD5
:109CE00010020A000000AD0B2DE9F8432F4A03686B
:109CF0000679C3F8082343F30733002B04460DDB32
:109D000001215A0903F01F03994002F12003284A58
:109D100042F82310BFF34F8FBFF36F8F012220460D
:109D20001146FFF759FF01212046FFF78BFD502117
:109D30002279204D236801FB0252D46CD3F80C0524
:109D4000E201D3F81495D3F80875D3F8108509D536
:109D50004FF0FF32C3F80C25C3F81425C3F80825CB
:109D6000C3F81025A30116D5411C01D0FFF72EFC26
:109D7000B9F1FF3F02D04846FFF728FC22010AD57F
:109D8000B8F1FF3F02D04046FFF720FC7B1C02D019
:109D90003846FFF71BFC5023002203FB0653DA640E
:109DA00083F848205A60BDE8F88300BF10034A00DA
:109DB00000E100E03C19002010B5502402790E4B60
:109DC00004FB02335B689BB90368D3F80025082ABB
:109DD00005D011B1D3F83C350B60084810BDD3F85D
:109DE00010213AB111B1D3F83C350B600448F5E7C6
:109DF0000448F3E70448F1E73C1900200C00AD0BE0
:109E00000000AD0B0800AD0B0B00AD0B2DE9F341CD
:109E100005461646FFF718FE184B0446984226D111
:109E20000321284695F80480FFF768FD144FB842D7
:109E300001D0A0421FD15022124B02FB08335B68B5
:109E4000ABB90193284601A9FFF7B6FFB842F9D094
:109E50000D4B98420AD0019BB34207D301222846FA
:109E6000114602B0BDE8F041FFF7B6BE074C2046F0
:109E700002B0BDE8F0810446F9E700BF0000AD0B79
:109E80000B00AD0B3C1900200C00AD0B0800AD0B16
:109E900072B6024A13680133136070478C190020B0
:109EA000034A1368013B136003B962B6704700BFF1
:109EB0008C1900200722024BC3F80423704700BF0F
:109EC00000300050084BD3F80801D3F800210038C7
:109ED00018BF012080000AB140F00100D3F804311E
:109EE0000BB140F002007047003000500022074BD9
:109EF000C3F80021D3F80011C3F80421D3F80411EA
:109F0000C3F80821D3F80831704700BF0030005073
:109F1000002317200C49062B03F1010201D8134638
:109F2000F9E703F5C073202A41F823001346F2D164
:109F300000231720044A03F5E0710133202B42F877
:109F40002100F8D1704700BF0030005010B59DF8D7
:109F50000840C00B43EA0423064CC90B43EA021332
:109F6000884200D910BDC2B202F5C07244F8223056
:109F70000130F5E70030005010B59DF8084000F1C1
:109F8000604043EA042301F16041074C400B490B58
:109F900043EA0213884200D910BDC2B202F5E07252
:109FA00044F822300130F5E700300050C0F30E03D2
:109FB000C3F50043B3FA83F3C3F11B03064AC0F3AE
:109FC000C730DBB240F4807043F48073C2F8000500
:109FD000C2F80435704700BF003000504303014809
:109FE00018447047FF1FF81F054BC0F307300902E4
:109FF00041F0300100F5007043F82010704700BFB9
:10A0000000300050044BC0F30730090200F5007027
:10A0100043F82010704700BF00300050003A18BFCE
:10A020000122003918BF012103688900074841EA6D
:10A030004201186359605A6842F001025A60BFF346
:10A040004F8FBFF36F8F0020704700BF04AAFF003F
:10A0500008B5FFF737FF044B162118600348BDE829
:10A06000084000F0DEB900BFD81F0020F6B9030099
:10A070000C22014904F07AB8D81F002010B501F075
:10A0800007FC044690B902F0CDF8044680B90A4AAC
:10A090002E21D368094823F008031B041B0C43F04E
:10A0A000BF6343F40033D36000F0BBF9204610BD1A
:10A0B00045F22354FAE700BF00ED00E00CBA0300BC
:10A0C000024B1860024B002019607047E81F002007
:10A0D000E41F00201FB5374C426923685A62826929
:10A0E0009A62C269DA62026A1A63426A5A63826ACF
:10A0F0009A63C26ADA63026B1A64426B5A60826BBB
:10A100009A60C26BDA60026C1A61426C5A61826CAE
:10A110009A61C26CDA61026D1A62826D5A65C26D13
:10A120009A65026FDA65026E1A66826E5A66426F2F
:10A130009A66EFF388825A64EFF389829A644268E0
:10A14000DA64EFF394821A65026801A81A67FFF7D0
:10A150008FFF2368019ADA6601221A70164B1C6879
:10A16000640864002046214622462346B7EE000AD2
:10A17000F7EE000AB7EE001AF7EE001AB7EE002A63
:10A18000F7EE002AB7EE003AF7EE003AB7EE004AD3
:10A19000F7EE004AB7EE005AF7EE005AB7EE006A43
:10A1A000F7EE006AB7EE007AF7EE007A04F0D3F823
:10A1B00004B010BDE81F0020E41F002000B5A1B0CE
:10A1C00001A8FEF773FD029B63B15B060AD4019BF5
:10A1D00023F00203052B05D1044B1B6813B101A822
:10A1E000FFF778FF21B05DF804FB00BFE41F0020FB
:10A1F000BFF34F8F0549064BCA6802F4E062134370
:10A20000CB60BFF34F8F00BFFDE700BF00ED00E064
:10A210000400FA0503462DE9F04F084687B01146C1
:10A22000042B78D8DFE803F00308770D510007B05E
:10A23000BDE8F04F00F076B807B0BDE8F04F00F091
:10A2400069BA4368082B03D0022007B0BDE8F08F3D
:10A250004B68042BF8D14FF0FF33D0F80080D1F8D1
:10A2600000A0D8F80410CAF800300029ECD026234A
:10A270003C22012001F05EFA04460028E4D1D8F81F
:10A280000030DFF898B0DFF8989003AF5BF8045B1C
:10A2900099E807001D4487E807000C223946284644
:10A2A000019304F048F8019B064600B91DB901343A
:10A2B000052CEBD1C8E73C222946D8F8040003F06E
:10A2C00055FFCAF800600020BFE74368082BBBD1E8
:10A2D0004E68042EB8D14FF0FF3304680D68216832
:10A2E0002B600029B0D06368002BADD026237422E8
:10A2F000012001F01FFA0028A6D1232332460120B5
:10A30000616801F017FA00289ED1D4E90001FFF737
:10A31000D7FE2860D7E7032097E700BF3CBA0300C9
:10A3200050BA0300F8B543680C2B01D00220F8BDE9
:10A330004B68042BFAD14FF0FF3304680D68216895
:10A340002B600029F2D0A268002AEFD0062301205A
:10A3500001F0F0F90028E9D161681F4ED6E9003715
:10A36000994230D3A2681F4401EB020CBC452AD8A5
:10A3700003F17F4303F50043B3F5805F20681FD2EC
:10A380000A43930725D1154B9C4522D8091AA26888
:10A390000B1812B900202860C9E7EFF31082012AD8
:10A3A00008D11B68BFF34F8F40F8043BA368043B00
:10A3B000A360ECE772B61B68BFF34F8F62B6F3E79A
:10A3C00003F0D4FEE6E70130052806F10806C5D102
:10A3D000ACE70320ABE700BF5CBA03000090FF00CE
:10A3E0004FF47F03D3F83001D3F83431BFF34F8FEC
:10A3F000C0F30B00A0F109035842584170474FF4D5
:10A400007F02D2F83031D2F83401BFF34F8FC3F35B
:10A410000B03092B03D1431E5842584170470020BB
:10A420007047FEF7D7BC012070476FF003007047FC
:10A43000002382B00193019802B070476FF00300CF
:10A440007047002382B00193019802B07047022840
:10A4500014BF6FF0030000207047FEF73FBD30B51A
:10A4600001EB8202914200D130BD51F8044B04F05F
:10A470007F037F2B4FEA144408BF4FF0FF33032CB8
:10A48000F0D8DFE804F0020406080360EAE743605E
:10A49000E8E78360E6E7C360E4E70346D0F85801E5
:10A4A00030B931B9D3F82001003818BF0120704706
:10A4B0000120704730B504460D4685B010220021BA
:10A4C000684603F078FED4E9001368468DF8005022
:10A4D000984705B030BD7FB504460E4615460021AD
:10A4E0001022684603F067FE012368468DF80030AD
:10A4F000CDE90165D4E90013984704B070BD10B5EB
:10A500000446FFF7C5FCD4F8583133B1D4F804330E
:10A5100013F4800308BFC4F80035BDE81040FFF70E
:10A52000BFBC70B5D0F83C650446052E0D4604D876
:10A530000522AB21A86903F03EFE0522AB69C4F8F1
:10A540003435C4F838250022C4F81021D4F810118D
:10A550000121E162D4F810110029FBD0C4F84C218C
:10A56000D4F84C11C4F81021D4F81021D4F83C25AB
:10A570009642EA6103D1052E02D90023EB6170BD3A
:10A580005A1E043312F8011FAB29F8D19A42F9D1AF
:10A59000F3E7D0F8583133B1CB6CC3F30032DB04AE
:10A5A00058BFC0F80025704770B5CE6C0D4606F058
:10A5B00001010446FFF771FF38B94FF4800346F0FC
:10A5C0000406EE64C4F8043370BDD5E90A365AB106
:10A5D000296CEA6B761A964228BF16461944324611
:10A5E000A86B03F0C3FDAB6B4FF0FF326A641BB185
:10A5F000C4F84435C4F848650023C4F82031D4F8C1
:10A600002021C4F85831D4F85821C4F85031D4F876
:10A6100050310823C4F800354FF48003C4F80433E4
:10A620000123A360D0E7C0037047C00300F5FF40DB
:10A630007F307047002070471F2070474FF4004064
:10A64000704700F57F40C03040037047402070479E
:10A650005F2070474FF4005070474B6830B513F0DF
:10A660001F052DD102680C681068C0F307208442D2
:10A6700026D25068556094600C7C23F01F0304F0D0
:10A6800001041C438B7CDB0003F018031C434B7C50
:10A690005B0003F006032343D3608B68013B23F088
:10A6A0001F04CB685B0003F00E03234343F0010358
:10A6B00013615060BFF34F8FBFF36F8F284630BDDB
:10A6C0000120FCE7036800205A68C9B2586099600D
:10A6D000D86018615A60704770B505460024036859
:10A6E0001E68C6F30726B44201D1002070BD214682
:10A6F0002846FFF7E7FF0134F5E70020704708B56B
:10A70000FFF75CFD72B620BFFDE700207047002018
:10A710007047704743680C2B01D0022070474B688C
:10A72000042BFAD10B68012102681960116801310C
:10A73000F3D10221906819600028EED118607047AB
:10A7400030B50C46154685B038B139B1FFF769FE12
:10A75000041E03DA204605B030BD044640F60D2342
:10A76000ADF80E3009230B4901A805F00F028A5CF1
:10A770002D091A54013B012BF7D147F630030C2168
:10A78000ADF80430FFF74DFE0028B4BF044624188E
:10A79000E0E700BF84BA030008B5194B83F30A88C9
:10A7A000184801F060F840BBFFF768FC28BB262181
:10A7B0001548FFF736FEFFF7A0FFF0B9FFF7A5FF3A
:10A7C000B8B9FFF7A6FF00F017FC35210F48FFF7D7
:10A7D00028FE17210E48FFF724FE18210D48FFF729
:10A7E00020FE00F0FBFD00F0F3FB00F0BBF80020C2
:10A7F00008BDFFF78CFF0028E3D000F053FEF2E71E
:10A80000000400209019002094BA0300BABA030093
:10A81000EFBA030006BB030030B5094C024661687D
:10A820000023084640B105686D68954205D11BB10B
:10A83000826860609A60816030BD03468068F1E79D
:10A84000141A002038B504462AB10B689B68DB0552
:10A8500012D5002038BD0B4B1D680DB900F022FE4B
:10A8600000222B68996934338A4203D053F8040FCD
:10A87000A04204D19142ECD16FF0FC00EAE7013232
:10A88000F2E700BF1C1A002070B504460E461546BC
:10A89000002130220C3003F08EFC064B20461B6852
:10A8A000A6606360656100F0E4FE00232061236020
:10A8B00070BD00BF1C1A0020034B186810B100685F
:10A8C00000B14068704700BF1C1A0020064B10B54D
:10A8D0001C680CB900F0E6FD23689B6813F4406F18
:10A8E00014BF0120002010BD1C1A00202DE9F843E0
:10A8F000904607460C46FFF7E9FF024624B96FF081
:10A9000080042046BDE8F8836300F8D5144B04F0BA
:10A910001F0153F82150002DF1D02B6829465868AB
:10A92000FFF790FFB0B9C4F30721284600F0BCFD43
:10A9300004460028E3D1EFF3108972B600F0A6FEBA
:10A94000064689F3108840B142462946FFF79CFF2E
:10A950003E60D6E76FF08104D3E76FF08204D0E762
:10A96000941900202DE9F04100F08FFE0023144ED1
:10A97000144F73607B6000F0EBFADFF84C803046D8
:10A9800000F024F80446A0B139468023424600F086
:10A99000A3F80546204600F0CCFD2068211D00F0FC
:10A9A00081FB08B100F07EFD2946204600F07CFACC
:10A9B000E5E7FEF749FABDE8F04100F08BBA00BFC9
:10A9C000201A0020141A002094190020F8B505461A
:10A9D00008B900F067FD3B4E346814F1310F6ED8B2
:10A9E000394B196804F130038B4268D2E369A269DC
:10A9F00003EB83030E321344226A02EB4202134438
:10AA0000626AC2EBC20213449B00E31801D299426E
:10AA100001D200F047FD23682C4A1B0C1B04934213
:10AA200001D000F03FFD2388B3F5817F01D300F012
:10AA300039FD6368002B01DA00F034FDD4E90A2304
:10AA40009A4201DD00F02EFDA36813F4406F22D17D
:10AA50001F4A176807F1200313601E4A12689342C9
:10AA600001D900F01FFDE369A26903EB83030E32F5
:10AA70001344226A3C6002EB42021344626AC2EB56
:10AA8000C2021344326802EB83026B683260FB61DE
:10AA90006F603846F8BD6F68002FD9D03B689A6860
:10AAA00012F4406F09D0E16A9A6A914205DBA26A0A
:10AAB000DB6A9A4201DC00F0F5FCFF69ECE7002755
:10AAC000E7E700BFAC10002028BB030000005F5F79
:10AAD000A810002024BB03002DE9F74F0F46904635
:10AAE0000646009300B109B900F0DCFCD6F800A0DE
:10AAF000DAF818200AF1380303EB820BDAF81C406D
:10AB0000204B1D6854B10C2202FB04541C601E4BE8
:10AB10001B689C4201D900F0C5FC2C4625464FF02D
:10AB20000009DAF81C204A4500D91CB9002003B0FE
:10AB3000BDE8F08F142303FB09B20023C5E900260A
:10AB40009268AB60930516D5B8F1000F02D0009B58
:10AB5000802B03D0019200F0A5FC019A12F0E00FC7
:10AB6000D0B202D158F820201AB1019000F09AFC1E
:10AB7000019848F820507A6809F10109AA607D60BF
:10AB80000C35CEE7A410002020BB03002DE9F04FC8
:10AB900093B000935E4B0746D3F800B00BB2002B86
:10ABA0000D461646C1F30269C1F3024A04DA6FF09A
:10ABB000800013B0BDE8F08F8B42C36001D100204C
:10ABC000F7E709EB0A03042BF1D8CC0F64014FEA35
:10ABD000C90831464246DBF8040044F0020300F0A5
:10ABE000A9FD01460028E2D1202202A803F0E3FAE1
:10ABF0004246314602A84FEACA0603F0B7FA324687
:10AC00000099DBF8040044F0060300F093FD804651
:10AC10000028CCD1014620220AA803F0CCFA324603
:10AC200000990AA802AE03F0A1FA334608F1010820
:10AC3000C14514D91A46C4460DE0D2F808E0D168DF
:10AC400018687144884203D2596808448645AED3D7
:10AC50000CF1010C0832CC45EFD10833E6E715F0D2
:10AC6000006F18BF20241022002107F11C0003F000
:10AC7000A2FA07F118081022002107F12C0003F0B6
:10AC80009AFA08EB890944F00203C84512D1202C36
:10AC900027D1002D02DBC5F3C0456C0107F1280563
:10ACA0000AAE05EB8A0A44F0060455451BD1009B09
:10ACB000FB6784E77268DBF8040056F8081B019311
:10ACC00000F038FD00287FF472AF56F8042C019B89
:10ACD00048F8042F56F8082CC8F83000C8F820208F
:10ACE000D3E70024DAE77268234656F8081BDBF83E
:10ACF000040000F01FFD00287FF459AF56F8043C13
:10AD000045F8043F56F8083C28642B63CDE700BFA4
:10AD10001C1A00202DE9F0411F461A4B0D4616461D
:10AD2000D3F8008000F0D2FB044608B900F0BAFB6B
:10AD3000E368002B01DA00F0B5FB032D01D900F028
:10AD4000B1FB04EB8504E569E36CED1A16D006232C
:10AD50003A463146D8F8040000F0ECFC08B100F0A7
:10AD6000A1FBBD4228BF3D46E36CE16B2A46194476
:10AD7000304603F0FBF9E36C2B44E3642846BDE85E
:10AD8000F08100BF1C1A00202DE9F0411D461A4B2E
:10AD90000F461646D3F8008000F098FB044608B929
:10ADA00000F080FBE368002B01DA00F07BFB032F4F
:10ADB00001D900F077FB04EB8704E36AE26E9B1A8B
:10ADC000AB4201D200F06EFB02232A463146D8F88E
:10ADD000040000F0AFFC08B100F064FBE36EE06D2E
:10ADE0002A463146184403F0C1F9E36E00202B4493
:10ADF000E366BDE8F08100BF1C1A00202DE9F04198
:10AE000005464FF001080E4E0E4B37685C681CB9C2
:10AE100028463760BDE8F0812268936813F400701B
:10AE20000CD16369012B09D0D368346023B19847F2
:10AE3000002801DA00F036FBC4F81480E469E6E784
:10AE40001C1A0020201A002038B5044610B96FF0F3
:10AE5000800038BD8368002BF9D01A68002AF6D02C
:10AE60005D68002DF3D00B4BA86168691D6020B9A7
:10AE70002B68DB6853B901236B61A36804F10C00F4
:10AE80001B681B69984701232360E2E79847002865
:10AE9000F1DADCE71C1A00204268024B08461A600F
:10AEA000704700BF1C1A00200022036810B5C0E9DB
:10AEB00005229A68044612F4406F07D0120503D5A4
:10AEC000D3E90A0100F034F8014B1C6010BD00BF4B
:10AED0001C1A002038B5124B1B681C68A36813F4B9
:10AEE000406F01D100F0DEFA00F09CF9226B23697B
:10AEF0000C49134423F00703A3F1080543E90211A9
:10AF000085F30988073222F0070282F30B88BFF32A
:10AF10006F8F054BE268054900F0EBFC002038BD5F
:10AF20001C1A0020A5EDF5FEF80B0020FDAD030076
:10AF3000014BC3E900017047281A0020034BD3E9F5
:10AF400000308342C8BF0020704700BF281A00208D
:10AF500008B500F05BF9034B986000F05DF980F3F1
:10AF6000888808BD00ED02E0EFF308807146EFF33A
:10AF70000982EFF30B830CB406B400F04FFA864657
:10AF8000009900F0080001F00801401A02DC12DB11
:10AF900004B070471EF020031CBF2DE9F00FBDF177
:10AFA000080D0A4C254626462746A046A146A2463D
:10AFB000A34630B4704704B030BC1EF020031CBF61
:10AFC0001DF1080DBDE8F00F04B07047A5EDF5FECA
:10AFD000084BDA6882F07F4282F47F0242F48042BA
:10AFE000DA6000221A765A76DA76DA77602283F807
:10AFF0002220704700ED00E0114BD3F8882042F486
:10B000007002C3F88820BFF34F8FBFF36F8FD3F860
:10B010008C2042F44062C3F88C20D3F8342242F0F2
:10B020008042C3F83422D3F8342242F03C42C3F8C1
:10B0300034224FF0E022D36843F42003D3607047FA
:10B0400000ED00E0009A164B9A4227D1012290436E
:10B05000014641EC100B41EC110B41EC120B41ECA1
:10B06000130B41EC140B41EC150B41EC160B41ECAE
:10B07000170BEFF3148222F0040282F31488BFF35B
:10B080006F8F02460346044605460646074680463D
:10B09000814682468346844686460447FEE7000092
:10B0A000A5EDF5FE2DE9F041044618B943F6DA3076
:10B0B000BDE8F0810029F9D08368002513F4406FC2
:10B0C00014BF01230023134F43F00203DFF848802D
:10B0D0000B6000F13806236AAB4201D80020E7E795
:10B0E0001421A369E26906EB830301FB02330C22FE
:10B0F0006A4399188968090709D59B58BB4201D052
:10B100004345D3D1186810B10121FEF76DFF013519
:10B11000E1E700BFBC100020B410002070B5324C35
:10B1200086B03248FFF7D8FA236801255A1C0193EC
:10B130002F4B2260DA681B694FF44076039300239B
:10B140002A4801A902920495ADF814608DF81630D2
:10B15000FFF783FA18B143F6DA3006B070BD236802
:10B160008DF816005A1C0193224B20480293224B63
:10B1700001A9CDE903352260ADF81460FFF76DFA3F
:10B180000028E8D123688DF816005A1C01931B4B48
:10B19000164802931A4B01A9CDE903352260ADF898
:10B1A0001460FFF75AFA0028D5D123688DF81600ED
:10B1B0005A1C0193134B0D480293134B01A903939F
:10B1C0000223049340F201132260ADF81430FFF71C
:10B1D00044FA04460028BED12A4629460348FEF711
:10B1E0001DFF2046B9E700BF301A0020B010002034
:10B1F000A0BB030000BC030080E5030040880300FF
:10B2000040880300000C0020200C0020014B18682F
:10B21000704700BFA0BB0300014B1B681868704754
:10B22000A0BB0300014B1B6858687047A0BB03001C
:10B2300008B5FEF70DFFFEF759FE0A4B5A68103AA3
:10B24000D3B2120609D401215A0903F01F03994011
:10B2500002F16003044A42F82310BDE8084000F000
:10B2600021B900BF00ED00E000E100E00020034B49
:10B27000D8765A6A42F470225A62704700ED00E0B4
:10B280000349044BCA68002092B21343CB60704755
:10B2900000ED00E00800FA0500224FF0FF300D4BF2
:10B2A00002F1A0010132102A43F82100F8D1D3F8AD
:10B2B0008022002022F00802C3F88022D3F88022E6
:10B2C000D3F8802222F40072C3F88022D3F88032AF
:10B2D000704700BF00E100E008B5FEF7EBFD082273
:10B2E000024BC3F880211A60002008BD00E100E095
:10B2F000064BD3F8D02022F00102C3F8D020D3F8B7
:10B30000D02042F00202C3F8D020704700ED00E0E8
:10B3100037B50124FEF7FCFD164D224605231649DC
:10B3200016480094FEF712FE224607234FF0005005
:10B3300013490094FEF720FED5E9010107230022FE
:10B340000094FEF703FE072300220E490E480094E6
:10B35000FEF712FE2969E8680139FEF727FE062389
:10B3600000224FF4782009490094FEF7EFFD0020F9
:10B3700003B030BDA0BB0300FFFF03000082030049
:10B38000FF7F0020FFFF032000800020FF9F0F00B1
:10B3900038B500240E4D002155F8040B0134FEF79A
:10B3A00031FE1D2CF7D10020012240F20111094B82
:10B3B000C3F88004C3F88424C3F8C004C3F8C424C9
:10B3C000054AC2F840154FF48072C3F8402438BDD6
:10B3D0002CBB030000300050009003500122014BB1
:10B3E0001A607047341A002010B50446094B2289B0
:10B3F000186861680623406800F09CF928B9064B7C
:10B400001B68012B01D1FFF757FA6FF08603236009
:10B4100010BD00BF1C1A0020341A002001F00C03DC
:10B4200070B50C2B0CBF154605464A060C461ED5BA
:10B430008B0658BF2835AB6913F8026C84F00803FB
:10B44000C3F3C003C6F38012934201D000F02AF880
:10B4500016F0A00F1CD176B1032E15D032461C2158
:10B460000D48FFF76DF96FF083032B600AE000F0E1
:10B4700019F82026E2E7FFF775FA04460146074867
:10B4800000F031FA204670BD2846FFF7ADFFF9E71E
:10B4900032461F210248E4E7BCBB0300F80B002042
:10B4A000D8BB0300FFF72BB903689A68DB6812F476
:10B4B000806F05D18B422CBF00206FF0FA007047DF
:10B4C0008B420CBF00206FF0FA00704710B500F0FF
:10B4D000D3F8044600F0E1F850B9FFF7EDF9A3689E
:10B4E0005B681B685B68834218BF0024204610BD60
:10B4F0000024FBE738B5054648B1FFF71FFDB5EB63
:10B50000D07F044601D0FFF7CDFF204638BDFFF7BE
:10B51000D3F9F4E7002310B500F1280252F8041F14
:10B5200019B1C16F146C19444C600833202BF5D14C
:10B5300010BD70478230012808B506D8FFF7C6F95C
:10B5400018B9BDE80840FFF7ADBF08BDF8B506461D
:10B550000D46FFF7BBFF044608B9FFF7A3FFA76836
:10B560000FB9FFF79FFFE368991C20D05A1C21D127
:10B57000A5B315F1820F13D102232360EFF31086D8
:10B5800072B629462046FFF787FC054686F31088E9
:10B590002368022B24D1204600F081F82846F8BD0C
:10B5A00015F1830FEAD0FFF77DFF0025E6E70223C0
:10B5B0002360FAE7002BF6DB2046FFF7ABFF3B6882
:10B5C0009B689B0501D50223236015F1810FD5D11E
:10B5D0006369002BD2DBFFF765FFCFE73546F4E761
:10B5E00000232360DAE708B5FFF789F86FF08300DE
:10B5F00008BD2DE9F3410E46174698460546FFF76C
:10B6000065F9FFF777FF2946024601A8FFF76EF9B3
:10B61000044660B943463A4631460198FFF7B6FA08
:10B62000044640B16B0002D5019800F038F820467E
:10B6300002B0BDE8F0810198FFF706FC0446F6E78A
:10B6400040F20110704770B50546FFF73FF9064616
:10B650002846FFF7E1F8044608B9002070BD01460E
:10B6600032462846FFF7EEF80028F6D12368D8685E
:10B67000F4E74FF480507047B0F5805F03D1EFF3EB
:10B680000B8080387047002070477047EFF30B80C5
:10B6900000F1800383F30B88704700207047EFF3BD
:10B6A0000B83803B83F30B88704780EA0000E1EE58
:10B6B000100A00EE100A00EE900A01EE100A01EEE8
:10B6C000900A02EE100A02EE900A03EE100A03EE50
:10B6D000900A04EE100A04EE900A05EE100A05EE38
:10B6E000900A06EE100A06EE900A07EE100A07EE20
:10B6F000900A08EE100A08EE900A09EE100A09EE08
:10B70000900A0AEE100A0AEE900A0BEE100A0BEEEF
:10B71000900A0CEE100A0CEE900A0DEE100A0DEED7
:10B72000900A0EEE100A0EEE900A0FEE100A0FEEBF
:10B73000900A70472DE9F0410F461546002A5BD06C
:10B74000002900F08D8003F00602062A57D09A07E0
:10B7500040F1868008249B0648BF44F01204860707
:10B7600058BF44F00404C00709D5EFF39483D90708
:10B770004CBF44F0040424F0040444F012042246B4
:10B780002946384602F0A0FBB0BB47E800F205EBC3
:10B790000708110E120208F1FF3646E800F34FEADF
:10B7A00013605AD51B0258D5884256D047E800F599
:10B7B00046E800F6FEF73EFF2D0E85424FEA16667C
:10B7C00028D3FEF739FF864224D82846FEF72DFFFE
:10B7D0002246C7F101010144384602F075FBE0B38F
:10B7E0000135AE420DD83046FEF71DFF2246A8EBCC
:10B7F000000102F069FB80B30020BDE8F081012464
:10B80000A9E72846FEF70FFF0746FEF717FF224677
:10B810000146E1E7FEF71AFF85421ED3FEF718FF47
:10B8200086421AD82846FEF7D9FB2246C7F1010105
:10B830000144384602F048FB78B10135AE4203D8E6
:10B840003046FEF7FEFED1E72846FEF7FAFE074631
:10B85000FEF700FF22460146EBE76FF07F00CCE7E2
:10B860004CF2DA20C9E710B50446FFF741FDFFF7B7
:10B870004FFD10B143F6DA3010BDFFF789FD002807
:10B88000F8D1FFF74BFC0028F4D102232360F3E743
:10B8900008B5FFF7EBFC10B143F6DA3008BDFFF74F
:10B8A000EFFC0028F8D100F01CF80028F4D162B6B3
:10B8B000FDF7B0FAFFF7F0FC0028EDD1FFF70CFD23
:10B8C0000028EBD0E8E7EFF30880EFF309812DE9DA
:10B8D000F00F6B467246FDF7EFF908B0FFF7A8FCD2
:10B8E000FEE70020704704460D46FFF7DEFEA54642
:10B8F000284783F3088896460222EFF31483134304
:10B9000083F31488BFF36F8F08470000014641544A
:10B91000414C204552524F523A20004861726446D1
:10B9200061756C740D0A004D656D4D616E616765E2
:10B93000206661756C740D0A004275734661756C02
:10B94000740D0A0055736167654661756C740D0A64
:10B95000005365637572654661756C740D0A00521B
:10B960006573657276656420457863657074696F88
:10B970006E2000506C6174666F726D20657874651E
:10B98000726E616C20696E746572727570742028B5
:10B990004952516E293A2000698E030027A4030002
:10B9A00019910300CD9003004FA403005BA4030092
:10B9B000A18E03002BA40300898E0300958E030043
:10B9C000558F030031A403003DA4030043A40300EA
:10B9D0001D000000100000021C0000011100000307
:10B9E000030202020000000000000000000000004E
:10B9F0000338FDD87047506C6174666F726D2045D6
:10BA00007863657074696F6E3A0D0A00416C6C2042
:10BA100070696E732068617665206265656E20636B
:10BA20006F6E66696775726564206173206E6F6EF4
:10BA30002D7365637572650D0A000000000000003B
:10BA400000020000000400000008000000100000D8
:10BA5000DEE61E284CBBCE8F025B00000080030098
:10BA6000000200000002FF002C0000003001FF0077
:10BA7000080000004001FF000C0000000881FF00EA
:10BA8000F80200003031323334353637383941422C
:10BA9000434445461B5B313B33346D426F6F7469E1
:10BAA0006E672054462D4D2076322E312E312D6E6C
:10BAB0006373311B5B306D0D0A001B5B313B33340C
:10BAC0006D5B536563205468726561645D205365E6
:10BAD0006375726520696D61676520696E69746957
:10BAE000616C697A696E67211B5B306D0D0A0054C9
:10BAF000462D4D20466C6F6174204142493A2048E2
:10BB00006172640D0A004C617A7920737461636B11
:10BB1000696E6720656E61626C65640D0A000000E5
:10BB200014120020FC110020188403000040005073
:10BB3000005000500080005000A0005000B00050A5
:10BB400000E0005000F000500000015000100150D3
:10BB50000040015000500150007001500080015021
:10BB600000B0015000C0015000D0015000E0015071
:10BB700000F001500000025000100250002002505E
:10BB8000003002500040025000600250008002501D
:10BB900000A00250009003500025845000A00350E4
:10BBA0000000040000000400FF7F0F0000FC030001
:10BBB0000000040000800F00FF9F0F00556E6B6EA9
:10BBC0006F776E2053504D20535643207265717528
:10BBD00065737465643A2000556E6B6E6F776E20E6
:10BBE000535643206E756D6265722072657175657E
:10BBF000737465643A2000FFFFFFFFFFFFFFFFFF44
:10BC00000348044B834202D0034B03B118477047EB
:10BC10009C1100209C110020000000000548064BEC
:10BC20001B1AD90F01EBA301491002D0034B03B13A
:10BC3000184770479C1100209C1100200000000054
:10BC400010B5064C237843B9FFF7DAFF044B13B164
:10BC50000448AFF300800123237010BDA01800201A
:10BC60000000000068E5030008B5044B1BB104495F
:10BC70000448AFF30080BDE80840CFE700000000B3
:10BC8000A418002068E50300A3F5803A704700BFC0
:10BC9000174B002B08BF134B9D46FFF7F5FF002104
:10BCA0008B460F461348144A121A02F084FA0E4BC0
:10BCB000002B00D098470D4B002B00D09847002058
:10BCC000002104000D000D48002802D00C48AFF3FD
:10BCD000008002F071F920002900FEF75DFD02F0FE
:10BCE00057F900BF0000080000000000000000003D
:10BCF000F80B00209C110020A42800200000000068
:10BD000000000000009A074B9A4208D110B502F0DB
:10BD100075FA02F077F906BC96460C46744702F0B5
:10BD2000B1FA0000A5EDF5FE009A074B9A4208D142
:10BD300010B502F06FFA02F065F906BC96460C46A3
:10BD4000744702F09FFA0000A5EDF5FE0CB4029ACC
:10BD5000084B9A420CD14FF0004319430CBC10B56C
:10BD600000F022F802F04EF906BC96460C467447E5
:10BD700002F088FAA5EDF5FE009A044B9A4202D132
:10BD800003490868744702F07DFA0000A5EDF5FE4E
:10BD9000CCE30300009A034B9A4200D1744702F0AF
:10BDA00071FA0000A5EDF5FE2DE9F84304460D46B5
:10BDB00016461F46EFF30583C3F308030BB1FFF7E5
:10BDC00071FBDFF834903B46204632462946D9F8CD
:10BDD0000080FFF70EFCD9F800300446984506D0E5
:10BDE0009B6901461869BDE8F843FFF7AFBBFFF751
:10BDF000A1FB2046BDE8F8831C1A002001680E4A0A
:10BE00000346914215D1C169A2F11022A2F1EF12AD
:10BE100091420ED18268012A0BD8C26812B1016921
:10BE20008A4206D0586928B19B691B1A584258416A
:10BE300070470120704700BF55AA00FF0D4B70B539
:10BE40009E68A6B13046FFF7D9FF044678B9F3687B
:10BE50006BB935690DB9204670BD2846FFF7CEFF96
:10BE600028B9EB68B34202D12E462D69F2E70124CE
:10BE7000F1E700BF381A00202DE9F041394E34684F
:10BE8000F368D4B1B468C4B1002861D000295FD090
:10BE900001FB00F5B5FBF0F0884259D1291D57D8B8
:10BEA000AA070DD025F0030204321C4603E06168A6
:10BEB00091424FD2A469002CF9D12046BDE8F0810F
:10BEC0002A46F2E7891A232904F12007D4E9050C50
:10BED0001AD80123A360A0B1C0F818C0A36903B1A8
:10BEE00058610023C4E905333369DB0702D5FFF746
:10BEF000A5FFA0BB2A46002138463C4602F05BF96C
:10BF0000DBE7C6F80CC0E9E702F1200804EB080300
:10BF10002039C3E9011E2169DFF84CE0DC601961BA
:10BF200044F808E0AEF1102EAEF1EF1EC3F81CE0AD
:10BF300001B1CB60C3E9050C40B18361996901B1DE
:10BF40004B6101212361C4E90121CAE7F360F5E7F0
:10BF50000024B2E7D4F808E0BEF1000FB2D001200F
:10BF600002F016F8381A002055AA00FFF8B5054669
:10BF700000283AD0364E3368002B36D0B268002AFB
:10BF800033D0834203D872681344984202D301200D
:10BF900001F0FEFFA0F120042046FFF72FFF00284C
:10BFA000F5D155F8183C012BF1D145F8180C55E99D
:10BFB0000570DFB1BB68CBB955F81C2C7B6820320B
:10BFC00013447B60386100B1C76020220021204605
:10BFD00002F0F1F8386908B183682BB333699B0725
:10BFE00003D5FFF72BFF0028D1D1F8BD40B38368FC
:10BFF00033BB426863681344203363600369D4E948
:10C000000521236192B9B9B9426981696261A1616F
:10C01000A2B19461A26902B1546103B1DC60202233
:10C02000002102F0C8F8D9E73C46E2E79161A16936
:10C030000029E9D04A61E7E7F160F8E7F460E9E751
:10C04000F36845F8083C03B15C61F460C6E700BFE3
:10C05000381A002038B50D46142200210446124833
:10C0600002F0A9F81149124800F02CF8232D1AD932
:10C0700014F003031FBF043DED18C3F10403E418DB
:10C080002A460021204602F096F8074B094AC3E9E8
:10C0900000459C602260A2F11022203DA2F1EF1227
:10C0A0006560E261DC6038BD381A00206DBF0300B6
:10C0B00079BE030055AA00FF014B1B68184700BF5B
:10C0C000C4100020024B1860024B0020196070471A
:10C0D000C8100020C410002010B50A46044619B14B
:10C0E000024B00211B68984710BD00BFCC100020F8
:10C0F000074B0A465978022906D11978072903D136
:10C100000146181D02F004B96FF08800704700BFA7
:10C110004C1A002010B5124C2378590744BF23F065
:10C120000403237023789A0705D500F063F8237879
:10C1300023F002032370637813B10A4802F0F9F880
:10C140000023042107486370FFF7C6FF2378DB074D
:10C1500005D502F0DAF8237823F00103237010BD2F
:10C160004C1A0020501A002038B51C4D6A782B78E4
:10C17000022A01D1072B12D0D80713D52B789907A3
:10C1800007D400F02FF82B78044643F002032B70FD
:10C1900088B96A782B788AB12B785A0719D5002488
:10C1A000204638BD02F0AFF82B78044643F0010377
:10C1B0002B700028E2D0FFF7ADFFF1E7DB07EBD5EE
:10C1C000074802F0A3F8022304466B700028F2D15E
:10C1D000E2E743F004032B70E1E700BF4C1A0020B4
:10C1E000501A00200122024B002083F8802570475E
:10C1F000541A00202DE9F041094C202526464FF025
:10C20000010803272046C4F82080277702F05EF853
:10C21000013D04F12C04F5D186F88055BDE8F0818C
:10C22000541A002010B50C4C236813B10B4B1B683B
:10C230002BB900F089FC30B90122084B1A600123A8
:10C240002360002010BD0138062801D9044810BD24
:10C25000044B53F8200010BDF01F0020EC1F0020FD
:10C26000FE8FFFFFD0E30300144B2DE9F0430028BD
:10C2700014BF04461C46124F236883B0BB4219D03A
:10C2800016460D4620464FF4147104F1040900F0DF
:10C2900047F804F58E78484600F0CEF8404600F0A6
:10C2A00019FA2B464A4640460649009600F034FBF0
:10C2B00008B92760002003B0BDE8F083F41F002018
:10C2C000A5BCC95ABDC4030070B50D4C1D4600285D
:10C2D00014BF064626460B4B306882B098420DD1FB
:10C2E00006F58E70002633460096144600F03EFB9D
:10C2F000002818BF34462C6002B070BD0248FBE72E
:10C30000F41F0020A5BCC95AE88FFFFF38B131B136
:10C31000002201440346013081421A70FAD170476D
:10C3200038B131B1002201440346013088421A700D
:10C33000FAD170472DE9F043202B1D46064688466A
:10C3400091468BB026D8DBB202AF8DF80480B046A0
:10C3500058F8041B8DF8053021B9404601F038F932
:10C36000044640B9012302224046336001A901F08E
:10C3700043F9044638B138462021FFF7D1FF204663
:10C380000BB0BDE8F0832A464946404601F034F937
:10C390000446F0E702AF1946104600233A4601F082
:10C3A000B1FA04460028E6D12023B9461D46CCE761
:10C3B0002DE9F041D0F8F830A6B0002BD8BF02AE7E
:10C3C00031DD05460027D0F80C4102AEA4F101088A
:10C3D0009022D5F8FC403146D0F8000101AB01971E
:10C3E000B8FA88F8A0474FEA5818044620B9019BCC
:10C3F00053B9B8F1000F16D030469021FFF790FFE7
:10C40000204626B0BDE8F081014632462846FFF7B7
:10C4100091FF58B9D5F80431019A1344C5F8043195
:10C42000B8F1000FE8D16FF03C04E5E70446204680
:10C4300026B0BDE8F08100BF70B500250446142287
:10C4400004F588762946C0F8F850FC3001F0B3FEB8
:10C4500008222946304601F0AEFE144B30461B68D8
:10C460009847204640F8045B01F098F8104B30469E
:10C470001B689847C8B9D4F8F830AB420FDC03EB1F
:10C48000830204EB82022021C2F800010120C2E9EC
:10C49000421008490133C2F8FC10C4F8F830064BCA
:10C4A0003046BDE870401B68184770BDEC10002096
:10C4B000E8100020A1D40300E41000202DE9F0478B
:10C4C000202A88B07AD83F4B00F5887904461B684B
:10C4D00048461746884698470546F8B940F201167F
:10C4E000D4F8F830002B65D02046FFF761FF0546F1
:10C4F00038B9D4F8F830002B14DC013EF2D16FF0DB
:10C500003B056E4620213046FFF70AFF2E4B48467A
:10C510001B689847002818BF6FF01D05284608B013
:10C52000BDE8F087D4E94132934203D3D4F80C211B
:10C53000012A02D0013ED7D1E1E71F2BFAD96E467E
:10C5400001462022304604F1040A01F034FE31464F
:10C55000504601F07BF805460028D3D1504601F043
:10C5600031F8504601F01AF82946504601F030F8EB
:10C5700005460028C6D150462022314601F03CF83D
:10C5800005460028BED1034632462021304601F040
:10C59000B9F905460028B5D1D4F8F8303A46002B51
:10C5A000C8BF002340463146C8BFC4F8043101F07B
:10C5B000DDFDA7E76FF03F056E46A3E76FF03B0593
:10C5C000ACE700BFE8100020E410002070B590B088
:10C5D00000287AD03E4C0D464022362106462046A1
:10C5E00001F0E9FD40225C21A01801F0E4FD2B1DC3
:10C5F000A34203D904F144039D4252D32B6822681D
:10C60000534023602B68226C534023646B6862683C
:10C61000534063606B68626C53406364AB68A268AC
:10C620005340A360AB68A26C5340A364EB68E2681C
:10C630005340E360EB68E26C5340E3642B6922698A
:10C6400053402361226D2B695340236562696B69F6
:10C65000534063616B69626D53406365AB69A26966
:10C660005340A361AB69A26D5340A365EB69E269D6
:10C670005340E361EB69E26D5340E36500213046CE
:10C6800000F0A6FF044628B940223046104900F0C9
:10C69000B3FF044640216846FFF742FE204610B033
:10C6A00070BD631E04F13F01013D1F3415F8010FF9
:10C6B00013F8012F42401A7011F8012F2878A34275
:10C6C00082EA00020A70F1D1D8E76FF07304E5E75F
:10C6D0004422002010B54FF49A720021044601F064
:10C6E0006AFD42F21072044BC4F8202104F59670E2
:10C6F0001B68BDE810401847EC1000202DE9F04FF2
:10C7000004468846914695B0002900F0A780002A8B
:10C710000CBF0126022600238DF80C30002C00F0FF
:10C720009F80DFF844A104AF0AF1400B00212046AE
:10C7300000F04EFF034648B1384620210193FFF731
:10C74000EFFD019B184615B0BDE8F08F4022514621
:10C75000204600F051FF03460028EDD104F1F40516
:10C7600020222946204600F047FF03460028E3D157
:10C770000122204603A900F03FFF03460028DBD139
:10C78000022E62D020460CA900F060FF034600286C
:10C79000D2D10146204600F01BFF03460028CBD132
:10C7A00040225946204600F027FF03460028C3D107
:10C7B000202220460CA900F01FFF03460028BBD111
:10C7C0003946204600F042FF03460028B4D13946DE
:10C7D0002046FFF7FBFE03460028ADD12022294664
:10C7E000204600F009FF03460028A5D120460CA9E9
:10C7F00000F02CFF034600289ED10146204600F0A1
:10C80000E7FE0346002897D140225946204600F013
:10C81000F3FE034600288FD1202220460CA900F009
:10C82000EBFE0346002887D12946204600F00EFF84
:10C830000346002880D19DF80C200132D2B2B242CA
:10C840008DF80C20FFF472AF76E74A464146204649
:10C8500000F0D2FE0346002894D06DE701265AE787
:10C860006FF0730304AF67E7442200202DE9F04125
:10C870000446884615461F46D0F81801E0B013B1AB
:10C8800000EB40004008B5F5807F3ED82844B0F565
:10C89000C07F3AD84FF4C0720021684601F08BFC8B
:10C8A0006946D4F82431D4F81821D4F828019847DF
:10C8B00070BBD4F8186157B1D4E9493072080DEB58
:10C8C0000601984720BBD4F8183106EB5306B8F19F
:10C8D000000F00D08DB9324669462046FFF70EFFA3
:10C8E000054610B90123C4F8143131466846FFF7F4
:10C8F00017FD284660B0BDE8F0810DEB060041460B
:10C900002A462E4401F032FCE5E76FF00405F0E71B
:10C910006FF00805EDE700BF2DE9F047044604F18C
:10C92000F4050F4691461E46DDF8208000F036FEE5
:10C9300029462046FFF74AFE08B1BDE8F0872846A1
:10C940002022012101F037FCD4F81831C4F82471F9
:10C95000C4F8289113B92023C4F81831424631464F
:10C960002046BDE8F0470123FFF780BFB2F5806F96
:10C9700000F295802DE9F04F89B09A46129BB3F5ED
:10C98000807F00F29080D0F82431164604460F468E
:10C990004BB3D0F81C31012B05D0D0F81421D0F8BE
:10C9A00020319A421FDD514600232046129AFFF79C
:10C9B0005DFF014698B900231293002E5ED0DFF888
:10C9C000EC9009F1400B0021204600F001FE202EE2
:10C9D0003546014628BF202504F1F40890B10846E9
:10C9E00009B0BDE8F08FBAF1000FE6D0129B002B22
:10C9F000E1D051461A462046FFF780FE0146002846
:10CA0000DBD0ECE749464022204600F0F5FD014628
:10CA10000028E4D141462022204600F0EDFD0146E9
:10CA20000028DCD16946204600F010FE01460028AF
:10CA3000D5D1204600F0CCFD01460028CFD1594683
:10CA40004022204600F0D8FD01460028C7D16946A3
:10CA50002022204600F0D0FD01460028BFD14146EB
:10CA6000204600F0F3FD01460028B8D138462A469A
:10CA7000414601F07BFB761B2F44A4D15146204652
:10CA8000129AFFF73BFE01460028A8D10846D4F8C9
:10CA900014310133C4F8143109B0BDE8F08F6FF0E0
:10CAA0000201084670476FF0040198E74422002015
:10CAB000002130B58DB0282202A8019101F07BFB46
:10CAC00002A800F047FF044610B120460DB030BD6B
:10CAD000174D4FF0FF31286800F042F9044620B1AD
:10CAE000144800F0D3F9012C18D0002000F068F9A8
:10CAF000D0B9114A02A901A800F0C4FC04460120E3
:10CB000000F05EF960B9286800F032F90028DCD046
:10CB10000A4800F0BBF920460DB030BD0524F2E70D
:10CB2000074800F0B3F9EEE7064800F0AFF9E0E798
:10CB3000D0100020ECE30300C422002044E40300F2
:10CB400024E4030004E4030030B583B000F05CF893
:10CB500028B100F0ABF80324204603B030BD00F04C
:10CB600077F8D8B900F02CF9E0B9224CD4F828397C
:10CB70001B0EF02B0AD1D4F8242A1F4B9A4231D035
:10CB800000F044F8072400F091F8E5E7062400F0EF
:10CB90003DF800F08BF8204603B030BD0424204659
:10CBA00003B030BD00F032F800F080F8FFF780FFEE
:10CBB000044698B9114D2B68002BCDD10246014691
:10CBC000FFF752FB50B968220D4901ABFFF77CFB20
:10CBD00020B920460B4B2B6003B030BD0524204606
:10CBE00003B030BD012000F0EBF80028DAD1C4F822
:10CBF0000C0ADBE7001084500000E020E424002051
:10CC0000E82400205AEA5A5A002070470020704752
:10CC1000430504D54FF0FF32034BC3F80821024B04
:10CC2000C3F8080A704700BF00108450014BC3F8D6
:10CC3000040A70470010845008B100F06BB84FF43C
:10CC40007500704708B100F04FB84FF47500704799
:10CC500010B5114800F070F800B110BD0F4800F099
:10CC60006BF80028F9D10E4C204600F065F800283A
:10CC7000F3D10C4B0C481C6000F05EF80146002814
:10CC8000EBD100F02DF8044608B1204610BD00F0AD
:10CC900079F82046FAE700BFE0100020DC10002001
:10CCA000D8100020D0100020D410002008B508486B
:10CCB00000F04CF8074800F049F8074800F046F843
:10CCC000064800F043F8BDE8084000F00BB800BF8C
:10CCD000E0100020DC100020D8100020D41000202C
:10CCE00000207047704700BF024610B4084CD4F8CB
:10CCF000003A1342FBD021B1D4F804310B60C4F8E0
:10CD00000831034B0020C3F8082A5DF8044B704734
:10CD100000108450044AD2F8003A1842FBD0C2F8FE
:10CD2000080A0020704700BF0010845001F0E8B9E5
:10CD30000A46002101F03FBA08B5034B02681B68A0
:10CD400010689847002008BD0C11002008B5034B5F
:10CD500002685B6810689847002008BD0C1100202D
:10CD6000024B02689B681068184700BF0C11002036
:10CD700008B5034B0268DB6810689847002008BDBF
:10CD80000C11002070B5094C094D2069AB6898471B
:10CD900018B1084B08485B6898470021074AEB68C0
:10CDA00011602069BDE87040184700BFF8100020EE
:10CDB0000C110020F01000205CE40300502500203E
:10CDC000F8B51A4D1A4E0446B26828699047E8B97A
:10CDD000184F3B684CB1A3B1012B19D0013B3B600C
:10CDE0002869F36898470020F8BD43B90121124A29
:10CDF000C2F800151149D1F81029002AFBD10133DE
:10CE00003B60F368286998470020F8BD0C48F8BDDE
:10CE10000A4AD2F81039002BFBD1074A6FF07E4046
:10CE2000C2F80035FFF702FF3B68D7E7F810002093
:10CE30000C11002050250020000084500010845068
:10CE4000E98FFFFF014B1B68184700BF0C11002042
:10CE5000014B9B68184700BF0C110020014BDB6899
:10CE6000184700BF0C110020BFF34F8F0549064B38
:10CE7000CA6802F4E0621343CB60BFF34F8F00BF78
:10CE8000FDE700BF00ED00E00400FA0530B44FF00C
:10CE9000FE320025074B084C08494968C3F80024B6
:10CEA000C3F80424C3F80824C3F80C24C4F80055BC
:10CEB00030BC08470010845000008450F01000205F
:10CEC00010B5044650B1636813F0685F05D0064A98
:10CED000934202D000236260236010BD034B0448DC
:10CEE0005B689847EFE700BF2C5F5CA9F01000205B
:10CEF0007CE40300C8B143680D4A934213D013F099
:10CF0000685F0ED0012350E8002F194640E8001C4E
:10CF10009CF0000FF7D1012AF5D0BFF35F8F0020FE
:10CF2000704704487047044870476FF4E04070470A
:10CF30002C5F5CA9E98FFFFFEA8FFFFF034680B1FA
:10CF4000426809498A420AD012F0685F05D0BFF3EF
:10CF50005F8F002210461A607047044870470448EB
:10CF600070476FF4E04070472C5F5CA9E98FFFFFCA
:10CF7000EA8FFFFF10B5044620B10023034A236067
:10CF8000626010BD0248FFF781FFF6E73A00003A01
:10CF9000A4E403002DE9F047002878D00C460029CE
:10CFA00075D01D46002B72D007461AB1012200230E
:10CFB0002A6003602B68002B64D02946204600F0CD
:10CFC000B7FD804600285FD12146286800F096FD15
:10CFD0008046002858D12B68082B6CD0042B6DD0CC
:10CFE000A3F10209B9FA89F94FEA59190121354E1D
:10CFF000C6F8C411C6F84011C6F8C411636AC6F871
:10D000003031D6F830219342F6D14FF0000A4FF07C
:10D01000FF30C6F82CA1FFF7FBFD6FF01B03504655
:10D02000C6F80031FFF702FEC6F80C91D6F8040AE4
:10D0300040F48060FFF7FAFD0A23C6F83831089BF8
:10D04000012B29D02369204AA2FB03231B09626A12
:10D05000404602FB03F303EB43031A4ADB039B093D
:10D06000C2F8D8310123C2F82C313B682A6823F07A
:10D070007F4343EA02633B602A6843EA02233B6042
:10D08000BDE8F087DFF844804046BDE8F087DFF870
:10D0900040804046BDE8F0874FF47F03D3F80C2C66
:10D0A000013206D0D3F80C3C074AA2FB03231B092C
:10D0B000CDE71623CBE74FF0030997E74FF00209BE
:10D0C00094E700BF00108450ABAAAAAA310CF1006B
:10D0D000350CF10058B34B1EB3F5047F27D230B5A1
:10D0E0004FF0000ECD00744671464B0901F01F0C45
:10D0F00050F82330BCF11F0F23FA0CF306D003F0D5
:10D10000010319B901211C468E46EEE79C4201F14C
:10D11000010106D01C464FF0010EA942E5D10020C6
:10D1200030BD0EF1010E9645F7D1024830BD0148E1
:10D13000704700BF360CF100C0B32DE9F0434C1E20
:10D14000B4F5047F1DD2E3B1DAB100252E46A8461E
:10D150002C46CF0003F1FF394FEA541C04F01F0E98
:10D1600050F82C10BEF11F0F21FA0EFC0CD00CF061
:10D17000010C4CB90126E04634463546ECE79642B0
:10D1800016D90C48BDE8F083AB420BD0C44508BFAC
:10D190000136A945F3D001350134BC42DCD1002071
:10D1A000BDE8F0830125E0462E46F5E701487047CB
:10D1B0001D46F1E7370CF1002DE9F04F91B08346A1
:10D1C000DDE91B460D46002E6ED10F691C60002361
:10D1D0001A990B60002A00F02F819D4B6A6AD3F8E0
:10D1E0003811D3F830319A4269D10A2967D19BF8B6
:10D1F0000330089304F10803079304230593954B28
:10D20000934CA3FB07239B0803EB4303A7EB4303C8
:10D21000039306971A9B069E1E60002E00F0EA807C
:10D2200000F096FC00230993BBF1000F00F0D580BD
:10D2300098464FF0010ADDF81C90002D00F0CD80DB
:10D24000089B002B3DD0284608A900F071FC00285F
:10D2500039D0814B984220D0089B082B00F0E48005
:10D2600000225B000893294608AB58460092FFF75E
:10D2700091FE7A4B984200F0D38070B9DBF8002021
:10D28000130A03F47F03134323F07F43CBF80030EA
:10D29000059B013B0593BDD10020039000F058FC95
:10D2A000039811B0BDE8F08F4FF47F01D1F80C0C5A
:10D2B00001300CBF4FF40477D1F80C7C86E7684846
:10D2C000EBE76648C5E72946089800F017FC0028F8
:10D2D000BFD1089B082B00F0A980042B00F0A98087
:10D2E000A3F10203B3FA83F35B090493C4F8C4A166
:10D2F000C4F840A1C4F8C4A16B6AC4F83031D4F8B2
:10D3000030219342F6D100234FF0FF30C4F82C3186
:10D31000FFF77EFC002318466FF01B03C4F80031B2
:10D32000FFF784FC049B4B4FC4F80C31D4F8040A7B
:10D3300040F48060FFF77AFC0A23C4F838312B6987
:10D3400009A8A7FB03236A6A1B0902FB03F303EB8B
:10D350004303DB039B09C4F8D831C4F82CA1DBF8E4
:10D360000030089923F07F420B0243EA0163134324
:10D37000CBF8003000F0B2FB099B03F01A03034323
:10D380007FF46AAFA7FB0637D4F81431B8EB970FD8
:10D390000A93D4F818310B93D4F81C310C93D4F8B9
:10D3A00020310D93D4F824310E93D4F828310F9303
:10D3B00001D1039B9BB9484618220AA9183EFFF7E2
:10D3C000B5FC09F1180908F101089EB100F0C0FB95
:10D3D00000230993002D7FF433AF224839E74846F4
:10D3E0001A46F61A0AA9994408F10108FFF79EFCAB
:10D3F000002EEBD1069F079E6A6939463046FFF73B
:10D4000069FEAA6940B94FF4806339463046FFF798
:10D4100093FE00283FF440AF00231A9A136018E7E8
:10D420002B6A002B3FF439AF0F4836E703230493F0
:10D430005CE70223049359E70122294658460096E7
:10D4400008ABFFF7A7FD00283FF4D4AE25E700BFE7
:10D4500000108450ABAAAAAA020CF100310CF10012
:10D46000300CF100350CF100320CF10030B4DDE984
:10D47000023402940024049DCDE9035430BCFFF72C
:10D480009BBE00BF30B51546012487B005AB0093A5
:10D490000022CDE9015404ABFFF78EFE07B030BD8A
:10D4A000F0B587B0002966D01E46002B63D0144625
:10D4B000002A60D0314F0D4638684FF0FF31FFF73A
:10D4C0004FFC00284DD10020FFF77AFC002844D102
:10D4D0002B4800F03FFAD8B101204FF0FF35FFF79D
:10D4E0006FFC002835D14FF408712648FEF70EFF77
:10D4F00004212548FEF70AFF21482821FEF706FFF0
:10D500003868FFF735FC00282FD1284607B0F0BD5A
:10D510001C4A0346029205AA019204AA03900092B3
:10D52000174902461848FFF7A1FF03460028D3D148
:10D5300028461D46059B22469C4228BF1A46049950
:10D5400032600831FFF7F2FB0120FFF739FC0028B9
:10D55000C9D00E48FFF79AFCC5E70D48FFF796FCC7
:10D56000B6E70C48FFF792FCADE70B48FFF78EFCDF
:10D57000284607B0F0BD4FF0FF35C6E7D0100020B9
:10D5800068250020902500206425002024E4030065
:10D5900004E40300ECE30300C8E4030010B5044610
:10D5A00028B12046BDE81040F421FFF7C1BB044874
:10D5B000FFF76CFC2046BDE81040F421FFF7B8BB34
:10D5C000E0E4030010B1F421FEF7A0BE704700BFF5
:10D5D00008B521B1012908D06FF0360008BD01213E
:10D5E00000F058F80028F7D108BD022100F052F8E9
:10D5F0000028F9D0F0E700BF30B505468818B0F52F
:10D60000801F0B461446A1B001D8802A0CD9B3F56F
:10D61000801F17D922461946284600F07DF8044697
:10D6200084B9204621B030BD6846FFF77FFB224613
:10D630006946284600F070F8802104466846FFF7E6
:10D6400077FBEDE76FF03604EBE700BF70B5E8B1AC
:10D650000E46D9B1044600F031F80546B0B923684A
:10D66000012B0BD0022B01D0284670BD1C22304666
:10D6700004F10801FFF75AFB284670BD202230460E
:10D6800004F10801FFF752FB284670BD6FF0360524
:10D69000EAE700BF78B138B50D46F0210446FFF740
:10D6A00047FB402320462560E36500F091FA0038EF
:10D6B00018BF012038BD0120704700BFF0B5056ECE
:10D6C000A5B0044604AEE5B9002301270193304616
:10D6D0006760294602AA009300F046FA10B10120C3
:10D6E00025B0F0BD2A46204602A900F099FA00288C
:10D6F000F5D1204600F0AAFB0028F0D1206625B025
:10D70000F0BD802D2A46304628BF802204F16401F6
:10D71000FFF70CFB256ED7E7002800F0AE802DE95F
:10D72000F04F1446A5B0002A3DD00F46002949D03D
:10D73000B2F5803F0546006E20D34FF6FF7805F125
:10D74000640AEB6D1A1AB2FBF3F103FB1122002AF3
:10D7500065D18342B9464FF6FF7672D0B6FBF3FB34
:10D7600003FB0BFBBBF1000F30D1002E45D1A4F51C
:10D770007F44FF3CB4F5803F4744E2D2EA6D161A7D
:10D78000B6FBF2F302FB1366A64228BF2646002E24
:10D7900075D1824200F08D80B4FBF2F602FB06F6F2
:10D7A0002EB9002C79D1002025B0BDE8F08F0023E0
:10D7B00031463846CDE9003302AA00F0D5F90028F9
:10D7C00000F09580012025B0BDE8F08F0023594678
:10D7D0004846CDE9003302AA00F0C6F90028F1D18D
:10D7E0005A46284602A900F01BFA0028EAD1A6EB07
:10D7F0000B06286ED944002EB9D01930494632465E
:10D8000005EB8000FFF792FAA4F57F44286EFF3CF9
:10D810003044B4F5803F4744286692D2AEE7424593
:10D8200028BF4246164639465044FFF77FFA286E15
:10D83000EB6D3044834207EB06092866A8EB060629
:10D840008CD1802B28BF802351461A4604A8FFF7AD
:10D850006DFA0023E96D02AACDE9003304A800F0B7
:10D8600083F90028AED12846EA6D02A900F0D8F964
:10D870000028A7D1EB6D286670E70120704705F1FD
:10D880006403394632461844FFF750FA286EEA6DB1
:10D890003044A41B374428667BE72B6E224619339D
:10D8A00005EB83003946FFF741FA2B6E23442B66C4
:10D8B00079E7802A28BF802205F1640104A8FFF7D8
:10D8C00035FA0023E96D04A8CDE9003302AA00F07F
:10D8D0004BF900287FF476AF2846EA6D02A900F0E4
:10D8E0009FF900287FF46EAFEA6D286654E7324650
:10D8F000284602A900F094F900287FF463AF37446A
:10D90000A41B4EE7F8B51C460546114816460F46BF
:10D91000FFF744FE21460E48FFF75AFE044620B1A9
:10D920000B48FFF74FFE2046F8BD3A462946084807
:10D93000FFF762FE04460028F2D131460448FFF7A3
:10D9400085FE04460248FFF73DFE2046F8BD00BFB5
:10D95000B02700201C2370B582B001A905460193B1
:10D9600000F032F8044638B9019B1C2B07D0144C48
:10D970001C212846FFF7DCF9204602B070BDD5E92E
:10D980000112131E18BF0123003918BF01210126FF
:10D9900028689B00EA6843EA4103002818BF43F067
:10D9A0000103EE612AB9C5E90834002BE4D1054C26
:10D9B000DEE7204643F00803C5E9083402B070BD35
:10D9C000370CF0000E0CF0000346002866D000294A
:10D9D00064D00A681C2A61D14FF47F023B49D2F817
:10D9E000100C88425CD0D2F8101C013158D0D2F80B
:10D9F000101C4FF47F021960D2F8140C344988428D
:10DA000060D0D2F8141C01315CD0D2F8141C4FF451
:10DA10007F025960D2F8181C11F5947F4FD0D2F8CC
:10DA2000181C01314BD0D2F8181C4FF47F029960BA
:10DA3000D2F81C0C274988423ED0D2F81C1C013178
:10DA40003AD0D2F81C1C4FF47F02D960D2F8001CE7
:10DA500070312FD0D2F8001C01312BD0D2F8001C2D
:10DA60004FF47F021961D2F8041CAF3120D0D2F8F4
:10DA7000041C01311CD0D2F8041C4FF47F02596100
:10DA8000D2F8080C144988420DD0D2F8081C013194
:10DA900009D0D2F8082C00209A6170470120704705
:10DAA00040F6FC01A5E740F2373200209A6170474A
:10DAB0005121E2E79021D3E742F60411C3E740F693
:10DAC000D861B2E742F2D001A1E700BFFCF8FFFF46
:10DAD000D020FFFF0429FFFF37F3FFFF014608B501
