:020000021000EC
:10000000F8070020716F0100FB6F0100F1B50200DD
:1000100017B602003DB6020089B6020063B60200C0
:10002000000000000000000000000000B9D3010043
:1000300003700100000000009FF701000B70010039
:10004000000000000000000000000000A9FB01000B
:10005000000000001370010000000000000000001C
:100060001B700100237001002B7001003370010030
:10007000000000003B700100437001004B70010064
:10008000537001005B7001000000000000000000E0
:10009000637001006B7001000000000000000000B0
:1000A0007370010000000000000000007B70010080
:1000B000837001008B700100937001009B70010040
:1000C000A3700100AB700100B3700100BB700100B0
:1000D000C370010000000000CB70010000000000B0
:1000E000D370010000000000DB7001000000000080
:1000F000E3700100000000000000000000000000AC
:1001000000000000EB700100000000000000000093
:1001100000000000000000000000000000000000DF
:1001200000000000F370010000000000000000006B
:1001300000000000000000000000000000000000BF
:04014000FB7001004F
:1001440001015F5F030100001F0100002F2901006E
:100154000020000000000000010000000100000079
:10016400000000000000000000000000000000008B
:10017400021F00005843002000000000700000002F
:10018400DCBD020080000000000F00000100000040
:100194005F2901000100000001015F5F0001000010
:1001A4001F00000079680100000700000000000043
:1001B4000300000001000000000000000000000037
:1001C4000000000000000000051F000000220020C5
:1001D40000000000800000007000000040000000EB
:1001E400E8BD0200600000000107000001000000FB
:1001F4009D5601000100000001015F5F0101000044
:100204001F010000EB2B010020070000000000008C
:1002140000000000010000000000000000000000D9
:100224000000000000000000011F000058630020CF
:100234000000000008BE020070000000020F000071
:1002440001000000891901000100000001015F5F45
:10025400040100001F010000A14C01000005000082
:100264000000000000000000010000000000000089
:10027400000000000000000000000000011F00005A
:10028400786A00200000000030BE02004000000038
:100294000507000001000000052101000100000025
:1002A40000015F5F02000000FE0B00008DD401001E
:1002B4000004000000000000000000000000000036
:1002C40000000000000000000100FFC3000000C4A3
:0C02D40000FE000000B000200000000050
:1002E00080B483B000AF7860064B03F580531A46A4
:1002F0007B68C2F80434002318460C37BD4680BC26
:10030000704700BF786F002080B483B000AF786082
:10031000064B03F58053D3F804247B681A6000234E
:1003200018460C37BD4680BC704700BF786F002070
:1003300080B483B000AF786039607B6813F1040F3C
:1003400002D96FF08C0327E07B68033323F00303AB
:100350007B60144B03F58053D3F80034C3F5A053EE
:100360007A689A4202D96FF08C0315E00D4B03F5C1
:100370008053D3F800340B4A1A443B681A60094B87
:1003800003F58053D3F800247B681344054A02F533
:100390008052C2F80034002318460C37BD4680BC9A
:1003A000704700BF786F002080B500AF0C4B03F59D
:1003B00080531A460023C2F80434094B03F58053D6
:1003C000D3F800341A46002105481BF04CFA044BC0
:1003D00003F580531A460023C2F8003400BF80BDE5
:1003E000786F002080B58AB000AFF860B9607A609D
:1003F0003B606FF096037B62FB681B683B620023E7
:10040000BB6100233B6100237B610023FB77FB681A
:100410005B68402B02D06FF08003A5E03B6A1B8D28
:100420001B0A9BB2BB77BB7F032B04D0BB7F012B86
:1004300001D0012300E00023FB77FB7F03F00103E1
:10044000FB77FB7F002B0FD007F11803184602F053
:100450001CF978627B6A002B01D07B6A84E03B6ADE
:100460001B683B61BB697B61BB7F013B0A2B76D874
:1004700001A252F823F000BF2F050100A5040100DE
:10048000B7040100C3040100D5040100E704010022
:10049000F90401000B0501001D0501003B050100E9
:1004A0004D05010007F110031A467968F86801F05C
:1004B0007BF8034658E07968F86800F0C5F9034610
:1004C00052E007F110031A467968F86800F046FB1D
:1004D000034649E007F110031A467968F86802F00C
:1004E00051FA034640E007F110031A467968F868AC
:1004F00000F08CFC034637E007F110031A467968D8
:10050000F86802F04CFA03462EE007F110031A4691
:100510007968F86802F050FA034625E007F1100305
:100520001A467968F86800F0CDFE03461CE0796849
:10053000F86802F05CFA034616E007F110031A4669
:100540007968F86802F0D9FA03460DE007F1100364
:100550001A467968F86802F0DDFA034604E00448B8
:1005600007F0C0F96FF0850318462837BD4680BDF7
:100570003C50010080B582B000AF78607B684FF4DA
:10058000507202FB03F31033054A13444FF44C72CC
:10059000002118461BF067F900BF0837BD4680BD33
:1005A0005829002080B500AF4FF4D05200210348F5
:1005B0001BF059F90023184680BD00BF58290020C0
:1005C00080B588B000AFF860B9607A600023FB6145
:1005D00000237B61BB681B68002B02D06FF088038F
:1005E00055E07B68002B02D16FF086034FE07B68FB
:1005F00000221A6007F11403184602F046F8B861A9
:10060000BB69002B01D0BB6941E00023FB6139E0ED
:10061000214AFB694FF4507101FB03F313441B683B
:10062000002B2CD11C4AFB694FF4507101FB03F3E2
:10063000134401221A607A691749FB694FF450701C
:1006400000FB03F30B4404331A60134AFB694FF4B5
:10065000507101FB03F313440833FA681A60FB6915
:100660005A1CBB681A60FB694FF4507202FB03F31B
:100670001033094A1A447B681A60002307E0FB69BB
:100680000133FB61FB69072BC2D96FF08403184665
:100690002037BD4680BD00BF5829002080B586B0F8
:1006A00000AF78607B681B687B610023FB607B6820
:1006B00000221A607B69002B02D07B69082B02D9CB
:1006C0006FF086034BE007F10C03184601F0DDFFE5
:1006D00038613B69002B01D03B6940E07B69013BFD
:1006E000214A4FF4507101FB03F313441B68012BA3
:1006F00033D17B69013B1C4A4FF4507101FB03F37A
:10070000134404331A68FB689A4226D17B69013B83
:100710001846FFF72FFF7B69013B134A4FF45071D6
:1007200001FB03F3134400221A607B69013B0E4A6C
:100730004FF4507101FB03F31344083300221A6095
:100740007B69013B084A4FF4507101FB03F31344EA
:10075000043300221A60002301E06FF0860318467C
:100760001837BD4680BD00BF5829002080B586B02F
:1007700000AFF860B9607A6000233B61BB68002B72
:1007800002D0BB68082B02D96FF0880344E07B6875
:10079000002B02D16FF086033EE007F110031846EC
:1007A00001F073FF78617B69002B01D07B6933E036
:1007B000BB68013B1A4A4FF4507101FB03F3134429
:1007C0001B68012B26D1BB68013B154A4FF45071C1
:1007D00001FB03F3134408331B68FA689A4219D1EA
:1007E000BB68013B0E4A4FF4507101FB03F3134405
:1007F00004331A683B699A420CD1BB68013B4FF441
:10080000507202FB03F31033054A1A447B681A60E6
:10081000002301E06FF0880318461837BD4680BDFD
:100820005829002080B483B000AF78607B68054A07
:10083000934201D1012300E0002318460C37BD4646
:1008400080BC70470900000280B59AB002AF7860A2
:1008500039607B681B687B656FF08503FB6500234F
:100860003B610023BB657B6D1B8DA7F85230B7F849
:100870005230B3F5427F17D13B681B687B613B6800
:100880001B68002B03D03B685B68032B02D86FF01A
:1008900080035EE17B6D5B681846FFF7C3FF02468D
:1008A0007B691A60002354E1B7F85230B3F5407FFA
:1008B00022D17B6808331B687B627B6808335B68E6
:1008C0003B623B681B68FB613B685B68BB617B6D9F
:1008D00058683B6804330193BB690093FB693A6A2B
:1008E000796A13F015FFF865FB6D002B02D03B68A9
:1008F00000225A60FB6D2CE1B7F8523040F2013211
:1009000093421AD17B6808331B687B637B6808338A
:100910005B683B637B6810331B68FB627B6810334A
:100920005B68BB627B6D5868BB6A0093FB6A3A6B7D
:10093000796B13F001FF03460BE1B7F8523040F238
:10094000023293421BD13B681B68BB653B681B6846
:10095000002B03D03B685B68032B02D86FF0800349
:10096000F7E07B6D9A68BB6D1A603B681B6807F106
:10097000100219460320FFF723FEF8652CE07B6D7B
:100980009B6807F1100219460320FFF7EFFEF86598
:10099000B7F8523040F2053293420BD0B7F85230DC
:1009A00040F20632934205D0B7F8523040F2073297
:1009B000934211D13B681B68BB653B681B68002BE9
:1009C00003D03B685B68032B02D86FF08003C0E064
:1009D0007B6D9A68BB6D1A60FB6D002B09D0B7F870
:1009E000523040F20732934201D10023B1E0FB6D57
:1009F000AFE0B7F85230A3F20233052B00F29A8031
:100A000001A252F823F000BF210A01003B0A0100B5
:100A1000BF0A01005B0A01008D0A0100B30A010050
:100A20003A697B6D5B681946104613F0D1FDF86595
:100A3000FB6D002B00F0818087E07B6808331B682A
:100A4000FB637B6808335B68BB633B69BA6BF96B1C
:100A5000184613F0E3FD03467BE03B6808331B6850
:100A60007B643B6808335B683B6438693B680833E8
:100A700004333A6C796C13F0EDFDF865FB6D002BD7
:100A800062D03B68083300225A605BE07B68083321
:100A90001B68FB647B6808335B68BB643B69BA6CAA
:100AA000F96C184613F0EAFDF865FB6D002B46D192
:100AB0004BE03B69184613F07FFDF86545E00023E5
:100AC000FB603B681B68BB653B681B68002B0DD057
:100AD0003B685B68032B09D97B6808331B68002BD4
:100AE00004D07B6808335B68032B02D86FF0800367
:100AF0002FE07B6808331B681A68BB6D1A6007F12A
:100B00000C031A46B96D0320FFF75AFDF865FB6D1B
:100B1000002B01D0FB6D1CE03B69FA6811461846BA
:100B200013F034FEF865FB6D002B0AD0B86DFFF7AB
:100B3000B5FD06E06FF085030BE000BF02E000BFEB
:100B400000E000BFFB6D04E000BFB86DFFF7A6FD3D
:100B5000FB6D18466037BD4680BD00BF80B59EB0B6
:100B600004AFF860B9607A60FB681B68FB656FF0E2
:100B700085037B660023FB6100233B66FB6D1B8DB9
:100B8000A7F85A307B6859687B681A6807F1140324
:100B9000184601F05AFFB7F85A30B3F5806F27D1E5
:100BA000FB6808331B68FB62FB6808335B68BB6249
:100BB000BB681B687B62BB685B683B62FB6D5A6805
:100BC000BB68043303933B6A02937B6A0193BB6A5D
:100BD0000093FB6A07F1140103C913F0EBFE78667A
:100BE0007B6E002B02D0BB6800225A607B6E08E14E
:100BF000B7F85A3040F2014293421FD1FB680833E4
:100C00001B68FB63FB6808335B68BB63FB681033DE
:100C10001B687B63FB6810335B683B63FB6D5A6842
:100C20003B6B02937B6B0193BB6B0093FB6B07F1F8
:100C3000140103C913F0D4FE0346E2E0B7F85A30BA
:100C400040F20242934205D0B7F85A3040F20342D4
:100C500093421BD1BB681B683B66BB681B68002BBB
:100C600003D0BB685B68032B02D86FF08003C8E039
:100C7000FB6D9A683B6E1A60BB681B6807F11C022B
:100C800019460220FFF79CFC78662CE0FB6D9B6800
:100C900007F11C0219460220FFF768FD7866B7F8D5
:100CA0005A3040F2054293420BD0B7F85A3040F226
:100CB0000642934205D0B7F85A3040F207429342B9
:100CC00011D1BB681B683B66BB681B68002B03D057
:100CD000BB685B68032B02D86FF0800391E0FB6D6B
:100CE0009A683B6E1A607B6E002B09D0B7F85A30B9
:100CF00040F20742934201D1002382E07B6E80E004
:100D0000B7F85A30A3F20243052B6BD801A252F870
:100D100023F000BF2D0D0100470D0100610D010002
:100D2000810D0100B30D0100D90D0100F869FB6DC3
:100D30005B6807F1140206CA13F05AFD78667B6EF1
:100D4000002B52D059E0F869FB6D5B6807F1140283
:100D500006CA13F05BFD78667B6E002B47D04CE033
:100D6000FB6808331B687B64FB6808335B683B6483
:100D7000FB693A6C796C184613F056FD034640E067
:100D8000BB6808331B68FB64BB6808335B68BB64E3
:100D9000F869BB6808330433BA6CF96C13F062FD70
:100DA00078667B6E002B27D0BB68083300225A6020
:100DB00020E0FB6808331B687B65FB6808335B68D1
:100DC0003B65FB693A6D796D184613F0BBFD78669B
:100DD0007B6E002B0DD110E0FB69184613F0F8FC78
:100DE00078660AE06FF085030BE000BF02E000BF09
:100DF00000E000BF7B6E04E000BF386EFFF74EFCE2
:100E00007B6E18466837BD4680BD00BF80B5B8B060
:100E100008AFF860B9607A60FB681B68C7F8B43047
:100E20006FF08503C7F8BC300023FB610023C7F8CF
:100E3000B830D7F8B4301B8DA7F8B2307B6859684A
:100E40007B681A6807F11403184601F0FEFDB7F835
:100E5000B230B3F5C06F44D1D7F8B43014333B642B
:100E60003B6CFB633B6C1B69BB63FB6808331B6813
:100E70007B63FB6808335B683B63BB681B68FB6292
:100E8000BB685B68BB62FB6810331B687B62FB68F6
:100E900010335B683B62D7F8B4305A68BB680433E0
:100EA0000793BB6A0693FB6A05933B6B04937B6BCA
:100EB00003933B6A02937B6A0193BB6B0093FB6BCA
:100EC00007F1140103C913F0B5FDC7F8BC00D7F84A
:100ED000BC30002B02D0BB6800225A60D7F8BC306F
:100EE000ECE1B7F8B23040F20162934244D1D7F856
:100EF000B43014337B667B6E3B667B6E1B69FB658F
:100F0000FB6808331B68BB65FB6808335B687B655F
:100F1000BB681B683B65BB685B68FB64FB681033A0
:100F20001B68BB64FB6810335B687B64D7F8B43024
:100F30005A68BB6804330793FB6C06933B6D0593BB
:100F40007B6D0493BB6D03937B6C0293BB6C01932D
:100F5000FB6D00933B6E07F1140103C913F0C0FD54
:100F6000C7F8BC00D7F8BC30002B02D0BB68002209
:100F70005A60D7F8BC30A1E1B7F8B23040F2026253
:100F8000934205D0B7F8B23040F2036293421FD1CA
:100F9000BB681B68C7F8B830BB681B68002B03D060
:100FA000BB685B68032B02D86FF0800386E1D7F83B
:100FB000B4309A68D7F8B8301A60BB681B6807F17C
:100FC0001C0219460520FFF7FBFAC7F8BC0031E008
:100FD000D7F8B4309B6807F11C0219460520FFF7CB
:100FE000C5FBC7F8BC00B7F8B23040F209629342C3
:100FF0000BD0B7F8B23040F20A62934205D0B7F88E
:10100000B23040F20B62934214D1BB681B68C7F840
:10101000B830BB681B68002B03D0BB685B68032B30
:1010200002D86FF0800349E1D7F8B4309A68D7F856
:10103000B8301A60D7F8BC30002B0AD0B7F8B230FD
:1010400040F20B62934201D1002337E1D7F8BC3064
:1010500034E1B7F8B230A3F20263092B00F21C812D
:1010600001A252F823F000BF91100100B31001005B
:101070005511010087110100A7110100191201008B
:10108000BF110100D5100100391201004711010004
:10109000F869D7F8B4305B6807F1140206CA13F098
:1010A00075FDC7F8BC00D7F8BC30002B00F0F78006
:1010B000FEE0F869D7F8B4305B6807F1140206CA9D
:1010C00013F072FDC7F8BC00D7F8BC30002B00F05D
:1010D000E880EDE0BB6810331B68C7F89C30BB6844
:1010E00010335B68C7F89830BB6808331B68C7F8D3
:1010F0009430BB6808335B68C7F89030F869BB6808
:1011000010331A1DBB68083304330293D7F89030AC
:101110000193D7F8943000931346D7F89820D7F866
:101120009C1013F0DDFEC7F8BC00D7F8BC30002BD4
:1011300000F0BB80BB68083300225A60BB681033E4
:1011400000225A60AEE0FB69184613F051FFC7F861
:10115000BC00ADE0BB681B68FB66BB685B68BB6638
:10116000F869BB680433BA6EF96E13F067FDC7F80F
:10117000BC00D7F8BC30002B02D0BB6800225A60FC
:10118000D7F8BC309AE0FB6808331B687B67FB68C4
:1011900008335B683B67FB693A6F796F184613F059
:1011A00011FD03468AE0F869D7F8B430D968D7F85A
:1011B000B4301B691A4613F0D5FD03467EE0FB6888
:1011C00008331B68C7F88C30FB6808335B68C7F8C6
:1011D0008830BB681B68C7F88430BB685B68C7F899
:1011E0008030F869BB6804330193D7F880300093EE
:1011F000D7F88430D7F88820D7F88C1013F028FE61
:10120000C7F8BC00D7F8BC30002B02D0BB68002266
:101210005A60D7F8BC3051E0FB6808331B68FB67A5
:10122000FB6808335B68BB67FB69BA6FF96F1846E8
:1012300013F0D2FD034641E0FB6808331B68C7F892
:10124000AC30FB6808335B68C7F8A830BB6808336C
:101250001B68C7F8A430BB6808335B68C7F8A030C8
:10126000F869BB6808331A1DD7F8A8300193D7F87E
:10127000AC3000931346D7F8A020D7F8A41013F091
:1012800083FEC7F8BC00D7F8BC30002B0FD0BB687A
:10129000083300225A6005E06FF085030EE000BFBE
:1012A00000E000BFD7F8BC3008E000BF00E000BF9E
:1012B000D7F8B800FFF7F2F9D7F8BC301846C037B6
:1012C000BD4680BD80B5A2B004AFF860B9607A6059
:1012D000FB681B68FB666FF085037B6700237B63FD
:1012E00000233B67FB6E1B8DA7F86A307B6859684B
:1012F0007B681A6807F12C03184601F0A6FBB7F8C3
:101300006A30B3F5106F20D1BB681B687B64BB6883
:101310005B683B64FB6808331B68FB63FB6808334E
:101320005B68BB63FB6E5868BB68043303933B6C1C
:1013300002937B6C0193BB6B0093FB6B07F12C0258
:1013400006CA14F0FFF803462AE1B7F86A3040F6FF
:10135000011293421BD1BB681B683B67BB681B68CB
:10136000002B03D0BB685B68032B02D86FF08003AF
:1013700016E1FB6E9A683B6F1A60BB681B6807F149
:10138000340219460420FFF71BF9786708E0FB6E6A
:101390009B6807F1340219460420FFF7E7F97867E4
:1013A0007B6F002B07D0B7F86A3040F60A129342E1
:1013B00001D07B6FF4E0B7F86A30A3F60113092B74
:1013C00000F2E48001A252F823F000BFF5130100FF
:1013D0000F140100391401004B1401009D14010089
:1013E0006D1401006115010081140100B1140100A8
:1013F000271501007A6BFB6E5B681946104613F0E7
:1014000051FF78677B6F002B00F0C380C4E0BB689E
:101410001B68BB64BB681B68002B03D0BB685B68A0
:10142000042B02D06FF08003BAE07B6BB96C1846D6
:1014300013F008FE0346B3E07A6BFB6E1B6B194694
:10144000104613F009FE0346AAE0FB6808331B6848
:101450003B65FB6808335B68FB64786BFB6E598DFA
:10146000FB6C3A6D13F06AFF034699E0786BFB6EF4
:10147000598DFB6ED3E90C2313F06CFF03468FE00C
:10148000BB681B683B66BB685B68FB657B6BFA6D82
:10149000396E184613F0F2FD034681E0786BFB6E5F
:1014A000598D07F12C030CCB13F090FF034677E026
:1014B000BB681B687B66BB681B68002B03D0BB68DE
:1014C0005B68032B02D86FF0800369E0FB68083388
:1014D0001B68002B04D0FB6808335B681C2B02D010
:1014E0006FF080035CE0FB6808331968FB68083321
:1014F0005A6807F1100318461AF06FF97B685B68A9
:1015000007F110021146184601F0AFFA796B07F1A6
:101510002C0207F11003184613F0E2FD7867FA6A0F
:101520007B6E1A6036E0BB681B683B67BB681B6854
:10153000002B03D0BB685B68032B02D86FF08003DD
:101540002EE0FB6E9A683B6F1A607B6F002B01D018
:10155000002325E07B6B184613F05EFD78671BE0E7
:10156000FB6808331B68BB65FB6808335B687B65F9
:10157000786BFB6E598D7B6D0193BB6D009307F10A
:101580002C030CCB13F072FF034609E06FF08503C8
:1015900006E000BF7B6F03E0386FFFF77FF87B6FDB
:1015A00018467837BD4680BD80B59EB002AFF86062
:1015B000B9607A60FB681B68BB666FF09603FB66D8
:1015C0007B6859687B681A6807F13803184601F090
:1015D0003CFABB6E1B8D40F20322934207D040F2CF
:1015E0000322934224DBA3F50273012B20D8FB686E
:1015F00008331B68002B04D0FB6808335B681C2B86
:1016000002D06FF080030AE1FB6808331968FB68B9
:1016100008335A6807F11C0318461AF0DEF87B6895
:101620005B6807F11C021146184601F01EFA00E043
:1016300000BFBB6E1B8DA3F50073092B00F2E88081
:1016400001A252F823F000BFD3160100B716010023
:10165000BD16010071160100C31601001517010027
:10166000451701007517010085170100D11701000A
:10167000FB6810331B68FB64FB6810335B68BB645A
:10168000BB681B687B64BB681B68002B03D0BB680E
:101690005B68032B02D86FF08003C0E007F13803CA
:1016A00007F11C00BA6CF96C12F0C4FDF866BA6B55
:1016B0007B6C1A60B2E06FF08503B0E06FF08503D9
:1016C000ADE007F1380393E8030012F079FCF86607
:1016D000A4E0BB681B683B6407F11C031A4607F1D2
:1016E000380393E8030012F0BDFCF866BB681B6882
:1016F000002B03D0BB685B681C2B02D96FF0800302
:101700008DE0BB685A6807F11C031946386C1AF063
:1017100064F883E0BB681B687B65BB685B683B65FE
:10172000BB68043300933B6D7A6D07F1380103C940
:1017300012F0DCFCF866FB6E002B6CD0BB6800225C
:101740005A6068E0BB681B68FB65BB685B68BB658B
:10175000BB6804330093BB6DFA6D07F1380103C910
:1017600012F034FDF866FB6E002B56D0BB680022E9
:101770005A6052E007F1380393E8030014F0EEFAE0
:10178000F8664BE0BB681B683B6607F1140318461C
:1017900001F01FF9BB681B68002B03D0BB685B68B6
:1017A000032B02D86FF0800339E007F1140307F12F
:1017B0001C0207F1380103C912F020FEF866FB6E27
:1017C000002B01D0FB6E2AE07A693B6E1A6025E09F
:1017D000BB681B687B66BB681B68002B03D0BB68BB
:1017E0005B68032B02D86FF0800318E007F1380222
:1017F00007F11C031146184613F020FFF866FB6E34
:10180000002B01D0FB6E0AE0BA6B7B6E1A6005E01C
:101810006FF0850303E000BF00E000BFFB6E1846D9
:101820007037BD4680BD00BF80B500AF14220349AC
:10183000034819F0D2FF024B184680BD5C500100EE
:101840008083002080B500AF4FF40251044803F0BC
:10185000C7FD044811F088FB0023184680BD00BF77
:1018600094830020392A010080B58AB002AF7860E5
:101870007B681B69082B03D17B689B69042B02D012
:101880006FF080032FE07B68586807F1100208238F
:10189000002111F08FF8F861FB69082B02D06FF07E
:1018A000800320E07B68586807F10C0204230221C2
:1018B00011F080F8F861FB69042B02D06FF080030F
:1018C00011E07B685B69BB617B685B68084A1360F9
:1018D0007B689868D7E90423F9680191B969009198
:1018E00000F000FA034618462037BD4680BD00BF11
:1018F00014A4002090B58FB004AF78607B681B699A
:10190000082B03D17B685B69042B02D06FF0800346
:1019100034E07B68586807F110020823002111F0B9
:1019200049F878627B6A082B02D06FF0800325E0CB
:101930007B68586807F108020423012111F03AF886
:1019400078627B6A042B02D06FF0800316E07B681C
:101950001B6A3B627B685B680A4A13607B689C6811
:10196000D7E90423B96807F10C000290386A0190A6
:101970000091204600F05CFAF861FB6918462C37AC
:10198000BD4690BD14A4002080B582B000AF786041
:101990007B681B68A3F2E933032B1FD801A252F81E
:1019A00023F000BFB5190100BF190100C9190100DA
:1019B000D31901007868FFF757FF034610E07868F5
:1019C000FFF798FF03460BE0786801F0B0F8034694
:1019D00006E0786801F0E3F8034601E06FF0850364
:1019E00018460837BD4680BD80B582B000AF78602C
:1019F0003960064B18683B687A68012110F0DAFFFD
:101A0000034618460837BD4680BD00BF14A4002019
:101A100080B582B000AF78603960054B18683B68CC
:101A20007A68002110F0DEFF00BF0837BD4680BD98
:101A300014A4002080B483B000AF78607B68B3F555
:101A4000807F01D1034B00E0034B18460C37BD46A5
:101A500080BC704748AC002030AC002080B584B01A
:101A600000AF1C4B9B6A984703461B69042B02D0AE
:101A70006FF080032AE0174B9B6A984703469B68E8
:101A8000154A9360134B9B6A984703461A7D124B85
:101A90001A763B1D18460BF084F90346002B02D042
:101AA0006FF0800312E07B680B4A53600A4B9B681F
:101AB0003A7B02FB03F3084AD360BA68064BDB6843
:101AC000B2FBF3F39AB2044B1A8200231846103784
:101AD000BD4680BDA81302002029002080B584B037
:101AE00000AF1C4B9B6A984703461B69042B02D02E
:101AF0006FF080032AE0174B9B6A984703469B6868
:101B0000154A9360134B9B6A984703461A7D124B04
:101B10001A763B1D18460BF029F90346002B02D01C
:101B20006FF0800312E07B680B4A53600A4B9B689E
:101B30003A7B02FB03F3084AD360BA68064BDB68C2
:101B4000B2FBF3F39AB2044B1A8200231846103703
:101B5000BD4680BDA81302003C29002080B582B09C
:101B600000AF00237B60FFF779FF78607B68002B74
:101B700001D07B6851E02B4A2B492C4801F061F9D8
:101B800078607B68002B01D07B6846E0274801F035
:101B900083F978607B68002B0FD025481AF05DF838
:101BA000224801F0A4F978607B68002B01D07B68A3
:101BB00033E01E4801F070F978607B68002B01D09B
:101BC0007B682AE0FFF78AFF78607B68002B01D0F2
:101BD0007B6822E0134A1749174801F032F9786010
:101BE0007B68002B01D07B6817E0134801F054F9A3
:101BF00078607B68002B0FD010481AF02EF80E4842
:101C000001F075F978607B68002B01D07B6804E0F7
:101C1000094801F041F978607B6818460837BD46ED
:101C200080BD00BFCC5001002029002030AC002036
:101C3000705001003C29002048AC00209850010061
:101C400080B584B000AFC7E902017A60D7E902230A
:101C5000134302D16FF0860317E03B1D042219469F
:101C60000C4819F0BAFD0C4807F108030822194680
:101C700019F0B3FD7B681846FFF7DCFE0346074A00
:101C80000449184601F03FF9034618461037BD468F
:101C900080BD00BF18A400201CA4002024A40020A4
:101CA00080B588B002AFF860B9607A603B607B6A4B
:101CB0007B61F868FFF7BEFE7B6901933B6A009386
:101CC0003B68074AB96801F042F938613B69002B6B
:101CD00001D03B6900E0002318461837BD4680BD9F
:101CE00024A4002080B58AB002AFF860C7E90023C1
:101CF000D7E90023134302D16FF0860354E0FB6A57
:101D0000072B02D96FF085034EE0FA68D7E900018E
:101D1000FFF796FFB861BB69002B08D1244B9B6885
:101D200003F00103002B08D06FF084033CE0BB6993
:101D300013F18C0F01D0BB6936E01D4ABB6A5360BA
:101D4000FB6A43F440331A4A93600023FB61BB6A89
:101D5000B3F5006F28BF4FF400637B6179691548C4
:101D6000FFF742FE134B0193FB6900937B69104A16
:101D70001149F868FFF794FFB861BB69002B01D0E7
:101D8000BB6911E00A4B9B6823F44033084A936017
:101D9000FA697B691344FB61BA6A7B69D31ABB6237
:101DA000BB6A002BD3D1BB6918462037BD4680BD26
:101DB00024A4002030A4002018A4002080B588B0FE
:101DC00002AFF860B9607A603B607B68B3F5006F82
:101DD00028BF4FF400637B61F868FFF72BFE124BBE
:101DE0000093BB687A69114901F00BFB38613B69CC
:101DF000002B04D03B6800221A603B690FE0796930
:101E00000948FFF705FEBA687B691344BB607A682E
:101E10007B69D31A7B607B68002BD6D100231846E0
:101E20001837BD4680BD00BF30A4002018A4002094
:101E300080B586B000AFF860C7E90023D7E900237A
:101E4000134302D16FF0860325E0FA68D7E9000159
:101E5000FFF7F6FE78617B69002B01D07B691AE001
:101E60000F4B1B683A6A9A4202D96FF0860312E060
:101E70000B4B1A683B6AD31A7A6A934228BF1346FF
:101E80007B62BB6A7A6A1A60BB6A7A6A396AF868E6
:101E9000FFF794FF034618461837BD4680BD00BFC4
:101EA00024A4002080B586B000AFF860C7E9002305
:101EB000FA68D7E90001FFF7C3FE78617B69002B60
:101EC00001D07B690CE0084B1A683B6A1A60064B2C
:101ED0001A683B6A5A60044B9A683B6A9A6000230E
:101EE00018461837BD4680BD24A4002080B586B0B2
:101EF00000AFF860C7E90023FA68D7E90001FFF7EF
:101F00009FFE78617B69002B01D07B6911E00B4B50
:101F10009B6803F00103002B02D06FF0840308E0FC
:101F2000F868FFF787FD03460549184601F04CFAAB
:101F3000034618461837BD4680BD00BF24A40020C4
:101F400018A4002080B58CB000AFF860B9607A604A
:101F50003B600023BB62FB681B685B6898470346D5
:101F60003B613B7CC3F34103DBB21A464A4B53F857
:101F7000223087F8273097F82730BA68B2FBF3F39E
:101F800097F8272002FB03F33B623B68FB623A6A47
:101F9000BB689A422FD0FB681B685B6907F114018C
:101FA0000122386A9847F861FB69002B02DA6FF06A
:101FB00091036CE0BA683B6AD21A3B681A4497F8FE
:101FC00027309A4206D397F82720396ABB68CB1A84
:101FD000134400E03B68BB62BA683B6AD31A07F15E
:101FE00014021344BA6A1946786819F0F6FBFA6AC3
:101FF000BB6AD31AFB62FB6A002B2AD097F8273002
:10200000FA6AB2FBF3F3BB61BB69002B21D0FB681A
:102010001B685B69B968BA6A88187968BA6A11443A
:10202000BA699847F861FB69002B02DA6FF09103F7
:102030002DE097F82730BA6902FB03F3BA6A13441C
:10204000BB6297F82730BA6902FB03F3FA6AD31A26
:10205000FB62FB6A002B19D0FB681B685B69B968DF
:10206000BA6A881807F1140101229847F861FB69E0
:10207000002B02DA6FF0910309E07A68BB6A13441F
:1020800007F11401FA6A184619F0A7FB0023184655
:102090003037BD4680BD00BFC050010080B588B05C
:1020A00000AFF860B9607A603B60FB681B685B68F2
:1020B000984703463B613B7CC3F34103DBB21A46BE
:1020C0000F4B53F82230FB773A68B968F86800F094
:1020D00093FDB861FB681B689B69FA7FB96AB1FB25
:1020E000F2F27968B869984778617B69002B02DA67
:1020F0006FF0910300E0002318462037BD4680BDF5
:10210000C050010080B582B000AF78607B681B686A
:10211000A3F2F233032B1FD801A252F823F000BF21
:10212000312101003B210100452101004F21010027
:10213000786802F0DFFB034610E0786802F060FC8C
:1021400003460BE0786802F0CAFB034606E07868B5
:1021500002F0C9FC034601E06FF08503184608371A
:10216000BD4680BD90B5ADF56D7D02AF07F56A74D3
:10217000A4F56774206007F56A70A0F568700160C7
:1021800007F56A71A1F569710A6007F56A72A2F52F
:102190006A72136007F56773184602F074FE07F55C
:1021A0006A73A3F567731B6803F1240207F565736F
:1021B0001146184602F0D3FDD7F8942307F5637350
:1021C00040F20311184600F040FC07F56A73A3F5CE
:1021D0005473184602F075FD07F56A73A3F55B7337
:1021E0001A460023136053609360D36013615361F8
:1021F000936107F56A73A3F564731A4600231360AD
:1022000053609360D36013615361936107F13C03A2
:1022100041F20101184602F010FE07F56A73A3F5BA
:102220006A731B68DA0007F13C031146184602F096
:1022300012FE07F13C030121184602F0D6FD07F11A
:1022400018034FF48041184602F0CFFD07F1180340
:102250004949184602F0E4FD07F118034FF4905184
:10226000184602F0EAFD07F56A73A3F5677319686B
:1022700007F56A73A3F567731B681A6A07F563733A
:1022800007F1180011F0D6FFC7F8A403D7F8A4335C
:10229000002B50D107F158033749184613F002F8C4
:1022A000C7F8A403D7F8A433002B46D107F1580090
:1022B00007F563730CCB40F2011113F087F8C7F8F0
:1022C000A403D7F8A433002B39D107F1080207F192
:1022D0005800042340F2032113F030F8C7F8A40398
:1022E000D7F8A433002B2CD107F5677207F15801FA
:1022F00007F13C03184612F0F3FEC7F8A403D7F821
:10230000A433002B1FD107F56A73A3F56A7307F591
:102310006A72A2F56972D7F8B81300911B68126847
:1023200007F5677103C911F0E1FEC7F8A403D7F8F8
:10233000A433002B08E000BF06E000BF04E000BFAC
:1023400002E000BF00E000BF07F15803184612F09A
:1023500063FE07F5637393E8030011F031FE07F5A0
:10236000677393E8030011F02BFED7F8A4331846E7
:1023700007F56B77BD4690BD0901000890B5A5B083
:1023800004AF6FF09603BB6700233B6607F1600361
:10239000184610F0B7FD78670023FB67ABE03A6E94
:1023A000FB6F5B0113441B69594A934240F09F80C5
:1023B0003A6EFB6F5B011344D3E90223C7E91A238A
:1023C0003A6EFB6F5B0113441A6807F12803002182
:1023D000184600F03AFB07F10C0300221A605A601D
:1023E0009A60DA601A615A619A613A6EFB6F5B011A
:1023F00013445C693A6EFB6F5B011344986907F103
:102400003C0207F1400107F13203029307F1340364
:10241000019307F13A03009313462022A047786600
:102420007B6E002B09D0BA6AF96A7B6E00930B466B
:102430003849394805F056FA5AE007F10C0007F11F
:10244000280393E8060002F069FC7B8F1A4607F127
:102450000C031146184602F0FEFC7A6B07F10C03E0
:102460001146184602F0DCFC7A8E07F10C03114687
:10247000184602F0E2FC3A6EFB6F5B0113441A69E6
:1024800007F10C031146184602F07AFCBA6E1346A7
:102490001B0113449B002033204A1344043307F1EB
:1024A0000C011C22184619F098F9BA6E13461B014C
:1024B00013449B00194A1344FA6B07F14001184674
:1024C00019F08BF9F96B1548BA6E13461B011344CA
:1024D0009B000344203319601049BA6E13461B0158
:1024E00013449B000B44403301221A6000E000BFFC
:1024F000FB6F0133FB67FA6F7B6F9A42FFF44FAFBC
:102500000023BB67BB6F18468437BD4690BD00BF34
:102510000101008024510100E050010060AC002066
:1025200080B588B000AF07F1080383E803007A6044
:102530007B68002B03D16FF08603FB611DE07B6895
:1025400000221A60BB6807F110021146184602F01B
:10255000A8FCF861FB69002B0ED1D7E904230949D7
:1025600013461B0113449B000B4420331A687B68FD
:102570001A600023FB6100E000BFFB6918462037AA
:10258000BD4680BD60AC002080B58CB002AFC7E90D
:1025900002017A603B60BB68012B03D96FF08603B0
:1025A0007B625FE0BA6813461B0113449B00304A0C
:1025B00013443B623B6A1B6C002B03D16FF08B030F
:1025C0007B624FE07B68002B03D16FF086037B6258
:1025D00048E007F114037968184602F0C0FBB969B6
:1025E0007A697B68386A02F0A3FC78627B6A002B08
:1025F00037D13B6A1B6A3A6B9A4203D26FF0890368
:102600007B622FE03B68002B02D07B6B002B03D159
:102610006FF086037B6225E0BB69FB61786802F09E
:10262000F4FB034603F48043002B0ED0FB6940F219
:102630000312934209D07B6B00933B6B3A68F969B4
:10264000386AFFF78FFD78620CE0396A3B6A1B6AD3
:102650001A46386819F0C1F83B6A1A6A7B6B1A602F
:1026600000E000BF7B6A18462837BD4680BD00BF2A
:1026700060AC002080B582B000AF78607868FDF76C
:102680002FFE00BF0837BD4680BD80B582B000AFC9
:1026900078607868FDF738FE034618460837BD466F
:1026A00080BDB0B588B000AFF860B9607A603B60BB
:1026B00000237B610123FB612EE0FB68FA69043291
:1026C00053F8223007F1140211461846FDF730FE88
:1026D000B861BB69002B03D0FDF766FEBB694DE016
:1026E000FB6858687969FB68FA69043253F822502C
:1026F000FB69DB00BA68D4182B460A46F96910F06A
:1027000059F903466360FB69DB00BA6813447A69D0
:102710001A60FB690133FB61FA697B689A42CCD38A
:102720000023FB6125E0FB68FA69083253F8223088
:1027300007F1140211461846FDF7FAFDB861BB69AE
:10274000002B03D0FDF730FEBB6917E0FB69DB000F
:102750003A6813447A691A60FB69DB003A681344EB
:10276000FA68F969083152F821205A60FB6901338F
:10277000FB61FA693B6B9A42D5D300231846203798
:10278000BD46B0BD80B5A8B002AF78600023C7F8E1
:1027900088300423C7F894300423C7F8903007F139
:1027A000680320220021184619F05DF807F148035C
:1027B00020220021184619F056F807F1080340229C
:1027C0000021184619F04FF804E0D7F89430013B87
:1027D000C7F89430D7F89430002B0ED0D7F8943047
:1027E0005A1E7B68043253F82230002BEDD004E0EF
:1027F000D7F89030013BC7F89030D7F89030002BD5
:1028000008D0D7F890305A1E7B68083253F822302F
:10281000002BEDD0D7F89430002B02D16FF083035A
:1028200060E07B68586807F108024023002110F03F
:10283000C1F80346402B02D06FF0830352E007F14A
:102840000803BB664023FB6607F1480207F16801F5
:10285000D7F8903000931346D7F894207868FFF7A4
:1028600020FFC7F88800D7F88830002B02D0D7F8AF
:10287000883037E07B689B681846FFF7FBFE07F15E
:10288000480207F16800D7F89030D7F89410FDF7A8
:10289000A9FDC7F888000023C7F88C3018E07B68D2
:1028A0005868D7F88C30DB0098333B4453F8502CF1
:1028B000D7F88C30DB0098333B4453F84C3CD7F8C6
:1028C0008C1010F08FF8D7F88C300133C7F88C30AB
:1028D000D7F88C20D7F890309A42E0D3FDF764FD0A
:1028E000D7F8883018469837BD4680BD80B582B08D
:1028F00000AF6FF083037B6000233B60FEF794FF23
:102900003860FEF79FFF78607B68002B01D07B6802
:1029100002E012F0DDFF034618460837BD4680BDD1
:1029200080B500AFFDF73EFE0346184680BD80B57A
:1029300082B000AFFFF7F4FF78607B68002B01D016
:102940007B6808E0FFF7D2FF78607B68002B01D03E
:102950007B6800E0002318460837BD4680BD80B57F
:1029600082B000AF78607B681B68002B04D1786868
:10297000FFF708FF034601E06FF0850318460837AC
:10298000BD4680BD80B485B000AFF860B9607A60A4
:102990006FF0850318461437BD4680BC704780B47D
:1029A00085B000AFF860B9607A606FF085031846B3
:1029B0001437BD4680BC704780B485B000AFF86066
:1029C000B9607A606FF0850318461437BD4680BC45
:1029D000704780B582B000AF78607B68002200212C
:1029E000184600F032F878680837BD4680BD80B5DB
:1029F00084B000AF786039603B681B68FB603B685F
:102A00005B68BB60B968F86812F0EAFD03461846D7
:102A10001037BD4680BD80B487B000AFF860B960A4
:102A20007A60FB687A681A60FB68BA685A60F8686E
:102A30001C37BD4680BC70470FB480B400AF002384
:102A40001846BD4680BC04B0704780B584B000AF66
:102A5000F860B9607A60FB687A68B9681846FFF771
:102A6000DAFFF8681037BD4680BD80B483B000AF90
:102A7000786039603B687A689A6100BF0C37BD4660
:102A800080BC704790B589B000AF07F1080484E8B6
:102A900003007A603B6000237B6107F11403184652
:102AA00010F030FAB8610023FB611CE07A69FB6921
:102AB0005B0113441A68BB689A4211D17A69FB69B9
:102AC0005B0113441A697B681A607A69FB695B01D0
:102AD0001344D3E902233968C1E90023002308E045
:102AE000FB690133FB61FA69BB699A42DED36FF07F
:102AF0008B0318462437BD4690BD80B485B000AF27
:102B0000F860B9607A606FF0850318461437BD46E7
:102B100080BC704780B485B000AFF860B9607A605F
:102B20006FF0850318461437BD4680BC704780B5EA
:102B30008CB002AF78607B681B69082B03D17B687F
:102B40001B6A0C2B02D06FF0800324E07B6858686E
:102B500007F11802082300210FF02CFF78627B6A2E
:102B6000082B02D06FF0800315E07B689868D7E9E6
:102B7000062307F10C010091FFF794F938623B6AD4
:102B8000002B07D17B68586807F10C020C23002149
:102B90000FF028FF3B6A18462837BD4680BD80B538
:102BA00086B000AF78607B681B69082B02D06FF09D
:102BB000800316E07B68586807F1080208230021AB
:102BC0000FF0F8FE78617B69082B02D06FF080036C
:102BD00007E07B689968D7E902230846FFF786F982
:102BE000034618461837BD4680BD80B500AFFEF7D6
:102BF000B5FF0346184680BD80B485B000AFF860CD
:102C0000B9607A60FB685A68FB68DB68B96801FBE9
:102C100003F31A447B68134418461437BD4680BC3E
:102C2000704780B584B000AF78607B681B689B6894
:102C300000209847F860FB68002B02D06FF09103EA
:102C400000E0002318461037BD4680BD80B586B031
:102C500000AFF860B9607A603B603B6A002B01D13D
:102C600000230CE03A68B968F868FFF7C5FF78619F
:102C70003B6A7A687969F868FFF764F90346184691
:102C80001837BD4680BD80B483B000AF786039602E
:102C9000002318460C37BD4680BC704780B586B00F
:102CA00000AF7860396000237B6116E07A6939688B
:102CB0007868FFF7A1FF38617B681B68DB693869BA
:102CC0009847F860FB68002B02D06FF091030AE090
:102CD0007B689B687A6913447B617B68DB687A69EF
:102CE0009A42E3D3002318461837BD4680BD80B50D
:102CF00086B002AFF860B9607A603B60FB681B6821
:102D00005B8A013B1A463B681340002B02D06FF0F0
:102D100086032CE0FB681B685B8A1A46BB69134478
:102D20005A1EFB681B685B8A5B421340BB617B6871
:102D30009B683A689A4202D96FF0860317E07B6875
:102D4000DB68BA693968184601F08BFD0346002B31
:102D500002D06FF086030AE0FB690193BB69009320
:102D60003B687A68B968F86800F049FC0346184681
:102D70001037BD4680BD80B483B000AF78607B68FB
:102D80001B8A022B01D1012302E07B681B8A023BD4
:102D900018460C37BD4680BC704780B582B000AF86
:102DA00078607868FFF7E7FF024613465B0013443C
:102DB0009B001A467B68DB8A5B0113440833184684
:102DC0000837BD4680BDB0B584B000AF7860002341
:102DD000FB607B681B8A012B03D97B681B8A032B52
:102DE00002D16FF08603FB607B681B8A022B0ED139
:102DF0007B689B8A1D467B68DC687868FFF7CDFF9F
:102E00000346E31A9D4202D96FF08603FB607B689C
:102E10009B8A1A467B68DB689A4202D96FF0860368
:102E2000FB607868FFF7B9FF02467B68DB689A426F
:102E300002D96FF08603FB60FB6818461037BD4669
:102E4000B0BD80B586B000AFF860B9607A60FB684D
:102E5000002B05D0BB68002B02D07B68002B02D171
:102E60006FF0860314E0B868FFF7ADFF78617B6907
:102E7000002B01D07B690BE018220021F86818F0C4
:102E8000F2FCFB68BA681A60FB687A685A60002333
:102E900018461837BD4680BD80B584B000AF786055
:102EA000786801F0CFF9F860FB68002B01D0FB686F
:102EB00019E007F108031A464FF08071786801F0B5
:102EC00090F9F860FB68002B06D1BB68194678685A
:102ED00000F0ADF9034606E0FB6813F18C0F01D05A
:102EE000FB6800E0002318461037BD4680BD80B562
:102EF00082B000AF7860786801F0CAFA03461846DD
:102F00000837BD4680BD80B58EB000AFF860B960AF
:102F10007A6007F1100307F13002B968F86801F030
:102F20001BF978637B6B002B02D06FF08B030AE0F8
:102F3000FA697B685A60BA697B681A603B6A9AB220
:102F40007B689A60002318463837BD4680BD80B53F
:102F50009AB004AFF860B9607A603B6007F11C0377
:102F600020220021184618F07EFC4FF6FF73BB614B
:102F70004FF6FF737B617B68002B02D16FF08603F5
:102F800051E17B689B68B3F1807F02D36FF08603C9
:102F900049E17B685B68FA681268528A13445A1EDA
:102FA000FB681B685B8A5B421A407B685A6007F1CA
:102FB0001C0307F11802B968F86801F0CDF87865CC
:102FC0007B6D002B27D17B689B6803F40033002BBB
:102FD0001ED0BA6A7B685B689A4207D100237B6285
:102FE0007B689B68FB62BB697B6123E0FB6A43F003
:102FF0008073FB62BB6907F11C021946F86801F097
:1030000084FB78657B6D002B14D06FF083030AE19D
:10301000BB697B610EE07B6D13F18C0F08D17B687F
:103020009B6803F48033002B04D16FF08B03FAE02C
:103030007B6DF8E07B694FF6FF7293422ED17B687F
:103040005B68FA681268928A934202D96FF086032D
:10305000E9E0BB694FF6FF72934214BF01230023DE
:1030600087F84F307B6858687B689B6897F84F10EB
:1030700007F13C02039207F11C02029207F11402CD
:103080000192009303460A46B968F86801F0D4F942
:1030900078657B6D002B0FD07B6DC4E0FB6907F179
:1030A0003C021946F86801F07CF978657B6D002BCD
:1030B00002D06FF08303B6E03B68002B2BD007F102
:1030C0001C0207F13C017B6E01933B6800933B6E51
:1030D000F868FFF70CFE78657B6D002B02D06FF06F
:1030E0008303A0E03A6E3B681A447B6A9A4203D994
:1030F0003A6E3B6813447B62FB6BBB64FB69194609
:10310000F86801F017F80346FB63FB691A46B96CCF
:10311000F86801F0C7FAFB6907F13C021946F86844
:1031200001F0D1FA78657B6D002B02D06FF083033C
:1031300079E07B6907F11C021946F86801F0E5FAAD
:1031400078657B6D002B02D06FF083036BE0BA696A
:103150007B69934228BF13463B653A6D0021F868AE
:1031600000F0C4FF78657B6D002B02D06FF0830305
:1031700059E0BB694FF6FF7293421BD0BA697B6975
:103180009A4217D03B6D591CBA697B69934238BF8C
:1031900013461A46F86800F0A9FF78657B6D002B8E
:1031A00002D06FF083033EE0BA697B69934238BF77
:1031B00013463B653B6D591CFB681B68DB8A1A464E
:1031C000F86800F093FF78657B6D002B02D06FF0FC
:1031D000830328E0FB69002B02D13B68002B09D157
:1031E000F86801F08DF878657B6D002B02D06FF0E8
:1031F000830318E0F86801F05CF878657B6D002BBC
:1032000001D07B6D0FE0BB694FF6FF72934209D08E
:10321000BA697B699A4205D0BB691946F86800F023
:1032200006F878657B6D18465837BD4680BD80B579
:103230009EB002AF786039607B681B68DB68BB6654
:1032400000237B6607F134031A463968786801F079
:1032500083F8F866FB6E002B01D0FB6EB0E007F13F
:1032600034031433184601F018FB0346002B02D038
:103270006FF08B03A4E07B6BFB65BB6BBB653B6CAA
:103280007B6507F1340320220021184618F0EBFA81
:1032900007F134031A463968786801F036FAF8669F
:1032A000FB6E002B01D0FB6E8AE000233B6640E002
:1032B0003A6E3B689A4238D007F134031A46396EA9
:1032C000786801F049F8F866FB6E002B01D0FB6EC0
:1032D00076E07B6BFA6D9A421AD107F1340314330E
:1032E000184601F0DAFA0346002B11D1BB6BBA6D18
:1032F0009A420DD2BB6BBA6E9A4201D9BB6BBB66C8
:10330000BA6B7B6DD31ABB633B6C7A6E13447B66DE
:1033100007F134031A46396E786801F0F6F9F86659
:10332000FB6E002B02D0FB6E4AE000BF3B6E013308
:103330003B667B681B68DB8A1A463B6E9342B7D3B9
:103340007B6D002B15D107F128031A460021786800
:1033500001F027F8F866FB6E002B01D0FB6E2FE022
:1033600007F128031A460021786801F0ACF9F866E5
:103370000AE07B6E0193BB6D0093BB6E7A6DF96DB5
:10338000786800F08DF8F866FB6E002B01D0FB6EBC
:1033900016E07B6D002B02D0FB6D002B02D17B6D04
:1033A000002B09D1786800F0ABFFF866FB6E002BAC
:1033B00002D06FF0830303E0786800F07AFF0346E1
:1033C00018467037BD4680BD80B584B000AF7860C8
:1033D000396007F1080200233968786800F0BCFE04
:1033E000F860FB68002B02D06FF08B0305E0BB6830
:1033F00019467868FFF71BFF034618461037BD468D
:1034000080BD80B590B002AFF860B9607A603B6073
:1034100007F1100307F13002B968F86800F09CFE6C
:1034200078637B6B002B02D06FF08B031CE0BB69D1
:103430007A683968184601F014FA78637B6B002BC0
:1034400001D07B6B10E007F110013B6C00937B68AF
:103450003A68F86800F0A9F878637B6B002B02D01B
:103460006FF0830300E0002318463837BD4680BD67
:1034700080B586B000AF7860396007F108031A465E
:103480003968786800F08DFF78617B69002B02D085
:103490004FF0FF3300E0BB6818461837BD4680BDCB
:1034A00090B58DB002AFF860B9607A603B600023E0
:1034B000FB61002387F8233007F110031A46B9682F
:1034C000F86800F06EFF78627B6A002B01D07B6A9F
:1034D00067E0BA697B681344BB61B968F86800F0BB
:1034E00029FEF861FB6B002B14D03A69FB6B01934A
:1034F0003B6800931346BA6BF969F86801F021F94B
:1035000078627B6A002B02D06FF0830349E00123CD
:1035100087F823307B69BA6B9A4217D978693C697E
:103520007B697A69B96B8A1A019200932346024635
:10353000F969F86801F005F978627B6A002B02D01E
:103540006FF083032DE0012387F823303B69BA68CD
:103550001946F86801F0A6F8FB693B6107F1100312
:103560001A46B968F86801F0AEF878627B6A002BF9
:1035700006D0BA68F969F86801F094F87B6A10E03F
:10358000BB68002B0CD097F92330002B08D0FB68C8
:103590005B68DB68FA681268F969104698477862D8
:1035A0007B6A18462C37BD4690BD90B589B002AFF6
:1035B000F860B9607A603B60BB681B681946F868C0
:1035C000FFF756FF78617B69B3F1FF3F02D16FF0DF
:1035D000830310E0BB685B687A6813443B61FB6857
:1035E0005B685C68FB6818683B6800933B69BA6A73
:1035F0007969A047034618461C37BD4690BD90B573
:103600008BB002AFF860B9607A603B607B681B6882
:103610001946F86800F08EFDB8617B685B683A680F
:1036200013447B61BB685868BB681C68BB685B68F7
:10363000BA68526879698A1A019200932346024651
:10364000B969F86801F07DF8F861FB69002B01D0D9
:10365000FB693FE0FB685B689C68FB6818683B6B34
:1036600000937B697A6BB969A047F861FB69002B0D
:1036700001D0FB692EE07B685A687B68DB681344E5
:103680007B61FB681B68DA68BB689B68D21A7B6940
:10369000D31A3B61BB681A683B6901937B6900934D
:1036A00013467A69B969F86801F04BF8F861FB696B
:1036B000002B01D0FB690DE07B681B68002B08D054
:1036C000FB685B68DB68FA681268B969104698475E
:1036D000F861FB6918462437BD4690BD80B485B0BB
:1036E00000AF78607B681B681B8A022B0FD07B6859
:1036F0001B681B8A1A467B68FB60FB681B681B8A79
:10370000022B01D1002300E00323D31A00E00023A1
:1037100018461437BD4680BC704780B483B000AFF4
:1037200078607A6813465B0013449B0008331846A0
:103730000C37BD4680BC704780B584B000AF786060
:1037400039607B68FB60F868FFF7C8FF03465A1CC6
:1037500013465B0013449B001A463B685B0113440D
:10376000083318461037BD4680BD80B485B000AF21
:1037700078607B685B69FB607B681A697B685A616B
:103780007B68FA681A6100BF1437BD4680BC704779
:1037900080B487B000AFF860B9607A60BB689B798D
:1037A0007B757B689B793B75FB681B681B7E002BD8
:1037B00002D10123FB7501E00023FB753A7DFB7DFF
:1037C0009A4207D17A7DFB7D01339A4202D00123D0
:1037D000BB7514E07A7DFB7D9A4207D13A7DFB7D73
:1037E00001339A4202D00023BB7508E03A7D7B7D0D
:1037F0009A4202D90123BB7501E00023BB75BB7D52
:1038000018461C37BD4680BC704790B585B000AFE8
:10381000786039603B681C687B68BB60B868FFF7FC
:103820005DFF034601339C4202D36FF097033FE0F4
:103830003B681433184601F030F80346002B36D1AC
:103840003B68DB687A681268928A934202D96FF00B
:1038500097032DE03B689A683B68DB689A4202D97F
:103860006FF0970324E03B681B68002B0ED13B6888
:103870005C687B681B68DB8A19467868FFF75CFF29
:1038800003469C4202D26FF0970311E07B681B68ED
:10389000D8683B6859683B68DB681A4600F0E1FF6E
:1038A000F860FB68002B02D06FF0970300E0002364
:1038B00018461437BD4690BD80B584B000AF78601F
:1038C00039600023FB603B681B687A681268128AC3
:1038D000934202D36FF0970329E07B681B68D86896
:1038E0003B6859683B689B681A4600F0BAFFB860AD
:1038F000BB68002B02D06FF0970318E03B681B6891
:10390000002B03D03B681B68012B07D17B681B6829
:10391000DB8A19467868FFF70FFFF8603B685B6841
:10392000FA689A4202D06FF0970300E0002318462D
:103930001037BD4680BD80B586B000AF7860396075
:1039400000237B613B681B687A681268128A934285
:1039500002D36FF0970334E07B681B68D8683B683C
:1039600059683B689B681A4600F07BFF38613B69E9
:10397000002B02D06FF0970323E03B681B68002BFD
:1039800003D03B681B68012B12D17B68FB60F86891
:10399000FFF7A4FE03465A1C13465B0013449B002A
:1039A0001A467B681B68DB8A5B01134408337B6122
:1039B0003B685B687A699A4202D06FF0970300E037
:1039C000002318461837BD4680BDB0B594B002AF8D
:1039D000F860B9607A60002387F83F30BB68002B3D
:1039E00002D0BB68012B02D17B68002B02D16FF0A3
:1039F000860374E000237B642BE0FB685B685C68F3
:103A0000FB681D68786CFFF788FE034607F1140217
:103A10000C210091B9682846A047B863BB6B002B06
:103A200001D0BB6B5BE000233B640CE007F11402A8
:103A30003B6C13441A7897F83F30534087F83F3077
:103A40003B6C01333B643B6C0B2BEFD97B6C01333C
:103A50007B64FB687B63786BFFF740FE03460133B2
:103A60007A6C9A42C9D300237B642CE0FB685B68C4
:103A70005C68FB681D68796CF868FFF75DFE0346BB
:103A800007F1140220210091B9682846A047B863C5
:103A9000BB6B002B01D0BB6B21E000233B640CE02F
:103AA00007F114023B6C13441A7897F83F305340E7
:103AB00087F83F303B6C01333B643B6C1F2BEFD9E5
:103AC0007B6C01337B64FB681B68DB8A1A467B6C6A
:103AD0009342CBD37B6897F83F201A700023184697
:103AE0004837BD46B0BD80B586B000AFF860B9605C
:103AF0007A6007F113031A467968F868FFF765FFE3
:103B000078617B69002B01D07B6908E0BB685A793A
:103B1000FB7C9A4202D06FF0910300E0002318462C
:103B20001837BD4680BD80B58CB000AF78600B46BD
:103B3000FB700023FB6224E007F108031A46F96AD0
:103B4000786800F009FCB862BB6A002B02D04FF61F
:103B5000FF731FE007F108031433184600F09DFEC1
:103B60000346002B0AD0FB7883F00103DBB2002B65
:103B700002D00123FB7001E0FB6A0BE0FB6A01331A
:103B8000FB627B681B68DB8A1A46FB6A9342D3D3CD
:103B90004FF6FF7318463037BD4680BD80B584B000
:103BA00000AF78607B685B681B697A6810687A6828
:103BB000526911469847F860FB68002B01D0FB68FA
:103BC00013E07B681B681B8A022B0DD901217868E2
:103BD00000F0B0FAB8607B685B681B697A681268AD
:103BE000B96810469847F860FB6818461037BD461C
:103BF00080BD90B589B002AFF860B9607A60B868EE
:103C0000FFF78BFD7861FB685B689C68FB68186850
:103C1000FB6859690C2300937B697A68A0470346C7
:103C200018461C37BD4690BD80B58CB002AF786099
:103C300039607B685B697B627B681B693B623B68C0
:103C4000002B3BD007F108031A460021786800F0EA
:103C5000A8FBF861FB69002B02D06FF0830346E0FC
:103C60007B6ABB6007F108031A4600217868FFF7FA
:103C7000C0FFF861FB69002B02D06FF0830336E0D0
:103C80003B68012B1AD90120FFF747FDB86138685E
:103C9000FFF743FD0246BB69D31A7B617B69019341
:103CA000BB6900933B6ABA69796A786800F049FD9C
:103CB000F861FB69002B01D0FB6918E03B68013318
:103CC0001846FFF72AFDB86100217868FFF734FD38
:103CD0000246BB69D31A7B617B690193BB69009380
:103CE0003B6ABA69796A786800F02BFD034618468A
:103CF0002837BD4680BD80B58CB000AFF860B96094
:103D00007A600023BB75BB681B7987F82B3007F1FD
:103D100016037B6297F82B30012B04D17B6A0122BA
:103D20001A7000230AE097F82B30022B04D17B6A2B
:103D300000221A70002301E06FF08303FB62FB6A2C
:103D4000002B01D0FB6A31E0BB7D002B11D0BB689A
:103D50005A79FB683B621346FB773B6A1B681B7E04
:103D6000FA7F9A4202D16FF0830300E00023FB62E6
:103D70001BE0BB689A79FB68BB611346FB75BB69A6
:103D80001B681B7EFA7D9A4202D16FF0830300E02C
:103D90000023FB62FB6A002B01D0FB6A06E07A6815
:103DA000B968F868FFF79FFEF862FB6A184630377B
:103DB000BD4680BD90B589B002AF78607B689B7BC3
:103DC0000133DAB27B689A737B689A7B7B683B61CC
:103DD0001346FB733B691B681B7EFA7B9A4202D138
:103DE0006FF0830300E000237B617B69002B05D02B
:103DF0007B689B7B0133DAB27B689A737B68596975
:103E00007B680D331A467868FFF7DFFD78617B69C0
:103E1000002B01D07B690EE07B685B689C687B6847
:103E200018687B6859697B6803F1080208230093CE
:103E30000023A047034618461C37BD4690BD90B5E9
:103E40008FB002AF78600023FB767B681B7B87F81E
:103E5000233007F11B03FB6197F82330012B04D1BA
:103E6000FB6901221A7000230AE097F82330022B25
:103E700004D1FB6900221A70002301E06FF0830374
:103E8000FB62FB6A002B01D0FB6A41E0FB7E83F002
:103E90000103DBB2002B01D0002339E007F10C0352
:103EA0001A460021786800F0A0FAF862FB6A002B3D
:103EB00001D0FB6A2CE07B681B68DA687B69D31A47
:103EC000083BBB627B685C690020FFF726FC01466B
:103ED0007B681A69BB6A01930823009313460A465C
:103EE0002146786800F02DFCF862FB6A002B01D0B7
:103EF000FB6A0DE07B6808337B627B6A5A797B68DA
:103F00009A737B6802221A73786800F0D2F903462C
:103F100018463437BD4690BD90B587B002AF786083
:103F20007B685B685C687B6818687B6819697B687C
:103F300003F10802082300930023A047F860FB6800
:103F4000002B01D0FB6809E07B6803F108017B6866
:103F50001B691A467868FFF7CEFE034618461437E9
:103F6000BD4690BD80B588B000AFF860B9607A609A
:103F70003B600023FB6136E0FA6AF969F86800F0FB
:103F800010FAB861BB69002B02D06FF0830336E0F2
:103F9000FB6A9B687A689A4222D8BB6AFA691A60FF
:103FA000FB681B68DA68FB6A9B68D21ABB6A5A60B6
:103FB000BB6A7A68DA60BB6A14330C22B9681846A7
:103FC00017F00BFCBB6A00229A60BB6A3A681A6160
:103FD000FB6A9A687B68D21AFB6A9A6000230EE03B
:103FE000FB690133FB61FB687B617869FFF776FB56
:103FF00003460133FA699A42BED36FF08D03184627
:104000002037BD4680BD90B58DB002AF78604FF0CF
:10401000FF337B62002387F823307B685B685C6832
:104020007B68186807F1140208230093002300211D
:10403000A047F861FB69002B10D107F1140300229F
:1040400019467868FFF757FE0346002B06D197F80C
:104050002330013387F8233000237B627B685B6861
:104060005C687B68186807F10C0208230093002342
:104070000121A047F861FB69002B10D107F10C0367
:10408000012219467868FFF736FE0346002B06D159
:1040900097F82330013387F8233001237B6297F8A8
:1040A0002330012B0AD907F10C0207F1140319463A
:1040B0007868FFF76DFB03467B6206E097F82330D4
:1040C000002B02D16FF083030CE07B687A6A1A61DF
:1040D0007B6A002B0CBF01230023DBB21A467B68EE
:1040E0005A61002318462C37BD4690BD80B588B074
:1040F00002AFF860B9607A60B968F868FFF71CFB36
:1041000078617968F868FFF717FB3861FB685969CF
:10411000FB6818693A697B69D31A01937B6900933C
:1041200003467A69F86800F00CFB03461846183716
:10413000BD4680BD80B483B000AF786039603B6815
:10414000002B02D17B685B6901E07B689B681846A5
:104150000C37BD4680BC7047B0B58EB000AFF8607C
:10416000B9607A603B6000237B632DE007F11003A8
:104170001A46796BF86800F0EFF838633B6B002B58
:1041800002D06FF0830328E007F1100314330C22F0
:10419000B968184617F086FD0346002B11D17B68DD
:1041A0007A6B1A603B68002B09D03B681D4607F10B
:1041B00010040FCC0FC594E80F0085E80F00002312
:1041C0000BE07B6B01337B63FB681B68DB8A1A4661
:1041D0007B6B9342CAD36FF08B0318463837BD46CA
:1041E000B0BD80B58EB000AFF860B9607A600023D2
:1041F0007B631AE007F110031A46796BF86800F048
:10420000ABF838633B6B002B02D06FF0830315E0F3
:104210003A6ABB681340002B04D07B687A6B1A6043
:1042200000230BE07B6B01337B63FB681B68DB8A3D
:104230001A467B6B9342DDD36FF08B0318463837F9
:10424000BD4680BD80B584B000AF78607B685B6898
:104250001B687A68126810469847F860FB68002B64
:1042600001D0FB6821E07868FFF7CDFEF860FB68BD
:10427000002B02D06FF0830317E07868FFF74CFE45
:10428000F860FB68002B02D06FF083030DE07868C4
:10429000FFF784FCF860FB68002B02D06FF083030B
:1042A00003E07868FFF7CBFD034618461037BD469C
:1042B00080BD80B584B000AF78607868FFF77AFD84
:1042C000F860FB68002B01D0FB6815E07B685B6839
:1042D000DB687A6810687A68526911469847F86016
:1042E000FB68002B01D0FB6806E07868FFF73DFA19
:1042F0007868FFF753FC034618461037BD4680BD6B
:1043000090B58BB002AF786007F10C031A4600211C
:10431000786800F046F8F861FB69002B01D0FB6972
:1043200016E07B681B68DA683B69D21A7B69D31A8E
:10433000BB617B68596938697B681C693B69BA69EC
:104340000192009323460246786800F0FAF903468A
:1043500018462437BD4690BD90B589B002AFF860CD
:10436000B9607A60B968F868FFF7E6F93861FB6808
:104370005B685C68FB681868FB6819692023009318
:104380003B697A68A04778617B69002B04D1796822
:10439000F868FFF73AFA78617B6918461C37BD4622
:1043A00090BD90B589B002AFF860B9607A60B86826
:1043B000FFF7B3F93861FB685B685C68FB681868F5
:1043C000FB6819690C2300933B697A68A047786100
:1043D0007B69002B04D17968F868FFF76DFA786182
:1043E0007B6918461C37BD4690BD90B589B002AFB9
:1043F000F860B9607A60BA6813465B0013449B00AA
:1044000008333B61FB685B685C68FB681868FB68A5
:1044100019690C2300933B697A68A04778617B692E
:10442000002B04D17968F868FFF785FA78617B6919
:1044300018461C37BD4690BD80B588B002AFF86005
:10444000B9603B601346FB71FB6A0193BB6A009342
:104450003B6A3A68B968F868FFF784FD7861FB79D0
:104460001946F868FFF75FFB02467B6A1A607B69B2
:10447000002B05D17B6A1B684FF6FF72934202D175
:104480006FF08D0300E0002318461837BD4680BD4D
:1044900080B594B000AF786000237B647868FFF744
:1044A000B2FD0346002B02D17B685B697B647B68AD
:1044B0005B681B697A681268796C10469847F864E3
:1044C000FB6C002B01D0FB6CE8E07B685B681B6930
:1044D0007A6810687A6C002A0CBF01220022D2B2DE
:1044E00011469847F864FB6C002B01D0FB6CD5E0BB
:1044F0007B681B681B7E002B01D1012200E000229B
:104500007B689A737B683B643B6C1B681B8A022B3D
:1045100001D1012200E002227B689A607B680222BE
:104520001A737B6801225A617B6800221A617B68DA
:104530001B68DB8A19467868FFF7FEF803463B6381
:104540007B681B68DA683B6BD31A7B637B685B69AB
:10455000FB6207F12C031A4600217868FFF749FB3C
:10456000F864FB6C002B01D0FB6C97E000233B63ED
:104570007B681B68DB687B630023BB6419E07B6896
:104580005B681B697A6810687A68FA63FA6B12686C
:10459000128A022A01D1002100E00321BA6C0A44E8
:1045A000114698470246FB6C1343FB64BB6C013316
:1045B000BB647868FFF792F80246BB6C9342DED387
:1045C000FB6C002B02D06FF0910367E00023BB640B
:1045D0001EE07B68BB63BB6B1B681B8A022B01D18F
:1045E000002200E00322BB6C1344FB62BB6C01336E
:1045F00007F12C0219467868FFF7FBFAF864FB6CA8
:10460000002B02D06FF0830348E0BB6C0133BB6426
:104610007868FFF763F80246BB6C9342D9D307F181
:104620000C0320220021184617F01DF90023BB645B
:1046300010E007F10C031A46B96C786800F065F8D1
:10464000F864FB6C002B02D06FF0830326E0BB6C98
:104650000133BB647B681B68DB8A1A46BB6C9342E0
:10466000E7D37868FFF7A6FBF864FB6C002B02D059
:104670006FF0830312E07B685B68DB687A68106820
:104680007A68526911469847F864FB6C002B01D098
:10469000FB6C03E07868FFF768F800231846503792
:1046A000BD4680BD80B485B000AFF860B9607A6067
:1046B0007B68002B02D0FB68BA689A6000BF143791
:1046C000BD4680BC704780B586B000AFF860B96069
:1046D0007A60BB68002B03D1FB685A697B681A605B
:1046E0007A68B968F868FFF784FA78617B69002B0B
:1046F00002D06FF0830304E0B968F868FFF794FA1A
:10470000034618461837BD4680BD90B589B002AF44
:10471000F860B9607A60B968F868FFF70DF87861F9
:10472000FB685B689C68FB681868FB685969202314
:1047300000937B697A68A047034618461C37BD463C
:1047400090BDB0B5C8B002AF07F58C74A4F58674FF
:10475000206007F58C70A0F58870016007F58C71FA
:10476000A1F58A710A6007F58C72A2F58C7213604C
:104770006DE0D7F82C31B3F5807F28BF4FF48073FC
:10478000C7F8143107F58C73A3F586731B685B6853
:104790005C6807F58C73A3F586731B68186807F1CE
:1047A000100207F58C73A3F58C71D7F814310093C0
:1047B000D7F828310968A047C7F81001D7F8103199
:1047C000002B02D0D7F8103146E007F58C73A3F523
:1047D00086731B685B689C6807F58C73A3F586730A
:1047E0001B68186807F58C73A3F58A7307F1100529
:1047F00007F58C72A2F58871D7F8142100921B6816
:104800002A460968A047C7F81001D7F81031002BD5
:1048100002D0D7F810311FE007F58C73A3F58A7327
:1048200007F58C72A2F58A721168D7F814210A4430
:104830001A60D7F82821D7F814311344C7F8283163
:10484000D7F82C21D7F81431D31AC7F82C31D7F860
:104850002C31002B8DD10023184607F58C77BD46EF
:10486000B0BD80B485B000AFF860B9607A60BA6856
:10487000FB689A4202D96FF0860309E0FA68BB68C8
:10488000D31A7A689A4202D96FF0860300E00023B7
:1048900018461437BD4680BC704780B485B000AF61
:1048A00078600C23FB6007E07B685A1C7A601B78F9
:1048B000002B01D0002306E0FB685A1EFA60002B93
:1048C000F2D16FF08B0318461437BD4680BC704799
:1048D00080B500AF08F0C6F90023184680BD80B54A
:1048E00082B000AF7860FFF7F3FF03461846083741
:1048F000BD4680BD80B588B000AF786043F65C23CC
:104900007B610423FB610423BB6100233B61002323
:10491000BB6002E0FB69013BFB61FB69002B0BD034
:10492000FB695A1E7B68043253F82230002BF1D009
:1049300002E0BB69013BBB61BB69002B07D0BB69CF
:104940005A1E7B68083253F82230002BF1D07B6866
:104950001B69042B09D17B681B6A042B05D8FB69F2
:10496000012B02D1BB69012B01D0012344E07B68FC
:1049700058687B681B6907F10C0200210EF01AF8D9
:1049800038613B69042B01D0012335E07B689B68CB
:10499000002B0CDAFB6807F10C021146184608F0F0
:1049A00050FB78617B69002B01D0022324E07B68F7
:1049B0009B68F9680022184608F01CFB78617B6947
:1049C000002B01D0012317E0F8687B681B6A07F110
:1049D0000802194608F037FA78617B69002B01D08C
:1049E000012309E07B6858687B681B6A07F10802AD
:1049F00000210DF0F7FF002318462037BD4680BD8B
:104A000080B588B000AF786043F65C237B610423F7
:104A1000FB610423BB6100233B6102E0FB69013BB6
:104A2000FB61FB69002B0BD0FB695A1E7B680432CB
:104A300053F82230002BF1D002E0BB69013BBB618F
:104A4000BB69002B07D0BB695A1E7B68083253F83C
:104A50002230002BF1D07B681B69042B05D1FB6948
:104A6000012B02D1BB69002B01D0012337E07B6809
:104A700058687B681B6907F10C0200210DF09AFF52
:104A800038613B69042B01D0012328E07B689B68D7
:104A9000002B0CDAFB6807F10C021146184608F0EF
:104AA000D0FA78617B69002B01D0022317E07B6884
:104AB0009B68F9680022184608F09CFA78617B69C7
:104AC000002B01D001230AE0FB68184608F06FFABA
:104AD00078617B69002B01D0012300E00023184698
:104AE0002037BD4680BD80B5AEB000AF78600023F2
:104AF000C7F8B4300023C7F8B03007F194030022A0
:104B00001A605A6007F18C0300221A605A6007F19C
:104B10004C0340220021184616F0A5FE07F10C03B5
:104B200040220021184616F09EFE0023BB606FF065
:104B30008303C7F8A4300023C7F8A0300423C7F8C4
:104B4000AC300423C7F8A83004E0D7F8AC30013B00
:104B5000C7F8AC30D7F8AC30002B0ED0D7F8AC305B
:104B60005A1E7B68043253F82230002BEDD004E04B
:104B7000D7F8A830013BC7F8A830D7F8A830002BE9
:104B800008D0D7F8A8305A1E7B68083253F8223074
:104B9000002BEDD0D7F8AC30002B07D0D7F8AC30D5
:104BA000022B03D8D7F8A830012B02D96FF080036D
:104BB00072E07B68586807F10802042300210DF0B9
:104BC000F9FE0346C7F8A030D7F8A030042B02D076
:104BD0006FF0800360E0D7F8AC30012B2BD97B68F5
:104BE0005B69C7F89C30D7F89C30402B02D96FF036
:104BF000890351E07B6858687B685B6907F14C0268
:104C000001210DF0D7FE0346C7F8A030D7F8A03039
:104C1000D7F89C209A4202D06FF080033CE007F165
:104C20004C03C7F89430D7F89C30C7F8983007F198
:104C30009403C7F8B430D7F8A830002B12D07B68A3
:104C40001B6A402B02D96FF0800325E007F10C03AB
:104C5000C7F88C307B681B6AC7F8903007F18C036B
:104C6000C7F8B030BB68D7F8B020D7F8B4101846F2
:104C700008F052F80346C7F8A430D7F8B030002B3C
:104C800008D07B685868D7F88C20D7F8903000217E
:104C90000DF0A8FED7F8A4301846B837BD4680BD41
:104CA00080B582B000AF08F0A5F878607B68002B73
:104CB00002D06FF0920300E0002318460837BD468B
:104CC00080BD80B5ADF54E7D00AF07F54E73A3F501
:104CD0004D73186007F54E73A3F54C7318464FF4E7
:104CE0004C731A46002116F0BEFD07F54E73A3F56E
:104CF0004D731A6807F54E73A3F54C7310461946A9
:104D00004FF44C731A4616F068FD07F54E73A3F581
:104D10004D73186807F54E77BD4680BD80B487B0E7
:104D200000AFF8603B1D83E80600FB685B687B61B1
:104D3000FB6814333A1D92E8030083E803007B69A3
:104D4000DBB2002B06D17B6923F0FF0343F00102A5
:104D5000FB685A6000BF1C37BD4680BC704780B4FA
:104D600083B000AF786039607A683B68143393E8A9
:104D7000030082E8030078680C37BD4680BC7047AA
:104D800080B483B000AF786039607B683A685A605D
:104D90003B68DBB2002B02D17B6800225A6100BF66
:104DA0000C37BD4680BC704780B483B000AF7860DC
:104DB0007B681B6803F48053002B05D07B681B685D
:104DC00043F480627B681A607B681B6803F40053BD
:104DD000002B05D07B681B6843F400627B681A6077
:104DE00000BF0C37BD4680BC704780B582B000AFB5
:104DF000786039603B461846FFF7D6FF3A687B6813
:104E00009A6000BF0837BD4680BD80B483B000AF54
:104E100078607B689B6818460C37BD4680BC70473D
:104E200080B483B000AF786039607B683A68DA603C
:104E300000BF0C37BD4680BC704780B483B000AF64
:104E400078600B467B807B687A881A8000BF0C37BD
:104E5000BD4680BC704780B483B000AF78603960D5
:104E60003B684FF6F872934204D97B684FF6FF72A5
:104E70005A8003E03B689AB27B685A8000BF0C37C7
:104E8000BD4680BC704780B582B000AF78607B685B
:104E9000002200211846FDF7D8FD78680837BD4686
:104EA00080BD80B588B000AF786039600023FB60BA
:104EB00007F10C0318460EF025F838614FF0020296
:104EC0004FF00003C7E9062300237B6113E0FA6873
:104ED0007B695B0113441B687A689A4208D1FA68BF
:104EE0007B695B011344D3E90223C7E9062306E08B
:104EF0007B6901337B617A693B699A42E7D3D7E9E1
:104F00000623911E0B4309D139684FF002024FF07E
:104F10000003C1E900236FF08B0305E03968D7E98E
:104F20000623C1E90023002318462037BD4680BD73
:104F300080B58EB000AFF860B9607A603B60002346
:104F40007B6300237B6107F1140318460DF0CAFF51
:104F5000B86200233B634EE079693A6B13465B000D
:104F600013449B000B441B687A689A4240D17969CC
:104F70003A6B13465B0013449B000B445B68002BA9
:104F800009D179693A6B13465B0013449B000B44CB
:104F90009B687B6333E079693A6B13465B0013448B
:104FA0009B000B445B687B6279693A6B13465B003C
:104FB00013449B000B449B683B620023FB6212E09E
:104FC000FB6ADB003A6A13441B68BA689A4207D14D
:104FD000FB6ADB003A6A13445B687B6300BF0EE048
:104FE000FB6A0133FB62FA6A7B6A9A42E8D306E005
:104FF0003B6B01333B633A6BBB6A9A42ACD3FB68B1
:1050000024331C221946386816F0E7FB07F1180311
:105010007A68B9681846FDF718FD07F1180393E898
:1050200006003868FFF77AFE796B3868FFF7DDFE17
:10503000002318463837BD4680BD00000A5B437226
:105040007970746F5D20556E737570706F727465D2
:10505000642072657175657374210A0054462D5081
:1050600053412D43727970746F20312E312E3000F0
:105070003C4372656174696E6720616E20656D7076
:1050800074792049545320666C617368206C61798F
:105090006F75742E0A0000003C4372656174696E7E
:1050A0006720616E20656D70747920505320666CA6
:1050B000617368206C61796F75742E0A00000000BE
:1050C000010000000200000004000000232C010089
:1050D0004D2C01009D200100872C01009D2C01001A
:1050E0001E25733A20536B697070696E67206B657B
:1050F000795F6964202530387820286F776E657273
:105100003A202564292064756520746F2025303885
:105110007820706C6174666F726D206572726F7248
:105120000D0A000074666D5F6275696C74696E5F6C
:105130006B65795F6C6F616465725F696E6974003D
:105140000F4B02689A4206D1C269A3F11023A3F162
:10515000EF139A4201D0012070478368012BFAD8DF
:10516000C36813B102699342F5D043692BB18069DA
:10517000C01AB0FA80F0400970471846704700BF67
:1051800055AA00FFF8B5164B996829B10846FFF7F4
:10519000D7FF10B9CB680BB10120F8BD0B69002B0C
:1051A000FBD0104D104E1A68AA42F5D1DA69B2420E
:1051B000F2D19A68012AEFD8DC68002CECD01A6989
:1051C0009442E9D05F691FB1D3F818C06745E3D0B6
:1051D0008C42E1D11946002ADFD01346E3E700BF35
:1051E000E8AC002055AA00FF669911EE002865D0B2
:1051F00070B5374D2B68002B54D0AA68002A51D0C7
:105200008342014661D86A68134498425DD2A0F196
:1052100020063046FFF794FF002856D151F8183C7D
:10522000012B52D151F8144C41F8180C51F8100CC4
:10523000002C38D0A368002B35D151F81C2C6368A2
:10524000203213442061636000B1C4602022002139
:10525000304616F008FB2069F0B18368E3B92646B2
:105260004268736813440269203373603261D6E97F
:10527000051331B38B6103B15961D0E90513C6E958
:105280000513E1B18E61B36903B15E6102B1D6600D
:105290002022002116F0E7FA2B699B0702D5FFF7C1
:1052A00071FF90B970BD10B18368002BD8D0EB6846
:1052B00041F8083C03B15E61EE60EDE77047EE60D7
:1052C000E2E7002BD9D0EB60D6E7012016F07EFA9A
:1052D000E8AC00202DE9F84F3E4D2C68002C40D062
:1052E000AC68002C3DD000283AD0002938D001FB12
:1052F00000F6B6FBF0F0884232D1301D30D8B1074D
:1053000032D13146EC6814B92BE0A4694CB3636820
:105310008B42FAD3D4F808C0BCF1000F56D1D4E9BF
:1053200005705B1A232B814622D80123A360002F2E
:1053300048D0B861A06900B1476100232A69C4E977
:105340000533D20703D5FFF71DFF00283ED12034D7
:1053500032460021204616F086FA2046BDE8F88F36
:1053600000242046BDE8F88F26F003010431C9E788
:10537000D4F8108001F1200EDFF85CB0DFF85CA0FB
:1053800004EB0E02203BC2E9013CC2E9034844F8A9
:105390000EB0C2F81CA0B8F1000F01D0C8F80C2064
:1053A000C2E9057987B1BA61906900B14261002311
:1053B0006160296922610122C4E90533CB07A2603B
:1053C000C5D5C0E7E860B6E7EA60EEE7012016F071
:1053D000FDF900BFE8AC002055AA00FF669911EE68
:1053E00038B50D46142200210446114816F03BFA48
:1053F000104911480DF0AAFD232D18D914F003030C
:1054000004D0043DC3F104021D4414442A46002183
:10541000204616F028FA064B084A0948A5F1200153
:10542000C3E901541C60E061C4E90021DC6038BDBF
:10543000E8AC0020ED510100D552010055AA00FF53
:10544000669911EE0000000000000000000000005E
:10545000000000000000000000000000000000004C
:1054600080B582B000AF164B7B604FF4CC72002148
:10547000134816F0F8F97B684FF480729A617968E6
:105480000DA3D3E90023C1E904230D4B012283F8C6
:1054900090210B4B002283F891217B68012283F835
:1054A0002820786800F0DAFB034618460837BD4626
:1054B00080BD00BFAFF3008000BD40DFE143E14E9F
:1054C0006820002000000000B0B592B002AF786004
:1054D000714B3B6100237B6100233B7600237B768D
:1054E0000023FB6100233B627B687B6107F11003B3
:1054F0007B637B6B1B6807F10802019200934FF4FA
:10550000C87300224FF001004FF0000112F08EF935
:1055100038633B6B002B02D07B6B01221A727B6BD2
:105520005B6807F10802019200934FF4C8730022F0
:105530004FF002004FF0000112F078F938633B6B36
:10554000002B02D07B6B01225A7200BF0023FB6349
:1055500016E0FB6B9B0040333B4453F8303C4FF468
:1055600080729A61FB6B9B0040333B4453F8301CC4
:1055700047A3D3E90023C1E90423FB6B0133FB6399
:10558000FB6B012BE5D907F11003FB62FB6A0C33BF
:105590001946002001F066FCB862BB6A002B01D0FE
:1055A000BB6A30E007F10C031946012001F05AFCF8
:1055B000B862BB6A002B01D0BB6A24E0FB6A1033DF
:1055C0001946022001F04EFCB862BB6A002B01D0E4
:1055D000BB6A18E0FB6A1A69FB689A4202D0FB6A50
:1055E00000221A61FB6A1B7A012B03D0F96A0020A2
:1055F00001F036FAFB6A5B7A012B03D0F96A0120CD
:1056000001F02EFA0023BB63BB6B002B01D0BB6BF8
:1056100039E007F110037B627B6A1B6893F828303E
:10562000012B02D07B6A01221A727B6A5B6893F8B5
:105630002830012B02D07B6A01225A7200BF07F189
:105640001003184600F0C2FBB863BB6B002B01D0FF
:10565000BB6B18E0104B93F891310133DA171C46FD
:1056600015462046294612F051F9B863BB6B002B52
:1056700005D0BB6B13F18C0F01D0BB6B03E0064868
:1056800000F02EFE002318464037BD46B0BD00BFD7
:1056900000BD40DFE143E14E6820002080B582B0CC
:1056A00000AF78601A4A7B6813607B681B68A3F2BE
:1056B000E933042B25D801A252F823F0D15601007A
:1056C000DB560100E5560100EF560100F9560100D6
:1056D000786800F0CDFF034615E0786801F009F81E
:1056E000034610E0786801F047F803460BE078685D
:1056F00001F07CF8034606E0786801F09FF8034665
:1057000001E06FF0800318460837BD4680BD00BF3A
:105710000029002080B584B000AF78603960002394
:10572000FB600A4B1B6858683B687A6801210DF0E2
:1057300041F9F860FA683B689A4202D06FF0800342
:1057400000E0002318461037BD4680BD0029002028
:1057500080B582B000AF78603960064B1B6858682E
:105760003B687A6800210DF03DF900BF0837BD465F
:1057700080BD00BF0029002080B582B000AF0D4B76
:1057800019460D4816F069FA00F054F878607B6805
:10579000002B0AD001F007F978607B68002B01D05C
:1057A0007B6803E000F046F878607B6818460837AD
:1057B000BD4680BD00015005E86E0100B0B586B061
:1057C00000AFC7E902017A600D4B7A68D7E90201A0
:1057D00000F000FC78617B69002B03D100F0DAFC5B
:1057E000786108E0064B1B6800221C4615462046DF
:1057F000294612F08BF87B6918461837BD46B0BDB4
:105800000429002080B586B000AFC7E902017A60A4
:105810003B60064B1B680649184601F0FAFA7861AE
:105820007B6918461837BD4680BD00BF042900209B
:105830002018002080B582B000AF0648FFF744FE74
:105840007860054B054A5A607B6818460837BD46A4
:1058500080BD00BF58180020042900202018002017
:1058600080B586B000AFC7E902017A603B600023D3
:105870003B612B4B7A68D7E9020100F01FFC78618D
:105880007B69002B01D07B6945E02649D7E90223DB
:10589000C1E90423234A7B689361214B1B6807F10C
:1058A00010022049184601F076FA78617B69002BD6
:1058B00029D11C4B9B6A3A689A4203D96FF0860340
:1058C0007B6112E0174B9A6A3B68D31A3A6A93429B
:1058D00028BF13463B623B68134A1344396A184693
:1058E000FFF736FF7B6A3A6A1A607B69002B05D1A5
:1058F0003B69184601F04BF8786105E03B691846B2
:1059000001F045F800E000BF40F6480200210548DC
:1059100015F0A9FF7B6918461837BD4680BD00BF4A
:10592000042900202018002058180020B0B590B09D
:1059300000AFC7E902017A603B600023BB6301232B
:105940007B6300237B61002387F833303B6DB3F525
:10595000006F02D96FF08603C0E0624B7A68D7E926
:10596000020100F0ABFBF863FB6B002B2AD1012393
:1059700087F833305C49D7E90223C1E904235A4A46
:105980007B689361574B1B6807F114025649184610
:1059900001F001FAF863FB6B002B73D1524B1B6BC8
:1059A00003F00103002B03D06FF08403FB635EE080
:1059B0004D4A3B6813634C4A3B6DD362494B1B68AD
:1059C000BB6328E0FB6B13F18C0F22D102237B63B6
:1059D000D7E90223C7E90A237B687B623B683B6205
:1059E0003B6DFB61404BBB6140F648020021B8694A
:1059F00015F039FFB969D7E90A23C1E90423BB6966
:105A00007A6A9A61BB69FA69DA62BB693A6A1A63AF
:105A100001E0FB6B62E0396D3448FFF77BFEF86311
:105A2000FB6B002B1CD12F49786B00F075FAF863E3
:105A3000FB6B002B16D12C4A3B6D936207F11403CC
:105A40007A68D7E90201FFF7DDFEF863FB6B002BF4
:105A50000AD0BB6B002B09D0224ABB6B136005E058
:105A600000BF04E000BF02E000BF00E000BFBB6B6E
:105A7000002B09D0FB6B002B06D07B69184600F089
:105A800086FF02E000BF00E000BFFB6B002B06D1E9
:105A90007A68D7E90201FFF791FEF86308E097F80A
:105AA0003330002B04D07A68D7E90201FFF786FE75
:105AB000FB6B002B0BD1BB6B002B08D0BB6B002208
:105AC0001C4615462046294611F020FFF86340F693
