:020000024000BC
:10000000B84C022061B50400F5AD04004DB5040004
:100010004DB504004DB504004DB504004DB50400C8
:10002000000000000000000000000000FDB6040019
:100030004DB50400000000008DB604004DB504006D
:1000400019B9040019B9040019B9040019B9040058
:1000500019B9040019B9040019B9040019B9040048
:1000600019B9040019B9040019B9040019B9040038
:1000700019B9040019B9040019B9040019B9040028
:1000800019B9040019B9040019B9040019B9040018
:1000900019B9040019B9040019B9040019B9040008
:1000A00019B9040019B9040019B9040019B90400F8
:1000B00019B9040019B9040019B9040019B90400E8
:1000C00019B9040019B9040019B9040019B90400D8
:1000D00019B9040019B9040019B9040019B90400C8
:1000E00019B9040019B9040019B9040019B90400B8
:1000F00019B9040019B9040019B9040019B90400A8
:1001000019B9040019B9040019B9040019B9040097
:1001100019B9040019B9040019B9040019B9040087
:1001200019B9040019B9040019B9040019B9040077
:1001300019B9040019B9040019B9040019B9040067
:0401400019B90400E5
:1001480003685A004CBF43F0004323F000431844AF
:1001580070472DE9F0470646174641B301394FF07D
:100168000009884609EB080404EBD474641006EB14
:10017800C4054FEAC40A2846FFF7E2FFA14204D1AA
:10018800B84204D82846BDE8F087B84204D9A1454A
:100198000DD004F1FF38E5E70AF108003044FFF715
:1001A800CFFF0138B842EDD204F10109DAE70025A2
:1001B800E8E7012806D0022806D00028034818BF1F
:1001C800002070470248704702487047D50704006E
:1001D800D9070400DD0704001F4B37B504468D1E00
:1001E8004BB101A92846AFF3008048B90023092084
:1001F800236103B030BD1948194B1B1ADB1001935A
:1002080001992A46FFF7A5FF01460028EED0FFF71F
:1002180097FF4B68A064012B1AD0002B01F1040052
:1002280010DBFFF78DFF0023C4E913030368002BDD
:100238000ADAC3F30360FFF7BCFF03460028D5D0F2
:100248000020D5E70123EFE7FFF77AFF0346F7E73A
:1002580000230520CCE700BF00000000248B070026
:10026800EC8B07000368DA0710B5044605D49B0732
:1002780000F1480018D500F0F7FB2368590703D4AC
:1002880004F1D00000F0F8FB23681A0703D404F542
:10029800A87000F0F9FB2368DB0608D404F5E870C1
:1002A800BDE8104000F034BC00F0D6FBE5E710BD17
:1002B800092070470346006800B11844704770472A
:1002C80070B505460C46216C2846FFF785FF0646A3
:1002D80008B10BF041FE236C2246294601206B61D0
:1002E8002B6998470828EED00728F2D13046216CB0
:1002F800FFF7E5FF201D00F0A3FB2DE9F0470C1DDB
:10030800ADF5727DD0F80C900746D0F818A01646C7
:1003180003AD0DF108080FCC0FC50FCC0FC50FCCDE
:100328000FC594E80F0085E80F000025C8F80050B5
:100338000936D8F840103846FFF74EFF0446F6B2A3
:1003480068BBD8F840304FF4F07241467AA87B6118
:1003580038F0CCF83B697AAA394630469847889BEA
:100368000546C8F844303A463B4631460120CDE9B7
:10037800008AC847C0B9C4B94FF4F0727AA9404698
:10038800264638F0B3F8082DD2D0072D0CD12046D8
:10039800D8F84010FFF793FF03A800F051FB46F090
:1003A8001006D8F83830DCE7092420460DF5727DB0
:1003B800BDE8F087406C7047F0B5CB6BF9B00D1D08
:1003C80006460B640F4601AC0FCD0FC40FCD0FC40A
:1003D8000FCD0FC495E80F0084E80F004FF0FF33EE
:1003E800009310993046FFF7F7FE78B933696A46EB
:1003F8003146984708280446F3D06846FFF732FF8D
:10040800062C03D139463046FFF75AFF092079B048
:10041800F0BD10B48261DA6BC16019461A6400221B
:1004280010BC6AE770B543690446C6680D460B649C
:1004380026B10122FFF761FF0BF08EFD03690A4622
:10044800014602209847072805D00828F4D12946F4
:100458002046FFF735FF3046296CFFF730FF281D8F
:1004680000F0EEFAC26802B9A6E7CA6B0A64002275
:1004780043E77047836801460BB10120184770476E
:10048800012910B50446084605D005D9C81E01281B
:100498008CBF0220012010BD43B90F2A06D804EBF7
:1004A8008204029A184661681160F4E70220F2E7B4
:1004B8001FB503AB0A46009300231946FFF7E0FF78
:1004C800039805B05DF804FB012910B504460846F9
:1004D80005D005D9C81E01288CBF0220012010BDF7
:1004E80043B90F2A06D8029904EB82041846096812
:1004F8006160F4E70220F2E71FB503AB03920A46F6
:10050800009300231946FFF7DFFF05B05DF804FBF1
:10051800F0B5D36BADF50F7D141D064613640F4679
:1005280017AD0FCC0FC50FCC0FC50FCC0FC594E876
:100538000F0085E80F004FF0FF33169326996846A1
:10054800FFF74AFE90B90C2116A86A46FFF7D4FFB8
:10055800394616A8B04748B9049B16AA6946082028
:1005680098470528044602D00928E7D1092416A887
:10057800FFF778FE20460DF50F7DF0BD2DE9F04F11
:10058800CD6C87B017460C4655F8042B00F00309CC
:100598009A4604953BBB12028DF81530032303924B
:1005A800B9F1020F8DF81430236D08BFA56B13F055
:1005B800010322D100F0080800932B6843BB03A96C
:1005C800384600F04AFB002840F0FB80009BDBB176
:1005D8000F213846FFF76CFF0E2102463846FFF719
:1005E8008BFF794A55E0130C12048DF81530DBB2F5
:1005F800039205EB83050223D2E703A9384600F0EE
:100608002CFB002840F0DD80082007B0BDE8F08F03
:10061800BAF1020FA26C4FF00F01384607BFD5F8A8
:1006280004B005F10806B5F802B02E1D18BF2B88D6
:100638002BF0010501931544FFF73AFF019B854212
:1006480029D823F001022A44824294BF00220122C1
:100658004FEA4B0003F0010300F0020040EA0305F3
:10066800012D1AD0022D5ED0002D40F0AA80351D34
:10067800B9F1000FA1D0002A9FD03046FFF760FDE6
:10068800A56306462046AFF30080002800F0998055
:1006980032460F213FE00022DAE7B9F1000F26D1F8
:1006A800002A3DD073683268991C4FEAD27200F074
:1006B800888004F158010133029109D0301DFFF7F9
:1006C800F9FD02AB01462046AFF30080054638B37A
:1006D8000D213846FFF7ECFE022D029B206202D165
:1006E800E36204F12C030620C4E909368DE7256A84
:1006F8000D213846FFF7DCFE854211D1A36A9E42E0
:100708000ED13046FFF71CFD0F2102463846FFF791
:10071800F3FE224600213846FFF7EEFE072074E775
:1007280006F1080549E7356825F00045B9F1000FDD
:100738002AD1A2B1B8F1000F19D085B9CB4617E07C
:100748000BF1010B019B002206EB8B000293FFF7D4
:10075800B1FD02AB01462046AFF3008058B13368C3
:10076800002B00DA0436013506EB850525E7C3467C
:1007780004F158030193AB45E2D10D213846FFF748
:1007880097FE029B2062AEE7D4F820B00D213846D0
:10079800FFF78EFE8345E2D1A36A9E42DFD14FF078
:1007A800000B0423A562C4E90BB3F3186363336831
:1007B8005B4503DA681C06EB8000A3E7012300937E
:1007C800D1E7092021E700BF000000000023D5E69B
:1007D8000123D3E60223D1E62DE9F0410546C2B054
:1007E80014461E46042925D8DFE811F005001C0030
:1007F8002400D6000301EEB9836B92B201210430C4
:1008080001FA06F717421CBF53F8047B40F826701C
:100818000136102EF4D1A60400D4AB63002042B0F8
:10082800BDE8F081012E4FEA124794B204D13B197A
:10083800102B41D90220F2E7052EFBD107EB040863
:10084800B8F1200FF6D80F2F4DD9002CE6D0036849
:10085800A046580708D523F00403284640F8D03BA3
:1008680000F00EF90F2F48D9684600F009F9AB6B74
:10087800102F3A4642A94FEA480838BF10221C46B2
:1008880008F1FF3801EBC2024FEA8801A2F5C472F1
:10089800101F02EB880254F804CB40F804CF8242C0
:1008A800F9D10A1D012E134417D00F2FAB636FD94E
:1008B800684600F0E1F8B1E7102FBBD00368DA070B
:1008C80005D523F0030340F8483B00F0C9F820A8F9
:1008D80000F0C6F8AB6B002C3FD1043320A8AB6303
:1008E80000F0BAF89AE7B8F1100F03682DD9DC07C1
:1008F800A8F1100842D45807ADD420A8C7F11004B5
:1009080000F0B6F8684600F0BBF820AA6400AB6BAC
:1009180002EBC702013C101FA10002EB84021C4637
:1009280054F804CB40F804CF9042F9D10A1D13447F
:10093800B8F1000F9CD1012ECFD00F2FAB633FF63B
:100948006DAF20A800F090F868E7D9070DD420A86B
:1009580000F08EF8AB6B002CF3D0640020AA4FF0A7
:10096800000802EBC702013CD5E723F0010343F07E
:10097800020340F8483B00F07BF8E8E723F0010366
:1009880043F0020340F8483B00F072F82B68B2E7E6
:1009980020A800F069F88BE7032E7FF44BAF97B2DD
:1009A800160C07EB1244102C3FF644AF03681907E6
:1009B80006D523F00803036000F5A87000F086F858
:1009C80020A800F083F820ABAA6BF90003EBC6035C
:1009D80003EBC707D41ABB4203EB040005D10A4452
:1009E80020A8AA6300F050F818E7006843F8040B41
:1009F800F1E7002E7FF41EAF102A3FF61BAF036805
:100A0800DA0606D523F01003036000F5E87000F05D
:100A180089F820AE304600F085F8AB6B0022012142
:100A280001FA02F020421CBF53F8040B46F82200DA
:100A38000132042AF4D13046AB6300F069F8EDE6E0
:100A480000F1340191E838009C46A6464CF8045D54
:100A580090E8FF0FE54600BD90EC210B704700BF02
:100A680080EC210B704700BF90EC200B704700BF53
:100A780080EC200B704700BFD0EC200B704700BF04
:100A8800C0EC200B704700BFF0EC0201F0EC021143
:100A9800F0EC0221F0EC0231F0EC0241F0EC0251F2
:100AA800F0EC0261F0EC0271F0EC0281F0EC0291E2
:100AB800F0EC02A1F0EC02B1F0EC02C1F0EC02D1D2
:100AC800F0EC02E1F0EC02F1704700BFE0EC02014B
:100AD800E0EC0211E0EC0221E0EC0231E0EC024132
:100AE800E0EC0251E0EC0261E0EC0271E0EC028122
:100AF800E0EC0291E0EC02A1E0EC02B1E0EC02C112
:100B0800E0EC02D1E0EC02E1E0EC02F1704700BF5A
:100B1800B0FC0181B0FC0191B0FC01A1B0FC01B1B5
:100B2800704700BFA0FC0181A0FC0191A0FC01A1BD
:100B3800A0FC01B1704700BFEC4600B52DE900509C
:100B48002DE9FF1F4FF000032DE90C0001A9FFF765
:100B580033FCDDF840E012B0704700BFEC4600B54A
:100B68002DE900502DE9FF1F4FF000032DE90C007F
:100B780001A9FFF757FCDDF840E012B0704700BF4D
:100B8800EC4600B52DE900502DE9FF1F4FF000039A
:100B98002DE90C0001A9FFF765FCDDF840E012B073
:100BA800704700BFEC4600B52DE900502DE9FF1F46
:100BB8004FF000032DE90C0001ABFFF72AFCDDF82C
:100BC80040E012B0704700BFEC4600B52DE9005078
:100BD8002DE9FF1F4FF000032DE90C0001AAFFF7D4
:100BE80097FCDDF840E012B0704700BF10F8012B09
:100BF80011F8013B012A28BF9A42F7D0D01A704752
:100C0800034611F8012B03F8012B002AF9D170478C
:100C1800027A03467AB9427A82B1013A427242684C
:100C2800111D12680260032241601A721A68100EC0
:100C380012021A607047013AD2B2F6E7B020704744
:100C48001FB503AB0C22009300231946FFF718FCCD
:100C5800039805B05DF804FBF2E72DE9F04305467B
:100C680085B00E464FF000083046FFF7D1FFB02898
:100C7800044615D1B8F1000F0ED103AC43460E223D
:100C8800414628460094FFF7FBFB43460F224146A6
:100C980028460094FFF718FC002005B0BDE8F08353
:100CA80002061DD44FEA8009002303AF0D225FFA24
:100CB80089F9194628460097FFF7E2FB09F104096C
:100CC800039B14F0400F14BFA3EB09034B44039399
:100CD800002300970D2219462846FFF7F5FBC3E7C6
:100CE80000F0F003802B18D104023046FFF790FF84
:100CF8000443B4F5004F01D10920CEE724010023B5
:100D08002846A2B21946FFF767FD0028F4D114F46B
:100D1800004F18BF4FF00108A6E7902B0DD100F047
:100D28000D030D2BE8D003AF002300F00F02284677
:100D380019460097FFF7A4FBCAE7A02B13D1C343BA
:100D48004FF47F6203F007031A41030702F47F623E
:100D580001D542F48042002319462846FFF73CFD9E
:100D6800002881D0C8E7B02B46D1B12808D1304639
:100D7800FFF74EFF431E0246DBB20E2BEBD9BBE753
:100D8800B22820D1002303AC0D222846194600942E
:100D98000227FFF775FB3046FFF73AFF00F07F01A7
:100DA80010F08003039A01FA07F105D102F50172E8
:100DB80000940A4403928DE70A44304607370392A9
:100DC800FFF726FFEAE7B3280BD13046FFF720FFED
:100DD8000123020300F00F0002F4702201300243E5
:100DE800BAE700F0FC03B42B86D000F00702012319
:100DF800013242F40022AFE7C02B44D1C6280AD101
:100E08003046FFF705FF0323020300F00F0002F44A
:100E180070220130E3E7C7280BD13046FFF7F8FE10
:100E2800431E0246DBB20E2B3FF666AF00230421B9
:100E380093E700F0F803C02B06D100F00F0203235C
:100E4800013242F4202287E7C8280DD13046FFF747
:100E5800DFFE00F0F00200F00F0005231032013031
:100E680040EA0232012178E7C9287FF445AF3046CD
:100E7800FFF7CEFE0523020300F00F0002F47022F4
:100E880001300243EEE700F0F803D02B7FF434AFD3
:100E980000F007020523013242F40022E2E71FB501
:100EA80003460846DA6C53680832190202921B0E90
:100EB8000322019101A98DF80C208DF80D30FFF760
:100EC800CCFE05B05DF804FB08B5FFF7C5FE806CE5
:100ED80008BD08B5FFF7C0FEC06CC379023300EB4C
:100EE800830008BD000000002DE9F0430FF27C09E3
:100EF800D9E9008914258DB000240E4605950546CC
:100F08001BBA174F0A93174B12BA4FEA066CCDE972
:100F18000301CDE900443946204609920293012293
:100F28002346CDF820C0CDE9068900F027FB06A9A5
:100F3800284600F0A3FA84460B4B2046CDE902353B
:100F4800CDE9004423466446394601220496CDF88B
:100F580014C000F013FB20460DB0BDE8F08300BFBD
:100F6800A8900700109D0700449D070042454E3297
:100F780000000001000000002DE9F0430646884B00
:100F8800D0F888008FB01E602CF058FE81460028EB
:100F980000F0ED80304600F0D5FFB0F10008C0F257
:100FA800DB800221D6F88C30D6F88820FFF79CFF2A
:100FB80007462CF079F842014B01121A43EAD06334
:100FC80063EB010395009B002D1843EA927341EBF4
:100FD8000304E40044EA5574C5F3103545EA444572
:100FE800E40B002F00F083802CF05EF84A014FEAF2
:100FF800401CBCEB000C42EAD06262EB01024FEAF3
:101008008C0392001B1842EA9C7241EB0201C90052
:1010180041EA5371C3F3103343EA41435B1B4FEA80
:10102800D13161EB0401022B71F100013FDA012596
:10103800002440460CF0D6F8DFF8688148462CF0CA
:10104800F5FD002FC8F8307077DB4FF4FA50D6F86A
:101058008C70012D74F100062A462346BCBF01227C
:101068000023A7FB0001C8F84050C8F83870C8F83A
:10107800444030F035FDCDE904540E4605460023C2
:10108800494ACDE90033CDE90227CDE906560322C6
:101098001846C8E915654549C8F85050C8F85C6055
:1010A8001F4600F06BFA38460FB0BDE8F0832BF00E
:1010B800FBFF4FEA401C4B01BCEB000C43EAD0633A
:1010C80063EB01034FEA8C029B00121843EA9C73FE
:1010D80041EB0303DB0043EA5273C2F3103242EAE6
:1010E8004342551B4FEAD33363EB0404A1E7304B6B
:1010F800494600934046D6E9223200F0FBFB0746FA
:1011080000287FF471AFD6F88C300A900C901BBA87
:10111800404608A90B9320A3D3E90023CDE908236F
:1011280000F0ACF9074600287FF45EAF0221404684
:1011380008AA00F067FA074656E7002200230021B4
:101148003846C8E91054C8E91423C8E91623C8F872
:1011580038100FB0BDE8F0834746124B4846C3F835
:1011680030802CF063FD38460FB0BDE8F083D6F828
:101178008810104A0346CDE90221CDE9000001227A
:101188000A4900F0FBF96FF00B03064A1F46136388
:1011980089E700BFAFF3008042454E3200000002ED
:1011A80008D0012008C00120D4A50700A890070096
:1011B800C8A507009CA507002DE9F04705460F467E
:1011C800164688B02BF070FF44014B01241A43EAFD
:1011D800D06363EB0103A2009B00121843EA9473E7
:1011E80041EB0303DB0043EA5273C2F31038012FCB
:1011F80048EA43484FEAD33443D0766833782D2BF6
:1012080038D031462848FFF7F1FC002840D124A304
:10121800D3E900234046214630F058FC06460C46E8
:1012280010461946214A002330F050FC80460F46EC
:10123800104619464EF66022002330F047FC8246DD
:101248008946104619464FF47A72002330F03EFC66
:10125800CDE902A9CDE90401CDE9062328463246A5
:101268002346CDE90087124907F06CFB002008B03F
:10127800BDE8F0877378702BC3D1B378002BC6D044
:10128800BFE74246234628460A4907F05BFBEDE7DD
:1012980028463246084907F097FB6FF00400E6E756
:1012A800005C260500000000ECBA070080EE36005E
:1012B80010BB0700D8BA0700F8BA0700704700BF8C
:1012C800002300B587B0DDF828C00BA8039005906F
:1012D80003221846CDE90033CDF808C004F00AFE11
:1012E80007B05DF804FB00BF30B50024144D154B62
:1012F80085B029462046029303222346CDE90044BF
:10130800FFF7DEFF10492046CDE901412346294673
:1013180003220094FFF7D4FF49F69A1000212AF01F
:101328005BFF02F085FE09482346CDE90140032210
:10133800204629460094FFF7C3FF204605B030BD7C
:10134800D8900700189907003C990700749907007E
:10135800E0B10378D3B190F88030BBB1D0F88830D1
:101368005A1EB2F5803F11D2D0F88C2093420DD886
:10137800D0F89030B3F57A7F08D3D0F89420054B95
:101388009A4294BF00206FF0150070476FF0150067
:10139800704700BFC02709000EB400B582B003AB88
:1013A80053F8041B049A01930CF03AF802B05DF864
:1013B80004EB03B0704700BF2DE9F04100270D464C
:1013C80014461E4682B0DFF8B0800090ADF8067073
:1013D800ADF804102BF068FE42014B01121A43EAE3
:1013E800D06363EB01034FEA820C9B001CEB000007
:1013F80043EA927341EB0301C90041EA5071C0F31B
:10140800103040EA4140221A66EBD133012A73F1C9
:10141800000127DBADF80670B2F1004F73F100034D
:10142800A8BF6FF00042012168460BF07DFD00283F
:1014380045F010020CDB15D0BDF90630990614D41E
:1014480013F0080014D11342C4D002B0BDE8F081F3
:1014580037F05EFB58F800000428BBD0404202B0C9
:10146800BDE8F0816FF07300EFE76FF00800ECE77C
:101478006FF00400E9E700BF0C0000002DE9F04F11
:1014880085B007468946039100262BF00DFE4FF0E4
:10149800140AB04644014A01241A42EAD06262EBB7
:1014A8000102A500DFF8CCB092002D1842EA947230
:1014B80041EB0204DBF80030E40044EA5574D3F849
:1014C8009030C5F3103545EA4445ED184FEAD43459
:1014D80044F100040023524649463846CDE90088C5
:1014E8000BF036FF002813DC3ED037F011FB224BFF
:1014F80018580428EED00B2839D12A46234604214F
:101508003846FFF759FF0028E4DA05B0BDE8F08F48
:101518000644039BC6F1140A03EB06092BF0C4FD2D
:101528004A014401241A42EAD06262EB0102A50092
:1015380092002D1842EA947241EB0201DBF8003068
:10154800C90041EA5571D3F89030C5F3103545EA22
:101558004145ED184FEAD13141F10004132EB9D9B4
:10156800002005B0BDE8F08F6FF06700CDE740427E
:10157800CBE700BF08D001200C000000002300B515
:1015880087B0DDF828C00BA803900590CDE900339B
:101598001846CDF808C004F0ADFC07B05DF804FBB0
:1015A80000238C4670B58EB0CDE90033114A039004
:1015B8000292DCF80050104E104C03229D4218BFD6
:1015C8003446CDE90445DCE90A45CDE90C45DCE9BA
:1015D8000845CDE90A45DCE90645CDE90845184640
:1015E800DCE904450649CDE90645FFF7C7FF0EB01B
:1015F80070BD00BFB4990700AC99070040280800E7
:10160800A89007000B462DE9F04F002680461D469E
:1016180014249246754A8BB00292099301223346EC
:101628003046CDE90066CDE9038571490594FFF799
:10163800A5FF2BF039FD5746B146A3464A014401A0
:10164800241A42EAD06262EB0102A500694B9200BB
:101658002D1842EA947241EB02041B68E40044EA44
:101668005574D3F89030C5F3103545EA4445ED1864
:101678004FEAD43444F1000400235A463946404620
:10168800CDE900990BF098FE002824DC00F0988042
:1016980037F03EFA584B1B58042BEDD00B2B51D189
:1016A8002A46234601214046FFF786FE0028E3DA52
:1016B800074600235149099ACDE9021804921846B1
:1016C8000122CDE900334A490597FFF757FF38460D
:1016D8000BB0BDE8F08F06442BF0E6FC4A0144014C
:1016E800241A42EAD06262EB0102A500414B920043
:1016F8002D1842EA947241EB02011B68C90041EAC5
:101708005571D3F89030C5F3103545EA4145ED18C9
:101718004FEAD13141F10004132EC6F1140B0AEB44
:101728000607A9D9354B099A02930023CDE903820C
:1017380018460122CDE900992D49CDF81490FFF7FC
:101748001DFF13E09B46099B2C4ACDE90383002328
:10175800CBF10007029218460122CDE900992449ED
:101768000597FFF70BFFBBF1000FB0DCDAF80010AC
:10177800234BDAF80420994212BA24D1099B9342E8
:1017880021D1099B1F4804930023DAF80870DAF87E
:101798000C10DAF810203FBA7F4209BA12BA029048
:1017A800069118460792CDE90033012210490597A2
:1017B800CDF80C80FFF7E2FE38460BB0BDE8F08F9D
:1017C8006FF0670775E700230F4809BA0290099878
:1017D800CDE90512CDE9038001221846CDE9003391
:1017E80003496FF04C07FFF7C9FE70E70C9A070032
:1017F800A890070008D001200C000000409A0700BC
:1018080042454E32B89A0700749A07002DE9F04F06
:101818008DB0169B80460A93179B0F461646DDF837
:1018280060909DF864B00B932BF03EFC42014B0195
:10183800121A43EAD06363EB010395009B002D184D
:1018480043EA927341EB0304E40044EA5574C5F398
:10185800103545EA4445E40B002E42D06420324658
:101868000023A7FB000130F03BF98246BBF1000FD3
:101878000FD11D4B1B68D3F8941079B3D9F80030F9
:10188800EA1AD9F8043064EB03038A4273F10003BF
:1018980024DB4FF4FA500A9BA7FB0001EA1A0B9BC2
:1018A80064EB0303012A73F1000CBCBF012200237F
:1018B80030F016F900230D4A0696F61BCDE908010B
:1018C800029218460322CDE9038ACDE9003308497C
:1018D80007960597FFF752FEC9E900540DB0BDE819
:1018E800F08F4FF0640AC1E708D00120F89A07008A
:1018F800A89007002DE9F04F93B015469846CDE91A
:101908000A012BF0D1FB724B46011B68361AD3F83B
:1019180090204FEA411343EAD06363EB0103B4001C
:101928009B00241843EA967341EB0301C90041EA7E
:101938005471C4F3103343EA414012EB00094FEAF3
:10194800D133CDE910030E900F9343F1000A002D17
:1019580000F0BA800021CDF830808B460C460F4647
:1019680088460D9116E000F0AA8037F0D1F8594B5F
:101978001E58042E0CD00B2E40F0A4804A46534625
:1019880001210A98FFF718FD061E08F1010869DB16
:10199800A5427CD9DDE90A010C9B2A1B9A4228BF83
:1019A8001A46CDE9007700230BF006FD00280BF15D
:1019B800010BD8DD0B9AC4EB44135333013ADBB265
:1019C80002EB000C01E094450CD012F8016F03F112
:1019D8001F019E42CBB2F6D06FF04C06304613B0D2
:1019E800BDE8F08F0D9B0444834238BF03460D9336
:1019F8002BF05AFB364B86461B684FEA4E1AD3F833
:101A080090900E9BBAEB0E0A00930F9B4FEA8A0642
:101A1800019310AB02930B464FEA431C4CEADE6C71
:101A28006CEB030C4FEA8C0C16EB0E064CEA9A7C16
:101A380043EB0C03DB0043EA5673C6F3103646EA61
:101A4800434616EB09094FEAD33343F1000A2B1B2F
:101A5800B3FA83F35B092A4621461C980393FFF7E0
:101A6800D5FE95E700231C4A184602921C9ACDE938
:101A780007880392CDE904640122CDE9007717496C
:101A88000695FFF77BFD304613B0BDE8F08F414661
:101A98000026134B304602930D9B0591CDE90613A2
:101AA8001C9B03220393CDE9006633460B49CDF80E
:101AB80010B0FFF763FD304613B0BDE8F08F6FF04C
:101AC80067068BE7764289E72946AB460D95DFE73F
:101AD80008D001200C000000409B0700A8900700D8
:101AE800809B07002DE9F04F9DB017469846CDE939
:101AF80014012BF0D9FA46014FEA411C361A4CEA78
:101B0800D06C6CEB010CB5002D189F4B4FEA8C0084
:101B180040EA96701A6841EB0001C900D2F890407B
:101B280041EA5571C5F3103949EA414992F89820BC
:101B3800C90B14EB0900CDE91A910F9141F100018D
:101B4800012A1690179100F0C081002F00F0D9816A
:101B58000023CDF860901E464FF480141D469A4627
:101B6800BB46C14610931193ABEB06034B4528BF08
:101B78004B461A46002B00F0A5801599C6EB461374
:101B880017330139DBB2881801F8013F884203F1A5
:101B98001F03DBB2F8D100235F46CDE912420E9352
:101BA800CDF86490784B139A1B680E9993F8983087
:101BB800A2EB0108012B04D1B8F5806F28BF4FF4C0
:101BC8008068DDE9140100230E9C4246CDE900330C
:101BD80021440BF0BDFB00280AF1010A00F38B80B9
:101BE80000F0858136F094FF684B1B58042B60D0B9
:101BF8000B2B40F0838101352BF056FADDE91623D3
:101C08008146884614980421FFF7D6FB83462BF0BB
:101C18004BFA082D03D9C5F30903002B45D15C4BBA
:101C28004FEA411C029300234201121A4CEAD06C7D
:101C38006CEB010C4FEA8C0C4CEA927C9200101869
:101C480041EB0C014FEA49124FEA481CB2EB09027A
:101C58004CEAD96C6CEB080C4FEA8C0C4CEA927C81
:101C6800920012EB090248EB0C08C9004FEAC808B9
:101C780041EA507148EA5278C0F31030C2F310328A
:101C880040EA414042EA4842801A4FEAD13161EBCA
:101C9800D831CDE9060101221846CDE9046BCDE91A
:101CA80000333C490395FFF769FCBBF1000FC0F214
:101CB800F580139B0E9A93423FF674AFBB46129C75
:101CC800DDF86490B3453FF64FAF57460024109BAC
:101CD80003220893304B20460293119BCDE9065509
:101CE8000593269BCDE9004403932A49234604978C
:101CF800FFF744FCE5E0804502D9119B01331193BD
:101D0800109B0644834238BF034610930E9B03443E
:101D18000E932BF0C9F902464FEA401C4FEA411EC8
:101D2800BCEB000C4EEAD26E6EEB010E4FEA8C0053
:101D38008018154B4FEA8E0242EA9C7241EB020171
:101D48001B68C90041EA5071D3F89030C0F31030D5
:101D580040EA4140129CC3184FEAD131169341F131
:101D68000003A6421793C0F08880A742C0F0858080
:101D7800CDF848A04FF00008DFF820B0DFF8149045
:101D8800DDF860A032E000BF08D001200C000000A0
:101D9800549C0700A8900700C89C0700F09B070008
:101DA800012000210023DDF840C0CDE90601CDE97E
:101DB8000B5CDDF844C00122CDF824C0DDF848C032
:101DC80049461846CDE90367CDE9018B0A95CDF858
:101DD80020C0CDF80080FFF7D1FB14F5801F04F573
:101DE80080147ED2A64245D3A74243D32BF05CF998
:101DF800844642014B01121A43EADC6363EB010398
:101E080090009B0010EB0C0043EA927341EB030136
:101E1800C90041EA5071C0F3103040EA41400F9BBD
:101E2800B0EB0A004FEAD13161EB0301022871F1EE
:101E38000001B5DB2BF038F9844642014B01121A38
:101E480043EADC6363EB010390009B0010EB0C009A
:101E580043EA927341EB0301C90041EA5071C0F3B0
:101E6800103040EA41400F9BC90BB0EB0A0061EB10
:101E7800030197E7DDF848A01294189B3A460093AF
:101E88000F9B31460193BB1BB3FA83F35B090393A2
:101E98001AAB26980293FFF7B9FC0AE700231B4AFE
:101EA80026980292039001221846CDE90755CDE9FC
:101EB8000567CDE900331649CDF810B05C46FFF749
:101EC8005DFB20461DB0BDE8F08F00231149184680
:101ED8000291CDE90387CDE900330D49FFF74EFBA9
:101EE80033E64FF0FF33DDF848A01293C5E76FF0F3
:101EF80067031C4620461DB0BDE8F08F5B421C46B8
:101F0800DFE73D4610971197E0E600BF889C070081
:101F1800A8900700B89B070010B5094B82B0009342
:101F28000446D0E9032381680068FFF7DBFD6060A1
:101F380004F1140002B0BDE8104028F057BB00BF00
:101F4800089D07002DE9F04F0546ABB0442200215B
:101F580018A836F0D7FA002395F89820CDE912335F
:101F6800022A0F93109396BFBC4BBD4B53F82230F7
:101F780001200393BB4B01210293002305F1800646
:101F8800CDE91A01CDE9003318460122B649CDE959
:101F98000456FFF7F3FA0A22304610A92FF0F0FE94
:101FA800109B07469E4200F0BC821C78002C40F033
:101FB800B8824FF6FE73421E9A4200F2B2824FF088
:101FC800010943BAADF84A30ADF848902946484669
:101FD80013AA0BF04DFA484500F0B781A34B4A46C7
:101FE8002046A1490293CDE903562346CDE9004492
:101FF800FFF7C4FA314618AA0FAB28460BF024F8AD
:1020080007460F9B20460493994B4A460293CDE915
:102018000044234694490397FFF7B0FA002F40F095
:10202800A0820F9B002B00F09C82D3F81880DA69FD
:10203800CDF818800B921A6938460592DA688A49F1
:1020480004929B684A4603938A4BCDE90077029332
:102058003B46CDF82890FFF791FA36F059FD00235A
:1020680095F89840844E012C335000F03B82002CA8
:1020780040F08782814B2046029301222346CDE916
:1020880000447949FFF77AFA0121062208460BF045
:1020980061F80446002CC0F26E810027784B384660
:1020A8007149029301223B46CDE900770394FFF77B
:1020B80065FA4FF47A7236F02BFDDFF8C8A1834633
:1020C800DAF800303750D3F890906F4B1597A3FB90
:1020D80009139B09149302FB139302FB03F3169352
:1020E800102315220093012114AB20460BF0FAF9B6
:1020F800031E0C93B6BF56F80B300D970D930027AF
:1021080036F006FD83463750102314220121009330
:10211800204614AB0BF0E6F90028B8BF56F80B7050
:102128004FF0000B0D9BCDE9070706930C9B01228E
:10213800CDE90493554B58460293CDE900BB5B4665
:1021480049490394FFF71AFA95F89890B9F1010FE5
:1021580000F0A8805A4603212046FFF71DF9002801
:10216800C0F2DE8040F4804204212046FFF714F9D3
:102178000028C0F2D58036F0CBFC0746DFF810C146
:10218800F7595B4601225846CDE904B7CDE900BBB3
:102198003549CDF808C00394FFF7F0F936F0B8FCDC
:1021A8004FF000090746DFF8ECC046F80790012217
:1021B8004B464846CDE90348CDE900992A49CDF870
:1021C80008C0FFF7DBF942460B9920460BF066F88A
:1021D8008046F359012205932F4B48460293CDE9D7
:1021E80000994B4620490394CDF81080FFF7C6F9B3
:1021F800C84580F25681F759A7F17703012B40F2C1
:10220800E5800B2F00F0E280244B7F420293484682
:102218004B460122CDE9009913490397FFF7AEF920
:1022280036F076FC054600237559DFF874C00122A4
:102238001846CDE90475CDE900330B49CDF808C03F
:102248000394FFF79BF920460AF0CCFF0A9B002B6A
:1022580040F0B58038462BB0BDE8F08F3CA80700A9
:10226800789D0700809D0700A8900700209E070022
:10227800489E0700D49E07000C0000004C9F0700F2
:1022880008A0070008D00120D34D621028A007003D
:10229800A4A10700D0A107000CA207004CA20700C8
:1022A800A0A30700C04B4A4658460293CDE900BB9D
:1022B8005B46BE49FFF762F936F02AFC0746DFF8AD
:1022C800F0C246F807B05B464A465846CDE903488F
:1022D800CDE900BBB549CDF808C0FFF74FF9424634
:1022E80020460B990AF0DAFF5845C0F2EB80B14B53
:1022F8004A46029358465B46CDE900BBAB49039476
:10230800FFF73CF995F89820012A00F0FD800A9B18
:10231800002B40F0D280274638462BB0BDE8F08F1E
:1023280036F0F6FB3358A44A5F42CDE90473002324
:10233800029218460122CDE900339C490394FFF725
:102348001DF9002FFFF66CAF28E79C4BCDE9004440
:10235800CDE902352346082412A90B91BDF848108F
:102368000246059118469149049706940A93A04697
:10237800FFF704F971E636F0CBFB0746002556F85F
:1023880007E0DFF83CC201222B462846CDE9034E80
:10239800CDE9015C85490095FFF7F0F8F759894ABE
:1023A8007F422B46CDE9022728460122CDE9005578
:1023B8007E49FFF7E3F80A9B002B3FF44BAF0F98D9
:1023C8000AF0B6FE38462BB0BDE8F08F4FF0000893
:1023D800DAF800300122D3F890304046CDE90343C3
:1023E800794BCDE90088029370494346FFF7C6F858
:1023F8002AF05AFEDAF800308146D3F890200B46CE
:102408004FEA491E4FEA431CBEEB090E4CEAD96C51
:102418006CEB030C4FEA8E074FEA8C0C17EB09079D
:102428004CEA9E7C43EB0C03DB0043EA5773C7F38B
:10243800103747EA4347D2194FEAD33343F1000331
:1024480004212046FEF7B8FF0746604B012202939D
:1024580040464346CDE90088544903940497FFF762
:102468008DF84745FFF6DCAE0422CDF8448014927F
:1024780014AB00930121204611AB0BF001F8404545
:102488005DDB119B40460493514B01220293CDE939
:102498000088434645490394FFF770F8119F002FC1
:1024A8003DD100234B4A1846CDE90224CDE900333B
:1024B80001223E49FFF762F824E70F980AF038FE38
:1024C800274629E7F759444B04977F4202934A4627
:1024D8005B465846CDE900BB344905970394FFF79E
:1024E8004DF89DE6FD273D4A18460292CDE9003396
:1024F80022462E490397FFF741F82D2021463A46F8
:102508000AF028FE0446C5E5002335491846CDE9FA
:102518000214CDE900332549FFF730F8F7E67F428A
:102528007EE600232F480122CDE90206CDE90033DB
:1025380018461E496FF01507FFF720F88AE636F0AF
:10254800E7FA0746F759284D7F424346012240469D
:10255800CDE90347CDE9008814490295FFF70EF845
:102568005EE6002321480597029001221846CDE92E
:102578000356CDE900330D496FF07507FEF7FEFFEE
:1025880068E61B4A1846CDE90224CDE9003301224A
:102598000649FEF7F3FF0A9B13B96FF0850759E662
:1025A8000F980AF0C5FDF8E780A00700A89007007B
:1025B800ECA0070070A10700A4A10700DC9D07009C
:1025C800BC9F0700E09F070078A20700A0A20700B1
:1025D800ECA2070008A3070024A10700109F07002A
:1025E80030A30700B09D0700C4A20700709E070033
:1025F8008C9F07002DE9F04F8146AD4BD0F888003D
:1026080091B0C3F800902BF019FB8246002800F027
:102618003D810024A74B0122A74920460293CDE91A
:1026280000442346FEF7AAFF4846FFF78BFC804686
:10263800A24B0122CDE90143204623469E4900943E
:10264800CDF80C80FEF79AFFA045C0F214814FF038
:10265800140B9B4B2046029301222346CDE90044EC
:102668009549CDF80C80CDF810B0FEF787FFD9E971
:10267800222301214046FEF737FC0646914B0122F2
:10268800029320462346CDE900448B49CDF80C80BF
:102698000496FEF773FF2AF007FD42014B01121A58
:1026A80043EAD06363EB010397009B003F1843EABA
:1026B800927341EB0305ED0045EA5775C7F31037F0
:1026C80047EA4547ED0B002E78D02AF0EDFC4A0189
:1026D8004401241A42EAD06262EB0102A30092008C
:1026E8001B1842EA947241EB0201C90041EA537196
:1026F800C3F3103343EA4143DB1B4FEAD13161EBAB
:102708000501022B71F100013BDA01270024404644
:102718000AF068FD6C4D50462BF088FA002E2E60AA
:10272800C0F29B804FF4FA50D9F88C80012F74F1D5
:1027380000063A462346BCBF012200232F616C6184
:10274800A8FB0001C5F804802FF0CAF90E46CDE9B0
:1027580004740023074634465C4ACDE90033CDE9CA
:102768000228CDE90674032218465349AF61AF62C7
:10277800EC61EC621E46FEF701FF304611B0BDE881
:10278800F08F2AF091FC44014A01241A42EAD062EF
:1027980062EB0102A30092001B1842EA947241EB1B
:1027A8000204E40044EA5374C3F3103343EA444395
:1027B800DF1B4FEAD43464EB0504A8E7CDE90066D3
:1027C800CDF80C80D9F8883030460593D9F88C308C
:1027D800012204933E4B3849029333460996FEF78B
:1027E800CDFE3C4B51460093D9E922324046FFF7D3
:1027F80079F90646384B2046029301222346CDE953
:1028080000442D49CDF80C800496FEF7B7FE002E43
:102818007FF45BAF314B3046CDE90066029301226D
:1028280033462549CDF810B0CDF80C80FEF7A6FE4A
:102838000BAA01214046FEF7E5FE0646099A284BF9
:102848001046CDE9002202931B491346CDF80C80AF
:1028580001220496FEF792FE37E7002200230021AA
:102868003046C5E90474C5E90623C5E90A23696049
:1028780011B0BDE8F08F4646134B5046C3F80080B0
:102888002BF0D4F9304611B0BDE8F08FD9F8881094
:10289800144A0346CDE90221CDE900000122064988
:1028A800FEF76CFE6FF00B03074A1E46136064E7E1
:1028B80008D00120F4A30700A890070010A407007F
:1028C80034A4070064A4070008C0012064A5070019
:1028D80094A40700D0A40700DCA407000CA50700F7
:1028E80038A50700C8A307002DE9F04F0446D0F823
:1028F8008800CC4BB0F5805F9BB083461C6028BF36
:102908004FF4805B2BF09AF9804658462BF096F9E5
:102918008146B8F1000F00F06B81002800F0688153
:102928002046FFF70FFB061EC0F21981D4E92223C7
:102938000321FEF7D9FA051EC0F24A814FF0000ABA
:10294800D4F888300F961393D4F88C30CDF844809F
:102958001293CDF840A00122514614A827F032FE68
:102968002AF0A2FB0D4602464FEA401C4FEA451EDC
:10297800BCEB000C4EEAD26E6EEB050E4FEA8C07EC
:10298800BF184FEA8E0242EA9C7245EB0205ED0041
:1029980045EA5775C7F3103747EA45470020002135
:1029A800ED0B0FAB00930523CDE90601CDE901AA94
:1029B800CDF810A003934FF480529B4B9B499C4841
:1029C80028F0F6FC9B4A5B46009249463046D4F80C
:1029D8008C20FEF78FFF82464FF0FF324FF0FF3317
:1029E80014A827F073FEBAF1000F05D1DDF840A056
:1029F800BAF1000F00F0D1802AF056FB4FEA401CD4
:102A08004A01BCEB000C42EAD0624FEA8C0362EB4D
:102A1800010218184FEA820343EA9C7341EB03034F
:102A2800DB0043EA5073C0F3103040EA4340C01B58
:102A38004FEAD33363EB0503022873F100036DDA21
:102A480001274FF0000B30460AF0CCFB40462BF034
:102A5800EDF8794D48462BF0E9F8BAF1000FC5F8C2
:102A680060A0C0F28880012F7BF10003BA465E4661
:102A7800BCBF4FF0010A00264FF4FA50D4F88C90EE
:102A880052463346C5E919992F67C5F874B0A9FBB2
:102A980000012FF025F8524686468C464FF47A5AA4
:102AA8003346C5E91FCEC5F878E0C5F884C0A9FB50
:102AB8000A012FF015F84FF00008CDE9067BC5E9AB
:102AC8002201CDF80480D4F88C205C4B4046CDE937
:102AD80003225B4903220293CDF800804346FEF7A8
:102AE8004DFDD5E92223CDE90823CDF80480D5E9A9
:102AF8002023CDE90623534BCDF80080D5E91E45A8
:102B08004046029303224346CDE904454C494646D4
:102B1800FEF734FD30461BB0BDE8F08F2AF0C4FA4A
:102B28004FEA401C4A01BCEB000C42EAD06262EB5F
:102B380001024FEA8C0392001B1842EA9C7241EB97
:102B4800020B4FEACB0B4BEA537BC3F3103343EA38
:102B58004B43DF1B4FEADB3B6BEB050B73E7364B55
:102B680040461E662BF062F848462BF05FF8304668
:102B78001BB0BDE8F08F56460022002300213046E6
:102B8800C5E91C7BC5E91911C5E91E23C5E9202340
:102B9800C5E922231BB0BDE8F08F4FF040730B93BB
:102BA800D4F88C3030461BBACDE90D33264B0AA930
:102BB800CDF830A00A93FEF761FC824600287FF426
:102BC8001BAF032130460AAAFEF71CFD824613E715
:102BD800194B1D6630462E460AF004FB40462BF082
:102BE80025F848462BF022F830461BB0BDE8F08F98
:102BF8000023D4F8882015491846CDE90033CDE9DB
:102C0800032B029101220E49FEF7B8FC40462BF037
:102C18000DF848462BF00AF86FF00B03064A1E46DB
:102C2800136677E708D00120211F040078E201200D
:102C380040BF012040A6070008C0012048A60700A1
:102C4800A890070074A6070042454E320CA607005C
:102C5800002330B50546244C89B024490322184680
:102C6800CDE900330294FEF789FC002495F89830EA
:102C78002046022B96BF1E4A1E4952F82310D5E95A
:102C88002232CDE906321C4B05F18002CDE903154D
:102C98000592029303222346CDE900441349FEF727
:102CA8006DFC164823460322CDE901400F49204612
:102CB8000094FEF763FC12491248FEF771FC1249B2
:102CC8001248FEF76DFC12491248FEF769FC1248DB
:102CD8002346CDE901400322204604490094FEF72B
:102CE8004DFC09B030BD00BFACA60700A890070096
:102CF8003CA80700789D0700E0A6070014A7070076
:102D080008C0012044A7070038C001204CA70700CD
:102D180068C0012058A7070060A7070038B50C4D08
:102D280004462C220021284635F0ECFB6FF08B037B
:102D3800204645F8043CFEF70BFB031E04DB204647
:102D4800BDE83840FFF756BC45F8043C38BD00BF25
:102D58000CC0012038B504460A482C220021A0F1F5
:102D6800340535F0CFFB6FF08B0320462B63FEF75D
:102D7800EFFA031E04DB2046BDE83840FEF7FCB836
:102D88002B6338BD3CC0012038B504460A482C22C4
:102D98000021A0F1640535F0B5FB6FF08B032046E8
:102DA8002B66FEF7D5FA031E04DB2046BDE8384043
:102DB800FFF79ABD2B6638BD6CC0012010B50446DC
:102DC80088B10B49FDF712FF80B120460949FDF78C
:102DD8000DFF48B120460849FDF708FF074C0028B9
:102DE8000CBF2046002010BD054810BD054810BD89
:102DF80094A707009CA70700A8A7070068C00120A0
:102E080038C0012008C0012010B504461D22002149
:102E18007F3035F077FB7F220F49204635F03FFCA5
:102E280007220E4904F1800035F039FC4FF4805038
:102E38004FF480114EF6602241F288334FF0010CB6
:102E4800C4F8880084F898C0C4F88C10C4F890209E
:102E5800C4F8943010BD00BFB0A70700C0A7070092
:102E680002289ABF024B53F820000248704700BF5F
:102E78003CA80700789D07002DE9F04389B0054676
:102E8800FEF766FADFF81091044600218C224846C6
:102E980035F038FB6FF08B03002CA9F1040649F8D4
:102EA800043C336333666BDB00276FF08B0895F8BF
:102EB80098303846022B96BF384A394B52F823309F
:102EC800D5F8882004950792D5F88C200393354BC4
:102ED800069205F1800234490592029303223B468B
:102EE800CDE90077FEF74AFBCDE90077D5F89430B5
:102EF800032203932D4B38462B4902933B46FEF79A
:102F08003DFB2C223946244835F0FCFA284649F87E
:102F1800048CFEF71DFA041E36DB2846FFF76AFB11
:102F2800041E2ADB00214FF4203029F055F92C2209
:102F380039461F4835F0E6FA2846C6F83080FEF7CD
:102F480007FA041E23DB2846FEF716F8041E14DBD6
:102F580000214FF4203029F03FF92C22394615483A
:102F680035F0D0FA2846C6F86080FEF7F1F9041E5D
:102F78000FDB2846FFF7B8FC04462846FFF768FE33
:102F8800204609B0BDE8F08349F8044CF5E73463FE
:102F9800F3E73466F1E700BF0CC001203CA8070046
:102FA800789D0700C8A70700A890070004A8070095
:102FB8003CC001206CC0012000F0A6BF00F066BC38
:102FC8002DE9F04700240E46814635F0A1FDDFF8D3
:102FD80054A084B040F80A400546174630462246B9
:102FE80003A9039498462EF0CBFE044655F80A0030
:102FF80060B9039B53B11B7843B9BC4206D344451F
:1030080004D80C9B1C6004B0BDE8F08748463B46DA
:1030180032460549CDF8008005F0D6FC6FF0150062
:10302800F1E700BF0C00000054A807002DE9F041AB
:103038003D4C3E4A23780E46054652F8217088B02A
:10304800002B63D001223A4BD3E8EF1F002903D1AC
:10305800C3E8E02F0028F7D11DD10021354827F01B
:10306800B1FA354826F076FF0022002300244FF0FD
:10307800050CCDE90623CDE903C44FF48052CDE910
:1030880001442E4B2E4900942E4828F091F92E49E0
:103098002C4828F099F801222C4BD3E8EF1F00297F
:1030A80003D1C3E8E02F0028F7D135D1DFF8A0809D
:1030B8004FF0FF334FF0FF321F4826F053FF4046D2
:1030C800244C9C22214640F8045B35F00FFA88F81E
:1030D800A060194826F0F6FF94F89800FFF7C0FEA4
:1030E800D4F8881003460391D4F88C1000948034E7
:1030F80002913A4628461849019405F023FC0D48E8
:1031080027F074FA002008B0BDE8F0811148FFF7F5
:103118007BFE0123237095E72846104905F054FCEF
:103128006FF00F00EFE700BF66E2012000B0070074
:1031380010D40120CCD40120B8D401208931040056
:1031480078F2012098C0012078A807000CD401204B
:1031580014D40120E4D40120A0A8070084A8070003
:103168000321FFF763BF00BF0221FFF75FBF00BF66
:103178000121FFF75BBF00BF0021FFF757BF00BF6A
:103188002DE9F04FD7B04FF0FF324FF0FF33BD4875
:1031980027F09CFA4FF0FF334FF0FF32BA4826F081
:1031A800E1FEA422B9492DA835F0A0F9B64826F0C9
:1031B80089FF9DF854319DF85001032B96BFB44AFE
:1031C800DFF8D09252F823902D9CFFF749FE4EAAC3
:1031D80001922EAA0092509A03460392519A2046D1
:1031E800AD4902924A4605F0ADFB4FF48052AB4917
:1031F8002D9805F0A7FB9DF85431032B00F2788138
:10320800DFE813F033012C01250104002EA8FFF795
:1032180033FE82469DF85431032B00F0FD8048466A
:10322800DDF8B4B0FFF7CAFD0646002800F0F480C8
:10323800D0E90651D0E908076B014A015B1B42EA55
:10324800D56262EB0102520242EAD3525B025B1979
:1032580041EB02024FEA821C9C01E41A4CEA936C8F
:103268006CEB020C430164194FEA471241EB0C0165
:1032780042EAD0621B1A62EB0702520242EAD352B8
:103288005B021B1847EB02024FEA821C9D01ED1AF4
:103298004CEA936C6CEB020CDDE9502313442D18B7
:1032A80003F1FF3347EB0C08B3FBF2FCD6E9042328
:1032B800E40DED0D44EA412445EA482560194FEA3A
:1032C800D8584FEAD15748EBD151012A269173F1CA
:1032D8000001CDF870C02590C0F200817049ACFBA8
:1032E80001012EF0FDFB00236E4A2EF0F9FBCDE91B
:1032F8002701CDE929239DF85001FFF7B1FD0346C9
:103308009DF850011D93FFF7ABFD03467268DDF889
:1033180044C139462046509FB46823921E93614A9F
:103328000023CDF888C024941F97D6E90467CDE917
:1033380020672EF0D5FB07460E46284641462B92BD
:103348009846584A00232EF0CBFB86468C46DDE98A
:10335800250115461C46534A0023CDE925EC2EF0DD
:10336800BFFBCDE91401DDE92001CDE9040129996C
:10337800CDE916231A912A99CDE90C761B91279944
:1033880049481891289919912599109126991191D0
:103398002B99CDE90E18CDE91254239A249C099251
:1033A8001C9ADDF888C01F9F06921E9A0A944FEA5D
:1033B800DA7400924FF480613C4A1D9BCDF80CC032
:1033C8000297CDF820A0CDF8049007942EF036FC93
:1033D8000546B5F5806F0246584680F08580344929
:1033E80005F0B0FAA5B12C462F4B324F5E19582C78
:1033F8002246A6EB0403A8BF58223946584605F0D2
:10340800A1FAC4F158032B449D42A4F15804EEDC00
:103418005846294905F096FA00232C9327482CA9E9
:1034280028F010F8002851D0BAF1000F2D9823DAAF
:1034380053464A46224905F0C7FA00232148D0E8F6
:10344800EF2FC0E8E13F00293FF49DAEF7E72EA833
:10345800FFF79AFC9DF854318246DDE62EA8FFF767
:1034680079FC9DF854318246D6E62EA8FFF756FC23
:103478009DF854318246CFE64A46134905F062FA70
:10348800DBE700BFCCD40120B8D4012014D401203C
:1034980000B00700789D0700D8A80700FCA807001F
:1034A80000CA9A3B40420F000CD0012030A9070007
:1034B80034AB070068AB070050AB070098C0012089
:1034C800B8AB07000CD40120C8AB07002C9B0A49F5
:1034D8002D98C3F5805205F035FAA5E70023CDE90C
:1034E800273329932A9306E7044905F06DFA93E7F1
:1034F8006FF0150A93E600BF84AB070004AB070022
:1035080070B5114E04463378154682B093B10F4E0C
:1035180069684FF47A7220460D4B0096FFF750FD0C
:1035280000280DDB204632680A4905F00BFA002016
:1035380002B070BD0848FFF767FC01233370E6E767
:103548006FF01500F4E700BF66E2012074D5012092
:10355800C0270900E4AB0700E4D4012070B5104E81
:1035680004463378154682B08BB10E4E6968002246
:1035780020460D4B0096FFF723FD00280DDB204663
:1035880032680A4905F0DEF9002002B070BD08482B
:10359800FFF73AFC01233370E7E76FF01500F4E713
:1035A80066E2012078D50120C0270900F8AB0700A2
:1035B800E4D4012070B5114E04463378154682B024
:1035C80093B10F4E69684FF480330122204600966C
:1035D800FFF7F6FC00280DDB20463268094905F0A4
:1035E800B1F9002002B070BD0748FFF70DFC0123B8
:1035F8003370E6E76FF01500F4E700BF66E20120DC
:103608006CD5012014AC0700E4D4012070B5114E2C
:1036180004463378154682B093B10F4E69684FF06F
:103628008063012220460096FFF7CAFC00280DDBC4
:1036380020463268094905F085F9002002B070BDBE
:103648000748FFF7E1FB01233370E6E76FF0150049
:10365800F4E700BF66E2012070D5012020AC070026
:10366800E4D4012070B5124D06462B7814468BB170
:103678006468204634F0C2FF7F2811D82146421CD6
:103688000C4834F033FF30460A4A0B4905F05AF922
:10369800002070BD0748FFF7B7FB01232B70E7E751
:1036A8003046064905F090F96FF05A0070BD00BF2A
:1036B80066E20120E4D4012040AC07002CAC0700EE
:1036C80070B5144E04463378154684B0C3B103A8C8
:1036D80069684FF6FF73009001222046FFF770FCDF
:1036E800002813DB0821039B0B4A0C482EF0A6FA8E
:1036F80020460A4A0A4905F025F9002004B070BDA1
:103708000848FFF781FB01233370E0E76FF01500ED
:10371800F4E700BF66E201201C2D080064D50120F3
:103728004CAC0700E4D4012070B5184E0546337838
:103738001446F3B1646816492046FDF757FA50B1AC
:1037480020461449FDF752FA88B120461249FDF780
:103758004DFAA0B90220114B83F89800FFF780FBBF
:103768000F490246284605F0EDF8002070BD0120FB
:10377800F1E70A48FFF748FB01233370DAE72846E8
:10378800084905F021F96FF0150070BD66E20120C7
:1037980024A80700F8AF070028A80700E4D40120F0
:1037A8007CAC070058AC070038B51C4D04462B7894
:1037B80073B31B4D20462A461A4905F0C3F805F194
:1037C80080022046184905F0BDF895F89800FFF7E3
:1037D80047FB16490246204605F0B4F82046D5F8BE
:1037E8008820134905F0AEF82046D5F88C201149F9
:1037F80005F0A8F82046D5F890200F4905F0A2F862
:103808002046D5F894200D4905F09CF8002038BDD5
:103818000348FFF7F9FA01232B70CAE766E2012093
:10382800E4D401208CAC07009CAC0700ACAC0700CA
:10383800BCAC0700D4AC0700ECAC070000AD070037
:1038480010B5029CFCB129F02FFC4FEA401C4A013C
:10385800BCEB000C42EAD06262EB01024FEA8C0337
:1038680092001B1842EA9C7241EB0201C90041EA2E
:103878005371C3F3103343EA4143C90BC4E9083118
:10388800204626F0B3FE002010BD00BF2DE9F04F02
:103898000129B9B040F2728202290C4606469246C6
:1038A80000F0F68100230A22DAF8080026A92693F8
:1038B8002EF066FADAF80820269B07469A4200F0AE
:1038C80058821B78002B40F05482411E632900F275
:1038D8005082032C6FD140F6B833049312F034FAB7
:1038E800814629F0E1FB43F6982244014B01241A52
:1038F80043EAD06363EB01034FEA84089B0018EBAB
:10390800000843EA947341EB0304E40044EA587462
:10391800C8F3103848EA444818EB02084FEAD43490
:1039280044F10004B9F1000F00F02C820025DFF803
:103938000CB329F0B9FB4FEA401C4A01BCEB000C60
:1039480042EAD06262EB01024FEA8C039200181837
:1039580042EA9C7241EB0201C90041EA5071C0F38E
:10396800103040EA414040454FEAD131A141D9F8F1
:10397800003080F27181A3B10C33D3E8AF3FD80790
:103988000FD5D9F8003063B10C33D3E8AF3FD90570
:1039980007D5D9F8003023B10C33D3E8AF3F9A05E7
:1039A80026D4002D00F0398140F6CD40002128F0C2
:1039B80013FC0125BDE70A22DAF80C0026A9269394
:1039C8002EF0DEF9DAF80C20269B04909A4208D0F3
:1039D8001B7833B94EF6FC13A0F1640199427FF6C7
:1039E8007DAF3046964904F0EFFF6FF015084BE1C4
:1039F800002D40F0918100214FF4005028F0ECFB9D
:103A08004422002126A800244FF00108DAF8049087
:103A180034F078FD01220223ADF83E40CDE9282399
:103A28001E94CDF83A40ADF83880494640460FAA72
:103A380009F01EFD404500F0868148460DF17809E1
:103A48004B46214626AA09F0FFFA0346002840F013
:103A580068811E9A002A00F06881D1690EAA086858
:103A6800496803C2ADF83A30102340460FA90792BF
:103A780013F060FE1E9809F05BFB2022A521484642
:103A880034F040FD0122002126A826F09BFD0421E8
:103A980019A809F0CBFA00236A4A0121009214A858
:103AA8001A46199C17F00EF8B0F10008C0F25581BB
:103AB800A3B2049D049320234FF00008DAF80420F1
:103AC8003046CDE9017560490093079B04F03AFF41
:103AD8004FF4004340F2E73041464FF0FF34E5FB36
:103AE80003016FF000434FF47A72CDE90A430023D3
:103AF8002DF0F6FF4B460125B1461E46CDE90801DB
:103B0800CDE90C88CDF81880CDF8148000231A93DD
:103B1800049BADF86650ADF8643020231D934FF038
:103B2800FF331C961B930022002326A826F0CEFD07
:103B38000028F8D029F0B8FA26AB00240093002317
:103B48008246CDE92E340C464FEA4A1B4FEA441E02
:103B5800BBEB0A0B4EEADA6E6EEB040E4FEA8B0CE7
:103B68004FEA8E0E1CEB0A0C4EEA9B7E44EB0E04C9
:103B7800E40044EA5C7426ABCCF3103C4CEA444CB9
:103B88001793002119AB0EAA14A8E40BCDF8B0C006
:103B98002D9416F0FDFF031E44DBDDE9082326A85B
:103BA80026F094FD002843D1059B2C9A01330593F8
:103BB8002E9B2D999B1A2F9A484662EB0102002AE8
:103BC800BCBF00230022069913EB080842EB010151
:103BD80006910A99CDE902328B420B99009572EB56
:103BE80001010C99B8BFCDE90A3299420D9991416A
:103BF800B8BFCDE90C3215492022079B04F0A2FE7C
:103C0800AF4204D94FF40040002128F0E5FAAF4252
:103C180005F101034DD01D4678E75946304604F0BA
:103C280091FEC1E62A464846094904F0CDFEE7E779
:103C38002A464846074904F0B7FEE1E79CB2070068
:103C480038B207004938040030B3070080B30700D2
:103C580068B30700A8B3070073B10C33D3E8AF3FCC
:103C6800DB071AD5D9F8003033B10C33D3E8AF3FAE
:103C7800DF0512D5484A11E0484A134630464849FC
:103C880004F0A2FE6FF07208404639B0BDE8F08F2C
:103C980040F6B8330427049320E6404AD9F80030A8
:103CA800002B76D00C33D3E8AF3F9D0571D53A4B46
:103CB800E4E714A816F032FF4846079A394904F099
:103CC80041FE6422059C48463B1B009302FB03F31C
:103CD800B3FBF7F33A4601933349234604F032FE27
:103CE8002246002C42D00C9B069902930D9B40461D
:103CF800039300232DF0EAFEDDE90A2304460D466E
:103D08004FF000084846CDE90045284904F01AFE5E
:103D1800404639B0BDE8F08F3046254904F012FE20
:103D280069E61E9808B109F003FA6FF07508304685
:103D38006FF07503DAF804201E4904F045FE40468A
:103D480039B0BDE8F08F10AB1A4607930FA91023BE
:103D580013F0F0FC0DF178098FE63046424616491B
:103D680004F032FE404639B0BDE8F08F6FF07308BA
:103D78008AE73046114904F027FE36E6104904F078
:103D880023FE32E630460F4904F01EFE6FF012089B
:103D98007AE7024B72E700BFD8B10700DCB1070031
:103DA800C8B20700C4B30700E0B3070008B40700AF
:103DB80080B20700F0B2070008B3070018B2070086
:103DC800E4B1070060B207002DE9F04F0D469046B8
:103DD80081462E4E2E4C03CEB6F800B096F802A0BF
:103DE8002860696007CC0C3CA5F808B085F80AA0E3
:103DF80083B0C8F80000C8F80410C8F8082007CC39
:103E080018605960484601219A601F4612F0C8F8A8
:103E180098B10446102301462A46012013F08AFC73
:103E280010B32146484612F011FA0090102342467A
:103E38000120694613F07EFC68B1484612F07EFA0C
:103E4800019010233A46012001A913F073FCA0B198
:103E580003B0BDE8F08F0E4B07CBC8F80000C8F8D8
:103E68000410C8F80820E8E7083E03CEA5F808B013
:103E780085F80AA028606960D3E7054B07CB38604E
:103E88007960BA6003B0BDE8F08F00BF30B40700B6
:103E98003CB40700002300B587B0DDF828C00BA8A4
:103EA80003900590CDE900331846CDF808C002F01C
:103EB80021F807B05DF804FB8C4618B14278034638
:103EC800052A08D80E4B07CBCCF80000CCF8041014
:103ED800CCF80820704710B5C479827986B041794A
:103EE800CDE903241A79DC7860469B78CDE9012175
:103EF80000941821034A2DF0A1FE06B010BD00BFA2
:103F08003CB4070048B4070030B593B0044611F03C
:103F18001BFF002864D00546006800B110300CA9CA
:103F2800FFF7CAFF08AB04AA69462846FFF74CFF0B
:103F38002F49204604F006FD284613F09BF82D492A
:103F48000246204604F0FEFC2B68A3B10C33D3E8EC
:103F5800AF3FD9070FD52B686BB10C33D3E8AF3F10
:103F6800DA0508D52046244A244904F0EBFC2B68DE
:103F78004BB9234A0DE02046224A204904F0E2FCCE
:103F88002B68002BF5D00C33D3E8AF3F9B05F0D559
:103F98001D4A20461D4904F0D5FC20461C490CAAA0
:103FA80004F0D0FC6A4620461A4904F0CBFC2046AF
:103FB800194904AA04F0C6FC08AA2046174904F0C7
:103FC800C1FC2046164904F0BDFC2046154904F002
:103FD800B9FC2046144904F0B5FC002013B030BDEC
:103FE8002046124904F0F0FC6FF01200F6E700BF1B
:103FF80070B407008CB4070068B407009CB40700CD
:10400800DCB107006CB40700D8B10700ACB40700F6
:10401800BCB40700CCB40700DCB40700ECB407005C
:10402800FCB4070014B5070028B5070060B2070004
:104038002DE9F0419AB011F087FE044600284FD0D0
:10404800006800B1103014AD294610AF0CAE0DF168
:104058002008FFF731FF3B46324641462046FFF72E
:10406800B3FE204613F006F82368002B35D00C3336
:10407800D3E8AF3FD90708D5236873B30C33D3E827
:10408800AF3FDA0501D51C4A00E01C4A23688BB310
:104098000C33D3E8AF3F9B052CD5174B0024CDE953
:1040A8000535174B1749CDE9023004922346032200
:1040B8002046CDE90044FFF7EDFE13492346CDE93C
:1040C800021803222046CDE90467CDE900440D49D2
:1040D800FFF7E0FE1AB0BDE8F081084A1346DDE7B5
:1040E8000A490346CDE90101012206490090FFF77C
:1040F800D1FEEFE7014BD1E7D8B10700DCB10700EB
:1041080064B50700B890070094B5070044B50700E8
:1041180010B4836800EBC10CB3F5004F0CD3DCF886
:104128000C3099421ED0DCF80810043200EBC104B0
:1041380040F82230E3600BE0BCF80630994211D019
:10414800BCF80410043200EBC10440F82230E380CC
:10415800826800EBC300B2F5004F2CBF81608180FC
:1041680010BC704701210024C36802F1040C01FA55
:1041780002F223EA0203C36040F82C4010BC7047E7
:1041880070B48668541AB6F5004F00EBC1034FEAC5
:104198004405A1EB02011FD35E685D6001EB560187
:1041A80086684D00B6F5004F00EBC2032CBF5D607A
:1041B8005D808568B5F5004F2CBF40F8324020F887
:1041C80032408468B4F5004F0CD370BC5B6802EBD6
:1041D800530340F833107047B3F802C05D8001EB19
:1041E8005C01DDE75B8870BC02EB530220F83210FB
:1041F800704700BF836810B5B3F5004F00EBC101ED
:1042080000EBC20C19D3DCF804304C685B0803EBF4
:1042180054035C004C608168B1F5004F06D3DCF8AC
:10422800041002EB510240F8323010BDBCF8021005
:1042380002EB510220F8323010BD4B88BCF802E086
:104248005B0803EB5E034FEA430EA1F802E0E2E7E6
:10425800836800EBC102B3F5004F0AD201235288EC
:10426800DA400132D21AB2FA82F2C2F11F02FFF723
:104278004FBF52685208012A01D00223F1E7704764
:1042880030B4846800EBC102B4F5004F22D2012596
:1042980053885B0801335B1BB3FA83F3C3F11F0335
:1042A80000EB830CDCF81050D5B901259D40C3689C
:1042B800B4F5004F43EA0503C360CCF810102CBFD7
:1042C800916091808368B3F5004F2CBFD160D18095
:1042D80030BC704753685B08012BF9D00225D9E739
:1042E800B4F5004F00EBC50C2BBFDCF80830BCF868
:1042F800043093609380846800EBC303B4F5004FE7
:104308002CBFD560D5808268B2F5004F2CBFD9602C
:10431800D9808368B3F5004F2CBFCCF80810ACF8EF
:10432800041030BC704700BFF8B583680446B3F585
:10433800004F0D464FEAC10600EBC10714D3796858
:1043480005EB510100EBC1035B68D80736D5A159CD
:10435800691A04EBC1035B68DB0714D529462046BC
:10436800BDE8F840FFF78CBF798805EB510100EBF9
:10437800C1035B88DA0721D5A15B691A04EBC10385
:104388005B88DB07EAD42046FFF762FFA368204674
:10439800B3F5004F2CBFA159A15B2A46691AFFF754
:1043A80029FFA3682046B3F5004F2CBFA359A35B90
:1043B800ED1A2946BDE8F840FFF762BF2046FFF72F
:1043C80047FFA3682946B3F5004F2CBF7A687A885F
:1043D800204605EB5202FFF70DFFA368B3F5004F27
:1043E800B5D2A15B691A04EBC1035B88C9E700BFBA
:1043F8002DE9F0418668B6F5004F34BF0B4601F150
:10440800FF33B3FA83F3C3F11F0200EB82073D6960
:10441800A5B12C464FF0030CB6F5004F00EBC40EC7
:1044280017D3DEF80480B1EB580F21D9DEF80C4021
:10443800BCF1010C3C6101D0A542EDD14FF0FF3435
:10444800C268C3F120039C4014400AD12046BDE84D
:10445800F081BEF80280B1EB580F09D9BEF80640CA
:10446800E6E794FAA4F2B2FA82F2131D50F8234058
:104478002146FFF74DFE2046BDE8F081B9B308B5E7
:1044880000688368B3F5004F18D20439091A21F07F
:10449800070202445388C90813F0010F2CD001EB1E
:1044A800530C30F83CE0ACEB0E0C8C4520D123F0DB
:1044B80001035380BDE80840FFF736BF0839091AE1
:1044C80021F0070202445368C90813F0010F13D002
:1044D80001EB530C50F83CE0ACEB0E0C614507D1F6
:1044E80023F001035360BDE80840FFF71DBF704784
:1044F800B721034800F0E4FCAF21014800F0E0FCDC
:10450800E0B50700F8B50568002933D0AB6801F0BD
:104518000704B3F5004F2CBF0822042207341444C3
:10452800E40804EBD1049C4228BF1C4628462146D7
:10453800FFF75EFFF0B1AB68C600B3F5004F05EBBF
:10454800C0070FD27B88B4EB530F15D343F0010398
:104558007B80AB68B3F5004F34BF042308231E44A7
:10456800A819F8BD7B68B4EB530F05D343F00103DA
:104578007B60EEE70020F8BD044401462246284649
:10458800FFF7FEFD2146FFF77BFEAB68B3F5004F52
:1045980001D37B68EAE77B88D8E700BF1146FFF7BD
:1045A800B1BF00BFB2F5802FF8B568D2042A88BF22
:1045B80004237FD9D21ACC1D8D1824F0070425F0C6
:1045C80007052D1B172D4FEAD5076ED9B5F5802F96
:1045D80038BF3A464FF0000328BF07F1FF32B2FA5E
:1045E80082F20460C4E902732CBF02230123C2F1E2
:1045F8002406B600073603EBD603BB42C2F12002FD
:104608004FEAD6064CD80021920004F1100033F08E
:1046180079FF7300BA1BB5F5802F04EBC6014FEA8A
:10462800420043F001032CD263800023238048809A
:10463800A368B3F5004F2CBF44F8366024F8366001
:10464800A1686319B1F5004F4FF000012CBF596004
:104658005980A368B3F5004F2CBF62516253A2681A
:1046680004EBC703B2F5004F10D35A68314642F045
:1046780001025A602046BDE8F840FFF701BE082352
:1046880098E76360002323604860D1E75A88314681
:1046980042F001025A802046BDE8F840FFF7F0BD1D
:1046A8004FF40E71064800F00BFC40F22321044839
:1046B80000F006FC40F21A21014800F001FC00BF9E
:1046C800E0B507002DE9F04F8946C2F3C20191B069
:1046D80001310491840702F004011A9D059140F00C
:1046E80019820646041D002800F0E981B9F1070F78
:1046F80040F2568102F002024FF0FF380792002282
:1047080001279B46019203EB080A069202920EB11A
:10471800C4F800B0049B002B40F3B581079B13B38A
:104728000122A11B8B08B1F5007F80F0FD81029961
:104738000F2900F2FE81002E00F0E2810299DBB21F
:104748004031694401F8203C01F8108C002A00F03F
:10475800B08163F07F0301F8203C019B0133019392
:10476800029B013302939AF8012004340AF1010AEA
:10477800002A4ED04FF0040CC6F108030393002121
:104788004FF6DA706346002900F047817A2A3BD851
:104798004B2A40F20E814C3A2E2A35D8DFE812F027
:1047A8003500340034003400340034003400340060
:1047B80034003400340034009F00340034003400E6
:1047C80034003400340034003400C40034009F0046
:1047D8009F00C400C400C40035009F0005013400D8
:1047E80035003400DE009F00DE0034003400F500A0
:1047F800F1009F00340034009F003400F100252AA6
:1048080040F0008108F1FF3800211AF8012F002A32
:10481800B9D1A11BB1F5806F5B46084680F08E8147
:10482800002E00F06781002535608D083570059DE4
:104838009DF81820002D40F001817270019AB27025
:10484800002A00F00181029A002A00F0AB800DF1E5
:10485800200A514602EB0A05C6F1010711F8012B9F
:10486800100607D53819484502F07F0200F29880F3
:1048780004F8012B8D42F1D1029FC6F1010857447B
:10488800BB461F46CDF80880A046059C0CAD019B91
:104898001BB19AF90020002A16DB002C00F0E880F2
:1048A8002A7808F8012B0022029B03EB0801114427
:1048B800494575D840469AF80030394600F8013B1A
:1048C80002EB000833F012FE0AF1010ADA4505F19D
:1048D8000105DCD14446A01B11B0BDE8F08F1AF8E1
:1048E800012C6C2A36D004EB0C02013AB2FBFCF224
:1048F8000CFB02FE002E00F0E08000210EEB03020C
:10490800921B91454CD3042B00F0FF80082B40F0FC
:1049180006810EF10804073525F00705F5E802239E
:10492800CEE90023082370E7073525F0070507348B
:1049380024F00704F5E8022336B1DDF80CC0A444DE
:10494800CC452DD8C4E900234FF0080C002163465C
:1049580008345AE71AF8023C6C2B7BD0033424F055
:10496800030E002E63D00EF10404A31B994517D340
:1049780000214FF0040C55F8043BCEF80030042316
:1049880043E74FF0040C63463FE7033424F0030485
:10499800002E00F0A980231D9B1B994580F0A48060
:1049A8006FF01B0011B0BDE8F08F4FF0080C6346A4
:1049B8002BE7472A3FF628AF292A7FF620AF2A3A65
:1049C800D2B207FA02F202427FF41FAF12F0625F1E
:1049D800AAD112F001013FF418AF04EB0C02013A1E
:1049E800B2FBFCF20CFB02FE002E87D1042B21D077
:1049F800082B40F09480073525F0070508350EF19F
:104A080008048FE73FF600AF202A3FF4FEAEA2F17C
:104A18002301B1FA81F14909F7E6252A7FF4F5AEB9
:104A28004FF0040C0121634608F10108EDE6314618
:104A38004FF0040C04350EF10404A0E7F270019A5B
:104A4800B270002A7FF4FFAE029A002A65D00DF1F9
:104A5800200A11E7073424F0070E002E40D00EF18B
:104A68000804A31B4B459BD800214FF0080C52E7C4
:104A78009AF8002056F8227046F82240384633F05B
:104A8800BDFD421C10E7304B9B4503D32F4B9B4584
:104A9800FFF444AE079AA11B8B08002A38D1029A6A
:104AA8000F2A46D88EB140326A4402F8203C02F8F8
:104AB800108C069B0133069352E6314696E709F0BF
:104AC80007094C44C9F1080914E6059B09F10209D4
:104AD800002B7FF445AE584633F090FD81443FE605
:104AE80031464FF0080C86E7049B55F804BB013BA0
:104AF80004930CE6A9F10800084411B0BDE8F08F52
:104B0800002AE2D009F101092AE60EF1040432E78D
:104B1800002208E66FF00D0044E7084642E740F23D
:104B2800C6210B4800F0CCF94FF41F71084800F07B
:104B3800C7F940F28121064800F0C2F940F2D221BB
:104B4800034800F0BDF900BFEC8B0700886A080035
:104B580004B6070053B32DE9F04799461C785D78F1
:104B6800DB78A40004EB430499F8023007461C44A0
:104B78000E4690464C447DB14FF0000A14F8013BB4
:104B88000AF1010A204649F8234033F037FD55451C
:104B980000F101000444F1D141463846B446D9F841
:104BA800042009F10803BDE8F04760476FF01500DD
:104BB800704700BF38B5F8B10446EFF311852023DC
:104BC80083F31288BFF36F8F144827F0C3FE00B336
:104BD800124827F0E5FE124B0FCB84E80F000F4870
:104BE80027F0C6FE80B185F31188BFF36F8F0D4B98
:104BF800A2689A4204D838BD6A210B4800F060F9CF
:104C08007021094800F05CF94FF49A71074800F0E8
:104C180057F98821054800F053F900BF80D50120D5
:104C280060C10120FFC99A3B48B607006CB607006F
:104C3800F0B5012805460C4685B005D0042839D0C2
:104C48006FF0150005B0F0BD28F02EFA2B4AC60B00
:104C5800C0F30E00A0FB0202C00B46EA414640EA40
:104C68004240C90BA060266061606846FFF7A2FF5A
:104C7800A068234B984236D8029F9F4238D82268B2
:104C8800009E63689219019E4FF00001734168BF4E
:104C98002946C4E9002309BB0744A760204600F061
:104CA800D9FAD8B1164BA2689A4214D9632115488B
:104CB80000F006F928F0F8F9104AC50BC0F30E0009
:104CC800A0FB0202C00B45EA414540EA4240C90B3D
:104CD800A06025606160002005B0F0BD0A4B0FCBD5
:104CE80084E80F00F7E740F2B911084800F0E8F847
:104CF8004FF4DD71054800F0E3F800BF00CA9A3BA5
:104D0800FFC99A3B48B60700A09507009CB6070064
:104D1800012861D1F0B50C4685B0002964D03C4F1C
:104D28008B68BB4255D8064628F0BEF903466D4647
:104D3800DFF8E0C0C3F30E02A2FB0C2CDB0B43EA46
:104D48004143D20B5B4242EA4C424FEAD13161EB1C
:104D580041015242284602920093019100F07AFAEA
:104D68000298B84245D8D4F808C0BC4537D8D4E929
:104D78000071009A019BD2194B414FF0000468BFA3
:104D88003446CDE90023ECB1EFF31186202383F3F9
:104D98001288BFF36F8F204827F0DCFD98B31F4CB3
:104DA8001D4827F0FDFD95E80F0084E80F001A481C
:104DB80027F0DEFD10B386F31188BFF36F8F002054
:104DC80005B0F0BD00EB0C032846029300F042FA50
:104DD800DAE76FF01500F3E76FF0150070474FF44E
:104DE800DD710F4800F06CF840F27D110C4800F0BE
:104DF80067F840F2B9110A4800F062F84FF49A7166
:104E0800084800F05DF88821064800F059F800BF0E
:104E1800FFC99A3B00CA9A3B80D5012060C1012096
:104E28009CB607006CB6070000207047014B1B6852
:104E3800184700BF00770120014B1860704700BF7A
:104E4800007701200FB44FF0020C002300B50A4987
:104E580087B008AA039152F8041B02A80293CDE96F
:104E680004338DF80AC001922DF010F907B05DF8EF
:104E780004EB04B0704700BF354E040080B505460A
:104E88000E4614461F4627F02BFA034633F040FE21
:104E9800214604463A46074F30463B51A847064B41
:104EA8001B7813B1E05906F0D3FB40F246310348B2
:104EB80000F006F80800000070E20120D0B60700F4
:104EC800002383F31188BFF36F8F0423184602DF92
:104ED800704700BF38B50D4604462022002133F044
:104EE80011FB0022EB68E361AB68A3612B682362C6
:104EF8006B68C4E909322A6923B1591E194208BFEF
:104F080042F0010222610122002104F12C0025F067
:104F180059FB00B938BD2F210148FFF7D1FF00BF69
:104F2800FCB60700044608B5EFF31183202383F38A
:104F38001288BFF36F8F1EF0DFFF204606F042FB9A
:104F48000248FFF77FFF06F0B9FCFCE724B707002B
:104F580070B50C4604F00105014605EB5400984273
:104F680057D86608002D44D1002E41D0013A01EBF4
:104F7800460E1CE0ACF1570C5FFA8CF31B01DBB258
:104F880053704C78A4F1300C5FFA8CFCBCF1090F1B
:104F980007D9A4F1610CBCF1050F1CD8573C5FFA86
:104FA80084FC02316344714502F8013F20D091F836
:104FB80000C0ACF13003DBB2092BDFD9ACF16103DF
:104FC800052BD7D9ACF14103052B22D8ACF1370C0E
:104FD8005FFA8CF3D2E7A4F14105052D19D8373CC7
:104FE8005FFA84FC02316344714502F8013FDED167
:104FF80070BD0C78A4F13003DBB2092B05D9A4F1FC
:105008006103052B07D8573CE3B202F8013B013195
:10501800AAE7002070BDA4F14103052BF9D8373C5D
:10502800E3B2F2E72DE9F04340F26C77D0E90412DD
:10503800D71901F101014FEAE27242F10002022997
:105048008CBF00230123FF1AC46862F10002002A02
:1050580004F1FF34C0F2AB803B0D43EA0233C3F3E3
:105068001303C7F313051D44D61705EB123506F0D5
:10507800210C05EB12756A4B6544A3FB05C3DB08DD
:1050880003EB830303EB830326F01706ED1A35447D
:10509800644E7B1B03FB06F662EBE572624D05FB73
:1050A8000266A3FB0535761900F1B580D0E9018EBB
:1050B8004FF03C0C02298CBF6FF00202092240F22B
:1050C8006D154FEAE879CEFB0C894FEA091C4FEAC7
:1050D800081EBEEB080E4CEA187C6CEB090C114458
:1050E8004FEA8C0C02684CEA9E7C50481B094FEA38
:1050F8008E0E43EA06731EEB020E4FEA261600FBDD
:1051080003704CEBE27CF700DA00D21847EA5377D9
:1051180046EB07073F0147EA12771201D21846EB20
:1051280007073F0147EA12771201D21A67EB060711
:105138003B4E01EBC101A6FB0036830805FB00339B
:1051480001EB01113A480231A0FB01012344A3EB12
:10515800561303EB91039001B901801A41EA926159
:1051680061EB070233491B1842F100025B1862F138
:105178000002D91842EB0200CB1842EB00021001E2
:10518800190140EA1370CB1A60EB020001011A0101
:1051980041EA1371D31A61EB0001C901D80110EB80
:1051A8000E0041EA53614CEB0101BDE8F0836FF456
:1051B800C773FB1862F100024FEA135E4EEA023E23
:1051C800CEF31308C3F3130EC6440EEB123E4FEA98
:1051D800E27808F021090EEB127E114DCE44A5FBB2
:1051E8000E95ED0805EB850505EB850528F01708F4
:1051F800AEEB050545440B4E5B1B03FB06F6DFF8DB
:1052080028C062EBE5720CFB0266A3FB0C3C16EBB4
:105218000C067FF54BAF0F3346F1000646E700BF9B
:105228001F85EB51F5285C8F295C8FC270FEFFFF4C
:10523800CDCCCCCC9405F5FFD0B5FFF7F3FE0646F0
:1052480033F066FC00240346014A30469C50D0BD2A
:105258000C00000038B5002849D08368264A9342DC
:1052680003DC002B29DB012038BD2449446881FB7D
:10527800032102684FEAE37C012ACCEB217C74F11C
:1052880000014FEAEC7E07DB6FF00041D543091BB4
:10529800654571EB0E0128DB12EB0C01184A4EEB49
:1052A800040402FB0C33144AC0E9001493428360DF
:1052B800D9D9F0211348FFF703FE1349D21A520A2D
:1052C800A1FB0212D0E90014002C4FEAD21206DB2F
:1052D8000E4D891A05FB023364F10004E3E704F17B
:1052E8000045914275F10005F2DA002038BDC92168
:1052F8000448FFF7E5FD00BFFFC99A3BA12FB8445A
:10530800003665C450B70700834B040000CA9A3BB7
:10531800F8B500F0D7F8002301220A4C0A490B4FD0
:105328000B4E0C4DC0E90434DFF82CC0026042601B
:105338003B6033602B608360C3600A60CCF8002058
:10534800F8BD00BF20BD0700207701208CD50120C3
:1053580088D5012084D501201C7701202DE9F0474C
:1053680007468846164600F0ADF8C36804461BB9E0
:1053780043691A78002A38D100236268E360BA4288
:1053880058F8223072DA591C616193F800A0BAF11A
:105398002D0F6BD19D1C656193F80190B9F12D0F0C
:1053A800C4F8089035D0B9F1000F24D1344D5146D6
:1053B8003046656133F054F900285DD0C4F808A080
:1053C8002D21304633F04CF9E0B143783A2B2DD0FB
:1053D800002323612B7813B9636801336360204687
:1053E80000F050F8A068BDE8F0875D1C456193F8AF
:1053F8000090C0F808904946304633F031F9B9F1C9
:105408003A0FE1D12B7803B3204600F03BF83F2058
:10541800E9E79B78002BD3D1194B01322046626013
:10542800636100F02FF84FF0FF30DCE72A786368FB
:105438002AB901339F4263600BDD58F82350104AA4
:105448000133C4E904526360C9E7636801336360E8
:10545800DAE70B4B2046636135783A2D02D000F02D
:1054680011F8D4E700F00EF82846BCE7044B2046B4
:10547800636100F007F8D6E7204600F003F8D2E7AA
:1054880020BD070070B4D0F800C0094E094DC6F819
:1054980000C04668084C2E6008498568084A25609F
:1054A800D0E903430C60136070BC07F09BB800BFE1
:1054B800207701201C7701208CD5012088D5012078
:1054C80084D5012000487047047701202DE9F04F6A
:1054D8001446828B834612F0080C83B040F0498151
:1054E80002F0070002290746CDF804C080B253D065
:1054F800DBF81860002EC0F2DD80411F012940F260
:105508000081042840F04A8122F00702DBF80050AD
:1055180092B2ABF81C20002D00F0338142F020023B
:10552800ABF81C2057B30025DBF80870A846AA463C
:10553800002F50D1002D4FD1BAF1000F1ED02F46A9
:105548004AE0BAF1000F02D05846A649D047EFF317
:105558001184202282F31288BFF36F8F484627F008
:10556800F9F9002800F01181484627F019FABBF82C
:105578001C2022F0080292B2ABF81C20D1064DD5AF
:10558800012122F0100292B202F007000229074618
:10559800ABF81C2080B2ABD100285ED1DBF800103C
:1055A80000297AD0002F40F00381DBF81010D1F8E1
:1055B80000A0BAF1000F00F0F6803D464FF0060853
:1055C8003E4622F0070242F00602ABF81C20DBF848
:1055D8000870002FAED0012742F008020BF1140921
:1055E8004846ABF81C2027F0C3F9002800F0D1800A
:1055F80084F31188BFF36F8FBFB9002DA1D028465F
:10560800314650F8047B00F0D3F9044618B3294614
:10561800334642465846A0473D46EEE793063CD5FA
:1056280022F02002022192B2AEE7DBF8081000292E
:10563800E3D00C683346424658464F68B847002CBA
:10564800DBD0214624683346424658464F68B8475F
:10565800002CF6D1D1E73D46CFE702281AD0012821
:105668001BD1DBF80010C1B1012F40F0B580DBF889
:105678001010D1F808A0BAF1000F00F0A88000259A
:1056880022F0070242F005024FF005082E46ABF85B
:105698001C209CE7BBF81E5005B30BF1140027F043
:1056A80067F9002875D084F31188BFF36F8F03B0B2
:1056B800BDE8F08F4FF00108019B22F0070242F08D
:1056C8000102DBF80050CBF80430ABF81C20CBF813
:1056D8000030474527D04FF0000A78E7022F71D1F4
:1056E800DBF81010D1F804A0BAF1000F65D022F051
:1056F800070242F004024FF004082E46ABF81C20C3
:1057080065E7019B0628DBF80050CBF80430CBF89E
:1057180000300FD04FF0000822F0070292B2474540
:10572800ABF81C20D7D1002D3FF428AF4FF0000A6A
:10573800574651E74DB12846BBF81E10013189B2D2
:10574800ABF81E1000680028F8D122F00701BBF85A
:105758001E0041F00202ABF81C2089B210B14FF0D4
:105768000208B6E741F022024FF00208ABF81C200D
:10577800AFE701290CBF42F0100242F020028283F9
:105788008BE7002F7FF4D0AEF8E688211648FFF7A4
:1057980097FB4FF49A711448FFF792FB40F21B11E4
:1057A8001248FFF78DFB4FF4AD711048FFF788FBE7
:1057B8004FF4AB710D48FFF783FB40F261110B48C2
:1057C800FFF77EFB40F25D110848FFF779FB4FF4C5
:1057D800B4710648FFF774FB4FF4B2710348FFF742
:1057E8006FFB00BFF95704006CB6070084B70700C9
:1057F800F8B504460D4600F11406EFF3118720238F
:1058080083F31288BFF36F8F304627F0A3F850B1A7
:10581800304627F0C5F8A5613A462046BDE8F8406D
:105828000121FFF753BE88210148FFF749FB00BF5C
:105838006CB6070088B138B50C4659B10B684BB146
:105848004B683BB105462022002132F05BFE2C61FB
:10585800002038BD6FF0150038BD6FF01500704797
:105868002DE9F84F002878D00D46002975D001F1B0
:10587800040A0446504600F085F8061E26D1AB6897
:10588800032B6AD804F11409EFF3118B202383F357
:105898001288BFF36F8F484627F05CF880460028CF
:1058A80062D0484627F07CF84FF6FF72E38BA78B4F
:1058B800934207F007073ED0022F38D0062F47D86B
:1058C800DFE807F00841464608190800DADA3046EA
:1058D800BDE8F88F00232B6063688BB31D6065609B
:1058E800002F3DD13E4620465A460221FFF7EEFDE5
:1058F8003046BDE8F88F6FF085064FF0000848463F
:1059080027F036F8A0B38BF31188BFF36F8FB8F187
:10591800000FDCD05046002100F04AF880460028ED
:10592800D5D03A46294620460023C047CFE7013361
:105938003E46E383E3E76FF00A064FF00008DEE730
:1059480025606560CCE76FF004064FF00008D6E7E5
:105958004FF4E4710948FFF7B3FA6FF01506B6E79C
:105968003E464FF00008CAE788210548FFF7A8FA25
:105978004FF49A710248FFF7A3FA00BF84B70700F3
:105988006CB60700034640B1426802F00302022ADF
:1059980006D0032A04D0012A05D06FF015007047FD
:1059A8001A68002AF9D0002210469A60704700BF92
:1059B80008B54268034602F00302022A816007D054
:1059C800032A10D0012A0BD045210948FFF778FA9D
:1059D800006800225A6008B127F0A2FF002008BD25
:1059E80000224260FAE7006800225A6008BD00BF42
:1059F800ACB7070010B50446B1F800E08888AEEBF4
:105A0800000E20691FFA8EFE86451FFA80FC24BF0F
:105A1800AEEB0C0E1FFA8EFEACEB0E0C1FFA8CF0E0
:105A2800984228BF18462368734413600B880344C0
:105A38000B8010BD4B88B1F800C0ACEB030C1FFA0B
:105A48008CFC944515D34FF0000C00B51A4492B263
:105A580062F30F0C62F31F4CB1F804E0C1F800C008
:105A6800A2EB0E0302699BB2934205D200205DF8B7
:105A780004FB6FF0150070479644A1F804E0F5E7C1
:105A88002DE9F041002705468846164607E04146BD
:105A9800224632F02BFD361B2744A04435D0AA8875
:105AA800AB892869D31A9BB2C31AB34228BF3346BD
:105AB800298984B2511A89B288429CBF091B89B2CC
:105AC800641AA4B29C4228BF1C462868224492B299
