:020000024000BC
:10000000F8450220B9940400198C0400A59404005A
:10001000A5940400A5940400A5940400A5940400EC
:1000200000000000000000000000000055960400E1
:10003000A594040000000000E5950400A5940400C8
:10004000719804007198040071980400719804007C
:10005000719804007198040071980400719804006C
:10006000719804007198040071980400719804005C
:10007000719804007198040071980400719804004C
:10008000719804007198040071980400719804003C
:10009000719804007198040071980400719804002C
:1000A000719804007198040071980400719804001C
:1000B000719804007198040071980400719804000C
:1000C00071980400719804007198040071980400FC
:1000D00071980400719804007198040071980400EC
:1000E00071980400719804007198040071980400DC
:1000F00071980400719804007198040071980400CC
:1001000071980400719804007198040071980400BB
:1001100071980400719804007198040071980400AB
:10012000719804007198040071980400719804009B
:10013000719804007198040071980400719804008B
:0401400071980400AE
:1001480003685A004CBF43F0004323F000431844AF
:1001580070472DE9F0470646174641B301394FF07D
:100168000009884609EB080404EBD474641006EB14
:10017800C4054FEAC40A2846FFF7E2FFA14204D1AA
:10018800B84204D82846BDE8F087B84204D9A1454A
:100198000DD004F1FF38E5E70AF108003044FFF715
:1001A800CFFF0138B842EDD204F10109DAE70025A2
:1001B800E8E7012806D0022806D00028034818BF1F
:1001C800002070470248704702487047D50704006E
:1001D800D9070400DD0704001F4B37B504468D1E00
:1001E8004BB101A92846AFF3008048B90023092084
:1001F800236103B030BD1948194B1B1ADB1001935A
:1002080001992A46FFF7A5FF01460028EED0FFF71F
:1002180097FF4B68A064012B1AD0002B01F1040052
:1002280010DBFFF78DFF0023C4E913030368002BDD
:100238000ADAC3F30360FFF7BCFF03460028D5D0F2
:100248000020D5E70123EFE7FFF77AFF0346F7E73A
:1002580000230520CCE700BF000000006C790700F0
:10026800347A07000368DA0710B5044605D49B07FB
:1002780000F1480018D500F0F7FB2368590703D4AC
:1002880004F1D00000F0F8FB23681A0703D404F542
:10029800A87000F0F9FB2368DB0608D404F5E870C1
:1002A800BDE8104000F034BC00F0D6FBE5E710BD17
:1002B800092070470346006800B11844704770472A
:1002C80070B505460C46216C2846FFF785FF0646A3
:1002D80008B109F0FFFD236C2246294601206B6115
:1002E8002B6998470828EED00728F2D13046216CB0
:1002F800FFF7E5FF201D00F0A3FB2DE9F0470C1DDB
:10030800ADF5727DD0F80C900746D0F818A01646C7
:1003180003AD0DF108080FCC0FC50FCC0FC50FCCDE
:100328000FC594E80F0085E80F000025C8F80050B5
:100338000936D8F840103846FFF74EFF0446F6B2A3
:1003480068BBD8F840304FF4F07241467AA87B6118
:1003580036F0F0FF3B697AAA394630469847889BC1
:100368000546C8F844303A463B4631460120CDE9B7
:10037800008AC847C0B9C4B94FF4F0727AA9404698
:10038800264636F0D7FF082DD2D0072D0CD12046AF
:10039800D8F84010FFF793FF03A800F051FB46F090
:1003A8001006D8F83830DCE7092420460DF5727DB0
:1003B800BDE8F087406C7047F0B5CB6BF9B00D1D08
:1003C80006460B640F4601AC0FCD0FC40FCD0FC40A
:1003D8000FCD0FC495E80F0084E80F004FF0FF33EE
:1003E800009310993046FFF7F7FE78B933696A46EB
:1003F8003146984708280446F3D06846FFF732FF8D
:10040800062C03D139463046FFF75AFF092079B048
:10041800F0BD10B48261DA6BC16019461A6400221B
:1004280010BC6AE770B543690446C6680D460B649C
:1004380026B10122FFF761FF09F04CFD03690A4666
:10044800014602209847072805D00828F4D12946F4
:100458002046FFF735FF3046296CFFF730FF281D8F
:1004680000F0EEFAC26802B9A6E7CA6B0A64002275
:1004780043E77047836801460BB10120184770476E
:10048800012910B50446084605D005D9C81E01281B
:100498008CBF0220012010BD43B90F2A06D804EBF7
:1004A8008204029A184661681160F4E70220F2E7B4
:1004B8001FB503AB0A46009300231946FFF7E0FF78
:1004C800039805B05DF804FB012910B504460846F9
:1004D80005D005D9C81E01288CBF0220012010BDF7
:1004E80043B90F2A06D8029904EB82041846096812
:1004F8006160F4E70220F2E71FB503AB03920A46F6
:10050800009300231946FFF7DFFF05B05DF804FBF1
:10051800F0B5D36BADF50F7D141D064613640F4679
:1005280017AD0FCC0FC50FCC0FC50FCC0FC594E876
:100538000F0085E80F004FF0FF33169326996846A1
:10054800FFF74AFE90B90C2116A86A46FFF7D4FFB8
:10055800394616A8B04748B9049B16AA6946082028
:1005680098470528044602D00928E7D1092416A887
:10057800FFF778FE20460DF50F7DF0BD2DE9F04F11
:10058800CD6C87B017460C4655F8042B00F00309CC
:100598009A4604953BBB12028DF81530032303924B
:1005A800B9F1020F8DF81430236D08BFA56B13F055
:1005B800010322D100F0080800932B6843BB03A96C
:1005C800384600F04AFB002840F0FB80009BDBB176
:1005D8000F213846FFF76CFF0E2102463846FFF719
:1005E8008BFF794A55E0130C12048DF81530DBB2F5
:1005F800039205EB83050223D2E703A9384600F0EE
:100608002CFB002840F0DD80082007B0BDE8F08F03
:10061800BAF1020FA26C4FF00F01384607BFD5F8A8
:1006280004B005F10806B5F802B02E1D18BF2B88D6
:100638002BF0010501931544FFF73AFF019B854212
:1006480029D823F001022A44824294BF00220122C1
:100658004FEA4B0003F0010300F0020040EA0305F3
:10066800012D1AD0022D5ED0002D40F0AA80351D34
:10067800B9F1000FA1D0002A9FD03046FFF760FDE6
:10068800A56306462046AFF30080002800F0998055
:1006980032460F213FE00022DAE7B9F1000F26D1F8
:1006A800002A3DD073683268991C4FEAD27200F074
:1006B800888004F158010133029109D0301DFFF7F9
:1006C800F9FD02AB01462046AFF30080054638B37A
:1006D8000D213846FFF7ECFE022D029B206202D165
:1006E800E36204F12C030620C4E909368DE7256A84
:1006F8000D213846FFF7DCFE854211D1A36A9E42E0
:100708000ED13046FFF71CFD0F2102463846FFF791
:10071800F3FE224600213846FFF7EEFE072074E775
:1007280006F1080549E7356825F00045B9F1000FDD
:100738002AD1A2B1B8F1000F19D085B9CB4617E07C
:100748000BF1010B019B002206EB8B000293FFF7D4
:10075800B1FD02AB01462046AFF3008058B13368C3
:10076800002B00DA0436013506EB850525E7C3467C
:1007780004F158030193AB45E2D10D213846FFF748
:1007880097FE029B2062AEE7D4F820B00D213846D0
:10079800FFF78EFE8345E2D1A36A9E42DFD14FF078
:1007A800000B0423A562C4E90BB3F3186363336831
:1007B8005B4503DA681C06EB8000A3E7012300937E
:1007C800D1E7092021E700BF000000000023D5E69B
:1007D8000123D3E60223D1E62DE9F0410546C2B054
:1007E80014461E46042925D8DFE811F005001C0030
:1007F8002400D6000301EEB9836B92B201210430C4
:1008080001FA06F717421CBF53F8047B40F826701C
:100818000136102EF4D1A60400D4AB63002042B0F8
:10082800BDE8F081012E4FEA124794B204D13B197A
:10083800102B41D90220F2E7052EFBD107EB040863
:10084800B8F1200FF6D80F2F4DD9002CE6D0036849
:10085800A046580708D523F00403284640F8D03BA3
:1008680000F00EF90F2F48D9684600F009F9AB6B74
:10087800102F3A4642A94FEA480838BF10221C46B2
:1008880008F1FF3801EBC2024FEA8801A2F5C472F1
:10089800101F02EB880254F804CB40F804CF8242C0
:1008A800F9D10A1D012E134417D00F2FAB636FD94E
:1008B800684600F0E1F8B1E7102FBBD00368DA070B
:1008C80005D523F0030340F8483B00F0C9F820A8F9
:1008D80000F0C6F8AB6B002C3FD1043320A8AB6303
:1008E80000F0BAF89AE7B8F1100F03682DD9DC07C1
:1008F800A8F1100842D45807ADD420A8C7F11004B5
:1009080000F0B6F8684600F0BBF820AA6400AB6BAC
:1009180002EBC702013C101FA10002EB84021C4637
:1009280054F804CB40F804CF9042F9D10A1D13447F
:10093800B8F1000F9CD1012ECFD00F2FAB633FF63B
:100948006DAF20A800F090F868E7D9070DD420A86B
:1009580000F08EF8AB6B002CF3D0640020AA4FF0A7
:10096800000802EBC702013CD5E723F0010343F07E
:10097800020340F8483B00F07BF8E8E723F0010366
:1009880043F0020340F8483B00F072F82B68B2E7E6
:1009980020A800F069F88BE7032E7FF44BAF97B2DD
:1009A800160C07EB1244102C3FF644AF03681907E6
:1009B80006D523F00803036000F5A87000F086F858
:1009C80020A800F083F820ABAA6BF90003EBC6035C
:1009D80003EBC707D41ABB4203EB040005D10A4452
:1009E80020A8AA6300F050F818E7006843F8040B41
:1009F800F1E7002E7FF41EAF102A3FF61BAF036805
:100A0800DA0606D523F01003036000F5E87000F05D
:100A180089F820AE304600F085F8AB6B0022012142
:100A280001FA02F020421CBF53F8040B46F82200DA
:100A38000132042AF4D13046AB6300F069F8EDE6E0
:100A480000F1340191E838009C46A6464CF8045D54
:100A580090E8FF0FE54600BD90EC210B704700BF02
:100A680080EC210B704700BF90EC200B704700BF53
:100A780080EC200B704700BFD0EC200B704700BF04
:100A8800C0EC200B704700BFF0EC0201F0EC021143
:100A9800F0EC0221F0EC0231F0EC0241F0EC0251F2
:100AA800F0EC0261F0EC0271F0EC0281F0EC0291E2
:100AB800F0EC02A1F0EC02B1F0EC02C1F0EC02D1D2
:100AC800F0EC02E1F0EC02F1704700BFE0EC02014B
:100AD800E0EC0211E0EC0221E0EC0231E0EC024132
:100AE800E0EC0251E0EC0261E0EC0271E0EC028122
:100AF800E0EC0291E0EC02A1E0EC02B1E0EC02C112
:100B0800E0EC02D1E0EC02E1E0EC02F1704700BF5A
:100B1800B0FC0181B0FC0191B0FC01A1B0FC01B1B5
:100B2800704700BFA0FC0181A0FC0191A0FC01A1BD
:100B3800A0FC01B1704700BFEC4600B52DE900509C
:100B48002DE9FF1F4FF000032DE90C0001A9FFF765
:100B580033FCDDF840E012B0704700BFEC4600B54A
:100B68002DE900502DE9FF1F4FF000032DE90C007F
:100B780001A9FFF757FCDDF840E012B0704700BF4D
:100B8800EC4600B52DE900502DE9FF1F4FF000039A
:100B98002DE90C0001A9FFF765FCDDF840E012B073
:100BA800704700BFEC4600B52DE900502DE9FF1F46
:100BB8004FF000032DE90C0001ABFFF72AFCDDF82C
:100BC80040E012B0704700BFEC4600B52DE9005078
:100BD8002DE9FF1F4FF000032DE90C0001AAFFF7D4
:100BE80097FCDDF840E012B0704700BF10F8012B09
:100BF80011F8013B012A28BF9A42F7D0D01A704752
:100C0800034611F8012B03F8012B002AF9D170478C
:100C1800027A03467AB9427A82B1013A427242684C
:100C2800111D12680260032241601A721A68100EC0
:100C380012021A607047013AD2B2F6E7B020704744
:100C48001FB503AB0C22009300231946FFF718FCCD
:100C5800039805B05DF804FBF2E72DE9F04305467B
:100C680085B00E464FF000083046FFF7D1FFB02898
:100C7800044615D1B8F1000F0ED103AC43460E223D
:100C8800414628460094FFF7FBFB43460F224146A6
:100C980028460094FFF718FC002005B0BDE8F08353
:100CA80002061DD44FEA8009002303AF0D225FFA24
:100CB80089F9194628460097FFF7E2FB09F104096C
:100CC800039B14F0400F14BFA3EB09034B44039399
:100CD800002300970D2219462846FFF7F5FBC3E7C6
:100CE80000F0F003802B18D104023046FFF790FF84
:100CF8000443B4F5004F01D10920CEE724010023B5
:100D08002846A2B21946FFF767FD0028F4D114F46B
:100D1800004F18BF4FF00108A6E7902B0DD100F047
:100D28000D030D2BE8D003AF002300F00F02284677
:100D380019460097FFF7A4FBCAE7A02B13D1C343BA
:100D48004FF47F6203F007031A41030702F47F623E
:100D580001D542F48042002319462846FFF73CFD9E
:100D6800002881D0C8E7B02B46D1B12808D1304639
:100D7800FFF74EFF431E0246DBB20E2BEBD9BBE753
:100D8800B22820D1002303AC0D222846194600942E
:100D98000227FFF775FB3046FFF73AFF00F07F01A7
:100DA80010F08003039A01FA07F105D102F50172E8
:100DB80000940A4403928DE70A44304607370392A9
:100DC800FFF726FFEAE7B3280BD13046FFF720FFED
:100DD8000123020300F00F0002F4702201300243E5
:100DE800BAE700F0FC03B42B86D000F00702012319
:100DF800013242F40022AFE7C02B44D1C6280AD101
:100E08003046FFF705FF0323020300F00F0002F44A
:100E180070220130E3E7C7280BD13046FFF7F8FE10
:100E2800431E0246DBB20E2B3FF666AF00230421B9
:100E380093E700F0F803C02B06D100F00F0203235C
:100E4800013242F4202287E7C8280DD13046FFF747
:100E5800DFFE00F0F00200F00F0005231032013031
:100E680040EA0232012178E7C9287FF445AF3046CD
:100E7800FFF7CEFE0523020300F00F0002F47022F4
:100E880001300243EEE700F0F803D02B7FF434AFD3
:100E980000F007020523013242F40022E2E71FB501
:100EA80003460846DA6C53680832190202921B0E90
:100EB8000322019101A98DF80C208DF80D30FFF760
:100EC800CCFE05B05DF804FB08B5FFF7C5FE806CE5
:100ED80008BD08B5FFF7C0FEC06CC379023300EB4C
:100EE800830008BD000000002DE9F04705460F46C5
:100EF800164688B02AF0FCFF44014B01241A43EA45
:100F0800D06363EB0103A2009B00121843EA9473B9
:100F180041EB0303DB0043EA5273C2F31038012F9D
:100F280048EA43484FEAD33443D0766833782D2BC8
:100F380038D031462848FFF759FE002840D124A36D
:100F4800D3E90023404621462FF0E4FC06460C4630
:100F580010461946214A00232FF0DCFC80460F4634
:100F6800104619464EF6602200232FF0D3FC824625
:100F78008946104619464FF47A7200232FF0CAFCAE
:100F8800CDE902A9CDE90401CDE906232846324678
:100F98002346CDE90087124905F0D6FB002008B0AA
:100FA800BDE8F0877378702BC3D1B378002BC6D017
:100FB800BFE74246234628460A4905F0C5FBEDE748
:100FC80028463246084905F001FC6FF00400E6E7C0
:100FD800005C2605000000001892070080EE36002D
:100FE8003C9207000492070024920700704700BF54
:100FF8002DE9F0410546CAB02AF07AFF07468C462B
:101008004FEA47184FEA4C1EB8EB07084EEAD76E6E
:101018006EEB0C0E4FEA88044FEA8E0EE4194EEA86
:10102800987E4CEB0E0C4FEACC0C4CEA547CC4F383
:10103800103444EA4C440AAE02944FEADC34304699
:101048004FF480710B4B0C4A009503942FF01AFD56
:101058000023099306930923084A089004A908481D
:10106800CDE904230796ADF824501DF0A7FA4AB03D
:10107800BDE8F0817887070094870700B0870700EC
:1010880050060220002300B587B0DDF828C00BA861
:1010980003900590CDE900331846CDF808C002F05A
:1010A800DFFD07B05DF804FB30B5334D85B02B6824
:1010B80003F00703022B43D830481DF0B7FB2B6819
:1010C800044603F00703022B1DD8002815DB2B4824
:1010D8001DF05CFB2B68044603F00703022B3AD88B
:1010E800002C03DB0024204605B030BD14F10B0FA3
:1010F80008BF0024204605B030BD10F10B0FE6D024
:10110800204605B030BD00231D490322CDE9021059
:10111800CDE9003318461849FFF7B4FF002C26DB49
:101128002B6803F00703022BD1D9002315480322AB
:10113800CDE90130104918460093FFF7A3FFC6E731
:10114800002311480322CDE90130294618460093AF
:10115800FFF798FFB0E700230C480322CDE902040B
:10116800CDE9003318460449FFF78CFFB8E714F1BE
:101178000B0FB8D1D4E700BF44A9012050060220C4
:10118800D8870700F8870700BC870700148807007E
:1011980010B50A780846012A86B004D0032A2BD055
:1011A800A2B106B010BD00232449254C0A6823705B
:1011B80012F0060FF5D0C069224ACDE90033CDE917
:1011C800022002221846FFF75DFFEAE71B49C469BF
:1011D8000B6803F0070204BB4379F3B901241848EC
:1011E800022A0470DDD918480322CDE901300093A2
:1011F8001846FFF747FFD4E710490B6803F00703C9
:10120800022BCED9002384881048CDE90033CDE9DC
:1012180002041846FFF736FFC3E7002AC1D00023AF
:1012280041790B48CDE90341029001221846CDE9E6
:1012380000330249FFF726FFB3E700BF44A90120A6
:10124800A61302206C8807003488070088880700E6
:10125800448807002DE9F04FC24C91B0236803F091
:101268000703022B00F2D7820026BF4DBF4B45E98A
:10127800013601202A46BE4909F0D4FE012840F073
:10128800C28206462B1FDFF8EC82DFF8ECB2DFF8EB
:10129800D4A20F934FF0FF330025B84F58463B6058
:1012A80088F800501DF0FEF80F9B0B22CBF83C305D
:1012B800B34BCBE91055CBF85030B24BCBF830706C
:1012C800CBF83430B04BCBF83820CBF85430AF4B98
:1012D800CBF85C304FF48063CBF85830CBF86030F3
:1012E80004238BF8663001238BF82430236803F03D
:1012F8000703022B00F2378258461DF0EBF800284E
:10130800C0F220822AF0F4FD43F698224FEA401CEE
:101318004D01BCEB000C45EAD06565EB01054FEAD1
:101328008C073F184FEA850040EA9C7041EB0005A6
:10133800ED0045EA5775C7F3103747EA454798F86F
:101348000030BF184FEAD53545F1000583B133E0C9
:10135800FFF7AAFE0028C0F2118298F800305BBBA4
:101368004FF42470002129F053FE98F800301BBB7D
:101378002AF0BEFD4FEA401C4A01BCEB000C42EAD1
:10138800D06262EB01024FEA8C039200181842EA1D
:101398009C7241EB0201C90041EA5071C0F3103060
:1013A80040EA4140B8424FEAD131A941D0DB98F830
:1013B8000030002B00F02482236803F00703022B7F
:1013C80000F2FD8198F80020002A00F0AE80022B80
:1013D8004FF0000900F298803046FFF709FE731CB1
:1013E8000B932368054603F00703022B00F2D8800D
:1013F8000028C0F29680002B40F0FA802AF078FD91
:1014080046014D01361A45EAD06565EB0105B20083
:1014180010184FEA850242EA967241EB0201C900B0
:1014280041EA5071C0F3103040EA4140236810F59A
:10143800FA674FEAD13141F100065D070DD06EE140
:10144800FFF732FE236805465B073AD1002D49DBDA
:101458004FF42470002129F0DBFD98F80030002BB0
:1014680042D02AF045FD45014A012D1A42EAD062D0
:1014780062EB0102AB009200181842EA957241EB48
:101488000201C90041EA5071C0F3103040EA4140FE
:10149800B8424FEAD131B14126DA23685A07CFD092
:1014A80000233B4801225146CDE90190CDF8009038
:1014B8001846FFF7E7FDFFF7F7FD236805465B07CA
:1014C800C4D0002398F80000012204903148514606
:1014D800CDE90190CDF8009018460395FFF7D2FDAD
:1014E800002DB5DA88F80090236803F00703194641
:1014F800002B40F0898098F80020002A00F0FE8038
:10150800022B0B9E7FF668AF234B0322CDE9019394
:101518000023514618460396CDF80090FFF7B2FD18
:101528005AE7002B40F05D810B9E58461DF002F9EA
:10153800236813F0060F0CD0184B40F6B83202930C
:1015480000230392184602225146CDE90033FFF7E3
:1015580099FD00214FF4C03029F05AFD58461DF07E
:10156800E9F897E644A901204C0602200100498EBB
:10157800BC880700A61302205006022000A70120FD
:1015880099110400FC8807004802022048FE012047
:10159800508A07005C8A0700A48907000C8B0700A3
:1015A800B84B0390CDE901930023CDF8009098F84B
:1015B80000201846049251460322FFF763FD236872
:1015C800002D03F00703ACDB022B7FF614AFAE4B04
:1015D8000322CDE90193002351461846CDF8009027
:1015E800FFF750FD236803F00703002B3FF406AF15
:1015F800A64B0122CDE90193002351461846CDF8A8
:101608000090FFF73FFDF9E62AF072FC84460D468C
:101618009F4B4FEA4C1ECDE9019300230C95BEEB7E
:101628000C050D954FEA85050E950C9DCDE90676BE
:101638004FEA451E4EEADC6E6EEB050E0E9D4FEA34
:101648008E0E15EB0C0C0D9DCDF800904EEA957E94
:101658000C9D98F8002045EB0E05ED0045EA5C75F9
:10166800CCF3103C4CEA454CED0B51461846089219
:10167800CDF810C001220595FFF704FD236803F09B
:101688000703022B19467FF636AF98F800502AF068
:101698002FFC039584460D4603227E4BCDE9067642
:1016A800CDE9019300234FEA4C1E6F01BEEB0C0EEF
:1016B80047EADC6767EB05074FEA8E06BF0016EBC3
:1016C8000C0647EA9E7745EB0705954045EA5675AF
:1016D800C6F3103646EA4546ED0B51461846CDF896
:1016E800009004960595FFF7CDFC236898F8002034
:1016F80003F007031946002A7FF402AF02297FF698
:1017080013AF654B51460293002398F80020184602
:101718000392CDE900330322FFF7B4FC04E75F4BE3
:10172800CDE90401CDE901930023CDE90676CDF892
:10173800009098F800205146089218460122FFF7B9
:10174800A1FC8AE623685A073FF4F3AE544B039092
:101758000293002301221846CDE900335146FFF7D2
:1017680091FC2368E5E64F4B2846CDE90153032257
:101778002B4651460095FFF785FCBDE52368814659
:101788005B073FF4D2AE484B03900293002301223B
:1017980051461846CDE90033FFF774FC23685F070C
:1017A8003FF4C3AE414B0122029300235146184631
:1017B800CDE90033CDF80C90FFF764FCB5E63C4B5F
:1017C80003220293002351461846CDE90033FFF760
:1017D80059FC98F80030002B40D0236803F0070329
:1017E800F5E5344B51460293002301221846CDE912
:1017F80000330395FFF746FC216801F007017DE7F8
:101808006FF07309CAE7236859072CD16FF01500E8
:1018180011B0BDE8F08F0025274B03220293214623
:101828002B462846CDE90055FFF72CFC236803F02A
:101838000703022B7FF618AD44F68E161F4A204B7D
:101848000592204A0393CDE901522B4628460322EC
:10185800214600950496FFF715FC05E521680B96CF
:1018680001F007014AE76FF0150417493346CDE93F
:10187800016101223046154900960394FFF702FCE6
:10188800C4E700BFC0890700048A0700148A07005C
:101898007C8A0700AC8A0700E08A0700208A0700D4
:1018A80044890700088907005C89070070890700D8
:1018B80088890700EC8907009C880700B087070023
:1018C800BC880700CC880700E488070044A90120E9
:1018D800002300B587B0DDF828C00BA80390059059
:1018E800CDE900331846CDF808C002F0B9F907B0C1
:1018F8005DF804FBF0B50024076B8BB00994002F4A
:1019080077D0434B0893434E0120314609AA09F08A
:1019180089FB012869D1404D2A6802F00702022A92
:101928001ED8FD2201212D2009F0E8F9041E0FDB45
:10193800082208A909F086FA002826DB3C602B68F3
:1019480003F00703022B2FD8002528460BB0F0BD63
:1019580036F002F8314B1D586D4228460BB0F0BDE9
:1019680044F68E130493BDF82230204606935BBAE2
:101978009BB205932A4B0322029329462346CDE9BD
:1019880000440396FFF7A4FFCBE735F0E5FF234AB1
:101998002B6812585B07C2F1000515D1204609F0E3
:1019A800F5F928460BB0F0BD002344F68E101D4D06
:1019B800059003221846CDE90346CDE900331649C0
:1019C8000295FFF785FFBFE7002344F68E11CDE9A6
:1019D8000542154A0491CDE90132184601220E4903
:1019E80003960093FFF774FFD8E70B490B685A0773
:1019F80002D16FF01505A8E70C4A2346CDE9022667
:101A080020460122CDE90044FFF762FFF1E700BF5D
:101A18000100498EBC88070020A901200C000000A5
:101A28005C8B0700CC8B0700948B0700348B070076
:101A38002DE9F041076B82B03FB33868002824DBFA
:101A48001546CAB100240E46A04603E018D0A542A8
:101A580012D9386800232A1B3119CDE9008809F00A
:101A68004BFA00280444F1DA35F076FF084B185891
:101A7800404202B0BDE8F081002002B0BDE8F0812C
:101A88006FF0670002B0BDE8F0816FF07F00F0E70B
:101A98000C0000002DE9F043076B83B0A7B33B6847
:101AA800002B31DBCA6889463AB34FF00008464636
:101AB800D9F8083003EBC8014C6853F838501CB902
:101AC80017E01CD0241A12D0386800232946224671
:101AD800CDE9006609F010FA00280544F1DA35F07E
:101AE8003BFF0B4B1858404203B0BDE8F083D9F8D0
:101AF8000C2008F101084245DAD80020F4E76FF01D
:101B0800670003B0BDE8F0836FF07F00ECE700BF2B
:101B18000C0000002DE9F041076B88B0002F56D06B
:101B28003868002853DBDFF8AC801446D8F800206A
:101B380083F0010502F00702022A0E464FEA8515D6
:101B480014D82B46002522463146CDE9005509F028
:101B580035FAD8F80030044603F00703022B15D8ED
:101B6800002C2BDB204608B0BDE8F081CDE903034B
:101B78000023194A1846029241460322CDE905542A
:101B8800CDE90033FFF7A4FE3868DAE735F0E4FE64
:101B98000646DFF848E0DFF848C05EF806602B46E6
:101BA800CDE904463E6803222846CDE902C6CDE9C0
:101BB80000550849FFF78CFE002CD3DA35F0CCFE2F
:101BC800064B1C586442204608B0BDE8F0816FF00F
:101BD8007F04C7E720A901200C8C07000C00000037
:101BE800408C070010B5046B84B06CB120680028E5
:101BF8000ADB09F0CBF84FF0FF330B4923600B6881
:101C080003F00703022B02D8002004B010BD002304
:101C1800064803220290CDE900331846FFF758FE24
:101C2800002004B010BD00BF20A90120648C07006B
:101C380010B4836800EBC10CB3F5004F0CD3DCF88B
:101C48000C3099421ED0DCF80810043200EBC104B5
:101C580040F82230E3600BE0BCF80630994211D01E
:101C6800BCF80410043200EBC10440F82230E380D1
:101C7800826800EBC300B2F5004F2CBF8160818001
:101C880010BC704701210024C36802F1040C01FA5A
:101C980002F223EA0203C36040F82C4010BC7047EC
:101CA80070B48668541AB6F5004F00EBC1034FEACA
:101CB8004405A1EB02011FD35E685D6001EB56018C
:101CC80086684D00B6F5004F00EBC2032CBF5D607F
:101CD8005D808568B5F5004F2CBF40F8324020F88C
:101CE80032408468B4F5004F0CD370BC5B6802EBDB
:101CF800530340F833107047B3F802C05D8001EB1E
:101D08005C01DDE75B8870BC02EB530220F83210FF
:101D1800704700BF836810B5B3F5004F00EBC101F1
:101D280000EBC20C19D3DCF804304C685B0803EBF9
:101D380054035C004C608168B1F5004F06D3DCF8B1
:101D4800041002EB510240F8323010BDBCF802100A
:101D580002EB510220F8323010BD4B88BCF802E08B
:101D68005B0803EB5E034FEA430EA1F802E0E2E7EB
:101D7800836800EBC102B3F5004F0AD201235288F1
:101D8800DA400132D21AB2FA82F2C2F11F02FFF728
:101D98004FBF52685208012A01D00223F1E7704769
:101DA80030B4846800EBC102B4F5004F22D201259B
:101DB80053885B0801335B1BB3FA83F3C3F11F033A
:101DC80000EB830CDCF81050D5B901259D40C368A1
:101DD800B4F5004F43EA0503C360CCF810102CBFDC
:101DE800916091808368B3F5004F2CBFD160D1809A
:101DF80030BC704753685B08012BF9D00225D9E73E
:101E0800B4F5004F00EBC50C2BBFDCF80830BCF86C
:101E1800043093609380846800EBC303B4F5004FEB
:101E28002CBFD560D5808268B2F5004F2CBFD96031
:101E3800D9808368B3F5004F2CBFCCF80810ACF8F4
:101E4800041030BC704700BFF8B583680446B3F58A
:101E5800004F0D464FEAC10600EBC10714D379685D
:101E680005EB510100EBC1035B68D80736D5A159D2
:101E7800691A04EBC1035B68DB0714D529462046C1
:101E8800BDE8F840FFF78CBF798805EB510100EBFE
:101E9800C1035B88DA0721D5A15B691A04EBC1038A
:101EA8005B88DB07EAD42046FFF762FFA368204679
:101EB800B3F5004F2CBFA159A15B2A46691AFFF759
:101EC80029FFA3682046B3F5004F2CBFA359A35B95
:101ED800ED1A2946BDE8F840FFF762BF2046FFF734
:101EE80047FFA3682946B3F5004F2CBF7A687A8864
:101EF800204605EB5202FFF70DFFA368B3F5004F2C
:101F0800B5D2A15B691A04EBC1035B88C9E700BFBE
:101F18002DE9F0418668B6F5004F34BF0B4601F154
:101F2800FF33B3FA83F3C3F11F0200EB82073D6965
:101F3800A5B12C464FF0030CB6F5004F00EBC40ECC
:101F480017D3DEF80480B1EB580F21D9DEF80C4026
:101F5800BCF1010C3C6101D0A542EDD14FF0FF343A
:101F6800C268C3F120039C4014400AD12046BDE852
:101F7800F081BEF80280B1EB580F09D9BEF80640CF
:101F8800E6E794FAA4F2B2FA82F2131D50F823405D
:101F98002146FFF74DFE2046BDE8F081B9B308B5EC
:101FA80000688368B3F5004F18D20439091A21F084
:101FB800070202445388C90813F0010F2CD001EB23
:101FC800530C30F83CE0ACEB0E0C8C4520D123F0E0
:101FD80001035380BDE80840FFF736BF0839091AE6
:101FE80021F0070202445368C90813F0010F13D007
:101FF80001EB530C50F83CE0ACEB0E0C614507D1FB
:1020080023F001035360BDE80840FFF71DBF704788
:10201800B721034800F0E4FCAF21014800F0E0FCE0
:10202800A08C0700F8B50568002933D0AB6801F02B
:102038000704B3F5004F2CBF0822042207341444C8
:10204800E40804EBD1049C4228BF1C4628462146DC
:10205800FFF75EFFF0B1AB68C600B3F5004F05EBC4
:10206800C0070FD27B88B4EB530F15D343F001039D
:102078007B80AB68B3F5004F34BF042308231E44AC
:10208800A819F8BD7B68B4EB530F05D343F00103DF
:102098007B60EEE70020F8BD04440146224628464E
:1020A800FFF7FEFD2146FFF77BFEAB68B3F5004F57
:1020B80001D37B68EAE77B88D8E700BF1146FFF7C2
:1020C800B1BF00BFB2F5802FF8B568D2042A88BF27
:1020D80004237FD9D21ACC1D8D1824F0070425F0CB
:1020E80007052D1B172D4FEAD5076ED9B5F5802F9B
:1020F80038BF3A464FF0000328BF07F1FF32B2FA63
:1021080082F20460C4E902732CBF02230123C2F1E6
:102118002406B600073603EBD603BB42C2F1200201
:102128004FEAD6064CD80021920004F1100035F091
:102138000DF97300BA1BB5F5802F04EBC6014FEA01
:10214800420043F001032CD263800023238048809F
:10215800A368B3F5004F2CBF44F8366024F8366006
:10216800A1686319B1F5004F4FF000012CBF596009
:102178005980A368B3F5004F2CBF62516253A2681F
:1021880004EBC703B2F5004F10D35A68314642F04A
:1021980001025A602046BDE8F840FFF701BE082357
:1021A80098E76360002323604860D1E75A88314686
:1021B80042F001025A802046BDE8F840FFF7F0BD22
:1021C8004FF40E71064800F00BFC40F2232104483E
:1021D80000F006FC40F21A21014800F001FC00BFA3
:1021E800A08C07002DE9F04F8946C2F3C20191B0D7
:1021F80001310491840702F004011A9D059140F011
:1022080019820646041D002800F0E981B9F1070F7C
:1022180040F2568102F002024FF0FF380792002286
:1022280001279B46019203EB080A069202920EB11F
:10223800C4F800B0049B002B40F3B581079B13B38F
:102248000122A11B8B08B1F5007F80F0FD81029966
:102258000F2900F2FE81002E00F0E2810299DBB224
:102268004031694401F8203C01F8108C002A00F044
:10227800B08163F07F0301F8203C019B0133019397
:10228800029B013302939AF8012004340AF1010AEF
:10229800002A4ED04FF0040CC6F108030393002126
:1022A8004FF6DA706346002900F047817A2A3BD856
:1022B8004B2A40F20E814C3A2E2A35D8DFE812F02C
:1022C8003500340034003400340034003400340065
:1022D80034003400340034009F00340034003400EB
:1022E80034003400340034003400C40034009F004B
:1022F8009F00C400C400C40035009F0005013400DD
:1023080035003400DE009F00DE0034003400F500A4
:10231800F1009F00340034009F003400F100252AAA
:1023280040F0008108F1FF3800211AF8012F002A37
:10233800B9D1A11BB1F5806F5B46084680F08E814C
:10234800002E00F06781002535608D083570059DE9
:102358009DF81820002D40F001817270019AB2702A
:10236800002A00F00181029A002A00F0AB800DF1EA
:10237800200A514602EB0A05C6F1010711F8012BA4
:10238800100607D53819484502F07F0200F29880F8
:1023980004F8012B8D42F1D1029FC6F10108574480
:1023A800BB461F46CDF80880A046059C0CAD019B96
:1023B8001BB19AF90020002A16DB002C00F0E880F7
:1023C8002A7808F8012B0022029B03EB080111442C
:1023D800494575D840469AF80030394600F8013B1F
:1023E80002EB000834F0A6FF0AF1010ADA4505F10C
:1023F8000105DCD14446A01B11B0BDE8F08F1AF8E6
:10240800012C6C2A36D004EB0C02013AB2FBFCF228
:102418000CFB02FE002E00F0E08000210EEB030210
:10242800921B91454CD3042B00F0FF80082B40F001
:1024380006810EF10804073525F00705F5E80223A3
:10244800CEE90023082370E7073525F00705073490
:1024580024F00704F5E8022336B1DDF80CC0A444E3
:10246800CC452DD8C4E900234FF0080C0021634661
:1024780008345AE71AF8023C6C2B7BD0033424F05A
:10248800030E002E63D00EF10404A31B994517D345
:1024980000214FF0040C55F8043BCEF8003004231B
:1024A80043E74FF0040C63463FE7033424F003048A
:1024B800002E00F0A980231D9B1B994580F0A48065
:1024C8006FF01B0011B0BDE8F08F4FF0080C6346A9
:1024D8002BE7472A3FF628AF292A7FF620AF2A3A6A
:1024E800D2B207FA02F202427FF41FAF12F0625F23
:1024F800AAD112F001013FF418AF04EB0C02013A23
:10250800B2FBFCF20CFB02FE002E87D1042B21D07B
:10251800082B40F09480073525F0070508350EF1A3
:1025280008048FE73FF600AF202A3FF4FEAEA2F181
:102538002301B1FA81F14909F7E6252A7FF4F5AEBE
:102548004FF0040C0121634608F10108EDE631461D
:102558004FF0040C04350EF10404A0E7F270019A60
:10256800B270002A7FF4FFAE029A002A65D00DF1FE
:10257800200A11E7073424F0070E002E40D00EF190
:102588000804A31B4B459BD800214FF0080C52E7C9
:102598009AF8002056F8227046F82240384634F05F
:1025A80051FF421C10E7304B9B4503D32F4B9B45F3
:1025B800FFF444AE079AA11B8B08002A38D1029A6F
:1025C8000F2A46D88EB140326A4402F8203C02F8FD
:1025D800108C069B0133069352E6314696E709F0C4
:1025E80007094C44C9F1080914E6059B09F10209D9
:1025F800002B7FF445AE584634F024FF81443FE673
:1026080031464FF0080C86E7049B55F804BB013BA4
:1026180004930CE6A9F10800084411B0BDE8F08F56
:10262800002AE2D009F101092AE60EF1040432E792
:10263800002208E66FF00D0044E7084642E740F242
:10264800C6210B4800F0CCF94FF41F71084800F080
:10265800C7F940F28121064800F0C2F940F2D221C0
:10266800034800F0BDF900BF347A07007C43080036
:10267800C48C070053B32DE9F04799461C785D7860
:10268800DB78A40004EB430499F8023007461C44A5
:102698000E4690464C447DB14FF0000A14F8013BB9
:1026A8000AF1010A204649F8234034F0CBFE55458B
:1026B80000F101000444F1D141463846B446D9F846
:1026C800042009F10803BDE8F04760476FF01500E2
:1026D800704700BF38B5F8B10446EFF311852023E1
:1026E80083F31288BFF36F8F144829F057F800B3AB
:1026F800124829F079F8124B0FCB84E80F000F48E5
:1027080029F05AF880B185F31188BFF36F8F0D4B0C
:10271800A2689A4204D838BD6A210B4800F060F9D3
:102728007021094800F05CF94FF49A71074800F0ED
:1027380057F98821054800F053F900BFC006022068
:10274800A0EF0120FFC99A3B088D07002C8D0700D8
:10275800F0B5012805460C4685B005D0042839D0C7
:102768006FF0150005B0F0BD29F0C2FB2B4AC60B6F
:10277800C0F30E00A0FB0202C00B46EA414640EA45
:102788004240C90BA060266061606846FFF7A2FF5F
:10279800A068234B984236D8029F9F4238D82268B7
:1027A800009E63689219019E4FF00001734168BF53
:1027B8002946C4E9002309BB0744A760204600F066
:1027C800D9FAD8B1164BA2689A4214D96321154890
:1027D80000F006F929F08CFB104AC50BC0F30E0077
:1027E800A0FB0202C00B45EA414540EA4240C90B42
:1027F800A06025606160002005B0F0BD0A4B0FCBDA
:1028080084E80F00F7E740F2B911084800F0E8F84B
:102818004FF4DD71054800F0E3F800BF00CA9A3BA9
:10282800FFC99A3B088D0700F08307005C8D0700FD
:10283800012861D1F0B50C4685B0002964D03C4F21
:102848008B68BB4255D8064629F052FB03466D46B5
:10285800DFF8E0C0C3F30E02A2FB0C2CDB0B43EA4B
:102868004143D20B5B4242EA4C424FEAD13161EB21
:1028780041015242284602920093019100F07AFAEF
:102888000298B84245D8D4F808C0BC4537D8D4E92E
:102898000071009A019BD2194B414FF0000468BFA8
:1028A8003446CDE90023ECB1EFF31186202383F3FE
:1028B8001288BFF36F8F204828F070FF98B31F4C21
:1028C8001D4828F091FF95E80F0084E80F001A488A
:1028D80028F072FF10B386F31188BFF36F8F0020C2
:1028E80005B0F0BD00EB0C032846029300F042FA55
:1028F800DAE76FF01500F3E76FF0150070474FF453
:10290800DD710F4800F06CF840F27D110C4800F0C2
:1029180067F840F2B9110A4800F062F84FF49A716A
:10292800084800F05DF88821064800F059F800BF13
:10293800FFC99A3B00CA9A3BC0060220A0EF0120BB
:102948005C8D07002C8D070000207047014B1B6829
:10295800184700BF04A70120014B1860704700BF4B
:1029680004A701200FB44FF0020C002300B50A4958
:1029780087B008AA039152F8041B02A80293CDE974
:1029880004338DF80AC001922EF0A4FA07B05DF85E
:1029980004EB04B0704700BF5529040080B5054614
:1029A8000E4614461F4628F0B7FB034634F0D4FF02
:1029B800214604463A46074F30463B51A847064B46
:1029C8001B7813B1E05906F0EFFD40F24631034899
:1029D80000F006F808000000B0130220908D0700F0
:1029E800002383F31188BFF36F8F0423184602DF97
:1029F800704700BF38B50D4604462022002134F048
:102A0800A5FC0022EB68E361AB68A3612B68236235
:102A18006B68C4E909322A6923B1591E194208BFF3
:102A280042F0010222610122002104F12C0026F06B
:102A3800ABFC00B938BD2F210148FFF7D1FF00BF1B
:102A4800BC8D0700044608B5EFF31183202383F3F8
:102A58001288BFF36F8F1FF001FF204606F05EFD5E
:102A68000248FFF77FFF06F0D5FEFCE7E48D07007C
:102A780070B50C4604F00105014605EB5400984278
:102A880057D86608002D44D1002E41D0013A01EBF9
:102A9800460E1CE0ACF1570C5FFA8CF31B01DBB25D
:102AA80053704C78A4F1300C5FFA8CFCBCF1090F20
:102AB80007D9A4F1610CBCF1050F1CD8573C5FFA8B
:102AC80084FC02316344714502F8013F20D091F83B
:102AD80000C0ACF13003DBB2092BDFD9ACF16103E4
:102AE800052BD7D9ACF14103052B22D8ACF1370C13
:102AF8005FFA8CF3D2E7A4F14105052D19D8373CCC
:102B08005FFA84FC02316344714502F8013FDED16B
:102B180070BD0C78A4F13003DBB2092B05D9A4F100
:102B28006103052B07D8573CE3B202F8013B01319A
:102B3800AAE7002070BDA4F14103052BF9D8373C62
:102B4800E3B2F2E72DE9F04340F26C77D0E90412E2
:102B5800D71901F101014FEAE27242F1000202299C
:102B68008CBF00230123FF1AC46862F10002002A07
:102B780004F1FF34C0F2AB803B0D43EA0233C3F3E8
:102B88001303C7F313051D44D61705EB123506F0DA
:102B9800210C05EB12756A4B6544A3FB05C3DB08E2
:102BA80003EB830303EB830326F01706ED1A354482
:102BB800644E7B1B03FB06F662EBE572624D05FB78
:102BC8000266A3FB0535761900F1B580D0E9018EC0
:102BD8004FF03C0C02298CBF6FF00202092240F230
:102BE8006D154FEAE879CEFB0C894FEA091C4FEACC
:102BF800081EBEEB080E4CEA187C6CEB090C11445D
:102C08004FEA8C0C02684CEA9E7C50481B094FEA3C
:102C18008E0E43EA06731EEB020E4FEA261600FBE1
:102C280003704CEBE27CF700DA00D21847EA5377DE
:102C380046EB07073F0147EA12771201D21846EB25
:102C480007073F0147EA12771201D21A67EB060716
:102C58003B4E01EBC101A6FB0036830805FB0033A0
:102C680001EB01113A480231A0FB01012344A3EB17
:102C7800561303EB91039001B901801A41EA92615E
:102C880061EB070233491B1842F100025B1862F13D
:102C98000002D91842EB0200CB1842EB00021001E7
:102CA800190140EA1370CB1A60EB020001011A0106
:102CB80041EA1371D31A61EB0001C901D80110EB85
:102CC8000E0041EA53614CEB0101BDE8F0836FF45B
:102CD800C773FB1862F100024FEA135E4EEA023E28
:102CE800CEF31308C3F3130EC6440EEB123E4FEA9D
:102CF800E27808F021090EEB127E114DCE44A5FBB7
:102D08000E95ED0805EB850505EB850528F01708F8
:102D1800AEEB050545440B4E5B1B03FB06F6DFF8DF
:102D280028C062EBE5720CFB0266A3FB0C3C16EBB9
:102D38000C067FF54BAF0F3346F1000646E700BFA0
:102D48001F85EB51F5285C8F295C8FC270FEFFFF51
:102D5800CDCCCCCC9405F5FFD0B5FFF7F3FE0646F5
:102D680034F0FAFD00240346014A30469C50D0BD99
:102D78000C00000038B5002849D08368264A9342E1
:102D880003DC002B29DB012038BD2449446881FB82
:102D9800032102684FEAE37C012ACCEB217C74F121
:102DA80000014FEAEC7E07DB6FF00041D543091BB9
:102DB800654571EB0E0128DB12EB0C01184A4EEB4E
:102DC800040402FB0C33144AC0E9001493428360E4
:102DD800D9D9F0211348FFF703FE1349D21A520A32
:102DE800A1FB0212D0E90014002C4FEAD21206DB34
:102DF8000E4D891A05FB023364F10004E3E704F180
:102E08000045914275F10005F2DA002038BDC9216C
:102E18000448FFF7E5FD00BFFFC99A3BA12FB8445E
:102E2800003665C4108E0700834B040000CA9A3B25
:102E3800F8B500F0D7F8002301220A4C0A490B4FD5
:102E48000B4E0C4DC0E90434DFF82CC00260426020
:102E58003B6033602B608360C3600A60CCF800205D
:102E6800F8BD00BF4095070024A70120CC0602202A
:102E7800C8060220C406022020A701202DE9F04739
:102E880007468846164600F0ADF8C36804461BB9E5
:102E980043691A78002A38D100236268E360BA428D
:102EA80058F8223072DA591C616193F800A0BAF11F
:102EB8002D0F6BD19D1C656193F80190B9F12D0F11
:102EC800C4F8089035D0B9F1000F24D1344D5146DB
:102ED8003046656134F0E8FA00285DD0C4F808A0EF
:102EE8002D21304634F0E0FAE0B143783A2B2DD06A
:102EF800002323612B7813B963680133636020468C
:102F080000F050F8A068BDE8F0875D1C456193F8B3
:102F18000090C0F808904946304634F0C5FAB9F137
:102F28003A0FE1D12B7803B3204600F03BF83F205D
:102F3800E9E79B78002BD3D1194B01322046626018
:102F4800636100F02FF84FF0FF30DCE72A78636800
:102F58002AB901339F4263600BDD58F82350104AA9
:102F68000133C4E904526360C9E7636801336360ED
:102F7800DAE70B4B2046636135783A2D02D000F032
:102F880011F8D4E700F00EF82846BCE7044B2046B9
:102F9800636100F007F8D6E7204600F003F8D2E7AF
:102FA8004095070070B4D0F800C0094E094DC6F826
:102FB80000C04668084C2E6008498568084A2560A4
:102FC800D0E903430C60136070BC07F0C9BA00BFB6
:102FD80024A7012020A70120CC060220C806022031
:102FE800C40602200048704708A701202DE9F04FC9
:102FF8001446828B834612F0080C83B040F0498156
:1030080002F0070002290746CDF804C080B253D069
:10301800DBF81860002EC0F2DD80411F012940F264
:103028000081042840F04A8122F00702DBF80050B2
:1030380092B2ABF81C20002D00F0338142F0200240
:10304800ABF81C2057B30025DBF80870A846AA4641
:10305800002F50D1002D4FD1BAF1000F1ED02F46AE
:103068004AE0BAF1000F02D05846A649D047EFF31C
:103078001184202282F31288BFF36F8F484628F00C
:103088008DFB002800F01181484628F0ADFBBBF805
:103098001C2022F0080292B2ABF81C20D1064DD5B4
:1030A800012122F0100292B202F00700022907461D
:1030B800ABF81C2080B2ABD100285ED1DBF8001041
:1030C80000297AD0002F40F00381DBF81010D1F8E6
:1030D80000A0BAF1000F00F0F6803D464FF0060858
:1030E8003E4622F0070242F00602ABF81C20DBF84D
:1030F8000870002FAED0012742F008020BF1140926
:103108004846ABF81C2028F057FB002800F0D18077
:1031180084F31188BFF36F8FBFB9002DA1D0284663
:10312800314650F8047B00F0D3F9044618B3294619
:10313800334642465846A0473D46EEE793063CD5FF
:1031480022F02002022192B2AEE7DBF80810002933
:10315800E3D00C683346424658464F68B847002CBF
:10316800DBD0214624683346424658464F68B84764
:10317800002CF6D1D1E73D46CFE702281AD0012826
:103188001BD1DBF80010C1B1012F40F0B580DBF88E
:103198001010D1F808A0BAF1000F00F0A88000259F
:1031A80022F0070242F005024FF005082E46ABF860
:1031B8001C209CE7BBF81E5005B30BF1140028F047
:1031C800FBFA002875D084F31188BFF36F8F03B022
:1031D800BDE8F08F4FF00108019B22F0070242F092
:1031E8000102DBF80050CBF80430ABF81C20CBF818
:1031F8000030474527D04FF0000A78E7022F71D1F9
:10320800DBF81010D1F804A0BAF1000F65D022F055
:10321800070242F004024FF004082E46ABF81C20C7
:1032280065E7019B0628DBF80050CBF80430CBF8A3
:1032380000300FD04FF0000822F0070292B2474545
:10324800ABF81C20D7D1002D3FF428AF4FF0000A6F
:10325800574651E74DB12846BBF81E10013189B2D7
:10326800ABF81E1000680028F8D122F00701BBF85F
:103278001E0041F00202ABF81C2089B210B14FF0D9
:103288000208B6E741F022024FF00208ABF81C2012
:10329800AFE701290CBF42F0100242F020028283FE
:1032A8008BE7002F7FF4D0AEF8E688211648FFF7A9
:1032B80097FB4FF49A711448FFF792FB40F21B11E9
:1032C8001248FFF78DFB4FF4AD711048FFF788FBEC
:1032D8004FF4AB710D48FFF783FB40F261110B48C7
:1032E800FFF77EFB40F25D110848FFF779FB4FF4CA
:1032F800B4710648FFF774FB4FF4B2710348FFF747
:103308006FFB00BF193304002C8D0700448E0700A3
:10331800F8B504460D4600F11406EFF31187202393
:1033280083F31288BFF36F8F304628F037FA50B115
:10333800304628F059FAA5613A462046BDE8F840DB
:103348000121FFF753BE88210148FFF749FB00BF61
:103358002C8D070088B138B50C4659B10B684BB1B4
:103368004B683BB105462022002133F0EFFF2C616A
:10337800002038BD6FF0150038BD6FF0150070479C
:103388002DE9F84F002878D00D46002975D001F1B5
:10339800040A0446504600F085F8061E26D1AB689C
:1033A800032B6AD804F11409EFF3118B202383F35C
:1033B8001288BFF36F8F484628F0F0F9804600283E
:1033C80062D0484628F010FA4FF6FF72E38BA78BBD
:1033D800934207F007073ED0022F38D0062F47D870
:1033E800DFE807F00841464608190800DADA3046EF
:1033F800BDE8F88F00232B6063688BB31D606560A0
:10340800002F3DD13E4620465A460221FFF7EEFDE9
:103418003046BDE8F88F6FF085064FF00008484643
:1034280028F0CAF9A0B38BF31188BFF36F8FB8F1F6
:10343800000FDCD05046002100F04AF880460028F2
:10344800D5D03A46294620460023C047CFE7013366
:103458003E46E383E3E76FF00A064FF00008DEE735
:1034680025606560CCE76FF004064FF00008D6E7EA
:103478004FF4E4710948FFF7B3FA6FF01506B6E7A1
:103488003E464FF00008CAE788210548FFF7A8FA2A
:103498004FF49A710248FFF7A3FA00BF448E070061
:1034A8002C8D0700034640B1426802F00302022A4D
:1034B80006D0032A04D0012A05D06FF01500704702
:1034C8001A68002AF9D0002210469A60704700BF97
:1034D80008B54268034602F00302022A816007D059
:1034E800032A10D0012A0BD045210948FFF778FAA2
:1034F800006800225A6008B129F036F9002008BD9A
:1035080000224260FAE7006800225A6008BD00BF46
:103518006C8E070010B50446B1F800E08888AEEB61
:10352800000E20691FFA8EFE86451FFA80FC24BF14
:10353800AEEB0C0E1FFA8EFEACEB0E0C1FFA8CF0E5
:10354800984228BF18462368734413600B880344C5
:103558000B8010BD4B88B1F800C0ACEB030C1FFA10
:103568008CFC944515D34FF0000C00B51A4492B268
:1035780062F30F0C62F31F4CB1F804E0C1F800C00D
:10358800A2EB0E0302699BB2934205D200205DF8BC
:1035980004FB6FF0150070479644A1F804E0F5E7C6
:1035A8002DE9F041002705468846164607E04146C2
:1035B800224633F0BFFE361B2744A04435D0AA88E4
:1035C800AB892869D31A9BB2C31AB34228BF3346C2
:1035D800298984B2511A89B288429CBF091B89B2D1
:1035E800641AA4B29C4228BF1C462868224492B29E
:1035F8000844AA80002CDAD1EB88D21A92B29742FA
:1036080019D8002128893B449BB21A1A2C6992B216
:10361800A24263F30F0128BF001963F31F4128BFBB
:10362800288169603846BDE8F081AA88EB88D21AFB
:1036380092B29742E5D948210148FFF7D1F900BF76
:10364800948E07002DE9F0414FF0000805460F461B
:10365800164643890AE037B138462246614433F0BA
:1036680069FE6B892744361BA0441AD0EA88E98989
:10367800D21A92B2B24228BF32462869591A89B280
:10368800814284B224BF091B89B2641AA4B294424D
:1036980028BF144623449BB2D5F800C06B81002C88
:1036A800D9D1AA899B1A9BB2984515D80021E889D7
:1036B80002EB08039BB21A1A2C6992B2A24263F376
:1036C8000F0128BF001963F31F4128BFE881C5F81F
:1036D8000A104046BDE8F08163210148FFF780F9F0
:1036E800948E0700704700BF002070471FF094B801
:1036F8002DE9F04F4A4FDFF82CB183B0A7EB0B044C
:103708008F2CCDE9001000F2858047494FEA141844
:10371800D1E8EF4F601CC1E8E50F002DF8D1002C6F
:103728003AD1BB4571D837D2013FA7EB0B072646E4
:103738004FF0010A3F090BF1100508E0464564D037
:10374800B74206F1010205F1100523D0164615F817
:10375800042C002AF2D055F8102CA5F11009D268D3
:103768000AB14846904755F80C2C82F806A055F83F
:10377800102C126932B14846904718B10AFA06F27D
:103788001443DBE755F80C2C48461168042200F076
:10379800EBF9D3E7019B13B903B0BDE8F08F002C18
:1037A800FAD04FF00108274694FAA4F2B2FA82F24E
:1037B8000BEB021999F80C0008FA02F1CE4324EA3F
:1037C8000104150138B9002CEED1009BBBB9002FBC
:1037D800E2D03C46E7E75BF8052012691AB1484693
:1037E80090470028EFD10BEB0502516848460422A8
:1037F8000968374000F0B8F9002CD5D1E5E7002179
:103808004FF4A47027F004FCE1E74FF4AC710748CB
:10381800FFF7E6F84FF4A6710448FFF7E1F800BF98
:10382800B87F0700987F0700D8060220C08E0700DF
:10383800002108B50846FFF75BFF002008BD00BF60
:10384800014B53F820007047F08E070038B500246C
:1038580019481A4D1A4B1B491B4A05604FF4004082
:103868001C600C701460194D00F002FD00F0D4F8D3
:10387800174B9D421AD818D203F1FF3CACEB050C4C
:103888005B1B224629461C094FEA1C1C00E01A460D
:103898004B1B48681B1101339442037101F110015D
:1038A80004D0624502F10103F1D138BD40F227117D
:1038B8000848FFF795F800BF28A70120F53604004F
:1038C800D4060220A7130220D0060220987F070002
:1038D800B87F0700C08E07002DE9F041184F3C78EB
:1038E8000CB1BDE8F081174D174E21460120FFF7B6
:1038F800FFFEB5421FD81AD206F1FF38A8EB05081B
:10390800761B4FEA1818360908E0B44205F110058D
:1039180011D0444504F1010309D01C466B685B795A
:10392800002BF2D02B6828469B689847EDE70123C7
:103938003B70BDE8F08140F2C5110448FFF750F82C
:10394800A7130220987F0700B87F0700C08E0700E2
:10395800704700BF2DE9F047234B80461B68984706
:10396800224D234EC8F80800B54237D82BD2771E0F
:103978007F1B761B00243F09360908E0A64205F1A3
:1039880010052BD0A74204F101031CD01C466B681C
:103998005B79002BF2D098F800104B070DD4B8F8DB
:1039A80000A04046CAF3821AC1F3C20900F0FAF92E
:1039B800BAF1000F01D0002807DA2B6841462846E3
:1039C8001B689847DAE7BDE8F087024649460123B5
:1039D800284600F019F95045D0D3EEE74FF40071AE
:1039E8000448FEF7FDFF00BF28A70120987F0700C5
:1039F800B87F0700C08E070000207047044A054BB7
:103A08009B1AB1EBD30F34BF52F831000020704736
:103A1800E07E0700987F07000B4B0C48A3EB000CD7
:103A28005FEADC0C0FD00A4A02EB8C0C11680379B0
:103A380021F0070103F007030B4342F8043B9445C8
:103A480000F10800F2D17047987F0700E07E070078
:103A580004A90120F8B50A4D0A4EAD1BED080BD09C
:103A68000746002456F8340018B13946FDF7BEF869
:103A780020B10134AC42F5D14FF0FF342046F8BDF7
:103A8800987F0700E07E07002DE9F8432B4E2C4C69
:103A9800361BB2EBD60F4CD2002815461F462FDB3B
:103AA80004EBC2042479C0B200EB400204BBA44674
:103AB800072703230020234E07FA02F256F82510A1
:103AC80021EA020141EA0C0C2CFA03F101F007018A
:103AD800884203F1030338BF08461E2BF4D12CF0AB
:103AE800070C4CEA000046F825002046BDE8F8839C
:103AF8009C4228BF1C4604F0070C0CFA02FCD7E7CE
:103B0800114E124CA41B2409EFD006EB0419884669
:103B1800002473682A46187941463B46FFF7B4FFEC
:103B28001036844238BF0446B145F2D12046BDE87C
:103B3800F8834FF4DE710648FEF752FF987F0700BE
:103B4800E07E070004A90120987F0700B87F0700DE
:103B5800048F070018B140680079FFF795BF4FF050
:103B6800FF30FFF791BF00BF2DE9F0410F4B104E1A
:103B78000546F61A4368F6088846DA710CD01746E7
:103B88000024686822B201343B4600210079A4B2BF
:103B9800FFF77AFFB442F4D301226B68C3F80080C0
:103BA8006B685A71BDE8F041FFF7D2BEE07E0700AE
:103BB800987F070070B5D8B1436805465A7912B99D
:103BC80000225A7170BD0D4E0D4AB61AF608F7D08C
:103BD80000240023696822B201340879A4B2194686
:103BE800FFF752FFA642F4D800226B685A7170BDE5
:103BF80040F235110348FEF7F3FE00BF987F070037
:103C0800E07E07006C8F070008B5C8B1416891F8DD
:103C180004C00F490F48091AB2EBD10F13D21BB9D0
:103C280000EBC200007908BD0B4B5FFA8CFC53F81F
:103C380022000CEB4C0C20FA0CF000F0070008BD39
:103C48004FF0FF3CE5E74FF4D4710448FEF7C8FE97
:103C5800987F0700E07E070004A90120048F070071
:103C68002DE9F04F89B004AFD7F8408004468A4662
:103C780016469946BD6BD7F844B0B8F1000F45D049
:103C8800CDF800B0102143460020FA6BC7F80CB0FD
:103C9800FEF7A8FA011E66DBB1F5006F4CDA05F1F4
:103CA80017020A4422F00702ADEB020DCDF800B06E
:103CB8000DF1200B4346FA6B58467960C1F30A08A8
:103CC800FEF790FAC5F30B020028154604F0070426
:103CD80006F0070604AB41DBB9F1000F06D078689F
:103CE800494658443B6033F025FB3B68E40044EA0E
:103CF800861444EA482444EA05541846C3E9004AAD
:103D0800FFF728FE1437BD46BDE8F08F05F117030D
:103D180023F00703ADEB030D02F00706C5F30B0212
:103D2800154600F0070404AB0DF1200BC7F804801A
:103D3800B9F1000FD3D1D9E70D490B6813F0060F7D
:103D4800E0D0002340F2FF740A4802220290CDE935
:103D580000331846039400F011F8D3E74FF4C47108
:103D68000548FEF73DFE40F265110348FEF738FEB0
:103D780010A90120DC8F0700B08F0700002300B5D1
:103D880087B0DDF828C00BA80390059002221846DA
:103D9800CDE90033CDF808C0FFF762FF07B05DF842
:103DA80004FB00BF406820B1034BC01A40F38F00EA
:103DB80070474FF0FF30704704A9012002460B46B8
:103DC80000B583B08DF807200121D3E900320DF149
:103DD800070052689847002003B05DF804FB00BF55
:103DE80070B50A2805460C4682B00CD00DF10706BE
:103DF80062688DF807503046012123685268984759
:103E0800002002B070BD0D2163680DF107065A68E5
:103E180030468DF80710236801219847E8E700BF6E
:103E28000EB400B582B003AB53F8042B0146044826
:103E3800019306F021F802B05DF804EB03B0704777
:103E4800C53D04002DE9F04F89B09DF84C8004462B
:103E58001E46159FB8F1000F40F0DB80012E149B21
:103E680028D0002B00F0C080C346B3482246149BDC
:103E7800B249FEF7FFFB0028C0F2B281169B13BBC4
:103E8800B8F1000F40F09F80D4E900831D68A66850
:103E98005F6855B13B4647469846304629464246F4
:103EA800B8472D1A0644F8D1636800221A6009B091
:103EB800BDE8F08F002B00F09780C346EAE0169B20
:103EC800002B00F08380DA46179BDFF8749203F02A
:103ED8001003CDE905389B4E169D059B102D28BF74
:103EE80010253BB9179B990640F18E8020469649CC
:103EF800FFF796FFBAF1000FC8BF4FF0000807DDC3
:103F08003146204608F10108FFF78AFFD045F7D16E
:103F180020468E493A78FFF783FF4FF0010BDFF810
:103F280030820AE05D4511D8414620460BF1010B6D
:103F3800FFF776FFBBF1100F13D01BF0070FF1D17D
:103F480031462046FFF76CFF5D45EDD917F80B2089
:103F580020467E490BF1010BFFF762FFBBF1100F02
:103F6800EBD120467B49FFF75BFF4FF0000B3A4649
:103F7800DFF8E4811278414619F80230204613F040
:103F8800970F08BF2E220BF1010BFFF749FFBBF17A
:103F9800100F0DD01BF0070F2DD05D4531D83146DD
:103FA80020460BF1010BFFF73BFFBBF1100FF1D1DE
:103FB800169B2F445B1B16938ED1DDF81880B8F141
:103FC800000F3FF461AF179B03F00105002D63D18B
:103FD800179BDA063FF558AF9B0620464CBF5A4957
:103FE8005E49FFF71DFF4FE7169B002B3FF44CAFD0
:103FF8004FF0000A68E731462046FFF711FF5D459C
:10400800CDD907EB0B02B5E720465449FFF708FF67
:1040180070E7B8F1040F00F2E88092468946FFF78E
:10402800EBFC179A179B02F0010502F008020592B3
:10403800179A03F0020302F48072069202460028DF
:1040480030D0204646490793FFF7EAFE079B834690
:104058005BBB55B1434B204653F82820424B43499C
:10406800002A08BF1A46FFF7DBFE069B002B00F06C
:104078008D80059B002B40F0A080BAF1000F05D081
:10408800524620463A49FFF7CBFE8344149B002B47
:104098003FF415AF3748E9E62046334A3349FFF77E
:1040A800BFFE95E78346002BD3D0179B13F0440F30
:1040B80000F08D80304BD3F800E0BEF1000FC8D07F
:1040C8002E4B2F4A1B682046B9FBF3F3B3FBFEFCCB
:1040D800A2FB0C924FF47A790EFB1C3309FB03F315
:1040E80007934FF461634FEAD22903FB19C9254BA3
:1040F8002549A3FB09C3DDF81CC05B09BCFBFEFC1A
:10410800CDF804C0C3EB031CA9EB8C0CCDF800C0A0
:10411800DDF80490DDF81CC0D20A0EFB19CC4FF470
:104128007A7909FB0CFCBCFBFEFCCDF808C0FFF754
:1041380077FE83448DE700BFE93D0400819E0400BB
:104148006A420800CCF6070004F1070090900700C7
:104158009C900700A09007007CA207009890070099
:104168004C900700C490070014900700789007004F
:104178007C900700C53D0400E0060220DC06022012
:10418800C5B3A291898888885C900700059BABB964
:10419800DDF81490BAF1000F05D0524620461549B3
:1041A800FFF73EFE8144CEB1324620461249FFF762
:1041B80037FE00EB09039B4468E700260F4B2046B7
:1041C80053F828200E49FFF72BFE8146E2E74A46BE
:1041D80020460C49FFF724FE83443AE7CB4455E7D1
:1041E80040F2A7210848FEF7FBFB40F24D210648A4
:1041F800FEF7F6FB7C90070088900700D890070030
:1042080080900700509007001C9007002DE9F043AC
:104218000546087887B0C0F3C20908460E880C46E0
:104228008F689046FFF7BEFD011EC6F382161ADAA4
:104238000023002239462846678854F8105BC7F3E4
:104248000B17C5F34A2C944504EB0C0508BF14461C
:10425800CDE904780196039500920294FFF7F2FDE8
:1042680007B0BDE8F0834846FFF7C8FB0346E0E720
:104278000A4A904288BF012309D9400890424FEA70
:104288004303FAD8064A1360064B186070470122A8
:10429800034B1A60034B1860704700BF40420F0081
:1042A800DC060220E00602202DE9F041884659B1DB
:1042B800074E4518B768441E013D14F8011F3046E3
:1042C8007B689847AC42F8D14046BDE8F08100BF12
:1042D8005C7B070003465B6800201B685B6899618C
:1042E800704700BF01212DE9F04143681B685A68F7
:1042F8001177D3F80080D8E900731C68D8F8085003
:104308005E6844B1284621463246B847241A054417
:10431800F8D1D8F8043000221A60BDE8F08100BF57
:1043280070B543680C461D686B689869FFF788FA92
:10433800214603460F222868BDE87040184700BF91
:1043480010B543681C68064823F000FF18B12368BD
:104358005B685C6010BD99210248FEF741FB00BF15
:104368005C7B0700EC9007000346024A00201A60B5
:10437800704700BF8091070010B504461EF04CFA44
:1043880003490246204602F0DFF9002010BD00BFB5
:10439800AC91070030B515460346002483B0686821
:1043A8000A2101AA01941D4602F0A6FF019C9CB9AE
:1043B8004FF40045214640F2E73220EAE073C3FBA0
:1043C8000521002310464FF47A722CF0ADFA26F03E
:1043D8001FFE204603B030BD22462846034902F09E
:1043E800F5F9019C204603B030BD00BFDC91070001
:1043F80008B5034A034902F0A7F9002008BD00BF29
:10440800D4920700DC920700F0B51746002383B06A
:104418000A21044601AAB868019302F06DFF1A49FF
:104428000646204602F0C2F9019DE5B9F6B2042E0F
:104438000DD87868FFF70EFB021E1DDB33462946B0
:10444800284612B2FFF786FB284603B0F0BD0125C7
:10445800324620460D4902F0B9F9204602F042FBE7
:10446800284603B0F0BD2A462046094902F0AEF9B5
:10447800019D284603B0F0BD20467A68054902F040
:10448800A5F96FF01505DFE7089307009893070073
:1044980070930700B0930700012008B5FEF7D2FA21
:1044A800002008B5FEF7CEFA0B68834204BF01234B
:1044B8000B7170470246002300B583B06946054872
:1044C80000928DF8043027F037FA9DF8040003B005
:1044D8005DF804FBB144040010B504461EF072F9FF
:1044E80007490246204602F02FF92046054902F006
:1044F8002BF92146044827F023FA002010BD00BFFD
:1045080094940700B494070015450400F0B58FB0E3
:1045180004460E46D0F8AC7025F04AFD294B1B78AE
:10452800002B49D00546284B33F016FA002D08BF5A
:104538001D46DFF898E0DFF898C05EF80000254ACD
:104548002346844208BF624623493046009502F05C
:10455800FBF8D4E90A23CDE90023304694F90E305C
:10456800227B1E4902F0F0F806A92022204625F0F9
:1045780021FD636F02461A49304602F0E5F82046ED
:1045880005A925F061FE80B96425059B3046FC1A13
:10459800CDE9004705FB04F4B4FBF7F43A461149AA
:1045A800029402F0D1F80FB0F0BD02460E49304631
:1045B80002F0CAF80FB0F0BD40F246310B48FEF7E2
:1045C8000FFA00BFB0130220C094070008000000D3
:1045D80058AE0700CCF60700C4940700D094070033
:1045E800FC9407004495070014950700908D070078
:1045F80030B505464FF02033002291B029461948BE
:10460800CDE90E22CDE90933CDE90B330893ADF896
:1046180038300D9327F094F94FF40061124807AA37
:1046280025F000FEC8B94FF400614FF0640C044651
:1046380008AB0093079B2846CA1A03920CFB02F2A8
:10464800D20A02930491019105922346064A07492A
:1046580002F07AF8204611B030BD50210448FEF728
:10466800BFF900BF7D460400B82C0220E49507007E
:104678009C950700F0B5054689B00E46D0F8AC7099
:1046880007A925F0E1FDD0B9284625F091FC642161
:10469800079C034601943C1B029401FB04F4B4FB01
:1046A800F7F40A492A46002B08BF0B46304608494A
:1046B80003970097049402F047F809B0F0BD02464A
:1046C8000449304602F040F809B0F0BDC094070034
:1046D800309607001495070038B514460546102291
:1046E800606800212CF070FA0446FFF7E3FE90B1F1
:1046F800124B1B78E3B133F02FF9114B1B589C4236
:1047080011D0204625F0FAFE284622460D4902F02F
:104718001BF8002038BD224628460B4902F056F8FF
:104728006FF0150038BD2846084902F04FF8F7E742
:1047380040F246310648FEF753F900BFB013022095
:1047480008000000DC96070098960700B49607005A
:10475800908D070038B51446054610226068002180
:104768002CF032FA0446FFF7A5FE90B1124B1B78E5
:10477800E3B133F0F1F8114B1B589C4211D020469D
:1047880026F0FEF9284622460D4901F0DDFF0020FB
:1047980038BD224628460B4902F018F86FF015007C
:1047A80038BD2846084902F011F8F7E740F24631CB
:1047B8000648FEF715F900BFB013022008000000F4
:1047C800489707009896070020970700908D0700E4
:1047D80038B5144605461022606800212CF0F4F91B
:1047E8000446FFF767FE90B1124B1B78E3B133F034
:1047F800B3F8114B1B589C4211D0204604F0D4FE4C
:10480800284622460D4901F09FFF002038BD224668
:1048180028460B4901F0DAFF6FF0150038BD28462D
:10482800084901F0D3FFF7E740F246310648FEF7A2
:10483800D7F800BFB013022008000000B0970700A7
:104848009896070088970700908D070010B50C46CA
:10485800002102F0CFFC00B100680023024AC4E93D
:104868000233C4E9000210BDEC97070010B50C46EE
:10487800002102F0C3FC00B100680023024AC4E929
:104888000233C4E9000210BDEC97070070B5064674
:104898005068144602F0B6FCF0B1054623F056FC09
:1048A800A0B9284623F020FC054638B9304662688E
:1048B8000D4901F039FF0025284670BD034662689E
:1048C80030460A4901F082FF284670BD30466268CA
:1048D800074901F029FFEEE730466268054901F013
:1048E80075FF6FF01205E7E760980700309807003A
:1048F8000C980700F49707002DE9F04F91B0054692
:1049080003A88946019223F015FC039B082103EBB9
:1049180040182E4A284601F0F9FE039CA04535D9D7
:10492800DFF8ACA026680EB1337833B923463021BE
:10493800284A04A82CF0A6F804AEB9F1020F05D154
:10494800019B3046596832F000FEE0B13346082139
:104958002846214A01F0DAFE204623F0F7FB0646F6
:104968001E4B0821002E08BF534628461C4A01F05A
:10497800CDFEE3693BB1D3F800B0BBF1000F02D024
:10498800DBF8002032B92034A045CBD8002011B084
:10499800BDE8F08F134A0821284601F0B7FEDBF87E
:1049A80000206AB15F46002657F8043F08212846D0
:1049B8000D4A01F0ABFEDBF800300136B342F3D804
:1049C80008212846094A01F0A1FEDCE7989807006B
:1049D8008C980700A4980700AC98070084980700F3
:1049E800B4980700BC98070024E0070004F107000A
:1049F800F0B5137814463A2B06460D4683B015D108
:104A0800013401AF23783A2B28D101340A223946E0
:104A180020462CF063F8019A0346A24228601AD077
:104A28001078C0B93C2B2ED803B0F0BD01AF0A22D4
:104A3800394620462CF052F8019BA860A3420AD0C0
:104A48001A783A2A07D1172898BF5C1CDAD9304659
:104A58000F4901F0BBFE6FF01500E5E70A22394661
:104A680020462CF03BF8019B6860A342F3D01A78EB
:104A78003A2AF0D13B2898BF5C1CC7D93046054973
:104A880001F0A4FEE7E73046034901F09FFEE2E7A4
:104A9800B0990700C0990700D09907002DE9F041A7
:104AA8000D4694B006A9044601201646FDF750FEAF
:104AB8000BA906A82BF042FF032D31D0022D65D19A
:104AC800204672680BA9FFF793FF00285ED10BA858
:104AD800FEF742F9B1F1FF3F08BFB0F1FF3FCDE962
:104AE80006015FD000230893012006A9FDF7A0FE68
:104AF8000546002850D1DDE90F320B992046039175
:104B08000C99013302910D9902F26C7201910E9980
:104B180000912C4901F018FE284614B0BDE8F08138
:104B280075680A22284605A92BF0D8FF059B804600
:104B38009D422BD01A782D2A28D15D1C0A2228469E
:104B480005A92BF0CBFF059FBD421FD03A782D2A2F
:104B58001CD1451E0B2D2AD801370A22384605A933
:104B68002BF0BCFF059B9F4210D01B7873B9431EE6
:104B78001E2B21D8CDE90E05A8F26C732046B26829
:104B88000BA91093FFF734FF0028A0D0204601F0AE
:104B9800A9FF6FF01505BFE702460B49204601F053
:104BA80015FEF6E72046094901F010FEF1E7204618
:104BB800074901F00BFEE9E72046064901F006FE29
:104BC800E4E700BF449A07002C9A0700009A070000
:104BD800E0990700F099070010B5044692B004A9BF
:104BE8000120FDF7B5FD09A904A82BF0A7FEDDE912
:104BF8000D32DDE909010133CDE90210DDE90B01D0
:104C080002F26C72CDE900102046034901F09CFDC8
:104C1800002012B010BD00BF449A07002DE9F041F2
:104C280015460E4610220021044668682BF0CCFF7A
:104C3800022E07460DD820222046274901F084FD80
:104C48003A6800232046254901F07EFD0020BDE892
:104C5800F0810A220021A8682BF0B6FF80465FFA8F
:104C680088F8204642461C4901F06EFD032E24D0E8
:104C78001022E86800212CF00DF805460B46204666
:104C88002A46174901F060FDB8F1100F0DD0B8F1B0
:104C9800200F10D0B8F1080F0AD02046114901F0B2
:104CA80053FD6FF01500BDE8F081ADB23D80CDE752
:104CB800EDB23D70CAE73D60C8E7B8F1100F08D003
:104CC800B8F1200FBCD0B8F1080FE6D13A78D2B2CB
:104CD800B7E73A8892B2B4E7F49A0700249B070032
:104CE800389B07000C9B07002DE9F04F0023012596
:104CF8004FF0FF36554C87B0256082460D46144666
:104D080001934FF02008FEF793F8B146504F3A460A
:104D180021462846FEF7B2F8421C43D073282ED00D
:104D2800772819D0612804D06FF0150007B0BDE8C6
:104D3800F08FDFF820B11021DBF8000001AA02F0A3
:104D4800DBFA019B0646002BE1D05046DBF8002039
:104D5800414901F03BFDE7E7DFF8F8B00021DBF857
:104D6800000001AA02F0C8FA019B8046002BCED0B1
:104D78005046DBF80020394901F028FDD4E7DFF878
:104D8800D4B00021DBF8000001AA02F0B5FA019BBB
:104D98008146002BBBD05046DBF80020304901F09B
:104DA80015FDC1E7731C4CD0B9F1FF3F44D05FFA41
:104DB80088F4C8F3C408B9F1000F2ED0A8EB060593
:104DC800C84519D8B8F1100F16D8324602AB102CC6
:104DD80008D0202C26D0082C21D05046214901F09B
:104DE800B3FCA1E7118889B21970090A59704244C5
:104DF800511910294344EAD94F46102F28BF1027CC
:104E0800314650463B4602AA01F0F0FCB9EB0709CF
:104E1800A5F1100506F11006D2D1002086E7117819
:104E28001970E4E71168080C19709870C1F307212C
:104E3800000A5970D870DAE750460B4901F0C6FCF1
:104E480072E75046094901F0C1FC6DE720A701202F
:104E58008C9B0700C4060220509B0700789B070024
:104E6800649B07000C9B0700B49B0700949B0700FA
:104E78002DE9F04700239246384F394C394A012929
:104E880006462360DAF804003B7013603AD90C46F2
:104E980055464FF00108DFF8D09012E043782D2BEB
:104EA80015D18378002B0CBF0246421C13782D2B9A
:104EB80011D15378652B0ED1013C012C87F8008065
:104EC8001DD0AA4655F8040F03782D2BE6D00246CC
:104ED80013782D2BEDD013782D2B04D153782D2B4F
:104EE80001D193787BB313782D2B0BD153784BB129
:104EF80049463046013C01F027FC012CE1D1DAF8A3
:104F08000800AA46002211462BF05EFE0022014648
:104F1800164BDAF80400196011462BF055FE144CB4
:104F2800144B277818609FB901253046124925701F
:104F380001F00AFC3A4630461049257001F0FAFDA6
:104F48000020BDE8F087DAF808000AF1040AD9E77A
:104F580030460B4901F03AFCF2E700BFAA130220E1
:104F6800180702201C070220D09B070024070220F4
:104F7800A813022020070220249C07008D4F04005C
:104F8800E89B0700002A00F092800A442DE9F047C8
:104F980081464B4E4B4DDFF83081DFF830A14C1E77
:104FA800571E0DE009282B68327001D9052903D84E
:104FB80008F8032001332B60022B46D0BC4242D0B4
:104FC800337814F8012F182B22F02003A2F13000B7
:104FD800A3F14101E6D1112AE4D100233C4C3D4D17
:104FE800484622683C49337001F0AEFB2B7883F0C9
:104FF80001032B70002B3CD100224846114601F0DA
:1050080099FD364B1B78F3B92168042913DD344E1A
:105018004D1F3368AD08681C03EB80001A6812BA8C
:1050280043F8042B8342F9D1C5EB8575043901EBAC
:1050380085013360216011F0030221D1284B1A68E1
:1050480013681BBA1360BDE8F087102200214046A0
:105058002BF0BAFD4FF0000C1D49DAF800300A6851
:1050680003F8010B01320A60CAF80030C5F800C025
:10507800A4E748461B4901F067FB01232B70BBE7F7
:105088004B4203F0030358BF5A42022A10D0032AA6
:10509800D9D1134B186802681104C2F3074301F40D
:1050A8007F010B4302F47F4213430360CBE7704751
:1050B8000B4B1A6813885BBA9BB21360C3E700BF37
:1050C800A91302201807022014070220240702202F
:1050D8001C070220A8130220509C0700AA130220D4
:1050E80020070220249C070010B540681C46243085
:1050F800FEF7A8FA03462360002010BD2DE9F84307
:1051080046689946337BB3B190465AB10D46531E53
:105118004C1E1D44306814F8011F87687F68B84723
:10512800AC42F7D1C9F800800120D6E9013198478F
:105138000020BDE8F88306F11000FEF731FA0121DE
:1051480006F1B803C9F80000D3E8EF2FC3E8E01F61
:105158000028F9D1002AEBD1306883685B69002BFD
:10516800E6D098470020BDE8F88300BF10B582B0AC
:10517800094822F0EBFF58B10424084A01231268B9
:1051880005490748009401F00FFC002002B010BD4B
:105198006FF01200FAE700BF5C7B07006C9E070007
:1051A800B87F070003785B0701D5002070470368C4
:1051B8004288C3F34A2000EB1210173020F0070092
:1051C80080087047002310B5064C86B00BA8CDE9BF
:1051D8000240059002221846CDE90033FEF740FD53
:1051E80006B010BD1C9E0700F8B54027002408260D
:1051F8004568C5E90012AB604268D319536202F1F1
:105208003803C2E90A44C2E90434C2E9064415680D
:10521800576314631662C2F8B840AB6823B11B6CBD
:1052280013B1284604499847AB681B6A0BB1284656
:1052380098470020F8BD00BF455204002DE9F0470B
:1052480005460C4686B08368DA6B0AB19047AB68AE
:10525800DB6A1BB128469847002840D04FF0000869
:1052680004F1240604F12807218E238D626B5B1A52
:105278009BB2D31A934228BF13463946304605AA33
:10528800FEF748F98146B0B1AB6805991B69002B58
:105298006ED0024628469847824600284BD0524690
:1052A80039463046FEF756F900284BD1CA454FF02B
:1052B8000108D9D00FE033490B6813F0060F45D128
:1052C800AB681B6923B1012228460DF113019847E9
:1052D800B8F1000F03D0D4E9013100209847AB683A
:1052E800DB6913B12846984710B3618BE38A226AB9
:1052F8005B1A9BB2934204F1100604F11A0728BF07
:105308001346394605AA3046FEF704F9024630B37B
:10531800AB680599DB6873B3284698470246394657
:105328003046FEF717F948BBD4E901310120984708
:1053380006B0BDE8F087024639463046FEF70AF95E
:105348000028C5D06F211048FDF74AFB0F4B0222F9
:105358000293CDE900000346FFF734FFB0E7AB68DE
:105368009B690BB1284698470023C4F8B830DBE79F
:105378006FF0570A93E76FF05702D0E7BB21024856
:10538800FDF72EFB38A90120349E07001C9E07005C
:1053980010B5406850F8804B26F004FEA3689B695E
:1053A8000BB120469847A3685B6A0BB12046984723
:1053B800002010BD08B54368197309B9002008BD5D
:1053C800186883689B69002BF8D09847002008BDAF
:1053D8000EB400B582B003AA52F8041B019201F082
:1053E800E9FB02B05DF804EB03B0704738B504463A
:1053F800886800F5207024B9BDE83840012127F0FD
:10540800E3BA0D46082127F0DFFA012C0AD1AB6870
:1054180003F51F73D3E8EF1F41F00201C3E8E21F51
:10542800002AF7D138BD00BFF0B583680446D3F829
:105438007C220D46520783B031D4E068C36803B3B9
:10544800A26829460DF106035A3203F0ABF9002889
:1054580038D0204602F0FCF8A368D3F878329B06CF
:105468002BD4204602F086F9A268BDF80630204603
:10547800A2F85630A268A2F8543001F0BFFF03B07A
:10548800F0BD002DFBD0A66806F15A07384631F06A
:10549800D9FF83B21BBB86F85A31E068D0E703F521
:1054A8001F73D3E8EF1F21F00401C3E8E21F002AAD
:1054B800F7D1E06803F072F9BFE70D496069FFF7BB
:1054C80087FFCEE7A06800F5AD715A30FBF798FB6F
:1054D800A0685A3031F0B6FFADF80600B9E7421CB3
:1054E800394606F5AD7031F025FFE068A8E700BF42
:1054F800008407002DE9F04F0746A9B05422002187
:1055080013A831F023FF0023BA683846CDE90733E2
:1055180002F15A0802F0A4F8384601F057FF0028B3
:1055280000F041814FF00009BB683846C3F8189075
:10553800C3F81C90C3F82090C3F82490C3F82890AF
:1055480001F014FED7E90210B1F854205A3103F0E3
:1055580059F9384603F0C4F90899012900F0A481E3
:10556800CA463B46DDF81CB013AC4D464746CDF85D
:105578001090CDF80C90CDF814904FF0FF36A1465E
:1055880098465C46D346132C00F24081002E00F06A
:1055980042813A464946022308A801F0AFFB089920
:1055A800D9F80470002900F0EF80012900F0AF80DD
:1055B800079B002B7DD1BAF1000F00F0CB8009F1D9
:1055C8000409013E002D00F09580EB68BBF1000F47
:1055D80000F0A680002B40F0CC80079C6B68002B65
:1055E80000F0B680AE460DF1380C0593BEE80F000A
:1055F800ACE80F00DEF800300395CCF800300899CD
:10560800002E74D1022972D00129BCD15A464746CE
:10561800A346DDF81490BBF1130F03D908990229AA
:1056280000F05681049913AB03EB81044AB1384664
:1056380003F012FABA68142313A95A3207A801F022
:105648005DFB039B079D23B1039B5B7CFE2B00F056
:105658000481049BED1ABB685A6A002A00F0E080B6
:1056680093F82820002A00F0A3804FF6FF7193F8E2
:105678002900FF2818BF0146AA4203D80A44AA42B3
:1056880080F096809B69964A0121384602F094F989
:10569800B9683846183102F0FDFDB9683846914AB4
:1056A800183102F089FD6FF01504204629B0BDE8D5
:1056B800F08FD9F8000002F021FE002840F0D880D1
:1056C800079B002B3FF477AF29464046D9F80020C6
:1056D80003F028F9022800F0E08003283FF46BAFBC
:1056E800079C4FF0010B0134089907948CE70134AB
:1056F800079489E7079C3CB9D8F80830DB6A002B87
:1057080045D0DB68002B42D04FF0010A77E700282C
:105718003FF44EAF0346744A404602F04DF933E079
:10572800D8F80820079C002B3FF458AFAE4602F18A
:10573800180CBEE80F00ACE80F00DEF80030CCF81B
:105748000030AB6873B16B680494002B7FF44AAFE8
:10575800039554E70398D9F8001009AA01F05CFCF6
:1057680005462CE76B7CFE2BEDD12E7C0494013E84
:1057780034E7404601F074FF404601F03FFE012146
:1057880040465A4A02F018F96FF007048DE7584B63
:10579800012100934046139B564A02F00DF94FF041
:1057A800010A079C2BE754497869FFF711FEB9E60F
:1057B80003F51F73D3E8EF1F41F40061C3E8E21F4C
:1057C800002AF7D1B86800F5247023F0F1FDBB6812
:1057D8002246294638465B6A98470446B86800F569
:1057E80024704FF0FF334FF0FF3223F051FEBB68B7
:1057F80003F51F73D3E8EF1F21F40061C3E8E21F2C
:10580800002AF7D1204629B0BDE8F08F5A4647460E
:10581800DDF8149003E75A464746DDF8149001E78F
:10582800B9F1000FB0D0DA694A4509D003F118047C
:10583800CDF83C900EAD0FCD0FC42B682360BB682C
:10584800384603F1180102F025FDB9683846254AA3
:10585800183102F0B1FC012427E728AB03EB8503DC
:1058680053F8543C002B3FF4F4AE01350795F0E6AD
:10587800DDF814904746B9F1000F23D0D8F8084056
:10588800CDF83C9018340EAD0FCD0FC42B684046B0
:105898002360D8F808101831D5E75A464746DDF88E
:1058A8001490DDF81CB0B6E6079D132D06D8BB682A
:1058B8005A6A002A3FF468AF13ACD1E6CDF81090CD
:1058C80013ACC6E6012140460C4A02F075F85BE7C6
:1058D800012138460A4B0B4A02F06EF854E700BF24
:1058E800C89F0700289F0700149F0700589F0700BC
:1058F800909F0700889F070004F10700389F070062
:10590800A49F0700DCDC070038B500286ED00446E9
:105918008068002865D06368002B62D02368002B5C
:105928005FD0037D012B59D1D0F87C32590421D4A2
:105938004FF48042002300F5247023F0A9FD0546AA
:10594800002848D10821204601F0B2FF2A496069A1
:10595800FFF73EFD0222A3681A75A3689A6CA2B1EC
:10596800204602F083FAA06800F5247023F020FD99
:10597800284638BDD0F878325A07D9D4026D214666
:10598800E06902F01BFBA068D2E783F85A50A368CD
:10599800A3F85650A368A3F85450A368D3F87C32F0
:1059A800DB0403D4204602F049FAD9E7134B03215C
:1059B8002046134A02F000F8A36803F51F73D3E8E2
:1059C800EF1F21F48051C3E8E21F002AF7D12046D7
:1059D80002F034FAC4E76FF00F05C9E76FF08505E8
:1059E800C6E740F2A9510748FCF7FAFF4FF4B56142
:1059F8000448FCF7F5FF00BF04F107000CA00700FE
:105A080078900700E49F07002DE9F04FAFB0002819
:105A180000F0738483680446002B00F0698403F562
:105A28001F73D3E8EF1F41F00101C3E8E21F002A0A
:105A3800F7D1A3681A7D022A0CD003F51F73D3E8A7
:105A4800EF1F21F00101C3E8E21F002AF7D12FB0B0
:105A5800BDE8F08F00229D6C07926068DA6C0368DD
:105A68001F69002D40F0858007AB01220DF11B0155
:105A7800B847079B002B00F051839DF91B20A368B2
:105A8800002A1D469DF81B10C0F21E815A7D032A6C
:105A980067D8DFE802F0362B026600236B75A3682F
:105AA800D3F87822900740F10F8131391B295AD851
:105AB800DFE811F00E011A014001140159005900E4
:105AC8005900590059005900590059005900590006
