:020000021000EC
:10000000F8070020F13A0100593B010005E5010025
:1000100027E5010049E501008DE501006BE50100E0
:100020000000000000000000000000002561010049
:100030005F3B01000000000089710100653B010089
:1000400000000000000000000000000081730100BB
:10005000000000006B3B01000000000000000000F9
:10006000713B0100773B01007D3B0100833B0100B8
:1000700000000000893B01008F3B0100953B01001F
:100080009B3B0100A13B01000000000000000000BC
:10009000A73B0100AD3B0100000000000000000094
:1000A000B33B01000000000000000000B93B01006C
:1000B000BF3B0100C53B0100CB3B0100D13B010030
:1000C000D73B0100DD3B0100E33B0100E93B0100C0
:1000D000EF3B010000000000F53B010000000000C4
:1000E000FB3B010000000000013C0100000000009B
:1000F000073C0100000000000000000000000000BC
:10010000000000000D3C01000000000000000000A5
:1001100000000000000000000000000000000000DF
:1001200000000000133C010000000000000000007F
:1001300000000000000000000000000000000000BF
:04014000193C010065
:1001440001015F5F030100001F0100001D13010096
:100154000020000000000000010000000100000079
:10016400000000000000000000000000000000008B
:10017400021F00005833002000000000700000003F
:100184003603020080000000000F000001000000A0
:10019400150301000100000001015F5F0001000080
:1001A4001F0000001D3801000007000000000000CF
:1001B4000300000001000000000000000000000037
:1001C4000000000000000000051F000000120020D5
:1001D40000000000800000007000000040000000EB
:1001E400410302006000000001070000010000005C
:1001F400852E01000100000001015F5F0101000084
:100204001F01000073180100200700000000000017
:1002140000000000010000000000000000000000D9
:100224000000000000000000011F000058530020DF
:10023400000000005F03020070000000020F0000D5
:1002440001000000310A01000100000001015F5FAC
:10025400040100001F010000F12801000005000056
:100264000000000000000000010000000000000089
:10027400000000000000000000000000011F00005A
:10028400785A0020000000008403020040000000AF
:100294000507000001000000DD2601000100000048
:1002A40000015F5F02000000FE0B0000B561010069
:1002B4000004000000000000000000000000000036
:1002C40000000000000000000100FFC3000000C4A3
:0C02D40000FE0000E09F00200000000081
:1002E00038B50025064B294603F580541846D4F846
:1002F0000024C4F804540EF0B8F9C4F8005438BD12
:10030000785F0020024BD3F804340360002070476C
:10031000786F00202DE9F04F04680546A5B0002C49
:1003200040F00C812146202204A80EF09EF92146BF
:1003300020220CA80EF099F92146042414AF402283
:1003400038460EF092F905F1200353F8041D2246B9
:10035000013C09B1144601E0002CF6D1042605F158
:10036000300353F8041D3246013E09B1164601E040
:10037000002EF6D12CB96FF08304204625B0BDE8DD
:10038000F08F40233A460021686807F085FD402839
:10039000F1D1CDE904700127DFF8A8A10DF1100813
:1003A00005F110090AF5805BBC4230D10CAF3C4628
:1003B0000021654A05F11C00D2F8003400EB8608E4
:1003C000A2F58059404540D109B1C2F8003400235C
:1003D000CDE90233059BA968402BC2F80414049AA6
:1003E00040F0A080138D180A03285BD0012800F08C
:1003F00082801268831ECDE90221092B00F28C80D5
:10040000DFE803F04150555B61676D737E8459F8F6
:10041000043F1A1D21D8DBF80004D91C21F0030188
:10042000C0F5A052914218D8014400EB0A02CBF863
:10043000001468683946019207F02EFD019AC8F849
:100440000C00013748F8082FAEE750F804EF1EF112
:10045000040F07D909B1C2F80034FFF741FF6FF06C
:100460008C048AE70EF1030C2CF0030CC3F5A05AA0
:10047000D44504F10804EDD803EB090144E9021E58
:10048000634401219EE702AA0CA904A801F018F90F
:1004900004464FF00008464507F1080745D1FFF72D
:1004A0001FFF6AE70CA904A800F0ECF8F0E702AA25
:1004B0000CA904A800F043FFEAE702AA0CA904A8CB
:1004C00000F03AFFE4E702AA0CA904A800F0EEFF4E
:1004D000DEE702AA0CA904A801F0ECF8D8E702AA0A
:1004E0000CA904A801F0E9F8D2E702AA0CA904A813
:1004F00000F0AAF9CCE70CA904A801F084F9C7E739
:1005000002AA0CA904A801F0AEF9C1E702AA0CA93D
:1005100004A801F0ABF9BBE70C4803F027FD6FF02E
:100520008504B6E76FF08004B3E7414657E902233C
:10053000686807F0BBFC08F10108ACE76FF08504C0
:100540001BE700BF785F0020786F00203C29010086
:1005500008B54FF4D052002102480EF086F8002072
:1005600008BD00BF581900200023F7B50C680746E6
:100570000E461546019314BB22B3146001A8FFF781
:10058000C1FEA8B94FF4507C104A0CFB04F3D158BB
:10059000A646013471B94FF0010E02EB030C42F88C
:1005A00003E0019910331344CCE9011734602B6048
:1005B00003B0F0BD082CE8D16FF08400F8E76FF0CD
:1005C0008800F5E76FF08600F2E700BF58190020B9
:1005D0000023F7B505680193013D072D036004D999
:1005E0006FF08604204603B0F0BD01A8FFF78AFE35
:1005F00004460028F6D14FF450735D430A4E7359F8
:100600007719012BECD17A68019B9A42E8D105F168
:1006100010004FF44C72214630440EF026F8C7E922
:1006200001447451DEE700BF58190020002373B560
:100630004C1E072C06461546019303D96FF088001F
:1006400002B070BDC2B101A8FFF75CFE0028F7D16F
:100650004FF4507202FB04F1094B5C585A18012CFC
:10066000ECD19468B442E9D15468019A9442E5D13E
:10067000103119442960E3E76FF08600E0E700BF1E
:100680005819002000232DE9F043D0F8008085B0F0
:10069000B8F828900546A9F540720F460293082A3B
:1006A00050D8DFE802F0192A354F4F4F4F4F050061
:1006B0000A6812B96FF080040AE04B68032BF9D97D
:1006C000D8F804305F49591A4B424B41136000245B
:1006D000204605B0BDE8F0830B1D01934B680093E5
:1006E0000B68D0E90212D8F804000EF02DFC044685
:1006F0000028EDD000237B60EAE74369009381681E
:10070000D0E90323D8F804000EF031FC0446DFE7FB
:100710000E68002ECED04B68032BCBD9D8F808300A
:1007200031460320336002AAFFF71EFF044600286B
:10073000CED1D8F8041002980EF09EFB0446002893
:10074000C5D02BE00320D8F8081002AAFFF76EFFEF
:100750006FF441734B44022B04465DD83E68002E73
:10076000A8D07B68032BA5D9D8F8083033600028BF
:1007700056D040F207339945A9D0A9E70298D5E9A8
:1007800002120EF098FBC1E7029807F10C03D7E9BB
:1007900002120EF0A4FB044620B900243046FFF7F5
:1007A00017FF95E70023FB6092E70298D5E9021254
:1007B0000EF0A6FB044600288AD1EEE702980EF060
:1007C00050FB0446EAE700233E680393002E3FF403
:1007D00071AF7B68032B7FF66DAFAB68002B3FF4E6
:1007E00069AFEA68032A7FF665AF1B6831460320CC
:1007F000336003AAFFF7B8FE044600287FF468AF11
:10080000DDE902010EF0DCFB044600283FF460AF96
:10081000C4E76FF085045BE700287FF459AF064614
:10082000A9F20333042BF4D801A252F823F000BF3D
:100830007D070100C707010089070100AB07010020
:10084000BD0701000900000200232DE9F0470668FA
:100850008EB0B6F828900DF1140807460D46924662
:10086000D2E900214046049300F0D4FFB9F5106F9F
:100870000FD12B1D03936B6802932B680193FB68C8
:100880000093BB68706898E806000EF003FF04460A
:1008900016E040F60113994516D12F68002F00F09D
:1008A00090806B68032B40F28C80B368394604203B
:1008B0003B6004AAFFF758FE0446002800F092802F
:1008C00020460EB0BDE8F0870420B16804AAFFF707
:1008D000ADFE0446A8B140F60A139945F0D12F6841
:1008E000002F6ED06B68032B6BD9B3683B60002C74
:1008F0007FD104980EF09FFD04463846FFF768FE4E
:10090000DEE7A9F60219B9F1080F68D801A353F878
:1009100029F000BF390901004D0901005709010004
:100920007F09010065090100C9090100730901007F
:100930008D090100DF0801002968002941D06B689A
:10094000042B3ED104980EF0A4FDA0E7316B04986F
:100950000EF0A8FD9BE7718D0498D7E902230EF0F5
:1009600057FE94E7718D0498D6E90C2308F048FBF4
:100970008DE70498D5E900120EF0A5FD87E7718D8B
:10098000049898E80C000EF04CFE80E72E68C6B183
:100990006B68032B15D9B96899B1FA681C2A10D174
:1009A00007A80DF03DFEDAF8040007A900F035FFB6
:1009B0004246049907A80EF09CFD059B044633604F
:1009C0007EE76FF080047BE7FB68718D0193BB6865
:1009D0000498009398E80C0008F044FB57E76FF088
:1009E00085046DE77168049808F0BEFA0446002893
:1009F00083D1002464E700BF08B5142202490348EC
:100A00000DF00EFE014808BD5C290100C89C0020C5
:100A100008B54FF40251044802F034F9034807F0D6
:100A20008FFB002008BD00BF487C00200D1801008E
:100A30006FF47A72F0B50368044613448DB0032B4B
:100A40007CD8DFE803F002284C6B0369082B02D046
:100A50006FF080055FE08569042DF9D100214068C1
:100A600008AA07F019FA0828F2D12B46022160687B
:100A700006AA07F011FA0428EAD16168314A6369CD
:100A80001160069ACDE90032DDE90823A06800F084
:100A90001DF905463FE00369082BD9D14569042DAE
:100AA000D6D10021406808AA07F0F6F90828CFD16E
:100AB0002B460121606806AA07F0EEF90428C7D189
:100AC0006168204A236A116005AACDE90132069BBC
:100AD0000093A068DDE9082300F04EF9D9E7036927
:100AE000082BB5D1076A0C2FB2D10021406806AAA5
:100AF00007F0D2F90828ABD1DDE9062308AE00964D
:100B0000A06800F089F9054628B901463B463246FF
:100B1000606807F0CBF928460DB0F0BD0369082BDB
:100B200096D10021406808AA07F0B6F908288FD1AD
:100B3000DDE90823A06800F081F9AAE76FF08505D8
:100B4000E9E700BF80730020024603480B460068B7
:100B5000012107F0A1B900BF8073002002460348BD
:100B60000B460068002107F0A1B900BF8073002088
:100B70001FB5CDE90201084301921BD004220F48A2
:100B80000DEB02010DF04CFD08220D480DEB0201AA
:100B90000DF046FD01980B4BDFF82CC00B4AB0F569
:100BA000807F08BF9C460549604600F053FF05B0B2
:100BB0005DF804FB6FF08600F9E700BFDC9C0020C5
:100BC000E09C0020847300209C730020B47B0020F4
:100BD00030B5364B85B09D6AA8470369042B23D1F5
:100BE000A847334C8368A360A847037D01A82376F8
:100BF00005F01AF9C0B9019BA26863609DF80C303A
:100C000021465343029A2B48B2FBF3F222822A4A2E
:100C1000E36000F0C6FEB0B9264800F0FFFE30B930
:100C2000A8470369042B10D06FF080000BE0234825
:100C30000FF0C8F91F4800F00BFF20B91D4800F065
:100C4000EDFE0028ECD005B030BDA8471C4C8368F1
:100C5000A360A847037D01A8237605F0D7F80028F4
:100C6000E2D1019BA26863609DF80C30214653439A
:100C7000029A1448B2FBF3F222820F4AE36000F0BA
:100C800090FE0028DFD10F4800F0C8FE0028DAD01F
:100C90000D480FF097F90B4800F0DAFE0028D2D18A
:100CA000084805B0BDE8304000F0B8BE387C01000F
:100CB0003C1900209C7300201C29010070290100B0
:100CC0002019002084730020962901002DE9F743A4
:100CD0001946DDE90A5752EA0103044610463BD0A3
:100CE000072F3CD82246FFF743FF30B91D4B9B68C6
:100CF000DB0705D56FF084002BE010F18C0F28D1B5
:100D0000184E194A194B47F44037B760B4F5807F45
:100D10000CBF904698460027DFF854907560B5F5F3
:100D2000006F2C4628BF4FF4006411482146FFF79E
:100D30000BFF234632464046CDE900790D4900F0CD
:100D40009DFE30B9B3682D1B23F44033B3602744B4
:100D5000E5D103B0BDE8F0836FF08600F9E76FF0EE
:100D60008500F6E7B47B0020847300209C7300208C
:100D7000B4730020DC9C00202DE9F347194652EAA9
:100D8000010306460A9F1046DDF8308037D0324610
:100D9000FFF7EEFE054630BB1A4B1C68BC422ED353
:100DA0000B9BE41B9C4228BF1C46174A174BDFF8DD
:100DB00060A0B6F5807F0CBF91469946C8F8004008
:100DC000B4F5006F264628BF4FF400663B46324616
:100DD00048461049CDF800A000F059FF054630B153
:100DE0000023C8F80030284602B0BDE8F08731463D
:100DF0005046FFF7B3FEA41B3744E1D1F3E76FF091
:100E00008605F0E7B47B0020847300209C730020EB
:100E1000B4730020DC9C002038B505461946104606
:100E20002A46049CFFF7A4FE28B9034B1A689B6866
:100E3000C4E90022A36038BDB47B002010B504468D
:100E4000194610462246FFF793FE80B9084B9B686F
:100E5000DB070AD40748084B0849B4F5807F18BF60
:100E60001846BDE8104000F002BF6FF0840010BDCE
:100E7000B47B0020847300209C730020DC9C002045
:100E8000F8B51D46036804465B680E46174698474A
:100E90000B4BC0F3410013F8202063680699E0680B
:100EA0001D442368B1FBF2F200FB065039469B69F2
:100EB00098470028B4BF6FF091000020F8BD00BF34
:100EC000302901002DE9F74F0C9C07469246002C73
:100ED00055D0C26840681E183B6802FB01665B681B
:100EE0009847284BC0F3410013F82080B6FBF8F96F
:100EF00008FB09F94E4540D03B680DF1040B012277
:100F0000594648465B699847002804DA6FF091001B
:100F100003B0BDE8F08FA6EB0901621890458EBFC3
:100F20002546A8EB06054D442A46504659440DF087
:100F300077FB641B1FD044450FD3B4FBF8F93B6823
:100F40004A465B690AEB0501A81998470028DDDBD2
:100F500008FB09F3E41A0ED01D443B6801225B69CB
:100F600001A9701998470028D0DB224601A90AEB95
:100F700005000DF055FB0020CAE70025DBE7204601
:100F8000C6E700BF302901002DE9F04F904600224E
:100F90000446ADF5657D06AD2846039108AE1146C1
:100FA0001F4600F037FCA26B40F20311304600F000
:100FB00031FC4FF44C72002118A80DF056FB18229A
:100FC00000210BA80DF051FB00211A220DF1460063
:100FD0000DF04BFB4FF6F87241F20103B2EBC70F75
:100FE0004FF6FF72ADF828304FEAC70338BF1346FB
:100FF000ADF82A30012305A8059301F082FC0368AF
:10100000DFF8A4B00C934FF48043036001F079FC47
:101010000368214613934FF49053226AADF844308D
:1010200011A83346CDF850B007F03CFD0DF10C0A85
:1010300004460DF1280938BB594618A807F094FF5B
:10104000044608BB96E80C0040F2011118A80EF007
:10105000E8FA0446C0B90423524640F2032118A816
:101060000EF0D6FA044678B92A46484618A90EF07A
:1010700040FA044640B9EE9B4246009395E80300CF
:101080003B460DF0BDFD044618A80EF0D4F996E8D5
:10109000030007F0C3FC95E8030007F0BFFC2046FF
:1010A0000DF5657DBDE8F08F090100082DE9F04FD1
:1010B00000249BB006A8069407F026F88346DFF8C4
:1010C000CCA0334F5C4503D100201BB0BDE8F08FAE
:1010D000069B660103EB44121169514524D100219E
:1010E000956809A89A5900F095FBDDE909981C223A
:1010F00000210BA80DF0B9FA0DF116030293069822
:1011000008AB019305AB30440093436920229C4611
:10111000806907AB12A9E04740B1009043464A46B8
:101120001C491D4802F022FF0134CBE74FF6F8714D
:101130004FF6FF72BDF81430CDE910988B4288BF8E
:101140001346ADF82E30089B1C220E93BDF81630C6
:101150000BA9ADF82C30069B33441B690C9313F09C
:10116000FF0308BF109344235D4305F12400384476
:101170003D440DF055FA2846079A12A90DF050FA91
:10118000079B2B6201232B64CEE700BF0101008087
:10119000C07B0020FE290100BB2901007FB5154658
:1011A000CDE9000112B300240646146003A803949D
:1011B00006F0AAFF039BA04209D01A4652F8201B52
:1011C0008E4208D1D3E90221931E0B4306D16FF062
:1011D0008B0004B070BD13460134ECE74421054B8D
:1011E000002001FB02331B6A2B60F2E76FF08600E0
:1011F000EFE700BFC07B00202DE9F04F87B01F460E
:10120000109B012806461446DDF84490009304D94B
:101210006FF0860007B0BDE8F08F442141433E4D9A
:10122000019101EB050ADAF84030002B6DD0002A5D
:10123000EED0D2E905B8002302A8029306F05EFFC3
:101240000023029A019998424ED094465CF80CEB28
:10125000F3454BD1D2E9010338B1002253F832C033
:10126000E0453ED103EBC2035B6824311C222944D4
:10127000204601930DF0D4F95A46414604A800F0E7
:10128000C9FA0499626861610599019BA161D1B2B3
:1012900021B922F0FF0242F00102626003A8039329
:1012A00001F02FFB442303FB06531A6A009B0399AA
:1012B0009A42A1602CD8002FAAD0B9F1000FA7D074
:1012C0004B0416D540F20313984512D03A464146D6
:1012D0005046009BCDF8409007B0BDE8F04FFFF7B7
:1012E00053BE01329042B9D10023BEE762460133BA
:1012F000A9E7514638460DF093F9442303FB065500
:101300002B6A0020C9F8003084E76FF08B0081E77A
:101310006FF089007EE700BFC07B002008B5FFF7B3
:1013200017F940B9FFF768FBFFF772FB18B9BDE882
:10133000084008F09FB808BD6FF0850070472DE9A0
:10134000F04F0027D0F8009089B0B9F828B00DF11F
:10135000180806460D46D2E900214046059700F0E0
:1013600059FABBF5806F15D12B1D03936B6802935F
:101370002B680193F3680093B368D9F8042098E8C8
:1013800003000DF004FF044600B16F60204609B071
:10139000BDE8F08F40F201439B450ED17369029383
:1013A00033690193F3680093B368D9F8042098E88F
:1013B00003000DF001FF0446E8E7ABF2024A1FFA12
:1013C0008AF3012B1AD82F6817B96FF08004DDE774
:1013D0006B68032BF9D9D9F80830394602203B60F5
:1013E00005AAFFF7C1F80446002CCFD1BAF1050FCA
:1013F00059D8DFE80AF01F2D353B49530220D9F8B0
:10140000081005AAFFF712F9ABF20543022B0446B8
:10141000EAD82F68002FD8D06B68032BD5D9D9F81C
:1014200008303B600028E1D040F207439B45ADD136
:101430000024ABE7D9F80430059898E806000DF0D1
:1014400035FE04460028F3D03846FFF7C1F89DE783
:10145000D9F80430059898E806000DF033FEF0E75F
:101460000598D6E902120DF039FEA4E7059805F1BA
:101470000C03D5E902120DF043FE044608B900241E
:10148000E2E70023EB6081E70598D6E902120DF050
:1014900064FE044600287FF479AFF0E705980DF06C
:1014A000A9FD0446D0E76FF085046FE72DE9F04F02
:1014B0004FF0000807688DB0B7F828B00DF1280983
:1014C00006460D46D2E900214846CDF8248000F0BA
:1014D000A1F9BBF5C06F1ED12B1D07936B68069356
:1014E0002B680593F3680493B368039373690293BD
:1014F000336901937B6A00937A6807F1140399E8D2
:1015000003000DF083FE044608B1C5F804802046B0
:101510000DB0BDE8F08F40F201639B4517D12B1D44
:1015200007936B6806932B680593F3680493B3687D
:10153000039373690293336901937B6A00937A681A
:1015400007F1140399E803000DF0ACFEDBE7ABF202
:10155000026A1FFA8AF3012B20D8D5F80080B8F16F
:10156000000F02D16FF08004D1E76B68032BF9D92B
:10157000BB6841460520C8F8003009AAFEF7F4FF11
:101580000446002CC3D1BAF1090F00F29080DFE8C5
:101590000AF02330525F66776C377D4D0520B968BD
:1015A00009AAFFF743F86FF4C1635B44022B0446BA
:1015B000E7D8D5F80080B8F1000FD3D06B68032BC3
:1015C000D0D9BB68C8F800300028DCD040F20B63EB
:1015D0009B459CD100249AE77B68099899E806000E
:1015E0000DF0BBFE04460028F4D04046FEF7F0FFA5
:1015F0008DE77B68099899E806000DF0BAFEF1E7DF
:1016000005F10C030293EB6809980193AB68009312
:10161000D5E9041205F114030DF0B7FE044608B92C
:101620000024E2E70023EB606B6170E709980DF09E
:1016300085FE0446D9E709982B1DD5E9001207F06D
:101640007BFD044600283FF462AF00236B605EE739
:101650000998D6E9021207F03DFB044657E70998BE
:10166000D7E9031207F062FBF7E72B1D01936B68C4
:10167000099800932B68D6E9021207F0B1FBE0E766
:101680000998D6E9021207F07DFBE6E7F3680998AE
:101690000193B3680093D5E9021205F10C030DF034
:1016A000A6FE04460028BBD00023EB602FE76FF0B6
:1016B00085042CE76FF0850070476FF08500704758
:1016C0002DE9F0418EB003ACD0F8008006460D46FF
:1016D0001746D2E90021204600F09CF840F2032290
:1016E000B8F82830934203D0A3F50273012B0ED82B
:1016F000B16811B96FF080043CE0F2681C2AF9D19E
:1017000007A80CF08DFF786807A900F086F8B8F8F4
:101710002830A3F50073092B72D8DFE803F01A71A3
:101720007105142F3D464B63D6E904122E68002E36
:10173000E0D06B68032BDDD9234607A807F0B2F988
:101740000446039B4CE094E8030007F067F9044665
:1017500010E094E8030007AA2E680DF017FA2B6832
:101760000446002BC6D06A681C2AC3D8304607A995
:101770000CF056FF20460EB0BDE8F0812B1D009303
:10178000D5E9002394E803000DF03AFA0446002856
:10179000F0D000236B60EDE72B1D0093D5E900230B
:1017A00094E803000DF088FAF0E794E803000DF0E8
:1017B000ECFFCCE7002205A811462E6800F02AF8BD
:1017C0002B68002B96D06B68032B93D994E8030009
:1017D00005AB07AA0DF09EFA04460028CAD1059B66
:1017E0003360C7E72E68002E84D06B68032B81D945
:1017F000214607A807F012FD04460028A1D0B9E74A
:101800006FF08504B6E76FF0850070470FB40020D5
:1018100004B07047C0E90021704788617047F0B597
:10182000002485B0CDE9000103A816461F460394A5
:1018300006F06AFC2146009A039D814202D16FF0B6
:101840008B000BE02B4653F8204B944208D100202C
:101850002B693360D5E90223C7E9002305B0F0BD49
:101860001D460131E9E76FF0850070476FF0850094
:101870007047FFF7ADB908B5036800209B6898472B
:10188000002818BF6FF0910008BD0020704770B5A8
:1018900004460E460025E368AB4201D8002070BD27
:1018A000606806FB030023682844DB69984710B989
:1018B000A3681D44EFE76FF09100F0E72DE9F04FCA
:1018C00003688FB006AA04460E46D3F80C8000F0D9
:1018D00002FC00285FD10BA800F0F4FE01460028AE
:1018E0005CD1DDE9067A202206A8099D0CF0BDFE38
:1018F0003146204606AA00F039FD00284BD1834628
:1019000081462368DB8A5B4515D8002D35D12946F1
:10191000204603AA00F067FC00283CD12946204657
:1019200003AA00F082FEB0BB204600F067FE78B349
:101930006FF083002FE0B3451CD05946204606AA1D
:1019400000F0C9FB38BB069BBB420DD10BA800F0D1
:10195000B9FE48B9079B534506D9984528BF984614
:101960005B1B0793099B99445946204606AA00F041
:10197000FDFC80B90BF1010BC3E743462A4639460B
:101980002046CDE900A900F0A3F920B9002FCBD162
:10199000204600F08BFB0FB0BDE8F08F6FF08B009E
:1019A000F9E7F8B50D461746064670B369B362B35A
:1019B0000B8ACA68C98A012B4FEA411112D9032B3D
:1019C00010D0022BA88A23D1A2F114035B1A834200
:1019D00034BF6FF086040024824201D26FF0860487
:1019E000012302E06FF08604023B0C20083100FB6B
:1019F00003118A4209D344B91822214630460CF01B
:101A000034FEC6E900572046F8BD6FF08604FAE7B9
:101A1000824234BF6FF086040024E5E737B50546FF
:101A200000F090FD044658B94FF08071284601AA95
:101A300000F0BBFB38B928460199FFF73FFF044689
:101A4000204603B030BD10F18C0F18BF0446F7E7F5
:101A500000F09CBC10B58AB0144602AB01AA00F09D
:101A600075FB40B9059B6360049B2360BDF818308B
:101A7000A3600AB010BD6FF08B00FAE72DE9F043C8
:101A800093B00DF12808044689461546002120220E
:101A900040461F461A9E0CF0E8FD4FF6FF73CDE955
:101AA000053325B96FF0860013B0BDE8F083AB684D
:101AB000B3F1807FF6D2236849465A8A6B68204684
:101AC000013B1344524213406B6005AA434600F0A9
:101AD0003DFB002840F08580AB6805999A0306D548
:101AE0000D9AD5F804C062456ED10C900E93069104
:101AF0004FF6FF73069A9A427CD121686B68898AF7
:101B00008B42CFD807A9CDE9028106A90191A96826
:101B10002046009105998A1A18BF0122494600F013
:101B2000C0FB0028C0D1002F6CD120460A9907AA1B
:101B300000F07BFD002851D106994246204600F076
:101B400015FC0146002849D1DDE905539D4228BF17
:101B50001D4620462A4600F0DFFC00283ED14FF605
:101B6000FF72059B93420FD0069A93420CD09A4283
:101B700038BF1A462046691C00F0CEFC70BBDDE978
:101B800005539D4238BF1D4623682046DA8A691CEA
:101B900000F0C2FC10BB0A9B002B62D1002F60D06A
:101BA000204600F083FA00287FF47EAF4FF6FF73E3
:101BB000059999423FF478AF069B99423FF474AF80
:101BC0002046FFF77BFE6FE70E9B424643F0807393
:101BD00020460E9300F0CAFB002889D06FF08300E6
:101BE00062E710F18C0F7FF45FAFAB68DB037FF52A
:101BF0005BAF7DE720460A9907AA00F0F4FA0028B7
:101C000091D0EBE723685B8A5A1E3242E6D17D1EF3
:101C10001D445B421D400C9B9E42DFD82A46314644
:101C20000D9800F043FD0028D8D11B9B4246CDE91A
:101C300000532046334607A900F0C0F80028CDD154
:101C40000C9B3E440A999E422046079D88BF0C96F5
:101C500000F027FA294607900A9A204600F083FBF5
:101C600063E7204600F0CAFC002899D0B6E713B518
:101C7000002301AA044600F069FA28B92046019918
:101C8000FFF71CFE02B010BD6FF08B00FAE770B5D5
:101C90008CB015461C4603AA04AB064600F056FA63
:101CA00098B92A462146069800F000FD58B9109BC5
:101CB0002246009330462B4604A900F05EF8002827
:101CC00018BF6FF083000CB070BD6FF08B00FAE7A7
:101CD0002DE9F04786B01646DDE90E9703AA0546C2
:101CE00088469A4600F07FFA044698B9059B41461B
:101CF00033442846059300F0D4F906467FB10146E7
:101D00004A462846CDE900A7039B00F0D7FB28B13F
:101D10006FF08304204606B0BDE8F0870127049ADF
:101D20004A450BD2A9EB0203CDE9002331462846F0
:101D3000039B00F0C3FB0028EAD101274246284656
:101D4000039900F010FB4146284603AA039600F0D1
:101D50006CFC044628B142463146284600F003FB9D
:101D6000D8E7B8F1000FD5D0002FD3D06B6831463B
:101D7000DB68286898470446CCE72DE9FF410D460B
:101D80001646096801AA04461F46DDF8288000F0BF
:101D90002AFA70B901994B1C0BD062686B680A97DC
:101DA00055684246AC462068334404B0BDE8F04173
:101DB00060476FF0830004B0BDE8F0812DE9F34780
:101DC0001546DDE90AA90F4698461168044600F059
:101DD00068F96B687A689844A8EB0203CDE90023A0
:101DE000064601463B68204600F068FB20BB63685E
:101DF000CDF800A0D3F808A04A46434631462068F3
:101E0000D047C8B9EB686A68B9681A4423682046A5
:101E1000DB685B1A9B1ACDE9002331463B6800F072
:101E20004DFB48B92B683BB1314663682068DB68DD
:101E300002B0BDE8F047184702B0BDE8F08713B51F
:101E40000C2404FB01F3416800948C680833416959
:101E50000068A04702B010BD436810B54169044650
:101E60001B690068984750B923681A8A022A06D964
:101E70006268A1681846BDE810401269104710BD9D
:101E8000008A022814BF03380020704708B5FFF706
:101E9000F7FF0C2300FB033303EB4110083008BDB0
:101EA0002DE9F04F002405460F46904626464FF098
:101EB0000C098BB0D5F800A05046FFF7E1FF0130C8
:101EC00086420ED300264FF02009D5F800A0BAF8BC
:101ED00016309E421DD3002088F800400BB0BDE8AC
:101EE000F08F09FB06F36A68CDF80090D2F804B0D1
:101EF00039465046083302AAD8470028EED102AB33
:101F000013F8012B01300C2884EA0204F8D10136C1
:101F1000D0E76B6831465046D3F804B0FFF7B6FF00
:101F200002AA034639465046CDF80090D84700280B
:101F3000D4D102AB13F8012B0130202884EA02042B
:101F4000F8D10136C1E737B5837B01685A1CD2B29C
:101F50008273097E04469142416904BF0233837350
:101F6000012900F10D020DD8FFF79AFF40B90822B0
:101F7000636800929D6861690346A2182068A847BB
:101F800003B030BD6FF08600FAE713B50C4611467A
:101F900022790346012A09D1036862791B7E9A429D
:101FA0000CBF6FF08300002002B010BD022A04D1E4
:101FB0001B68A2791B7E9A4202D16FF08300F3E77F
:101FC00001290DD80DF10702FFF76AFF0028EBD1B8
:101FD00062799DF807309A4218BF6FF09100E3E7ED
:101FE0006FF08600E0E70822F0B5436887B0009202
:101FF0005C6800236A44054619460068A04702460B
:10200000002834D000264FF0FF3408226B6800927D
:102010005F6801210023286804AAB847002839D145
:102020000122284604A9FFF7B0FF002832D1002E74
:1020300035D02B689DF816201B7E9DF80E10B3FA44
:1020400083F35B0993421BD1002A0CBF01230223B7
:10205000994203D191422CBF0026012634462C61BF
:10206000B4FA84F4002064096C6107B0F0BD28461E
:1020700002A9FFF78AFF04460028C3D10126C4E75E
:102080008B42E7D1002B0CBF012302239342E1D006
:102090000646E3E7002EE2D16FF08300E5E7012476
:1020A000DDE709B9406970478068704710B504469C
:1020B000FFF749FF70B963686169DB68206898477A
:1020C00040B9D4E904232046C4E90432BDE81040F5
:1020D000FFF7C2BE10BDF7B5066805463046FFF7EC
:1020E000D5FE03462020696800904F683046296974
:1020F0001446B847064640B92868FFF7C1FE236872
:102100000130834204D36FF09706304603B0F0BD30
:1021100004F1140000F0D6FA0028F6D12D68E26828
:10212000AB8A9A42EFD8A3689A42ECD3D4E900373D
:102130002BB92846E98AFFF7A9FEB842E3D8394609
:10214000E86800F0B3FA0028DFD0DCE72DE9F043BF
:102150000746884691461C46002589B03B68DB8AC5
:10216000AB4202D86FF08B0616E06A462946384625
:10217000FFF7B1FFB0B90C22414605A80DF0CAFE29
:10218000064668B9C9F8005034B16D460FCD0FC48A
:1021900095E80F0084E80F00304609B0BDE8F083F1
:1021A0000135DBE76FF08306F6E7F0B505460E462E
:1021B0001746002489B02B68DB8AA34202D86FF04F
:1021C0008B0009E06A4621462846FFF784FF38B9AC
:1021D000049B1E4202D03C6009B0F0BD0134EAE726
:1021E0006FF08300F8E773B506460C2000FB01F39F
:1021F000716800904C683068316908331546A04713
:10220000044630B9336829681A8A914204D36FF0C2
:102210009704204602B070BDD868D5E9011200F0DD
:1022200045FA04460028F2D12B68012B03D8306808
:10223000C18AFFF72BFE6B688342EAD0E7E7F7B568
:102240000C2606FB01F3416800964F6808330169CC
:10225000054600681446B847034630B92B68216824
:102260001A8A914204D36FF09703184603B0F0BD69
:10227000D868D4E9011200F019FA03460028F2D117
:102280002268012A09D82A681046FFF7F9FDD18A89
:1022900000FB066649010831881962688242E4D071
:1022A000E1E72DE9F04F06468B4691469846002718
:1022B00089B0DDE9145A3068FFF7E2FD013087424A
:1022C00002D36FF08D0421E0524639463046FFF7C5
:1022D0008AFF0446002835D1DAF8082090452FD827
:1022E00033685946DB682F609B1A6B600C22C5F877
:1022F0000C8005F114000CF093F9129BAC602B617B
:10230000DAF80830A3EB0803CAF808300025336870
:10231000DB8A9D4205D26A4629463046FFF7DBFE3E
:1023200098B14FF6FF75139B1D60CCB94FF6FF7344
:102330009D4208BF6FF08D04204609B0BDE8F08FC4
:102340000137B8E76FF08304E0E705A800F0BAF9B9
:1023500020B1B9F1000FE6D14FF001090135D6E700
:102360006FF08D04E8E702B18160704773B50568CE
:1023700004462846FFF78AFD034620206168009046
:102380008E6828466169B04702B070BD70B58CB0E8
:102390000546FFF728FE002861D16E696B6831465B
:1023A0001B69286898470446002878D1B6FA86F158
:1023B0006B6828681B6949099847044600286ED154
:1023C0002A680126137EB3FA83F35B09AB73138A81
:1023D000C5E90406022B14BF02230123AB600223CC
:1023E0002B73D18A1046FFF751FDD36821461B1A83
:1023F000029001AA284603930196FFF720FD0446A8
:1024000000284CD106462B680290DB6803932B68AA
:102410001846FFF735FDB04223D8002C4BD12B686E
:102420001846FFF72DFDA04228D82022002104A83D
:102430000CF01BF900242B68DB8AA34232D8284613
:10244000FFF781FD48BB6B686969DB6828689847BE
:10245000044620BBD5E90423C5E904321FE0002669
:102460009CE7198A6A68022914BF032100211846D3
:1024700031441269904701360443C8E71B8A284655
:10248000022B14BF0323002323440134214601AA55
:102490000193FFF7D4FC0028C1D06FF083042046DD
:1024A0000CB070BD2146284604AAFFF75FFF002844
:1024B000F3D10134BFE76FF09104F0E72DE9F04F5D
:1024C0000446884616469946C3B0DDE94CA51DB9B9
:1024D000284643B0BDE8F08FB5F5807F2F4628BF72
:1024E0004FF4807763680097D3F804B049465346A9
:1024F000206802AAD8470028EBD163680097D3F878
:1025000008B041463346206802AAD8470028E0D1E7
:102510003E44BA44ED1BDAE773B50668044630461C
:10252000FFF7B4FC1546024629463046FFF7AEFCDD
:10253000801ACDE900202046D4E90431FFF7BEFF20
:1025400002B070BD2DE9F041436805461B68006884
:1025500086B09847044628B92846FFF744FD28B1BD
:102560006FF08304204606B0BDE8F08108266B6852
:1025700005F108070096D3F804803A4623462969F6
:102580002868C0470028EBD1394628462A69FFF75A
:10259000FCFC0028E4D12846FFF75EFC0446002836
:1025A000DED12B7B012B24D1014603AA2846FFF75D
:1025B00046FE04460028D5D1059B2A68C3F1FF23B7
:1025C000D26803F57F03F8331344CDE90063324644
:1025D00028462B696969FFF771FF04460028C1D1BD
:1025E0006B7B2846AB7302232B73FFF75FFD04461A
:1025F000B8E7022B18BF6FF08304B3E710B586B0BD
:10260000002103AA0446FFF7EEFD60B92068049A92
:10261000059BD118C36820465B1ACDE90023D4E995
:102620000431FFF74BFF06B010BDF0B504460D4670
:1026300087B009B94369136029462046FFF7FFFBBD
:102640000146C8B9D4E9047685B90C220021206876
:10265000FFF71CFC6A431432801ACDE900203B4688
:1026600031462046FFF72AFF07B0F0BD204603AAF7
:10267000FFF7B9FD014610B16FF08300F4E7204683
:1026800003AA0396FFF7DBFB0028F5D1012DDCD070
:102690000C2314226B430C3B019331463B462046EE
:1026A0000092FFF70BFF0028CFD0DDE7814206D86C
:1026B000401A904234BF6FF08600002070476FF0E0
:1026C0008600704700F10C0310F8012B22B99842E4
:1026D000FAD16FF08B007047002070472DE9F04170
:1026E00003680446A3F2F233A6B0032B00F2FD8088
:1026F000DFE803F00D029195042200F1200353F866
:10270000040D1146013A002852D00A4652E0002337
:102710000421169300F1200353F8040D0A460139F1
:1027200008B1114601E00029F6D1042204F130037A
:1027300053F8045D1046013A0DB1024601E0002A4B
:10274000F6D12369042B03D0012026B0BDE8F08127
:10275000206A0428F8D80129F6D1012AF4D10021F1
:10276000606806AA05F098FB0428EDD1A368002B49
:1027700016DB00220699A06803F0D2FB0028E3D103
:10278000216A069816AA03F080FB05460028DBD1D3
:10279000236A16AA0021606805F088FB2846D4E762
:1027A000069806A903F0D1FB0028E2D00220CCE76E
:1027B000002AA4D1042104F1300353F8045D084633
:1027C00001390DB1014601E00029F6D12369042B3E
:1027D000BAD1012AB8D10029B6D1606816AA05F08D
:1027E0005BFB0428B0D1A368002B0DDB00221699F7
:1027F000A06803F095FB0028A6D1169803F07DFB96
:10280000003818BF0120A0E7169816A903F09DFB19
:102810000028EBD0CAE702F0D3FB002095E70025A3
:1028200004260DF1180840222946404616AFCDE98E
:102830000255CDE904550BF018FF402229463846D1
:102840000BF013FF019504F1200353F8041D3246E9
:10285000013E59B133461646042504F1300252F8C0
:10286000040D2946013D30B10D4606E0002EECD1A5
:102870004FF0FF33F0E7002DF1D12B43012B02D9AC
:102880006FF0800061E70423002160680DEB030214
:1028900005F002FB0428F3D1022E1FD16669402EF9
:1028A00020D8334642460121606805F0F5FA864299
:1028B000E6D1CDE9028602A995B1236A402BDFD883
:1028C000CDE9047304AE3246019803F061FA05467F
:1028D000002E3FF463AFDDE904235BE70021EBE763
:1028E0002E46F0E76FF089002FE76FF085002CE7A8
:1028F00008B503F0C8FA002814BF6FF0920000205A
:1029000008BD0368D90444BF43F4806303609A049C
:1029100044BF43F400630360704700007718010070
:10292000C50E0100810E01008B1801008F180100F7
:102930000100000002000000040000000A5B437276
:102940007970746F5D20556E737570706F727465F9
:10295000642072657175657374210A0054462D50A8
:1029600053412D43727970746F20312E312E300017
:102970003C4372656174696E6720616E20656D709D
:1029800074792049545320666C617368206C6179B6
:102990006F75742E0A003C4372656174696E67201E
:1029A000616E20656D70747920505320666C617380
:1029B00068206C61796F75742E0A001E25733A20A9
:1029C000536B697070696E67206B65795F6964200D
:1029D0002530387820286F776E65723A2025642973
:1029E0002064756520746F202530387820706C6104
:1029F00074666F726D206572726F720D0A00746674
:102A00006D5F6275696C74696E5F6B65795F6C6F21
:102A1000616465725F696E697400000001680E4A46
:102A20000346914215D1C169A2F11022A2F1EF1221
:102A300091420ED18268012A0BD8C26812B1016995
:102A40008A4206D0586928B19B691B1A58425841DE
:102A500070470120704700BF55AA00FF0E4B70B5AC
:102A60009E68B6B13046FFF7D9FF044618B9F3683F
:102A70007BB935690DB9204670BD2846FFF7CEFFFA
:102A800028B9EB68B34204D12E462D69F2E704461B
:102A9000F1E70124EFE700BFE89C0020394A2DE967
:102AA000F0411468D4B19468C4B1002868D00029FA
:102AB00066D001FB00F5B5FBF0F0884260D1281D1F
:102AC0005ED8A9070DD025F003010431D46803E0D6
:102AD0006068884207D2A469002CF9D12046BDE87D
:102AE000F0812946F2E7D4F80880B8F1000F02D04F
:102AF00001200BF092FD401A232804F12006D4E9AE
:102B0000057C1BD80123A360AFB1C7F818C0A36927
:102B100003B15F610023C4E905331369DB0703D503
:102B2000FFF79CFF0028E3D12A46002130463446B7
:102B30000BF09BFDD2E7C2F80CC0E8E701F1200ED4
:102B400004EB0E032038C3E901082069DFF8388060
:102B5000DC60186144F80E80DFF830E0C3F81CE058
:102B600000B1C360C3E9057C47B1BB61986900B19E
:102B7000436101202361C4E90110CBE7D360F5E78D
:102B80000024ABE7E89C002055AA00FF669911EEEF
:102B9000F8B5054600285DD0394F3B68002B59D069
:102BA000BA68002A56D0834203D87A681344984200
:102BB00002D301200BF031FDA0F120042046FFF7E5
:102BC0002DFF0028F5D155F8183C012BF1D155F80F
:102BD000146C45F8180CB6B1B368002B3BD155F80E
:102BE0001C3C03F1200273681344736055F8103CD9
:102BF000336103B1DE602046202200210BF035FD59
:102C0000234634461E462069002830D08368002BB6
:102C10002DD1636842682033134463600369D4E9AB
:102C200005212361CAB9F1B9426981696261A16173
:102C3000DAB19461A26902B1546103B1DC6020226F
:102C400000210BF012FD3B699B0703D5FFF706FF40
:102C50000028AED1F8BD0646D5E79161A1690029EB
:102C6000E2D04A61E0E7F960F8E7FC60E2E7002EB5
:102C7000E9D1FB68A36103B15C61FC60E3E700BFDD
:102C8000E89C002038B50D46142200210446124865
:102C90000BF0EBFC1149124805F048FA232D1AD924
:102CA00014F003031FBF043DED18C3F10403E4183F
:102CB0002A46002120460BF0D8FC074B094AC3E9FD
:102CC00000459C602260A2F11022203DA2F1EF128B
:102CD0006560E261DC6038BDE89C0020912B01005A
:102CE0009D2A010055AA00FF00000000000000001E
:102CF00000000000000000000000000000000000D4
:102D000008B54FF4CC7200210D480BF0AEFC4FF427
:102D100080730B498B6108A3D3E90023C1E9042325
:102D20000123A1F8903181F82830BDE8084000F077
:102D3000DFBA00BFAFF3008000BD40DFE143E14EEA
:102D40006810002000000000002230B54C4C89B013
:102D500002AD04904FF4C87301200021CDE9004575
:102D6000CDE906220394ADF8142007F041FD10B11F
:102D700001238DF81430049B0022009302204FF4AD
:102D8000C8730021019507F033FD10B101238DF8C0
:102D900015304FF4807238A1D1E90001039BC3E9DB
:102DA00004019A61049BC3E904019A61002006A909
:102DB00000F037FE002858D12946012000F031FEEE
:102DC000002852D1022007A900F02BFE00284CD188
:102DD000079A029B9A429DF8143018BF0790012B66
:102DE00003D0002003A900F06DFD9DF81530012BE4
:102DF00003D0012003A900F065FD039B049993F81B
:102E00002830012B1CBF01238DF8143091F8283095
:102E1000012B1CBF01238DF8153040F20113BDF8C2
:102E200014209A4225D09DF81430012B07D14FF47D
:102E3000C8721348A4F890310BF0F2FB07E09DF83C
:102E40001530022B13D04FF48073A4F8903194F80E
:102E500091010021013007F01BFD10B110F18C0F22
:102E600003D1074800F0BCFB002009B030BD0123AE
:102E7000DDE76FF08300F8E700BD40DFE143E14E9E
:102E8000681000206FF47A72F0B5474B8DB018606F
:102E9000036804461344042B08D8DFE803F0032733
:102EA0004867770003698668082B02D06FF08005B9
:102EB00059E08569042DF9D10021406808AA04F081
:102EC000EBFF0828F2D12B460221606806AA04F025
:102ED000E3FF0428EAD1069B30460193636900931F
:102EE000DDE9082300F09CFC05463CE00369082B63
:102EF000DCD14569042DD9D10021406808AA04F02D
:102F0000CBFF0828D2D12B460121606805AA04F026
:102F1000C3FF0428CAD106AB0293236A0193059B21
:102F20000093A068DDE9082300F091FCDCE7036969
:102F3000082BBBD1076A0C2FB8D10021406806AA24
:102F400004F0AAFF0828B1D1DDE9062308AE0096F7
:102F5000A06800F090FC054628B901463B46324681
:102F6000606804F0A3FF28460DB0F0BD0369082B8C
:102F70009CD10021406808AA04F08EFF082895D152
:102F8000DDE90823A06800F086FCADE7056A042DA2
:102F90008CD100F093FC2B4608900021606808AAB1
:102FA00004F084FF0025DEE70019002038B5074B48
:102FB00002461D680C460B466868012104F06CFF50
:102FC000844214BF6FF08000002038BD001900203B
:102FD0000B46044910B40C6802460021606810BC1E
:102FE00004F064BF0019002008B5074907480CF039
:102FF000E9FF00F021F830B100F062FC18B9BDE83B
:10300000084000F019B808BD00015005703A0100F1
:1030100038B5084D2B4600F0FFF9044618B9BDE855
:10302000384000F08DBA0021286807F031FC2046B6
:1030300038BD00BF0419002008B50448FFF784FE1E
:10304000024B034A383B536008BD00BF58080020BC
:10305000041900202DE9F3471F460023DFF864A080
:103060000193534681468846164600F02BFA0446E3
:1030700008BB154DDAF80000294601AAC5E90498F5
:10308000AE6100F065FC044678B9AE6ABE4216D364
:103090000A9BF61B9E4228BF1E4605F138003146AA
:1030A0003844FFF795FF0B9B1E6040F64802002155
:1030B00005480BF0DAFA204602B0BDE8F0876FF061
:1030C0008604F2E704190020200800202DE9F04FC3
:1030D000002585B0DDF838A00746BAF5006F0E462A
:1030E00090469B46039571D8DFF8E8904B4600F078
:1030F000E9F9044600283AD1374DD9F800002946AD
:1031000003AAC5E90476C5F8188000F021FC04463E
:1031100038BB2B6BDB074ED4C5E90BAB4FF0010B73
:103120005B46D9F8005051462C480193FFF73EFF0B
:10313000044698B9019B2749184600F041F9044616
:1031400060B9254BD9F800001946C3F828A000F053
:1031500036FC0446F0B10DB1C9F80050BBF1000FC8
:103160001FD0424638463146FFF752FF19E010F1B2
:103170008C0F1CD1184C40F64802294620460BF013
:1031800074FAC4E90BAB0223AB46C4E90476C4F875
:103190001880C8E7424638463146FFF739FF0446F3
:1031A00060B140F6480200210B480BF05EFA204661
:1031B00005B0BDE8F08F6FF08404D2E7002DF0D0A9
:1031C0002146284607F064FB0446EAE76FF08604D0
:1031D000EDE700BF04190020200800205808002057
:1031E0002DE9F3471E460023DFF84CA00193534618
:1031F00081468846174600F065F90446B8B90F4D78
:10320000DAF80000294601AAC5E90498AF6100F088
:103210009FFB044628B9AB6A7360EB6A33602B6B83
:10322000B36040F64802002104480BF01EFA204625
:1032300002B0BDE8F08700BF04190020200800207C
:1032400000232DE9F7431B4F01933B4680460E4672
:10325000914600F037F9044620BB174D38682946DF
:1032600001AAC5E90486C5F8189000F071FB044670
:1032700090B92B6BDB0719D44A464046314600F023
:1032800037F9044640B900F05BF9044620B92146FD
:10329000386807F0FDFA044640F648020021064867
:1032A0000BF0E3F9204603B0BDE8F0836FF084042F
:1032B000F2E700BF0419002020080020F0B5002527
:1032C0000A4CD4E910768E4208BF874205D1A66C1D
:1032D000964202D100201D60F0BD01350B2D04F196
:1032E0002004EED16FF08B00F6E700BF68100020DD
:1032F0000020F0B5DFB0029000F09FFB02AD024667
:10330000C0BB294600F08DFB024698BB2B4E029FA6
:10331000304600F06DF9024660BB03AC4FF4B47266
:1033200006F128012046C4F868710BF079F94FF4D2
:10333000B6722146304600F00BFA0246D0B996F834
:1033400091714FF4C872009033460021781C07F049
:1033500031FA024670B996F890312060214601207A
:10336000029D86F8913186F8907100F05AFB68B1A1
:103370006FF0830210465FB0F0BD012000F05DFBEE
:1033800002460028F6D123680133236023689D425A
:10339000F3D82146022000F044FB0028E8D123683E
:1033A0009D4201D80022E5E7022000F046FB0246DC
:1033B0000028DFD1236801332360F0E76810002084
:1033C00070B50D4610B300231C46124AD2E9101600
:1033D000314308BF234604F1010408BF00F1FF3068
:1033E0000B2C0ED020320028F0D1DC1C204600210E
:1033F00007F04EFA10B110F18C0F01D100202C60B3
:1034000070BD0028F1D06FF08D00F9E76FF08600F5
:10341000F6E700BF681000202DE9F0471E460023A4
:103420008146884617468AB0244D02AC01930FCDE1
:103430000FC495E80F0084E80F003A46484641461D
:1034400001ABFFF73BFF1E4D824668B9019C20226D
:1034500005EB44143034214602A80BF0E1F8202299
:10346000514620460BF001F933687168DC1E05EB0C
:10347000431343E9089805EB44131C4630341022EB
:1034800020469F640BF0CCF8FFF732FF064688B168
:10349000DDE90632134308D0019B202205EB4315DA
:1034A00002A905F130000BF0BBF8202200212046D4
:1034B0000BF0DBF830460AB0BDE8F087503A010067
:1034C0006810002037B51D4601ABFFF7F7FE044634
:1034D00048B9019B0549DA1C2A606868102201EB93
:1034E00043110BF09DF8204603B030BD981000202A
:1034F000002330B58BB0019301ABFFF7DFFE04462C
:10350000C8B9019B0D4D202205EB4315294602A8A1
:103510000BF086F82146202228460BF0A6F8FFF78C
:10352000E7FE044620B12022284602A90BF078F8D5
:1035300020460BB030BD6FF08B04F9E798100020E7
:10354000034B002193F89101013007F0A1B900BFAE
:103550006810002030B589B004460D4618220021BD
:1035600002A80BF082F800234FF440710093194B2E
:103570006846CDE903134FF41053ADF804308023AF
:103580001549ADF8063007F0A1F800BB40F2011173
:103590006846124A07F054F8A0B90C232A4640F2B4
:1035A0000321684607F0B6F860B92246694601A8CB
:1035B00007F0D8F830B9684607F066F838B12068E7
:1035C00006F084FF684607F05FF86FF0830009B0EB
:1035D00030BD00BF00015005090100085C81FF7F7C
:1035E00000F11C010C2201480BF01AB80C19002044
:1035F0001FB50822184904460DEB02000BF010F825
:10360000042216490DEB02000BF00AF8029B039A04
:10361000013342F10002CDE90232134314D00822F3
:103620000D480DEB02010AF0FBFF04220B480DEBE5
:1036300002010AF0F5FF0C22074904F11C000AF010
:10364000EFFF002004B010BD019B01330193002B5C
:10365000E5D16FF08300F5E70C1900201419002064
:103660002DE9F043994600238DB00E4609A9044682
:103670009046159F179D089300F050F909A908A8D6
:10368000FFF768FF18BB169BCDE90068CDE904730E
:10369000149B1049CDE9029308980C23069504F178
:1036A0001C0206F031FF28B1089806F00FFF6FF0FA
:1036B00083000CE029681022103929602046394423
:1036C0000AF0AEFF089806F001FF0028EFD10DB018
:1036D000BDE8F083000150052DE9F04104461D4688
:1036E00000238CB0129E0F4609A99046089300F063
:1036F00015F921461022A8190AF092FF09A908A875
:10370000FFF728FFC0B9159B10360693149BCDE92F
:1037100002560593139BCDE9007804930B490C23C3
:10372000089804F11C0206F03DFF0346089833B1E7
:1037300006F0CCFE6FF094000CB0BDE8F08106F00E
:10374000C5FE002818BF6FF08300F5E700015005A3
:10375000002370B58EB00D460BA9044616460A9399
:1037600000F0DCF80BA90AA8FFF7F4FEF0B909ABEA
:1037700006931023CDE90200CDE90443CDE90056BC
:103780000C230B490A9804F11C0206F0BDFE034607
:103790000A9813B9099B102B04D006F097FE6FF01E
:1037A000830003E006F092FE0028F8D10EB070BD51
:1037B00000015005002370B58EB00D460BA90446DC
:1037C00016460A9300F0AAF80BA90AA8FFF7C2FE52
:1037D000C0B909ABCDE9050310230490CDE902433C
:1037E00004F11C020C23CDE900560B490A9806F09F
:1037F000D9FE0346DDE90920134305D006F066FE35
:103800006FF094000EB070BD06F060FE002818BF87
:103810006FF08300F6E700BF00015005FFF7E4BB3F
:1038200030B4194604461046DDE9022350EA01058A
:1038300006D0072B08D80292224630BCFFF746BCC0
:103840006FF0860030BC70476FF08500FAE770B407
:10385000194604461046DDE9033250EA0106059D8B
:1038600005D0CDE90325224670BCFFF7F3BB6FF00E
:10387000860070BC7047194610B40446104650EAE2
:103880000102019B03D0224610BCFFF7A9BC6FF0D8
:10389000860010BC7047194652EA010310B5044671
:1038A000104608D02246FFF7CBFC10F1950F08BF59
:1038B0006FF0830010BD6FF08600FBE700207047BB
:1038C000FFF71EBAF0B551F82070DDB0CB6801AD3E
:1038D0004FF4B47206460C46284607F128015B9364
:1038E0000AF09EFE4FF4B67229463846FFF762FF93
:1038F00080B1236983B14FF4B672294638465B9391
:10390000FFF758FF00280CBF032301233444237220
:103910005DB0F0BD0223F9E70123F7E71FB5D0E959
:1039200004230C46CDE90223042283690DEB020136
:10393000204601930AF074FE0822201D0DEB0201BF
:103940000AF06EFE04B010BD0F3000090130704760
:10395000F0B51546002289B005AB019301F11C03B7
:103960000F460093114640F61C03064606F040FF42
:1039700000BB059C0B2C1FD90C3CB4F5016F1BD868
:1039800020460696FFF7E0FF07AB286003934FF44D
:10399000026307F12806CDE9016304223346384665
:1039A000009406A9FFF798FE10B9079B9C4201D02E
:1039B0006FF0830009B0F0BD6FF09700FAE72DE9D2
:1039C000F04186B00490064608460D468F6AFFF720
:1039D0000FFE0446B0B905AA03924FF4026207F144
:1039E000100805F12803CDE9013228460422CDF85C
:1039F000008004A9FFF734FE10B9059B984505D057
:103A00006FF08304204606B0BDE8F08121460094A3
:103A1000304605F11C0307F11C0206F0CBFE0446FC
:103A2000F0E70A4608B511B96FF0830008BD04211C
:103A300006F05CFF0028F9D0F6E708B506F03EFF77
:103A4000002814BF6FF08300002008BD00000000B4
:103A50000000000000000000000000000000000066
:103A60000000000000000000000000000000000056
:103A7000285B50535D20456E6372797074696F6E78
:103A800020616C673A20307825780A000000000039
:103A90000000000000000000000000000000000026
:103AA000787C0200009D002057000000407C02004E
:103AB000201900200E000000407C02002008002099
:103AC000000000005C9E00204B05000058190020FB
:103AD000EA20000020080020400400000008002028
:103AE0000800000008B503F023FB00000000000000
:103AF00008B572B60C4A0D4B9A600D4B83F30988DA
:103B00000C4B83F30A8883F30B880B4B04A1D1E998
:103B10000001C3E9000100F0B7F804F063F900BF49
:103B2000A5EDF5FEA5EDF5FE0000010000ED00E0BD
:103B3000F807002000000020F8070020EFF30880BD
:103B4000EFF309812DE9F00F6B46724600F08AF918
:103B500008B0FFF7C7FFFEE708B5FFF7EFFF08B5AE
:103B6000FFF7ECFF08B5FFF7E9FF08B5FFF7E6FF41
:103B700008B5FFF7E3FF08B5FFF7E0FF08B5FFF76B
:103B8000DDFF08B5FFF7DAFF08B5FFF7D7FF08B587
:103B9000FFF7D4FF08B5FFF7D1FF08B5FFF7CEFF59
:103BA00008B5FFF7CBFF08B5FFF7C8FF08B5FFF76B
:103BB000C5FF08B5FFF7C2FF08B5FFF7BFFF08B59F
:103BC000FFF7BCFF08B5FFF7B9FF08B5FFF7B6FF71
:103BD00008B5FFF7B3FF08B5FFF7B0FF08B5FFF76B
:103BE000ADFF08B5FFF7AAFF08B5FFF7A7FF08B5B7
:103BF000FFF7A4FF08B5FFF7A1FF08B5FFF79EFF89
:103C000008B5FFF79BFF08B5FFF798FF08B5FFF76A
:103C100095FF08B5FFF792FF08B5FFF78FFF00008B
:103C200008B5EFF31081012903D001F06FFC00B15A
:103C300072B6074B1A6ABFF34F8F531C5A425A4150
:103C4000012903D001F062FC00B162B6104608BD44
:103C50000080FF0008B5EFF31081012903D001F0C7
:103C600055FC00B172B6074BDA69BFF34F8F0129DB
:103C700002F0010203D001F049FC00B162B6104627
:103C800008BD00BF0080FF006C4A10B5D2F8D030EC
:103C900043F00203C2F8D03001F038FC30B14FF0ED
:103CA00050230022C3F81421C3F8182101F041FC6D
:103CB00028B10122624BC3F8382AC3F878254FF4A3
:103CC0007F02D2F83031BFF34F8FD2F83421BFF3E7
:103CD0004F8FBFF34F8FC3F30B03092B05D1012A7D
:103CE0001EBF0122564BC3F8782501F022FC18B103
:103CF0000E22544BC3F8E42E01F008FC30B1002230
:103D00004F4BC3F80C270122C3F810270022D30021
:103D100003F57F03D3F80013BFF34F8F013108D0B1
:103D2000D3F800130132D3F80433B2F5807F0B606F
:103D3000EDD1EFF31084FFF78DFF00284DD0BFF3D6
:103D40004F8F414BD3F80024012AFBD1C3F804253F
:103D5000D3F80024012AFBD1012C03D001F0D6FBBB
:103D600000B172B6FFF776FF58B1384AD36923F035
:103D70000103D361BFF34F8F334AD2F80034012BD4
:103D8000FBD1FFF74DFF68B1304A136A23F0FF0300
:103D900043F020031362BFF34F8F2B4AD2F8003455
:103DA000012BFBD1012C03D001F0B0FB00B162B6B6
:103DB0000022254BC3F80425D3F80024012AFBD1A7
:103DC000BFF34F8F1D49224BCA6802F4E0621343D0
:103DD000CB60BFF34F8F00BFFDE7FFF721FF002847
:103DE000ADD1164AD2F88C3043F44063C2F88C301F
:103DF0004FF47F03D3F83021BFF34F8FD3F8343122
:103E0000BFF34F8FBFF34F8FC2F30B02092A13D1B9
:103E1000013B012B10D90D480E4903680A4A8B4219
:103E20000CBF5A230023C2F8103EC36A8B420CBF5A
:103E30005A230023C2F8003E10BD00BF00ED00E091
:103E40000040005000A00350009003500080FF008D
:103E50000400FA05FA50FA507C2201490AF0E0BB4E
:103E600018A4002038B51D46344B354C5B68C3F3AD
:103E700008032360EFF3038363655306C4E901205D
:103E8000E16038D502F00C020C2A08BF0846014652
:103E9000206120222B480AF0C3FB25B120222946AD
:103EA00029480AF0BDFB254B9A6AA265D96AE165EB
:103EB000986B206602F400406066586BA06602F0C2
:103EC0008000E0669A62D962D3F8E4201F48226736
:103ED000D3F8E810616702F04001A167C3F8E4205D
:103EE00000F044F82168CB1E042B1DD8DFE803F056
:103EF0000F1416181A00EFF39483990704D51307CB
:103F000002D5EFF38980C2E7EFF38880BFE710485E
:103F1000BDE8384000F02AB80E48F9E70E48F7E748
:103F20000E48F5E70E48F3E70F2992BF0D480E48FB
:103F30001039BDE8384000F019B800BF00ED00E0CE
:103F400018A400202CA400204CA400204A780100D2
:103F500059780100657801007778010082780100C6
:103F60008F7801009D780100B97801000FB41FB56A
:103F7000012106AB53F8042B05480091002103935F
:103F800003F0AEFF05B05DF804EB04B0704700BF6E
:103F90005D5501000A4B37B51B786BB1094C63695D
:103FA000984748B9E56AA847C307FCD4236A019338
:103FB00003B0BDE830401847002003B030BD00BF5B
:103FC00004B30020E07B010010B50B4C0020A36877
:103FD000984780B902202369984760B94FF4E131CE
:103FE0000120A46AA04730B901211520A04710B9CB
:103FF0000122024B1A7010BDE07B010004B30020C7
:10400000044B82B0186883B26FF30F00184302B0FC
:10401000704700BF287C0100014BD86D704700BF7E
:10402000049D0020014B186E704700BF049D0020C6
:1040300008B5024800F0E2FB002008BD049D002006
:10404000C3B2012B10B509D0A3F11502012A00F269
:10405000B080002900F09880002010BD4DF6C023EC
:10406000994270D028D8B1F5615F6FD011D8B1F501
:10407000965F6DD008D8B1F5966F6BD0B1F5166F1D
:104080006BD06FF00700E8E7B1F5165FF9D1524B3E
:1040900033E047F61223994262D007D8B1F5964F24
:1040A00061D0B1F5E14FECD14C4B26E0B1F5164FA4
:1040B000E7D14FF41D0320E0494B994255D011D868
:1040C000B1F5E13F54D007D8B1F5614F53D0B1F508
:1040D000963FD6D1434B10E0B1F5613FD1D14FF0BF
:1040E0006C730AE0B1F5612F48D03F4B994248D03C
:1040F000B1F5E12FC5D14FF0E86310F4E06F5BD16B
:1041000010F4404103D0B1F5804F58D1102110F484
:10411000405403D0B4F5805F54D10E2410F44032E3
:1041200003D0B2F5403F50D10122304880F89210C0
:1041300000F16401C0F88C3080F8902080F8914044
:1041400001F072FB88E74FF46503D6E7284BD4E70C
:10415000284BD2E74FF49E23CFE74FF41D23CCE743
:104160004FF40003C9E7244BC7E74FF08063C4E76F
:104170004FF0EB73C1E74FF46B03BEE74FF0706392
:10418000BBE74FF08053B8E7162B4FF0FF330BBF60
:10419000164A1649104615480ABF02F1640141F853
:1041A000643F936601F040FB10F1100F10D0C01770
:1041B00053E76FF0030050E76FF008004DE76FF032
:1041C0000A004AE76FF0090047E76FF00B0044E789
:1041D0006FF0010041E700BF0050270000C07500EC
:1041E00090D0030000903A0140420F00049D00204F
:1041F00000F03A0000B0130000A04E0073B5064670
:104200001B480C4601F04CFB194D18B94FF0FF301C
:1042100002B070BD22463146284601F00DFC10F177
:10422000100F02D16FF00100F2E70028EEDB03214E
:10423000284600F03FFB10F1100FF3D00028E5DB1B
:1042400000230193284601A901F09FFC10F1100FF3
:10425000F8D07830DAD0019B9C42D7D801220448AC
:10426000114601F090FC0028D0DB00202C66CFE73F
:10427000049D0020F0B51B4E054691B030460C461B
:1042800001F00EFB18B94FF0FF3011B0F0BD05F092
:104290006043B3F1005F20D1002322462946304617
:1042A00001F004FB10F1100F19D00028EBDBF465CE
:1042B00011E0A71B402F28BF4027A9193A4668469E
:1042C0000AF0AEF939466846FFF7D4FF0028DCD182
:1042D0004036B442EDD80020D7E70026F9E76FF06A
:1042E0000100D2E7049D002010B50A4C04F16400DF
:1042F000D4E9151201F04AF901460022204600F0E7
:10430000EBF90028AABF00206FF00100C4E91700F4
:1043100010BD00BF049D00207FB500250C46C0F8ED
:1043200008511646D0F80821D0F8002222F02002C9
:10433000C0F800220F4AC0F8082301F078F9A56000
:10434000256104F14C03D3E8EF1F6FF31731C3E885
:10435000E21F002AF7D11022294668460AF085F9A3
:10436000042368468DF800300196D4E9001398477D
:1043700004B070BD10020A00044B054A1B68B3FB71
:10438000F2F35843034B43F001031847009D00200C
:1043900040420F00307C010000F01F03400909D1AA
:1043A000074A02EB8303D3F80012064A0A40C3F817
:1043B000002270470022803352F82330FFDE00BF16
:1043C00000258450F0F8FCFF00F01F0340090BD1DA
:1043D000084A02EB8302D2F80012074B0B4043F06D
:1043E0000303C2F8003270470022803352F82330B2
:1043F000FFDE00BF00258450F0F8FCFF00F01F0333
:1044000040090BD1084A02EB8302D2F80012074B95
:104410000B4043F00203C2F80032704700228033A1
:1044200052F82330FFDE00BF00258450F0F8FCFF77
:10443000F8B505462B6D046803F48223B3F5805F5D
:10444000D4F8000205D009B100232B626FF076008A
:10445000F8BDD4F80463C4F8086309B9830645D4E9
:10446000D4F8003223F02003C4F800324FF4A11333
:1044700005F15007D7E8EF1F1943C7E8E01F0028F0
:10448000F8D112B9AB68002B57D12D4BC4F80833C3
:1044900001236360D4F84431002BFBD00023C4F81F
:1044A0004C31D4F84C21C4F81031D4F81021C4F8A0
:1044B0004431D4F844212A6D12F4004219D12A6201
:1044C000204601F0B4F80023EB606B61D7E8EF3FC2
:1044D0006FF31733C7E8E23F002AF7D126F420260E
:1044E00026F404760020C4F80463B1E74FF4803367
:1044F000BEE7C4F84C31D4F84C21EA69C4F834253D
:104500000522C4F83825C4F81031D4F8103101233D
:10451000E362D4F81031002BFBD00022C4F8102144
:10452000D4F81031D4F84C310BB1D4F83C352B62AF
:10453000C4F84C21D4F84C31C2E701236360D1E7C1
:1045400010020A002DE9F84391F8306005460C4648
:10455000A6B9036D43F0007303650868471C08D0D3
:10456000430940F0AE800123584A83409360FFF72F
:104570002BFF6068411C01D0FFF70EFF94F82C80E0
:10458000E768B8F1010F15D1A6B92B6D7A1C43F07D
:1045900000632B6502D03846FFF7FEFEA068431C7F
:1045A00008D0430940F08F800123484A834093603C
:1045B000FFF70AFF94F82F601EB92B6D43F080734C
:1045C0002B6594F82D1094F82E202B68D4F828C071
:1045D00048EA01010A43A068D4E9009EC3F824C553
:1045E000C3F86C2556B9B8F1010FC3F80C95C3F8A0
:1045F00014E504BFC3F80805C3F810754FF47F0233
:10460000D2F83031BFF34F8FD2F83421BFF34F8F40
:10461000BFF34F8FC3F30B03092B1BD12B68D3F8C8
:10462000682503F26457012A08BFDA60D3F86425CD
:10463000012A0FD1082149F64046C3F800155A60F7
:104640003B689BBB2B68D3F88024C3F880240022EE
:10465000C3F8002500212B6894F83220C3F810110C
:10466000D3F81001C3F82011D3F82001C3F82411A6
:10467000D3F82401C3F84411D3F84401C3F8581106
:10468000D3F8581143F307335201002BD2B213DB96
:104690000F49C81880F800230122580903F01F03AE
:1046A00002FA03F341F82030BDE8F8830120FFF758
:1046B00063FE013EC4D1C5E7064903F00F03CA54A7
:1046C000F2E7B660FFDE00239B60FBE70025845025
:1046D00000E100E014ED00E02DE9F74304460E464A
:1046E00094F84C1091460430002970D1502209F002
:1046F000BCFF336963607369E363B36903B1013B72
:104700002364336A042B81BFF369E36100232362CE
:1047100096F83130B9F1000F2FD083F001084FEA3D
:1047200008281BB1236D43F001032365012325688D
:1047300084F84C30D5F84C21C4F80890FAB93146C9
:104740002046FFF7FFFE0822002325688DF807307A
:10475000C5F800250DF10702C5F84425C5F8483510
:1047600001230A26AB60EB60D5F8583193BB0120DA
:10477000FFF702FE013EF7D122E0C846D1E708224A
:104780006427C5F800256B60D5F84431EBB9D5F83E
:104790002431D3B90A20FFF7EFFD013FF4D1002304
:1047A000C5F84C31D5F84C21C5F81031D5F8102199
:1047B000C5F84431D5F84421C5F80035002FBED1E5
:1047C0006FF08B0003B0BDE8F0830127E7E76FF0DF
:1047D0007700F7E70020C5F820018145D5F82031A2
:1047E000054B08BF0346226848EA0303C5F80005E5
:1047F000C2F80433E6E700BF10020A0003682B4A40
:104800002DE9F041C3F8082343F30733002B044696
:104810000DDB01215A0903F01F03994002F1200327
:10482000234A42F82310BFF34F8FBFF36F8F01224B
:1048300020461146FFF7FCFD0121204601F0B8F8A3
:10484000256D2368E901D3F80C05D3F81485D3F856
:104850000865D3F8107509D54FF0FF32C3F80C2561
:10486000C3F81425C3F80825C3F81025AA0115D5E7
:10487000431C01D0FFF7C2FDB8F1FF3F02D0404614
:10488000FFF7BCFD290109D57A1C02D03846FFF795
:10489000B5FD731C02D03046FFF7B0FD002384F84D
:1048A0004C302365A360BDE8F08100BF10034A00CF
:1048B00000E100E0F8B50646044656F8505B071DD7
:1048C000D6E8EF3F43F48052C6E8E02F0028F7D146
:1048D000DA0466D44B0702D5E369002B64D0344B6D
:1048E000C5F808330823C5F800350023C5F8103192
:1048F000D5F81021C5F84C31D5F84C21C5F8443114
:104900000A03D5F844318B0303F4804302F40052C8
:104910004903134301F400410B43D6E8EF2F1A4338
:10492000C6E8E12F0029F8D1E368B3B9A3686BB9F1
:10493000236DD80433D5D6E8EF3F6FF31733C6E8BD
:10494000E23F002AF7D16FF00B00F8BD0321384693
:1049500000F048FEE368002BEAD0D5F8043359078D
:1049600010D5A36873B1236D1A030BD5D6E8EF3FBA
:1049700023F40023C6E8E23F002AF7D10621384697
:1049800000F030FE236DDB0409D5D5F84C310BB9AE
:1049900001232B60A36813B1054BC5F80433002035
:1049A000D3E76FF00F00D0E74FF0FF30CDE700BF47
:1049B00010020A0072B6024A13680133136070478E
:1049C00094A40020034A1368013B136003B962B644
:1049D000704700BF94A4002000487047647C010029
:1049E0000022034BC3F88425C3F80425704700BF99
:1049F00000900350044AD2F80834DB07FBD501606D
:104A0000BFF35F8F704700BF0090035008B5C0F33D
:104A10000B0383B90222094BC3F88425C3F804258C
:104A20004FF0FF320260D3F80024D207FBD5FFF726
:104A3000D7FF002008BD6FF00C00FBE7009003508B
:104A4000F8B51546012206460F460024094BC3F867
:104A50008425C3F80425A54203D1BDE8F840FFF73B
:104A6000BFBF57F8241006EB8400FFF7C3FF0134E3
:104A7000F1E700BF00900350003A18BF012200394F
:104A800018BF012103688900074841EA4201186301
:104A900059605A6842F001025A60BFF34F8FBFF36A
:104AA0006F8F0020704700BF04AAFF000722024B4F
:104AB000C3F80423704700BF00300050084BD3F800
:104AC0000801D3F80021003818BF012080000AB186
:104AD00040F00100D3F804310BB140F00200704700
:104AE000003000500022074BC3F80021D3F800111A
:104AF000C3F80421D3F80411C3F80821D3F808310E
:104B0000704700BF00300050002317200C49012BD4
:104B100003F1010201D81346F9E703F5C073202A17
:104B200041F823001346F2D100231720044A03F56D
:104B3000E0710133202B42F82100F8D1704700BF0B
:104B40000030005010B59DF80840C00B43EA042324
:104B5000064CC90B43EA0213884200D910BDC2B209
:104B600002F5C07244F822300130F5E70030005001
:104B700010B59DF8084000F1604043EA042301F1BC
:104B80006041074C400B490B43EA0213884200D9AD
:104B900010BDC2B202F5E07244F822300130F5E7F0
:104BA00000300050C0F30E03C3F50043B3FA83F3A3
:104BB000C3F11B03064AC0F3C730DBB240F4807078
:104BC00043F48073C2F80005C2F80435704700BF93
:104BD00000300050014B03EB40307047FF1FF81FBF
:104BE000054BC0F30730090241F0300100F50070B9
:104BF00043F82010704700BF00300050044BC0F352
:104C00000730090200F5007043F82010704700BF1C
:104C10000030005008B5FFF751FF034B1860034800
:104C2000BDE80840FFF7A2B990AF002084790100E9
:104C30000C22014909F0F4BC90AF0020F8B502F055
:104C4000CFFC044628B905F085FE044618B145F2AC
:104C500023542046F8BD01F068F848B91548FFF71D
:104C600085F900F035F80028F1D11348FFF77EF9F7
:104C7000124A1348D368002523F008031B041B0CB9
:104C800043F0BF6343F40033D360FFF76FF90021B3
:104C90000C48FFF76BF901260B4F06FA05F33B4270
:104CA00003D029460948FFF761F90135202DF4D1D9
:104CB000CFE700BF9A790100CD79010000ED00E057
:104CC000D8790100007A010000000330157A010054
:104CD00030B5E7B0202200210EA809F0C6FC374B02
:104CE00002AA03F10805144618685968083303C47A
:104CF000AB422246F7D118689B884FF4A07200217E
:104D00002060A38016A809F0B0FC01F00EF820B1D5
:104D10002B48FFF72BF92B4C20E002A90D2216A8F7
:104D200005F082FE014618B12748FFF71FF914E08D
:104D300001AD2B4606A9202216A805F035FF044632
:104D400016A805F003FF019D01460CB9202D08D0DF
:104D50002A4621461D48FFF709F91D4C204667B039
:104D600030BDE8B9022006A900F060F8044600282A
:104D7000F4D104200AA900F059F804460028EDD126
:104D800001462A4606A809F070FC2A460EA906A884
:104D90000BF0C0F8044628B10E48FFF7E7F8DCE74F
:104DA0000D48C2E7022000F057F820B1042000F0BF
:104DB00053F80028D2D10948ABE700BF537B01006C
:104DC000247A0100FE9AFEFF567A0100827A0100E1
:104DD000FD9AFEFFF87A0100BE7A01002D7B0100EA
:104DE000F0B585B004460E4617461D4600F034F86F
:104DF00098B10C9B2A4603930B9B8021CDE901734C
:104E000020460A9B009606F00FF820B101460448A0
:104E1000FFF7ACF8034805B0F0BD0348FBE700BF5F
:104E2000617B0100FC9AFEFFFF9AFEFF10B50B4666
:104E30006FF003020549044605F0F4FF28B102466D
:104E400021460348FFF792F8024810BD0014845031
:104E5000A87B0100FE9AFEFF70B5431CC500044606
:104E6000194E1A48C6F80035284400F07CFF01307E
:104E700004D00023C6F80035012070BD05F57F0081
:104E800000F5044000F06FFF01304FF0000502D044
:104E9000C6F80055F0E7240104F57F0404F5084442
:104EA000204600F060FF013004D00022064BC3F81A
:104EB0000025E1E70135042D04F10404F0D10020C0
:104EC000014BC3F80005D8E7009003500484FF00AD
:104ED000024B1860024B002019607047A0AF002001
:104EE0009CAF00201FB5274C426923685A62826933
:104EF0009A62C269DA62026A1A63426A5A63826A11
:104F00009A63C26ADA63026B1A64426B5A60826BFC
:104F10009A60C26BDA60026C1A61426C5A61826CF0
:104F20009A61C26CDA61026D1A62826D5A65C26D55
:104F30009A65026FDA65026E1A66826E5A66426F71
:104F40009A66EFF388825A64EFF389829A64426822
:104F5000DA64EFF394821A65026801A81A67FFF712
:104F600067FE2368019ADA6601221A70064B1C68F4
:104F70006408640020462146224623460BF034F89C
:104F800004B010BDA0AF00209CAF002000B5A1B0C0
:104F900001A8FEF761FF029B63B15B060AD4019B87
:104FA00023F00203052B05D1044B1B6813B101A8A4
:104FB000FFF798FF21B05DF804FB00BF9CAF002015
:104FC000BFF34F8F0549064BCA6802F4E0621343F2
:104FD000CB60BFF34F8F00BFFDE700BF00ED00E0E7
:104FE0000400FA0570B50446074E4518A54201D8DD
:104FF000002070BD2046F369984710B904F580542D
:10500000F4E743F65C20F4E7387C01002DE9F84F23
:10501000DFF85CA00746DAF8043088461546984762
:105020000024144BC0F3410013F8209004F18003D6
:10503000AB4294BF80262E1BB6FBF9FBDAF8143086
:105040005A460D493819984700280EDB5A46DAF8B7
:105050001830094908EB04009847002805DB344460
:10506000A542E3D80020BDE8F88F43F65C20FAE7BC
:10507000387C01007C7C010005B300202DE9F3475A
:10508000DFF870900546D9F80430884614469847F2
:10509000194BC0F3410013F820A0B5FBFAF70AFB47
:1050A000175727BBA4B9384602B0BDE8F0870AFB02
:1050B00006F6A41BF7D0012201A9A819C8470028A9
:1050C00012DB224601A908EB060009F0A9FAEAE77B
:1050D000B4FBFAF605F57625324641462846D9F85E
:1050E0001490C8470028E2DA43F65C27DBE74AF26F
:1050F000C537D8E7387C01007C7C01002DE9F04FF2
:1051000086187542C5F30B05354485B0B5F5805F4B
:105110000446019104D943F65C2005B0BDE8F08F48
:10512000DFF86C81D8F8043098470422594BC0F35B
:10513000410053F82070D8F8143057480093FBB260
:10514000B2FBF3F203A9009B9847039A531C023267
:1051500008BF01230393002D34D024F47F6B2BF080
:105160000F0BA5EB0B010BF57620FFF73BFF00289B
:10517000D1D1B5F5BE7FAA4628BF4FF4BE7ADA4535
:1051800029D8B5F5BE7F5ED3FBB20427B7FBF3F792
:10519000424D3A4629464048009B9847B6F5BE7FA7
:1051A0005CD8042203A93D4809F03AFA384B3A4644
:1051B0003A493B489B69984708B18742ABD100F018
:1051C000CEFEAAE74FF480514FF47620FFF70AFF96
:1051D0000028C2D09FE70BF180039A452CBF4FF007
:1051E0008009AAEB0B095FFA87F8B9FBF8F82B499D
:1051F0004246009B0BF5772098475E4516D909EB90
:105200000B039C4212D2A3455A4638BF2246111BBB
:10521000A2EB0B009E4294BFC2EB0602C2EB03025C
:10522000019B19441D4B184409F0FAF9184B4246EA
:105230009B691A490BF57620984710B180457FF499
:105240006AAFCB449BE74FF4BE724FF476214FF424
:105250007720FFF7DBFE002896D05CE7B4F5C07F2F
:105260009FD2B4F5BE7F224638BF4FF4BE72019B79
:10527000111BA2F5BE700B44B6F5C07F94BFC2EB04
:105280000602C2F5C0721946284409F0C9F988E738
:10529000387C01007C7C01007C710F0005B300208C
:1052A0007C610F002DE9F0414D4F86B00020BB68B6
:1052B000984700286BD104226946FFF7DFFE0446B9
:1052C00000283FD104224FF4BE700DEB0201FFF71E
:1052D000D5FE0446002835D1424E009BB34203D18F
:1052E000019B013B03335ED97B6898473E4BC0F37B
:1052F000410053F8205004224FF4805004A9FFF7D6
:10530000BDFE0446F0B9042241F27C1005A9FFF766
:10531000B5FE0446B0B9049B4FF48051B3424FF43C
:10532000762013D1059B013B03330FD8FFF75AFEBC
:1053300068BB4FF480524FF476214FF47720FFF78B
:1053400065FE20BB204606B0BDE8F081FFF74AFEAF
:105350000146E0B94FF08008EDB28022234809F001
:1053600084F9B8FBF5F84FF47625BF692846424624
:105370001E498035B847B5F5772FF7D100F0EFFD1E
:1053800028B9042202A90296FFF7B8FE10B143F62D
:105390005C24D7E70123042203A94FF4BE700393D2
:1053A000FFF7ACFECDE7042241F27C1005A9FFF720
:1053B00065FE04460028C5D1059B5A1E033206D857
:1053C000019A934203D30233BCD1012ABAD100F02F
:1053D000C6FD43F65C23002818BF1C46B2E700BF99
:1053E000387C01001281DEC07C7C010005B3002006
:1053F0001E2809D801230A4A8340134207D113F01B
:10540000980F08D11D2808D04CF25A30704720233D
:1054100000200B6070470423FAE74023F8E700BF41
:10542000650F0040F8B543680C2B01D00220F8BD91
:105430004B68042BFAD14FF0FF3304680D682168E4
:105440002B600029F2D0A268002AEFD006230120A9
:1054500001F0D3FE0028E9D16168264B994206D9B4
:10546000A2682D338818984204D8234B11E0234BAF
:105470009942DBD9A26822488B1883421CD900F5D7
:10548000FF404F308142D1D900F2F9208342CDD87C
:105490001C4B03F17F4303F50043B3F5805F2068A5
:1054A00023D241EA02039B0722D10746091ACE19EB
:1054B00022B900202860BAE7134BEAE7EFF3108225
:1054C00000F0CBFD10B1012A00D072B6366800F0B2
:1054D000C4FD20B1BFF34F8F012A00D062B6A2688D
:1054E00047F8046B043AA260E1E709F099F8E0E7B5
:1054F00003209CE7FF01FF000002FF002F01FF00D7
:105500003801FF000881FF003001FF004FF47F03E6
:10551000D3F83001BFF34F8FD3F83431BFF34F8F3F
:10552000BFF34F8FC0F30B00A0F10903584258415D
:1055300070474FF47F02D2F83031BFF34F8FD2F86B
:105540003401BFF34F8FBFF34F8FC3F30B03092B0E
:1055500008BF01280CBF01200020704708461146F3
:10556000FEF718BD012070476FF003007047002060
:1055700070476FF00300704700207047022814BF87
:105580006FF0030000207047FEF774BE70B540F264
:10559000FF1501EB8202914200D170BD51F8044B1E
:1055A000C4F30803240EAB4208BF4FF0FF33032CB3
:1055B000F1D8DFE804F0020406080360EBE743607B
:1055C000E9E78360E7E7C360E5E70346D0F8580101
:1055D00030B931B9D3F82001003818BF0120704725
:1055E0000120704730B504460D4685B010220021D9
:1055F000684609F03AF8D4E9001368468DF800507F
:10560000984705B030BD7FB504460E4615460021CB
:105610001022684609F029F8012368468DF8003009
:10562000CDE90165D4E90013984704B070BD10B509
:105630000446FFF7BFF9D4F8583133B1D4F8043336
:1056400013F4800308BFC4F80035BDE81040FFF72D
:10565000B9B9D0F8583133B1CB6CC3F30032DB04A5
:1056600058BFC0F8002570472DE9F74F86680446FB
:105670000D463EB113F0020604D0C36B002B00F0C0
:1056800082800126276D17F010077CD14FF00109A9
:10569000BA46AB180093009B9D4276D005F0604B54
:1056A000E26BD4F8008082B9BBF1005F7AD101923D
:1056B000FFF780F9216D404601F00101FFF785FFFA
:1056C000019A20B9FFF77EF9EAE70122EFE7A16C22
:1056D000AB460029BCBFD8F84C15A1643AB1D4E957
:1056E0000F1228788854D4E90F1201EB020BBBF19A
:1056F000000F03D0C8F844B5C8F84895C8F820A1F1
:10570000D8F82021C8F858A1D8F85821C8F850A1D5
:10571000D8F850210822C8F800251EB14FF48002A5
:10572000C8F80423C8F80890FFF74CF9EEB9216DCA
:1057300001F001014046FFF748FF0346D8F84C0549
:10574000D8F844252BBB9345F4D009B9C8F80C9080
:105750004FF0000BFFF72EF94046211DFFF779FFB0
:10576000FFF730F9BBF1000F0DD1A368C3B9236D6A
:105770001B0715D55034D4E8EF3F23F00803C4E8E5
:10578000E23F002AF7D14FF0FF37384603B0BDE8BB
:10579000F08F9345D9D10028D7D14FF0FF3BD9E7FF
:1057A000013578E76FF01507EFE770B5CE6C0D4661
:1057B00006F001010446FFF708FF38B94FF48003F3
:1057C00046F00406EE64C4F8043370BDD5E90A3629
:1057D0005AB1296CEA6B761A964228BF16461944CC
:1057E0003246A86B08F01CFFAB6B4FF0FF326A64C7
:1057F0001BB1C4F84435C4F848650023C4F820310F
:10580000D4F82021C4F85831D4F85821C4F85031C4
:10581000D4F850310823C4F800354FF48003C4F89D
:1058200004330123A360D0E737B590F84C30044629
:105830003BB3036B4BBB0268C2F8003583680BB106
:105840000B6943602046FEF77DFE08220023246892
:105850008DF80730C4F800250DF10702C4F844257F
:10586000C4F8483501230A25A360E360D4F8583111
:1058700073B90120FEF780FD013DF7D16FF08B0079
:1058800001E06FF0760003B030BD6FF00F00FAE773
:105890000020C4F82001D4F82031C4F80005F2E754
:1058A00090F84C00003818BF012070472DE9F047F0
:1058B00004460F461E469046002A64D085685DB9AE
:1058C00053B9066B002E61D10263FFF7CDFE05468A
:1058D00026632846BDE8F087B10707D03346424625
:1058E00039462046BDE8F047FFF7BEBE07F06043EB
:1058F000B3F1005F19D0E36B002B4AD0720748D494
:105900000125D4F80090FFF755F8236BBBB9C4E923
:105910000B781DB1236D43F0020323652A464846E8
:10592000211DFFF742FF002524E0256D15F001053C
:10593000E7D016F00405E4D04FF0FF35C9E7A36BBC
:10594000DBB9730719D5E36A03F06043B3F1005F75
:1059500016D1236DC4E90D7843F0100323650A24A2
:10596000D9F85031C3B90120FEF706FD013CF7D14B
:105970006FF08B05FFF726F8ABE76FF00F05F9E73F
:105980004FF0FF35F6E76FF00605A2E76FF00F0561
:105990009FE76FF00C059CE70023C9F85031D9F858
:1059A0005031002FBFD0C9F84475C9F84885BAE70F
:1059B000F8B50468036BD4F804730546C4F808739B
:1059C00023B96FF07600C4F80473F8BD00F15003FA
:1059D000D3E8EF0F40F00800C3E8E20F002AF7D148
:1059E0000123E360F9B12E6D1E4031462046FFF7DA
:1059F000ECFD0028F9D0FEF7DDFFC6B9D4F8203160
:105A00004BB10123E360D4F85831002BFBD0204682
:105A1000291DFFF71EFEFEF7D5FF0023C4F8203135
:105A2000D4F820212B630020C4F80473CDE7D4F808
:105A30005831002BEBD1EEE72DE9F0470568036DF7
:105A4000D5F8049313F4802804460F461646C5F88B
:105A5000089340F08F8001F06042B2F1005F40F0A7
:105A60008C80C26852B18268002A72D1D5F81021A8
:105A7000002A6ED0C5F81081D5F81031226AC4E929
:105A80000376002A44D09642E16930D8002332469A
:105A9000C4E90333384608F0C3FD226AE069921B6B
:105AA0002262811908F080FDA368DBB1236D13F435
:105AB000005A09D004F15003D3E8EF1F41F48021CC
:105AC000C3E8E21F002AF7D10434324639462046A3
